:100000000C94111B0C943B1B0C943B1B0C943B1B42
:100010000C943B1B0C943B1B0C943B1B0C943B1B08
:100020000C943B1B0C943B1B0C943B1B0C943B1BF8
:100030000C943B1B0C941FD50C943B1B0C943B1B4A
:100040000C943B1B0C94B6750C94AAE30C943B1BCC
:100050000C945B3B0C94513B0C943B1B0C943B1B52
:100060000C943B1B0C943B1B0C943B1B0C943B1BB8
:100070000C943B1B0C943B1B0C943B1B0C943B1BA8
:100080000C943B1B0C943B1B0C943B1BAEB96DB802
:10009000A4B8EAB9A4B8A4B8A4B8A4B8A4B8A4B839
:1000A000A4B8A4B8A4B8A4B8A4B8A4B8A4B8A4B870
:1000B000A4B8A4B8A4B8A4B8A4B8A4B8A4B8A4B860
:1000C000A4B8A4B8A4B8A4B8E4B9A4B8A4B8A4B80F
:1000D000A4B8A4B8A4B8A4B8A4B8BDB9A4B8A4B826
:1000E000A4B8A4B8A4B8A4B8A4B8A4B8A4B8A4B830
:1000F00001BAA1B85CE235E238E25FE23BE23EE2FF
:1001000041E24DE244E25AE247E24AE29BE29EE2E9
:1001100091E295E2B5E2B5E2A2E2A6E2ACE2B0E29B
:1001200019E31EE323E32DE35BE35BE337E33FE304
:1001300047E351E34E414E494E495459494E46CD4D
:10014000CCCC3D0AD7233C17B7D13877CC2B32958E
:1001500095E6241FB14F0A000020410000C842006C
:10016000401C4620BCBE4CCA1B0E5AAEC59D7443F3
:100170004F4D4D554E49434154494F4E00445259FD
:1001800052554E004552524F525300494E464F0071
:100190004543484F00496E76616C69642065787408
:1001A00072756465720A003F4B2076616C7565203C
:1001B0006F7574206F662072616E67652028302D20
:1001C0003130292E0A00416476616E6365204B3D13
:1001D00000454550524F4D204F4B0A0044C3A96380
:1001E000616C61676573206170706C697175C3A91A
:1001F00073004572723A20546F6F2066617221005D
:10020000546F6F206661722066726F6D2072656632
:100210006572656E636520706F696E740A00FFFF1A
:10022000FF0000000000000000000000006469738F
:1002300000656E0043290A0061626C656420286DC8
:10024000696E2074656D702000436F6C6420657862
:1002500074727564657320617265200020643A00D1
:1002600020693A0020703A00496E76616C6964201A
:1002700065787472756465720A0020643A002069BA
:100280003A0020703A0020466C6F773A20004F46C3
:1002900046004F4E00205A00205900580020204DA3
:1002A00061783A2000205A00205900580020204D43
:1002B000696E3A2000536F667420656E6473746FC4
:1002C00070733A2000205400205200416363656C33
:1002D00065726174696F6E3A2050004D313435207B
:1002E000533C696E6465783E206F7574206F66209C
:1002F00072616E67652028302D31290A002F2F206A
:10030000004348414D4245525F54454D504552418E
:1003100054555245004D4F54494F4E5F4D4F444543
:100320005300544845524D414C5F50524F54454341
:1003300054494F4E004155544F5245504F52545F0F
:1003400053445F5354415455530050524F4D5054F1
:100350005F535550504F525400454D455247454EFE
:1003600043595F50415253455200434153455F4CFE
:10037000494748545F4252494748544E45535300F9
:10038000544F47474C455F4C494748545300534FDF
:100390004654574152455F504F57455200425549C8
:1003A0004C445F50455243454E54004C4556454CD5
:1003B000494E475F44415441005A5F50524F4245B5
:1003C000004155544F4C4556454C005052494E54EF
:1003D0005F4A4F420050524F4752455353004155D8
:1003E000544F5245504F52545F54454D5000564F54
:1003F0004C554D455452494300454550524F4D00D0
:1004000042494E4152595F46494C455F5452414E14
:10041000534645520053455249414C5F584F4E5F39
:10042000584F4646004649524D574152455F4E414E
:100430004D453A4D61726C696E2043726561777308
:100440006F6D65436F726520322E302E302D524312
:100450003020534F555243455F434F44455F5552FB
:100460004C3A68747470733A2F2F676974687562B8
:100470002E636F6D2F74726F7563682F4D61726C90
:10048000696E2050524F544F434F4C5F5645525364
:10049000494F4E3A312E30204D414348494E455F39
:1004A000545950453A3344205072696E7465722035
:1004B00045585452554445525F434F554E543A3176
:1004C00020555549443A63656465326132662D347E
:1004D0003161322D343734382D396231322D633564
:1004E000356336326633363766660A0020450020AB
:1004F0005A00205900204D393220580033442050F2
:1005000072696E746572204F46462E006F6B002034
:10051000573A00526566726F69642E206475206CCC
:1005200069742E2E2E004C697420656E20636861FC
:10053000756666652E2E2E004D3131332053006FC7
:1005400066660090018B0184017D016F0144454284
:1005500055473A004520526566726F696469737346
:10056000656D656E74004520456E20636861756633
:1005700066652E2E2E0050726F746563746564205C
:1005800050696E0A002569730025696D202569731D
:10059000002569682025696D202569730025696437
:1005A000202569682025696D2025697300256979F2
:1005B00020256964202569682025696D20256973D7
:1005C000005072696E742074696D653A20002E0ABD
:1005D0000044656C6574696F6E206661696C656462
:1005E0002C2046696C653A200046696C652064657C
:1005F0006C657465643A00286E6F2066696C6529C5
:100600000043757272656E742066696C653A2000ED
:100610005344207072696E74696E672062797465E4
:1006200020004E6F74205344207072696E74696E9E
:10063000670A00456E642066696C65206C69737496
:100640000A00426567696E2066696C65206C697393
:10065000740A004D6F746575727320626C6F7175EA
:10066000C3A97300417474656E7465207574696CF8
:1006700069732E005265706F732E2E2E0020636FEB
:100680006C6420657874727573696F6E2070726522
:1006900076656E7465640A004572726F72207772B7
:1006A0006974696E6720746F20454550524F4D2123
:1006B0000A000F150E1216170E1303021A1401006A
:1006C0000E0C190DFF180C040001627573793A20A5
:1006D00070617573656420666F7220696E707574E1
:1006E0000A00627573793A207061757365642066DB
:1006F0006F7220757365720A00627573793A2070A3
:10070000726F63657373696E670A004B494C4C20C6
:1007100063617573656420627920746F6F206D75F5
:10072000636820696E6163746976652074696D65BC
:10073000202D2063757272656E7420636F6D6D611C
:100740006E643A2000526564C3A96D61727265726D
:100750002053565000494D50522E2053544F505064
:10076000C38945004B494C4C4544005072696E7436
:1007700065722068616C7465642E206B696C6C28EE
:10078000292063616C6C6564210A006563686F3AB7
:10079000004572726F723A00486F74656E6420741F
:1007A0006F6F20636F6C640A004D3630303A20540E
:1007B000726F702066726F696400486F74656E6452
:1007C00020746F6F20636F6C640A00496E736572EA
:1007D000742066696C616D656E7420616E64207052
:1007E0007265737320627574746F6E0A005072655F
:1007F000737320627574746F6E20746F2068656106
:1008000074206E6F7A7A6C650A0024F4D43050C379
:100810008E20C2A24017828B7011127A910D816CCA
:10082000D90AA861E108C7586607615143061E4B03
:100830005D05C145A7041A411104093D98037139AA
:1008400031034036DB0265339102D4305402802EEE
:100850001D02632CEE01752AC501B028A0011027E6
:1008600081018F2564012B244B01E0223401AC214E
:100870001F018D200D01801FFC00841EED00971DBF
:10088000DF00B81CD200E61BC600201BBC00641AA7
:10089000B200B219A8000A19A0006A189900D1176D
:1008A000910040178B00B516840031167E00B315F9
:1008B00079003A157300C7146F0058146A00EE13DC
:1008C00066008813630025135E00C7125B006C127C
:1008D000570015125400C111510070114F00211121
:1008E0004B00D61049008D104700461044000210FE
:1008F0004200C00F4000800F3E00420F3C00060F38
:100900003B00CB0E3800930E37005C0E3500270EEF
:100910003400F30D3200C10D3100900D3000600D38
:100920002E00320D2D00050D2C00D90C2B00AE0C25
:100930002900850C29005C0C2700350C27000E0CC3
:100940002600E80B2400C40B2400A00B23007D0B21
:1009500023005A0B2100390B2100180B2000F80A44
:100960001F00D90A1E00BB0A1E009D0A1D00800A36
:100970001D00630A1C00470A1B002C0A1B00110AF9
:100980001A00F7091A00DD091900C4091900AB099A
:100990001900920917007B091800630917004C0918
:1009A000160036091600200916000A091500F50878
:1009B0001500E0081400CC081400B8081400A408BE
:1009C0001400900813007D0812006B0813005808EB
:1009D0001200460812003408110023081100120802
:1009E000110001081100F0071000E0071000D00707
:1009F0001000C0071000B0070F00A10710009107FA
:100A00000E0083070F0074070F0065070E005707DD
:100A10000E0049070E003B070D002E070E002007B1
:100A20000D0013070D0006070D00F9060C00ED067A
:100A30000D00E0060C00D4060C00C8060C00BC0635
:100A40000C00B0060C00A4060B0099060C008D06E5
:100A50000B0082060B0077060B006C060B0061068C
:100A60000A0057060B004C060A0042060A00380628
:100A70000A002E060A0024060A001A060A001006BA
:100A8000090007060A00FD050900F4050900EB0549
:100A90000900E2050900D9050900D0050900C705CC
:100AA0000900BE050900B5050800AD050800A5054B
:100AB00009009C050800940508008C0508008405C1
:100AC00008007C050800740508006C050700650532
:100AD00008005D050700560508004E05070047059C
:100AE00007004005080038050700310507002A0502
:100AF0000700230507001C050600160507000F0563
:100B000007000805060002050700FB040600F504BF
:100B10000700EE040600E8040600E2040700DB0418
:100B20000600D5040600CF040600C9040600C3046D
:100B30000600BD040600B7040600B1040500AC04BD
:100B40000600A6040600A00405009B040600950408
:100B50000500900406008A04050085040500800451
:100B600006007A04050075040500700405006B0496
:100B7000050066040500610405005C0405005704D7
:100B80000500520405004D04050048040500430417
:100B900005003E0404003A04050035040500300455
:100BA00004002C04050027040400230405001E048F
:100BB00004001A04040016040500110404000D04C6
:100BC0000400090405000404040000040400FC03FC
:100BD0000400F8030400F4030400F0030400EC0331
:100BE0000400E8030400E4030400E0030400DC0361
:100BF0000400D8030400D4030400D0030400CC0391
:100C00000400C8030300C503030024F404D9201B17
:100C1000C40C5C0E9804C4095F0265077101F405F9
:100C2000F900FB04B30048048700C10369005803BE
:100C3000550003034500BE023A008402310053020E
:100C40002A002902250004022000E4011C00C8013A
:100C50001900AF01170098011400840113007101FD
:100C600010006101100051010E0043010D0036011A
:100C70000B002B010B0020010B00150109000C01DA
:100C8000090003010800FB000800F3000800EB0066
:100C90000700E4000600DE000600D8000600D200CF
:100CA0000600CC000500C7000500C2000500BD001D
:100CB0000400B9000400B5000400B1000400AD0058
:100CC0000400A9000400A5000300A20003009F0087
:100CD00004009B00030098000300950002009300AD
:100CE0000300900003008D0002008B0003008800C9
:100CF00002008600020084000300810002007F00E1
:100D000002007D0002007B000200790002007700F3
:100D10000100760002007400020072000100710000
:100D200002006F0002006D0001006C0002006A000A
:100D30000100690002006700010066000100650013
:100D40000100640002006200010061000100600017
:100D500001005F0002005D0001005C0001005B001B
:100D600001005A000100590001005800010057001D
:100D7000010056000100550001005400010053001D
:100D8000000053000100520001005100010050001A
:100D900001004F0001004E0000004E0001004D0018
:100DA00001004C0001004B0000004B0001004A0014
:100DB0000100490001004800000048000100470010
:100DC000010046000000460001004500000045000B
:100DD0000100440001004300000043000100420004
:100DE00000004200010041000000410001004000FD
:100DF00001003F0000003F0001003E0000003E00F7
:100E000001003D0000003D0001003C0000003C00EE
:100E100000003C0001003B0000003B0001003A00E4
:100E200000003A00010039000000390001003800DC
:100E300000003800000038000100370000003700D3
:100E400001003600000036000000360001003500C9
:100E500000003500000035000100340000003400BF
:100E600000003400010033000000330000003300B4
:100E700001003200000032000000320001003100A9
:100E8000000031000000310001003000000030009F
:100E90000000300001002F0000002F0000002F0094
:100EA00000002F0001002E0000002E0000002E0088
:100EB00001002D0000002D0000002D0000002D007D
:100EC00001002C0000002C0000002C0000002C0071
:100ED00001002B0000002B0000002B0000002B0065
:100EE00001002A0000002A0000002A0000002A0059
:100EF000010029000000290000002900000029004D
:100F0000000029000100280000002800000028003F
:100F10000000280000002800010027000000270032
:100F20000000270000002700000027000100260025
:100F30000000260000002600000026000000260019
:100F4000010025000000250000002500000025000C
:100F500000002500000025000100240000002400FE
:100F600000002400000024000000240001002300F1
:100F700000002300000023000000230000002300E5
:100F800000002300000023000100220000002200D6
:100F900000002200000022000000220000002200C9
:100FA00001002100000021000000210000002100BC
:100FB00000002100000021000000210001002000AD
:100FC00000002000000020000000200000002000A1
:100FD00000002000000020000000200001001F0091
:100FE00000001F0000001F0000001F0000001F0085
:100FF00000001F0000001F0001001E0000001E0076
:1010000000001E0000001E000000232C0000B8227B
:101010000000561800003A0F0000B8080000B104A4
:101020000000710200003E01000023646566696EE5
:10103000652044454641554C545F0000626564009C
:101040004B6420004B6920004B7020005049442025
:101050004175746F74756E652066696E6973686535
:1010600064212050757420746865206C617374204D
:101070004B702C204B6920616E64204B6420636FA1
:101080006E7374616E74732066726F6D2062656C2E
:101090006F7720696E746F20436F6E666967757233
:1010A0006174696F6E2E680A00504944204175745E
:1010B0006F74756E65206661696C65642120746962
:1010C0006D656F75740A0045312045727220544871
:1010D00045524D495155450045727220544845527C
:1010E0004D49515545204C495400546865726D6115
:1010F0006C2052756E6177617900453120457272BE
:1011000020646520636861756666650045727220BB
:1011100064652063686175666665206C6974004863
:10112000656174696E67206661696C656400504929
:1011300044204175746F74756E65206661696C65D5
:1011400064212054656D70657261747572652074D8
:101150006F6F20686967680A00204B643A2000209E
:101160004B693A2000204B703A20000A20436C6102
:101170007373696320504944200A00204B643A206D
:1011800000204B693A2000204B703A20000A204E84
:101190006F206F76657273686F6F740A00205475E4
:1011A0003A2000204B753A2000206D61783A2000EB
:1011B000206D696E3A200020643A20002062696147
:1011C000733A2000504944204175746F74756E6500
:1011D0002073746172740A00504944204175746F21
:1011E00074756E65206661696C6564212054656D57
:1011F000706572617475726520746F6F20686967BD
:10120000680A00504944204175746F74756E6520FA
:101210006661696C6564212042616420657874723E
:1012200075646572206E756D6265720A0045727232
:101230003A207574663820666F6E74206E6F742065
:10124000696E697469616C697A65642E00457272B1
:101250003A207574663820666F6E74206E6F742045
:10126000696E697469616C697A65642E0045727291
:101270003A207574663820666F6E74206E6F742025
:10128000696E697469616C697A65642E0000060C88
:1012900000FE07022603BC01FFFE0AFE08FE050849
:1012A0000806000040F0C8888898781005080806ED
:1012B0000000C0F88888888888F8050505060001C0
:1012C0002030F830200508080600002070F82020A3
:1012D0002020E00509090600FF2070A8A8B888882A
:1012E0007020050606060001E08CEA8C8A0A0509D2
:1012F000090600FFF8A88888888888A8F8050A0ADF
:101300000600FE205050505088A8A88870030303A0
:1013100006000340A040FFFFFFFFFFFFFFFFFFFFAE
:10132000FFFFFFFFFFFFFFFFFFFFFFFF00000006C3
:1013300005FF01070706020080808080800080038F
:101340000303060105A0A0A005060606000050F84C
:101350005050F8500509090600FF2070A8A0702819
:10136000A87020050707060000C8C81020409898FC
:1013700005070706000040A0A040A89068010303ED
:101380000602058080800309090601FF2040408095
:1013900080804040200309090601FF804040202052
:1013A0002040408005070706000020A8702070A894
:1013B000200505050600012020F820200203030671
:1013C00001FFC04080050101060003F80202020689
:1013D0000100C0C0050707060000081010204040AB
:1013E00080050707060000708898A8C88870030762
:1013F0000706010040C040404040E00507070600E6
:1014000000708808102040F8050707060000F8085B
:10141000103008887005070706000010305090F85B
:101420001010050707060000F880F008088870050E
:101430000707060000304080F0888870050707061F
:101440000000F80810102020200507070600007093
:10145000888870888870050707060000708888787B
:10146000081060020505060100C0C000C0C00206E9
:10147000060601FFC0C000C040800305050601014B
:101480002040804020050303060002F800F8030511
:101490000506010180402040800507070600007016
:1014A0008810202000200507070600007088B8A8D3
:1014B000B88070050707060000708888F88888885B
:1014C000050707060000F04848704848F005070780
:1014D000060000708880808088700507070600007D
:1014E000F04848484848F0050707060000F88080A3
:1014F000F08080F8050707060000F88080F0808003
:1015000080050707060000708880809888700507AE
:1015100007060000888888F888888803070706017E
:1015200000E04040404040E005070706000038105A
:1015300010101090600507070600008890A0C0A05A
:101540009088050707060000808080808080F8056D
:10155000070706000088D8A8888888880507070636
:1015600000008888C8A898888805070706000070CA
:10157000888888888870050707060000F08888F04A
:1015800080808005070706000070888888A890681A
:10159000050707060000F08888F0A0908805070777
:1015A0000600007088807008887005070706000034
:1015B000F8202020202020050707060000888888C2
:1015C000888888700507070600008888888850503A
:1015D0002005070706000088888888A8A850050706
:1015E00007060000888850205088880507070600F5
:1015F0000088885020202020050707060000F808F2
:1016000010204080F80309090601FFE080808080F7
:10161000808080E005070706000080404020101011
:10162000080309090601FFE020202020202020E0F7
:101630000503030600052050880501010600FEF899
:101640000303030601058040200505050600007020
:10165000087888780507070600008080F088888869
:10166000F0050505060000708080887005070706F4
:10167000000008087888888878050505060000704D
:1016800088F08070050707060000304840E04040C1
:10169000400507070600FE708888887808700507EF
:1016A000070600008080F088888888030707060105
:1016B000004000C0404040E00409090601FE10005F
:1016C0003010101010906005070706000080808819
:1016D00090E09088030707060100C040404040406A
:1016E000E0050505060000D0A8A8A8A80505050680
:1016F0000000B0C888888805050506000070888845
:1017000088700507070600FEF0888888F08080054D
:1017100007070600FE78888888780808050505060A
:101720000000B0C880808005050506000078807044
:1017300008F00507070600002020F82020201805E3
:1017400005050600008888889868050505060000DC
:1017500088888850200505050600008888A8A850BC
:10176000050505060000885020508805070706007B
:10177000FE88888850204080050505060000F81086
:101780002040F80309090601FF2040404080404006
:1017900040200109090602FF8080808080808080CF
:1017A000800309090601FF804040402040404080FE
:1017B00005030306000248A890FFFFFFFFFFFFFF9D
:1017C000FFFFFFFFFFFFFFFFFFFFFFFFFFFFFFFF29
:1017D000FFFFFFFFFFFFFFFFFFFF0000000605FF09
:1017E00001070706020080008080808080050707CF
:1017F0000600FF2070A8A0A87020050707060000BB
:10180000304840E04048B0050505060000A8508873
:1018100050A80507070600008850F820F82020018E
:101820000707060200808080008080800408080688
:10183000010070806090906010E0030101060107D4
:10184000A00607070600007884B4A4B484780305D2
:101850000506010460A06000E005050506000028FB
:1018600050A05028050303060001F80808030101F1
:10187000060103E00607070600007884B4A4A484E8
:1018800078050101060007F80404040601056090CC
:1018900090600507070600002020F8202000F803CC
:1018A000050506010440A02040E0030505060104EB
:1018B000C0204020C0030303060105204080050727
:1018C000070600FE88888898E880800508080600DA
:1018D0000078E8E8E868282828020202060203C027
:1018E000C00302020601FE20C003050506010440F4
:1018F000C04040E003050506010540A04000E005AA
:101900000505060000A0502850A0050A0A060000A0
:1019100040C048506050B0507810050A0A060000D8
:1019200040C048506050A8081038050A0A06000058
:10193000C0204830E050B05078100507070600007E
:1019400020002020408870050A0A06000040200080
:10195000708888F8888888050A0A06000010200028
:10196000708888F8888888050A0A060000205000D8
:10197000708888F8888888050A0A06000068B00020
:10198000708888F88888880509090600005000706A
:101990008888F8888888050A0A0600002050207088
:1019A0008888F888888805070706000078A0A0F0D6
:1019B000A0A0B80509090600FE70888080808870A4
:1019C0001060050A0A060000402000F88080F080C0
:1019D00080F8050A0A060000102000F88080F080D8
:1019E00080F8050A0A060000205000F88080F08088
:1019F00080F80509090600005000F88080F080801A
:101A0000F8030A0A060100804000E04040404040E0
:101A1000E0030A0A060100204000E0404040404048
:101A2000E0030A0A06010040A000E04040404040B8
:101A3000E0030909060100A000E04040404040E00A
:101A4000050707060000704848E8484870050A0A7C
:101A500006000068B0008888C8A8988888050A0A27
:101A600006000040200070888888888870050A0A6F
:101A700006000010200070888888888870050A0A8F
:101A800006000020500070888888888870050A0A3F
:101A900006000068B0007088888888887005090989
:101AA0000600005000708888888888700505050643
:101AB000000188502050880509090600FF08709829
:101AC000A8A8A8C87080050A0A060000402000885F
:101AD000888888888870050A0A0600001020008817
:101AE000888888888870050A0A06000020500088C7
:101AF0008888888888700509090600005000888851
:101B00008888888870050A0A0600001020008888E6
:101B1000502020202004070706010080E0909090CC
:101B2000E080050707060000708890A09088B00547
:101B3000080806000040200070087888780508082A
:101B40000600001020007008788878050808060054
:101B500000205000700878887805080806000068A2
:101B6000B0007008788878050707060000500070FC
:101B7000087888780508080600002050207008784A
:101B80008878050505060000702870A0780507070D
:101B90000600FE7088808870106005080806000046
:101BA0004020007088F080700508080600001020B2
:101BB000007088F080700508080600002050007052
:101BC00088F0807005070706000050007088F080DC
:101BD00070030808060100804000C0404040E00358
:101BE0000808060100204000C0404040E00308080B
:101BF00006010040A000C0404040E0030707060186
:101C000000A000C0404040E0050909060000502047
:101C10005008788888887005080806000068B000B9
:101C2000B0C8888888050808060000402000708831
:101C300088887005080806000010200070888888D1
:101C4000700508080600002050007088888870051C
:101C5000080806000068B0007088888870050707CB
:101C60000600005000708888887005050506000190
:101C70002000F800200505050600007898A8C8F0A7
:101C8000050808060000402000888888887005083C
:101C9000080600001020008888888870050808065B
:101CA000000020500088888888700507070600001B
:101CB00050008888888870050A0A0600FE102000F7
:101CC000888888502040800509090600FE8080F041
:101CD000888888F080800509090600FE5000888801
:101CE000885020408000002200250028002B0000A2
:101CF0000020002300260029000202020202020244
:101D0000020404040404040404030303030303039C
:101D10000301010101010101010102040810204039
:101D200080010204081020408001020408102040B5
:101D30008080402010080402010000000102000918
:101D40000A00000000040308070000000000000073
:101D500000000000000000000044C3A9706C616333
:101D6000657220302E316D6D0044C3A9706C6163C3
:101D7000657220316D6D0044C3A9706C616365723A
:101D80002031306D6D0044C3A9706C6163657220B1
:101D9000756E2061786500427573652074726F708E
:101DA0002066726F69646500457874727564657544
:101DB000720044C3A9706C61636572205A0044C309
:101DC000A9706C6163657220590044C3A9706C618D
:101DD0006365722058004368616E676572206669AA
:101DE0006C616D656E740052657472616974206611
:101DF000696C616D656E740043686172676572201D
:101E000066696C616D656E74005072C3A963686128
:101E100075666661676520706572736F005072C386
:101E2000A96368617566666167652050455447001F
:101E30005072C3A963686175666661676520504C1E
:101E400041005072C3A96368617566666167652069
:101E5000706572736F005265746F757200220A00AC
:101E6000556E6B6E6F776E20636F6D6D616E643A49
:101E700020220020636F6C6420657874727573692A
:101E80006F6E2070726576656E7465640A0000007E
:101E9000754300006B4300007A430000000000001F
:101EA000000000000000290A002062797465733B7D
:101EB00020637263200053657474696E67732053E6
:101EC000746F726564202800454550524F4D206460
:101ED00061746173697A65206572726F722E0A008F
:101EE000290A002062797465733B206372632000C5
:101EF0002073746F7265642073657474696E6773A0
:101F000020726574726965766564202800202863F4
:101F1000616C63756C6174656429210A0020213D40
:101F20002000454550524F4D20435243206D697368
:101F30006D61746368202D202873746F7265642945
:101F400020002053697A653A2000496E6465783A2A
:101F50002000204D61726C696E3D563638290A00AA
:101F6000454550524F4D2076657273696F6E206DF6
:101F700069736D617463682028454550524F4D3D2B
:101F800000626564002C2073797374656D2073742E
:101F90006F7070656421204865617465725F4944A3
:101FA0003A20004572722064652063686175666638
:101FB00065206C69740048656174696E67206661AC
:101FC000696C65640045727220544845524D495110
:101FD0005545204C495400546865726D616C20521F
:101FE000756E6177617900453120457272206465B4
:101FF00020636861756666650048656174696E672F
:10200000206661696C656400453120457272205418
:102010004845524D4951554500546865726D616C93
:102020002052756E6177617900202D20496E7661AE
:102030006C6964206578747275646572206E756D64
:1020400062657220210A0070012C0190012701B005
:10205000012201C0011D01F001180110021301301D
:10206000020E016002090190020401C002FF00009B
:1020700003FA004003F5008003F000D003EB0020DA
:1020800004E6007004E100E004DC004005D700C075
:1020900005D2004006CD00D006C8008007C300303E
:1020A00008BE00F008B900C009B400B00AAF00B023
:1020B0000BAA00D00CA500000EA000500F9B00C082
:1020C0001096005012910000148C00C0158700B0CB
:1020D000178200B0197D00D01B7800001E730040ED
:1020E000206E0090226900F024640040275F009079
:1020F000295A00E02B5500102E500020304B0010C4
:10210000324600E033410090353C00103737007014
:10211000383200A0392D00B03A2800A03B230060DF
:102120003C1E00103D1900903D1400103E0F007041
:102130003E0A00C03E0500003F0000403FFBFF801C
:102140003FF6FFC03FF1FF453120457272205448F1
:1021500045524D49515545004572722054484552EB
:102160004D49515545204C495400546865726D6184
:102170006C2052756E61776179004531204572722D
:102180002054454D502E204D415800457272205428
:10219000454D502E204D4158204C4954004D41583A
:1021A00054454D50207472696767657265640045D7
:1021B00031204572722054454D502E204D494E001D
:1021C0004572722054454D502E204D494E204C49A9
:1021D00054004D494E54454D5020747269676765EF
:1021E000726564004D383420582059205A2045002B
:1021F000202F002042403A0020403A0020573A0069
:102200007C3C3E5E2B3D3F2F5B5D3B2C2A225C00DD
:1022100043616E6E6F74206F70656E2073756264BB
:102220006972200053442063617264206F6B0A005E
:102230006F70656E526F6F74206661696C65640AB9
:1022400000766F6C756D652E696E697420666169C4
:102250006C65640A00534420696E69742066616984
:102260006C0A004D3234004D323320257300577212
:102270006974696E6720746F2066696C653A200026
:102280002E0A006F70656E206661696C65642C2093
:1022900046696C653A20002E0A006F70656E2066F4
:1022A00061696C65642C2046696C653A200046695A
:1022B0006C652073656C65637465640A00205369FE
:1022C0007A653A200046696C65206F70656E6564BA
:1022D0003A2000667265736800646F696E6700205B
:1022E00066696C653A20004E6F772000454E4420A9
:1022F000535542524F5554494E450A002220706FA3
:1023000073002220706172656E743A220053554248
:10231000524F5554494E452043414C4C20746172F4
:102320006765743A2200747279696E6720746F2051
:1023300063616C6C207375622D67636F64652066E2
:10234000696C6573207769746820746F6F206D61A4
:102350006E79206C6576656C732E204D4158206C2B
:102360006576656C2069733A310A00FFFFE7FFFC70
:102370000003FFFC0FFFC0FFFCFFFFE7FFFE0003B1
:10238000FFFE1FFFE1FFFEFFFFE7FFFE0003FFFF71
:102390003FFFF3FFFF00E007000E000000073800DA
:1023A00073800700E007000E3FF0000738007380DD
:1023B0000700E007FFFE3FF3FFFF380073800700D0
:1023C000E007FFFC3FF3FFFF380073800700E007E2
:1023D000FFFE3FF3FFFF380073800700E007000EA9
:1023E00000000007380073800700E007000E0000BF
:1023F0000007380073800700E007000F0003FFFFAD
:102400003FFFF3FFFF00E007000F0003FFFE1FFF89
:10241000E1FFFE00E007000F0003FFFC0FFFC0FF1D
:10242000FC000000000000000000000000000000B0
:1024300000000000000000000000000000FFFFFF9F
:10244000FFFFFFFFFFFFFFFFFFFFFFFFFFFFFFFF9C
:10245000FFFFFFFFFFFFFFFFFF2020506C616E6E4C
:10246000657242756666657242797465733A2000DA
:102470002046726565204D656D6F72793A20004384
:102480006F6D70696C65643A204175672031322048
:10249000323031390A00207C20417574686F723AFD
:1024A000202874726F7563682C204372656177739E
:1024B0006F6D6520436F726520322E30290A00321D
:1024C0003031392D30382D303800204C6173742074
:1024D000557064617465643A2000322E302E302DC0
:1024E0005243300A004D61726C696E0020536F6672
:1024F00074776172652052657365740A00205761B4
:10250000746368646F672052657365740A002042C3
:10251000726F776E206F75742052657365740A0050
:102520002045787465726E616C2052657365740A1B
:1025300000506F77657255700A0073746172740A87
:10254000006175746F25632E67006572726F72206B
:1025500077726974696E6720746F2066696C650AAA
:1025600000446F6E6520736176696E672066696CE2
:10257000652E0A004D323900427574C3A965732077
:10258000256320256320256320256300205A3A0017
:1025900020593A0020583A00656E6473746F707366
:1025A000206869743A20004732385859005665202F
:1025B0006A65726B005665206A65726B00567A20F8
:1025C0006A65726B00567A206A65726B00567920D4
:1025D0006A65726B005679206A65726B00567820C6
:1025E0006A65726B005678206A65726B00436F6E85
:1025F0006669672E206176616E63C3A96500452018
:102600007061732F6D6D0045207061732F6D6D00CB
:102610005A207061732F6D6D005A207061732F6D99
:102620006D0059207061732F6D6D005920706173BA
:102630002F6D6D0058207061732F6D6D00582070E4
:1026400061732F6D6D00436F6E6669672E20617632
:10265000616E63C3A965003F00496E697469616C6E
:102660006973657220454550524F4D00416E6E753D
:102670006C657200496E69742E004D343238004921
:102680006E697469616C6973657220454550524F7B
:102690004D0046696C616D656E740054656D70C364
:1026A000A9726174757265005061732F6D6D004A77
:1026B00065726B00416363C3A96CC3A972617469DD
:1026C0006F6E0056C3A96C6F636974C3A90052C3CF
:1026D000A9676C2E2064C3A963616C206F7269675F
:1026E000696E6500436F6E66696775726174696FC4
:1026F0006E00456E72656769737472657220636FF0
:102700006E6669672E004C6974004C6974004275EE
:10271000736500427573650056697465737365204F
:1027200076656E74696C2E005669746573736520E6
:1027300076656E74696C2E00436F6E66696775729C
:102740006174696F6E0043686172676572206D6DB8
:102750000043686172676572206D6D005265747226
:10276000616974206D6D0052657472616974206DC9
:102770006D004469616DC3A87472652066696C2E32
:10278000004469616DC3A87472652066696C2E008F
:10279000417272C3AA74004D61726368650045207E
:1027A000656E206D6D33004176616E6365204B0070
:1027B0004176616E6365204B00436F6E6669672EDC
:1027C000206176616E63C3A9650008204661637469
:1027D0006575720008204661637465757200082093
:1027E0004D61780008204D61780008204D696E0029
:1027F00008204D696E00417272C3AA74004D617267
:102800006368650054656D702E204175746F2E00ED
:10281000436F6E6669672E206176616E63C3A9653A
:1028200000436172746520696E73C3A972C3A965A0
:10283000003344205072696E746572207072C3AAAE
:1028400074652E00496D7072657373696F6E00490F
:102850006D70722E20656E20706175736500496D14
:1028600070722E20616E6E756CC3A9650025753A75
:102870002530327500253032753A25303275002505
:10288000756420253032753A2530327500202020BD
:10289000202020200020202020001FE020102010D9
:1028A000201010201020201020103030084004800C
:1028B00003001FE03FF03FF03FF01FE01FE03FF05C
:1028C0003FF03FF00FC0078003003FFFF03800707B
:1028D00030FC3020FC102078102030102C00D02E3E
:1028E00031D02F7BD02F7BD02E31D02C00D0203078
:1028F0001020781020FC1030FC303800703FFFF0C2
:102900003FFFF03800703186302387102787902FE3
:1029100087D02F03D020301020781020781020305E
:10292000102F03D02F87D027879023871031863030
:102930003800703FFFF01FFFF81FFFF8041040023F
:102940000820020820041040082080104100104197
:10295000000820800410400000001FFFF81FFFF84F
:10296000562064C3A9706C2E206D696E00562064D9
:10297000C3A9706C2E206D696E00566D696E2000C3
:10298000566D696E2000566D6178204500566D6168
:1029900078204500566D6178205A00566D61782088
:1029A0005A00566D6178205900566D6178205900A3
:1029B000566D6178205800566D6178205800436F3D
:1029C0006E6669672E206176616E63C3A9650041FA
:1029D0006D6178204500416D6178204500416D6151
:1029E00078205A00416D6178205A00416D6178204D
:1029F0005900416D6178205900416D61782058007F
:102A0000416D6178205800412064C3A9706C2E008C
:102A1000412064C3A9706C2E0041207265747261FC
:102A20006974004120726574726169740041636366
:102A3000C3A96CC3A9726174696F6E00416363C3FB
:102A4000A96CC3A9726174696F6E00436F6E666989
:102A5000672E206176616E63C3A965005072C3A9B9
:102A600063682E20504C412062757365005072C31C
:102A7000A963682E20504C41206C6974005072C3C9
:102A8000A963686175666661676520504C410054B2
:102A9000656D70C3A9726174757265005072C3A9C7
:102AA00063682E205045544720627573650050724C
:102AB000C3A963682E2050455447206C69740050A8
:102AC00072C3A96368617566666167652050455485
:102AD000470054656D70C3A97261747572650052C8
:102AE0006566726F69646972005072C3A963686138
:102AF0007566666167652050455447005072C3A9EA
:102B000063686175666661676520504C410056696F
:102B100074657373652076656E74696C2E005669F2
:102B200074657373652076656E74696C2E004C69EC
:102B300074004C69740042757365004275736500DA
:102B40004D656E75207072696E636970616C0046C8
:102B50006C757800466C757800566974657373659A
:102B60002076656E74696C2E0056697465737365A2
:102B70002076656E74696C2E004C6974004C697423
:102B8000004275736500427573650056697465731C
:102B900073650056697465737365004D656E7520C5
:102BA0007072696E636970616C002E0A006F7065E7
:102BB0006E206661696C65642C2046696C653A20FC
:102BC0000048617264636F64656420446566617582
:102BD0006C742053657474696E6773204C6F616404
:102BE00065640A00F4010000F401000064000000C4
:102BF000881300000000FA430000FA430000A040E0
:102C0000000048420000A0420000A0420000C8436B
:102C10000000BA426F70656E0054524947474552F2
:102C20004544003A20007A5F6D696E00795F6D69F6
:102C30006E00785F6D696E005265706F7274696EB8
:102C40006720656E6473746F70207374617475733C
:102C50000A00205A3A0020593A0020436F756E74DA
:102C600020583A0020453A00205A3A0020593A00AC
:102C7000583A004563686563206F726967696E65DD
:102C80000000004842000048420000804057617246
:102C90006E696E673A20486F6D696E672042756D88
:102CA000702044697669736F72203C20310A0002FB
:102CB00002040000A0400000A0400000004000000E
:102CC000754300006B4300007A43000000010000E0
:102CD00000010000800055555500000040003333CE
:102CE0003300AAAA2A004992240000002000C771DC
:102CF0001C0099991900D1451700555515003BB195
:102D000013002449120011111100000010000F0FD0
:102D10000F00E3380E0043790D00CCCC0C00C3301B
:102D20000C00E8A20B0064210B00AAAA0A00703D67
:102D30000A009DD80900427B090092240900DCD3D7
:102D40000800888808001042080000000800F0C150
:102D500007008787070075500700711C07003EEBCE
:102D60000600A1BC06006990060066660600703E7B
:102D700006006118060017F4050074D105005BB069
:102D80000500B290050062720500555505007839BE
:102D90000500B81E0500050505004EEC040087D4AB
:102DA0000400A1BD040090A7040049920400C17D65
:102DB0000400EE690400C7560400444404005C3279
:102DC00004000821040041100400000004003FF04A
:102DD0000300F8E0030026D20300C3C30300CCB510
:102DE00003003AA803000A9B0300388E0300C08149
:102DF00003009F750300D0690300505E03001D535C
:102E0000030034480300913D0300333303001629C7
:102E10000300381F030097150300300C0300030361
:102E200003000BFA020049F10200BAE802005CE07C
:102E300002002DD802002DD0020059C80200B0C0F7
:102E4000020031B90200DAB10200AAAA0200A0A36E
:102E50000200BC9C0200FA9502005C8F0200DF8831
:102E6000020082820200457C020027760200277061
:102E70000200436A02007C640200D05E02003F59F7
:102E80000200C853020020496E76616C69642065B7
:102E90007874727564657220004361703A00220A8A
:102EA00000656E7175657565696E672022006F6BD0
:102EB00000526573656E643A200053544F5050C3FE
:102EC00089005072696E7465722073746F707065DA
:102ED000642064756520746F206572726F72732E42
:102EE0002046697820746865206572726F7220616F
:102EF0006E6420757365204D39393920746F2072E6
:102F00006573746172742E202854656D70657261EA
:102F1000747572652069732072657365742E205311
:102F200065742069742061667465722072657374BB
:102F3000617274696E67290A004E6F204368656389
:102F40006B73756D2077697468206C696E65206E8F
:102F5000756D6265722C204C617374204C696E65CE
:102F60003A20004E6F20436865636B73756D207760
:102F7000697468206C696E65206E756D6265722C6F
:102F8000204C617374204C696E653A20006368655B
:102F9000636B73756D206D69736D617463682C204C
:102FA0004C617374204C696E653A20004C696E6503
:102FB000204E756D626572206973206E6F74204CAF
:102FC000617374204C696E65204E756D6265722B5D
:102FD000312C204C617374204C696E653A20004D91
:102FE000313130004D313137004D33310053442001
:102FF00072656164206572726F720A00446F6E655B
:10300000207072696E74696E672066696C650A006B
:103010004368617267657220636F6E6669672E0030
:103020005265737461757265722064C3A9666175B7
:10303000747300456E72656769737472657220639C
:103040006F6E6669672E0052C3A9676C6572207047
:1030500072C3A963682E20504554470052C3A96724
:103060006C6572207072C3A963682E20504C4100B9
:10307000436F6E6669672E206176616E63C3A965D2
:10308000004D656E75207072696E636970616C00C9
:103090004D37303220542564004D363030204230D8
:1030A00020542564004D373032203B2564004D37D5
:1030B0003031205425640052657472616974206651
:1030C000696C616D656E740052657472616974201B
:1030D00066696C616D656E74004D373032004D3736
:1030E000303100436861726765722066696C616D9A
:1030F000656E74004D363030204230004368616E9A
:103100006765722066696C616D656E74004D656EF1
:1031100075207072696E636970616C0052657072BF
:10312000656E64726520696D70722E0050757267ED
:10313000657220656E636F7265004F5054494F4E43
:103140005320524550524953453A00494D50522E52
:10315000205041555345004445434841524745524C
:103160002046494C00434841524745522046494C6D
:10317000002020427573653A20002000FFFDFCFA14
:10318000F8F6F4F2F0EEECEAE9E7E5E3E1E0DEDCA4
:10319000DAD9D7D5D4D2D0CFCDCBCAC8C7C5C3C250
:1031A000C0BFBDBCBAB9B7B6B4B3B2B0AFADACAACC
:1031B000A9A8A6A5A4A2A1A09E9D9C9A999897951E
:1031C000949392908F8E8D8B8A8988878684838250
:1031D00081807F7E7D7B7A79787776757473727162
:1031E000706F6E6D6C6B6A69686766656463626157
:1031F000605F5E5D5C5B5A59585857565554535240
:103200005150504F4E4D4C4B4A4A4948474646450F
:103210004443424241403F3E3E3D3C3B3B3A3938CD
:103220003837363535343332323130302F2E2E2D7B
:103230002C2B2B2A2929282727262525242323221E
:10324000212120201F1E1E1D1C1C1B1B1A191918B2
:1032500018171616151514131312121111100F0F3B
:103260000E0E0D0D0C0C0B0A0A09090808070706BB
:1032700006050504040303020201000044C3A9700B
:103280006C6163657220580044C3A9706C6163650A
:103290007220590044C3A9706C61636572205A00A2
:1032A00045787472756465757200457874727564DA
:1032B0006575720044C3A9706C61636572205A0021
:1032C00044C3A9706C6163657220590044C3A9703E
:1032D0006C616365722058004D6F7576656D656E23
:1032E0007400417272C3AA746572206D6F74657543
:1032F0007273004D3834004F726967696E652061E2
:1033000075746F004732380044C3A9706C616365FF
:103310007220756E20617865004D656E7520707243
:10332000696E636970616C003F0044C3A96D61728E
:1033300072657220696D7072657373696F6E2000BB
:10334000416E6E756C657200496D7072696D657263
:103350000043616E6E6F7420656E746572207375C4
:10336000626469723A2000022E2E00014163747576
:10337000616C69736572004D656E75207072696E5F
:10338000636970616C005061726B696E672E2E2EDE
:1033900000706F75722064C3A96D617272657200EE
:1033A000417474656E74652066696C616D656E74D8
:1033B00000726574726169742064752066696C615D
:1033C0006D656E7400417474656E7465005061744F
:1033D00069656E746572205356502E2E2E0042750C
:1033E000736520656E20636861756666650070723E
:1033F000206368617566666572206C612062757312
:10340000650050726573736572206C6520626F751C
:10341000746F6E2E2E2E00706F757220636F6E7437
:10342000696E7565722E2E2E006574206170702E87
:1034300020626F75746F6E00496E73C3A9726572F6
:103440002066696C616D656E7400636861726765A2
:103450006D656E742066696C616D656E7400417493
:1034600074656E746500706F757220726570726538
:103470006E647265005072657373657220626F7559
:10348000746F6E00696D7072657373696F6E004161
:103490007474656E7465207265707269736500502E
:1034A000757267652066696C616D656E7400417444
:1034B00074656E7465003F00417272C3AA746572D0
:1034C00020696D70722E005265746F7572005374AE
:1034D0006F70004D323500496D70722E20656E2080
:1034E000706175736500506175736520696D7072E8
:1034F000657373696F6E004D323400496E69742EC6
:10350000206C61206361727465205344004D323138
:1035100000496D7072657373696F6E205344005279
:10352000657469726572206361727465205344002A
:103530004D3232004368616E6765722066696C6166
:103540006D656E7400436F6E66696775726174694C
:103550006F6E0054656D70C3A972617475726500F9
:103560004D6F7576656D656E740052657072656E2F
:1035700064726520696D70722E00436172746520FB
:103580006C6962C3A972C3A9650052C3A9676C655F
:103590007200417272C3AA74657220696D70722ED6
:1035A00000506175736520696D7072657373696F22
:1035B0006E005375727665696C6C6572000000214F
:1035C00000240027002A004F726967696E65202574
:1035D0007325732573205072656D696572002050E4
:1035E00072656D6965720A004F726967696E652060
:1035F00000496E736572742066696C616D656E74E6
:1036000020616E6420707265737320627574746FCC
:103610006E20286F72204D313038290A000013EDDA
:103620007EE711241FBECFEFD0E4DEBFCDBF12E096
:10363000A0E0B1E0E2EBF3EF01E00BBF02C00790C6
:103640000D92AA34B107D9F724E1AAE4B2E001C08F
:103650001D92A03AB207E1F71BE1C0E1DBE104C033
:103660002197FE010E9427F7CF30D107C9F70E94AA
:1036700098E70C94CCF90C9400002F923F924F9253
:103680005F926F927F928F929F92AF92BF92CF92F2
:10369000DF92EF92FF920F931F93CF93DF93CDB7FB
:1036A000DEB7EC970FB6F894DEBF0FBECDBF20910A
:1036B0007A142AAB21E020937A148091E0028D34B1
:1036C00009F4D6C2843511F40C94852D873411F099
:1036D0000C94A02D8091DE029091DF028B31910538
:1036E00009F416C26CF48430910509F4D2C11CF4BB
:1036F000029750F1B9C2459711F40C94A22DB4C2AF
:103700008A35910509F43CC224F44C9709F429C286
:10371000ABC28B35910509F437C28C35910509F0A0
:10372000A3C236E6232E31E0332E44EAE42E42E0F3
:10373000F42E8EEB92E099A788A752EBC52E52E0AB
:10374000D52E00E010E05FC280912701882311F49C
:103750000C94A22D76E6872E71E0972EEEECEE2EDD
:10376000E2E0FE2E0EEB12E0F2EBAF2EF2E0BF2E07
:10377000A7EECA2EA2E0DA2E712CD4018D914D0154
:103780000E94EE31882319F10E947231F6012081E6
:10379000211104C02091EB02222341F0D8012D9188
:1037A0003D914D915C910E9439F70AC0B3E07B16C0
:1037B00039F0F50120813181428153810E9438F72F
:1037C000D7016D937D938D939C9313970AC0F80155
:1037D00080819181A281B381F70180839183A2834B
:1037E000B3837394F4E0EF0EF11C0C5F1F4F24E0E1
:1037F000A20EB11C3FEFC31AD30A44E07412BDCF2E
:1038000040E050E0BA0186E40E94354A20E030E012
:10381000A9010E94BCF8181684F40E94723120E0BD
:1038200030E040E752E40E94BCF7609321017093BE
:103830002201809323019093240180912001882309
:1038400009F4B4C0C0900801D0900901E0900A01C9
:10385000F0900B012091CE023091CF024091D00226
:103860005091D102C701B6010E94BCF8181644F469
:10387000C092CE02D092CF02E092D002F092D1025A
:10388000C0900C01D0900D01E0900E01F0900F015E
:103890002091CE023091CF024091D0025091D102BE
:1038A000C701B6010E9491F287FF08C0C092CE0204
:1038B000D092CF02E092D002F092D102C0901001DB
:1038C000D0901101E0901201F09013012091D202EA
:1038D0003091D3024091D4025091D502C701B60174
:1038E0000E94BCF8181644F4C092D202D092D302BF
:1038F000E092D402F092D502C0901401D09015014C
:10390000E0901601F09017012091D2023091D3027D
:103910004091D4025091D502C701B6010E9491F2A4
:1039200087FF08C0C092D202D092D302E092D402A4
:10393000F092D502C0901801D0901901E0901A01C0
:10394000F0901B012091D6023091D7024091D8020D
:103950005091D902C701B6010E94BCF8181644F470
:10396000C092D602D092D702E092D802F092D90249
:10397000C0901C01D0901D01E0901E01F0901F012D
:103980002091D6023091D7024091D8025091D902AD
:10399000C701B6010E9491F287FF08C0C092D6020B
:1039A000D092D702E092D802F092D9028091BB0A5D
:1039B00083FD39C0C090DA02D090DB02E090DC02D7
:1039C000F090DD022091CA023091CB024091CC02EE
:1039D0005091CD02C701B6010E9491F2882319F1DE
:1039E00080913D0481111FC0609142047091430495
:1039F00080914404909145040E942EF82091390151
:103A000030913A016217730774F4C092CA02D092DF
:103A1000CB02E092CC02F092CD020E94BD338DE742
:103A200096E00E9497336091250170912601072E40
:103A3000000C880B990B0E9498F220912101309183
:103A4000220140912301509124010E94F7F22AE0C3
:103A500037ED43E25CE30E94F7F269837A838B835C
:103A60009C838E010F5F1F4F2AED32E046ED52E03E
:103A700062ED72E08EEC92E00E94616780E1EEEC14
:103A8000F2E0AEEBB2E001900D928A95E1F70C9472
:103A9000A22D80E50E94EE31882329F00E942E316C
:103AA0006B017C0103C0C12CD12C760183E50E94FF
:103AB000EE31882361F00E94723120E030E04AE765
:103AC00054E40E94F7F20E9435F86B017C010E94D9
:103AD00078D78091D803811105C060E084E796E033
:103AE0000E945FA20E949EE3C60ED71EE81EF91E2A
:103AF0000E949EE3DC01CB018C199D09AE09BF0930
:103B0000B7FD02C00C94A22D80E00E949434F0CF47
:103B10000E9487E581110C94A22D80E090E0A0E244
:103B2000B1E489839A83AB83BC8380E090E0A1E613
:103B3000B3E48D839E83AF83B88780E090E0A0EAF2
:103B4000B1E489879A87AB87BC8760E070E080E545
:103B50000E94FB31BE016F5F7F4F0E942AA10C942F
:103B6000A22D809177148770873011F00C94A82DC6
:103B70008FE40E94F4E381110C94A22D0C94A82DE3
:103B80001092EB020C94A22D2093EB020C94A22D28
:103B90000E9472312B013C01133049F0F601208163
:103BA0003181428153810E9438F72B013C01A8A545
:103BB000B9A52D913D914D915C91C301B2010E9437
:103BC00038F74B015C012DEB37E346E855EB0E94DB
:103BD000BCF887FD20C02DEB37E346E855E3C5016F
:103BE000B4010E9491F21816B4F01F5FB4E0EB0E1E
:103BF000F11CE8A5F9A53496F9A7E8A7F4E0CF0EE3
:103C0000D11C143039F1D1018D911D010E94EE318A
:103C1000882359F3BDCF133051F44092CA02509219
:103C2000CB026092CC027092CD0201E0DECFA50102
:103C30009401F70160817181828193810E9439F73B
:103C4000D7016D937D938D939C931397812F0E9441
:103C5000BDC5CBCF002321F08AEC92E00E9489D72A
:103C60000E94CCC70C94A22D0E943D680C94A22DFA
:103C70008091DE029091DF028337910509F46BC7D2
:103C80000CF0AFC08B34910509F47BC40CF052C02A
:103C90008931910509F47DC21CF58431910509F43F
:103CA00021C27CF48131910509F411C22CF40297F0
:103CB00008F491C10C94822D429709F429C60C9402
:103CC000822D8631910509F437C20CF431C2873157
:103CD000910509F43AC2489709F44FC20C94822D19
:103CE0008E31910509F4CDC2ACF48B31910509F404
:103CF0006BC20CF45BC28C31910509F4B8C24D97CC
:103D000011F00C94822D809113128E7F80931312E8
:103D10000C94A22D8032910509F412C30CF455C302
:103D20008A32910509F4FCC38934910509F41AC457
:103D30000C94822D8936910509F469C544F58335C3
:103D4000910509F4E1C59CF48D34910509F421C471
:103D50000CF41BC48135910509F4C1C58235910568
:103D600011F00C94822D1092EA020C94A22D85354C
:103D7000910509F402C60CF4CBC58C35910509F404
:103D800017C68836910509F408C40C94822D8E3626
:103D9000910509F483C484F48B36910509F493C525
:103DA0000CF471C58C36910509F4CFC48D3691059C
:103DB00009F417C40C94822D8037910509F4CBC403
:103DC0000CF47FC48137910509F4C9C48237910589
:103DD00011F00C94822D0E9478D70E94CCC70C94CD
:103DE000A22D8C3221E0920711F40C940C290CF0D6
:103DF00073C0883C910509F4BEC7BCF589379105AD
:103E000009F457C7ECF48637910509F41DC734F45B
:103E10008537910509F408C70C94822D87379105E1
:103E200009F444C78837910511F00C94822D81E084
:103E30008093B0028093B1020E94F6C80C94A22D28
:103E40008139910509F43CC734F48C38910509F4A3
:103E5000ABC40C94822D8B39910509F4ECC48E3BD4
:103E6000910509F4BFC40C94822D8E3C910511F488
:103E70000C949127C4F48B3C910511F40C942B27DE
:103E800034F4893C910509F4C3C70C94822D8C3C11
:103E9000910511F40C944A278D3C910511F40C9472
:103EA0007E270C94822D8C3D910511F40C945D2895
:103EB0003CF4833D910511F40C94B3270C94822DAE
:103EC0008D3D910511F40C946A28823E910511F400
:103ED0000C94C0280C94822D863F41E0940711F485
:103EE0000C94052BE4F58039A1E09A0711F40C94A9
:103EF0005A2AB4F48E32E1E09E0711F40C94132A8E
:103F000014F40C9421298F3221E0920711F40C94BF
:103F1000572A8033914011F40C94A0290C94822DDF
:103F20008C3A41E0940711F40C945D2A4CF48A39E0
:103F3000914011F00C94822D0E94EA320C94A22D33
:103F4000843FB1E09B0711F40C94022B853F914014
:103F500011F00C94822D0E9445CA0C94A22D8D3B29
:103F6000F2E09F0711F40C94722BDCF48C3032E0F9
:103F7000930711F40C94192B3CF4883F914011F4F1
:103F80000C94082B0C94822D8835A2E09A0711F42A
:103F90000C94212B8B35924011F40C94242B0C940F
:103FA000822D8438E3E09E0711F40C94392D3CF403
:103FB0008E3B924011F40C947B2C0C94822D803A11
:103FC00033E0930709F4F1C1873E934011F40C9458
:103FD000752D0C94822DA090A202B090A30280E5D2
:103FE0000E94EE31882359F00E942E316B017C0132
:103FF00011E0672B682B692B31F410E004C010E04E
:10400000C12CD12C760183E50E94EE31882311F476
:104010000C945C2E0E94723120E030E04AE754E4B8
:104020000E94F7F20E9435F86B017C0111110BC060
:10403000672B682B692B39F4A114B10421F0D50149
:104040008C91811102C010E001C011E00E9478D76C
:10405000112329F061E0C5010E94ABA205C060E018
:1040600084E696E00E945FA210917A1483E0809328
:104070007A1481E080937914C114D104E104F1042D
:10408000B1F00E949EE3C60ED71EE81EF91E0E94E4
:104090009EE3DC01CB018C199D09AE09BF09B7FF76
:1040A0000EC08091791481110C94612E08C080910A
:1040B0007914882321F080E00E949434F8CF0E9484
:1040C000D1A21092791410937A140C94A22D60E06E
:1040D00083E596E00E945FA25E985E9815985E98D0
:1040E0000C94A22D82E496E00E9497331092A102D4
:1040F00086E490E10E948E808BE1E6E4F0E1DE014F
:10410000119601900D928A95E1F740E050E0BE01D2
:104110006F5F7F4F80E090E00E94498ACE01019658
:104120000E94C48183E396E00E9497330C94A22DF1
:104130000E9430890C94A22D0E94BF888091131296
:10414000877F809313120C94A22DE091A202F0912C
:10415000A3028081882329F0803209F410823196ED
:10416000F8CF40E061E08091A2029091A3020E940A
:10417000E78B1092A0020C94A22D0E94DB4F8823A3
:1041800021F00E94D0880E94439C0E94D1A20C94EE
:10419000A22D8091131282FF03C08B7F8093131294
:1041A0000E94679C0E94D1A20C94A22D80911312B0
:1041B00083FD02C00C94A22D83E50E94EE31811193
:1041C0000C94662E0C94A22D83E40E94A5318823C2
:1041D00019F181E096E00E9497338091F00F8823D7
:1041E00091F0BE016F5F7F4F8DEE9FE00E94557F83
:1041F0008E010F5F1F4FF80181918F01882339F0E5
:104200000E949033F8CF87EF95E00E9497338AE0C1
:104210000E9490330C94A22D8091131282FF21C032
:1042200080E196E00E94973360910F127091101216
:1042300080911112909112124AE00E94F0398FE29F
:104240000E94903360910B1270910C1280910D12AC
:1042500090910E124AE00E94F0390E942A3B0C9481
:10426000A22D82E296E00E9497330C94A22D40E0AA
:1042700060E08091A2029091A3020E94E78B0C94CF
:10428000A22D8091131283FD02C00C94A22D0E94D6
:1042900026688091131283FD02C00C94A22D6091B8
:1042A000A2027091A302CE014C960E94BDBF8C0168
:1042B000009711F40C94A22D6C8D7D8D19821C82B7
:1042C00022E0AC01CE0101960E94A785811102C0B7
:1042D000F12C14C0CE0101960E942BBF8823C1F39C
:1042E00061E0CE0101960E94397F009789F325EEA7
:1042F000DC012C931C820E944881F82ECE0101968D
:104300000E94C481B801FF2089F089EE95E00E94E7
:10431000A6338AE00E94903310920F12109210126E
:1043200010921112109212120C94A22D81ED95E0B0
:104330000E94A6338EEC95E00E9497330C94A22D38
:104340008091131282FD0E9478D78091131283FD11
:1043500002C00C94A22D80E50E94F4E3182F482F90
:1043600061E08091A2029091A3020E94E78B83E515
:104370000E94EE31882381F00E943E31AB01BC01E6
:1043800040930F12509310126093111270931212F7
:104390008DEE9FE00E944F7E0E94D08811110C94F8
:1043A000A22D0E94439C0C94A22D2091A202309138
:1043B000A3029091131292609093131240E060E078
:1043C000C9010E94E78B0C94A22D0E94F6727B011A
:1043D0008C0120E831E541E050E00E9498F6C901E7
:1043E0006DE671E00E94E0F64B015C01C801B70187
:1043F00020E13EE040E050E00E9498F6CA01B90199
:1044000028E130E040E050E00E9498F6762E672EDA
:10441000C62ED72E2CE3222E312C412C512CC80134
:10442000B701A20191010E9498F6F62EE72ECA016B
:10443000B901A20191010E9498F6CB018E010F5F94
:104440001F4F8114910499F0EF92FF927F936F9325
:104450006F927F92BF92AF929F928F928DEA95E07A
:104460009F938F931F930F930E9429F213C0A1145F
:10447000B104B1F0EF92FF927F936F936F927F92AE
:10448000BF92AF928DE995E09F938F931F930F9307
:104490000E9429F20FB6F894DEBF0FBECDBF30C028
:1044A000CD2879F0EF92FF927F936F936F927F9276
:1044B00081E995E09F938F931F930F930E9429F2B8
:1044C000E9CF892B69F0EF92FF927F936F9389E890
:1044D00095E09F938F931F930F930E9429F2DACF59
:1044E000EF92FF9285E895E09F938F931F930F9330
:1044F0000E9429F20F900F900F900F900F900F9045
:1045000060E0C8010E94ABA20E94BD33B80181ECFB
:1045100095E00E94A6338AE00E9490330C94A22D6D
:1045200083E50E94EE31882311F40C94A22D0E94A1
:104530004E31F82E6FEF7FEF80E50E940E328C0136
:1045400097FF02C00C94A22DE82E89E40E94F4E3A8
:1045500081110C94772E802F0E9425E681112DC6A3
:104560000C94772E80E50E94A531882311F40C94D9
:10457000A22D8091131282FF02C00C94A22D0C94E4
:104580008A2E0E94439C0C94A22D0E94679C0C943E
:10459000A22D0E947C9C0C94A22D8091BB0A83FFCB
:1045A00002C00C94A22D0E9496CF87FF02C00C94EB
:1045B000A22D83E50E94EE31882379F00E947231AA
:1045C0000E942EF88B01CB010E94A28606351105B0
:1045D00024F40E947C9C0E94D1A20E9406EE0C94BE
:1045E000A22D8091BB0A83FF02C00C94A22D0E94D1
:1045F00096CFF82E87FF02C00C94A22D83E50E946F
:10460000EE31082F811106C082E50E94EE31182F8D
:104610008823C1F10E9472310E942EF8CB010E94C2
:10462000A2860E94723120E030E04AEA52E40E9401
:1046300091F2181614F40C94952E0E947C9C0E9402
:10464000D1A26091460470914704072E000C880B9C
:10465000990B0E9498F24B015C01409042045090EB
:1046600043046090440470904504A30192010E94A9
:10467000BCF8181614F40C94A82E002311F40C9412
:10468000992E11E00E9406EE112311F40C94A22D34
:10469000602F8F2D0E9437740C94A22D8EE40E94FF
:1046A000EE31882311F40C94A22D0E943E316093C8
:1046B0009C0270939D0280939E0290939F020C94A3
:1046C000A22D83E50E94A531882329F083E50E946D
:1046D000E2E58093BB0A0E94BD338DE495E00E9421
:1046E00097338091BB0A882369F193E4E92E95E022
:1046F000F92E00E010E020E08091BB0A90E0A0E0FD
:10470000B0E0002E04C0B695A795979587950A94BA
:10471000D2F780FF0EC0DD24D394D20E222319F0ED
:104720008CE20E949033F701859194910E94973317
:104730002D2D0F5F1F4F92E0E90EF11C0530110582
:10474000D9F665CD8FE395E060CD10927914109283
:1047500007010C94A22D80E090E00E94E53383E5F0
:104760000E94EE31882381F00E944E31282F30E0E4
:104770002D33310524F4809306010C94A22D8CE393
:10478000809306010C94A22D0E94BD334091060136
:1047900050E060E070E088E395E00E945D3A8AE0D6
:1047A0000E9490330C94A22D8091BB0A83FF02C01B
:1047B0000C94A22D83E50E94EE31882311F40C9411
:1047C000A22D0E9472310E942EF86337710514F0F9
:1047D00063E770E070938E0260938D020E944573D0
:1047E0000C94A22D8091BB0A83FF02C00C94A22DD1
:1047F00083E50E94EE318BAB81110C94AB2E82E5E8
:104800000E94EE3181110C94AB2E0C94A22D0E94CB
:1048100096CF182F87FD0AC08CE095E00E94973351
:10482000812F0E94C5738AE00E9490332AA92093A9
:104830007A140C94153183E50E94EE31882311F42B
:104840000C94A22D0E944E31182F90E0CD970CF0C1
:104850001CE3109380020E949EE36B017C01212FD8
:1048600030E0A8EEB3E00E94C5F6C60ED71EE81EE3
:10487000F91EC0927C02D0927D02E0927E02F092FC
:104880007F020C94A22D80E50E94E2E581110C9438
:10489000A22D81E40E94A531882321F060912C048F
:1048A00070E002C06FEF70E083E50E94FB318F3F44
:1048B000910519F010F08FEF90E080932C04809315
:1048C0007B020C94A22D80E50E94E2E581110C94FC
:1048D000A22D10922C0410927B020C94A22D0E9407
:1048E000EE750E947C9C0E9499D90E944E3368EE1E
:1048F00073E080E090E00E94C63260E08CEF94E0CC
:104900000E945FA20C94A22D2093EA020C94A22D87
:1049100083E50E94EE318823A1F00E94723120E0ED
:1049200030E04AE754E40E94F7F20E9435F86093C1
:1049300002017093030180930401909305010C948C
:10494000A22D88E50E94A53181110C94343089E5AF
:104950000E94A53181110C9434308AE50E94A53162
:1049600081110C94343085E40E94A53181110C949E
:1049700034300E9499D90C94A22D83E50E94A53170
:10498000882311F40C94A22D0E94723120E030E0B3
:104990004AE754E40E94F7F20E9435F860937602E9
:1049A0007093770280937802909379020C94A22DF1
:1049B0000E9496CF87FF02C00C94A22D80917202B4
:1049C00084FD04C08091740287FF0AC0B6E6CB2E36
:1049D000B1E0DB2E1CEBE12E1AE0F12E10E03BC023
:1049E00080917502837091F70E94BD334091D00A87
:1049F0005091D10A6091D20A7091D30A85EF94E068
:104A00000E94193B4091D40A5091D50A6091D60A70
:104A10007091D70A82EF94E00E94193B4091D80A26
:104A20005091D90A6091DA0A7091DB0A8FEE94E016
:104A30000E94193B4091DC0A5091DD0A6091DE0A28
:104A40007091DF0A8CEE94E00E94193B8AE00E948C
:104A500090330C94A22DD6018D916D010E94EE3100
:104A6000882309F46DC0133009F063C00E947231CD
:104A70004B015C0120E030E040EA51E40E9491F2F9
:104A800087FF4EC0A50194016091DC0A7091DD0A98
:104A90008091DE0A9091DF0A0E94BCF72B013C0155
:104AA0009B01AC016091240470912504809126043F
:104AB000909127040E94F7F26093240470932504D8
:104AC0008093260490932704A30192016091EC0A3D
:104AD0007091ED0A8091EE0A9091EF0A0E94F7F230
:104AE0006093EC0A7093ED0A8093EE0A9093EF0ABC
:104AF000609110047091110480911204909113043C
:104B00000E9496F2A30192010E94F7F20E9435F8EA
:104B10006093100470931104809312049093130413
:104B20008092DC0A9092DD0AA092DE0AB092DF0A3F
:104B300007C00E947231F701648B758B868B978B4F
:104B40001F5FF4E0EF0EF11C143009F084CF0E94D7
:104B5000F6D80C94A22D85E294E00E94973360E091
:104B600085E194E00E9462CF60E080E094E00E94E2
:104B700062CF61E089EF93E00E9462CF61E08EEE48
:104B800093E00E9462CF61E08EED93E00E9462CFDD
:104B900060E085ED93E00E9462CF61E08BEC93E0F2
:104BA0000E9462CF60E081EC93E00E9462CF60E0FF
:104BB00089EB93E00E9462CF60E08BEA93E00E9471
:104BC00062CF61E08DE993E00E9462CF60E08EE801
:104BD00093E00E9462CF60E080E893E00E9462CFA1
:104BE00060E08AE693E00E9462CF60E089E593E0AE
:104BF0000E9462CF60E08AE493E00E9462CF60E0AE
:104C000085E393E00E9462CF61E082E293E00E943C
:104C100062CF60E085E193E00E9462CF60E081E0D6
:104C200093E00E9462CF8EC78091A2029091A3026E
:104C3000009709F4AACADC012C91222309F4A5CA21
:104C400060E00E94ABA27EC70091A2021091A30275
:104C500083E0F12C40E08150E1F0F8019081292FB0
:104C60002B7F2134C1F721812133A9F7913421F021
:104C7000953421F441E002C0FF24F39498012E5FA3
:104C80003F4F89012F5F3F4FD8019C919032C9F36C
:104C9000E2CF41110E94BD33FF2021F08DEF92E061
:104CA0000E949733C8010E94303B4CC70E94DBC86A
:104CB00049C71092B0021092B1020E94F6C842C7D2
:104CC00060E070E083E50E940E328C011127023013
:104CD00011053CF00E94B9338BED92E00E949733AE
:104CE00031C788E40E94EE318823A9F00E943E314A
:104CF0006A3A71053CF06530B1E07B072CF064E066
:104D000071E002C06AEA70E0F801EE0FFF1FE2599D
:104D1000FD4F7183608386E40E94EE31882381F029
:104D20000E943E3177FD07C06F3F710529F024F0E6
:104D30006FEF70E001C060E0F801E459FD4F60835F
:104D400082E40E94EE31882309F4FCC60E943E31C1
:104D50006530710534F0643771052CF063E770E05D
:104D600002C065E070E0000F111FF801E859FD4F27
:104D700071836083E7C60E9496CF182F87FDE2C635
:104D800084E40E94A531882309F43FC00E94723157
:104D90006B017C0101E020E030E0A9010E9491F26A
:104DA000811101C000E00093670220E030E0A9011A
:104DB000C701B6010E9491F2882339F10E94723135
:104DC00024E01202F0011124ED59FD4F608371833C
:104DD0008283938320E030E0A901609163027091A7
:104DE000640280916502909166020E9491F28111A5
:104DF0000CC080E090E0A0EEBFE38093630290934C
:104E00006402A0936502B09366020E945BD49AC6C6
:104E10000E9496CF87FD96C646E6E42E41E0F42E2A
:104E20000CEB1AE0D7018D917D010E94A5318823FA
:104E300049F00E9472310E9435F8F8016083718355
:104E4000828393830C5F1F4FFAE00C3C1F0751F7DE
:104E50000E9431D777C60E9496CF87FD73C636E68B
:104E6000E32E31E0F32E0CEB1AE0D7018D917D019A
:104E70000E94A531882339F00E947231F80164A3A1
:104E800075A386A397A30C5F1F4FFAE00C3C1F0786
:104E900061F758C68091730287FF02C00C945930A5
:104EA000809174028E7011F00C9459304091F00A88
:104EB0005091F10A6091F20A7091F30A8BEC92E042
:104EC0000E94193B4091F40A5091F50A6091F60A4C
:104ED0007091F70A88EC92E00E94193B4091F80A21
:104EE0005091F90A6091FA0A7091FB0A85EC92E000
:104EF0000E94193B8AE00E94903324C6809172027E
:104F0000827111F00C949F30809174028C7811F0B2
:104F10000C949F3080917502837011F00C949F3037
:104F200011C696E6C92E91E0D92E27E5E22E22E0A1
:104F3000F22E10E0D6018D916D010E94A5318823DB
:104F400051F00E947231F7016083718382839383F1
:104F5000812F0E94BDC51F5FF4E0EF0EF11C1330DE
:104F600049F70C94301E0E94BD3385EB92E00E94FD
:104F7000973383E50E94A531882321F00E94623196
:104F80008093200180912001882319F082E992E02A
:104F900002C08EE892E00E9497338DEA92E00E9470
:104FA00097334090B2025090B3026090B402709078
:104FB000B502209108013091090140910A015091F8
:104FC0000B01C301B2010E9439F7AB01BC018BEAAE
:104FD00092E00E94193B8090B6029090B702A09098
:104FE000B802B090B90220911001309111014091A6
:104FF000120150911301C501B4010E9439F7AB01B0
:10500000BC0188EA92E00E94193BC090BA02D0909D
:10501000BB02E090BC02F090BD02209118013091DB
:10502000190140911A0150911B01C701B6010E945C
:1050300039F7AB01BC0185EA92E00E94193B8DE98A
:1050400092E00E94973320910C0130910D01409124
:105050000E0150910F01C301B2010E9439F7AB015B
:10506000BC018BE992E00E94193B20911401309120
:1050700015014091160150911701C501B4010E941C
:1050800039F7AB01BC0188E992E00E94193B2091FD
:105090001C0130911D0140911E0150911F01C7015B
:1050A000B6010E9439F7AB01BC0185E992E00E948C
:1050B000193B8AE00E94903345C583E50E94EE319A
:1050C000882309F43FC50E943E3170932601609306
:1050D000250138C50E9496CFF82E87FD33C583E59C
:1050E0000E94EE310F2D0F2C000C110B882369F15B
:1050F0000E943E31F801EE0FFF1FE050FF4F718319
:105100006083000F111F000F111F98012B5C3E4F91
:105110007901072E000C880B990B0E9498F22AE067
:1051200037ED43E25CE30E94F7F2F801ED5AFD4FE0
:1051300020813181428153810E94F7F2D7016D9322
:105140007D938D939C931397FDC40E94BD3385E49A
:105150000E94903380E38F0D0E949033F801EE0F90
:10516000FF1FE050FF4F6081718186E892E00E944E
:10517000973A85E20E9490338AE00E949033E2C41D
:1051800080E50E94A531882309F4DCC460E070E06A
:1051900080E50E940E32F82E6FEF7FEF83E50E94CC
:1051A0000E328C010196039708F0CCC4F7FCCAC4F8
:1051B0008F2D0E9425E6882339F00E94B93386E7B7
:1051C00095E00E949733BEC40E9478D760E08F2D8F
:1051D0000E94B6E20F3FBFEF1B0731F0013011050F
:1051E00071F000E010E00DC08F2D0E94555631E0A7
:1051F00020E0892B09F030E0032F122F02C001E0DC
:1052000010E08F2D0E9455568017910709F49AC41B
:1052100080E00E949434F5CF64E071E083E50E9461
:10522000FB318C0168EE73E080E50E94FB31893828
:10523000E3E19E0710F088E893E1B8010E9432A2F2
:1052400081C485E40E94E2E5811173C080E50E947B
:10525000A531882351F00E94723160934904709304
:105260004A0480934B0490934C0489E40E94A53136
:10527000882381F00E9472312CEA35EC47E25EE32C
:105280000E94F7F260934D0470934E0480934F0494
:105290009093500484E40E94A531882381F00E94F9
:1052A00072312CEA35EC47E25EE30E94BCF7609372
:1052B00051047093520480935304909354040E94B9
:1052C000BD334091490450914A0460914B04709160
:1052D0004C0482E892E00E94193B2CEA35EC47E24C
:1052E0005EE360914D0470914E0480914F04909163
:1052F00050040E94BCF7AB01BC018EE792E00E9413
:10530000193B2CEA35EC47E25EE360915104709161
:10531000520480915304909154040E94F7F2AB011F
:10532000BC018AE792E00E94193B8AE00E94903318
:1053300009C40E94B93388E692E00E94973302C400
:1053400080E50E94A531882351F00E94723160935C
:10535000900270939102809392029093930289E459
:105360000E94A531882381F00E9472312CEA35EC2D
:1053700047E25EE30E94F7F2609394027093950215
:10538000809396029093970284E40E94A53188232B
:1053900081F00E9472312CEA35EC47E25EE30E9414
:1053A000BCF7609398027093990280939A0290934D
:1053B0009B020E94BD3340919002509191026091F6
:1053C00092027091930284E692E00E94193B2CEACB
:1053D00035EC47E25EE36091940270919502809112
:1053E0009602909197020E94BCF7AB01BC0180E647
:1053F00092E00E94193B2CEA35EC47E25EE36091B3
:1054000098027091990280919A0290919B020E9459
:10541000F7F2AB01BC018CE592E00E94193B8AE0F7
:105420000E9490338FC383E50E94A531182F8823F3
:1054300071F00E9472310E942EF870933A016093CD
:10544000390121E0672B09F020E020933D0480E53D
:105450000E94A531882359F02091390130913A01F9
:10546000232B11F00E94623180933D046BC3111114
:1054700069C30E94BD3389E492E00E949733809112
:105480003D04882319F081E392E002C08DE292E0AE
:105490000E9497336091390170913A0188E392E05C
:1054A0000E94973A84E392E00E9497334BC30E9494
:1054B0004C4A48C30E9478D745C30E9487E58111B2
:1054C00041C301E212E02EEB32E039A728A7AE017A
:1054D0004F5F5F4F4A01EEE1AE2EE2E0BE2E1A01B1
:1054E000F8016591759185919491A8A5B9A5CD9084
:1054F000DD90ED90FD90B9A7A8A7A70196010E94A5
:1055000038F72B013C01F10160837183828393831F
:1055100020E030E040EA51EC0E94BCF887FD0AC070
:1055200020E030E040EA51E4C301B2010E9491F270
:1055300018162CF4F501849118160CF46BC6D101E1
:10554000CD90DD90ED90FD901D0120E030E040EA2F
:1055500051ECC701B6010E94BCF887FD0AC020E0EB
:1055600030E040EA51E4C701B6010E9491F21816FA
:10557000A4F40E94B93380E092E00E94973361E086
:1055800082EF91E00E945FA20E9476BA68E270E02A
:1055900088EC90E00E9432A2D5C20C5F1F4FBFEF93
:1055A000AB1ABB0AE2E00D321E0709F099CF77E58E
:1055B000E72E72E0F72E10E0F40181919191A19114
:1055C000B1914F01F70181939193A193B1937F0121
:1055D000812F0E94BDC51F5F133071F70E94CCC799
:1055E00060E08CED91E00E945FA263E972E084E6E6
:1055F00090E00E9432A26AEB72E084E690E00E94A2
:1056000032A2A0C20E944B689DC20E9401C99AC2E8
:1056100081E0809352020E94E76C1092520288232C
:1056200009F490C20E94BD3381ED91E00E9497334E
:1056300089C28091131282FF85C280628093131207
:1056400081C20E9430377EC20E9496CF082F87FD0C
:1056500079C285E50E94A5318823F9F0E02E002E5D
:10566000000CFF080E9472314B015C0120E030E029
:10567000A9010E94BCF887FF04C0B7FAB094B7F83C
:10568000B094F70163E0EE0FFF1F6A95E1F7E65B68
:10569000FD4F80829182A282B3828CE40E94A53168
:1056A000882309F44FC2002E000C110B0E947231A6
:1056B0006B017C0120E030E0A9010E94BCF887FF6B
:1056C00004C0F7FAF094F7F8F09453E0000F111FBC
:1056D0005A95E1F7F801E65BFD4FC482D582E68278
:1056E000F78230C20E9496CF182F87FD2BC28AE521
:1056F0000E94EE31882349F040E050E0BA018AE58B
:105700000E94354A4B015C0106C0812C912C40EA75
:10571000A42E41E4B42E412F62E085E00E9423E2F2
:1057200020E030E0A901C501B4010E94BCF81816C0
:105730007CF580E090E0A0EAB0E489839A83AB83B3
:10574000BC832091C6023091C7024091C80250919B
:10575000C902C501B4010E9439F76B017C0120E048
:1057600030E04AE753E40E9491F287FD06C0C12C65
:10577000D12C3AE7E32E33E4F32ECC8EDD8EEE8E81
:10578000FF8EBE016F5F7F4FCE014C960E949AC67E
:105790001CA21DA21EA21FA28CE40E94A531882378
:1057A00029F00E9472316B017C0108C0C0904E024A
:1057B000D0904F02E0905002F090510220E030E093
:1057C000A901C701B6010E94BCF887FF04C0F7FA1F
:1057D000F094F7F8F094C8A2D9A2EAA2FBA26091D3
:1057E0004604709147046430710554F1072E000C93
:1057F000880B990B0E9498F29B01AC0160914204C6
:105800007091430480914404909145040E9438F7BC
:105810006B017C0120E030E0A9010E94BCF887FF09
:1058200004C0F7FAF094F7F8F09401E020E030E0DB
:1058300040E450E4C701B6010E94BCF818160CF011
:1058400000E080E090E0A0EAB1E489839A83AB8332
:10585000BC8382E00E94C133811106C040E062E057
:1058600089E00E9423E20DC022E0E22E23E0AE0197
:105870004F5F5F4FBE01605E7F4FCE0184960E94F6
:10588000A7E420E030E0A901C501B4010E94BCF802
:1058900018165CF580E090E0A0EAB0E489839A8372
:1058A000AB83BC83A50194016091C6027091C702CD
:1058B0008091C8029091C9020E9438F76B017C0167
:1058C00020E030E0A9010E94BCF818161CF0C12CA1
:1058D000D12C7601CC8EDD8EEE8EFF8EBE016F5FF9
:1058E0007F4FCE014C960E949AC640E060E089E06E
:1058F0000E9423E227C10E9496CF182F87FD22C164
:105900008AE50E94EE31882349F040E050E0BA0178
:105910008AE50E94354A4B015C0106C0812C912C1E
:1059200090EAA92E91E4B92E412F63E083E00E9412
:1059300023E220E030E0A901C501B4010E94BCF8D7
:1059400018167CF580E090E0A0EAB0E489839A83A1
:10595000AB83BC832091C6023091C7024091C8023C
:105960005091C902C501B4010E9439F76B017C0155
:1059700020E030E04AE753E40E9491F287FD06C040
:10598000C12CD12C8AE7E82E83E4F82ECC8EDD8E54
:10599000EE8EFF8EBE016F5F7F4FCE014C960E9450
:1059A0009AC685E50E94A531882329F00E947231AC
:1059B0006B017C010AC028E01202F0011124E65BB1
:1059C000FD4FC080D180E280F38020E030E0A9016B
:1059D000C701B6010E94BCF887FF04C0F7FAF09433
:1059E000F7F8F094F7FAF094F7F8F094C982DA82B5
:1059F000EB82FC8263E0CE0101960E9401E420E08C
:105A000030E0A901C501B4010E94BCF818165CF58C
:105A100080E090E0A0EAB0E489839A83AB83BC8302
:105A2000A50194016091C6027091C7028091C802DD
:105A30009091C9020E9438F76B017C0120E030E0B0
:105A4000A9010E94BCF818161CF0C12CD12C7601BB
:105A5000CC8EDD8EEE8EFF8EBE016F5F7F4FCE014E
:105A60004C960E949AC640E060E089E00E9423E2E2
:105A700069C08BE40E94EE31882329F10E947231C3
:105A80006B017C0120E030E0A9010E94BCF887FD99
:105A900015C020E030E040E251E4C701B6010E94A9
:105AA00091F218165CF00E9478D7C0925504D092FB
:105AB0005604E0925704F092580444C087EA91E0FB
:105AC0000E9497333FC00E94BD33409155045091CE
:105AD0005604609157047091580486EC91E00E943E
