:100000000C943F190C9469190C9469190C94691992
:100010000C9469190C9469190C9469190C94691958
:100020000C9469190C9469190C9469190C94691948
:100030000C9469190C94E1550C9469190C94691984
:100040000C9469190C94BE6E0C94E1E80C94691937
:100050000C94FE3A0C94F43A0C9469190C946919B6
:100060000C9469190C9469190C9469190C94691908
:100070000C9469190C9469190C9469190C946919F8
:100080000C9494340C9469190C946919E0BD9FBCCC
:10009000D6BC1CBED6BCD6BCD6BCD6BCD6BCD6BC88
:1000A000D6BCD6BCD6BCD6BCD6BCD6BCD6BCD6BCC0
:1000B000D6BCD6BCD6BCD6BCD6BCD6BCD6BCD6BCB0
:1000C000D6BCD6BCD6BCD6BC16BED6BCD6BCD6BC5E
:1000D000D6BCD6BCD6BCD6BCD6BCEFBDD6BCD6BC76
:1000E000D6BCD6BCD6BCD6BCD6BCD6BCD6BCD6BC80
:1000F00033BED3BCA5E5A8E59BE59FE5BFE5BFE51D
:10010000ACE5B0E5B6E5BAE550E855E85AE864E88C
:1001100092E892E86EE876E87EE888E84E414E493B
:100120004E495459494E46CDCCCC3D0AD7233C17B5
:10013000B7D13877CC2B329595E6241FB14F0A0002
:100140000020410000C84200401C4620BCBE4CCAF2
:100150001B0E5AAEC59D74434F4D4D554E494341FC
:1001600054494F4E0044525952554E004552524F39
:10017000525300494E464F004543484F0052657068
:100180006F732E2E2E004F726967696E6520585965
:10019000205072656D6965720A004F726967696EF9
:1001A00065205859205072656D69657200205A3A71
:1001B000200020593A200042656420583A20004D22
:1001C00065736820706F696E742063616E6E6F7402
:1001D000206265207265736F6C7665640A004174F5
:1001E00074656E7465207574696C69732E004D6F4B
:1001F000746575727320626C6F7175C3A973004565
:100200006E642066696C65206C6973740A004265CF
:1002100067696E2066696C65206C6973740A0028D2
:100220006E6F2066696C65290043757272656E7425
:100230002066696C653A20005344207072696E74C0
:10024000696E67206279746520004E6F7420534494
:10025000207072696E74696E670A002E0A00446528
:100260006C6574696F6E206661696C65642C2046EC
:10027000696C653A200046696C652064656C65743C
:1002800065643A002569730025696D20256973004E
:100290002569682025696D2025697300256964201A
:1002A0002569682025696D202569730025697920F5
:1002B000256964202569682025696D2025697300FA
:1002C0005072696E742074696D653A20006F6666BD
:1002D00000780173016C016501570144454255479F
:1002E0003A004D31313320530020573A00526566B1
:1002F000726F69642E206475206C69742E2E2E0036
:100300004C697420656E20636861756666652E2E83
:100310002E006F6B003344205072696E746572203A
:100320004F46462E00204500205A00205900204DFF
:1003300039322058004348414D4245525F54454DA3
:100340005045524154555245004D4F54494F4E5F10
:100350004D4F44455300544845524D414C5F505217
:100360004F54454354494F4E004155544F52455008
:100370004F52545F53445F535441545553005052AD
:100380004F4D50545F535550504F525400454D45BA
:100390005247454E43595F504152534552004341E5
:1003A00053455F4C494748545F4252494748544E71
:1003B00045535300544F47474C455F4C49474854B9
:1003C0005300534F4654574152455F504F57455283
:1003D000004255494C445F50455243454E54004CF1
:1003E0004556454C494E475F44415441005A5F5081
:1003F000524F4245004155544F4C4556454C0050D4
:1004000052494E545F4A4F420050524F4752455353
:1004100053004155544F5245504F52545F54454D2F
:100420005000564F4C554D45545249430045455098
:10043000524F4D0042494E4152595F46494C455F2B
:100440005452414E534645520053455249414C5F28
:10045000584F4E5F584F4646004649524D574152FD
:10046000455F4E414D453A4D61726C696E20437255
:10047000656177736F6D65436F726520322E302E24
:10048000302D52433020534F555243455F434F4424
:10049000455F55524C3A68747470733A2F2F6769F0
:1004A000746875622E636F6D2F74726F7563682F39
:1004B0004D61726C696E2050524F544F434F4C5FE8
:1004C00056455253494F4E3A312E30204D41434804
:1004D000494E455F545950453A3344205072696E35
:1004E0007465722045585452554445525F434F55E8
:1004F0004E543A3120555549443A6365646532613A
:1005000032662D343161322D343734382D39623131
:10051000322D6335356336326633363766660A0008
:100520002F2F20004D31343520533C696E6465789F
:100530003E206F7574206F662072616E676520289B
:10054000302D31290A002054002052004163636598
:100550006C65726174696F6E3A2050005741524E5B
:10056000494E4721204C6F77205A204A65726B20F4
:100570006D6179206C65616420746F20756E7761A0
:100580006E746564207061757365732E0A004F4642
:1005900046004F4E00205A00205900580020204DA0
:1005A00061783A2000205A00205900580020204D40
:1005B000696E3A2000536F667420656E6473746FC1
:1005C00070733A200020466C6F773A200050726FAB
:1005D0007465637465642050696E0A00206F7574D9
:1005E000206F662072616E67650A00536572766FD0
:1005F00020003A200020536572766F2000496E7605
:10060000616C69642065787472756465720A002093
:10061000643A0020693A0020703A0020643A0020D1
:10062000693A0020703A0064697300656E004329DE
:100630000A0061626C656420286D696E2074656DC6
:10064000702000436F6C6420657874727564657304
:100650002061726520004D65736820706F696E744B
:100660002063616E6E6F74206265207265736F6CBB
:100670007665640A004D34323120696E636F7272A0
:1006800065637420706172616D6574657220757345
:100690006167650A0044C3A963616C616765732083
:1006A0006170706C697175C3A973004572723A20EC
:1006B000546F6F206661722100546F6F2066617203
:1006C0002066726F6D207265666572656E63652067
:1006D000706F696E740A00454550524F4D204F4B64
:1006E0000A003F5A206F7574206F662072616E6732
:1006F0006520282D323020746F203230290A0050B6
:10070000726F6265205A204F66667365743A2000E6
:10071000496E76616C69642065787472756465727F
:100720000A004572726F722077726974696E672071
:10073000746F20454550524F4D210A000F150E127F
:1007400016170E1303021A1401000E0C190DFF18D0
:100750000C040001627573793A20706175736564E9
:1007600020666F7220696E7075740A006275737905
:100770003A2070617573656420666F7220757365C9
:10078000720A00627573793A2070726F63657373D1
:10079000696E670A004B494C4C2063617573656450
:1007A00020627920746F6F206D75636820696E61B7
:1007B00063746976652074696D65202D2063757298
:1007C00072656E7420636F6D6D616E643A200052C5
:1007D0006564C3A96D6172726572205356500049F9
:1007E0004D50522E2053544F5050C38945004B4911
:1007F0004C4C4544005072696E7465722068616C9F
:100800007465642E206B696C6C28292063616C6CA4
:100810006564210A0053544F5050C38900507269D7
:100820006E7465722073746F707065642064756592
:1008300020746F206572726F72732E204669782063
:10084000746865206572726F7220616E64207573C2
:1008500065204D39393920746F2072657374617267
:10086000742E202854656D706572617475726520F0
:1008700069732072657365742E20536574206974E2
:100880002061667465722072657374617274696E3A
:1008900067290A006563686F3A004572726F723AA1
:1008A0000042696C696E656172204C6576656C69A1
:1008B0006E6720477269643A0A007C3C3E5E2B3DBD
:1008C0003F2F5B5D3B2C2A225C004469616DC3A80D
:1008D0007472652066696C2E004469616DC3A874EA
:1008E00072652066696C2E00417272C3AA74004D55
:1008F0006172636865004520656E206D6D3300434D
:100900006F6E6669672E206176616E63C3A96500AC
:10091000082046616374657572000820466163743F
:100920006575720008204D61780008204D617800DF
:1009300008204D696E0008204D696E00417272C337
:10094000AA74004D61726368650054656D702E2055
:100950004175746F2E00436F6E6669672E20617655
:10096000616E63C3A96500562064C3A9706C2E2014
:100970006D696E00562064C3A9706C2E206D696E7F
:1009800000566D696E2000566D696E2000566D61CF
:1009900078204500566D6178204500566D617820BD
:1009A0005A00566D6178205A00566D6178205900C2
:1009B000566D6178205900566D6178205800566D4B
:1009C0006178205800436F6E6669672E20617661FA
:1009D0006E63C3A9650023646566696E652044453E
:1009E0004641554C545F0000626564004B64200032
:1009F0004B6920004B702000504944204175746FB2
:100A000074756E652066696E69736865642120502F
:100A1000757420746865206C617374204B702C2091
:100A20004B6920616E64204B6420636F6E73746148
:100A30006E74732066726F6D2062656C6F772069CB
:100A40006E746F20436F6E66696775726174696F4B
:100A50006E2E680A00504944204175746F74756E9B
:100A600065206661696C6564212074696D656F75C8
:100A7000740A0045312045727220544845524D4950
:100A80005155450045727220544845524D495155C3
:100A900045204C495400546865726D616C20527554
:100AA0006E6177617900453120457272206465205E
:100AB00063686175666665004572722064652063CF
:100AC000686175666665206C697400486561746963
:100AD0006E67206661696C65640050494420417509
:100AE000746F74756E65206661696C65642120544D
:100AF000656D706572617475726520746F6F2068C2
:100B00006967680A00204B643A2000204B693A204C
:100B100000204B703A20000A20436C6173736963B4
:100B200020504944200A00204B643A2000204B69A1
:100B30003A2000204B703A20000A204E6F206F763A
:100B4000657273686F6F740A002054753A20002034
:100B50004B753A2000206D61783A2000206D696E57
:100B60003A200020643A200020626961733A200034
:100B7000504944204175746F74756E6520737461BB
:100B800072740A00504944204175746F74756E6523
:100B9000206661696C6564212054656D70657261C1
:100BA0007475726520746F6F20686967680A0050F9
:100BB0004944204175746F74756E65206661696C77
:100BC0006564212042616420657874727564657281
:100BD000206E756D6265720A004572723A207574F6
:100BE000663820666F6E74206E6F7420696E69744B
:100BF00069616C697A65642E004572723A20757479
:100C0000663820666F6E74206E6F7420696E69742A
:100C100069616C697A65642E004572723A20757458
:100C2000663820666F6E74206E6F7420696E69740A
:100C300069616C697A65642E0000060C00FE07028B
:100C40002603BC01FFFE0AFE08FE05080806000098
:100C500040F0C88888987810050808060000C0F899
:100C60008888888888F80505050600012030F83056
:100C7000200508080600002070F820202020E0054C
:100C800009090600FF2070A8A8B88888702005060A
:100C900006060001E08CEA8C8A0A0509090600FFB5
:100CA000F8A88888888888A8F8050A0A0600FE201F
:100CB0005050505088A8A8887003030306000340D2
:100CC000A040FFFFFFFFFFFFFFFFFFFFFFFFFFFF52
:100CD000FFFFFFFFFFFFFFFF0000000605FF01070A
:100CE00007060200808080808000800303030601E5
:100CF00005A0A0A005060606000050F85050F850C8
:100D00000509090600FF2070A8A07028A87020051A
:100D10000707060000C8C810204098980507070676
:100D2000000040A0A040A8906801030306020580CF
:100D300080800309090601FF2040408080804040F8
:100D4000200309090601FF80404020202040408008
:100D500005070706000020A8702070A820050505DB
:100D60000600012020F820200203030601FFC040F6
:100D700080050101060003F8020202060100C0C05E
:100D800005070706000008101020404080050707EF
:100D9000060000708898A8C888700307070601003D
:100DA00040C040404040E00507070600007088084A
:100DB000102040F8050707060000F80810300888E2
:100DC0007005070706000010305090F81010050756
:100DD00007060000F880F00808887005070706007D
:100DE00000304080F0888870050707060000F8088A
:100DF00010102020200507070600007088887088E2
:100E0000887005070706000070888878081060025F
:100E10000505060100C0C000C0C00206060601FFAD
:100E2000C0C000C04080030505060101204080408D
:100E300020050303060002F800F80305050601017A
:100E400080402040800507070600007088102020A1
:100E500000200507070600007088B8A8B880700554
:100E60000707060000708888F88888880507070645
:100E70000000F04848704848F00507070600007079
:100E8000888080808870050707060000F048484881
:100E90004848F0050707060000F88080F08080F8D9
:100EA000050707060000F88080F0808080050707AE
:100EB000060000708880809888700507070600008B
:100EC000888888F8888888030707060100E0404082
:100ED000404040E005070706000038101010109051
:100EE000600507070600008890A0C0A0908805074D
:100EF00007060000808080808080F80507070600D4
:100F00000088D8A888888888050707060000888890
:100F1000C8A8988888050707060000708888888810
:100F20008870050707060000F08888F0808080053B
:100F3000070706000070888888A8906805070706DC
:100F40000000F08888F0A090880507070600007070
:100F5000888070088870050707060000F8202020A8
:100F60002020200507070600008888888888887068
:100F70000507070600008888888850502005070765
:100F800006000088888888A8A85005070706000082
:100F900088885020508888050707060000888850F8
:100FA00020202020050707060000F80810204080B8
:100FB000F80309090601FFE080808080808080E0DE
:100FC00005070706000080404020101008030909AB
:100FD0000601FFE020202020202020E0050303065A
:100FE00000052050880501010600FEF803030306F2
:100FF0000105804020050505060000700878887806
:101000000507070600008080F0888888F005050540
:101010000600007080808870050707060000080839
:1010200078888888780505050600007088F080704B
:10103000050707060000304840E04040400507072C
:101040000600FE708888887808700507070600008B
:101050008080F0888888880307070601004000C068
:10106000404040E00409090601FE10003010101055
:1010700010906005070706000080808890E0908847
:10108000030707060100C04040404040E005050559
:10109000060000D0A8A8A8A8050505060000B0C84D
:1010A000888888050505060000708888887005070F
:1010B000070600FEF0888888F08080050707060094
:1010C000FE78888888780808050505060000B0C8FD
:1010D00080808005050506000078807008F005070F
:1010E000070600002020F82020201805050506002E
:1010F000008888889868050505060000888888505B
:10110000200505050600008888A8A85005050506E5
:10111000000088502050880507070600FE88888850
:1011200050204080050505060000F8102040F80317
:1011300009090601FF20404040804040402001094D
:10114000090602FF808080808080808080030909FA
:101150000601FF80404040204040408005030306D8
:10116000000248A890FFFFFFFFFFFFFFFFFFFFFF08
:10117000FFFFFFFFFFFFFFFFFFFFFFFFFFFFFFFF7F
:10118000FFFFFFFFFFFF0000000605FF0107070646
:101190000200800080808080800507070600FF2015
:1011A00070A8A0A87020050707060000304840E09E
:1011B0004048B0050505060000A8508850A805075E
:1011C000070600008850F820F820200107070602D3
:1011D0000080808000808080040808060100708004
:1011E0006090906010E0030101060107A006070768
:1011F0000600007884B4A4B48478030505060104CD
:1012000060A06000E00505050600002850A05028F9
:10121000050303060001F80808030101060103E0C5
:101220000607070600007884B4A4A48478050101A9
:10123000060007F8040404060105609090600507A5
:10124000070600002020F8202000F803050506010D
:101250000440A02040E0030505060104C020402012
:10126000C00303030601052040800507070600FEB2
:1012700088888898E8808005080806000078E8E8F3
:10128000E868282828020202060203C0C0030202FE
:101290000601FE20C003050506010440C04040E0F1
:1012A00003050506010540A04000E0050505060010
:1012B00000A0502850A0050A0A06000040C048506F
:1012C0006050B0507810050A0A06000040C048502F
:1012D0006050A8081038050A0A060000C0204830EF
:1012E000E050B050781005070706000020002020CD
:1012F000408870050A0A060000402000708888F8BF
:10130000888888050A0A060000102000708888F87E
:10131000888888050A0A060000205000708888F82E
:10132000888888050A0A06000068B000708888F876
:101330008888880509090600005000708888F888A8
:101340008888050A0A060000205020708888F888DE
:10135000888805070706000078A0A0F0A0A0B805BF
:1013600009090600FE708880808088701060050A78
:101370000A060000402000F88080F08080F8050A0E
:101380000A060000102000F88080F08080F8050A2E
:101390000A060000205000F88080F08080F80509DF
:1013A000090600005000F88080F08080F8030A0AE7
:1013B000060100804000E04040404040E0030A0A4F
:1013C000060100204000E04040404040E0030A0A9F
:1013D00006010040A000E04040404040E003090911
:1013E000060100A000E04040404040E0050707063D
:1013F0000000704848E8484870050A0A060000687E
:10140000B0008888C8A8988888050A0A06000040A5
:10141000200070888888888870050A0A06000010F5
:10142000200070888888888870050A0A06000020D5
:10143000500070888888888870050A0A060000684D
:10144000B0007088888888887005090906000050F7
:101450000070888888888870050505060001885016
:101460002050880509090600FF087098A8A8A8C898
:101470007080050A0A060000402000888888888855
:101480008870050A0A06000010200088888888886D
:101490008870050A0A06000020500088888888881D
:1014A00088700509090600005000888888888888A7
:1014B00070050A0A060000102000888850202020AD
:1014C0002004070706010080E0909090E080050767
:1014D00007060000708890A09088B00508080600F4
:1014E0000040200070087888780508080600001081
:1014F0002000700878887805080806000020500051
:10150000700878887805080806000068B000700840
:1015100078887805070706000050007008788878FA
:101520000508080600002050207008788878050516
:1015300005060000702870A0780507070600FE70F9
:101540008880887010600508080600004020007040
:1015500088F080700508080600001020007088F0F0
:1015600080700508080600002050007088F0807028
:1015700005070706000050007088F0807003080817
:10158000060100804000C0404040E003080806011A
:1015900000204000C0404040E00308080601004031
:1015A000A000C0404040E0030707060100A000C0C3
:1015B000404040E0050909060000502050087888A6
:1015C00088887005080806000068B000B0C88888E0
:1015D000880508080600004020007088888870058B
:1015E0000808060000102000708888887005080828
:1015F00006000020500070888888700508080600E2
:101600000068B000708888887005070706000050E1
:101610000070888888700505050600012000F80024
:10162000200505050600007898A8C8F005080806FA
:10163000000040200088888888700508080600009F
:10164000102000888888887005080806000020504F
:101650000088888888700507070600005000888881
:10166000888870050A0A0600FE10200088888850C5
:101670002040800509090600FE8080F0888888F0F7
:1016800080800509090600FE5000888888502040A7
:101690008024F4D43050C38E20C2A24017828B70B5
:1016A00011127A910D816CD90AA861E108C75866B8
:1016B00007615143061E4B5D05C145A7041A411140
:1016C00004093D9803713931034036DB02653391DB
:1016D00002D4305402802E1D02632CEE01752AC5FF
:1016E00001B028A001102781018F2564012B244B14
:1016F00001E0223401AC211F018D200D01801FFC6F
:1017000000841EED00971DDF00B81CD200E61BC64A
:1017100000201BBC00641AB200B219A8000A19A06C
:10172000006A189900D117910040178B00B51684F4
:101730000031167E00B31579003A157300C7146F97
:101740000058146A00EE1366008813630025135EC8
:1017500000C7125B006C12570015125400C11151E2
:101760000070114F0021114B00D61049008D104719
:10177000004610440002104200C00F4000800F3E9F
:1017800000420F3C00060F3B00CB0E3800930E3793
:10179000005C0E3500270E3400F30D3200C10D3110
:1017A00000900D3000600D2E00320D2D00050D2C27
:1017B00000D90C2B00AE0C2900850C29005C0C27ED
:1017C00000350C27000E0C2600E80B2400C40B2467
:1017D00000A00B23007D0B23005A0B2100390B21A5
:1017E00000180B2000F80A1F00D90A1E00BB0A1EB1
:1017F000009D0A1D00800A1D00630A1C00470A1B89
:10180000002C0A1B00110A1A00F7091A00DD091939
:1018100000C4091900AB091900920917007B0918C7
:1018200000630917004C0916003609160020091636
:10183000000A091500F5081500E0081400CC08148A
:1018400000B8081400A4081400900813007D0812C2
:10185000006B0813005808120046081200340811E3
:1018600000230811001208110001081100F00710F0
:1018700000E0071000D0071000C0071000B0070FED
:1018800000A107100091070E0083070F0074070FD7
:101890000065070E0057070E0049070E003B070DB5
:1018A000002E070E0020070D0013070D0006070D80
:1018B00000F9060C00ED060D00E0060C00D4060C45
:1018C00000C8060C00BC060C00B0060C00A4060BF9
:1018D0000099060C008D060B0082060B0077060BA4
:1018E000006C060B0061060A0057060B004C060A46
:1018F0000042060A0038060A002E060A0024060ADC
:10190000001A060A001006090007060A00FD05096C
:1019100000F4050900EB050900E2050900D90509F5
:1019200000D0050900C7050900BE050900B5050876
:1019300000AD050800A50509009C050800940508F0
:10194000008C050800840508007C05080074050863
:10195000006C050700650508005D050700560508D1
:10196000004E050700470507004005080038050739
:1019700000310507002A050700230507001C05069E
:1019800000160507000F05070008050600020507F9
:1019900000FB040600F5040700EE040600E8040658
:1019A00000E2040700DB040600D5040600CF0406AD
:1019B00000C9040600C3040600BD040600B70406FF
:1019C00000B1040500AC040600A6040600A004054E
:1019D000009B04060095040500900406008A040597
:1019E0000085040500800406007A040500750405DE
:1019F00000700405006B0405006604050061040521
:101A0000005C04050057040500520405004D040560
:101A10000048040500430405003E0404003A0405A0
:101A20000035040500300404002C040500270404DC
:101A300000230405001E0404001A04040016040513
:101A400000110404000D040400090405000404044A
:101A50000000040400FC030400F8030400F4030481
:101A600000F0030400EC030400E8030400E40304B2
:101A700000E0030400DC030400D8030400D40304E2
:101A800000D0030400CC030400C8030300C5030313
:101A90000024F404D9201BC40C5C0E9804C4095F14
:101AA0000265077101F405F900FB04B300480487DF
:101AB00000C10369005803550003034500BE023A04
:101AC000008402310053022A00290225000402206A
:101AD00000E4011C00C8011900AF011700980114AF
:101AE0000084011300710110006101100051010E0A
:101AF0000043010D0036010B002B010B0020010BF0
:101B000000150109000C01090003010800FB000891
:101B100000F3000800EB000700E4000600DE00060A
:101B200000D8000600D2000600CC000500C7000562
:101B300000C2000500BD000400B9000400B50004A7
:101B400000B1000400AD000400A9000400A50003DA
:101B500000A20003009F0004009B00030098000304
:101B6000009500020093000300900003008D000226
:101B7000008B00030088000200860002008400033E
:101B800000810002007F0002007D0002007B000255
:101B90000079000200770001007600020074000264
:101BA0000072000100710002006F0002006D000170
:101BB000006C0002006A0001006900020067000179
:101BC000006600010065000100640002006200017F
:101BD0000061000100600001005F0002005D000183
:101BE000005C0001005B0001005A00010059000187
:101BF0000058000100570001005600010055000187
:101C00000054000100530000005300010052000185
:101C10000051000100500001004F0001004E000083
:101C2000004E0001004D0001004C0001004B00007F
:101C3000004B0001004A000100490001004800007B
:101C40000048000100470001004600000046000176
:101C50000045000000450001004400010043000071
:101C6000004300010042000000420001004100006A
:101C70000041000100400001003F0000003F000162
:101C8000003E0000003E0001003D0000003D00015C
:101C9000003C0000003C0000003C0001003B000054
:101CA000003B0001003A0000003A0001003900004A
:101CB0000039000100380000003800000038000141
:101CC0000037000000370001003600000036000039
:101CD000003600010035000000350000003500012D
:101CE0000034000000340000003400010033000024
:101CF0000033000000330001003200000032000019
:101D0000003200010031000000310000003100010C
:101D1000003000000030000000300001002F000003
:101D2000002F0000002F0000002F0001002E0000F7
:101D3000002E0000002E0001002D0000002D0000EC
:101D4000002D0000002D0001002C0000002C0000E0
:101D5000002C0000002C0001002B0000002B0000D4
:101D6000002B0000002B0001002A0000002A0000C8
:101D7000002A0000002A00010029000000290000BC
:101D800000290000002900000029000100280000AF
:101D900000280000002800000028000000280001A2
:101DA0000027000000270000002700000027000097
:101DB0000027000100260000002600000026000089
:101DC000002600000026000100250000002500007C
:101DD000002500000025000000250000002500016E
:101DE0000024000000240000002400000024000063
:101DF0000024000100230000002300000023000055
:101E00000023000000230000002300000023000145
:101E1000002200000022000000220000002200003A
:101E2000002200000022000100210000002100002B
:101E3000002100000021000000210000002100001E
:101E40000021000100200000002000000020000010
:101E50000020000000200000002000000020000002
:101E600000200001001F0000001F0000001F0000F4
:101E7000001F0000001F0000001F0000001F0001E5
:101E8000001E0000001E0000001E0000001E0000DA
:101E900000043700001E290000511B0000581000EC
:101EA0000010090000CC040000780200004101008D
:101EB00000626564002C2073797374656D207374FF
:101EC0006F7070656421204865617465725F494474
:101ED0003A2000FFFFE7FFFC0003FFFC0FFFC0FFFD
:101EE000FCFFFFE7FFFE0003FFFE1FFFE1FFFEFF19
:101EF000FFE7FFFE0003FFFF3FFFF3FFFF00E007E8
:101F0000000E00000007380073800700E007000E95
:101F10003FF00007380073800700E007FFFE3FF343
:101F2000FFFF380073800700E007FFFC3FF3FFFF6F
:101F3000380073800700E007FFFE3FF3FFFF380023
:101F400073800700E007000E000000073800738070
:101F50000700E007000E000000073800738007004C
:101F6000E007000F0003FFFF3FFFF3FFFF00E00764
:101F7000000F0003FFFE1FFFE1FFFE00E007000F60
:101F80000003FFFC0FFFC0FFFC000000000000008A
:101F90000000000000000000000000000000000041
:101FA0000000000000FFFFFFFFFFFFFFFFFFFFFF3C
:101FB000FFFFFFFFFFFFFFFFFFFFFFFFFFFFFFFF31
:101FC000FF2020506C616E6E6572427566666572A8
:101FD00042797465733A20002046726565204D652C
:101FE0006D6F72793A2000436F6D70696C65643A69
:101FF0002041756720313220323031390A00207C8F
:1020000020417574686F723A202874726F75636826
:102010002C204372656177736F6D6520436F726525
:1020200020322E30290A00323031392D30382D300F
:102030003800204C61737420557064617465643A93
:102040002000322E302E302D5243300A004D617266
:102050006C696E0020536F667477617265205265FB
:102060007365740A00205761746368646F67205257
:10207000657365740A002042726F776E206F757405
:102080002052657365740A002045787465726E612C
:102090006C2052657365740A00506F7765725570D5
:1020A0000A0073746172740A006175746F25632E7F
:1020B00067006572726F722077726974696E67204B
:1020C000746F2066696C650A00446F6E65207361E9
:1020D00076696E672066696C652E0A004D3239009C
:1020E000427574C3A9657320256320256320256389
:1020F00020256300205A3A0020593A0020583A001F
:10210000656E6473746F7073206869743A20004759
:1021100032385859000000754300006B4300007AC4
:102120004300000000000000000000000045727243
:102130002064652063686175666665206C6974005B
:1021400048656174696E67206661696C6564004505
:10215000727220544845524D49515545204C4954BE
:1021600000546865726D616C2052756E617761799B
:102170000045312045727220646520636861756690
:1021800066650048656174696E67206661696C65A3
:10219000640045312045727220544845524D4951E2
:1021A000554500546865726D616C2052756E61779B
:1021B000617900202D20496E76616C696420657814
:1021C000747275646572206E756D62657220210A85
:1021D0000070012C0190012701B0012201C0011DF6
:1021E00001F00118011002130130020E0160020912
:1021F0000190020401C002FF000003FA004003F551
:10220000008003F000D003EB002004E6007004E13E
:1022100000E004DC004005D700C005D2004006CD38
:1022200000D006C8008007C3003008BE00F008B91F
:1022300000C009B400B00AAF00B00BAA00D00CA5D2
:1022400000000EA000500F9B00C01096005012918D
:102250000000148C00C0158700B0178200B0197DF3
:1022600000D01B7800001E730040206E0090226991
:1022700000F024640040275F0090295A00E02B55AD
:1022800000102E500020304B0010324600E0334149
:102290000090353C001037370070383200A0392DDF
:1022A00000B03A2800A03B2300603C1E00103D19FE
:1022B00000903D1400103E0F00703E0A00C03E0525
:1022C00000003F0000403FFBFF803FF6FFC03FF1B2
:1022D000FF45312045727220544845524D495155B1
:1022E000450045727220544845524D49515545208C
:1022F0004C495400546865726D616C2052756E6172
:10230000776179004531204572722054454D502E39
:10231000204D4158004572722054454D502E204D9D
:102320004158204C4954004D415854454D5020745B
:102330007269676765726564004531204572722075
:1023400054454D502E204D494E0045727220544543
:102350004D502E204D494E204C4954004D494E546D
:10236000454D5020747269676765726564004D3829
:102370003420582059205A204500202F0020424068
:102380003A0020403A00456368656320736F6E64CD
:10239000650A00456368656320736F6E6465004F6E
:1023A000726967696E6520257325732573205072E5
:1023B000656D69657200205072656D6965720A000D
:1023C0004F726967696E652000220A00556E6B6E58
:1023D0006F776E20636F6D6D616E643A202200200E
:1023E000636F6C6420657874727573696F6E2070AA
:1023F000726576656E7465640A0053544F502063AD
:10240000616C6C65642062656361757365206F66DD
:1024100020424C546F756368206572726F72202D74
:1024200020726573746172742077697468204D3905
:1024300039390A0053544F502063616C6C65642035
:1024400062656361757365206F6620424C546F75D9
:102450006368206572726F72202D207265737461DB
:1024600072742077697468204D3939390A004F46F3
:10247000460A004661646520486569676874200003
:10248000426564204C6576656C696E672000466124
:10249000696C656420746F20656E61626C652042B2
:1024A0006564204C6576656C696E670A00496E76D6
:1024B000616C6964206D6573682E0A00473120588D
:1024C0003131372059323334204636303030004DE8
:1024D000657375726520706F696E742025692F258C
:1024E00069002E0A002F0050726F62696E67206DBE
:1024F00065736820706F696E7420002028445259FB
:1025000052554E2900473239204175746F2042657B
:1025100064204C6576656C696E67003F20284C2C02
:10252000522C462C4229206F7574206F6620626FF2
:10253000756E64732E0A003F2856296572626F73A8
:1025400065206C6576656C20697320696D706C61BF
:10255000757369626C652028302D34292E0A00427B
:102560006164205A2076616C75650A004E6F2062A6
:10257000696C696E65617220677269640A0020493E
:102580006E76616C6964206578747275646572201A
:102590000043616E6E6F74206F70656E207375629C
:1025A000646972200053442063617264206F6B0A77
:1025B000006F70656E526F6F74206661696C656440
:1025C0000A00766F6C756D652E696E6974206661A0
:1025D000696C65640A00534420696E697420666101
:1025E000696C0A004D3234004D3233202573005798
:1025F000726974696E6720746F2066696C653A2031
:10260000002E0A006F70656E206661696C65642C2F
:102610002046696C653A20002E0A006F70656E20B6
:102620006661696C65642C2046696C653A200046D9
:10263000696C652073656C65637465640A0020537A
:10264000697A653A200046696C65206F70656E6531
:10265000643A2000667265736800646F696E670093
:102660002066696C653A20004E6F772000454E4425
:1026700020535542524F5554494E450A002220706E
:102680006F73002220706172656E743A2200535598
:1026900042524F5554494E452043414C4C207461A1
:1026A000726765743A2200747279696E6720746F7C
:1026B0002063616C6C207375622D67636F646520A5
:1026C00066696C6573207769746820746F6F206D1C
:1026D000616E79206C6576656C732E204D415820B3
:1026E0006C6576656C2069733A310A00452070612B
:1026F000732F6D6D0045207061732F6D6D005A2032
:102700007061732F6D6D005A207061732F6D6D00B5
:1027100059207061732F6D6D0059207061732F6D9A
:102720006D0058207061732F6D6D005820706173BB
:102730002F6D6D00436F6E6669672E206176616E46
:1027400063C3A965003F00496E697469616C697370
:10275000657220454550524F4D00416E6E756C6557
:102760007200496E69742E004D34323800496E692A
:102770007469616C6973657220454550524F4D0014
:1027800046696C616D656E740054656D70C3A972A5
:102790006174757265005061732F6D6D004A6572CA
:1027A0006B00416363C3A96CC3A9726174696F6EE6
:1027B0000056C3A96C6F636974C3A90052C3A967AB
:1027C0006C2E2064C3A963616C206F726967696EA7
:1027D0006500436F6E66696775726174696F6E003C
:1027E000436D643A2052616E67657200436D643ACE
:1027F0002044C3A9706C6F79657200436D643A2000
:1028000053656C662D5465737400436D643A204DB6
:102810006F646520535700436D643A2052657365B9
:102820007400436F6E66696775726174696F6E00DC
:10283000456E72656769737472657220636F6E6648
:1028400069672E004C6974004C69740042757365A9
:10285000004275736500566974657373652076650B
:102860006E74696C2E0056697465737365207665A5
:102870006E74696C2E00436F6E6669677572617461
:10288000696F6E004361703A00220A00656E7175CF
:10289000657565696E672022006F6B005265736510
:1028A0006E643A200053544F5050C38900507269EF
:1028B0006E7465722073746F7070656420647565E2
:1028C00020746F206572726F72732E2046697820B3
:1028D000746865206572726F7220616E6420757312
:1028E00065204D39393920746F20726573746172B7
:1028F000742E202854656D70657261747572652040
:1029000069732072657365742E2053657420697431
:102910002061667465722072657374617274696E89
:1029200067290A004E6F20436865636B73756D20DD
:1029300077697468206C696E65206E756D6265726A
:102940002C204C617374204C696E653A20004E6FE8
:1029500020436865636B73756D2077697468206CBC
:10296000696E65206E756D6265722C204C617374A2
:10297000204C696E653A2000636865636B73756D02
:10298000206D69736D617463682C204C61737420D1
:102990004C696E653A20004C696E65204E756D621B
:1029A0006572206973206E6F74204C617374204CC3
:1029B000696E65204E756D6265722B312C204C61FD
:1029C0007374204C696E653A20004D313130004DF2
:1029D000313137004D33310053442072656164203A
:1029E0006572726F720A00446F6E65207072696E54
:1029F00074696E672066696C650A0020573A004565
:102A000020526566726F6964697373656D656E7473
:102A1000004520456E20636861756666652E2E2E22
:102A2000004368617267657220636F6E6669672E26
:102A3000005265737461757265722064C3A9666122
:102A400075747300456E7265676973747265722080
:102A5000636F6E6669672E0052C3A9676C6572204A
:102A60007072C3A963682E20504554470052C3A911
:102A7000676C6572207072C3A963682E20504C4148
:102A800000424C546F7563680044C3A963616C6174
:102A90006765205A0044C3A963616C616765205A69
:102AA00000436F6E6669672E206176616E63C3A90D
:102AB00065004D656E75207072696E636970616C3A
:102AC000003F00417272C3AA74657220696D707212
:102AD0002E005265746F75720053746F70004D3222
:102AE0003500496D70722E20656E207061757365BA
:102AF00000506175736520696D7072657373696FDD
:102B00006E004D323400496E69742E206C61206372
:102B100061727465205344004D323100496D70720A
:102B2000657373696F6E20534400526574697265F2
:102B300072206361727465205344004D3232004349
:102B40006F6E66696775726174696F6E0054656D4A
:102B500070C3A9726174757265004D6F7576656D8D
:102B6000656E740052657072656E64726520696D81
:102B700070722E004361727465206C6962C3A97221
:102B8000C3A9650052C3A9676C657200417272C324
:102B9000AA74657220696D70722E0050617573653C
:102BA00020696D7072657373696F6E00537572760C
:102BB00065696C6C6572005072C3A963682E205001
:102BC0004C412062757365005072C3A963686175DA
:102BD000666661676520504C41005072C3A9636806
:102BE0002E20504C41206C69740054656D70C3A94F
:102BF000726174757265005072C3A963682E2050AB
:102C00004554472062757365005072C3A9636861BB
:102C10007566666167652050455447005072C3A9C8
:102C200063682E2050455447206C69740054656DCC
:102C300070C3A972617475726500526566726F69BE
:102C4000646972005072C3A96368617566666167E2
:102C5000652050455447005072C3A963686175668A
:102C60006661676520504C410056697465737365F1
:102C70002076656E74696C2E005669746573736591
:102C80002076656E74696C2E004C6974004C697412
:102C900000427573650042757365004D656E752061
:102CA0007072696E636970616C00466C757800467D
:102CB0006C757800566974657373652076656E74FB
:102CC000696C2E00566974657373652076656E7441
:102CD000696C2E004C6974004C6974004275736510
:102CE00000427573650056697465737365005669B3
:102CF0007465737365004D656E75207072696E63DF
:102D00006970616C00F4010000F4010000640000CF
:102D100000881300000000FA430000FA430000A0FE
:102D200040000048420000A0420000A0420000C84D
:102D3000430000BA426F70656E00545249474745E0
:102D4000524544003A20007A5F6D696E00795F6DEC
:102D5000696E00785F6D696E005265706F7274699C
:102D60006E6720656E6473746F7020737461747520
:102D7000730A00205A3A0020593A0020436F756EBA
:102D80007420583A0020453A00205A3A0020593A17
:102D900000583A0020636F6C642065787472757314
:102DA000696F6E2070726576656E7465640A0045A1
:102DB00063686563206F726967696E65002E0A003B
:102DC0006F70656E206661696C65642C2046696C65
:102DD000653A2000416D6178204500416D617820A1
:102DE0004500416D6178205A00416D6178205A009C
:102DF000416D6178205900416D6178205900416D25
:102E00006178205800416D6178205800412064C3EA
:102E1000A9706C2E00412064C3A9706C2E00412063
:102E200072657472616974004120726574726169BF
:102E30007400416363C3A96CC3A9726174696F6E46
:102E400000416363C3A96CC3A9726174696F6E00AA
:102E5000436F6E6669672E206176616E63C3A965F4
:102E6000005665206A65726B005665206A65726B54
:102E700000567A206A65726B00567A206A65726B1A
:102E8000005679206A65726B005679206A65726B0C
:102E9000005678206A65726B005678206A65726BFE
:102EA00000436F6E6669672E206176616E63C3A909
:102EB000650025753A2530327500253032753A2582
:102EC0003032750025756420253032753A25303250
:102ED0007500202020202020200020202020001FFE
:102EE000E020102010201010201020201020103082
:102EF000300840048003001FE03FF03FF03FF01F28
:102F0000E01FE03FF03FF03FF00FC0078003003FBD
:102F1000FFF038007030FC3020FC1020781020309A
:102F2000102C00D02E31D02F7BD02F7BD02E31D043
:102F30002C00D020301020781020FC1030FC3038CD
:102F400000703FFFF03FFFF038007031863023877C
:102F5000102787902F87D02F03D020301020781093
:102F60002078102030102F03D02F87D02787902370
:102F700087103186303800703FFFF01FFFF81FFFC9
:102F8000F8041040020820020820041040082080A5
:102F90001041001041000820800410400000001F74
:102FA000FFF81FFFF844C3A9706C61636572205875
:102FB0000044C3A9706C6163657220590044C3A9C1
:102FC000706C61636572205A00457874727564652F
:102FD0007572004578747275646575720044C3A992
:102FE000706C61636572205A0044C3A9706C6163A0
:102FF000657220590044C3A9706C616365722058E2
:10300000004D6F7576656D656E7400417272C3AA6E
:10301000746572206D6F7465757273004D3834007D
:1030200048617574657572206C697373C3A9650016
:1030300048617574657572206C697373C3A9650006
:10304000417272C3AA74004D61726368650052C315
:10305000A9676C6572204E69762E206C6974004EEB
:103060006976656175206475206C69740047323833
:103070000A473239004F726967696E65206175745D
:103080006F004732380044C3A9706C6163657220D9
:10309000756E20617865004D656E75207072696E81
:1030A000636970616C0043616E6E6F7420656E744D
:1030B0006572207375626469723A2000022E2E00D8
:1030C0000141637475616C69736572004D656E755D
:1030D000207072696E636970616C0043617274651F
:1030E00020696E73C3A972C3A9650033442050726E
:1030F000696E746572207072C3AA74652E00496D82
:103100007072657373696F6E00496D70722E206501
:103110006E20706175736500496D70722E20616E4E
:103120006E756CC3A965000000000000000000007F
:103130000000000000484200004842000080405764
:1031400061726E696E673A20486F6D696E672042E2
:10315000756D702044697669736F72203C20310A66
:10316000000202040000A0400000A0400000004057
:103170000000754300006B4300007A43FFFFFF002F
:10318000002100240027002A00000022002500283A
:10319000002B00000020002300260029000202026C
:1031A00002020202020404040404040404030303EC
:1031B00003030303030101010101010101010204F1
:1031C0000810204080010204081020408001020401
:1031D00008102040808040201008040201000000F8
:1031E000010200090A0000000004030807000000B3
:1031F0000000000000000000000000000044C3A91F
:10320000706C6163657220302E316D6D0044C3A90E
:10321000706C6163657220316D6D0044C3A9706C80
:10322000616365722031306D6D0044C3A9706C61BB
:1032300063657220756E2061786500427573652044
:1032400074726F702066726F69646500457874727D
:1032500075646575720044C3A9706C616365722002
:103260005A0044C3A9706C6163657220590044C35D
:10327000A9706C6163657220580071F057F01124D9
:103280001FBECFEFD0E4DEBFCDBF12E0A0E0B1E0C3
:10329000E4E5FAEF01E00BBF02C007900D92A437FE
:1032A000B107D9F723E1A4E7B2E001C01D92A23B28
:1032B000B207E1F719E1CEE3D9E104C02197FE019D
:1032C0000E947BFACD33D107C9F70E9450E90C94D4
:1032D0001DFD0C9400002F923F924F925F926F92CF
:1032E0007F928F929F92AF92BF92CF92DF92EF9296
:1032F000FF920F931F93CF93DF93CDB7DEB7E59780
:103300000FB6F894DEBF0FBECDBF8DAB20917D020E
:103310002AA721E020937D0280912E0C8D3409F4A0
:1033200067C3843511F40C94192B873411F00C9475
:10333000342B80912C0C90912D0C8D31910509F43A
:1033400005C18CF48430910509F4B2C01CF40297D5
:1033500090F14AC38531910511F40C94362B4C97AA
:1033600009F4E4C041C38A35910509F4C1C144F4AC
:103370008E31910509F4FEC08A9709F473C234C3F3
:103380008B35910509F4B8C18C35910509F02CC332
:103390004FE6242E41E0342E54E5E52E53E1F52E80
:1033A000A6E3B6E0B9A3A8A366EFC62E65E0D62EC5
:1033B00000E010E0E1C180911F01882311F40C941A
:1033C000362BEFE68E2EE1E09E2EF0E6EF2EF3E1B7
:1033D000FF2E06E316E0A6EFAA2EA5E0BA2EBEE762
:1033E000CB2EB2E0DB2E712CD4018D914D010E94C9
:1033F000B18B882319F10E94358BF60120812111B0
:1034000004C020918202222341F0D8012D913D91E8
:103410004D915C910E9485FA0AC0B3E07B1639F0A9
:10342000F50120813181428153810E9484FAD701C4
:103430006D937D938D939C9313970AC0F8018081BF
:103440009181A281B381F70180839183A283B383A9
:103450007394F4E0EF0EF11C0C5F1F4F24E0A20EFA
:10346000B11C3FEFC31AD30A44E07412BDCF40E051
:1034700050E0BA0186E40E944D4F20E030E0A901FF
:103480000E9408FC181684F40E94358B20E030E07E
:1034900040E752E40E9408FB6093330170933401CB
:1034A00080933501909336010E9480B40C94362BA2
:1034B00080E50E94B18B882329F00E94ED8A6B0180
:1034C0007C0103C0C12CD12C760183E50E94B18B15
:1034D000882361F00E94358B20E030E04AE754E415
:1034E0000E9443F60E9481FB6B017C010E9473E005
:1034F00080910A06811105C060E08DE791E00E948D
:1035000013DC0E94D5E8C60ED71EE81EF91E0E94E5
:10351000D5E8DC01CB018C199D09AE09BF09B7FDC7
:1035200002C00C94362B0E949236F1CF8091060691
:103530008770873011F00C94572B60E08FE40E9465
:10354000028C81110C94362B0C94572B0E94E07541
:1035500081110C94362B80914606882311F40C942B
:103560002E2C60E08FE40E94028C81110C94362B8B
:103570000C942E2C20E030E044E352E460913606B7
:103580007091370680913806909139060E9484FA2E
:10359000AB01BC0188E50E944D4F6C8F7D8F8E8FF3
:1035A0009F8F20E030E040EE50E460913A06709149
:1035B0003B0680913C0690913D060E9484FAAB0147
:1035C000BC0189E50E944D4F9B01AC0169837A8360
:1035D0008B839C836C8D7D8D8E8D9F8D0E9493A699
:1035E000882311F40C94362B80E00E94F7300E945F
:1035F000D4B761E085E40E94028C182F21E0482FA7
:10360000BE016F5F7F4FCE014C960E943B766B01EF
:103610007C019B01AC010E9486FC81115FC08C8CF7
:103620009D8CAE8CBF8C20E030E0A901C501B401B7
:103630000E94DDF587FF05C027E137EB41E558EB38
:1036400004C027E137EB41E558E3C501B4010E940E
:1036500085FAAB01BC0187EB91E00E94BC3A8980FE
:103660009A80AB80BC8020E030E0A901C501B401A4
:103670000E94DDF587FF05C027E137EB41E558EBF8
:1036800004C027E137EB41E558E3C501B4010E94CE
:1036900085FAAB01BC0182EB91E00E94BC3A20E0CC
:1036A00030E0A901C701B6010E94DDF587FF05C022
:1036B00027E137EB41E558EB04C027E137EB41E563
:1036C00058E3C701B6010E9485FAAB01BC018DEA3F
:1036D00091E00E94BC3A8AE00E9496350E94BBB7F6
:1036E000113011F40E944D5D0E9462B90C94362B8A
:1036F000109282020C94362B209382020C94362B6B
:103700000E94358B2B013C01133049F0D6012D91DD
:103710003D914D915C910E9484FA2B013C01E8A1FE
:10372000F9A12081318142815381C301B2010E94FC
:1037300084FA4B015C012DEB37E346E855EB0E9420
:1037400008FC87FD21C02DEB37E346E855E3C501B2
:10375000B4010E94DDF51816BCF01F5FF4E0EF0E17
:10376000F11C28A139A12C5F3F4F39A328A334E0D5
:10377000C30ED11C143031F1F10181911F010E945F
:10378000B18B882351F3BCCF133051F440924206E1
:1037900050924306609244067092450601E0DDCFE8
:1037A000A5019401D7016D917D918D919C910E940D
:1037B00085FAF7016083718382839383812F0E944E
:1037C0003FE4CBCF002309F449C020916B0B30912B
:1037D0006C0B40916D0B50916E0B60914206709195
:1037E000430680914406909145060E9443F60E944C
:1037F0000DFC60935210709353108093541090936B
:1038000055109091301080913110981719F00E9446
:1038100015E024C00E9473E080916F00982F927091
:1038200081FF05C080916F008D7F80936F00409174
:103830005210509153106091541070915510409354
:10384000DF025093E0026093E1027093E202992359
:1038500029F080916F00826080936F000E9462B9AE
:103860000C94362B80911F01882311F40C94362B75
:1038700089E40E94B18B082F882321F00E94318BAC
:10388000E82E01C0E12C8AE40E94B18B182F882316
:1038900021F00E94318BF82E01C0F12C002319F089
:1038A00044E04E1528F0112349F054E05F1530F440
:1038B0008FEB91E00E949D350C94362B80E1E6E37E
:1038C000F6E0A0E6B3E101900D928A95E1F70023BE
:1038D000F1F020913805309139054E2D4203B001A9
:1038E000439F700D11248091340590913505680F28
:1038F000791F072E000C880B990B0E94E4F560934A
:103900006013709361138093621390936313112378
:10391000F1F020913A0530913B055F2D5203B00143
:10392000539F700D11248091360590913705680FD3
:10393000791F072E000C880B990B0E94E4F5609309
:10394000641370936513809366139093671360E01C
:1039500080E50E94028C882381F10023B1F020E0F1
:1039600030E044E352E46091601370916113809100
:103970006213909163130E9485FA609360137093B1
:10398000611380936213909363131123B1F020E0CD
:1039900030E040EE50E460916413709165138091C3
:1039A0006613909167130E9485FA60936413709375
:1039B0006513809366139093671340E050E0BA015B
:1039C00086E40E944D4F6B017C0120E030E0A901AC
:1039D0000E9408FC18160CF067CD20E030E040E7AC
:1039E00052E4C701B60156CD0E94DF8A0C94362BF3
:1039F00080912C0C90912D0C8337910509F43DC7D3
:103A00000CF0B2C08B34910509F499C40CF052C08B
:103A10008931910509F48DC21CF58431910509F4B1
:103A200031C27CF48131910509F421C22CF4029752
:103A300008F4A2C10C94162B429709F402C60C9408
:103A4000162B8631910509F447C20CF441C2873127
:103A5000910509F44AC2489709F45FC20C94162BE9
:103A60008E31910509F4E9C2ACF48B31910509F46A
:103A700087C20CF477C28C31910509F4D4C24D97FA
:103A800011F00C94162B8091CF118E7F8093CF1163
:103A90000C94362B8032910509F42EC30CF472C3BA
:103AA0008A32910509F419C48934910509F438C49E
:103AB0000C94162B8936910509F441C544F58335DC
:103AC000910509F4BAC59CF48D34910509F450C4EC
:103AD0000CF439C48135910509F49AC582359105F4
:103AE00011F00C94162B109281020C94362B853514
:103AF000910509F4DAC50CF4A4C58C35910509F4D7
:103B0000EDC58836910509F437C40C94162B8E3612
:103B1000910509F455C49CF48B36910509F46BC5E5
:103B20000CF448C58C36910509F4A2C48D36910574
:103B300011F00C94162B0E94FCA00C94362B8037AD
:103B4000910509F49BC40CF44EC48137910509F426
:103B500099C48237910511F00C94162B0E9473E0E2
:103B60000E9462B90C94362B8831A1E09A0711F4B7
:103B70000C94A9270CF071C0883C910509F48DC7FD
:103B8000BCF58937910509F426C7ECF48637910511
:103B900009F4ECC634F48537910509F4D7C60C94C2
:103BA000162B8737910509F413C78837910511F053
:103BB0000C94162B81E080933403809333030E948E
:103BC000CDBA0C94362B8139910509F40BC734F426
:103BD0008C38910509F480C40C94162B8B3991050F
:103BE00009F4C0C48E3B910509F494C40C94162BBF
:103BF0008E3C910511F40C942326B4F48B3C910572
:103C000009F4BBC734F4893C910509F493C70C94BB
:103C1000162B8C3C910509F4CFC78D3C910511F40E
:103C20000C9410260C94162B8C3D910511F40C94D9
:103C3000FB263CF4833D910511F40C9445260C942D
:103C4000162B8D3D910511F40C940827823E9105A9
:103C500011F40C945E270C94162B843AE1E09E0735
:103C600011F40C949A290CF043C0803321E09207A0
:103C700011F40C94D528ECF48D3241E0940711F442
:103C80000C9455283CF48C32914011F40C9440284B
:103C90000C94162B8E32B1E09B0711F40C9448293A
:103CA0008F32914011F00C94162B0E94644F0C94AB
:103CB000362B8139F1E09F0711F40C948C294CF4D8
:103CC0008039914011F00C94162B0E9473E00C94F3
:103CD000362B823941E0940711F40C9492298A39E9
:103CE000914011F00C94162B0E9445330C94362B06
:103CF000863FA1E09A0711F40C94AF2AECF48C3AB9
:103D0000E1E09E0711F40C94062A3CF4853A9140B8
:103D100011F40C949D290C94162B843F31E09307E9
:103D200011F40C94AC2A853F914011F00C94162BA1
:103D30000E9410BC0C94362B833553E0950711F488
:103D40000C94CB2A6CF4883FB1E09B0711F40C94DF
:103D5000B22A8C30924011F40C94C32A0C94162B86
:103D6000803AF3E09F0709F4FDC1873E934011F4C8
:103D70000C94082B0C94162BA0902A0CB0902B0CB2
:103D800080E50E94B18B882359F00E94ED8A6B0177
:103D90007C0111E0672B682B692B31F410E004C023
:103DA00010E0C12CD12C760183E50E94B18B8823D1
:103DB00011F40C94312C0E94358B20E030E04AE75E
:103DC00054E40E9443F60E9481FB6B017C011111B7
:103DD0000BC0672B682B692B39F4A114B10421F0B7
:103DE000D5018C91811102C010E001C011E00E9448
:103DF00073E0112329F061E0C5010E945FDC05C07A
:103E000060E08EED91E00E9413DC10917D0283E072
:103E100080937D0281E080934213C114D104E104B8
:103E2000F104B1F00E94D5E8C60ED71EE81EF91EB7
:103E30000E94D5E8DC01CB018C199D09AE09BF09B0
:103E4000B7FF0DC08091421381110C94362C07C02E
:103E500080914213882319F00E949236F9CF0E9474
:103E600085DC1092421310937D020C94362B60E097
:103E70008EEE91E00E9413DC5E985E9815985E9835
:103E80000C94362B8EE092E00E949D351092090C26
:103E90008AEE9FE00E949B3E8BE1EAEEFFE0DE01AE
:103EA000119601900D928A95E1F740E050E0BE0135
:103EB0006F5F7F4F80E090E00E948598CE01019671
:103EC0000E94B5418FEF91E00E949D350C94362BF6
:103ED0000E946C970C94362B0E94FD968091CF1116
:103EE000877F8093CF110C94362BE0912A0CF091B0
:103EF0002B0C8081882329F0803209F410823196BE
:103F0000F8CF40E061E080912A0C90912B0C0E9448
:103F1000239A109218130C94362B0E94F4A2882333
:103F200021F00E940C970E949F6A0E9485DC0C94ED
:103F3000362B8091CF1182FF03C08B7F8093CF11EE
:103F40008091CE04813089F782E08093CE040E9474
:103F5000D5E86093CA047093CB048093CC0490930B
:103F6000CD04E3CF8091CF1183FD02C00C94362B9A
:103F700083E50E94B18B81110C943A2C0C94362B62
:103F800083E40E94688B882319F189E292E00E9401
:103F90009D358091940F882391F0BE016F5F7F4F14
:103FA00081E99FE00E9445418E010F5F1F4FF8019C
:103FB00081918F01882339F00E949635F8CF8FE1E7
:103FC00092E00E949D358AE00E9496350C94362B33
:103FD0008091CF1182FF21C088E392E00E949D353D
:103FE0006091CB117091CC118091CD119091CE1137
:103FF0004AE00E9426398FE20E9496356091C711EF
:104000007091C8118091C9119091CA114AE00E9423
:1040100026390E94CD3A0C94362B8AE492E00E9415
:104020009D350C94362B40E060E080912A0C9091F5
:104030002B0C0E94239A0C94362B8091CF1183FD78
:1040400002C00C94362B0E94C88A8091CF1183FD48
:1040500002C00C94362B60912A0C70912B0CCE016F
:104060004C960E94EFC38C01009711F40C94362BF0
:104070006C8D7D8D19821C8222E0AC01CE010196EF
:104080000E94AA43811102C0F12C14C0CE010196F6
:104090000E945DC38823C1F361E0CE0101960E94B6
:1040A0002941009789F325EEDC012C931C820E94A4
:1040B000BE3BF82ECE0101960E94B541B801FF200B
:1040C00089F086E792E00E94AC358AE00E9496353E
:1040D0001092CB111092CC111092CD111092CE11E2
:1040E0000C94362B8EE592E00E94AC358BE592E085
:1040F0000E949D350C94362B8091CF1182FD0E9439
:1041000073E08091CF1183FD02C00C94362B60E0E8
:1041100080E50E94028C182F482F61E080912A0CC4
:1041200090912B0C0E94239A83E50E94B18B8823E7
:1041300081F00E94FD8AAB01BC014093CB115093EA
:10414000CC116093CD117093CE1181E99FE00E9454
:10415000043E0E940C9711110C94362B0E949F6A0A
:104160000C94362B20912A0C30912B0C9091CF116E
:1041700092609093CF1140E060E0C9010E94239AC1
:104180000C94362B0E94506A7B018C0120E831E5AB
:1041900041E050E00E94E4F9C9016DE671E00E943F
:1041A00053FA4B015C01C801B70120E13EE040E059
:1041B00050E00E94E4F9CA01B90128E130E040E092
:1041C00050E00E94E4F9762E672EC62ED72E3CE3EF
:1041D000232E312C412C512CC801B701A201910191
:1041E0000E94E4F9F62EE72ECA01B901A20191015D
:1041F0000E94E4F9CB018E010F5F1F4F81149104DF
:1042000099F0EF92FF927F936F936F927F92BF929C
:10421000AF929F928F928CEA92E09F938F931F931D
:104220000F930E9475F513C0A114B104B1F0EF9281
:10423000FF927F936F936F927F92BF92AF928CE9C0
:1042400092E09F938F931F930F930E9475F50FB683
:10425000F894DEBF0FBECDBF30C0CD2879F0EF920D
:10426000FF927F936F936F927F9280E992E09F938A
:104270008F931F930F930E9475F5E9CF892B69F0F7
:10428000EF92FF927F936F9388E892E09F938F93D2
:104290001F930F930E9475F5DACFEF92FF9284E897
:1042A00092E09F938F931F930F930E9475F50F9049
:1042B0000F900F900F900F900F9060E0C8010E9438
:1042C0005FDC0E94C335B80180EC92E00E94AC35FF
:1042D0008AE00E9496350C94362B83E50E94B18BC0
:1042E000882311F40C94362B0E940D8BF82E6FEF5F
:1042F0007FEF80E50E94E78B8C0197FF02C00C9452
:10430000362BE82E60E089E40E94028C81110C9427
:104310004B2C802F0E942BE98111EDC50C944B2C66
:1043200080E50E94688B882311F40C94362B8091D1
:10433000CF1182FF02C00C94362B0C945E2C0E948D
:104340009F6A0C94362B8091CE04813011F00C942E
:10435000362B82E08093CE040E94D5E86093CA0495
:104360007093CB048093CC049093CD040C94362BA3
:104370000E94C36A0C94362B80914A0B83FF02C0C3
:104380000C94362B0E94BE8B87FF02C00C94362BF8
:1043900083E50E94B18B882379F00E94358B0E94BF
:1043A0007AFB8B01CB010E94456F0635110524F481
:1043B0000E94C36A0E9485DC0E94F55E0C94362B35
:1043C0008EE40E94B18B882311F40C94362B0E944A
:1043D000FD8A6093B10C7093B20C8093B30C9093F0
:1043E000B40C0C94362B83E50E94688B882331F043
:1043F00060E083E50E94F68B80934A0B0E94C335F0
:104400008BED92E00E949D3580914A0B882369F1E3
:1044100021EDE22E22E0F22E00E010E020E080917B
:104420004A0B90E0A0E0B0E0002E04C0B695A7953E
:10443000979587950A94D2F780FF0EC0DD24D39418
:10444000D20E222319F08CE20E949635F701859155
:1044500094910E949D352D2D0F5F1F4F92E0E90E24
:10446000F11C05301105D9F6AECD8DEC92E0A9CD49
:104470001092421310922A010C94362B80E090E0A7
:104480000E94E33583E50E94B18B882381F00E946E
:104490000D8B282F30E02D33310524F4809300015B
:1044A0000C94362B8CE3809300010C94362B0E94E5
:1044B000C335C0900001D12CE12CF12C82EE92E0AA
:1044C0000E949D354AE0C701B6010E9426398AE064
:1044D0000E9496350C94362B80914A0B83FF02C0C4
:1044E0000C94362B83E50E94B18B882311F40C9435
:1044F000362B0E94358B0E947AFB6337710514F0CE
:1045000063E770E070938F1360938E130E94D86AF4
:104510000C94362B80914A0B83FF02C00C94362BEF
:1045200083E50E94B18B8BA781110C94692C82E5E5
:104530000E94B18B81110C94692C0C94362B0E9433
:10454000BE8B182F87FF02C00C943B2B82E193E0B7
:104550000E949D35812F0E94096D8AE00E94963548
:104560000C943B2B83E50E94B18B882311F40C94AF
:10457000362B0E940D8B182F90E0CD970CF01CE38A
:10458000109378020E94D5E86B017C01212F30E066
:10459000A8EEB3E00E9438FAC60ED71EE81EF91E38
:1045A000C0927402D0927502E0927602F092770285
:1045B0000C94362B60E080E50E94F68B81110C9400
:1045C000362B81E40E94688B882321F060916F066E
:1045D00070E002C06FEF70E083E50E947EA88F3F1D
:1045E000910519F010F08FEF90E080936F068093A3
:1045F00085130C94362B60E080E50E94F68B8111C8
:104600000C94362B10926F06109285130C94362B57
:104610000E947F6F0E94C36A0E9485E10E948233DC
:1046200068EE73E080E090E00E94213360E085E175
:1046300093E00E9413DC0C94362B209381020C949F
:10464000362B83E50E94B18B8823A1F00E94358B25
:1046500020E030E04AE754E40E9443F60E9481FBE8
:104660006093010170930201809303019093040110
:104670000C94362B88E50E94688B81110C94F12DE7
:1046800089E50E94688B81110C94F12D8AE50E94C6
:10469000688B81110C94F12D85E40E94688B811147
:1046A0000C94F12D0E9485E1E1C783E50E94688B9F
:1046B000882309F4DBC70E94358B20E030E04AE70D
:1046C00054E40E9443F60E9481FB60937902709348
:1046D0007A0280937B0290937C02C8C70E94BE8BB3
:1046E00087FDC4C78091260C84FD04C08091280CEE
:1046F00087FF0AC01FE6C12E11E0D12E0BE4E02E89
:104700000BE0F02E10E03AC08091290C837091F7F5
:104710000E94C33540915F0B5091600B6091610B1B
:104720007091620B8EE293E00E94BC3A4091630B61
:104730005091640B6091650B7091660B8BE293E076
:104740000E94BC3A4091670B5091680B6091690BD5
:1047500070916A0B88E293E00E94BC3A40916B0B27
:1047600050916C0B60916D0B70916E0B85E293E034
:104770000E94BC3A8AE00E94963578C7D6018D9196
:104780006D010E94B18B882309F46DC0133009F0CC
:1047900063C00E94358B4B015C0120E030E040EAB1
:1047A00051E40E94DDF587FF4EC0A50194016091A0
:1047B0006B0B70916C0B80916D0B90916E0B0E9446
:1047C00008FB2B013C019B01AC01609153067091E9
:1047D000540680915506909156060E9443F66093C8
:1047E0005306709354068093550690935606A30182
:1047F000920160917B0B70917C0B80917D0B90916D
:104800007E0B0E9443F660937B0B70937C0B80932E
:104810007D0B90937E0B609163067091640680918E
:104820006506909166060E94E2F5A30192010E943E
:1048300043F60E9481FB6093630670936406809345
:1048400065069093660680926B0B90926C0BA0921B
:104850006D0BB0926E0B07C00E94358BF701648B15
:10486000758B868B978B1F5FF4E0EF0EF11C143075
:1048700009F084CF0E946C5FF9C689E594E00E943C
:104880009D3560E089E494E00E9491A860E084E3B3
:1048900094E00E9491A861E08DE294E00E9491A8CA
:1048A00061E082E294E00E9491A861E082E194E0FC
:1048B0000E9491A860E089E094E00E9491A861E0E4
:1048C0008FEF93E00E9491A861E085EF93E00E9452
:1048D00091A861E08DEE93E00E9491A861E08FEDD8
:1048E00093E00E9491A861E081ED93E00E9491A87D
:1048F00060E082EC93E00E9491A860E084EB93E09A
:104900000E9491A860E08EE993E00E9491A860E087
:104910008DE893E00E9491A860E08EE793E00E940A
:1049200091A860E089E693E00E9491A861E086E5A5
:1049300093E00E9491A860E089E493E00E9491A82E
:1049400060E085E393E00E9491A890C680912A0CD4
:1049500090912B0C009709F4E8CADC012C912223DA
:1049600009F4E3CA60E00E945FDC80C600912A0C73
:1049700010912B0C83E0F12C40E08150E1F0F80124
:104980009081292F2B7F2134C1F721812133A9F771
:10499000913421F0953421F441E002C0FF24F394D6
:1049A00098012E5F3F4F89012F5F3F4FD8019C91A7
:1049B0009032C9F3E2CF41110E94C335FF2021F0AC
:1049C00080E295E00E949D35C8010E94D33A4EC610
:1049D0000E947EBA4BC610923403109233030E9499
:1049E000CDBA44C660E070E083E50E94E78B8C019D
:1049F0001127023011053CF00E94BF3584E295E09A
:104A00000E949D3533C688E40E94B18B8823A9F0AB
:104A10000E94318B8A3A91053CF08530B1E09B07CA
:104A20002CF084E091E002C08AEA90E0F801EE0FF9
:104A3000FF1FE55DF24F9183808386E40E94B18B76
:104A4000882381F00E94318B97FD07C08F3F91052D
:104A500029F024F08FEF90E001C080E0F801EB5DD9
:104A6000F24F808382E40E94B18B882309F4FEC553
:104A70000E94318B8530910534F0843791052CF0FC
:104A800083E790E002C085E090E0F801EE0FFF1FA1
:104A9000E95DF24F91838083E9C50E94BE8B182F98
:104AA00087FDE4C584E40E94688B882309F43FC035
:104AB0000E94358B6B017C0101E020E030E0A90110
:104AC0000E94DDF5811101C000E000937C1320E01D
:104AD00030E0A901C701B6010E94DDF5882339F154
:104AE0000E94358B24E01202F0011124EF57FC4E96
:104AF000608371838283938320E030E0A901609119
:104B000081137091821380918313909184130E947A
:104B1000DDF581110CC080E090E0A0EEBFE3809352
:104B2000811390938213A0938313B09384130E94F4
:104B3000B0DF9CC50E94BE8B87FD98C5EFE6EE2EC8
:104B4000E1E0FE2E0BE41BE0D7018D917D010E9478
:104B5000688B882349F00E94358B0E9481FBF80105
:104B600060837183828393830C5F1F4FFBE00B355F
:104B70001F0751F70E94255F79C50E94BE8B87FDF4
:104B800075C57FE6E72E71E0F72E0BE41BE0D70139
:104B90008D917D010E94688B882339F00E94358BAE
:104BA000F80164A375A386A397A30C5F1F4FFBE0D6
:104BB0000B351F0761F75AC58091270C87FF02C08C
:104BC0000C94162E8091280C8E7011F00C94162ED9
:104BD00040917F0B5091800B6091810B7091820B03
:104BE0008CE495E00E94BC3A4091830B5091840B79
:104BF0006091850B7091860B89E495E00E94BC3A28
:104C00004091870B5091880B6091890B70918A0BB2
:104C100086E495E00E94BC3A8AE00E94963526C55B
:104C20008091260C827111F00C945C2E8091280CDE
:104C30008C7811F00C945C2E8091290C837011F00B
:104C40000C945C2E13C55FE6C52E51E0D52E67E3AC
:104C5000E62E63E0F62E10E0D6018D916D010E94E4
:104C6000688B882351F00E94358BF7016083718334
:104C700082839383812F0E943FE41F5FF4E0EF0E55
:104C8000F11C133049F70C942E1C0E94C33585EBA0
:104C900095E00E949D3583E50E94688B882321F072
:104CA0000E94218B8093560180915601882319F030
:104CB00082E995E002C08EE895E00E949D358DEA7C
:104CC00095E00E949D352091F6053091F7054091C1
:104CD000F8055091F90560913E0170913F01809176
:104CE0004001909141010E9485FAAB01BC018BEA21
:104CF00095E00E94BC3A2091FA053091FB05409165
:104D0000FC055091FD05609146017091470180912D
:104D10004801909149010E9485FAAB01BC0188EAE3
:104D200095E00E94BC3A2091FE053091FF0540912C
:104D300000065091010660914E0170914F018091E3
:104D40005001909151010E9485FAAB01BC0185EAA6
:104D500095E00E94BC3A8DE995E00E949D35209136
:104D6000F6053091F7054091F8055091F9056091ED
:104D700042017091430180914401909145010E944C
:104D800085FAAB01BC018BE995E00E94BC3A209109
:104D9000FA053091FB054091FC055091FD056091AD
:104DA0004A0170914B0180914C0190914D010E94FC
:104DB00085FAAB01BC0188E995E00E94BC3A2091DC
:104DC000FE053091FF05409100065091010660916B
:104DD00052017091530180915401909155010E94AC
:104DE00085FAAB01BC0185E995E00E94BC3A8AE0F6
:104DF0000E9496353BC483E50E94B18B882309F459
:104E000035C40E94318B90935801809357012EC472
:104E10000E94BE8BF82E87FD29C483E50E94B18BCA
:104E20000F2D0F2C000C110B882369F10E94318B80
:104E3000F801EE0FFF1FE359FE4F91838083000FAF
:104E4000111F000F111F9801285C3E4F7901BC0112
:104E5000990F880B990B0E94E4F52AE037ED43E2A5
:104E60005CE30E9443F6F801E358FC4E2081318157
:104E7000428153810E9443F6D7016D937D938D93B8
:104E80009C931397F3C30E94C33585E40E94963523
:104E900080E38F0D0E949635F801EE0FFF1FE35956
:104EA000FE4F6081718185EC95E00E94AF3985E20B
:104EB0000E9496358AE00E949635D8C380E50E940C
:104EC000688B882309F4D2C360E070E080E50E941B
:104ED000E78BF82E6FEF7FEF83E50E94E78B8C0165
:104EE0000196039708F0C2C3F7FCC0C38F2D0E9440
:104EF0002BE9882339F00E94BF358DEC95E00E94A4
:104F00009D35B4C30E9473E060E08F2D0E94EDE7F1
:104F10000F3FBFEF1B0731F00130110571F000E0CA
:104F200010E00DC08F2D0E9495E731E020E0892B25
:104F300009F030E0032F122F02C001E010E08F2DA6
:104F40000E9495E78017910709F490C30E9492365A
:104F5000F6CF80E50E94688B882309F487C30E94FE
:104F6000318B8C01892B09F07FC083E50E94688B0F
:104F7000882389F00E94318B8F3FEFEF9E0729F441
:104F80008AE290E10E94873371C3BC018AE290E11A
:104F90000E94A5336BC30E94C33560E070E085EFCB
:104FA00095E00E94AF3980912C1028E532E069012C
:104FB000C81AD10887FDD394CC0CDD1CCC0CDD1CA9
:104FC0000D2C000CEE08FF0880912B1028E830E033
:104FD0004901881A910887FD9394880C991C880CC4
:104FE000991C092C000CAA08BB0880912A108F3F3D
:104FF000C1F090E0FC01EE0FFF1F8E0F9F1FFC0120
:10500000EB5FFF4E2181328113E0220F331F1A958F
:10501000E1F704E0369527950A95E1F72E5F3F4FBB
:1050200002C020E030E02F5F3F4FC901330FAA0BD1
:10503000BB0B9C01AD01281939094A095B09A4EB96
:10504000B0E00E9425FAA7019601281939094A09FA
:105050005B090E9406FAB90182EF95E00E94AF3920
:105060008AE00E94963502C30E94BF35B8018BEEDC
:1050700095E00E94AF398CED95E00E949D35F6C217
:1050800064E071E083E50E947EA88C0168EE73E025
:1050900080E50E947EA88938F3E19F0710F088E838
:1050A00093E1B8010E94E6DBE1C260E085E40E9482
:1050B000F68B811173C080E50E94688B882351F0C4
:1050C0000E94358B60938C0670938D0680938E06BC
:1050D00090938F0689E40E94688B882381F00E9458
:1050E000358B2CEA35EC47E25EE30E9443F6609391
:1050F000900670939106809392069093930684E4B1
:105100000E94688B882381F00E94358B2CEA35EC55
:1051100047E25EE30E9408FB609394067093950655
:1051200080939606909397060E94C33540918C0613
:1051300050918D0660918E0670918F0687E196E002
:105140000E94BC3A2CEA35EC47E25EE3609190069F
:105150007091910680919206909193060E9408FBAF
:10516000AB01BC0183E196E00E94BC3A2CEA35EC2D
:1051700047E25EE3609194067091950680919606F1
:10518000909197060E9443F6AB01BC018FE096E038
:105190000E94BC3A8AE00E94963568C20E94BF35E0
:1051A0008DEF95E00E949D3561C280E50E94688B7D
:1051B000882351F00E94358B609391137093921362
:1051C000809393139093941389E40E94688B8823AF
:1051D00081F00E94358B2CEA35EC47E25EE30E94B9
:1051E00043F660939513709396138093971390935F
:1051F000981384E40E94688B882381F00E94358B89
:105200002CEA35EC47E25EE30E9408FB60939913B9
:1052100070939A1380939B1390939C130E94C335B1
:105220004091911350919213609193137091941344
:1052300083E296E00E94BC3A2CEA35EC47E25EE35A
:105240006091951370919613809197139091981394
:105250000E9408FBAB01BC018FE196E00E94BC3AC2
:105260002CEA35EC47E25EE36091991370919A1352
:1052700080919B1390919C130E9443F6AB01BC015B
:105280008BE196E00E94BC3A8AE00E949635EEC11E
:1052900083E50E94688B182F882371F00E94358B5C
:1052A0000E947AFB70933D0160933C0121E0672BE3
:1052B00009F020E02093800680E50E94688B882317
:1052C00059F020913C0130913D01232B11F00E94B7
:1052D000218B80938006CAC11111C8C10E94C335B9
:1052E00083E496E00E949D3580918006882319F022
:1052F0008BE296E002C087E296E00E949D356091C5
:105300003C0170913D0182E396E00E94AF398EE24C
:1053100096E00E949D35AAC181E00E94955D0E94A1
:1053200062B9A4C180E00E94955D0E944D5D0E941B
:1053300062B99CC10E94099399C16FEF7FEF89E424
:105340000E94E78B182F6FEF7FEF8AE40E94E78BB4
:10535000082F8AE50E94688BF82E811105C081E52F
:105360000E94688BD82E01C0D12C17FD06C007FD06
:1053700004C0F11009C0D11007C00E94BF3585E7F5
:1053800096E00E949D3572C1153010F4053038F05A
:105390000E94BF3586E596E00E949D3567C1E12EEB
:1053A000110FFF08002E000C110B0E94358BDD2021
:1053B00099F025E02E9DF0012F9DF00D1124E00FB6
:1053C000F11FEE0FFF1FEE0FFF1FE053FB4F208179
:1053D00031814281538103C020E030E0A901A5E082
:1053E000AE9DF001AF9DF00D11240E0F1F1F000F99
:1053F000111F000F111F00531B4F0E9485FAD80187
:105400006D937D938D939C93139730C10E94E075AB
:1054100081112CC107E211E3E6E3F6E0F9A3E8A36A
:105420009E012F5F3F4F59019CE7892E91E3992EF2
:105430001901F8016591759185919491A8A1B9A17F
:10544000CD90DD90ED90FD90B9A3A8A3A7019601A2
:105450000E9484FA2B013C01F101608371838283F5
:10546000938320E030E040EA51EC0E9408FC87FD85
:105470000AC020E030E040EA51E4C301B2010E94DA
:10548000DDF518162CF4F401849118160CF48BC475
:10549000D101CD90DD90ED90FD901D0120E030E038
:1054A00040EA51ECC701B6010E9408FC87FD0AC022
:1054B00020E030E040EA51E4C701B6010E94DDF58A
:1054C0001816A4F40E94BF3589EB96E00E949D3522
:1054D00061E08BEA96E00E9413DC0E94A8BE68E2BD
:1054E00070E088EC90E00E94E6DBC0C00C5F1F4FCC
:1054F000BFEF8B1A9B0AE3E3F1E3E017F10709F032
:1055000098CF87E3E82E83E0F82E10E0F501819133
:105510009191A191B1915F01F70181939193A19331
:10552000B1937F01812F0E943FE41F5F133071F719
:105530000E9462B960E085E996E00E9413DC63E9AD
:1055400072E084E690E00E94E6DB6AEB72E084E6BB
:1055500090E00E94E6DB8AC00E94216087C00E9422
:10556000DCBA84C081E08093240D0E949164109283
:10557000240D882309F47AC00E94C33587ED96E094
:105580000E949D3573C08091CF1182FF6FC08062F1
:105590008093CF116BC08AE50E94B18B882331F1D3
:1055A0000E94358B6B017C0120E030E040EA51EC39
:1055B0000E9408FC87FD13C020E030E040EA51E47F
:1055C000C701B6010E94DDF518164CF0C092020624
:1055D000D0920306E0920406F092050647C00E94AE
:1055E000BF3582EE96E00E949D3540C00E94C335D3
:1055F00040910206509103066091040670910506E1
:105600008FEF96E00E94BC3A8AE00E9496352EC049
:1056100081E080931F011092350660E083E50E94CF
:10562000028C811123C00E9412A320C00E94DF8A35
:105630001DC000912C0C10912D0C0023B9F00E947C
:10564000C33584E50E949635B8017727072E000CF4
:10565000880B990B0E94933980E20E94963580E175
:1056600097E00E949D3502C00E94DF8AFDA9F111DA
:1056700002C00E9402A32AA520937D02E5960FB6E0
:10568000F894DEBF0FBECDBFDF91CF911F910F9178
:10569000FF90EF90DF90CF90BF90AF909F908F9052
:1056A0007F906F905F904F903F902F9008950E9451
:1056B00073E080E00E94F7300E94D4B781E08093CD
:1056C00034030E94CDBA88E50E94688B182F89E5C3
:1056D0000E94688B082F8AE50E94688B1013BCC05B
:1056E000181711F0012FB8C001E011E0FF24F39466
:1056F00080E1E6E3F6E0A0E6B3E101900D928A9541
:10570000E1F782E50E94B18B882361F00E94358B1E
:105710004B015C0120E030E0A9010E94DDF5882307
:1057200061F106C0812C912C70E2A72E71E4B72E96
:10573000111102C0002359F18092681390926913ED
:10574000A0926A13B0926B13A501940160913E067A
:1057500070913F0680914006909141060E94DDF5D0
:1057600087FF0BC019821A821B821C82BE016F5FE9
:105770007F4F88E693E10E94B4B8112319F080E0CE
:105780000E945FE4002319F081E00E945FE4FF20A3
:1057900009F454C080E00E94F08C8091F50583707C
:1057A000833061F060E08AE991E00E9413DC0E949E
:1057B000C33586E891E00E949D353EC00E9460B9E5
:1057C000E0903E06F0903F060091400610914106A1
:1057D000E0926813F092691300936A1310936B13AD
:1057E00080E090E0A2E2B3E48093601390936113B1
:1057F000A0936213B093631380E090E0A8EFB2E44B
:105800008093641390936513A0936613B09367130A
:1058100019821A821B821C82CE0101966C0120E043
:1058200030E048EF52E460E070E082E293E40E94EE
:10583000F3B782E00E945FE40E944D5D0E9460B970
:1058400080913303809334030E94BBB783E080933D
:1058500037010E9462B90ACFF82E4ACF0E94A28D6A
:1058600005CF11110C94F41E0C94ED1E0E9492367B
:105870000C94181F0E94FD8AAB01BC014093CB1110
:105880005093CC116093CD117093CE1181E99FE0BC
:105890000E94043EEBCE61E0802F0E94EDE76F2D69
:1058A000802F0E94BEE76F2D70E0802F0E9429E8B4
:1058B00034E0E312DBCEF0926F06D8CE0E940D8B5F
:1058C00090E08536910514F084E690E080931813FB
:1058D000CDCE0E94358B0E947AFB633771050CF0A8
:1058E0007DC170938F1360938E130E94D86A0E94BB
:1058F000358B20E030E040EA50E40E9408FC1816A6
:1059000014F40E949F6A60918E1370918F13072E7A
:10591000000C880B990B0E94E4F520918A133091BA
:105920008B1340918C1350918D130E9408FC181614
:105930001CF480E093E002C08DEE92E060E00E94F3
:1059400013DC81E080932A011AA21BA21CA21DA2D3
:105950001CA61DA61EA61FA618A219AAACE3AAABD8
:10596000BCE1BBABE6E4ECABC12CD12C80E8E82E6B
:105970009FEBF92EF1E0F8AB812C912C5401609152
:105980008E1370918F13072E000C880B990B0E94B9
:10599000E4F5162F072F782E692E9601A7010E9495
:1059A000DDF5882321F120918A1330918B134091EA
:1059B0008C1350918D138BA5612F702F811109C00D
:1059C000872D962D0E94DDF5881F8827881F88A3C4
:1059D00014C0872D962D0E94DDF587FF0DC08091A4
:1059E0002A01882309F442CE0E9485DC3FCE1C2D7B
:1059F0000D2D7E2C6F2C01C018A20E94D5E86B01E2
:105A00007C01DC01CB012CA53DA54EA55FA5821B29
:105A1000930BA40BB50BB7FD33C0D701C60188515A
:105A20009C4FAF4FBF4F8CA79DA7AEA7BFA780E0ED
:105A30000E94096D89EE92E00E949D3581149104C7
:105A4000A104B104B9F0D501C401805F984DAF4FF6
:105A5000BF4FBC01CD016C197D098E099F0928EE4D
:105A600033E040E050E00E94E4F9CA01B9010E942D
:105A7000933903C08FE30E9496358AE00E949635E1
:105A80000E9492360E94D5E86093B50C7093B60CD4
:105A90008093B70C9093B80C90918A139EA3A09119
:105AA0008B13AFA3B0918C13B8A7E0918D13E9A726
:105AB000292F3A2F4B2F5E2F612F702F872D962D78
:105AC0000E9484FA1B012C0120E030E0A9010E9411
:105AD00008FC87FF04C057FA509457F8509481147B
