:100000000C9462180C948C180C948C180C948C180A
:100010000C948C180C948C180C948C180C948C18D0
:100020000C948C180C948C180C948C180C948C18C0
:100030000C948C180C9430CD0C948C180C948C1857
:100040000C948C180C94DB790C94EFE20C948C18C3
:100050000C94AC380C94A2380C948C180C948C181A
:100060000C948C180C948C180C948C180C948C1880
:100070000C948C180C948C180C948C180C948C1870
:100080000C948C180C948C180C948C18C9DAA2DA85
:10009000A5DACCDAA8DAABDAAEDABADAB1DAC7DAEC
:1000A000B4DAB7DA04E1C3DFFADF40E1FADFFADFFE
:1000B000FADFFADFFADFFADFFADFFADFFADFFADF78
:1000C000FADFFADFFADFFADFFADFFADFFADFFADF68
:1000D000FADFFADFFADFFADFFADFFADFFADFFADF58
:1000E0003AE1FADFFADFFADFFADFFADFFADFFADF06
:1000F000FADF13E1FADFFADFFADFFADFFADFFADF1D
:10010000FADFFADFFADFFADF57E1F7DFE0E1E3E1F8
:10011000D6E1DAE1FAE1FAE1E7E1EBE1F1E1F5E17B
:100120005EE263E268E272E2A0E2A0E27CE284E2E4
:100130008CE296E24E414E494E495459494E46CDC5
:10014000CCCC3D0AD7233C17B7D13877CC2B32958E
:1001500095E6241FB14F0A000020410000C842006C
:10016000401C4620BCBE4CCA1B0E5AAEC59D7443F3
:100170004F4D4D554E49434154494F4E00445259FD
:1001800052554E004552524F525300494E464F0071
:100190004543484F00496E76616C69642065787408
:1001A00072756465720A003F4B2076616C7565203C
:1001B0006F7574206F662072616E67652028302D20
:1001C0003130292E0A00416476616E6365204B3D13
:1001D00000454550524F4D204F4B0A004F66667305
:1001E000657473204170706C696564004572723A81
:1001F00020546F6F206661722100546F6F2066611A
:10020000722066726F6D207265666572656E6365D9
:1002100020706F696E740A00FFFFFF00000000008D
:100220000000000000000064697300656E0043294F
:100230000A0061626C656420286D696E2074656DCA
:10024000702000436F6C6420657874727564657308
:1002500020617265200020643A0020693A00207015
:100260003A00496E76616C696420657874727564D1
:1002700065720A0020643A0020693A0020703A0052
:1002800020466C6F773A20004F4646004F4E0020C4
:100290005A00205900580020204D61783A20002053
:1002A0005A00205900580020204D696E3A20005312
:1002B0006F667420656E6473746F70733A200020EB
:1002C0005400205200416363656C65726174696F0C
:1002D0006E3A2050004D31343520533C696E6465D0
:1002E000783E206F7574206F662072616E6765209E
:1002F00028302D31290A002F2F20004348414D423C
:1003000045525F54454D5045524154555245004D5C
:100310004F54494F4E5F4D4F44455300544845524A
:100320004D414C5F50524F54454354494F4E00414C
:1003300055544F5245504F52545F53445F535441AC
:100340005455530050524F4D50545F535550504FD9
:10035000525400454D455247454E43595F50415216
:1003600053455200434153455F4C494748545F420F
:1003700052494748544E45535300544F47474C4504
:100380005F4C494748545300534F465457415245D8
:100390005F504F574552004255494C445F504552BB
:1003A00043454E54004C4556454C494E475F4441E9
:1003B0005441005A5F50524F4245004155544F4CF2
:1003C0004556454C005052494E545F4A4F420050EA
:1003D000524F4752455353004155544F5245504F89
:1003E00052545F54454D5000564F4C554D45545254
:1003F000494300454550524F4D0042494E415259E4
:100400005F46494C455F5452414E53464552005356
:10041000455249414C5F584F4E5F584F4646004643
:1004200049524D574152455F4E414D453A4D6172DB
:100430006C696E204372656177736F6D65436F728F
:100440006520322E302E302D52433020534F5552DE
:1004500043455F434F44455F55524C3A687474704E
:10046000733A2F2F6769746875622E636F6D2F74EE
:10047000726F7563682F4D61726C696E2050524FB8
:10048000544F434F4C5F56455253494F4E3A312ECD
:1004900030204D414348494E455F545950453A3309
:1004A00044205072696E7465722045585452554408
:1004B00045525F434F554E543A3120555549443AC1
:1004C00063656465326132662D343161322D3437B3
:1004D00034382D396231322D633535633632663327
:1004E000363766660A00204500205A002059002051
:1004F0004D39322058003344205072696E74657251
:10050000204F46462E006F6B0020573A004265642C
:1005100020436F6F6C696E672E2E2E00426564203B
:1005200048656174696E672E2E2E004D313133207F
:1005300053006F66660090018B0184017D016F019D
:1005400044454255473A004520436F6F6C696E67DA
:100550002E2E2E00452048656174696E672E2E2E62
:100560000050726F7465637465642050696E0A0090
:100570002569730025696D20256973002569682048
:1005800025696D2025697300256964202569682027
:1005900025696D2025697300256979202569642006
:1005A0002569682025696D20256973005072696E80
:1005B000742074696D653A20002E0A0044656C65EC
:1005C00074696F6E206661696C65642C2046696C85
:1005D000653A200046696C652064656C65746564E5
:1005E0003A00286E6F2066696C6529004375727247
:1005F000656E742066696C653A2000534420707201
:10060000696E74696E67206279746520004E6F743C
:10061000205344207072696E74696E670A00456EDB
:10062000642066696C65206C6973740A00426567B2
:10063000696E2066696C65206C6973740A004E6F80
:10064000204D6F76652E00436C69636B20746F20BC
:10065000526573756D652E2E2E00536C6565702E78
:100660002E2E0020636F6C64206578747275736938
:100670006F6E2070726576656E7465640A004572EF
:10068000726F722077726974696E6720746F20458B
:100690004550524F4D210A000F150E1216170E131A
:1006A00003021A1401000E0C190DFF180C040001AE
:1006B000627573793A2070617573656420666F7234
:1006C00020696E7075740A00627573793A207061E2
:1006D0007573656420666F7220757365720A0062B7
:1006E0007573793A2070726F63657373696E670A08
:1006F000004B494C4C20636175736564206279201E
:10070000746F6F206D75636820696E6163746976BC
:10071000652074696D65202D2063757272656E7435
:1007200020636F6D6D616E643A2000506C6561737B
:1007300065205265736574005052494E54455220ED
:1007400048414C544544004B494C4C45442E2000F4
:100750005072696E7465722068616C7465642E20D5
:100760006B696C6C28292063616C6C6564210A00DC
:100770006563686F3A004572726F723A00486F7431
:10078000656E6420746F6F20636F6C640A004D3671
:1007900030303A20546F6F20436F6C6400486F74A0
:1007A000656E6420746F6F20636F6C640A00496E1D
:1007B000736572742066696C616D656E7420616E1C
:1007C0006420707265737320627574746F6E0A00B2
:1007D000507265737320627574746F6E20746F202D
:1007E00068656174206E6F7A7A6C650A0024F4D4AF
:1007F0003050C38E20C2A24017828B7011127A91A2
:100800000D816CD90AA861E108C758660761514398
:10081000061E4B5D05C145A7041A411104093D9808
:1008200003713931034036DB0265339102D4305411
:1008300002802E1D02632CEE01752AC501B028A08E
:1008400001102781018F2564012B244B01E0223404
:1008500001AC211F018D200D01801FFC00841EEDC5
:1008600000971DDF00B81CD200E61BC600201BBC91
:1008700000641AB200B219A8000A19A0006A1899F7
:1008800000D117910040178B00B516840031167EF9
:1008900000B31579003A157300C7146F0058146A35
:1008A00000EE1366008813630025135E00C7125B19
:1008B000006C12570015125400C111510070114FF5
:1008C0000021114B00D61049008D104700461044FE
:1008D0000002104200C00F4000800F3E00420F3C5B
:1008E00000060F3B00CB0E3800930E37005C0E3530
:1008F00000270E3400F30D3200C10D3100900D3091
:1009000000600D2E00320D2D00050D2C00D90C2B92
:1009100000AE0C2900850C29005C0C2700350C2743
:10092000000E0C2600E80B2400C40B2400A00B23AF
:10093000007D0B23005A0B2100390B2100180B20DE
:1009400000F80A1F00D90A1E00BB0A1E009D0A1DDE
:1009500000800A1D00630A1C00470A1B002C0A1BAA
:1009600000110A1A00F7091A00DD091900C4091953
:1009700000AB091900920917007B091800630917D9
:10098000004C09160036091600200916000A091540
:1009900000F5081500E0081400CC081400B808148D
:1009A00000A4081400900813007D0812006B0813BF
:1009B00000580812004608120034081100230811DC
:1009C000001208110001081100F0071000E00710E4
:1009D00000D0071000C0071000B0070F00A10710DB
:1009E0000091070E0083070F0074070F0065070EC4
:1009F0000057070E0049070E003B070D002E070E9B
:100A00000020070D0013070D0006070D00F9060C66
:100A100000ED060D00E0060C00D4060C00C8060C24
:100A200000BC060C00B0060C00A4060B0099060CD6
:100A3000008D060B0082060B0077060B006C060B80
:100A40000061060A0057060B004C060A0042060A1F
:100A50000038060A002E060A0024060A001A060AB2
:100A6000001006090007060A00FD050900F4050943
:100A700000EB050900E2050900D9050900D00509C8
:100A800000C7050900BE050900B5050800AD050849
:100A900000A50509009C050800940508008C0508C0
:100AA00000840508007C050800740508006C050733
:100AB00000650508005D050700560508004E05079E
:100AC0000047050700400508003805070031050705
:100AD000002A050700230507001C05060016050768
:100AE000000F0507000805060002050700FB0406C5
:100AF00000F5040700EE040600E8040600E204071F
:100B000000DB040600D5040600CF040600C9040675
:100B100000C3040600BD040600B7040600B10405C6
:100B200000AC040600A6040600A00405009B040611
:100B30000095040500900406008A0405008504055C
:100B400000800406007A04050075040500700405A1
:100B5000006B04050066040500610405005C0405E3
:100B60000057040500520405004D04050048040523
:100B700000430405003E0404003A04050035040562
:100B800000300404002C040500270404002304059D
:100B9000001E0404001A04040016040500110404D5
:100BA000000D04040009040500040404000004040A
:100BB00000FC030400F8030400F4030400F0030441
:100BC00000EC030400E8030400E4030400E0030471
:100BD00000DC030400D8030400D4030400D00304A1
:100BE00000CC030400C8030300C503030024F4047D
:100BF000D9201BC40C5C0E9804C4095F0265077100
:100C000001F405F900FB04B30048048700C103693F
:100C1000005803550003034500BE023A0084023128
:100C20000053022A002902250004022000E4011CCE
:100C300000C8011900AF01170098011400840113C6
:100C400000710110006101100051010E0043010DFF
:100C50000036010B002B010B0020010B00150109D0
:100C6000000C01090003010800FB000800F3000864
:100C700000EB000700E4000600DE000600D80006D6
:100C800000D2000600CC000500C7000500C2000528
:100C900000BD000400B9000400B5000400B1000468
:100CA00000AD000400A9000400A5000300A2000399
:100CB000009F0004009B00030098000300950002C1
:100CC0000093000300900003008D0002008B0003DE
:100CD00000880002008600020084000300810002F8
:100CE000007F0002007D0002007B0002007900020C
:100CF000007700010076000200740002007200011B
:100D000000710002006F0002006D0001006C000223
:100D1000006A00010069000200670001006600012E
:100D20000065000100640002006200010061000132
:100D300000600001005F0002005D0001005C000136
:100D4000005B0001005A0001005900010058000139
:100D50000057000100560001005500010054000139
:100D60000053000000530001005200010051000137
:100D700000500001004F0001004E0000004E000135
:100D8000004D0001004C0001004B0000004B000131
:100D9000004A00010049000100480000004800012D
:100DA0000047000100460000004600010045000029
:100DB0000045000100440001004300000043000121
:100DC000004200000042000100410000004100011B
:100DD00000400001003F0000003F0001003E000015
:100DE000003E0001003D0000003D0001003C00000D
:100DF000003C0000003C0001003B0000003B000103
:100E0000003A0000003A00010039000000390001FA
:100E100000380000003800000038000100370000F2
:100E200000370001003600000036000000360001E7
:100E300000350000003500000035000100340000DE
:100E400000340000003400010033000000330000D3
:100E500000330001003200000032000000320001C7
:100E600000310000003100000031000100300000BE
:100E70000030000000300001002F0000002F0000B3
:100E8000002F0000002F0001002E0000002E0000A7
:100E9000002E0001002D0000002D0000002D00009C
:100EA000002D0001002C0000002C0000002C000090
:100EB000002C0001002B0000002B0000002B000084
:100EC000002B0001002A0000002A0000002A000078
:100ED000002A00010029000000290000002900006C
:100EE000002900000029000100280000002800005F
:100EF0000028000000280000002800010027000052
:100F00000027000000270000002700000027000144
:100F10000026000000260000002600000026000039
:100F2000002600010025000000250000002500002B
:100F3000002500000025000000250001002400001D
:100F40000024000000240000002400000024000110
:100F50000023000000230000002300000023000005
:100F600000230000002300000023000100220000F5
:100F700000220000002200000022000000220000E9
:100F800000220001002100000021000000210000DB
:100F900000210000002100000021000000210001CC
:100FA00000200000002000000020000000200000C1
:100FB00000200000002000000020000000200001B0
:100FC000001F0000001F0000001F0000001F0000A5
:100FD000001F0000001F0000001F0001001E000095
:100FE000001E0000001E0000001E000000232C0058
:100FF00000B8220000561800003A0F0000B80800A0
:1010000000B1040000710200003E0100002364658D
:1010100066696E652044454641554C545F00006248
:101020006564004B6420004B6920004B7020005029
:101030004944204175746F74756E652066696E69E8
:1010400073686564212050757420746865206C6134
:101050007374204B702C204B6920616E64204B64AC
:1010600020636F6E7374616E74732066726F6D208F
:1010700062656C6F7720696E746F20436F6E66696E
:101080006775726174696F6E2E680A00504944205A
:101090004175746F74756E65206661696C65642155
:1010A0002074696D656F75740A0045312054484598
:1010B000524D414C2052554E4157415900424544F2
:1010C00020544845524D414C2052554E41574159AC
:1010D00000546865726D616C2052756E617761793C
:1010E0000045312048656174696E67204661696C0E
:1010F0006564004265642048656174696E672046D6
:1011000061696C65640048656174696E6720666139
:10111000696C656400504944204175746F74756E44
:1011200065206661696C6564212054656D70657227
:10113000617475726520746F6F20686967680A0052
:10114000204B643A2000204B693A2000204B703A33
:1011500020000A20436C6173736963205049442066
:101160000A00204B643A2000204B693A2000204BB3
:10117000703A20000A204E6F206F76657273686F98
:101180006F740A002054753A2000204B753A2000F5
:10119000206D61783A2000206D696E3A200020644D
:1011A0003A200020626961733A200050494420418E
:1011B00075746F74756E652073746172740A005073
:1011C0004944204175746F74756E65206661696C61
:1011D0006564212054656D70657261747572652057
:1011E000746F6F20686967680A0050494420417530
:1011F000746F74756E65206661696C656421204248
:101200006164206578747275646572206E756D62B4
:1012100065720A004572723A207574663820666FEE
:101220006E74206E6F7420696E697469616C697A7E
:1012300065642E004572723A207574663820666FB8
:101240006E74206E6F7420696E697469616C697A5E
:1012500065642E004572723A207574663820666F98
:101260006E74206E6F7420696E697469616C697A3E
:1012700065642E0000060C00FE07022603BC017FF9
:10128000FE08FE08FE05080806000040F0C8888831
:10129000987810050808060000C0F88888888888B3
:1012A000F80505050600012030F83020050808067D
:1012B00000002070F820202020E00509090600FF2A
:1012C0002070A8A8B888887020050606060001E0EE
:1012D0008CEA8C8A0A0509090600FFF8A888888824
:1012E0008888A8F8050A0A0600FE20505050508849
:1012F000A8A8887003030306000340A040FFFFFF77
:10130000FFFFFFFFFFFFFFFFFFFFFFFFFFFFFFFFED
:10131000FFFFFF0000000605FF010707060200802F
:10132000808080800080030303060105A0A0A00543
:10133000060606000050F85050F85005090906004E
:10134000FF2070A8A07028A87020050707060000DD
:10135000C8C8102040989805070706000040A0A0C4
:1013600040A89068010303060205808080030909F4
:101370000601FF204040808080404020030909068C
:1013800001FF8040402020204040800507070600E4
:101390000020A8702070A820050505060001202067
:1013A000F820200203030601FFC04080050101066A
:1013B0000003F8020202060100C0C005070706008C
:1013C00000081010204040800507070600007088C4
:1013D00098A8C8887003070706010040C040404035
:1013E00040E0050707060000708808102040F80557
:1013F0000707060000F80810300888700507070680
:10140000000010305090F81010050707060000F893
:1014100080F008088870050707060000304080F05B
:10142000888870050707060000F8081010202020A3
:101430000507070600007088887088887005070710
:101440000600007088887808106002050506010013
:10145000C0C000C0C00206060601FFC0C000C040F8
:101460008003050506010120408040200503030696
:101470000002F800F80305050601018040204080C5
:1014800005070706000070881020200020050707C8
:101490000600007088B8A8B880700507070600002D
:1014A000708888F8888888050707060000F0484893
:1014B000704848F005070706000070888080808823
:1014C00070050707060000F04848484848F005073F
:1014D00007060000F88080F08080F8050707060006
:1014E00000F88080F0808080050707060000708883
:1014F0008080988870050707060000888888F8882B
:101500008888030707060100E04040404040E005AE
:101510000707060000381010101090600507070636
:1015200000008890A0C0A0908805070706000080F2
:101530008080808080F805070706000088D8A8888A
:101540008888880507070600008888C8A8988888C2
:1015500005070706000070888888888870050707D7
:10156000060000F08888F0808080050707060000EC
:1015700070888888A89068050707060000F08888AA
:10158000F0A0908805070706000070888070088822
:1015900070050707060000F82020202020200507FE
:1015A0000706000088888888888870050707060075
:1015B0000088888888505020050707060000888822
:1015C0008888A8A850050707060000888850205082
:1015D00088880507070600008888502020202005FD
:1015E0000707060000F80810204080F803090906E4
:1015F00001FFE080808080808080E0050707060092
:1016000000804040201010080309090601FFE02077
:10161000202020202020E00503030600052050881C
:101620000501010600FEF8030303060105804020C2
:10163000050505060000700878887805070706008C
:10164000008080F0888888F005050506000070801D
:101650008088700507070600000808788888887861
:101660000505050600007088F08070050707060074
:1016700000304840E04040400507070600FE708803
:1016800088887808700507070600008080F0888841
:1016900088880307070601004000C0404040E0047E
:1016A00009090601FE1000301010101090600507A7
:1016B0000706000080808890E090880307070601F5
:1016C00000C04040404040E0050505060000D0A8AD
:1016D000A8A8A8050505060000B0C88888880505E3
:1016E0000506000070888888700507070600FEF070
:1016F000888888F080800507070600FE788888883B
:10170000780808050505060000B0C880808005053A
:101710000506000078807008F00507070600002025
:1017200020F82020201805050506000088888898E4
:10173000680505050600008888885020050505060F
:1017400000008888A8A850050505060000885020DC
:1017500050880507070600FE8888885020408005CD
:101760000505060000F8102040F80309090601FFEE
:101770002040404080404040200109090602FF808F
:1017800080808080808080800309090601FF80407E
:101790004040204040408005030306000248A890D6
:1017A000FF00002200250028002B0000002000235D
:1017B00000260029000202020202020202040404BE
:1017C00004040404040303030303030303010101EA
:1017D00001010101010102040810204080010204FE
:1017E0000810204080010204081020408080402022
:1017F0001008040201000000010200090A000000B4
:1018000000040308070000000000000000000000C2
:1018100000000000004D6F766520302E316D6D00A8
:101820004D6F766520316D6D004D6F7665203130DE
:101830006D6D004D6F7665204178697300486F7457
:10184000656E6420746F6F20636F6C6400457874FC
:101850007275646572004D6F7665205A004D6F7623
:10186000652059004D6F76652058004368616E67AA
:10187000652046696C616D656E7400556E6C6F61B4
:10188000642046696C616D656E74004C6F61642004
:1018900046696C616D656E7400507265686561744F
:1018A00020437573746F6D005072656865617420B4
:1018B00050455447005072656865617420504C4132
:1018C000005072656865617420437573746F6D00B4
:1018D0004261636B00220A00556E6B6E6F776E205B
:1018E000636F6D6D616E643A20220020636F6C64DB
:1018F00020657874727573696F6E20707265766595
:101900006E7465640A004C6F6164206D6D004C6FED
:101910006164206D6D00556E6C6F6164206D6D00AB
:10192000556E6C6F6164206D6D0046696C2E2044AD
:1019300069612E0046696C2E204469612E004F6655
:1019400066004F6E004520696E206D6D5E3300416C
:101950006476616E6365204B00416476616E6365F9
:10196000204B00416476616E636564205365747436
:10197000696E6773004D333033205531204525693A
:101980002053256900504944204175746F74756E69
:101990006500504944204175746F74756E65002070
:1019A00008204661637400200820466163740020AB
:1019B00008204D6178002008204D61780020082023
:1019C0004D696E002008204D696E004F6666004F1D
:1019D0006E004175746F74656D7000416476616E60
:1019E0006365642053657474696E6773005654723E
:1019F0006176204D696E005654726176204D696E95
:101A000000566D696E00566D696E00566D617820E6
:101A10004500566D6178204500566D6178205A006A
:101A2000566D6178205A00566D6178205900566DC8
:101A30006178205900566D6178205800566D6178A4
:101A4000205800416476616E636564205365747448
:101A5000696E6773000000754300006B4300007AF5
:101A600043000000000000000000000000290A0000
:101A70002062797465733B20637263200053657440
:101A800074696E67732053746F7265642028004513
:101A90004550524F4D206461746173697A652065C9
:101AA00072726F722E0A00290A00206279746573BF
:101AB0003B2063726320002073746F72656420732F
:101AC000657474696E677320726574726965766592
:101AD00064202800202863616C63756C6174656400
:101AE00029210A0020213D2000454550524F4D201C
:101AF000435243206D69736D61746368202D202803
:101B000073746F7265642920002053697A653A20E6
:101B100000496E6465783A2000204D61726C696EF0
:101B20003D563638290A00454550524F4D207665BE
:101B30007273696F6E206D69736D617463682028BC
:101B4000454550524F4D3D00626564002C2073792D
:101B50007374656D2073746F7070656421204865BF
:101B6000617465725F49443A2000426564204865AB
:101B70006174696E67204661696C656400486561DF
:101B800074696E67206661696C6564004245442033
:101B9000544845524D414C2052554E4157415900F1
:101BA000546865726D616C2052756E617761790061
:101BB00045312048656174696E67204661696C65CE
:101BC000640048656174696E67206661696C65646C
:101BD00000453120544845524D414C2052554E410C
:101BE00057415900546865726D616C2052756E6181
:101BF00077617900202D20496E76616C69642065DB
:101C000078747275646572206E756D6265722021DC
:101C10000A0070012C0190012701B0012201C001CE
:101C20001D01F00118011002130130020E016002C3
:101C3000090190020401C002FF000003FA00400302
:101C4000F5008003F000D003EB002004E6007004F0
:101C5000E100E004DC004005D700C005D2004006EA
:101C6000CD00D006C8008007C3003008BE00F008D1
:101C7000B900C009B400B00AAF00B00BAA00D00C84
:101C8000A500000EA000500F9B00C010960050123F
:101C9000910000148C00C0158700B0178200B019A5
:101CA0007D00D01B7800001E730040206E00902243
:101CB0006900F024640040275F0090295A00E02B5F
:101CC0005500102E500020304B0010324600E033FB
:101CD000410090353C001037370070383200A03991
:101CE0002D00B03A2800A03B2300603C1E00103DB0
:101CF0001900903D1400103E0F00703E0A00C03ED7
:101D00000500003F0000403FFBFF803FF6FFC03F63
:101D1000F1FF453120544845524D414C2052554E1B
:101D2000415741590042454420544845524D414C89
:101D30002052554E4157415900546865726D616C8F
:101D40002052756E61776179004531204572723A93
:101D5000204D415854454D50004572723A204D4136
:101D60005854454D5020424544004D415854454D2E
:101D7000502074726967676572656400453120455B
:101D800072723A204D494E54454D50004572723A98
:101D9000204D494E54454D5020424544004D494E3A
:101DA00054454D5020747269676765726564004DD3
:101DB000383420582059205A204500202F00204236
:101DC000403A0020403A0020573A007C3C3E5E2BCF
:101DD0003D3F2F5B5D3B2C2A225C0043616E6E6FA2
:101DE00074206F70656E2073756264697220005391
:101DF000442063617264206F6B0A006F70656E52DD
:101E00006F6F74206661696C65640A00766F6C752B
:101E10006D652E696E6974206661696C65640A007F
:101E2000534420696E6974206661696C0A004D3202
:101E300034004D32332025730057726974696E6720
:101E400020746F2066696C653A20002E0A006F705E
:101E5000656E206661696C65642C2046696C653A24
:101E600020002E0A006F70656E206661696C6564E3
:101E70002C2046696C653A200046696C65207365C4
:101E80006C65637465640A002053697A653A2000C2
:101E900046696C65206F70656E65643A20006672F5
:101EA00065736800646F696E67002066696C653AE7
:101EB00020004E6F772000454E4420535542524F2C
:101EC0005554494E450A002220706F73002220703D
:101ED0006172656E743A2200535542524F5554490F
:101EE0004E452043414C4C207461726765743A2220
:101EF00000747279696E6720746F2063616C6C2066
:101F00007375622D67636F64652066696C65732005
:101F10007769746820746F6F206D616E79206C65CD
:101F200076656C732E204D4158206C6576656C206B
:101F300069733A310A00FFFFE7FFFC0003FFFC0F63
:101F4000FFC0FFFCFFFFE7FFFE0003FFFE1FFFE1F6
:101F5000FFFEFFFFE7FFFE0003FFFF3FFFF3FFFF72
:101F600000E007000E00000007380073800700E063
:101F700007000E3FF00007380073800700E007FFFE
:101F8000FE3FF3FFFF380073800700E007FFFC3FD0
:101F9000F3FFFF380073800700E007FFFE3FF3FF09
:101FA000FF380073800700E007000E0000000738CC
:101FB0000073800700E007000E0000000738007380
:101FC000800700E007000F0003FFFF3FFFF3FFFF64
:101FD00000E007000F0003FFFE1FFFE1FFFE00E02F
:101FE00007000F0003FFFC0FFFC0FFFC0000000014
:101FF00000000000000000000000000000000000E1
:102000000000000000000000FFFFFFFFFFFFFFFFD8
:10201000FFFFFFFFFFFFFFFFFFFFFFFFFFFFFFFFD0
:10202000FFFFFFFF2020506C616E6E657242756687
:1020300066657242797465733A2000204672656560
:10204000204D656D6F72793A2000436F6D70696C39
:1020500065643A2041756720313220323031390AC7
:1020600000207C20417574686F723A202874726F6A
:102070007563682C204372656177736F6D652043CB
:102080006F726520322E30290A00323031392D30FE
:10209000382D303800204C617374205570646174A1
:1020A00065643A2000322E302E302D5243300A0023
:1020B0004D61726C696E0020536F66747761726552
:1020C0002052657365740A00205761746368646FF9
:1020D000672052657365740A002042726F776E2024
:1020E0006F75742052657365740A002045787465B5
:1020F000726E616C2052657365740A00506F77656B
:102100007255700A0073746172740A006175746F9D
:1021100025632E67006572726F7220777269746929
:102120006E6720746F2066696C650A00446F6E6587
:1021300020736176696E672066696C652E0A004DB2
:10214000323900456E6473746F70732025632025E7
:102150006320256320256300205A3A0020593A0065
:1021600020583A00656E6473746F707320686974E8
:102170003A20004732385859004573746570732F00
:102180006D6D004573746570732F6D6D005A7374B7
:102190006570732F6D6D005A73746570732F6D6D5C
:1021A000005973746570732F6D6D00597374657089
:1021B000732F6D6D005873746570732F6D6D0058BB
:1021C00073746570732F6D6D00416476616E636525
:1021D000642053657474696E6773003F00496E69CB
:1021E0007469616C697A6520454550524F4D0043D2
:1021F000616E63656C00496E6974004D343238005D
:10220000496E697469616C697A6520454550524F21
:102210004D0046696C616D656E740054656D706546
:102220007261747572650053746570732F6D6D0003
:102230004A65726B00416363656C65726174696FB6
:102240006E0056656C6F636974790053657420483D
:102250006F6D65204F66667365747300436F6E66BD
:10226000696775726174696F6E0053746F7265206F
:1022700053657474696E67730042656400426564F7
:10228000004E6F7A7A6C65004E6F7A7A6C65004604
:10229000616E2053706565640046616E2053706501
:1022A000656400436F6E66696775726174696F6E0D
:1022B000004C6F61642053657474696E67730052DB
:1022C0006573746F7265206661696C736166650021
:1022D00053746F72652053657474696E6773005030
:1022E000726568656174205045544720436F6E667F
:1022F000005072656865617420504C4120436F6ED8
:102300006600416476616E63656420536574746928
:102310006E6773004D61696E004361726420496E9F
:10232000736572746564003344205072696E74651D
:10233000722052656164792E005072696E74696E04
:10234000672E2E2E005072696E7420506175736571
:1023500064005072696E742041626F72746564002B
:1023600025753A2530327500253032753A253032E0
:10237000750025756420253032753A253032750098
:10238000202020202020200020202020001FE020CE
:1023900010201020101020102020102010303008A5
:1023A00040048003001FE03FF03FF03FF01FE01FBC
:1023B000E03FF03FF03FF00FC0078003003FFFF029
:1023C00038007030FC3020FC102078102030102CA9
:1023D00000D02E31D02F7BD02F7BD02E31D02C00AF
:1023E000D020301020781020FC1030FC30380070E5
:1023F0003FFFF03FFFF03800703186302387102711
:1024000087902F87D02F03D020301020781020788D
:10241000102030102F03D02F87D0278790238710CC
:102420003186303800703FFFF01FFFF81FFFF804BF
:1024300010400208200208200410400820801041AB
:10244000001041000820800410400000001FFFF829
:102450001FFFF85072656865617420504C4120453B
:102460006E64005072656865617420504C41204272
:102470006564005072656865617420504C41005479
:10248000656D70657261747572650050726568651E
:102490006174205045544720456E64005072656851
:1024A0006561742050455447204265640050726550
:1024B0006865617420504554470054656D706572BD
:1024C000617475726500436F6F6C646F776E005056
:1024D00072656865617420504554470050726568A4
:1024E00065617420504C410046616E2053706565F3
:1024F000640046616E205370656564004265640047
:10250000426564004E6F7A7A6C65004E6F7A7A6C21
:1025100065004D61696E00466C6F7700466C6F77A1
:102520000046616E2053706565640046616E2053FD
:10253000706565640042656400426564004E6F7AB0
:102540007A6C65004E6F7A7A6C65005370656564CD
:10255000005370656564004D61696E00416D61787E
:10256000204500416D6178204500416D6178205A19
:1025700000416D6178205A00416D61782059004119
:102580006D6178205900416D6178205800416D617E
:1025900078205800412D54726176656C00412D54AD
:1025A000726176656C00412D5265747261637400CE
:1025B000412D5265747261637400416363656C0000
:1025C000416363656C00416476616E6365642053AA
:1025D000657474696E67730056652D4A65726B0089
:1025E00056652D4A65726B00567A2D4A65726B00EE
:1025F000567A2D4A65726B0056792D4A65726B00CA
:1026000056792D4A65726B0056782D4A65726B00BB
:1026100056782D4A65726B00416476616E6365641D
:102620002053657474696E6773004732380A473106
:1026300020585A5F534146455F484F4D494E475FCA
:10264000585F504F494E5420595A5F534146455F99
:10265000484F4D494E475F595F504F494E542046B1
:1026600033303030004732380A473120585A5F53F0
:102670004146455F484F4D494E475F585F504F496F
:102680004E5420595A5F534146455F484F4D494E7D
:10269000475F595F504F494E542046333030300A1F
:1026A0004D31343020533530004732380A4731201D
:1026B000585A5F534146455F484F4D494E475F5812
:1026C0005F504F494E5420595A5F534146455F4829
:1026D0004F4D494E475F595F504F494E5420463346
:1026E0003030300A4D3134302053383000473238E2
:1026F0000A473239004739310A47312045313030F5
:1027000020463330300A47393000486F6D652F4C12
:102710006576656C2042656400486F6D652F507268
:1027200065686561742028504554472900486F6DDD
:10273000652F507265686561742028504C412900EE
:1027400045787472756465203130306D6D00486F66
:102750006D65004D61696E004D373032205425643F
:10276000004D36303020423020542564004D373043
:1027700032203B2564004D3730312054256400550C
:102780006E6C6F61642046696C616D656E74005596
:102790006E6C6F61642046696C616D656E74004D8E
:1027A000373032004D373031004C6F61642046695C
:1027B0006C616D656E74004D3630302042300043E0
:1027C00068616E67652046696C616D656E74004D69
:1027D00061696E00436F6E74696E75650050757245
:1027E0006765206D6F726500524553554D45204F0A
:1027F0005054494F4E533A005052494E5420504184
:102800005553454400554E4C4F41442046494C4198
:102810004D454E54004C4F41442046494C414D4596
:102820004E540020204E6F7A7A6C653A20002000CA
:102830002E0A006F70656E206661696C65642C20DD
:1028400046696C653A200048617264636F64656430
:102850002044656661756C742053657474696E6795
:1028600073204C6F616465640A00F4010000F40198
:10287000000064000000881300000000FA4300001C
:10288000FA430000A040000048420000A0420000BF
:10289000A0420000C8430080CF436F70656E0054B3
:1028A0005249474745524544003A20007A5F6D69D6
:1028B0006E00795F6D696E00785F6D696E005265BC
:1028C000706F7274696E6720656E6473746F7020C8
:1028D0007374617475730A00205A3A0020593A00E3
:1028E00020436F756E7420583A0020453A00205AF4
:1028F0003A0020593A00583A00486F6D696E6720D7
:102900004661696C6564000000484200004842006E
:102910000080405761726E696E673A20486F6D693A
:102920006E672042756D702044697669736F7220FE
:102930003C20310A000202040000A0400000A04038
:10294000000000400000754300006B4300007A4324
:1029500000000001000000010000800055555500F6
:102960000000400033333300AAAA2A004992240011
:1029700000002000C7711C0099991900D14517006B
:10298000555515003BB113002449120011111100D7
:10299000000010000F0F0F00E3380E0043790D0008
:1029A000CCCC0C00C3300C00E8A20B0064210B005F
:1029B000AAAA0A00703D0A009DD80900427B0900BE
:1029C00092240900DCD3080088880800104208001F
:1029D00000000800F0C10700878707007550070056
:1029E000711C07003EEB0600A1BC060069900600C2
:1029F00066660600703E06006118060017F40500C2
:102A000074D105005BB00500B2900500627205004C
:102A10005555050078390500B81E05000505050067
:102A20004EEC040087D40400A1BD040090A704006C
:102A300049920400C17D0400EE690400C7560400F9
:102A4000444404005C3204000821040041100400E6
:102A5000000004003FF00300F8E0030026D203006A
:102A6000C3C30300CCB503003AA803000A9B0300CC
:102A7000388E0300C08103009F750300D0690300F6
:102A8000505E03001D53030034480300913D0300D2
:102A90003333030016290300381F03009715030082
:102AA000300C0300030303000BFA020049F102009B
:102AB000BAE802005CE002002DD802002DD002002E
:102AC00059C80200B0C0020031B90200DAB10200F8
:102AD000AAAA0200A0A30200BC9C0200FA95020070
:102AE0005C8F0200DF88020082820200457C0200C7
:102AF0002776020027700200436A02007C6402000D
:102B0000D05E02003F590200C853020020496E7691
:102B1000616C696420657874727564657220004325
:102B200061703A00220A00656E7175657565696E9F
:102B3000672022006F6B00526573656E643A200057
:102B400053544F505045442E20005072696E7465A6
:102B5000722073746F707065642064756520746F83
:102B6000206572726F72732E2046697820746865D2
:102B7000206572726F7220616E6420757365204DDE
:102B800039393920746F20726573746172742E2024
:102B90002854656D70657261747572652069732063
:102BA00072657365742E20536574206974206166A4
:102BB0007465722072657374617274696E67290A34
:102BC000004E6F20436865636B73756D2077697481
:102BD00068206C696E65206E756D6265722C204C84
:102BE000617374204C696E653A20004E6F20436813
:102BF00065636B73756D2077697468206C696E65A9
:102C0000206E756D6265722C204C617374204C6966
:102C10006E653A2000636865636B73756D206D693E
:102C2000736D617463682C204C617374204C696E01
:102C3000653A20004C696E65204E756D62657220A4
:102C40006973206E6F74204C617374204C696E65DB
:102C5000204E756D6265722B312C204C617374208F
:102C60004C696E653A20004D313130004D313137BD
:102C7000004D3331005344207265616420657272E7
:102C80006F720A00446F6E65207072696E74696EAF
:102C9000672066696C650A00FFFDFCFAF8F6F4F23D
:102CA000F0EEECEAE9E7E5E3E1E0DEDCDAD9D7D5FE
:102CB000D4D2D0CFCDCBCAC8C7C5C3C2C0BFBDBC9C
:102CC000BAB9B7B6B4B3B2B0AFADACAAA9A8A6A50D
:102CD000A4A2A1A09E9D9C9A999897959493929056
:102CE0008F8E8D8B8A8988878684838281807F7E80
:102CF0007D7B7A797877767574737271706F6E6D8B
:102D00006C6B6A696867666564636261605F5E5D7B
:102D10005C5B5A5958585756555453525150504F5E
:102D20004E4D4C4B4A4A4948474646454443424229
:102D300041403F3E3E3D3C3B3B3A393838373635E3
:102D400035343332323130302F2E2E2D2C2B2B2A8E
:102D5000292928272726252524232322212120202D
:102D60001F1E1E1D1C1C1B1B1A19191818171616BE
:102D7000151514131312121111100F0F0E0E0D0D45
:102D80000C0C0B0A0A0909080807070606050504C2
:102D900004030302020100004D6F76652058004DC8
:102DA0006F76652059004D6F7665205A004578741E
:102DB0007275646572004578747275646572004D51
:102DC0006F7665205A004D6F76652059004D6F76FD
:102DD000652058004F6666004F6E00536F66742082
:102DE000456E6473746F7073004D6F74696F6E001D
:102DF00044697361626C65205374657070657273A9
:102E0000004D3834004175746F20486F6D65004780
:102E10003238004D6F76652041786973004D6169E5
:102E20006E003F005374617274205072696E74209A
:102E30000043616E63656C005072696E740043619B
:102E40006E6E6F7420656E7465722073756264694E
:102E5000723A2000022E2E00015265667265736878
:102E6000004D61696E005061726B696E672E2E2E87
:102E700000746F2073746172740066696C616D65B3
:102E80006E74206368616E676500576169742066BF
:102E90006F720066696C616D656E7420756E6C6F23
:102EA0006164005761697420666F7200506C6561DF
:102EB000736520776169742E2E2E004E6F7A7A6CBE
:102EC000652068656174696E6700746F206865616C
:102ED00074206E6F7A7A6C6500507265737320622D
:102EE0007574746F6E00746F20636F6E74696E75A5
:102EF0006500616E6420707265737320627574740E
:102F00006F6E00496E736572742066696C616D65E1
:102F10006E740066696C616D656E74206C6F6164BF
:102F2000005761697420666F7200746F2072657358
:102F3000756D65207072696E7400507265737320D0
:102F4000427574746F6E00746F20726573756D6571
:102F50002E2E2E005761697420666F722070726980
:102F60006E740066696C616D656E74207075726751
:102F700065005761697420666F72003F0053746F7B
:102F800070205072696E74004261636B0053746FFD
:102F900070004D3235005072696E74205061757347
:102FA0006564005061757365205072696E74004DE0
:102FB000323400496E69742E205344204361726498
:102FC000004D3231005072696E742066726F6D2050
:102FD00053440052656C656173652053442043611E
:102FE0007264004D3232004368616E676520466945
:102FF0006C616D656E7400517569636B20436F6D14
:103000006D616E647300436F6E666967757261749B
:10301000696F6E0054656D706572617475726500DC
:103020004D6F74696F6E00526573756D65205072D7
:10303000696E7400436172642052656C65617365EA
:10304000640054756E650053746F70205072696E21
:1030500074005061757365205072696E7400496E1A
:10306000666F2053637265656E00000021002400C6
:1030700027002A00486F6D6520257325732573206E
:103080004669727374002046697273740A00486F4F
:103090006D652000496E736572742066696C616DA0
:1030A000656E7420616E6420707265737320627542
:1030B00074746F6E20286F72204D313038290A00E9
:1030C00058ECC3E611241FBECFEFD0E4DEBFCDBF66
:1030D00012E0A0E0B1E0ECE3F2EF01E00BBF02C0D0
:1030E00007900D92AC34B107D9F724E1ACE4B2E01B
:1030F00001C01D92AD38B207E1F718E1C1E6D8E191
:1031000004C02197FE010E946CF6C036D107C9F7B2
:103110000E94DDE60C9411F90C9400002F923F926E
:103120004F925F926F927F928F929F92AF92BF92D7
:10313000CF92DF92EF92FF920F931F93CF93DF9383
:10314000CDB7DEB7EC970FB6F894DEBF0FBECDBF9C
:10315000209167142AAB21E0209367148091E2024A
:103160008D3409F4D6C2843511F40C94D62A8734F0
:1031700011F00C94F12A8091E0029091E1028B31E0
:10318000910509F416C26CF48430910509F4D2C19A
:103190001CF4029750F1B9C2459711F40C94F32A2C
:1031A000B4C28A35910509F43CC224F44C9709F461
:1031B00029C2ABC28B35910509F437C28C35910514
:1031C00009F0A3C238E6232E31E0332E46EAE42E7E
:1031D00042E0F42E80EC92E099A788A754EBC52E2C
:1031E00052E0D52E00E010E05FC2809127018823D5
:1031F00011F40C94F32A78E6872E71E0972EE0ED17
:10320000EE2EE2E0FE2E00EC12E0F4EBAF2EF2E048
:10321000BF2EA9EECA2EA2E0DA2E712CD4018D9118
:103220004D010E943F2F882319F10E94C32EF60101
:103230002081211104C02091ED02222341F0D80108
:103240002D913D914D915C910E947EF60AC0B3E0B4
:103250007B1639F0F50120813181428153810E9432
:103260007DF6D7016D937D938D939C9313970AC040
:10327000F80180819181A281B381F70180839183DC
:10328000A283B3837394F4E0EF0EF11C0C5F1F4F25
:1032900024E0A20EB11C3FEFC31AD30A44E074121B
:1032A000BDCF40E050E0BA0186E40E94864720E0AE
:1032B00030E0A9010E9401F8181684F40E94C32E80
:1032C00020E030E040E752E40E9401F760932101E2
:1032D0007093220180932301909324018091200117
:1032E000882309F4B4C0C0900801D0900901E0908F
:1032F0000A01F0900B012091D0023091D10240914F
:10330000D2025091D302C701B6010E9401F81816EB
:1033100044F4C092D002D092D102E092D202F09254
:10332000D302C0900C01D0900D01E0900E01F090FE
:103330000F012091D0023091D1024091D2025091E0
:10334000D302C701B6010E94D6F187FF08C0C09220
:10335000D002D092D102E092D202F092D302C09079
:103360001001D0901101E0901201F0901301209112
:10337000D4023091D5024091D6025091D702C701B4
:10338000B6010E9401F8181644F4C092D402D092FB
:10339000D502E092D602F092D702C0901401D090EC
:1033A0001501E0901601F09017012091D4023091A0
:1033B000D5024091D6025091D702C701B6010E94B2
:1033C000D6F187FF08C0C092D402D092D502E09215
:1033D000D602F092D702C0901801D0901901E09067
:1033E0001A01F0901B012091D8023091D90240912E
:1033F000DA025091DB02C701B6010E9401F81816EB
:1034000044F4C092D802D092D902E092DA02F0924B
:10341000DB02C0901C01D0901D01E0901E01F090D5
:103420001F012091D8023091D9024091DA025091C7
:10343000DB02C701B6010E94D6F187FF08C0C09227
:10344000D802D092D902E092DA02F092DB028091A7
:10345000A80A83FD39C0C090DC02D090DD02E09064
:10346000DE02F090DF022091CC023091CD0240913B
:10347000CE025091CF02C701B6010E94D6F1882337
:1034800019F180912A0481111FC060912F0470915D
:10349000300480913104909132040E9473F720919E
:1034A000390130913A016217730774F4C092CC026B
:1034B000D092CD02E092CE02F092CF020E940E3165
:1034C00083E696E00E94E830609125017091260124
:1034D000072E000C880B990B0E94DDF12091210131
:1034E0003091220140912301509124010E943CF22D
:1034F0002AE037ED43E25CE30E943CF269837A8381
:103500008B839C838E010F5F1F4F2CED32E048EDC3
:1035100052E064ED72E080ED92E00E94B26480E1DE
:10352000E0EDF2E0A0ECB2E001900D928A95E1F7B7
:103530000C94F32A80E50E943F2F882329F00E94F3
:103540007F2E6B017C0103C0C12CD12C760183E559
:103550000E943F2F882361F00E94C32E20E030E0BC
:103560004AE754E40E943CF20E947AF76B017C0126
:103570000E9489CF8091DA03811105C060E08AE55D
:1035800096E00E947F9F0E94E3E2C60ED71EE81ECF
:10359000F91E0E94E3E2DC01CB018C199D09AE0902
:1035A000BF09B7FD02C00C94F32A80E00E94E53108
:1035B000F0CF0E94CCE481110C94F32A80E090E0DB
:1035C000A0E2B1E489839A83AB83BC8380E090E07E
:1035D000A1E6B3E48D839E83AF83B88780E090E05B
:1035E000A0EAB1E489879A87AB87BC8760E070E086
:1035F00080E50E944C2FBE016F5F7F4F0E944A9E64
:103600000C94F32A809164148770873011F00C9425
:10361000F92A8FE40E9439E381110C94F32A0C9467
:10362000F92A1092ED020C94F32A2093ED020C94E7
:10363000F32A0E94C32E2B013C01133049F0F601FE
:1036400020813181428153810E947DF62B013C0112
:10365000A8A5B9A52D913D914D915C91C301B201F1
:103660000E947DF64B015C012DEB37E346E855EBFC
:103670000E9401F887FD20C02DEB37E346E855E3B3
:10368000C501B4010E94D6F11816B4F01F5FB4E072
:10369000EB0EF11CE8A5F9A53496F9A7E8A7F4E02C
:1036A000CF0ED11C143039F1D1018D911D010E9432
:1036B0003F2F882359F3BDCF133051F44092CC02F1
:1036C0005092CD026092CE027092CF0201E0DECF26
:1036D000A5019401F70160817181828193810E942B
:1036E0007EF6D7016D937D938D939C931397812FD5
:1036F0000E946AC2CBCF002321F08CEC92E00E94A2
:103700009ACF0E9479C40C94F32A0E948E650C947F
:10371000F32A8091E0029091E1028337910509F448
:103720006BC70CF0AFC08B34910509F47BC40CF06F
:1037300052C08931910509F47DC21CF5843191058F
:1037400009F421C27CF48131910509F411C22CF4F1
:10375000029708F491C10C94D32A429709F429C620
:103760000C94D32A8631910509F437C20CF431C286
:103770008731910509F43AC2489709F44FC20C9475
:10378000D32A8E31910509F4CDC2ACF48B31910569
:1037900009F46BC20CF45BC28C31910509F4B8C218
:1037A0004D9711F00C94D32A8091D2118E7F809383
:1037B000D2110C94F32A8032910509F412C30CF44F
:1037C00055C38A32910509F4FCC38934910509F483
:1037D0001AC40C94D32A8936910509F469C544F5B5
:1037E0008335910509F4E1C59CF48D34910509F404
:1037F00021C40CF41BC48135910509F4C1C582357F
:10380000910511F00C94D32A1092EC020C94F32A37
:103810008535910509F402C60CF4CBC58C359105AC
:1038200009F417C68836910509F408C40C94D32A04
:103830008E36910509F483C484F48B36910509F41E
:1038400093C50CF471C58C36910509F4CFC48D363F
:10385000910509F417C40C94D32A8037910509F413
:10386000CBC40CF47FC48137910509F4C9C48237F5
:10387000910511F00C94D32A0E9489CF0E9479C43B
:103880000C94F32A8C3221E0920711F40C945D26FB
:103890000CF073C0883C910509F4BEC7BCF58937AC
:1038A000910509F457C7ECF48637910509F41DC753
:1038B00034F48537910509F408C70C94D32A873767
:1038C000910509F444C78837910511F00C94D32A67
:1038D00081E08093B2028093B3020E94A3C50C944E
:1038E000F32A8139910509F43CC734F48C389105E9
:1038F00009F4ABC40C94D32A8B39910509F4ECC4B8
:103900008E3B910509F4BFC40C94D32A8E3C9105DB
:1039100011F40C94E224C4F48B3C910511F40C9442
:103920007C2434F4893C910509F4C3C70C94D32A50
:103930008C3C910511F40C949B248D3C910511F461
:103940000C94CF240C94D32A8C3D910511F40C9443
:10395000AE253CF4833D910511F40C9404250C94A0
:10396000D32A8D3D910511F40C94BB25823E91051F
:1039700011F40C9411260C94D32A863F41E094074D
:1039800011F40C945628E4F58039A1E09A0711F45B
:103990000C94AB27B4F48E32E1E09E0711F40C9442
:1039A000642714F40C9472268F3221E0920711F4EC
:1039B0000C94A8278033914011F40C94F1260C94B8
:1039C000D32A8C3A41E0940711F40C94AE274CF4BE
:1039D0008A39914011F00C94D32A0E943B300C9408
:1039E000F32A843FB1E09B0711F40C945328853FE0
:1039F000914011F00C94D32A0E94F2C60C94F32A41
:103A00008D3BF2E09F0711F40C94C328DCF48C305A
:103A100032E0930711F40C946A283CF4883F9140FB
:103A200011F40C9459280C94D32A8835A2E09A07F3
:103A300011F40C9472288B35924011F40C94752873
:103A40000C94D32A8438E3E09E0711F40C948A2A5C
:103A50003CF48E3B924011F40C94CC290C94D32A64
:103A6000803A33E0930709F4F1C1873E934011F4A3
:103A70000C94C62A0C94D32AA090A402B090A5025C
:103A800080E50E943F2F882359F00E947F2E6B0112
:103A90007C0111E0672B682B692B31F410E004C026
:103AA00010E0C12CD12C760183E50E943F2F8823A2
:103AB00011F40C94AD2B0E94C32E20E030E04AE7B5
:103AC00054E40E943CF20E947AF76B017C011111D0
:103AD0000BC0672B682B692B39F4A114B10421F0BA
:103AE000D5018C91811102C010E001C011E00E944B
:103AF00089CF112329F061E0C5010E94CB9F05C049
:103B000060E087E496E00E947F9F1091671483E055
:103B10008093671481E080936614C114D104E1049A
:103B2000F104B1F00E94E3E2C60ED71EE81EF91EB2
:103B30000E94E3E2DC01CB018C199D09AE09BF09AB
:103B4000B7FF0EC08091661481110C94B22B08C08F
:103B500080916614882321F080E00E94E531F8CF3F
:103B60000E94F19F10926614109367140C94F32A2C
:103B700060E08EE396E00E947F9F5E985E981598C5
:103B80005E980C94F32A8DE296E00E94E830109241
:103B9000A30285E090E10E94B3848BE1E5E0F0E1CF
:103BA000DE01119601900D928A95E1F740E050E018
:103BB000BE016F5F7F4F80E090E00E946E8ECE016D
:103BC00001960E94E9858EE196E00E94E8300C940F
:103BD000F32A0E94558D0C94F32A0E94E48C809164
:103BE000D211877F8093D2110C94F32AE091A40222
:103BF000F091A5028081882329F0803209F4108297
:103C00003196F8CF40E061E08091A4029091A50246
:103C10000E940C901092A2020C94F32A0E942C4D48
:103C2000882321F00E94F58C0E9463990E94F19FE5
:103C30000C94F32A8091D21182FF03C08B7F809372
:103C4000D2110E9487990E94F19F0C94F32A8091CF
:103C5000D21183FD02C00C94F32A83E50E943F2F0A
:103C600081110C94B72B0C94F32A83E40E94F62E56
:103C7000882319F18CEE95E00E94E8308091AF0F17
:103C8000882391F0BE016F5F7F4F8CEA9FE00E9416
:103C90007A838E010F5F1F4FF80181918F01882376
:103CA00039F00E94E130F8CF82EE95E00E94E830D2
:103CB0008AE00E94E1300C94F32A8091D21182FFB5
:103CC00021C08BEF95E00E94E8306091CE11709199
:103CD000CF118091D0119091D1114AE00E944137CB
:103CE0008FE20E94E1306091CA117091CB118091F6
:103CF000CC119091CD114AE00E9441370E947B384F
:103D00000C94F32A8DE096E00E94E8300C94F32A9C
:103D100040E060E08091A4029091A5020E940C9086
:103D20000C94F32A8091D21183FD02C00C94F32AE3
:103D30000E9477658091D21183FD02C00C94F32A12
:103D40006091A4027091A502CE014C960E946ABCBB
:103D50008C01009711F40C94F32A6C8D7D8D1982DF
:103D60001C8222E0AC01CE0101960E94CC89811117
:103D700002C0F12C14C0CE0101960E94D8BB88234A
:103D8000C1F361E0CE0101960E945E83009789F342
:103D900025EEDC012C931C820E946D85F82ECE014D
:103DA00001960E94E985B801FF2089F084ED95E035
:103DB0000E94F7308AE00E94E1301092CE111092FA
:103DC000CF111092D0111092D1110C94F32A8CEBD8
:103DD00095E00E94F73089EB95E00E94E8300C9462
:103DE000F32A8091D21182FD0E9489CF8091D21155
:103DF00083FD02C00C94F32A80E50E9439E3182F5A
:103E0000482F61E08091A4029091A5020E940C903D
:103E100083E50E943F2F882381F00E948F2EAB0103
:103E2000BC014093CE115093CF116093D011709389
:103E3000D1118CEA9FE00E9474820E94F58C1111CE
:103E40000C94F32A0E9463990C94F32A2091A40203
:103E50003091A5029091D21192609093D21140E0DE
:103E600060E0C9010E940C900C94F32A0E941B7719
:103E70007B018C0120E831E541E050E00E94DDF556
:103E8000C9016DE671E00E9425F64B015C01C80195
:103E9000B70120E13EE040E050E00E94DDF5CA01BC
:103EA000B90128E130E040E050E00E94DDF5762ED7
:103EB000672EC62ED72E2CE3222E312C412C512CCE
:103EC000C801B701A20191010E94DDF5F62EE72E8F
:103ED000CA01B901A20191010E94DDF5CB018E0159
:103EE0000F5F1F4F8114910499F0EF92FF927F931F
:103EF0006F936F927F92BF92AF929F928F9288E959
:103F000095E09F938F931F930F930E946EF113C0C0
:103F1000A114B104B1F0EF92FF927F936F936F926F
:103F20007F92BF92AF9288E895E09F938F931F9303
:103F30000F930E946EF10FB6F894DEBF0FBECDBF97
:103F400030C0CD2879F0EF92FF927F936F936F92FC
:103F50007F928CE795E09F938F931F930F930E941E
:103F60006EF1E9CF892B69F0EF92FF927F936F9307
:103F700084E795E09F938F931F930F930E946EF1B8
:103F8000DACFEF92FF9280E795E09F938F931F9394
:103F90000F930E946EF10F900F900F900F900F9063
:103FA0000F9060E0C8010E94CB9F0E940E31B801C3
:103FB0008CEA95E00E94F7308AE00E94E1300C9490
:103FC000F32A83E50E943F2F882311F40C94F32AEF
:103FD0000E949F2EF82E6FEF7FEF80E50E945F2FEB
:103FE0008C0197FF02C00C94F32AE82E89E40E940A
:103FF00039E381110C94C82B802F0E946AE581114E
:104000002DC60C94C82B80E50E94F62E882311F44F
:104010000C94F32A8091D21182FF02C00C94F32AEF
:104020000C94DB2B0E9463990C94F32A0E948799CD
:104030000C94F32A0E949C990C94F32A8091A80A6C
:1040400083FF02C00C94F32A0E9443CC87FF02C076
:104050000C94F32A83E50E943F2F882379F00E9475
:10406000C32E0E9473F78B01CB010E94C78A0635CD
:10407000110524F40E949C990E94F19F0E944BED2F
:104080000C94F32A8091A80A83FF02C00C94F32AAF
:104090000E9443CCF82E87FF02C00C94F32A83E5DC
:1040A0000E943F2F082F811106C082E50E943F2FFA
:1040B000182F8823C1F10E94C32E0E9473F7CB01F1
:1040C0000E94C78A0E94C32E20E030E04AEA52E4F0
:1040D0000E94D6F1181614F40C94E62B0E949C99B9
:1040E0000E94F19F6091330470913404072E000CFC
:1040F000880B990B0E94DDF14B015C0140902F046D
:10410000509030046090310470903204A301920109
:104110000E9401F8181614F40C94F92B002311F4E2
:104120000C94EA2B11E00E944BED112311F40C9436
:10413000F32A602F8F2D0E945C780C94F32A8EE472
:104140000E943F2F882311F40C94F32A0E948F2E93
:1041500060939E0270939F028093A0029093A102AD
:104160000C94F32A83E50E94F62E882329F083E538
:104170000E9427E58093A80A0E940E3180E495E012
:104180000E94E8308091A80A882369F196E3E92E1D
:1041900095E0F92E00E010E020E08091A80A90E080
:1041A000A0E0B0E0002E04C0B695A795979587953E
:1041B0000A94D2F780FF0EC0DD24D394D20E2223BE
:1041C00019F08CE20E94E130F701859194910E94F0
:1041D000E8302D2D0F5F1F4F92E0E90EF11C0530E6
:1041E0001105D9F665CD82E395E060CD1092661495
:1041F000109207010C94F32A80E090E00E9436317F
:1042000083E50E943F2F882381F00E949F2E282F54
:1042100030E02D33310524F4809306010C94F32A09
:104220008CE3809306010C94F32A0E940E31409196
:10423000060150E060E070E08BE295E00E94AE374E
:104240008AE00E94E1300C94F32A8091A80A83FF4F
:1042500002C00C94F32A83E50E943F2F882311F4B7
:104260000C94F32A0E94C32E0E9473F763377105E2
:1042700014F063E770E07093900260938F020E94E5
:104280006A770C94F32A8091A80A83FF02C00C94E9
:10429000F32A83E50E943F2F8BAB81110C94FC2BFA
:1042A00082E50E943F2F81110C94FC2B0C94F32A81
:1042B0000E9443CC182F87FD0AC086E095E00E943B
:1042C000E830812F0E94EA778AE00E94E1302AA933
:1042D000209367140C94662E83E50E943F2F882359
:1042E00011F40C94F32A0E949F2E182F90E0CD9782
:1042F0000CF01CE3109382020E94E3E26B017C014C
:10430000212F30E0A8EEB3E00E940AF6C60ED71EB9
:10431000E81EF91EC0927E02D0927F02E0928002D7
:10432000F09281020C94F32A80E50E9427E5811126
:104330000C94F32A81E40E94F62E882321F06091E8
:10434000190470E002C06FEF70E083E50E944C2F0B
:104350008F3F910519F010F08FEF90E080931904D2
:1043600080937D020C94F32A80E50E9427E5811159
:104370000C94F32A1092190410927D020C94F32AE3
:104380000E94137A0E949C990E94AAD10E949F3099
:1043900068EE73E080E090E00E94173060E086EF06
:1043A00094E00E947F9F0C94F32A2093EC020C94DB
:1043B000F32A83E50E943F2F8823A1F00E94C32E99
:1043C00020E030E04AE754E40E943CF20E947AF791
:1043D000609302017093030180930401909305019F
:1043E0000C94F32A88E50E94F62E81110C94852DF9
:1043F00089E50E94F62E81110C94852D8AE50E9494
:10440000F62E81110C94852D85E40E94F62E8111E3
:104410000C94852D0E94AAD10C94F32A83E50E9466
:10442000F62E882311F40C94F32A0E94C32E20E068
:1044300030E04AE754E40E943CF20E947AF760932D
:1044400078027093790280937A0290937B020C94A5
:10445000F32A0E9443CC87FF02C00C94F32A809178
:10446000740284FD04C08091760287FF0AC0B8E61A
:10447000CB2EB1E0DB2E19EAE12E1AE0F12E10E08E
:104480003BC080917702837091F70E940E3140917A
:10449000BD0A5091BE0A6091BF0A7091C00A8FEEAA
:1044A00094E00E946A384091C10A5091C20A60911A
:1044B000C30A7091C40A8CEE94E00E946A3840915D
:1044C000C50A5091C60A6091C70A7091C80A89EE60
:1044D00094E00E946A384091C90A5091CA0A6091DA
:1044E000CB0A7091CC0A86EE94E00E946A388AE08A
:1044F0000E94E1300C94F32AD6018D916D010E9447
:104500003F2F882309F46DC0133009F063C00E9467
:10451000C32E4B015C0120E030E040EA51E40E94F0
:10452000D6F187FF4EC0A50194016091C90A709130
:10453000CA0A8091CB0A9091CC0A0E9401F72B0104
:104540003C019B01AC0160911104709112048091B7
:104550001304909114040E943CF260931104709330
:1045600012048093130490931404A30192016091A8
:10457000D90A7091DA0A8091DB0A9091DC0A0E94D4
:104580003CF26093D90A7093DA0A8093DB0A909325
:10459000DC0A6091FD037091FE038091FF0390910E
:1045A00000040E94DBF1A30192010E943CF20E94F0
:1045B0007AF76093FD037093FE038093FF0390935B
:1045C00000048092C90A9092CA0AA092CB0AB092C3
:1045D000CC0A07C00E94C32EF701648B758B868BB3
:1045E000978B1F5FF4E0EF0EF11C143009F084CFBD
:1045F0000E9407D10C94F32A8FE194E00E94E830E6
:1046000060E08FE094E00E940FCC60E08AEF93E0DE
:104610000E940FCC61E083EF93E00E940FCC61E039
:1046200088EE93E00E940FCC61E088ED93E00E9459
:104630000FCC60E08FEC93E00E940FCC61E085EC42
:1046400093E00E940FCC60E08BEB93E00E940FCCD4
:1046500060E083EB93E00E940FCC60E085EA93E09A
:104660000E940FCC61E087E993E00E940FCC60E0EC
:1046700088E893E00E940FCC60E08AE793E00E9414
:104680000FCC60E084E693E00E940FCC60E083E50D
:1046900093E00E940FCC60E084E493E00E940FCC92
:1046A00060E08FE293E00E940FCC61E08CE193E048
:1046B0000E940FCC60E08FE093E00E940FCC60E09E
:1046C0008BEF92E00E940FCC8EC78091A402909154
:1046D000A502009709F4AACADC012C91222309F44F
:1046E000A5CA60E00E94CB9F7EC70091A4021091F2
:1046F000A50283E0F12C40E08150E1F0F8019081C7
:10470000292F2B7F2134C1F721812133A9F791343F
:1047100021F0953421F441E002C0FF24F394980184
:104720002E5F3F4F89012F5F3F4FD8019C91903200
:10473000C9F3E2CF41110E940E31FF2021F087EF33
:1047400092E00E94E830C8010E9481384CC70E9464
:1047500088C549C71092B2021092B3020E94A3C545
:1047600042C760E070E083E50E945F2F8C01112753
:10477000023011053CF00E940A3185ED92E00E9462
:10478000E83031C788E40E943F2F8823A9F00E94B7
:104790008F2E6A3A71053CF06530B1E07B072CF052
:1047A00064E071E002C06AEA70E0F801EE0FFF1FFA
:1047B000E059FD4F7183608386E40E943F2F882378
:1047C00081F00E948F2E77FD07C06F3F710529F0A1
:1047D00024F06FEF70E001C060E0F801E259FD4F96
:1047E000608382E40E943F2F882309F4FCC60E9464
:1047F0008F2E6530710534F0643771052CF063E756
:1048000070E002C065E070E0000F111FF801E6598A
:10481000FD4F71836083E7C60E9443CC182F87FD4C
:10482000E2C684E40E94F62E882309F43FC00E9469
:10483000C32E6B017C0101E020E030E0A9010E9461
:10484000D6F1811101C000E00093690220E030E060
:10485000A901C701B6010E94D6F1882339F10E944F
:10486000C32E24E01202F0011124EB59FD4F6083A6
:1048700071838283938320E030E0A9016091650217
:104880007091660280916702909168020E94D6F151
:1048900081110CC080E090E0A0EEBFE38093650240
:1048A00090936602A0936702B09368020E946CCC5A
:1048B0009AC60E9443CC87FD96C648E6E42E41E0A6
:1048C000F42E09EA1AE0D7018D917D010E94F62E9F
:1048D000882349F00E94C32E0E947AF7F801608372
:1048E0007183828393830C5F1F4FFAE0093B1F079C
:1048F00051F70E9442CF77C60E9443CC87FD73C612
:1049000038E6E32E31E0F32E09EA1AE0D7018D9163
:104910007D010E94F62E882339F00E94C32EF801F3
:1049200064A375A386A397A30C5F1F4FFAE0093B0E
:104930001F0761F758C68091750287FF02C00C946B
:10494000AA2D809176028E7011F00C94AA2D4091C0
:10495000DD0A5091DE0A6091DF0A7091E00A85EC71
:1049600092E00E946A384091E10A5091E20A609117
:10497000E30A7091E40A82EC92E00E946A38409166
:10498000E50A5091E60A6091E70A7091E80A8FEB18
:1049900092E00E946A388AE00E94E13024C6809149
:1049A0007402827111F00C94F02D809176028C7853
:1049B00011F00C94F02D80917702837011F00C941B
:1049C000F02D11C698E6C92E91E0D92E29E5E22EE8
:1049D00022E0F22E10E0D6018D916D010E94F62E9C
:1049E000882351F00E94C32EF70160837183828374
:1049F0009383812F0E946AC21F5FF4E0EF0EF11CC7
:104A0000133049F70C94811B0E940E318FEA92E01B
:104A10000E94E83083E50E94F62E882321F00E9450
:104A2000B32E8093200180912001882319F08CE817
:104A300092E002C088E892E00E94E83087EA92E0C3
:104A40000E94E8304090B4025090B5026090B602E7
:104A50007090B702209108013091090140910A013C
:104A600050910B01C301B2010E947EF6AB01BC0163
:104A700085EA92E00E946A388090B8029090B9026C
:104A8000A090BA02B090BB022091100130911101A8
:104A90004091120150911301C501B4010E947EF6AC
:104AA000AB01BC0182EA92E00E946A38C090BC026D
:104AB000D090BD02E090BE02F090BF02209118019C
:104AC0003091190140911A0150911B01C701B601A3
:104AD0000E947EF6AB01BC018FE992E00E946A3829
:104AE00087E992E00E94E83020910C0130910D019D
:104AF00040910E0150910F01C301B2010E947EF658
:104B0000AB01BC0185E992E00E946A382091140152
:104B1000309115014091160150911701C501B40162
:104B20000E947EF6AB01BC0182E992E00E946A38E5
:104B300020911C0130911D0140911E0150911F01D7
:104B4000C701B6010E947EF6AB01BC018FE892E07E
:104B50000E946A388AE00E94E13045C583E50E94E0
:104B60003F2F882309F43FC50E948F2E70932601A2
:104B70006093250138C50E9443CCF82E87FD33C5CC
:104B800083E50E943F2F0F2D0F2C000C110B882363
:104B900069F10E948F2EF801EE0FFF1FE050FF4FCA
:104BA00071836083000F111F000F111F98012B5C90
:104BB0003E4F7901072E000C880B990B0E94DDF106
:104BC0002AE037ED43E25CE30E943CF2F801EB5A45
:104BD000FD4F20813181428153810E943CF2D701F7
:104BE0006D937D938D939C931397FDC40E940E311A
:104BF00085E40E94E13080E38F0D0E94E130F801EE
:104C0000EE0FFF1FE050FF4F6081718180E892E05E
:104C10000E94E83785E20E94E1308AE00E94E1309C
:104C2000E2C480E50E94F62E882309F4DCC460E02B
:104C300070E080E50E945F2FF82E6FEF7FEF83E535
:104C40000E945F2F8C010196039708F0CCC4F7FCFB
:104C5000CAC48F2D0E946AE5882339F00E940A3168
:104C600081E695E00E94E830BEC40E9489CF60E0F2
:104C70008F2D0E94FBE10F3FBFEF1B0731F001308A
:104C8000110571F000E010E00DC08F2D0E94A653B9
:104C900031E020E0892B09F030E0032F122F02C011
:104CA00001E010E08F2D0E94A6538017910709F4B0
:104CB0009AC480E00E94E531F5CF64E071E083E5BD
:104CC0000E944C2F8C0168EE73E080E50E944C2F0F
:104CD0008938E3E19E0710F088E893E1B8010E946B
:104CE000529F81C485E40E9427E5811173C080E54D
:104CF0000E94F62E882351F00E94C32E6093360442
:104D000070933704809338049093390489E40E94A7
:104D1000F62E882381F00E94C32E2CEA35EC47E260
:104D20005EE30E943CF260933A0470933B048093EC
:104D30003C0490933D0484E40E94F62E882381F085
:104D40000E94C32E2CEA35EC47E25EE30E9401F795
:104D500060933E0470933F04809340049093410419
:104D60000E940E314091360450913704609138040E
:104D7000709139048CE792E00E946A382CEA35EC95
:104D800047E25EE360913A0470913B0480913C04F9
:104D900090913D040E9401F7AB01BC0188E792E0CD
:104DA0000E946A382CEA35EC47E25EE360913E04EB
:104DB00070913F0480914004909141040E943CF224
:104DC000AB01BC0184E792E00E946A388AE00E944D
:104DD000E13009C40E940A3182E692E00E94E83084
:104DE00002C480E50E94F62E882351F00E94C32E53
:104DF0006093920270939302809394029093950231
:104E000089E40E94F62E882381F00E94C32E2CEAAA
:104E100035EC47E25EE30E943CF2609396027093A9
:104E20009702809398029093990284E40E94F62E50
:104E3000882381F00E94C32E2CEA35EC47E25EE322
:104E40000E9401F760939A0270939B0280939C02E8
:104E500090939D020E940E314091920250919302D4
:104E600060919402709195028EE592E00E946A38FA
:104E70002CEA35EC47E25EE360919602709197026E
:104E800080919802909199020E9401F7AB01BC01B8
:104E90008AE592E00E946A382CEA35EC47E25EE34C
:104EA00060919A0270919B0280919C0290919D0268
:104EB0000E943CF2AB01BC0186E592E00E946A3898
:104EC0008AE00E94E1308FC383E50E94F62E182FFE
:104ED000882371F00E94C32E0E9473F770933A01E9
:104EE0006093390121E0672B09F020E020932A0428
:104EF00080E50E94F62E882359F0209139013091E7
:104F00003A01232B11F00E94B32E80932A046BC325
:104F1000111169C30E940E3183E492E00E94E830CF
:104F200080912A04882319F08BE292E002C087E284
:104F300092E00E94E8306091390170913A0182E379
:104F400092E00E94E8378EE292E00E94E8304BC384
:104F50000E949D4748C30E9489CF45C30E94CCE46C
:104F6000811141C30BE112E020EC32E039A728A700
:104F7000AE014F5F5F4F4A01E8E1AE2EE2E0BE2E88
:104F80001A01F8016591759185919491A8A5B9A52B
:104F9000CD90DD90ED90FD90B9A7A8A7A70196014F
:104FA0000E947DF62B013C01F101608371838283B5
:104FB000938320E030E040EA51EC0E9401F887FD45
:104FC0000AC020E030E040EA51E4C301B2010E948F
:104FD000D6F118162CF4F501849118160CF46BC652
:104FE000D101CD90DD90ED90FD901D0120E030E0ED
:104FF00040EA51ECC701B6010E9401F887FD0AC0E2
:1050000020E030E040EA51E4C701B6010E94D6F149
:105010001816A4F40E940A318AEF91E00E94E83049
:1050200061E08CEE91E00E947F9F0E9497DC68E235
:1050300070E088EC90E00E94529FD5C20C5F1F4F39
:10504000BFEFAB1ABB0AE2E007321E0709F099CFA7
:1050500079E5E72E72E0F72E10E0F401819191914D
:10506000A191B1914F01F70181939193A193B193D4
:105070007F01812F0E946AC21F5F133071F70E9467
:1050800079C460E08CED91E00E947F9F63E972E05B
:1050900084E690E00E94529F6AEB72E084E690E022
:1050A0000E94529FA0C20E94706C9DC20E94AEC519
:1050B0009AC281E0809354020E940C7110925402B3
:1050C000882309F490C20E940E3181ED91E00E9484
:1050D000E83089C28091D21182FF85C280628093BC
:1050E000D21181C20E9481347EC20E9443CC082F1B
:1050F00087FD79C285E50E94F62E8823F9F0E02E1F
:10510000002E000CFF080E94C32E4B015C0120E022
:1051100030E0A9010E9401F887FF04C0B7FAB094FB
:10512000B7F8B094F70163E0EE0FFF1F6A95E1F75F
:10513000E45BFD4F80829182A282B3828CE40E9464
:10514000F62E882309F44FC2002E000C110B0E948A
:10515000C32E6B017C0120E030E0A9010E9401F820
:1051600087FF04C0F7FAF094F7F8F09453E0000FCB
:10517000111F5A95E1F7F801E45BFD4FC482D58217
:10518000E682F78230C20E9443CC182F87FD2BC2E3
:105190008AE50E943F2F882349F040E050E0BA01A1
:1051A0008AE50E9486474B015C0106C0812C912C48
:1051B00040EAA42E41E4B42E412F62E085E00E9433
:1051C00090DA20E030E0A901C501B4010E9401F8A5
:1051D00018167CF580E090E0A0EAB0E489839A8319
:1051E000AB83BC832091C8023091C9024091CA02AE
:1051F0005091CB02C501B4010E947EF66B017C0187
:1052000020E030E04AE753E40E94D6F187FD06C073
:10521000C12CD12C3AE7E32E33E4F32ECC8EDD8E75
:10522000EE8EFF8EBE016F5F7F4FCE014C960E94C7
:1052300047C31CA21DA21EA21FA28CE40E94F62E30
:10524000882329F00E94C32E6B017C0108C0C09006
:105250005002D0905102E0905202F090530220E0B0
:1052600030E0A901C701B6010E9401F887FF04C020
:10527000F7FAF094F7F8F094C8A2D9A2EAA2FBA238
:1052800060913304709134046430710554F1072E39
:10529000000C880B990B0E94DDF19B01AC01609121
:1052A0002F047091300480913104909132040E9457
:1052B0007DF66B017C0120E030E0A9010E9401F83D
:1052C00087FF04C0F7FAF094F7F8F09401E020E0CB
:1052D00030E040E450E4C701B6010E9401F818161E
:1052E0000CF000E080E090E0A0EAB1E489839A83CA
:1052F000AB83BC8382E00E941231811106C040E082
:1053000062E089E00E9490DA0DC022E0E22E23E004
:10531000AE014F5F5F4FBE01605E7F4FCE0184964E
:105320000E94ECE320E030E0A901C501B4010E9435
:1053300001F818165CF580E090E0A0EAB0E48983FB
:105340009A83AB83BC83A50194016091C8027091DC
:10535000C9028091CA029091CB020E947DF66B0136
:105360007C0120E030E0A9010E9401F818161CF031
:10537000C12CD12C7601CC8EDD8EEE8EFF8EBE013F
:105380006F5F7F4FCE014C960E9447C340E060E0C4
:1053900089E00E9490DA27C10E9443CC182F87FD34
:1053A00022C18AE50E943F2F882349F040E050E067
:1053B000BA018AE50E9486474B015C0106C0812C38
:1053C000912C90EAA92E91E4B92E412F63E083E05D
:1053D0000E9490DA20E030E0A901C501B4010E94EA
:1053E00001F818167CF580E090E0A0EAB0E489832B
:1053F0009A83AB83BC832091C8023091C90240914B
:10540000CA025091CB02C501B4010E947EF66B0125
:105410007C0120E030E04AE753E40E94D6F187FDAA
:1054200006C0C12CD12C8AE7E82E83E4F82ECC8E5E
:10543000DD8EEE8EFF8EBE016F5F7F4FCE014C96EC
:105440000E9447C385E50E94F62E882329F00E941A
:10545000C32E6B017C010AC028E01202F001112466
:10546000E45BFD4FC080D180E280F38020E030E03B
:10547000A901C701B6010E9401F887FF04C0F7FA2D
:10548000F094F7F8F094F7FAF094F7F8F094C982F2
:10549000DA82EB82FC8263E0CE0101960E9446E351
:1054A00020E030E0A901C501B4010E9401F81816FE
:1054B0005CF580E090E0A0EAB0E489839A83AB8356
:1054C000BC83A50194016091C8027091C9028091CA
:1054D000CA029091CB020E947DF66B017C0120E014
:1054E00030E0A9010E9401F818161CF0C12CD12C43
:1054F0007601CC8EDD8EEE8EFF8EBE016F5F7F4F0C
:10550000CE014C960E9447C340E060E089E00E94D3
:1055100090DA69C08BE40E943F2F882329F10E9412
:10552000C32E6B017C0120E030E0A9010E9401F84C
:1055300087FD15C020E030E040E251E4C701B6012C
:105540000E94D6F118165CF00E9489CFC0924204E6
:10555000D0924304E0924404F092450444C087EAA8
:1055600091E00E94E8303FC00E940E314091420419
:1055700050914304609144047091450486EC91E09D
:105580000E946A388AE00E94E1302DC081E0809359
:1055900027011092F00383E50E9439E3811123C0B3
:1055A0000E9425C720C00E948E651DC00091E002A8
:1055B0001091E1020023B9F00E940E3184E50E94AF
:1055C000E130B8017727072E000C880B990B0E9459
:1055D000CC3780E20E94E13085E991E00E94E8301A
:1055E00002C00E948E650E9415C73AA930936714C5
:1055F0006DC30E9489CF8091210190912201A091D9
:105600002301B09124018093E5029093E602A093D8
:10561000E702B093E80280912501909126019093D2
:10562000E4028093E30284E690E090932601809365
:10563000250181E08093B2020E94A3C588E50E9403
:10564000F62E182F89E50E94F62E082F8AE50E9473
:10565000F62E101380C0181711F0012F7CC001E046
:1056600011E0FF24F39480E1E0ECF2E0A0EDB2E081
:1056700001900D928A95E1F782E50E943F2F8823E1
:1056800061F00E94C32E4B015C0120E030E0A901D3
:105690000E94D6F1882361F106C0812C912C60E232
:1056A000A62E61E4B62E111102C0002359F180929A
:1056B000D8029092D902A092DA02B092DB02A50140
:1056C00094016091C8027091C9028091CA029091C0
:1056D000CB020E94D6F187FF0BC019821A821B826F
:1056E0001C82BE016F5F7F4F88ED92E00E9447C32E
:1056F000112319F080E00E94A8C3002319F081E073
:105700000E94A8C3FF2019F082E00E94A8C30E9453
:1057100066C38091B3028093B2028091E5029091BA
:10572000E602A091E702B091E802809321019093F4
:105730002201A0932301B09324018091E302909170
:10574000E402909326018093250183E08093340145
:105750000E9479C448CFF82E86CF11110C94741D85
:105760000C946D1D80E00E94E5310C94981D0E9400
:105770008F2EAB01BC014093CE115093CF1160939B
:10578000D0117093D1118CEA9FE00E9474822BCFCC
:1057900061E0802F0E94FBE16F2D802F0E94CF538C
:1057A0006F2D70E0802F0E9437E244E0E4121BCF9F
:1057B000F092190418CF0E949F2E90E08536910533
:1057C00014F084E690E08093A2020DCF0E946399CA
:1057D0000C947220A3019201C501B4010E9401F84A
:1057E00018163CF087E495E060E00E947F9F0C94DF
:1057F000922084E595E0F8CF0E94C32E0E9473F7B3
:10580000633771050CF07EC17093900260938F0234
:105810000E946A770E94C32E20E030E040EA50E404
:105820000E9401F8181614F40E94639960918F0287
:1058300070919002072E000C880B990B0E94DDF1ED
:1058400020918B0230918C0240918D0250918E02FA
:105850000E9401F818161CF48CE195E002C08DE05E
:1058600095E060E00E947F9F81E0809307011AA687
:105870001BA61CA61DA61CAA1DAA1EAA1FAA18A606
:1058800019AEACE3AAAFBCE1BBAFE6E4ECAFC12C10
:10589000D12C00E8E02E8FEBF82EF1E0F8AF812C50
:1058A000912C540160918F0270919002072E000C90
:1058B000880B990B0E94DDF1162F072F782E692E89
:1058C0009601A7010E94D6F1882321F120918B0235
:1058D00030918C0240918D0250918E028BA9612FE4
:1058E000702F811109C0872D962D0E94D6F1881F37
:1058F0008827881F88A714C0872D962D0E94D6F16F
:1059000087FF0DC080910701882309F46CCE0E94A7
:10591000F19F69CE1C2D0D2D7E2C6F2C01C018A679
:105920000E94E3E26B017C01DC01CB012CA93DA9C3
:105930004EA95FA9821B930BA40BB50BB7FD33C017
:10594000D701C60188519C4FAF4FBF4F8CAB9DAB69
:10595000AEABBFAB80E00E94EA7789E095E00E94A1
:10596000E83081149104A104B104B9F0D501C40157
:10597000805F984DAF4FBF4FBC01CD016C197D09C1
:105980008E099F0928EE33E040E050E00E94DDF5EB
:10599000CA01B9010E94CC3703C08FE30E94E130F5
:1059A0008AE00E94E13080E00E94E5310E94E3E25B
:1059B00060938302709384028093850290938602A1
:1059C00090918B029EA7A0918C02AFA7B0918D02FF
:1059D000B8ABE0918E02E9AB292F3A2F4B2F5E2F07
:1059E000612F702F872D962D0E947DF61B012C01B3
:1059F00020E030E0A9010E9401F887FF04C057FAB7
:105A0000509457F8509481149104A104B104B1F456
:105A100020E030E040E85FE3C201B1010E94D6F12E
:105A200087FF18C0F8AD46015701FF2399F020E128
:105A3000820E27E2921EA11CB11C0CC020E030E0B7
:105A400040E450E4C201B1010E9401F8181614F4B8
:105A50004601570138A53323C1F18AA59BA5ACA502
:105A6000BDA5892B8A2B8B2B61F0D701C6012AA5F6
:105A70003BA54CA55DA5821B930BA40BB50BB7FDF5
:105A800024C02EA53FA548A959A969AD7AAD8BAD13
:105A90009CAD0E947DF620E030E040EC5FE30E9488
:105AA000D6F187FD2FCFD701C601805A9541AF4F60
:105AB000BF4F8AA79BA7ACA7BDA79EA599AFAFA5CF
:105AC000AAAFB8A9BBAFE9A9ECAF809107018823C1
:105AD00009F418CF81149104A104B10431F418AE73
