:100000000C941D190C9447190C9447190C9447191A
:100010000C9447190C9447190C9447190C944719E0
:100020000C9447190C9447190C9447190C944719D0
:100030000C9447190C94EC760C9447190C944719BE
:100040000C9447190C94996D0C94A9E00C944719E1
:100050000C94CB3B0C94C13B0C9447190C9447195E
:100060000C9447190C9447190C9447190C94471990
:100070000C9447190C9447190C9447190C94471980
:100080000C9447190C9447190C9447198DD44CD3F0
:1000900083D3C9D483D383D383D383D383D383D369
:1000A00083D383D383D383D383D383D383D383D3A0
:1000B00083D383D383D383D383D383D383D383D390
:1000C00083D383D383D383D3C3D483D383D383D33F
:1000D00083D383D383D383D383D39CD483D383D356
:1000E00083D383D383D383D383D383D383D383D360
:1000F000E0D480D36DDD70DD63DD67DD87DD87DD16
:1001000074DD78DD7EDD82DD18E01DE022E02CE08C
:100110005AE05AE036E03EE046E050E04E414E49BB
:100120004E495459494E46CDCCCC3D0AD7233C17B5
:10013000B7D13877CC2B329595E6241FB14F0A0002
:100140000020410000C84200401C4620BCBE4CCAF2
:100150001B0E5AAEC59D74434F4D4D554E494341FC
:1001600054494F4E0044525952554E004552524F39
:10017000525300494E464F004543484F0052657068
:100180006F732E2E2E004F726967696E6520585965
:10019000205072656D6965720A004F726967696EF9
:1001A00065205859205072656D69657200205A3A71
:1001B000200020593A200042656420583A20004D22
:1001C00065736820706F696E742063616E6E6F7402
:1001D000206265207265736F6C7665640A004174F5
:1001E00074656E7465207574696C69732E004D6F4B
:1001F000746575727320626C6F7175C3A973004565
:100200006E642066696C65206C6973740A004265CF
:1002100067696E2066696C65206C6973740A0028D2
:100220006E6F2066696C65290043757272656E7425
:100230002066696C653A20005344207072696E74C0
:10024000696E67206279746520004E6F7420534494
:10025000207072696E74696E670A002E0A00446528
:100260006C6574696F6E206661696C65642C2046EC
:10027000696C653A200046696C652064656C65743C
:1002800065643A002569730025696D20256973004E
:100290002569682025696D2025697300256964201A
:1002A0002569682025696D202569730025697920F5
:1002B000256964202569682025696D2025697300FA
:1002C0005072696E742074696D653A200020573A47
:1002D000004520526566726F6964697373656D6568
:1002E0006E74004520456E20636861756666652EF4
:1002F0002E2E006F666600780173016C0165015750
:100300000144454255473A004D31313320530020D6
:10031000573A00526566726F69642E206475206CCE
:1003200069742E2E2E004C697420656E20636861FE
:10033000756666652E2E2E006F6B0033442050725A
:10034000696E746572204F46462E00204500205A83
:1003500000205900204D39322058004348414D4279
:1003600045525F54454D5045524154555245004DFC
:100370004F54494F4E5F4D4F4445530054484552EA
:100380004D414C5F50524F54454354494F4E0041EC
:1003900055544F5245504F52545F53445F5354414C
:1003A0005455530050524F4D50545F535550504F79
:1003B000525400454D455247454E43595F504152B6
:1003C00053455200434153455F4C494748545F42AF
:1003D00052494748544E45535300544F47474C45A4
:1003E0005F4C494748545300534F46545741524578
:1003F0005F504F574552004255494C445F5045525B
:1004000043454E54004C4556454C494E475F444188
:100410005441005A5F50524F4245004155544F4C91
:100420004556454C005052494E545F4A4F42005089
:10043000524F4752455353004155544F5245504F28
:1004400052545F54454D5000564F4C554D455452F3
:10045000494300454550524F4D0042494E41525983
:100460005F46494C455F5452414E534645520053F6
:10047000455249414C5F584F4E5F584F46460046E3
:1004800049524D574152455F4E414D453A4D61727B
:100490006C696E204372656177736F6D65436F722F
:1004A0006520322E302E302D52433020534F55527E
:1004B00043455F434F44455F55524C3A68747470EE
:1004C000733A2F2F6769746875622E636F6D2F748E
:1004D000726F7563682F4D61726C696E2050524F58
:1004E000544F434F4C5F56455253494F4E3A312E6D
:1004F00030204D414348494E455F545950453A33A9
:1005000044205072696E74657220455854525544A7
:1005100045525F434F554E543A3120555549443A60
:1005200063656465326132662D343161322D343752
:1005300034382D396231322D6335356336326633C6
:10054000363766660A002F2F20004D313435205390
:100550003C696E6465783E206F7574206F6620720A
:10056000616E67652028302D31290A002054002053
:100570005200416363656C65726174696F6E3A2005
:1005800050005741524E494E4721204C6F77205A18
:10059000204A65726B206D6179206C6561642074FE
:1005A0006F20756E77616E74656420706175736518
:1005B000732E0A004F4646004F4E00205A00205925
:1005C00000580020204D61783A2000205A00205920
:1005D00000580020204D696E3A2000536F66742049
:1005E000656E6473746F70733A200020466C6F7789
:1005F0003A200050726F7465637465642050696EB0
:100600000A00496E76616C6964206578747275645D
:1006100065720A0020643A0020693A0020703A00AE
:1006200020643A0020693A0020703A00646973003F
:10063000656E0043290A0061626C656420286D695B
:100640006E2074656D702000436F6C642065787453
:1006500072756465732061726520004D6573682052
:10066000706F696E742063616E6E6F7420626520B6
:100670007265736F6C7665640A004D34323120699F
:100680006E636F727265637420706172616D657400
:1006900065722075736167650A0044C3A963616C64
:1006A00061676573206170706C697175C3A97300AF
:1006B0004572723A20546F6F206661722100546F48
:1006C0006F206661722066726F6D2072656665725A
:1006D000656E636520706F696E740A0045455052FF
:1006E0004F4D204F4B0A003F5A206F7574206F66A4
:1006F0002072616E676520282D323020746F2032A1
:1007000030290A0050726F6265205A204F66667366
:1007100065743A2000496E76616C6964206578746E
:1007200072756465720A004572726F722077726921
:1007300074696E6720746F20454550524F4D210AF1
:10074000000F150E1216170E1303021A1401000ED5
:100750000C190DFF180C040001627573793A2070B2
:10076000617573656420666F7220696E7075740AB6
:1007700000627573793A2070617573656420666FE5
:100780007220757365720A00627573793A2070720F
:100790006F63657373696E670A004B494C4C206345
:1007A000617573656420627920746F6F206D756365
:1007B0006820696E6163746976652074696D65206F
:1007C0002D2063757272656E7420636F6D6D616E3E
:1007D000643A2000526564C3A96D6172726572202B
:1007E00053565000494D50522E2053544F5050C331
:1007F0008945004B494C4C4544005072696E746504
:10080000722068616C7465642E206B696C6C282999
:100810002063616C6C6564210A006563686F3A004F
:100820004572726F723A0042696C696E656172203E
:100830004C6576656C696E6720477269643A0A0098
:1008400023646566696E652044454641554C545F96
:100850000000626564004B6420004B6920004B700F
:100860002000504944204175746F74756E65206690
:10087000696E6973686564212050757420746865B9
:10088000206C617374204B702C204B6920616E6466
:10089000204B6420636F6E7374616E747320667294
:1008A0006F6D2062656C6F7720696E746F20436F87
:1008B0006E66696775726174696F6E2E680A0050A2
:1008C0004944204175746F74756E65206661696C6A
:1008D0006564212074696D656F75740A0045312067
:1008E00045727220544845524D4951554500457254
:1008F0007220544845524D49515545204C495400A9
:10090000546865726D616C2052756E617761790013
:1009100045312045727220646520636861756666A2
:10092000650045727220646520636861756666655E
:10093000206C69740048656174696E67206661693E
:100940006C656400504944204175746F74756E6520
:10095000206661696C6564212054656D7065726103
:100960007475726520746F6F20686967680A00206B
:100970004B643A2000204B693A2000204B703A200B
:10098000000A20436C617373696320504944200A54
:1009900000204B643A2000204B693A2000204B7025
:1009A0003A20000A204E6F206F76657273686F6F71
:1009B000740A002054753A2000204B753A2000201C
:1009C0006D61783A2000206D696E3A200020643A0B
:1009D000200020626961733A20005049442041752B
:1009E000746F74756E652073746172740A00504977
:1009F00044204175746F74756E65206661696C651D
:100A000064212054656D706572617475726520741F
:100A10006F6F20686967680A005049442041757407
:100A20006F74756E65206661696C65642120426132
:100A300064206578747275646572206E756D626588
:100A4000720A004572723A207574663820666F6EBD
:100A500074206E6F7420696E697469616C697A655F
:100A6000642E004572723A207574663820666F6E87
:100A700074206E6F7420696E697469616C697A653F
:100A8000642E004572723A207574663820666F6E67
:100A900074206E6F7420696E697469616C697A651F
:100AA000642E0000060C00FE07022603BC01FFFEB8
:100AB0000AFE08FE05080806000040F0C88888986D
:100AC0007810050808060000C0F88888888888F82B
:100AD0000505050600012030F8302005080806004D
:100AE000002070F820202020E00509090600FF20E2
:100AF00070A8A8B888887020050606060001E08C5A
:100B0000EA8C8A0A0509090600FFF8A888888888FF
:100B100088A8F8050A0A0600FE205050505088A800
:100B2000A8887003030306000340A040FFFFFFFFF7
:100B3000FFFFFFFFFFFFFFFFFFFFFFFFFFFFFFFFC5
:100B4000FFFF0000000605FF010707060200808086
:100B50008080800080030303060105A0A0A0050695
:100B60000606000050F85050F8500509090600FF2D
:100B70002070A8A07028A87020050707060000C8EC
:100B8000C8102040989805070706000040A0A04024
:100B9000A890680103030602058080800309090606
:100BA00001FF204040808080404020030909060169
:100BB000FF804040202020404080050707060000BD
:100BC00020A8702070A8200505050600012020F847
:100BD00020200203030601FFC0408005010106003A
:100BE00003F8020202060100C0C005070706000064
:100BF0000810102040408005070706000070889804
:100C0000A8C8887003070706010040C04040404064
:100C1000E0050707060000708808102040F8050767
:100C200007060000F808103008887005070706005E
:100C30000010305090F81010050707060000F880EB
:100C4000F008088870050707060000304080F0882B
:100C50008870050707060000F808101020202005FE
:100C600007070600007088887088887005070706E7
:100C7000000070888878081060020505060100C031
:100C8000C000C0C00206060601FFC0C000C0408010
:100C900003050506010120408040200503030600EE
:100CA00002F800F803050506010180402040800598
:100CB000070706000070881020200020050707069F
:100CC00000007088B8A8B88070050707060000709B
:100CD0008888F8888888050707060000F04848706B
:100CE0004848F005070706000070888080808870FB
:100CF000050707060000F04848484848F005070780
:100D0000060000F88080F08080F8050707060000E4
:100D1000F88080F0808080050707060000708880DA
:100D200080988870050707060000888888F88888FA
:100D300088030707060100E04040404040E0050707
:100D40000706000038101010109060050707060015
:100D5000008890A0C0A0908805070706000080804A
:100D600080808080F805070706000088D8A888885A
:100D700088880507070600008888C8A8988888051D
:100D800007070600007088888888887005070706AE
:100D90000000F08888F0808080050707060000705A
:100DA000888888A89068050707060000F08888F002
:100DB000A09088050707060000708880700888707A
:100DC000050707060000F82020202020200507073F
:100DD0000600008888888888887005070706000054
:100DE0008888888850502005070706000088888872
:100DF00088A8A8500507070600008888502050885A
:100E00008805070706000088885020202020050755
:100E100007060000F80810204080F80309090601C1
:100E2000FFE080808080808080E00507070600006A
:100E3000804040201010080309090601FFE020202F
:100E40002020202020E0050303060005205088050F
:100E500001010600FEF8030303060105804020059A
:100E60000505060000700878887805070706000069
:100E70008080F0888888F005050506000070808075
:100E800088700507070600000808788888887805B4
:100E900005050600007088F0807005070706000051
:100EA000304840E04040400507070600FE70888853
:100EB000887808700507070600008080F088888819
:100EC000880307070601004000C0404040E00409D5
:100ED000090601FE10003010101010906005070781
:100EE00006000080808890E09088030707060100D4
:100EF000C04040404040E0050505060000D0A8A8DD
:100F0000A8A8050505060000B0C88888880505055D
:100F100006000070888888700507070600FEF088C4
:100F20008888F080800507070600FE788888887822
:100F30000808050505060000B0C880808005050585
:100F400006000078807008F00507070600002020E2
:100F5000F820202018050505060000888888986874
:100F6000050505060000888888502005050506004F
:100F7000008888A8A8500505050600008850205064
:100F8000880507070600FE888888502040800505F0
:100F900005060000F8102040F80309090601FF20AB
:100FA00040404080404040200109090602FF808007
:100FB000808080808080800309090601FF80404096
:100FC00040204040408005030306000248A890FFEF
:100FD000FFFFFFFFFFFFFFFFFFFFFFFFFFFFFFFF21
:100FE000FFFFFFFFFFFFFFFFFFFFFFFFFFFFFFFF11
:100FF0000000000605FF0107070602008000808050
:101000008080800507070600FF2070A8A0A8702038
:10101000050707060000304840E04048B0050505D8
:10102000060000A8508850A8050707060000885051
:10103000F820F82020010707060200808080008049
:10104000808004080806010070806090906010E0C5
:10105000030101060107A00607070600007884B413
:10106000A4B4847803050506010460A06000E005CF
:1010700005050600002850A05028050303060001BE
:10108000F80808030101060103E00607070600004F
:101090007884B4A4A48478050101060007F8040448
:1010A00004060105609090600507070600002020F7
:1010B000F8202000F803050506010440A02040E0C8
:1010C000030505060104C0204020C00303030601F8
:1010D000052040800507070600FE88888898E8807C
:1010E0008005080806000078E8E8E8682828280253
:1010F0000202060203C0C00302020601FE20C00372
:10110000050506010440C04040E003050506010551
:1011100040A04000E0050505060000A0502850A0B2
:10112000050A0A06000040C048506050B0507810D0
:10113000050A0A06000040C048506050A808103850
:10114000050A0A060000C0204830E050B050781070
:1011500005070706000020002020408870050A0AC5
:10116000060000402000708888F8888888050A0AF0
:10117000060000102000708888F8888888050A0A10
:10118000060000205000708888F8888888050A0AC0
:1011900006000068B000708888F88888880509090A
:1011A0000600005000708888F8888888050A0A06BA
:1011B0000000205020708888F88888880507070676
:1011C000000078A0A0F0A0A0B80509090600FE70F4
:1011D0008880808088701060050A0A060000402020
:1011E00000F88080F08080F8050A0A0600001020D0
:1011F00000F88080F08080F8050A0A060000205080
:1012000000F88080F08080F8050909060000500091
:10121000F88080F08080F8030A0A06010080400010
:10122000E04040404040E0030A0A06010020400040
:10123000E04040404040E0030A0A06010040A000B0
:10124000E04040404040E0030909060100A000E002
:101250004040404040E0050707060000704848E86D
:10126000484870050A0A06000068B0008888C8A8C7
:10127000988888050A0A060000402000708888883F
:10128000888870050A0A0600001020007088888887
:10129000888870050A0A0600002050007088888837
:1012A000888870050A0A06000068B000708888887F
:1012B00088887005090906000050007088888888B1
:1012C0008870050505060001885020508805090929
:1012D0000600FF087098A8A8A8C87080050A0A062A
:1012E000000040200088888888888870050A0A06DF
:1012F000000010200088888888888870050A0A06FF
:1013000000002050008888888888887005090906B0
:101310000000500088888888888870050A0A0600BE
:101320000010200088885020202020040707060194
:101330000080E0909090E08005070706000070882C
:1013400090A09088B00508080600004020007008B2
:101350007888780508080600001020007008788852
:101360007805080806000020500070087888780585
:10137000080806000068B00070087888780507073C
:1013800006000050007008788878050808060000FC
:101390002050207008788878050505060000702820
:1013A00070A0780507070600FE70888088701060BE
:1013B0000508080600004020007088F080700508CD
:1013C000080600001020007088F0807005080806EC
:1013D00000002050007088F08070050707060000AC
:1013E00050007088F08070030808060100804000FB
:1013F000C0404040E0030808060100204000C04013
:101400004040E003080806010040A000C040404002
:10141000E0030707060100A000C0404040E00509C6
:101420000906000050205008788888887005080850
:1014300006000068B000B0C8888888050808060063
:101440000040200070888888700508080600001099
:101450002000708888887005080806000020500069
:10146000708888887005080806000068B0007088D9
:10147000888870050707060000500070888888700B
:101480000505050600012000F800200505050600F9
:10149000007898A8C8F005080806000040200088D9
:1014A0008888887005080806000010200088888851
:1014B0008870050808060000205000888888887019
:1014C00005070706000050008888888870050A0A0A
:1014D0000600FE10200088888850204080050909F9
:1014E0000600FE8080F0888888F080800509090663
:1014F00000FE500088888850204080205A3A002002
:10150000593A0020436F756E7420583A0020453ACE
:1015100000205A3A0020593A00583A0020636F6C74
:101520006420657874727573696F6E207072657669
:10153000656E7465640A004563686563206F72694F
:1015400067696E65000000000000000000000000F8
:10155000000000484200004842000080405761728D
:101560006E696E673A20486F6D696E672042756DCF
:10157000702044697669736F72203C20310A000242
:1015800002040000A0400000A04000000040000055
:10159000754300006B4300007A43FFFFFF43616E19
:1015A0006E6F74206F70656E20737562646972204F
:1015B0000053442063617264206F6B0A006F706592
:1015C0006E526F6F74206661696C65640A00766F95
:1015D0006C756D652E696E6974206661696C6564F1
:1015E0000A00534420696E6974206661696C0A00C0
:1015F0004D3234004D3233202573005772697469BF
:101600006E6720746F2066696C653A20002E0A00B0
:101610006F70656E206661696C65642C2046696C2C
:10162000653A20002E0A006F70656E206661696C55
:1016300065642C2046696C653A200046696C65201B
:1016400073656C65637465640A002053697A653A52
:10165000200046696C65206F70656E65643A2000F5
:10166000667265736800646F696E67002066696CF6
:10167000653A20004E6F772000454E442053554276
:10168000524F5554494E450A002220706F73002274
:1016900020706172656E743A2200535542524F5564
:1016A00054494E452043414C4C2074617267657427
:1016B0003A2200747279696E6720746F2063616CDE
:1016C0006C207375622D67636F64652066696C6555
:1016D00073207769746820746F6F206D616E792054
:1016E0006C6576656C732E204D4158206C6576656F
:1016F0006C2069733A310A007C3C3E5E2B3D3F2FE3
:101700005B5D3B2C2A225C003344205072696E746E
:101710006572207072C3AA74652E00496D7072657F
:101720007373696F6E00496D70722E20656E207044
:101730006175736500496D70722E20616E6E756CF7
:10174000C3A965000000754300006B4300007A43A5
:10175000000000000000000000000000290A002036
:1017600062797465733B20637263200053657474FF
:10177000696E67732053746F726564202800626518
:1017800064002C2073797374656D2073746F7070AE
:10179000656421204865617465725F49443A2000A0
:1017A0004572722064652063686175666665206CA9
:1017B00069740048656174696E67206661696C656B
:1017C000640045727220544845524D495155452098
:1017D0004C495400546865726D616C2052756E619D
:1017E0007761790045312045727220646520636815
:1017F00061756666650048656174696E672066613B
:10180000696C656400453120457272205448455228
:101810004D4951554500546865726D616C20527593
:101820006E6177617900202D20496E76616C696464
:10183000206578747275646572206E756D6265726C
:1018400020210A0070012C0190012701B001220122
:10185000C0011D01F00118011002130130020E0138
:101860006002090190020401C002FF000003FA00B7
:101870004003F5008003F000D003EB002004E600F5
:101880007004E100E004DC004005D700C005D20090
:101890004006CD00D006C8008007C3003008BE0057
:1018A000F008B900C009B400B00AAF00B00BAA003C
:1018B000D00CA500000EA000500F9B00C010960099
:1018C0005012910000148C00C0158700B0178200E0
:1018D000B0197D00D01B7800001E730040206E0000
:1018E00090226900F024640040275F0090295A008C
:1018F000E02B5500102E500020304B0010324600D7
:10190000E033410090353C0010373700703832002A
:10191000A0392D00B03A2800A03B2300603C1E00F7
:10192000103D1900903D1400103E0F00703E0A005B
:10193000C03E0500003F0000403FFBFF803FF6FF38
:10194000C03FF1FF45312045727220544845524D49
:10195000495155450045727220544845524D4951F0
:101960005545204C495400546865726D616C205295
:10197000756E61776179004531204572722054455A
:101980004D502E204D4158004572722054454D5007
:101990002E204D4158204C4954004D415854454D3E
:1019A000502074726967676572656400453120452F
:1019B00072722054454D502E204D494E0045727292
:1019C0002054454D502E204D494E204C4954004D39
:1019D000494E54454D50207472696767657265645D
:1019E000004D383420582059205A204500202F001F
:1019F0002042403A0020403A0024F4D43050C38EB4
:101A000020C2A24017828B7011127A910D816CD97D
:101A10000AA861E108C7586607615143061E4B5D7D
:101A200005C145A7041A411104093D9803713931D4
:101A3000034036DB0265339102D4305402802E1D00
:101A400002632CEE01752AC501B028A00110278180
:101A5000018F2564012B244B01E0223401AC211FAE
:101A6000018D200D01801FFC00841EED00971DDFFD
:101A700000B81CD200E61BC600201BBC00641AB2D2
:101A800000B219A8000A19A0006A189900D117918C
:101A90000040178B00B516840031167E00B315790F
:101AA000003A157300C7146F0058146A00EE1366ED
:101AB000008813630025135E00C7125B006C125789
:101AC0000015125400C111510070114F0021114B2B
:101AD00000D61049008D1047004610440002104205
:101AE00000C00F4000800F3E00420F3C00060F3B3D
:101AF00000CB0E3800930E37005C0E3500270E34F5
:101B000000F30D3200C10D3100900D3000600D2E3C
:101B100000320D2D00050D2C00D90C2B00AE0C2928
:101B200000850C29005C0C2700350C27000E0C26C4
:101B300000E80B2400C40B2400A00B23007D0B2322
:101B4000005A0B2100390B2100180B2000F80A1F46
:101B500000D90A1E00BB0A1E009D0A1D00800A1D36
:101B600000630A1C00470A1B002C0A1B00110A1AFA
:101B700000F7091A00DD091900C4091900AB091999
:101B800000920917007B091800630917004C091619
:101B90000036091600200916000A091500F5081577
:101BA00000E0081400CC081400B8081400A40814BD
:101BB00000900813007D0812006B081300580812EB
:101BC0000046081200340811002308110012081101
:101BD0000001081100F0071000E0071000D0071006
:101BE00000C0071000B0070F00A107100091070EFA
:101BF0000083070F0074070F0065070E0057070EDC
:101C00000049070E003B070D002E070E0020070DB0
:101C10000013070D0006070D00F9060C00ED060D78
:101C200000E0060C00D4060C00C8060C00BC060C34
:101C300000B0060C00A4060B0099060C008D060BE4
:101C40000082060B0077060B006C060B0061060A8B
:101C50000057060B004C060A0042060A0038060A26
:101C6000002E060A0024060A001A060A00100609B9
:101C70000007060A00FD050900F4050900EB050947
:101C800000E2050900D9050900D0050900C70509CA
:101C900000BE050900B5050800AD050800A5050949
:101CA000009C050800940508008C050800840508C0
:101CB000007C050800740508006C05070065050830
:101CC000005D050700560508004E0507004705079B
:101CD000004005080038050700310507002A050700
:101CE00000230507001C050600160507000F050761
:101CF000000805060002050700FB040600F50407BE
:101D000000EE040600E8040600E2040700DB040617
:101D100000D5040600CF040600C9040600C304066B
:101D200000BD040600B7040600B1040500AC0406BB
:101D300000A6040600A00405009B04060095040507
:101D400000900406008A040500850405008004064E
:101D5000007A04050075040500700405006B040595
:101D60000066040500610405005C040500570405D5
:101D700000520405004D0405004804050043040515
:101D8000003E0404003A0405003504050030040454
:101D9000002C04050027040400230405001E04048D
:101DA000001A04040016040500110404000D0404C4
:101DB00000090405000404040000040400FC0304FA
:101DC00000F8030400F4030400F0030400EC03042F
:101DD00000E8030400E4030400E0030400DC03045F
:101DE00000D8030400D4030400D0030400CC03048F
:101DF00000C8030300C503030024F404D9201BC456
:101E00000C5C0E9804C4095F0265077101F405F9C2
:101E100000FB04B30048048700C103690058035560
:101E20000003034500BE023A008402310053022A37
:101E3000002902250004022000E4011C00C8011949
:101E400000AF011700980114008401130071011004
:101E5000006101100051010E0043010D0036010B1D
:101E6000002B010B0020010B00150109000C0109DA
:101E70000003010800FB000800F3000800EB000766
:101E800000E4000600DE000600D8000600D20006CE
:101E900000CC000500C7000500C2000500BD00041D
:101EA00000B9000400B5000400B1000400AD000456
:101EB00000A9000400A5000300A20003009F000485
:101EC000009B0003009800030095000200930003AC
:101ED00000900003008D0002008B000300880002C8
:101EE000008600020084000300810002007F0002DF
:101EF000007D0002007B00020079000200770001F3
:101F000000760002007400020072000100710002FD
:101F1000006F0002006D0001006C0002006A000109
:101F20000069000200670001006600010065000111
:101F30000064000200620001006100010060000115
:101F4000005F0002005D0001005C0001005B000119
:101F5000005A00010059000100580001005700011B
:101F6000005600010055000100540001005300001C
:101F70000053000100520001005100010050000117
:101F8000004F0001004E0000004E0001004D000116
:101F9000004C0001004B0000004B0001004A000112
:101FA000004900010048000000480001004700010E
:101FB0000046000000460001004500000045000109
:101FC0000044000100430000004300010042000003
:101FD00000420001004100000041000100400001FA
:101FE000003F0000003F0001003E0000003E0001F5
:101FF000003D0000003D0001003C0000003C0000EE
:10200000003C0001003B0000003B0001003A0000E2
:10201000003A0001003900000039000100380000DA
:1020200000380000003800010037000000370001D0
:1020300000360000003600000036000100350000C8
:1020400000350000003500010034000000340000BD
:1020500000340001003300000033000000330001B1
:1020600000320000003200000032000100310000A8
:10207000003100000031000100300000003000009D
:1020800000300001002F0000002F0000002F000092
:10209000002F0001002E0000002E0000002E000185
:1020A000002D0000002D0000002D0000002D00017B
:1020B000002C0000002C0000002C0000002C00016F
:1020C000002B0000002B0000002B0000002B000163
:1020D000002A0000002A0000002A0000002A000157
:1020E000002900000029000000290000002900004C
:1020F000002900010028000000280000002800003E
:102100000028000000280001002700000027000030
:102110000027000000270000002700010026000023
:102120000026000000260000002600000026000116
:10213000002500000025000000250000002500000B
:1021400000250000002500010024000000240000FC
:1021500000240000002400000024000100230000EF
:1021600000230000002300000023000000230000E3
:1021700000230000002300010022000000220000D4
:1021800000220000002200000022000000220001C6
:1021900000210000002100000021000000210000BB
:1021A00000210000002100000021000100200000AB
:1021B000002000000020000000200000002000009F
:1021C000002000000020000000200001001F00008F
:1021D000001F0000001F0000001F0000001F000083
:1021E000001F0000001F0001001E0000001E000074
:1021F000001E0000001E000000043700001E290021
:1022000000511B00005810000010090000CC040011
:10221000007802000041010000FFFFE7FFFC00031F
:10222000FFFC0FFFC0FFFCFFFFE7FFFE0003FFFE08
:102230001FFFE1FFFEFFFFE7FFFE0003FFFF3FFF81
:10224000F3FFFF00E007000E000000073800738076
:102250000700E007000E3FF000073800738007001A
:10226000E007FFFE3FF3FFFF380073800700E00741
:10227000FFFC3FF3FFFF380073800700E007FFFE1D
:102280003FF3FFFF380073800700E007000E0000F7
:102290000007380073800700E007000E0000000709
:1022A000380073800700E007000F0003FFFF3FFFC7
:1022B000F3FFFF00E007000F0003FFFE1FFFE1FF39
:1022C000FE00E007000F0003FFFC0FFFC0FFFC0053
:1022D00000000000000000000000000000000000FE
:1022E0000000000000000000000000FFFFFFFFFFF3
:1022F000FFFFFFFFFFFFFFFFFFFFFFFFFFFFFFFFEE
:10230000FFFFFFFFFFFFFF2020506C616E6E6572C4
:1023100042756666657242797465733A200020469C
:10232000726565204D656D6F72793A2000436F6D5F
:1023300070696C65643A2041756720313220323013
:1023400031390A00207C20417574686F723A202868
:1023500074726F7563682C204372656177736F6D5B
:102360006520436F726520322E30290A00323031E9
:10237000392D30382D303800204C61737420557061
:1023800064617465643A2000322E302E302D524341
:10239000300A004D61726C696E0020536F6674776D
:1023A0006172652052657365740A00205761746319
:1023B00068646F672052657365740A002042726F0B
:1023C000776E206F75742052657365740A0020451E
:1023D000787465726E616C2052657365740A005082
:1023E0006F77657255700A0073746172740A0061C8
:1023F00075746F25632E67006572726F7220777235
:102400006974696E6720746F2066696C650A0044A0
:102410006F6E6520736176696E672066696C652EE4
:102420000A004D323900427574C3A96573202563D3
:1024300020256320256320256300205A3A00205977
:102440003A0020583A00656E6473746F70732068A8
:1024500069743A2000473238585900220A00556EF4
:102460006B6E6F776E20636F6D6D616E643A2022C4
:102470000020636F6C6420657874727573696F6E89
:102480002070726576656E7465640A005665206A10
:1024900065726B005665206A65726B00567A206A19
:1024A00065726B00567A206A65726B005679206AF5
:1024B00065726B005679206A65726B005678206AE7
:1024C00065726B005678206A65726B00436F6E66AA
:1024D00069672E206176616E63C3A965004520702F
:1024E00061732F6D6D0045207061732F6D6D005A03
:1024F000207061732F6D6D005A207061732F6D6DA8
:102500000059207061732F6D6D0059207061732F19
:102510006D6D0058207061732F6D6D0058207061D3
:10252000732F6D6D00436F6E6669672E2061766153
:102530006E63C3A965003F00496E697469616C6987
:1025400073657220454550524F4D00416E6E756C5B
:10255000657200496E69742E004D34323800496E40
:10256000697469616C6973657220454550524F4DBD
:102570000046696C616D656E740054656D70C3A929
:10258000726174757265005061732F6D6D004A65DC
:10259000726B00416363C3A96CC3A9726174696FF4
:1025A0006E0056C3A96C6F636974C3A90052C3A9B6
:1025B000676C2E2064C3A963616C206F72696769C0
:1025C0006E6500436F6E66696775726174696F6EE0
:1025D00000456E72656769737472657220636F6E11
:1025E0006669672E004C6974004C6974004275730B
:1025F000650042757365005669746573736520766E
:10260000656E74696C2E0056697465737365207607
:10261000656E74696C2E00436F6E666967757261D2
:1026200074696F6E004469616DC3A8747265206639
:10263000696C2E004469616DC3A874726520666977
:102640006C2E00417272C3AA74004D61726368659A
:10265000004520656E206D6D3300436F6E666967BF
:102660002E206176616E63C3A96500082046616310
:1026700074657572000820466163746575720008A0
:10268000204D61780008204D61780008204D696E6A
:102690000008204D696E00417272C3AA74004D613A
:1026A000726368650054656D702E204175746F2EDD
:1026B00000436F6E6669672E206176616E63C3A901
:1026C000650025753A2530327500253032753A257A
:1026D0003032750025756420253032753A25303248
:1026E0007500202020202020200020202020001FF6
:1026F000E02010201020101020102020102010307A
:10270000300840048003001FE03FF03FF03FF01F1F
:10271000E01FE03FF03FF03FF00FC0078003003FB5
:10272000FFF038007030FC3020FC10207810203092
:10273000102C00D02E31D02F7BD02F7BD02E31D03B
:102740002C00D020301020781020FC1030FC3038C5
:1027500000703FFFF03FFFF0380070318630238774
:10276000102787902F87D02F03D02030102078108B
:102770002078102030102F03D02F87D02787902368
:1027800087103186303800703FFFF01FFFF81FFFC1
:10279000F80410400208200208200410400820809D
:1027A0001041001041000820800410400000001F6C
:1027B000FFF81FFFF8562064C3A9706C2E206D69C6
:1027C0006E00562064C3A9706C2E206D696E005691
:1027D0006D696E2000566D696E2000566D6178201F
:1027E0004500566D6178204500566D6178205A008D
:1027F000566D6178205A00566D6178205900566DEB
:102800006178205900566D6178205800566D6178C6
:10281000205800436F6E6669672E206176616E6393
:10282000C3A96500416D6178204500416D61782044
:102830004500416D6178205A00416D6178205A0051
:10284000416D6178205900416D6178205900416DDA
:102850006178205800416D6178205800412064C3A0
:10286000A9706C2E00412064C3A9706C2E00412019
:102870007265747261697400412072657472616975
:102880007400416363C3A96CC3A9726174696F6EFC
:1028900000416363C3A96CC3A9726174696F6E0060
:1028A000436F6E6669672E206176616E63C3A965AA
:1028B000005072C3A963682E20504C41206275738A
:1028C00065005072C3A963682E20504C41206C698A
:1028D00074005072C3A9636861756666616765209C
:1028E000504C410054656D70C3A972617475726576
:1028F000005072C3A963682E20504554472062756A
:102900007365005072C3A963682E20504554472058
:102910006C6974005072C3A963686175666661670B
:102920006520504554470054656D70C3A9726174A9
:1029300075726500526566726F69646972005072E3
:10294000C3A9636861756666616765205045544731
:10295000005072C3A963686175666661676520503F
:102960004C4100566974657373652076656E7469B1
:102970006C2E00566974657373652076656E746994
:102980006C2E004C6974004C6974004275736500CC
:1029900042757365004D656E75207072696E63696E
:1029A00070616C00466C757800466C7578005669ED
:1029B00074657373652076656E74696C2E00566954
:1029C00074657373652076656E74696C2E004C694E
:1029D00074004C697400427573650042757365003C
:1029E0005669746573736500566974657373650021
:1029F0004D656E75207072696E636970616C00451B
:102A00004550524F4D206461746173697A65206549
:102A100072726F722E0A00290A002062797465733F
:102A20003B2063726320002073746F7265642073AF
:102A3000657474696E677320726574726965766512
:102A400064202800202863616C63756C6174656480
:102A500029210A0020213D2000454550524F4D209C
:102A6000435243206D69736D61746368202D202883
:102A700073746F7265642920002053697A653A2067
:102A800000496E6465783A2000204D61726C696E71
:102A90003D563638290A00454550524F4D2076653F
:102AA0007273696F6E206D69736D6174636820283D
:102AB000454550524F4D3D0048617264636F6465F7
:102AC000642044656661756C742053657474696E26
:102AD0006773204C6F616465640A00F4010000F4C0
:102AE00001000064000000881300000000FA4300A9
:102AF00000FA430000A040000048420000A042004D
:102B000000A0420000C8430080CF436F70656E0094
:102B1000545249474745524544003A20007A5F6D78
:102B2000696E00795F6D696E00785F6D696E005245
:102B300065706F7274696E6720656E6473746F7010
:102B4000207374617475730A0043686172676572FB
:102B500020636F6E6669672E0052657374617572CB
:102B600065722064C3A9666175747300456E7265F1
:102B70006769737472657220636F6E6669672E0091
:102B800052C3A9676C6572207072C3A963682E2056
:102B9000504554470052C3A9676C6572207072C3D8
:102BA000A963682E20504C410044C3A963616C6145
:102BB0006765205A0044C3A963616C616765205A48
:102BC00000436F6E6669672E206176616E63C3A9EC
:102BD00065004D656E75207072696E636970616C19
:102BE000003F00417272C3AA74657220696D7072F1
:102BF0002E005265746F75720053746F70004D3201
:102C00003500496D70722E20656E20706175736598
:102C100000506175736520696D7072657373696FBB
:102C20006E004D323400496E69742E206C61206351
:102C300061727465205344004D323100496D7072E9
:102C4000657373696F6E20534400526574697265D1
:102C500072206361727465205344004D3232004328
:102C60006F6E66696775726174696F6E0054656D29
:102C700070C3A9726174757265004D6F7576656D6C
:102C8000656E740052657072656E64726520696D60
:102C900070722E004361727465206C6962C3A97200
:102CA000C3A9650052C3A9676C657200417272C303
:102CB000AA74657220696D70722E0050617573651B
:102CC00020696D7072657373696F6E0053757276EB
:102CD00065696C6C657200456368656320736F6E2F
:102CE00064650A00456368656320736F6E64650000
:102CF0004F726967696E65202573257325732050AF
:102D000072656D69657200205072656D6965720A41
:102D1000004F726967696E65200044C3A9706C61D9
:102D200063657220580044C3A9706C6163657220AA
:102D3000590044C3A9706C61636572205A004578DC
:102D40007472756465757200457874727564657522
:102D5000720044C3A9706C61636572205A0044C359
:102D6000A9706C6163657220590044C3A9706C61DD
:102D70006365722058004D6F7576656D656E7400E1
:102D8000417272C3AA746572206D6F746575727337
:102D9000004D38340048617574657572206C697334
:102DA00073C3A9650048617574657572206C697399
:102DB00073C3A96500417272C3AA74004D61726346
:102DC00068650052C3A9676C6572204E69762E2033
:102DD0006C6974004E6976656175206475206C6954
:102DE00074004732380A473239004F726967696E9A
:102DF00065206175746F004732380044C3A9706C58
:102E00006163657220756E20617865004D656E7531
:102E1000207072696E636970616C003F0044C3A9E1
:102E20006D617272657220696D7072657373696F1E
:102E30006E2000416E6E756C657200496D7072692E
:102E40006D65720043616E6E6F7420656E7465729D
:102E5000207375626469723A2000022E2E000141CF
:102E6000637475616C69736572004D656E75207071
:102E700072696E636970616C002E0A006F70656E16
:102E8000206661696C65642C2046696C653A200097
:102E90004361703A00220A00656E71756575656957
:102EA0006E672022006F6B00526573656E643A2076
:102EB0000053544F5050C389005072696E7465724C
:102EC0002073746F707065642064756520746F2062
:102ED0006572726F72732E2046697820746865205F
:102EE0006572726F7220616E6420757365204D3952
:102EF000393920746F20726573746172742E2028C2
:102F000054656D70657261747572652069732072A5
:102F1000657365742E20536574206974206166742E
:102F200065722072657374617274696E67290A0034
:102F30004E6F20436865636B73756D2077697468A5
:102F4000206C696E65206E756D6265722C204C6117
:102F50007374204C696E653A20004E6F204368659B
:102F6000636B73756D2077697468206C696E65207A
:102F70006E756D6265722C204C617374204C696EA5
:102F8000653A2000636865636B73756D206D6973C6
:102F90006D617463682C204C617374204C696E659C
:102FA0003A20004C696E65204E756D62657220692D
:102FB00073206E6F74204C617374204C696E6520B1
:102FC0004E756D6265722B312C204C617374204CF0
:102FD000696E653A20004D313130004D3131370096
:102FE0004D33310053442072656164206572726F05
:102FF000720A00446F6E65207072696E74696E6744
:103000002066696C650A004F46460A0046616465A1
:10301000204865696768742000426564204C6576C5
:10302000656C696E6720004661696C656420746F29
:1030300020656E61626C6520426564204C65766532
:103040006C696E670A00496E76616C6964206D6513
:1030500073682E0A004731205831313720593233F6
:1030600034204636303030004D65737572652070FF
:103070006F696E742025692F2569002E0A002F00C4
:1030800050726F62696E67206D65736820706F693A
:103090006E742000202844525952554E2900473260
:1030A00039204175746F20426564204C6576656CEB
:1030B000696E67003F20284C2C522C462C42292058
:1030C0006F7574206F6620626F756E64732E0A00D0
:1030D0003F2856296572626F7365206C6576656C52
:1030E00020697320696D706C61757369626C65200D
:1030F00028302D34292E0A00426164205A2076613E
:103100006C75650A004E6F2062696C696E6561724C
:1031100020677269640A0020496E76616C696420D8
:1031200065787472756465722000000021002400C7
:1031300027002A0000002200250028002B000000A4
:1031400020002300260029000202020202020202DD
:103150000404040404040404030303030303030337
:103160000101010101010101010204081020408058
:103170000102040810204080010204081020408051
:103180008040201008040201000000010200090A2A
:103190000000000004030807000000000000000019
:1031A000000000000000000044C3A9706C6163656A
:1031B0007220302E316D6D0044C3A9706C6163655F
:1031C0007220316D6D0044C3A9706C61636572201B
:1031D00031306D6D0044C3A9706C616365722075F8
:1031E0006E2061786500427573652074726F70207F
:1031F00066726F696465004578747275646575728E
:103200000044C3A9706C61636572205A0044C3A96D
:10321000706C6163657220590044C3A9706C61636E
:103220006572205800436172746520696E73C3A98A
:1032300072C3A9650000CAEACDE311241FBECFEF17
:10324000D0E4DEBFCDBF12E0A0E0B1E0E2EDFEEEE3
:1032500001E00BBF02C007900D92A037B107D9F76C
:1032600023E1A0E7B2E001C01D92A438B207E1F764
:1032700019E1CCE1D9E104C02197FE010E94B2F42A
:10328000CB31D107C9F70E9417E40C945CF70C947A
:1032900000002F923F924F925F926F927F928F9297
:1032A0009F92AF92BF92CF92DF92EF92FF920F93D5
:1032B0001F93CF93DF93CDB7DEB7EC970FB6F8949B
:1032C000DEBF0FBECDBF8CAF20917D022AAF21E0C3
:1032D00020937D02809152128D3409F467C38435A6
:1032E00011F40C94CD2C873411F00C94E82C8091BF
:1032F0005012909151128D31910509F405C18CF451
:103300008430910509F4B2C01CF4029790F14AC3CD
:103310008531910511F40C94EA2C4C9709F4E4C022
:1033200041C38A35910509F4C1C144F48E31910538
:1033300009F4FEC08A9709F473C234C38B35910532
:1033400009F4B8C18C35910509F02CC36FE6262E1F
:1033500061E0362E73ECE72E72E0F72EA0E3B6E0C4
:10336000B9A3A8A3EAEACE2EECE0DE2E00E010E03E
:10337000E1C180913001882311F40C94EA2CAFE66E
:103380008A2EA1E09A2EBFECEB2EB2E0FB2E00E3DA
:1033900016E08AEAA82E8CE0B82E9EE7C92E92E0AD
:1033A000D92E712CD4018D914D010E94703088234B
:1033B00019F10E94F02FF6012081211104C0209103
:1033C0008202222341F0D8012D913D914D915C91D3
:1033D0000E94C4F40AC0B3E07B1639F0F5012081E5
:1033E0003181428153810E94C3F4D7016D937D9353
:1033F0008D939C9313970AC0F80180819181A281DB
:10340000B381F70180839183A283B3837394F4E043
:10341000EF0EF11C0C5F1F4F24E0A20EB11C3FEF1A
:10342000C31AD30A44E07412BDCF40E050E0BA01A1
:1034300086E40E94A03F20E030E0A9010E9447F608
:10344000181684F40E94F02F20E030E040E752E4A8
:103450000E9447F560935B0170935C0180935D016E
:1034600090935E010E94294A0C94EA2C80E50E9408
:103470007030882329F00E9482D66B017C0103C042
:10348000C12CD12C760183E50E947030882361F035
:103490000E94F02F20E030E04AE754E40E9482F0DE
:1034A0000E94C0F56B017C010E9460468091040679
:1034B000811105C060E08DE791E00E94BF6B0E9422
:1034C0009DE0C60ED71EE81EF91E0E949DE0DC019D
:1034D000CB018C199D09AE09BF09B7FD02C00C9440
:1034E000EA2C0E944137F1CF8091BA0C8770873067
:1034F00011F00C940B2D60E08FE40E9491D88111A3
:103500000C94EA2C0C940B2D0E9445BD81110C9457
:10351000EA2C80914006882311F40C94DF2D60E0A2
:103520008FE40E9491D881110C94EA2C0C94DF2D29
:1035300020E030E044E352E46091300670913106BF
:1035400080913206909133060E94C3F4AB01BC0116
:1035500088E50E94A03F6C8F7D8F8E8F9F8F20E02B
:1035600030E040EE50E46091340670913506809171
:103570003606909137060E94C3F4AB01BC0189E581
:103580000E94A03F9B01AC0169837A838B839C835B
:103590006C8D7D8D8E8D9F8D0E94ACD0882311F413
:1035A0000C94EA2C80E00E9496320E947D4D61E0EE
:1035B00085E40E9491D8182F21E0482FBE016F5F4B
:1035C0007F4FCE014C960E94A0BD6B017C019B01F8
:1035D000AC010E94C5F681115FC08C8C9D8CAE8CB5
:1035E000BF8C20E030E0A901C501B4010E941CF0AD
:1035F00087FF05C027E137EB41E558EB04C027E121
:1036000037EB41E558E3C501B4010E94C4F4AB01B6
:10361000BC0187EB91E00E94893B89809A80AB8056
:10362000BC8020E030E0A901C501B4010E941CF07B
:1036300087FF05C027E137EB41E558EB04C027E1E0
:1036400037EB41E558E3C501B4010E94C4F4AB0176
:10365000BC0182EB91E00E94893B20E030E0A901AF
:10366000C701B6010E941CF087FF05C027E137EBB8
:1036700041E558EB04C027E137EB41E558E3C701CA
:10368000B6010E94C4F4AB01BC018DEA91E00E9436
:10369000893B8AE00E9461360E94644D113011F42A
:1036A0000E94387E0E9435500C94EA2C10928202BF
:1036B0000C94EA2C209382020C94EA2C0E94F02FA6
:1036C0002B013C01133049F0D6012D913D914D91D4
:1036D0005C910E94C3F42B013C01E8A1F9A1208177
:1036E000318142815381C301B2010E94C3F44B0175
:1036F0005C012DEB37E346E855EB0E9447F687FD6A
:1037000021C02DEB37E346E855E3C501B4010E9423
:103710001CF01816BCF01F5FF4E0EF0EF11C28A19E
:1037200039A12C5F3F4F39A328A334E0C30ED11C2D
:10373000143031F1F10181911F010E947030882312
:1037400051F3BCCF133051F440923C0650923D06E9
:1037500060923E0670923F0601E0DDCFA501940124
:10376000D7016D917D918D919C910E94C4F4F701D8
:103770006083718382839383812F0E94094ACBCF18
:10378000002309F449C02091650B3091660B4091EC
:10379000670B5091680B60913C0670913D068091DB
:1037A0003E0690913F060E9482F00E944CF6609384
:1037B0006B0F70936C0F80936D0F90936E0F9091C1
:1037C000490F80914A0F981719F00E94024624C0B1
:1037D0000E94604680916F00982F927081FF05C013
:1037E00080916F008D7F80936F0040916B0F50919F
:1037F0006C0F60916D0F70916E0F4093C0035093EA
:10380000C1036093C2037093C303992329F080918D
:103810006F00826080936F000E9435500C94EA2CF8
:1038200080913001882311F40C94EA2C89E40E94E1
:103830007030082F882321F00E94A6D8E82E01C0FE
:10384000E12C8AE40E947030182F882321F00E9416
:10385000A6D8F82E01C0F12C002319F044E04E1533
:1038600028F0112349F054E05F1530F48FEB91E01C
:103870000E9468360C94EA2C80E1E0E3F6E0AFECBD
:10388000B2E001900D928A95E1F70023F1F02091CA
:10389000450C3091460C4E2D4203B001439F700DF4
:1038A00011248091410C9091420C680F791F072ED2
:1038B000000C880B990B0E9423F06093CF02709349
:1038C000D0028093D1029093D2021123F1F0209183
:1038D000470C3091480C5F2D5203B001539F700D7F
:1038E00011248091430C9091440C680F791F072E8E
:1038F000000C880B990B0E9423F06093D302709305
:10390000D4028093D5029093D60260E080E50E94B5
:1039100091D8882381F10023B1F020E030E044E326
:1039200052E46091CF027091D0028091D1029091C7
:10393000D2020E94C4F46093CF027093D0028093AD
:10394000D1029093D2021123B1F020E030E040EE9A
:1039500050E46091D3027091D4028091D50290918D
:10396000D6020E94C4F46093D3027093D402809371
:10397000D5029093D60240E050E0BA0186E40E945E
:10398000A03F6B017C0120E030E0A9010E9447F6D6
:1039900018160CF067CD20E030E040E752E4C70194
:1039A000B60156CD0E9474900C94EA2C809150126E
:1039B000909151128337910511F40C948D260CF0DF
:1039C000B5C08B34910509F490C40CF053C0893113
:1039D000910509F483C224F58431910509F427C2C5
:1039E00084F48131910509F417C22CF4029708F48C
:1039F00098C10C94CA2C429711F40C9472250C9423
:103A0000CA2C8631910509F43CC20CF436C28731C8
:103A1000910509F43FC2489709F454C20C94CA2C8A
:103A20008E31910509F4DEC2ACF48B31910509F4B5
:103A30007CC20CF46CC28C31910509F4C9C24D975B
:103A400011F00C94CA2C8091E8108E7F8093E810BE
:103A50000C94EA2C8032910509F423C30CF467C35B
:103A60008A32910509F40EC48934910509F42EC4F3
:103A70000C94CA2C8936910509F4BAC76CF58335C4
:103A8000910511F40C946F25A4F48D34910509F47B
:103A900045C40CF42EC48135910511F40C945B25BA
:103AA0008235910511F00C94CA2C109281020C946D
:103AB000EA2C8535910511F40C94A52514F40C9489
:103AC00072258C35910511F40C94BE25883691052C
:103AD00009F428C40C94CA2C8E36910509F4E3C568
:103AE00084F48B36910509F4DBC70CF4BAC78C3625
:103AF000910509F430C68D36910509F437C40C944C
:103B0000CA2C8037910509F42CC60CF4DFC5813727
:103B1000910509F42EC68237910511F00C94CA2C38
:103B20000E9460460E9435500C94EA2C8C32A1E031
:103B30009A0711F40C94F3290CF07AC0883C910593
:103B400011F40C949D27E4F58937910511F40C9438
:103B50003B2704F58637910511F40C9406273CF4B5
:103B60008537910511F40C94F6260C94CA2C8737EE
:103B7000910511F40C9438278837910511F00C94B5
:103B8000CA2C81E080936B0480936A040E9495AFF5
:103B90000C94EA2C8139910511F40C94422734F4E9
:103BA0008C38910509F40AC60C94CA2C8B399105FE
:103BB00009F431C78E3B910509F41EC60C94CA2C3A
:103BC0008E3C910511F40C946D28CCF48B3C91053E
:103BD00011F40C940D283CF4893C910511F40C94DB
:103BE000EA270C94CA2C8C3C910511F40C942C28D7
:103BF0008D3C910511F40C945D280C94CA2C8C3DDD
:103C0000910511F40C9445293CF4833D910511F480
:103C10000C948F280C94CA2C8D3D910511F40C94B2
:103C20005229823E910511F40C94A8290C94CA2CB7
:103C3000853AE1E09E0711F40C94532BA4F58039EA
:103C400021E0920711F40C94422BB4F48E3241E03F
:103C5000940711F40C94FB2A14F40C94082A8F3264
:103C6000A1E09A0711F40C943F2B8033914011F49A
:103C70000C94882A0C94CA2C8239E1E09E0711F436
:103C80000C944B2B14F40C94452B8A3921E09207A9
:103C900009F46BC5843A914011F00C94CA2C0E942F
:103CA000EBD60C94EA2C883F41E0940711F40C9475
:103CB000672CECF4843FA1E09A0711F40C94612C7A
:103CC0003CF48C3A914011F40C94BC2B0C94CA2C0B
:103CD000853FF1E09F0711F40C94642C863F9140DE
:103CE00011F00C94CA2C0E94A4AF0C94EA2C8335DA
:103CF00033E0930711F40C947F2C3CF48C30924009
:103D000011F40C94772C0C94CA2C803AA3E09A07F7
:103D100009F4FDC1873E934011F40C94BC2C0C9423
:103D2000CA2CA0904E12B0904F1280E50E947030C5
:103D3000882359F00E9482D66B017C0111E0672B29
:103D4000682B692B31F410E004C010E0C12CD12C99
:103D5000760183E50E947030882311F40C94E22DE3
:103D60000E94F02F20E030E04AE754E40E9482F005
:103D70000E94C0F56B017C0111110BC0672B682BF1
:103D8000692B39F4A114B10421F0F501808181116E
:103D900002C010E001C011E00E946046112329F02A
:103DA00061E0C5010E940B6C05C060E08EED91E002
:103DB0000E94BF6B10917D0283E080937D0281E0C1
:103DC00080938A03C114D104E104F104B1F00E948C
:103DD0009DE0C60ED71EE81EF91E0E949DE0DC0184
:103DE000CB018C199D09AE09BF09B7FF0DC08091A9
:103DF0008A0381110C94E72D07C080918A038823E0
:103E000019F00E944137F9CF0E94316C10928A0359
:103E100010937D020C94EA2C60E08EEE91E00E94FB
:103E2000BF6B5E985E9815985E980C94EA2C8EE0B5
:103E300092E00E946836109281038BE29FE00E941C
:103E4000605B8BE1EBE2FFE0DE01119601900D92E9
:103E50008A95E1F740E050E0BE016F5F7F4F80E060
:103E600090E00E947A54CE0101960E94965C8FEFFA
:103E700091E00E9468360C94EA2C0E9461530C94E5
:103E8000EA2C0E94F2528091E810877F8093E8101C
:103E90000C94EA2CE0914E12F0914F12808188230D
:103EA00029F0803209F410823196F8CF40E061E0C9
:103EB00080914E1290914F120E9418561092C40B8E
:103EC0000C94EA2C0E944745882321F00E9401535C
:103ED0000E945F660E94316C0C94EA2C8091E8107D
:103EE00082FF03C08B7F8093E81080918F03813025
:103EF00089F782E080938F030E949DE060938B039B
:103F000070938C0380938D0390938E03E3CF809105
:103F1000E81083FD02C00C94EA2C83E50E94703007
:103F200081110C94EB2D0C94EA2C83E40E94273031
:103F3000882319F189E292E00E9468368091D50EBB
:103F4000882391F0BE016F5F7F4F82ED9EE00E945B
:103F5000275A8E010F5F1F4FD8018D918D01882345
:103F600039F00E946136F8CF8FE192E00E94683606
:103F70008AE00E9461360C94EA2C8091E81082FF5E
:103F800021C088E392E00E9468366091E41070914D
:103F9000E5108091E6109091E7104AE00E94D53933
:103FA0008FE20E9461366091E0107091E110809183
:103FB000E2109091E3104AE00E94D5390E949A3BAA
:103FC0000C94EA2C8AE492E00E9468360C94EA2C65
:103FD00040E060E080914E1290914F120E9418567E
:103FE0000C94EA2C8091E81083FD02C00C94EA2C1A
:103FF0000E945D908091E81083FD02C00C94EA2C31
:1040000060914E1270914F12CE014C960E94B3CA2D
:104010008C01009711F40C94EA2C6C8D7D8D198223
:104020001C8222E0AC01CE0101960E9479608111D0
:1040300002C0F12C14C0CE0101960E9421CA88232F
:10404000C1F361E0CE0101960E940B5A009789F3FB
:1040500025EEFC0120831C820E941A5CF82ECE0102
:1040600001960E94965CB801FF2089F086E792E0F5
:104070000E9477368AE00E9461361092E410109216
:10408000E5101092E6101092E7100C94EA2C8EE5E1
:1040900092E00E9477368BE592E00E9468360C949D
:1040A000EA2C8091E81082FD0E9460468091E81021
:1040B00083FD02C00C94EA2C60E080E50E9491D858
:1040C000182F482F61E080914E1290914F120E945C
:1040D000185683E50E947030882381F00E94E02FFB
:1040E000AB01BC014093E4105093E5106093E610DF
:1040F0007093E71082ED9EE00E9421590E940153C7
:1041000011110C94EA2C0E945F660C94EA2C209109
:104110004E1230914F129091E81092609093E810F7
:1041200040E060E0C9010E9418560C94EA2C0E94FD
:1041300010667B018C0120E831E541E050E00E94EF
:1041400023F4C9016DE671E00E946BF44B015C0140
:10415000C801B70120E13EE040E050E00E9423F4B6
:10416000CA01B90128E130E040E050E00E9423F4A8
:10417000762E672EC62ED72E5CE3252E312C412CB1
:10418000512CC801B701A20191010E9423F4F62E1F
:10419000E72ECA01B901A20191010E9423F4CB01CB
:1041A0008E010F5F1F4F8114910499F0EF92FF92DF
:1041B0007F936F936F927F92BF92AF929F928F92F5
:1041C0008CEA92E09F938F931F930F930E94B4EF1A
:1041D00013C0A114B104B1F0EF92FF927F936F93DB
:1041E0006F927F92BF92AF928CE992E09F938F93F0
:1041F0001F930F930E94B4EF0FB6F894DEBF0FBE6B
:10420000CDBF30C0CD2879F0EF92FF927F936F93AE
:104210006F927F9280E992E09F938F931F930F9309
:104220000E94B4EFE9CF892B69F0EF92FF927F9360
:104230006F9388E892E09F938F931F930F930E9450
:10424000B4EFDACFEF92FF9284E892E09F938F93DE
:104250001F930F930E94B4EF0F900F900F900F9049
:104260000F900F9060E0C8010E940B6C0E948E3688
:10427000B80180EC92E00E9477368AE00E946136B5
:104280000C94EA2C83E50E947030882311F40C947E
:10429000EA2C0E9492D6F82E6FEF7FEF80E50E9405
:1042A000AAD88C0197FF02C00C94EA2CE82E60E09B
:1042B00089E40E9491D881110C94FC2D802F0E94DA
:1042C000A8E381110C94C5290C94FC2D80E50E9473
:1042D0002730882311F40C94EA2C8091E81082FF97
:1042E00002C00C94EA2C0C940F2E0E945F660C9472
:1042F000EA2C80918F03813011F00C94EA2C82E03B
:1043000080938F030E949DE060938B0370938C03D6
:1043100080938D0390938E030C94EA2C0E94836605
:104320000C94EA2C8091440B83FF02C00C94EA2C7D
:104330000E94A6D687FF02C00C94EA2C83E50E9457
:104340007030882379F00E94F02F0E94B9F58B011C
:10435000CB010E946A610635110524F40E94836630
:104360000E94316C0E94E7E30C94EA2C8091440B8C
:1043700083FF02C00C94EA2C0E94A6D68EA787FF6A
:1043800002C00C94EA2C83E50E94703088A381114E
:1043900006C082E50E947030182F8823C9F10E9460
:1043A000F02F0E94B9F5CB010E946A610E94F02FA4
:1043B00020E030E04AEA52E40E941CF0181614F49F
:1043C0000C941A2E0E9483660E94316C60918306C1
:1043D00070918406072E000C880B990B0E9423F025
:1043E0006B017C0180907F0690908006A0908106F2
:1043F000B0908206A50194010E9447F6181614F4A5
:104400000C942D2EB8A1BB2311F40C941E2E11E098
:104410000E94E7E3112311F40C94EA2C81E08093CD
:104420004F011EA21FA218A619A61AAA1BAA1CAAEF
:104430001DAAE1E0EEAB1AA21FAAFCE3F8AF2CE143
:1044400029AF36E43BAFC12CD12C30E8E32E4FEB43
:10445000F42E812C912C5401609183067091840676
:10446000072E000C880B990B0E9423F0162F072FA4
:10447000782E692E9601A7010E941CF08823F1F086
:1044800020917F06309180064091810650918206EE
:1044900088A1612F702F811109C0872D962D0E9450
:1044A0001CF0881F8827881F8AA30CC0872D962D93
:1044B0000E941CF087FD92C21AA204C01C2D0D2D73
:1044C0007E2C6F2C0E949DE06B017C01DC01CB01F6
:1044D0002AA93BA94CA95DA9821B930BA40BB50B80
:1044E000B7FD33C0D701C60188519C4FAF4FBF4FB6
:1044F0008AAB9BABACABBDAB8EA50E94276D8DECA0
:1045000092E00E94683681149104A104B104B9F0CC
:10451000D501C401805F984DAF4FBF4FBC01CD01A5
:104520006C197D098E099F0928EE33E040E050E0C8
:104530000E9423F4CA01B9010E94603A03C08FE3CC
:104540000E9461368AE00E9461360E9441370E94D3
:104550009DE0609370027093710280937202909359
:10456000730290917F069AA7A0918006ABA7B091A5
:104570008106BCA7E0918206EDA7292F3A2F4B2F89
:104580005E2F612F702F872D962D0E94C3F41B0183
:104590002C0120E030E0A9010E9447F687FF04C00B
:1045A00057FA509457F8509481149104A104B1041F
:1045B000B1F420E030E040E85FE3C201B1010E94C5
:1045C0001CF087FF18C0FEA946015701FF2399F090
:1045D00020E1820E27E2921EA11CB11C0CC020E03B
:1045E00030E040E450E4C201B1010E9447F61816E1
:1045F00014F4460157013AA13323C1F18EA19FA1C2
:10460000A8A5B9A5892B8A2B8B2B61F0D701C601F0
:104610002EA13FA148A559A5821B930BA40BB50B56
:10462000B7FD24C02AA53BA54CA55DA56FA978AD13
:1046300089AD9BAD0E94C3F420E030E040EC5FE325
:104640000E941CF087FDCAC1D701C601805A95415E
:10465000AF4FBF4F8EA39FA3A8A7B9A79AA59FABA3
:10466000ABA5A8AFBCA5B9AFEDA5EBAF80914F014D
:10467000882309F4B3C181149104A104B10431F475
:104680001EAAC12ED02EE72CF62CE6CEF0E1CF1AD2
:10469000F7E2DF0AE108F108C818D908EA08FB08C0
:1046A000F7FCEECF9BC18EE40E947030882311F49A
:1046B0000C94EA2C0E94E02F6093D5127093D612CE
:1046C0008093D7129093D8120C94EA2C83E50E9421
:1046D0002730882331F060E083E50E94CFD68093B5
:1046E000440B0E948E3681E093E00E9468368091F0
:1046F000440B882369F127EFE22E22E0F22E00E03E
:1047000010E020E08091440B90E0A0E0B0E0002EAB
:1047100004C0B695A795979587950A94D2F780FF20
:104720000EC0DD24D394D20E222319F08CE20E9415
:104730006136F701859194910E9468362D2D0F5FA7
:104740001F4F32E0E30EF11C05301105D9F610CCF5
:1047500083EF92E00BCC10928A0310924F010C94DD
:10476000EA2C80E090E00E9492360E94E2350C94A0
:10477000EA2C83E50E947030882381F00E9492D653
:10478000282F30E02D33310524F4809300010C9460
:10479000EA2C8CE3809300010C94EA2C0E948E3664
:1047A0004091000150E060E070E088E093E00E94FA
:1047B000423A8AE00E9461360C94EA2C8091440BC4
:1047C00083FF02C00C94EA2C83E50E94703088239A
:1047D00011F40C94EA2C0E94F02F0E94B9F5633773
:1047E000710514F063E770E070934E1360934D13FE
:1047F0000E94D86C0C94EA2C8091440B83FF02C079
:104800000C94EA2C83E50E9470308DA7811107C0BB
:1048100082E50E947030882311F40C94EA2C0E94E7
:10482000F02F0E94B9F56337710514F00C94EF2E48
:1048300070934E1360934D130E94D86C0E94F02F1A
:1048400020E030E040EA50E40E9447F6181614F4E5
:104850000E945F6660914D1370914E13072E000CFD
:10486000880B990B0E9423F02091491330914A1331
:1048700040914B1350914C130E9447F6181614F0B8
:104880000C94302E86E293E060E00E94BF6B81E0E2
:1048900080934F011AA21BA21CA21DA21EA61FA636
:1048A00018AA19AA18A21EAA4CE34FAB5CE158AF94
:1048B00086E489AFC12CD12C80E8E82E9FEBF92E3D
:1048C00091E09AAB812C912C540160914D13709121
:1048D0004E13072E000C880B990B0E9423F0162F05
:1048E000072F782E692E9601A7010E941CF08823BD
:1048F00011F40C943D2E2091491330914A134091AC
:104900004B1350914C13ADA5612F702F872D962D11
:10491000A1110C94342E0E941CF0881F8827881F38
:1049200088A30E949DE06B017C01DC01CB012EA5D8
:104930003FA548A959A9821B930BA40BB50BB7FD42
:1049400002C00C94432E0E9441370E949DE0609368
:10495000700270937102809372029093730290912F
:1049600049139EA3A0914A13AAA7B0914B13BBA7CA
:10497000E0914C13ECA7292F3A2F4B2F5E2F612F7C
:10498000702F872D962D0E94C3F41B012C0120E06F
:1049900030E0A9010E9447F687FF04C057FA5094FF
:1049A00057F8509481149104A104B10411F00C94AF
:1049B000872E20E030E040E85FE3C201B1010E94B1
:1049C0001CF087FF02C00C94782E38A131110C9492
:1049D000972E80914F0181110C94D52E80914F011B
:1049E000882311F40C94EA2C0E94316C0C94EA2C6C
:1049F0000E94A6D6182F87FF02C00C94EF2C88E3E4
:104A000093E00E946836812F0E94276D8AE00E9401
:104A100061360C94EF2C83E50E947030882309F4F2
:104A2000D9C70E9492D6182F90E0CD970CF01CE3C6
:104A3000109378020E949DE06B017C01212F30E0F1
:104A4000A8EEB3E00E9450F4C60ED71EE81EF91E71
:104A5000C0927402D0927502E0927602F0927702D0
:104A6000B9C760E080E50E94CFD68111B3C781E469
:104A70000E942730882321F06091690670E002C00F
:104A80006FEF70E083E50E9497D28F3F910519F098
:104A900010F08FEF90E080936906809344139AC7DB
:104AA00060E080E50E94CFD6811194C7109269061C
:104AB000109244138FC70E94596E0E9483660E9411
:104AC0004F470E941F3668EE73E080E090E00E943E
:104AD000BE3560E08BE393E00E94BF6B7BC7209301
:104AE000810278C783E50E947030882399F00E9484
:104AF000F02F20E030E04AE754E40E9482F00E9468
:104B0000C0F56093010170930201809303019093BB
:104B1000040160C788E50E94273081110C94F32EB0
:104B200089E50E94273081110C94F32E8AE50E94BA
:104B3000273081110C94F32E85E40E9427308111D7
:104B40000C94F32E0E944F4745C783E50E942730FF
:104B5000882309F43FC70E94F02F20E030E04AE7A5
:104B600054E40E9482F00E94C0F560937902709331
:104B70007A0280937B0290937C022CC70E94A6D677
:104B800087FD28C780914A1284FD04C080914C1291
:104B900087FF0AC01FE6C12E11E0D12E05E4E02EEA
:104BA0000BE0F02E10E03AC080914D12837091F727
:104BB0000E948E364091590B50915A0B60915B0BBD
:104BC00070915C0B84E593E00E94893B40915D0B02
:104BD00050915E0B60915F0B7091600B81E593E0EB
:104BE0000E94893B4091610B5091620B6091630B75
:104BF0007091640B8EE493E00E94893B4091650BB9
:104C00005091660B6091670B7091680B8BE493E099
:104C10000E94893B8AE00E946136DCC6D6018D91F4
:104C20006D010E947030882309F46DC0133009F0C3
:104C300063C00E94F02F4B015C0120E030E040EAAD
:104C400051E40E941CF087FF4EC0A50194016091C1
:104C5000650B7091660B8091670B9091680B0E94B9
:104C600047F52B013C019B01AC0160914D06709111
:104C70004E0680914F06909150060E9482F06093FC
:104C80004D0670934E0680934F0690935006A301F5
:104C900092016091750B7091760B8091770B9091DA
:104CA000780B0E9482F06093750B7093760B809363
:104CB000770B9093780B60915D0670915E06809102
:104CC0005F06909160060E9421F0A30192010E946C
:104CD00082F00E94C0F560935D0670935E0680933B
:104CE0005F06909360068092650B9092660BA0928F
:104CF000670BB092680B07C00E94F02FF701648B1E
:104D0000758B868B978B1F5FF4E0EF0EF11C1430D0
:104D100009F084CF0E940F805DC68FE794E00E9467
:104D2000683660E08FE694E00E94AAD260E08AE5EF
:104D300094E00E94AAD261E083E594E00E94AAD2A6
:104D400061E088E494E00E94AAD261E088E394E004
:104D50000E94AAD260E08FE294E00E94AAD261E0B1
:104D600085E294E00E94AAD261E08BE194E00E9487
:104D7000AAD261E083E194E00E94AAD261E085E0DA
:104D800094E00E94AAD261E087EF93E00E94AAD249
:104D900060E088EE93E00E94AAD260E08AED93E0A2
:104DA0000E94AAD260E084EC93E00E94AAD260E064
:104DB00083EB93E00E94AAD260E084EA93E00E9431
:104DC000AAD260E08FE893E00E94AAD261E08CE76B
:104DD00093E00E94AAD260E08FE693E00E94AAD2FC
:104DE00060E08BE593E00E94AAD2F4C580914E1258
:104DF00090914F12009709F46DC8DC012C91222389
:104E000009F468C860E00E940B6CE4C500914E1282
:104E100010914F1283E0F12C40E08150E1F0F80155
:104E20009081292F2B7F2134C1F721812133A9F7CC
:104E3000913421F0953421F441E002C0FF24F39431
:104E400098012E5F3F4F89012F5F3F4FD8019C9102
:104E50009032C9F3E2CF41110E948E36FF2021F03B
:104E600086E495E00E946836C8010E94A03BB2C566
:104E70000E947AAFAFC510926B0410926A040E9430
:104E800095AFA8C560E070E083E50E94AAD88C01C8
:104E90001127023011053CF00E948A368AE495E021
:104EA0000E94683697C588E40E9470308823A9F074
:104EB0000E94A6D88A3A91053CF08530B1E09B0764
:104EC0002CF084E091E002C08AEA90E0F801EE0F55
:104ED000FF1FEF5AF34F9183808386E40E94703066
:104EE000882381F00E94A6D897FD07C08F3F9105C7
:104EF00029F024F08FEF90E001C080E0F801E55B3D
:104F0000F34F808382E40E947030882309F462C5E5
:104F10000E94A6D88530910534F0843791052CF095
:104F200083E790E002C085E090E0F801EE0FFF1FFC
:104F3000E35BF34F918380834DC50E94A6D6182F63
:104F400087FD48C584E40E942730882309F43FC0C8
:104F50000E94F02F6B017C0101E020E030E0A9010C
:104F60000E941CF0811101C000E00093EB0220E0E0
:104F700030E0A901C701B6010E941CF0882339F175
:104F80000E94F02F24E01202F0011124E051FD4FA5
:104F9000608371838283938320E030E0A901609174
:104FA000F0027091F1028091F2029091F3020E945E
:104FB0001CF081110CC080E090E0A0EEBFE3809374
:104FC000F0029093F102A093F202B093F3020E94D8
:104FD000824500C50E94A6D687FDFCC47FE6E72E69
:104FE00071E0F72E05E41BE0D7018D917D010E9451
:104FF0002730882349F00E94F02F0E94C0F5F80165
:1050000060837183828393830C5F1F4FFBE00535C0
:105010001F0751F70E94C87FDDC40E94A6D687FDF6
:10502000D9C46FE6E62E61E0F62E05E41BE0D70159
:105030008D917D010E942730882339F00E94F02F46
:10504000F80164A375A386A397A30C5F1F4FFBE031
:1050500005351F0761F7BEC480914B1287FDE8C676
:1050600080914C128E7009F0E3C64091790B5091FB
:105070007A0B60917B0B70917C0B82E795E00E942C
:10508000893B40917D0B50917E0B60917F0B70911D
:10509000800B8FE695E00E94893B4091810B5091F7
:1050A000820B6091830B7091840B8CE695E00E94DB
:1050B000893B8AE00E9461368DC480914A128271D8
:1050C00009F0FCC680914C128C7809F0F7C68091EB
:1050D0004D12837009F0F2C67DC44FE6C42E41E044
:1050E000D42E5EE6E52E54E0F52E10E0D6018D912B
:1050F0006D010E942730882351F00E94F02FF701A4
:105100006083718382839383812F0E94094A1F5F8A
:10511000F4E0EF0EF11C133049F70C940C1C0E94C4
:105120008E368BED95E00E94683683E50E9427302D
:10513000882321F00E94DBD68093270180912701EC
:10514000882319F088EB95E002C084EB95E00E947B
:10515000683683ED95E00E9468362091AA0C309164
:10516000AB0C4091AC0C5091AD0C60910F01709163
:10517000100180911101909112010E94C4F4AB01C1
:10518000BC0181ED95E00E94893B2091AE0C3091ED
:10519000AF0C4091B00C5091B10C6091170170911F
:1051A00018018091190190911A010E94C4F4AB0179
:1051B000BC018EEC95E00E94893B2091B20C3091AD
:1051C000B30C4091B40C5091B50C60911F017091DB
:1051D000200180912101909122010E94C4F4AB0131
:1051E000BC018BEC95E00E94893B83EC95E00E942A
:1051F00068362091AA0C3091AB0C4091AC0C5091C8
:10520000AD0C609113017091140180911501909182
:1052100016010E94C4F4AB01BC0181EC95E00E9430
:10522000893B2091AE0C3091AF0C4091B00C509165
:10523000B10C60911B0170911C0180911D01909136
:105240001E010E94C4F4AB01BC018EEB95E00E94EC
:10525000893B2091B20C3091B30C4091B40C509129
:10526000B50C6091230170912401809125019091EA
:1052700026010E94C4F4AB01BC018BEB95E00E94B7
:10528000893B8AE00E946136A5C383E50E947030A5
:10529000882309F49FC30E94A6D890932901809384
:1052A000280198C30E94A6D6F82E87FD93C383E5F4
:1052B0000E9470300F2D0F2C000C110B882369F108
:1052C0000E94A6D8F801EE0FFF1FE25DFE4F91830A
:1052D0008083000F111F000F111F98012F5A3E4F9E
:1052E0007901BC01990F880B990B0E9423F02AE0E9
:1052F00037ED43E25CE30E9482F0F801E451FD4F98
:1053000020813181428153810E9482F0D7016D93C7
:105310007D938D939C9313975DC30E948E3685E495
:105320000E94613680E38F0D0E946136F801EE0F16
:10533000FF1FE25DFE4F608171818BEE95E00E9460
:105340007C3A85E20E9461368AE00E94613642C35F
:1053500080E50E942730882309F43CC360E070E0B8
:1053600080E50E94AAD8F82E6FEF7FEF83E50E94B8
:10537000AAD88C010196039708F02CC3F7FC2AC326
:105380008F2D0E94A8E3882339F00E948A3683EF8C
:1053900095E00E9468361EC30E94604660E08F2D33
:1053A0000E94B5DF0F3FBFEF1B0731F00130110541
:1053B00071F000E010E00DC08F2D0E945DDF31E044
:1053C00020E0892B09F030E0032F122F02C001E00A
:1053D00010E08F2D0E945DDF8017910709F4FAC25B
:1053E0000E944137F6CF64E071E083E50E9497D2D6
:1053F0008C0168EE73E080E50E9497D28938E3E182
:105400009E0710F088E893E1B8010E94926BE2C217
:1054100060E085E40E94CFD6811173C080E50E94D0
:105420002730882351F00E94F02F609386067093F6
:105430008706809388069093890689E40E94273026
:10544000882381F00E94F02F2CEA35EC47E25EE3DE
:105450000E9482F060938A0670938B0680938C067C
:1054600090938D0684E40E942730882381F00E9467
:10547000F02F2CEA35EC47E25EE30E9447F560939B
:105480008E0670938F0680939006909391060E94EB
:105490008E364091860650918706609188067091FD
:1054A00089068CE196E00E94893B2CEA35EC47E2C4
:1054B0005EE360918A0670918B0680918C069091D4
:1054C0008D060E9447F5AB01BC0188E196E00E9481
:1054D000893B2CEA35EC47E25EE360918E067091E1
:1054E0008F0680919006909191060E9482F0AB0108
:1054F000BC0184E196E00E94893B8AE00E9461360B
:1055000069C20E948A3682E096E00E94683662C2D2
:1055100080E50E942730882351F00E94F02F60938D
:10552000501370935113809352139093531389E443
:105530000E942730882381F00E94F02F2CEA35EC5E
:1055400047E25EE30E9482F0609354137093551318
:10555000809356139093571384E40E942730882336
:1055600081F00E94F02F2CEA35EC47E25EE30E94C6
:1055700047F5609358137093591380935A1390937F
:105580005B130E948E3640915013509151136091DD
:1055900052137091531388E296E00E94893B2CEAE3
:1055A00035EC47E25EE3609154137091551380919E
:1055B0005613909157130E9447F5AB01BC0184E24A
:1055C00096E00E94893B2CEA35EC47E25EE360916D
:1055D00058137091591380915A1390915B130E9444
:1055E00082F0AB01BC0180E296E00E94893B8AE038
:1055F0000E946136EFC183E50E942730182F88236F
:1056000071F00E94F02F0E94B9F5709356016093DB
:10561000550121E0672B09F020E020937A0680E510
:105620000E942730882359F020915501309156016E
:10563000232B11F00E94DBD680937A06CBC1111187
:10564000C9C10E948E3688E496E00E946836809137
:105650007A06882319F080E396E002C08CE296E097
:105660000E946836609155017091560187E396E07B
:105670000E947C3A83E396E00E946836ABC10E94A8
:10568000B73FA8C10E946046A5C181E00E94807E0C
:105690000E9435509FC180E00E94807E0E94387E2B
:1056A0000E94355097C16FEF7FEF89E40E94AAD81E
:1056B000182F6FEF7FEF8AE40E94AAD8082F8AE59F
:1056C0000E942730F82E811105C081E50E94273005
:1056D000D82E01C0D12C17FD06C007FD04C0F11063
:1056E00009C0D11007C00E948A368AE796E00E945E
:1056F000683670C1153010F4053038F00E948A36D3
:105700008BE596E00E94683665C1E12E110FFF0817
:10571000002E000C110B0E94F02FDD2099F025E0E7
:105720002E9DF0012F9DF00D1124E00FF11FEE0FC3
:10573000FF1FEE0FFF1FE352F44F208131814281A2
:10574000538103C020E030E0A901A5E0AE9DF00147
:10575000AF9DF00D11240E0F1F1F000F111F000F22
:10576000111F0352144F0E94C4F4D8016D937D930E
:105770008D939C9313972EC10E9445BD81112AC120
:1057800005E415E1E0E3F6E0F9A3E8A39E012F5F4D
:105790003F4F59019AE9892E95E1992E1901F80197
:1057A0006591759185919491A8A1B9A1CD90DD9055
:1057B000ED90FD90B9A3A8A3A70196010E94C3F4A0
:1057C0002B013C01F101608371838283938320E08C
:1057D00030E040EA51EC0E9447F687FD0AC020E025
:1057E00030E040EA51E4C301B2010E941CF01816F7
:1057F0002CF4F401849118160CF4D7C3D101CD9088
:10580000DD90ED90FD901D0120E030E040EA51EC8C
:10581000C701B6010E9447F687FD0AC020E030E0CC
:1058200040EA51E4C701B6010E941CF01816A4F426
:105830000E948A368EEB96E00E94683661E080EB2B
:1058400096E00E94BF6B0E94D19868E270E088ECFD
:1058500090E00E94926BBEC00C5F1F4FBFEF8B1A8F
:105860009B0AE5E101351E0709F099CF8EE6E82E87
:1058700084E0F82E10E0F50181919191A191B19110
:105880005F01F70181939193A193B1937F01812FE0
:105890000E94094A1F5F133071F70E94355060E083
:1058A0008AE996E00E94BF6B63E972E084E690E0CB
:1058B0000E94926B6AEB72E084E690E00E94926B29
:1058C00089C00E947B6186C00E949FB683C02093DE
:1058D0004A0C0E94DEB010924A0C882309F47AC068
:1058E0000E948E368CED96E00E94683673C08091DF
:1058F000E81082FF6FC080628093E8106BC08AE579
:105900000E947030882331F10E94F02F6B017C01DE
:1059100020E030E040EA51EC0E9447F687FD13C0DA
:1059200020E030E040EA51E4C701B6010E941CF0DB
:1059300018164CF0C092B60CD092B70CE092B80C8E
:10594000F092B90C47C00E948A3687EE96E00E941A
:10595000683640C00E948E364091B60C5091B70C0C
:105960006091B80C7091B90C84E097E00E94893B7B
:105970008AE00E9461362EC081E08093300110924F
:105980002F0660E083E50E9491D8811123C00E9418
:105990002BCD20C00E9474901DC000915012109118
:1059A00051120023B9F00E948E3684E50E946136C0
:1059B000B8017727072E000C880B990B0E94603ADC
:1059C00080E20E94613685E197E00E94683602C05D
:1059D0000E947490FCADF11102C00E941BCD2AAD53
:1059E00020937D02EC960FB6F894DEBF0FBECDBFBC
:1059F000DF91CF911F910F91FF90EF90DF90CF90AB
:105A0000BF90AF909F908F907F906F905F904F90DE
:105A10003F902F9008950E94604680E00E94963249
:105A20000E947D4D81E080936B040E9495AF88E5D4
:105A30000E942730182F89E50E942730082F8AE519
:105A40000E9427301013B9C0181711F0012FB5C0EC
:105A500001E011E0FF24F39480E1E0E3F6E0AFEC35
:105A6000B2E001900D928A95E1F782E50E947030D4
:105A7000882361F00E94F02F4B015C0120E030E0B0
:105A8000A9010E941CF0882361F106C0812C912C91
:105A9000F0E2AF2EF1E4BF2E111102C0002359F144
:105AA0008092D7029092D802A092D902B092DA02E4
:105AB000A5019401609138067091390680913A06EB
:105AC00090913B060E941CF087FF0BC019821A823E
:105AD0001B821C82BE016F5F7F4F87ED92E00E94A8
