:100000000C94D1150C94FB150C94FB150C94FB155A
:100010000C94FB150C94FB150C94FB150C94FB1520
:100020000C94FB150C94FB150C94FB150C94FB1510
:100030000C94FB150C94A0730C94FB150C94FB15FD
:100040000C94FB150C944D6A0C945DDD0C94FB151F
:100050000C947F380C9475380C94FB150C94FB159C
:100060000C94FB150C94FB150C94FB150C94FB15D0
:100070000C94FB150C94FB150C94FB150C94FB15C0
:100080000C94FB150C94FB150C94FB1541D100D07E
:1000900037D07DD137D037D037D037D037D037D0E1
:1000A00037D037D037D037D037D037D037D037D018
:1000B00037D037D037D037D037D037D037D037D008
:1000C00037D037D037D037D077D137D037D037D0B7
:1000D00037D037D037D037D037D050D137D037D0CE
:1000E00037D037D037D037D037D037D037D037D0D8
:1000F00094D134D021DA24DA17DA1BDA3BDA3BDA8E
:1001000028DA2CDA32DA36DACCDCD1DCD6DCE0DC08
:100110000EDD0EDDEADCF2DCFADC04DD4E414E4998
:100120004E495459494E46CDCCCC3D0AD7233C17B5
:10013000B7D13877CC2B329595E6241FB14F0A0002
:100140000020410000C84200401C4620BCBE4CCAF2
:100150001B0E5AAEC59D74434F4D4D554E494341FC
:1001600054494F4E0044525952554E004552524F39
:10017000525300494E464F004543484F00536C656B
:1001800065702E2E2E00486F6D65205859204669E7
:100190007273740A00486F6D652058592046697261
:1001A000737400205A3A200020593A2000426564B6
:1001B00020583A20004D65736820706F696E742076
:1001C00063616E6E6F74206265207265736F6C760A
:1001D00065640A00436C69636B20746F2052657319
:1001E000756D652E2E2E004E6F204D6F76652E009C
:1001F000456E642066696C65206C6973740A004200
:100200006567696E2066696C65206C6973740A00A5
:10021000286E6F2066696C65290043757272656E81
:10022000742066696C653A20005344207072696ED0
:1002300074696E67206279746520004E6F74205374
:1002400044207072696E74696E670A002E0A004459
:10025000656C6574696F6E206661696C65642C20DD
:1002600046696C653A200046696C652064656C657A
:100270007465643A002569730025696D20256973EA
:10028000002569682025696D20256973002569644A
:10029000202569682025696D202569730025697905
:1002A00020256964202569682025696D20256973EA
:1002B000005072696E742074696D653A2000205791
:1002C0003A004520436F6F6C696E672E2E2E0045F5
:1002D0002048656174696E672E2E2E006F66660079
:1002E000780173016C016501570144454255473A55
:1002F000004D31313320530020573A0042656420CD
:10030000436F6F6C696E672E2E2E00426564204825
:10031000656174696E672E2E2E006F6B003344206A
:100320005072696E746572204F46462E002045005B
:10033000205A00205900204D3932205800434841AE
:100340004D4245525F54454D5045524154555245DA
:10035000004D4F54494F4E5F4D4F44455300544854
:1003600045524D414C5F50524F54454354494F4EB6
:10037000004155544F5245504F52545F53445F53C0
:1003800054415455530050524F4D50545F535550A3
:10039000504F525400454D455247454E43595F50CA
:1003A000415253455200434153455F4C49474854DD
:1003B0005F4252494748544E45535300544F4747B4
:1003C0004C455F4C494748545300534F465457419E
:1003D00052455F504F574552004255494C445F507B
:1003E000455243454E54004C4556454C494E475F97
:1003F00044415441005A5F50524F424500415554C8
:100400004F4C4556454C005052494E545F4A4F425E
:100410000050524F4752455353004155544F524597
:10042000504F52545F54454D5000564F4C554D451A
:100430005452494300454550524F4D0042494E41A8
:1004400052595F46494C455F5452414E53464552BE
:100450000053455249414C5F584F4E5F584F4646F6
:10046000004649524D574152455F4E414D453A4D28
:1004700061726C696E204372656177736F6D65435D
:100480006F726520322E302E302D52433020534F64
:10049000555243455F434F44455F55524C3A68744B
:1004A0007470733A2F2F6769746875622E636F6D6D
:1004B0002F74726F7563682F4D61726C696E205076
:1004C000524F544F434F4C5F56455253494F4E3A4B
:1004D000312E30204D414348494E455F54595045D7
:1004E0003A3344205072696E7465722045585452F4
:1004F000554445525F434F554E543A312055554966
:10050000443A63656465326132662D343161322D5F
:10051000343734382D396231322D63353563363214
:100520006633363766660A002F2F20004D3134358A
:1005300020533C696E6465783E206F7574206F6649
:100540002072616E67652028302D31290A00205401
:1005500000205200416363656C65726174696F6E5F
:100560003A2050005741524E494E4721204C6F7758
:10057000205A204A65726B206D6179206C65616438
:1005800020746F20756E77616E746564207061757C
:100590007365732E0A004F4646004F4E00205A00E6
:1005A000205900580020204D61783A2000205A0040
:1005B000205900580020204D696E3A2000536F6684
:1005C0007420656E6473746F70733A200020466CFB
:1005D0006F773A200050726F7465637465642050C1
:1005E000696E0A00496E76616C6964206578747280
:1005F000756465720A0020643A0020693A00207030
:100600003A0020643A0020693A0020703A00646998
:100610007300656E0043290A0061626C65642028DE
:100620006D696E2074656D702000436F6C64206589
:10063000787472756465732061726520004D65730E
:100640006820706F696E742063616E6E6F742062D3
:1006500065207265736F6C7665640A004D343231C3
:1006600020696E636F727265637420706172616D70
:10067000657465722075736167650A004F666673FD
:10068000657473204170706C696564004572723ADC
:1006900020546F6F206661722100546F6F20666175
:1006A000722066726F6D207265666572656E636535
:1006B00020706F696E740A00454550524F4D204FAF
:1006C0004B0A003F5A206F7574206F662072616E6E
:1006D000676520282D323020746F203230290A00BF
:1006E00050726F6265205A204F66667365743A20B7
:1006F00000496E76616C6964206578747275646512
:10070000720A004572726F722077726974696E673F
:1007100020746F20454550524F4D210A000F150E91
:100720001216170E1303021A1401000E0C190DFFF6
:10073000180C040001627573793A20706175736555
:100740006420666F7220696E7075740A006275733A
:10075000793A2070617573656420666F72207573D5
:1007600065720A00627573793A2070726F636573FF
:1007700073696E670A004B494C4C20636175736561
:100780006420627920746F6F206D75636820696ED4
:100790006163746976652074696D65202D206375C9
:1007A0007272656E7420636F6D6D616E643A2000C5
:1007B000506C6561736520526573657400505249D1
:1007C0004E5445522048414C544544004B494C4CF2
:1007D00045442E20005072696E7465722068616C09
:1007E0007465642E206B696C6C28292063616C6CC5
:1007F0006564210A006563686F3A004572726F7222
:100800003A0042696C696E656172204C6576656C70
:10081000696E6720477269643A0A002364656669F5
:100820006E652044454641554C545F000062656446
:10083000004B6420004B6920004B7020005049445D
:10084000204175746F74756E652066696E69736892
:100850006564212050757420746865206C61737420
:10086000204B702C204B6920616E64204B64206308
:100870006F6E7374616E74732066726F6D20626543
:100880006C6F7720696E746F20436F6E6669677551
:10089000726174696F6E2E680A0050494420417578
:1008A000746F74756E65206661696C65642120746F
:1008B000696D656F75740A00453120544845524D85
:1008C000414C2052554E4157415900424544205415
:1008D0004845524D414C2052554E415741590054C4
:1008E0006865726D616C2052756E61776179004543
:1008F000312048656174696E67204661696C656482
:10090000004265642048656174696E6720466169CC
:100910006C65640048656174696E67206661696C26
:10092000656400504944204175746F74756E65208C
:100930006661696C6564212054656D7065726174CF
:1009400075726520746F6F20686967680A00204BB4
:10095000643A2000204B693A2000204B703A200076
:100960000A20436C617373696320504944200A0074
:10097000204B643A2000204B693A2000204B703A0B
:1009800020000A204E6F206F76657273686F6F7457
:100990000A002054753A2000204B753A2000206D43
:1009A00061783A2000206D696E3A200020643A2078
:1009B0000020626961733A200050494420417574F7
:1009C0006F74756E652073746172740A00504944C7
:1009D000204175746F74756E65206661696C65641D
:1009E000212054656D706572617475726520746F35
:1009F0006F20686967680A00504944204175746F28
:100A000074756E65206661696C656421204261645D
:100A1000206578747275646572206E756D6265729A
:100A20000A004572723A207574663820666F6E74DB
:100A3000206E6F7420696E697469616C697A65648F
:100A40002E004572723A207574663820666F6E7497
:100A5000206E6F7420696E697469616C697A65646F
:100A60002E004572723A207574663820666F6E7477
:100A7000206E6F7420696E697469616C697A65644F
:100A80002E0000060C00FE07022603BC017FFE08B4
:100A9000FE08FE05080806000040F0C8888898781F
:100AA00010050808060000C0F88888888888F805BE
:100AB00005050600012030F8302005080806000072
:100AC0002070F820202020E00509090600FF207092
:100AD000A8A8B888887020050606060001E08CEA00
:100AE0008C8A0A0509090600FFF8A8888888888882
:100AF000A8F8050A0A0600FE205050505088A8A801
:100B0000887003030306000340A040FFFFFFFFFFC0
:100B1000FFFFFFFFFFFFFFFFFFFFFFFFFFFFFFFFE5
:100B2000FF0000000605FF01070706020080808025
:100B300080800080030303060105A0A0A00506062F
:100B400006000050F85050F8500509090600FF2033
:100B500070A8A07028A87020050707060000C8C864
:100B6000102040989805070706000040A0A040A864
:100B700090680103030602058080800309090601CD
:100B8000FF2040408080804040200309090601FF8B
:100B900080404020202040408005070706000020BC
:100BA000A8702070A8200505050600012020F82067
:100BB000200203030601FFC0408005010106000377
:100BC000F8020202060100C0C0050707060000087F
:100BD000101020404080050707060000708898A884
:100BE000C8887003070706010040C040404040E04D
:100BF000050707060000708808102040F805070761
:100C0000060000F808103008887005070706000085
:100C100010305090F81010050707060000F880F01B
:100C200008088870050707060000304080F08888B3
:100C300070050707060000F808101020202005079F
:100C4000070600007088887088887005070706000E
:100C50000070888878081060020505060100C0C091
:100C600000C0C00206060601FFC0C000C0408003ED
:100C7000050506010120408040200503030600020F
:100C8000F800F803050506010180402040800507B3
:100C900007060000708810202000200507070600C6
:100CA000007088B8A8B88070050707060000708833
:100CB00088F8888888050707060000F048487048CB
:100CC00048F005070706000070888080808870055E
:100CD0000707060000F04848484848F0050707069F
:100CE0000000F88080F08080F8050707060000F813
:100CF0008080F08080800507070600007088808073
:100D0000988870050707060000888888F888888812
:100D1000030707060100E04040404040E0050707A8
:100D2000060000381010101090600507070600003C
:100D30008890A0C0A09088050707060000808080EA
:100D4000808080F805070706000088D8A888888872
:100D5000880507070600008888C8A89888880507BE
:100D600007060000708888888888700507070600D5
:100D700000F08888F08080800507070600007088F2
:100D80008888A89068050707060000F08888F0A00A
:100D90009088050707060000708880700888700535
:100DA0000707060000F8202020202020050707065E
:100DB00000008888888888887005070706000088F2
:100DC0008888885050200507070600008888888892
:100DD000A8A850050707060000888850205088887A
:100DE00005070706000088885020202020050707F7
:100DF000060000F80810204080F80309090601FFEA
:100E0000E080808080808080E00507070600008009
:100E10004040201010080309090601FFE0202020AF
:100E200020202020E005030306000520508805014E
:100E3000010600FEF80303030601058040200505B6
:100E4000050600007008788878050707060000800E
:100E500080F0888888F0050505060000708080888D
:100E60007005070706000008087888888878050557
:100E7000050600007088F080700507070600003046
:100E80004840E04040400507070600FE708888881B
:100E90007808700507070600008080F08888888839
:100EA0000307070601004000C0404040E004090974
:100EB0000601FE10003010101010906005070706A4
:100EC000000080808890E09088030707060100C03A
:100ED0004040404040E0050505060000D0A8A8A815
:100EE000A8050505060000B0C88888880505050620
:100EF000000070888888700507070600FEF0888863
:100F000088F080800507070600FE788888887808C2
:100F100008050505060000B0C880808005050506A7
:100F2000000078807008F00507070600002020F810
:100F30002020201805050506000088888898680587
:100F40000505060000888888502005050506000074
:100F50008888A8A8500505050600008850205088FC
:100F60000507070600FE8888885020408005050593
:100F7000060000F8102040F80309090601FF204090
:100F8000404080404040200109090602FF808080E7
:100F90008080808080800309090601FF80404040F6
:100FA000204040408005030306000248A890FF202F
:100FB0005A3A0020593A0020436F756E7420583A0F
:100FC0000020453A00205A3A0020593A00583A0089
:100FD00020636F6C6420657874727573696F6E201E
:100FE00070726576656E7465640A00486F6D696E2F
:100FF00067204661696C6564000000000000000025
:10100000000000000000004842000048420000804C
:10101000405761726E696E673A20486F6D696E67FE
:101020002042756D702044697669736F72203C2090
:10103000310A000202040000A0400000A0400000AD
:1010400000400000754300006B4300007A43FFFF3F
:10105000FF43616E6E6F74206F70656E20737562F2
:10106000646972200053442063617264206F6B0ACC
:10107000006F70656E526F6F74206661696C656495
:101080000A00766F6C756D652E696E6974206661F5
:10109000696C65640A00534420696E697420666156
:1010A000696C0A004D3234004D32332025730057ED
:1010B000726974696E6720746F2066696C653A2086
:1010C000002E0A006F70656E206661696C65642C85
:1010D0002046696C653A20002E0A006F70656E200C
:1010E0006661696C65642C2046696C653A2000462F
:1010F000696C652073656C65637465640A002053D0
:10110000697A653A200046696C65206F70656E6586
:10111000643A2000667265736800646F696E6700E8
:101120002066696C653A20004E6F772000454E447A
:1011300020535542524F5554494E450A00222070C3
:101140006F73002220706172656E743A22005355ED
:1011500042524F5554494E452043414C4C207461F6
:10116000726765743A2200747279696E6720746FD1
:101170002063616C6C207375622D67636F646520FA
:1011800066696C6573207769746820746F6F206D71
:10119000616E79206C6576656C732E204D41582008
:1011A0006C6576656C2069733A310A007C3C3E5E62
:1011B0002B3D3F2F5B5D3B2C2A225C0033442050AB
:1011C00072696E7465722052656164792E00507286
:1011D000696E74696E672E2E2E005072696E7420CF
:1011E000506175736564005072696E742041626F5E
:1011F00072746564000000754300006B4300007A60
:1012000043000000000000000000000000290A0068
:101210002062797465733B206372632000536574A8
:1012200074696E67732053746F726564202800625E
:101230006564002C2073797374656D2073746F700E
:1012400070656421204865617465725F49443A2085
:10125000004265642048656174696E672046616973
:101260006C65640048656174696E67206661696CCD
:1012700065640042454420544845524D414C20523B
:10128000554E4157415900546865726D616C20524A
:10129000756E617761790045312048656174696ECA
:1012A00067204661696C65640048656174696E67B2
:1012B000206661696C656400453120544845524D93
:1012C000414C2052554E4157415900546865726D4A
:1012D000616C2052756E6177617900202D20496E16
:1012E00076616C6964206578747275646572206ECD
:1012F000756D62657220210A0070012C0190012732
:1013000001B0012201C0011D01F0011801100213FA
:101310000130020E016002090190020401C002FFC7
:10132000000003FA004003F5008003F000D003EB57
:10133000002004E6007004E100E004DC004005D772
:1013400000C005D2004006CD00D006C8008007C30B
:10135000003008BE00F008B900C009B400B00AAF00
:1013600000B00BAA00D00CA500000EA000500F9BEF
:1013700000C01096005012910000148C00C0158718
:1013800000B0178200B0197D00D01B7800001E73DA
:101390000040206E0090226900F024640040275F26
:1013A0000090295A00E02B5500102E500020304BA1
:1013B0000010324600E033410090353C00103737D2
:1013C0000070383200A0392D00B03A2800A03B232D
:1013D00000603C1E00103D1900903D1400103E0FAF
:1013E00000703E0A00C03E0500003F0000403FFB89
:1013F000FF803FF6FFC03FF1FF4531205448455282
:101400004D414C2052554E415741590042454420D0
:10141000544845524D414C2052554E415741590078
:10142000546865726D616C2052756E6177617900E8
:101430004531204572723A204D415854454D500077
:101440004572723A204D415854454D502042454412
:10145000004D415854454D5020747269676765725C
:101460006564004531204572723A204D494E54451D
:101470004D50004572723A204D494E54454D502012
:10148000424544004D494E54454D502074726967A1
:101490006765726564004D383420582059205A2001
:1014A0004500202F002042403A0020403A0024F41A
:1014B000D43050C38E20C2A24017828B7011127A92
:1014C000910D816CD90AA861E108C758660761517E
:1014D00043061E4B5D05C145A7041A411104093D91
:1014E0009803713931034036DB0265339102D43001
:1014F0005402802E1D02632CEE01752AC501B0280E
:10150000A001102781018F2564012B244B01E022CB
:101510003401AC211F018D200D01801FFC00841EB1
:10152000ED00971DDF00B81CD200E61BC600201B93
:10153000BC00641AB200B219A8000A19A0006A1807
:101540009900D117910040178B00B5168400311611
:101550007E00B31579003A157300C7146F00581454
:101560006A00EE1366008813630025135E00C7123D
:101570005B006C12570015125400C111510070111C
:101580004F0021114B00D61049008D104700461026
:10159000440002104200C00F4000800F3E00420F86
:1015A0003C00060F3B00CB0E3800930E37005C0E5C
:1015B0003500270E3400F30D3200C10D3100900DBF
:1015C0003000600D2E00320D2D00050D2C00D90CC1
:1015D0002B00AE0C2900850C29005C0C2700350C73
:1015E00027000E0C2600E80B2400C40B2400A00BDF
:1015F00023007D0B23005A0B2100390B2100180B0F
:101600002000F80A1F00D90A1E00BB0A1E009D0A0E
:101610001D00800A1D00630A1C00470A1B002C0ADB
:101620001B00110A1A00F7091A00DD091900C40984
:101630001900AB091900920917007B09180063090A
:1016400017004C09160036091600200916000A0971
:101650001500F5081500E0081400CC081400B808BF
:101660001400A4081400900813007D0812006B08F1
:10167000130058081200460812003408110023080D
:1016800011001208110001081100F0071000E00716
:101690001000D0071000C0071000B0070F00A1070E
:1016A000100091070E0083070F0074070F006507F5
:1016B0000E0057070E0049070E003B070D002E07CE
:1016C0000E0020070D0013070D0006070D00F90698
:1016D0000C00ED060D00E0060C00D4060C00C80658
:1016E0000C00BC060C00B0060C00A4060B0099060A
:1016F0000C008D060B0082060B0077060B006C06B3
:101700000B0061060A0057060B004C060A00420651
:101710000A0038060A002E060A0024060A001A06E5
:101720000A001006090007060A00FD050900F40575
:101730000900EB050900E2050900D9050900D005FB
:101740000900C7050900BE050900B5050800AD057B
:101750000800A50509009C050800940508008C05F3
:101760000800840508007C050800740508006C0565
:101770000700650508005D050700560508004E05D1
:101780000700470507004005080038050700310538
:1017900007002A050700230507001C05060016059B
:1017A00007000F0507000805060002050700FB04F7
:1017B0000600F5040700EE040600E8040600E20453
:1017C0000700DB040600D5040600CF040600C904A8
:1017D0000600C3040600BD040600B7040600B104F9
:1017E0000500AC040600A6040600A00405009B0446
:1017F000060095040500900406008A04050085048F
:101800000500800406007A040500750405007004D4
:1018100005006B04050066040500610405005C0416
:10182000050057040500520405004D040500480456
:101830000500430405003E0404003A040500350495
:101840000500300404002C040500270404002304D0
:1018500005001E0404001A04040016040500110407
:1018600004000D040400090405000404040000043D
:101870000400FC030400F8030400F4030400F00374
:101880000400EC030400E8030400E4030400E003A4
:101890000400DC030400D8030400D4030400D003D4
:1018A0000400CC030400C8030300C503030024F4B0
:1018B00004D9201BC40C5C0E9804C4095F026507A0
:1018C0007101F405F900FB04B30048048700C1036B
:1018D00069005803550003034500BE023A00840224
:1018E000310053022A002902250004022000E401ED
:1018F0001C00C8011900AF011700980114008401F1
:101900001300710110006101100051010E0043012C
:101910000D0036010B002B010B0020010B001501FF
:1019200009000C01090003010800FB000800F30096
:101930000800EB000700E4000600DE000600D80007
:101940000600D2000600CC000500C7000500C2005A
:101950000500BD000400B9000400B5000400B1009A
:101960000400AD000400A9000400A5000300A200CB
:1019700003009F0004009B000300980003009500F3
:10198000020093000300900003008D0002008B0012
:10199000030088000200860002008400030081002A
:1019A00002007F0002007D0002007B00020079003F
:1019B000020077000100760002007400020072004D
:1019C0000100710002006F0002006D0001006C0058
:1019D00002006A0001006900020067000100660061
:1019E0000100650001006400020062000100610066
:1019F0000100600001005F0002005D0001005C006A
:101A000001005B0001005A0001005900010058006C
:101A1000010057000100560001005500010054006C
:101A2000010053000000530001005200010051006A
:101A30000100500001004F0001004E0000004E0068
:101A400001004D0001004C0001004B0000004B0064
:101A500001004A0001004900010048000000480060
:101A6000010047000100460000004600010045005B
:101A70000000450001004400010043000000430055
:101A8000010042000000420001004100000041004E
:101A90000100400001003F0000003F0001003E0047
:101AA00000003E0001003D0000003D0001003C0040
:101AB00000003C0000003C0001003B0000003B0037
:101AC00001003A0000003A0001003900000039002E
:101AD0000100380000003800000038000100370025
:101AE000000037000100360000003600000036001C
:101AF0000100350000003500000035000100340011
:101B00000000340000003400010033000000330006
:101B100000003300010032000000320000003200FB
:101B200001003100000031000000310001003000F0
:101B3000000030000000300001002F0000002F00E6
:101B400000002F0000002F0001002E0000002E00DA
:101B500000002E0001002D0000002D0000002D00CF
:101B600000002D0001002C0000002C0000002C00C3
:101B700000002C0001002B0000002B0000002B00B7
:101B800000002B0001002A0000002A0000002A00AB
:101B900000002A000100290000002900000029009F
:101BA0000000290000002900010028000000280092
:101BB0000000280000002800000028000100270085
:101BC0000000270000002700000027000000270079
:101BD000010026000000260000002600000026006C
:101BE000000026000100250000002500000025005F
:101BF0000000250000002500000025000100240051
:101C00000000240000002400000024000000240044
:101C10000100230000002300000023000000230037
:101C20000000230000002300000023000100220028
:101C3000000022000000220000002200000022001C
:101C4000000022000100210000002100000021000E
:101C50000000210000002100000021000000210000
:101C600001002000000020000000200000002000F3
:101C700000002000000020000000200000002000E4
:101C800001001F0000001F0000001F0000001F00D7
:101C900000001F0000001F0000001F0001001E00C8
:101CA00000001E0000001E0000001E00000004379F
:101CB00000001E290000511B0000581000001009F0
:101CC0000000CC0400007802000041010000FFFF8A
:101CD000E7FFFC0003FFFC0FFFC0FFFCFFFFE7FF77
:101CE000FE0003FFFE1FFFE1FFFEFFFFE7FFFE0018
:101CF00003FFFF3FFFF3FFFF00E007000E000000BF
:101D000007380073800700E007000E3FF000073837
:101D10000073800700E007FFFE3FF3FFFF3800730A
:101D2000800700E007FFFC3FF3FFFF3800738007E8
:101D300000E007FFFE3FF3FFFF380073800700E07D
:101D400007000E00000007380073800700E007005E
:101D50000E00000007380073800700E007000F0046
:101D600003FFFF3FFFF3FFFF00E007000F0003FF4B
:101D7000FE1FFFE1FFFE00E007000F0003FFFC0F66
:101D8000FFC0FFFC00000000000000000000000099
:101D90000000000000000000000000000000000043
:101DA000FFFFFFFFFFFFFFFFFFFFFFFFFFFFFFFF43
:101DB000FFFFFFFFFFFFFFFFFFFFFFFF2020506C33
:101DC000616E6E657242756666657242797465739E
:101DD0003A20002046726565204D656D6F72793A34
:101DE0002000436F6D70696C65643A20417567200F
:101DF000313220323031390A00207C20417574683C
:101E00006F723A202874726F7563682C2043726574
:101E10006177736F6D6520436F726520322E3029B4
:101E20000A00323031392D30382D303800204C61E5
:101E3000737420557064617465643A2000322E30EA
:101E40002E302D5243300A004D61726C696E0020B5
:101E5000536F6674776172652052657365740A000A
:101E6000205761746368646F672052657365740AF4
:101E7000002042726F776E206F7574205265736513
:101E8000740A002045787465726E616C2052657327
:101E900065740A00506F77657255700A007374613B
:101EA00072740A006175746F25632E670065727223
:101EB0006F722077726974696E6720746F2066692B
:101EC0006C650A00446F6E6520736176696E6720E9
:101ED00066696C652E0A004D323900456E64737474
:101EE0006F70732025632025632025632025630000
:101EF000205A3A0020593A0020583A00656E64731F
:101F0000746F7073206869743A20004732385859EA
:101F100000220A00556E6B6E6F776E20636F6D6DD9
:101F2000616E643A20220020636F6C6420657874CF
:101F3000727573696F6E2070726576656E74656414
:101F40000A0056652D4A65726B0056652D4A65720A
:101F50006B00567A2D4A65726B00567A2D4A65726F
:101F60006B0056792D4A65726B0056792D4A657261
:101F70006B0056782D4A65726B0056782D4A657253
:101F80006B00416476616E636564205365747469A7
:101F90006E6773004573746570732F6D6D004573C4
:101FA000746570732F6D6D005A73746570732F6D47
:101FB0006D005A73746570732F6D6D00597374657D
:101FC00070732F6D6D005973746570732F6D6D0094
:101FD0005873746570732F6D6D00587374657073EA
:101FE0002F6D6D00416476616E6365642053657486
:101FF00074696E6773003F00496E697469616C694A
:102000007A6520454550524F4D0043616E63656CC3
:1020100000496E6974004D34323800496E69746944
:10202000616C697A6520454550524F4D0046696C98
:10203000616D656E740054656D7065726174757262
:10204000650053746570732F6D6D004A65726B0087
:10205000416363656C65726174696F6E0056656C8F
:102060006F636974790053657420486F6D65204F04
:1020700066667365747300436F6E66696775726137
:1020800074696F6E0053746F726520536574746960
:102090006E67730042656400426564004E6F7A7A31
:1020A0006C65004E6F7A7A6C650046616E205370E5
:1020B0006565640046616E20537065656400436F1A
:1020C0006E66696775726174696F6E0046696C2E21
:1020D000204469612E0046696C2E204469612E00FF
:1020E0004F6666004F6E004520696E206D6D5E3351
:1020F00000416476616E6365642053657474696E33
:102100006773002008204661637400200820466140
:102110006374002008204D6178002008204D61780C
:10212000002008204D696E002008204D696E004F88
:102130006666004F6E004175746F74656D70004186
:102140006476616E6365642053657474696E677349
:102150000025753A2530327500253032753A253024
:1021600032750025756420253032753A2530327578
:1021700000202020202020200020202020001FE000
:10218000201020102010102010202010201030309F
:102190000840048003001FE03FF03FF03FF01FE0E5
:1021A0001FE03FF03FF03FF00FC0078003003FFF0C
:1021B000F038007030FC3020FC10207810203010F7
:1021C0002C00D02E31D02F7BD02F7BD02E31D02C95
:1021D00000D020301020781020FC1030FC30380067
:1021E000703FFFF03FFFF0380070318630238710DA
:1021F0002787902F87D02F03D020301020781020F1
:1022000078102030102F03D02F87D0278790238776
:10221000103186303800703FFFF01FFFF81FFFF8C5
:1022200004104002082002082004104008208010FA
:1022300041001041000820800410400000001FFFF2
:10224000F81FFFF85654726176204D696E0056549F
:10225000726176204D696E00566D696E00566D692B
:102260006E00566D6178204500566D6178204500FE
:10227000566D6178205A00566D6178205A00566D6F
:102280006178205900566D6178205900566D61784B
:10229000205800566D6178205800416476616E6365
:1022A00065642053657474696E677300416D61786D
:1022B000204500416D6178204500416D6178205ACC
:1022C00000416D6178205A00416D617820590041CC
:1022D0006D6178205900416D6178205800416D6131
:1022E00078205800412D54726176656C00412D5460
:1022F000726176656C00412D526574726163740081
:10230000412D5265747261637400416363656C00B2
:10231000416363656C00416476616E63656420535C
:10232000657474696E6773005072656865617420C6
:10233000504C4120456E64005072656865617420A0
:10234000504C41204265640050726568656174209C
:10235000504C410054656D70657261747572650012
:1023600050726568656174205045544720456E641D
:10237000005072656865617420504554472042657D
:10238000640050726568656174205045544700547C
:10239000656D706572617475726500436F6F6C6412
:1023A0006F776E00507265686561742050455447C0
:1023B000005072656865617420504C410046616E42
:1023C0002053706565640046616E205370656564D6
:1023D0000042656400426564004E6F7A7A6C650065
:1023E0004E6F7A7A6C65004D61696E00466C6F774E
:1023F00000466C6F770046616E205370656564001F
:1024000046616E20537065656400426564004265F4
:1024100064004E6F7A7A6C65004E6F7A7A6C650054
:102420005370656564005370656564004D61696E45
:1024300000454550524F4D206461746173697A655F
:10244000206572726F722E0A00290A002062797468
:1024500065733B2063726320002073746F72656440
:102460002073657474696E67732072657472696530
:10247000766564202800202863616C63756C617444
:10248000656429210A0020213D2000454550524F16
:102490004D20435243206D69736D61746368202D34
:1024A000202873746F7265642920002053697A654F
:1024B0003A2000496E6465783A2000204D61726CC4
:1024C000696E3D563638290A00454550524F4D2019
:1024D00076657273696F6E206D69736D6174636880
:1024E0002028454550524F4D3D0048617264636F4E
:1024F0006465642044656661756C7420536574740A
:10250000696E6773204C6F616465640A00F40100B2
:1025100000F401000064000000881300000000FACD
:10252000430000FA430000A040000048420000A021
:10253000420000A0420000C8430000BA426F70652C
:102540006E00545249474745524544003A20007AAC
:102550005F6D696E00795F6D696E00785F6D696EA1
:10256000005265706F7274696E6720656E64737473
:102570006F70207374617475730A004C6F6164200E
:1025800053657474696E677300526573746F726516
:10259000206661696C736166650053746F726520B3
:1025A00053657474696E6773005072656865617411
:1025B000205045544720436F6E6600507265686531
:1025C000617420504C4120436F6E660050726F6200
:1025D00065205A204F66667365740050726F62659D
:1025E000205A204F666673657400416476616E639D
:1025F00065642053657474696E6773004D61696E1C
:10260000003F0053746F70205072696E7400426115
:10261000636B0053746F70004D3235005072696EF9
:102620007420506175736564005061757365205046
:1026300072696E74004D323400496E69742E2053F5
:10264000442043617264004D3231005072696E74EF
:102650002066726F6D2053440052656C656173652E
:102660002053442043617264004D323200436F6E48
:1026700066696775726174696F6E0054656D706527
:10268000726174757265004D6F74696F6E0052658A
:1026900073756D65205072696E74004361726420B9
:1026A00052656C65617365640054756E65005374A2
:1026B0006F70205072696E740050617573652050A0
:1026C00072696E7400496E666F2053637265656E41
:1026D0000050726F62696E67204661696C65640ABA
:1026E0000050726F62696E67204661696C656400B4
:1026F000486F6D65202573257325732046697273B5
:1027000074002046697273740A00486F6D6520007A
:102710004D6F76652058004D6F76652059004D6FDE
:102720007665205A00457874727564657200457844
:10273000747275646572004D6F7665205A004D6F36
:1027400076652059004D6F76652058004D6F74698D
:102750006F6E0044697361626C65205374657070BC
:10276000657273004D3834004661646520486569C0
:10277000676874004661646520486569676874002D
:102780004F6666004F6E00426564204C6576656C4E
:10279000696E67004C6576656C204265640047325F
:1027A000380A473239004175746F20486F6D6500F3
:1027B000473238004D6F76652041786973004D616E
:1027C000696E003F005374617274205072696E74B8
:1027D000200043616E63656C005072696E74004343
:1027E000616E6E6F7420656E7465722073756264BD
:1027F00069723A2000022E2E0001526566726573DE
:1028000068004D61696E002E0A006F70656E20666B
:1028100061696C65642C2046696C653A20004361EF
:10282000703A00220A00656E7175657565696E679C
:102830002022006F6B00526573656E643A2000536E
:10284000544F505045442E20005072696E7465728A
:102850002073746F707065642064756520746F20D8
:102860006572726F72732E204669782074686520D5
:102870006572726F7220616E6420757365204D39C8
:10288000393920746F20726573746172742E202838
:1028900054656D706572617475726520697320721C
:1028A000657365742E2053657420697420616674A5
:1028B00065722072657374617274696E67290A00AB
:1028C0004E6F20436865636B73756D20776974681C
:1028D000206C696E65206E756D6265722C204C618E
:1028E0007374204C696E653A20004E6F2043686512
:1028F000636B73756D2077697468206C696E6520F1
:102900006E756D6265722C204C617374204C696E1B
:10291000653A2000636865636B73756D206D69733C
:102920006D617463682C204C617374204C696E6512
:102930003A20004C696E65204E756D6265722069A3
:1029400073206E6F74204C617374204C696E652027
:102950004E756D6265722B312C204C617374204C66
:10296000696E653A20004D313130004D313137000C
:102970004D33310053442072656164206572726F7B
:10298000720A00446F6E65207072696E74696E67BA
:102990002066696C650A004F46460A004661646518
:1029A000204865696768742000426564204C65763C
:1029B000656C696E6720004661696C656420746FA0
:1029C00020656E61626C6520426564204C657665A9
:1029D0006C696E670A00496E76616C6964206D658A
:1029E00073682E0A0047312058313137205932336D
:1029F000342046363030300050726F62696E672086
:102A0000506F696E742025692F2569002E0A002FEA
:102A10000050726F62696E67206D65736820706F19
:102A2000696E742000202844525952554E2900479F
:102A30003239204175746F20426564204C6576659B
:102A40006C696E67003F20284C2C522C462C422982
:102A5000206F7574206F6620626F756E64732E0A26
:102A6000003F2856296572626F7365206C65766534
:102A70006C20697320696D706C61757369626C6537
:102A80002028302D34292E0A00426164205A2076F5
:102A9000616C75650A004E6F2062696C696E6561D4
:102AA0007220677269640A0020496E76616C6964FD
:102AB000206578747275646572200000002100241E
:102AC0000027002A0000002200250028002B00001B
:102AD0000020002300260029000202020202020256
:102AE00002040404040404040403030303030303AF
:102AF000030101010101010101010204081020404C
:102B000080010204081020408001020408102040C7
:102B1000808040201008040201000000010200092A
:102B20000A00000000040308070000000000000085
:102B30000000000000000000004D6F766520302E80
:102B4000316D6D004D6F766520316D6D004D6F7686
:102B5000652031306D6D004D6F7665204178697369
:102B600000486F74656E6420746F6F20636F6C64CF
:102B7000004578747275646572004D6F7665205AF1
:102B8000004D6F76652059004D6F766520580043E3
:102B900061726420496E73657274656400007EE73B
:102BA00081E011241FBECFEFD0E4DEBFCDBF12E025
:102BB000A0E0B1E0EAE3F8EE01E00BBF02C007904D
:102BC0000D92A037B107D9F723E1A0E7B2E001C029
:102BD0001D92AF36B207E1F715E1C0EDD5E104C0B3
:102BE0002197FE010E9466F1CF3CD107C9F70E94F0
:102BF000CBE00C9410F40C9400002F923F924F9273
:102C00005F926F927F928F929F92AF92BF92CF927C
:102C1000DF92EF92FF920F931F93CF93DF93CDB785
:102C2000DEB7EC970FB6F894DEBF0FBECDBF8CAF0A
:102C300020917D022AAF21E020937D0280913D12F8
:102C40008D3409F467C3843511F40C9481298734D9
:102C500011F00C949C2980913B1290913C128D3183
:102C6000910509F405C18CF48430910509F4B2C0D2
:102C70001CF4029790F14AC38531910511F40C942C
:102C80009E294C9709F4E4C041C38A35910509F4A3
:102C9000C1C144F48E31910509F4FEC08A9709F44C
:102CA00073C234C38B35910509F4B8C18C359105D5
:102CB00009F02CC36FE6262E61E0362E73ECE72E6A
:102CC00072E0F72EABE1B6E0B9A3A8A3E5E9CE2EFA
:102CD000ECE0DE2E00E010E0E1C1809130018823BD
:102CE00011F40C949E29AFE68A2EA1E09A2EBFEC37
:102CF000EB2EB2E0FB2E0BE116E085E9A82E8CE06E
:102D0000B82E9EE7C92E92E0D92E712CD4018D9158
:102D10004D010E94242D882319F10E94A42CF60154
:102D20002081211104C020918202222341F0D80188
:102D30002D913D914D915C910E9478F10AC0B3E0D4
:102D40007B1639F0F50120813181428153810E9447
:102D500077F1D7016D937D938D939C9313970AC060
:102D6000F80180819181A281B381F70180839183F1
:102D7000A283B3837394F4E0EF0EF11C0C5F1F4F3A
:102D800024E0A20EB11C3FEFC31AD30A44E0741230
:102D9000BDCF40E050E0BA0186E40E94543C20E000
:102DA00030E0A9010E94FBF2181684F40E94A42CC2
:102DB00020E030E040E752E40E94FBF160935B01C9
:102DC00070935C0180935D0190935E010E94DD46EB
:102DD0000C949E2980E50E94242D882329F00E94CE
:102DE00036D36B017C0103C0C12CD12C760183E565
:102DF0000E94242D882361F00E94A42C20E030E062
:102E00004AE754E40E9436ED0E9474F26B017C01A3
:102E10000E94144380910406811105C060E08DE793
:102E200091E00E9473680E9451DDC60ED71EE81E15
:102E3000F91E0E9451DDDC01CB018C199D09AE0900
:102E4000BF09B7FD02C00C949E290E94F533F1CF53
:102E50008091A50C8770873011F00C94BF2960E039
:102E60008FE40E9445D581110C949E290C94BF29B2
:102E70000E94F9B981110C949E2980912B06882318
:102E800011F40C94932A60E08FE40E9445D58111DF
:102E90000C949E290C94932A20E030E044E352E401
:102EA00060911B0670911C0680911D0690911E0674
:102EB0000E9477F1AB01BC0188E50E94543C6C8F05
:102EC0007D8F8E8F9F8F20E030E040EE50E4609148
:102ED0001F067091200680912106909122060E9483
:102EE00077F1AB01BC0189E50E94543C9B01AC0128
:102EF00069837A838B839C836C8D7D8D8E8D9F8D72
:102F00000E9460CD882311F40C949E2980E00E94D9
:102F10004A2F0E94314A61E085E40E9445D5182F6E
:102F200021E0482FBE016F5F7F4FCE014C960E947B
:102F300054BA6B017C019B01AC010E9479F38111B1
:102F40005FC08C8C9D8CAE8CBF8C20E030E0A901E2
:102F5000C501B4010E94D0EC87FF05C027E137EB23
:102F600041E558EB04C027E137EB41E558E3C501E3
:102F7000B4010E9478F1AB01BC018DEA91E00E949E
:102F80003D3889809A80AB80BC8020E030E0A90188
:102F9000C501B4010E94D0EC87FF05C027E137EBE3
:102FA00041E558EB04C027E137EB41E558E3C501A3
:102FB000B4010E9478F1AB01BC0188EA91E00E9463
:102FC0003D3820E030E0A901C701B6010E94D0ECF5
:102FD00087FF05C027E137EB41E558EB04C027E147
:102FE00037EB41E558E3C701B6010E9478F1AB0128
:102FF000BC0183EA91E00E943D388AE00E941533CB
:103000000E94184A113011F40E94EC7A0E94E94C97
:103010000C949E29109282020C949E292093820285
:103020000C949E290E94A42C2B013C01133049F0E2
:10303000D6012D913D914D915C910E9477F12B012C
:103040003C01E8A1F9A12081318142815381C30172
:10305000B2010E9477F14B015C012DEB37E346E8AA
:1030600055EB0E94FBF287FD21C02DEB37E346E8CC
:1030700055E3C501B4010E94D0EC1816BCF01F5FE7
:10308000F4E0EF0EF11C28A139A12C5F3F4F39A3CA
:1030900028A334E0C30ED11C143031F1F101819129
:1030A0001F010E94242D882351F3BCCF133051F40B
:1030B00040922706509228066092290670922A06AE
:1030C00001E0DDCFA5019401D7016D917D918D9136
:1030D0009C910E9478F1F7016083718382839383CE
:1030E000812F0E94BD46CBCF002309F449C0209117
:1030F000500B3091510B4091520B5091530B6091FA
:103100002706709128068091290690912A060E9430
:1031100036ED0E9400F36093560F7093570F809323
:10312000580F9093590F9091340F8091350F981745
:1031300019F00E94B64224C00E94144380916F008F
:10314000982F927081FF05C080916F008D7F8093D2
:103150006F004091560F5091570F6091580F70912A
:10316000590F4093C0035093C1036093C2037093FF
:10317000C303992329F080916F00826080936F00D0
:103180000E94E94C0C949E2980913001882311F40F
:103190000C949E2989E40E94242D082F882321F075
:1031A0000E945AD5E82E01C0E12C8AE40E94242D09
:1031B000182F882321F00E945AD5F82E01C0F12C37
:1031C000002319F044E04E1528F0112349F054E093
:1031D0005F1530F485EB91E00E941C330C949E291E
:1031E00080E1EBE1F6E0AFECB2E001900D928A9560
:1031F000E1F70023F1F02091300C3091310C4E2D8D
:103200004203B001439F700D112480912C0C9091CA
:103210002D0C680F791F072E000C880B990B0E944C
:10322000D7EC6093CF027093D0028093D102909339
:10323000D2021123F1F02091320C3091330C5F2D2A
:103240005203B001539F700D112480912E0C909168
:103250002F0C680F791F072E000C880B990B0E940A
:10326000D7EC6093D3027093D4028093D5029093ED
:10327000D60260E080E50E9445D5882381F10023D5
:10328000B1F020E030E044E352E46091CF0270916D
:10329000D0028091D1029091D2020E9478F1609385
:1032A000CF027093D0028093D1029093D202112367
:1032B000B1F020E030E040EE50E46091D302709134
:1032C000D4028091D5029091D6020E9478F1609349
:1032D000D3027093D4028093D5029093D60240E03B
:1032E00050E0BA0186E40E94543C6B017C0120E06E
:1032F00030E0A9010E94FBF218160CF067CD20E027
:1033000030E040E752E4C701B60156CD0E94288D57
:103310000C949E2980913B1290913C128337910529
:1033200011F40C9441230CF0B5C08B34910509F4D1
:1033300090C40CF053C08931910509F483C224F57F
:103340008431910509F427C284F48131910509F48F
:1033500017C22CF4029708F498C10C947E29429766
:1033600011F40C9426220C947E298631910509F4DF
:103370003CC20CF436C28731910509F43FC248972C
:1033800009F454C20C947E298E31910509F4DEC2F1
:10339000ACF48B31910509F47CC20CF46CC28C3115
:1033A000910509F4C9C24D9711F00C947E298091C2
:1033B000D3108E7F8093D3100C949E298032910578
:1033C00009F423C30CF467C38A32910509F40EC4CF
:1033D0008934910509F42EC40C947E29893691050F
:1033E00009F4BAC76CF58335910511F40C942322C6
:1033F000A4F48D34910509F445C40CF42EC4813530
:10340000910511F40C940F228235910511F00C9462
:103410007E29109281020C949E298535910511F424
:103420000C94592214F40C9426228C35910511F435
:103430000C9472228836910509F428C40C947E29D4
:103440008E36910509F4E3C584F48B36910509F4B1
:10345000DBC70CF4BAC78C36910509F430C68D363B
:10346000910509F437C40C947E298037910509F43D
:103470002CC60CF4DFC58137910509F42EC68237BE
:10348000910511F00C947E290E9414430E94E94C8E
:103490000C949E298C32A1E09A0711F40C94A72673
:1034A0000CF07AC0883C910511F40C945124E4F599
:1034B0008937910511F40C94EF2304F586379105B3
:1034C00011F40C94BA233CF48537910511F40C9453
:1034D000AA230C947E298737910511F40C94EC23D0
:1034E0008837910511F00C947E2981E080936B045C
:1034F00080936A040E9449AC0C949E2981399105FD
:1035000011F40C94F62334F48C38910509F40AC6AE
:103510000C947E298B39910509F431C78E3B9105B6
:1035200009F41EC60C947E298E3C910511F40C946E
:103530002125CCF48B3C910511F40C94C1243CF46E
:10354000893C910511F40C949E240C947E298C3CAA
:10355000910511F40C94E0248D3C910511F40C9428
:1035600011250C947E298C3D910511F40C94F925BC
:103570003CF4833D910511F40C9443250C947E2971
:103580008D3D910511F40C940626823E910511F4AF
:103590000C945C260C947E29853AE1E09E0711F498
:1035A0000C940728A4F5803921E0920711F40C94BB
:1035B000F627B4F48E3241E0940711F40C94AF274F
:1035C00014F40C94BC268F32A1E09A0711F40C94E9
:1035D000F3278033914011F40C943C270C947E29FE
:1035E0008239E1E09E0711F40C94FF2714F40C9447
:1035F000F9278A3921E0920709F46BC5843A914092
:1036000011F00C947E290E949FD30C949E29883F30
:1036100041E0940711F40C941B29ECF4843FA1E0E1
:103620009A0711F40C9415293CF48C3A914011F44A
:103630000C9470280C947E29853FF1E09F0711F4CB
:103640000C941829863F914011F00C947E290E9419
:1036500058AC0C949E29833533E0930711F40C94F5
:1036600033293CF48C30924011F40C942B290C94A7
:103670007E29803AA3E09A0709F4FDC1873E934072
:1036800011F40C9470290C947E29A0903912B090FA
:103690003A1280E50E94242D882359F00E9436D3E7
:1036A0006B017C0111E0672B682B692B31F410E072
:1036B00004C010E0C12CD12C760183E50E94242D9A
:1036C000882311F40C94962A0E94A42C20E030E068
:1036D0004AE754E40E9436ED0E9474F26B017C01CB
:1036E00011110BC0672B682B692B39F4A114B1049D
:1036F00021F0F5018081811102C010E001C011E0CC
:103700000E941443112329F061E0C5010E94BF68A3
:1037100005C060E084ED91E00E94736810917D0225
:1037200083E080937D0281E080938A03C114D104F9
:10373000E104F104B1F00E9451DDC60ED71EE81E6F
:10374000F91E0E9451DDDC01CB018C199D09AE09E7
:10375000BF09B7FF0DC080918A0381110C949B2A89
:1037600007C080918A03882319F00E94F533F9CFAE
:103770000E94E56810928A0310937D020C949E29A2
:1037800060E087EE91E00E9473685E985E981598FD
:103790005E980C949E298FEF91E00E941C3310924A
:1037A000810386E19FE00E9414588BE1E6E1FFE08F
:1037B000DE01119601900D928A95E1F740E050E00C
:1037C000BE016F5F7F4F80E090E00E942E51CE01DE
:1037D00001960E944A5980EF91E00E941C330C949C
:1037E0009E290E9415500C949E290E94A64F8091FC
:1037F000D310877F8093D3100C949E29E0913912C7
:10380000F0913A128081882329F0803209F41082E5
:103810003196F8CF40E061E08091391290913A12F0
:103820000E94CC521092AF0B0C949E290E94FB4137
:10383000882321F00E94B54F0E9413630E94E5681F
:103840000C949E298091D31082FF03C08B7F8093BC
:10385000D31080918F03813089F782E080938F03AA
:103860000E9451DD60938B0370938C0380938D03D2
:1038700090938E03E3CF8091D31083FD02C00C940C
:103880009E2983E50E94242D81110C949F2A0C947B
:103890009E2983E40E94DB2C882319F18AE192E0BF
:1038A0000E941C338091C00E882391F0BE016F5F8F
:1038B0007F4F8DEB9EE00E94DB568E010F5F1F4F06
:1038C000D8018D918D01882339F00E941533F8CFEE
:1038D00080E192E00E941C338AE00E9415330C9430
:1038E0009E298091D31082FF21C089E292E00E943C
:1038F0001C336091CF107091D0108091D1109091B5
:10390000D2104AE00E9489368FE20E9415336091FE
:10391000CB107091CC108091CD109091CE104AE0D8
:103920000E9489360E944E380C949E298BE392E0C7
:103930000E941C330C949E2940E060E08091391273
:1039400090913A120E94CC520C949E298091D310EF
:1039500083FD02C00C949E290E94118D8091D3108A
:1039600083FD02C00C949E296091391270913A1225
:10397000CE014C960E9467C78C01009711F40C94FD
:103980009E296C8D7D8D19821C8222E0AC01CE01B6
:1039900001960E942D5D811102C0F12C14C0CE0150
:1039A00001960E94D5C68823C1F361E0CE0101963D
:1039B0000E94BF56009789F325EEFC0120831C82EC
:1039C0000E94CE58F82ECE0101960E944A59B801A5
:1039D000FF2089F087E692E00E942B338AE00E9464
:1039E00015331092CF101092D0101092D110109267
:1039F000D2100C949E298FE492E00E942B338CE429
:103A000092E00E941C330C949E298091D31082FD79
:103A10000E9414438091D31083FD02C00C949E2910
:103A200060E080E50E9445D5182F482F61E0809125
:103A3000391290913A120E94CC5283E50E94242DB3
:103A4000882381F00E94942CAB01BC014093CF10DD
:103A50005093D0106093D1107093D2108DEB9EE0F4
:103A60000E94D5550E94B54F11110C949E290E94B9
:103A700013630C949E292091391230913A1290913F
:103A8000D31092609093D31040E060E0C9010E948F
:103A9000CC520C949E290E94C4627B018C0120E8C8
:103AA00031E541E050E00E94D7F0C9016DE671E0D8
:103AB0000E941FF14B015C01C801B70120E13EE00B
:103AC00040E050E00E94D7F0CA01B90128E130E09F
:103AD00040E050E00E94D7F0762E672EC62ED72EFB
:103AE0005CE3252E312C412C512CC801B701A201D9
:103AF00091010E94D7F0F62EE72ECA01B901A2016A
:103B000091010E94D7F0CB018E010F5F1F4F8114EE
:103B1000910499F0EF92FF927F936F936F927F924F
:103B2000BF92AF929F928F928DE992E09F938F9375
:103B30001F930F930E9468EC13C0A114B104B1F05D
:103B4000EF92FF927F936F936F927F92BF92AF92AB
:103B50008DE892E09F938F931F930F930E9468ECE0
:103B60000FB6F894DEBF0FBECDBF30C0CD2879F0C0
:103B7000EF92FF927F936F936F927F9281E892E032
:103B80009F938F931F930F930E9468ECE9CF892B2B
:103B900069F0EF92FF927F936F9389E792E09F9392
:103BA0008F931F930F930E9468ECDACFEF92FF92EE
:103BB00085E792E09F938F931F930F930E9468EC89
:103BC0000F900F900F900F900F900F9060E0C80132
:103BD0000E94BF680E944233B80181EB92E00E94CC
:103BE0002B338AE00E9415330C949E2983E50E94B2
:103BF000242D882311F40C949E290E9446D3F82E7C
:103C00006FEF7FEF80E50E945ED58C0197FF02C0C9
:103C10000C949E29E82E60E089E40E9445D581112C
:103C20000C94B02A802F0E945CE081110C947926BC
:103C30000C94B02A80E50E94DB2C882311F40C94AC
:103C40009E298091D31082FF02C00C949E290C946F
:103C5000C32A0E9413630C949E2980918F038130A4
:103C600011F00C949E2982E080938F030E9451DD15
:103C700060938B0370938C0380938D0390938E03DA
:103C80000C949E290E9437630C949E2980912F0BDF
:103C900083FF02C00C949E290E945AD387FF02C062
:103CA0000C949E2983E50E94242D882379F00E949C
:103CB000A42C0E946DF28B01CB010E941E5E063582
:103CC000110524F40E9437630E94E5680E949BE07E
:103CD0000C949E2980912F0B83FF02C00C949E2987
:103CE0000E945AD38EA787FF02C00C949E2983E5B9
:103CF0000E94242D88A3811106C082E50E94242DF4
:103D0000182F8823C9F10E94A42C0E946DF2CB01C8
:103D10000E941E5E0E94A42C20E030E04AEA52E499
:103D20000E94D0EC181614F40C94CE2A0E9437632B
:103D30000E94E56860916E0670916F06072E000C78
:103D4000880B990B0E94D7EC6B017C0180906A066E
:103D500090906B06A0906C06B0906D06A501940142
:103D60000E94FBF2181614F40C94E12AB8A1BB23AC
:103D700011F40C94D22A11E00E949BE0112311F45B
:103D80000C949E2981E080934F011EA21FA218A6C9
:103D900019A61AAA1BAA1CAA1DAAE1E0EEAB1AA238
:103DA0001FAAFCE3F8AF2CE129AF36E43BAFC12CEE
:103DB000D12C30E8E32E4FEBF42E812C912C5401C2
:103DC00060916E0670916F06072E000C880B990BA0
:103DD0000E94D7EC162F072F782E692E9601A70187
:103DE0000E94D0EC8823F1F020916A0630916B0696
:103DF00040916C0650916D0688A1612F702F811142
:103E000009C0872D962D0E94D0EC881F8827881F17
:103E10008AA30CC0872D962D0E94D0EC87FD92C2FC
:103E20001AA204C01C2D0D2D7E2C6F2C0E9451DD7A
:103E30006B017C01DC01CB012AA93BA94CA95DA93E
:103E4000821B930BA40BB50BB7FD33C0D701C60182
:103E500088519C4FAF4FBF4F8AAB9BABACABBDAB58
:103E60008EA50E94DB698EEB92E00E941C338114C8
:103E70009104A104B104B9F0D501C401805F984D4B
:103E8000AF4FBF4FBC01CD016C197D098E099F0951
:103E900028EE33E040E050E00E94D7F0CA01B901BB
:103EA0000E94143703C08FE30E9415338AE00E94FA
:103EB00015330E94F5330E9451DD609370027093B8
:103EC0007102809372029093730290916A069AA78E
:103ED000A0916B06ABA7B0916C06BCA7E0916D06F4
:103EE000EDA7292F3A2F4B2F5E2F612F702F872D93
:103EF000962D0E9477F11B012C0120E030E0A901F2
:103F00000E94FBF287FF04C057FA509457F8509470
:103F100081149104A104B104B1F420E030E040E840
:103F20005FE3C201B1010E94D0EC87FF18C0FEA977
:103F300046015701FF2399F020E1820E27E2921EED
:103F4000A11CB11C0CC020E030E040E450E4C201F0
:103F5000B1010E94FBF2181614F4460157013AA170
:103F60003323C1F18EA19FA1A8A5B9A5892B8A2BC6
:103F70008B2B61F0D701C6012EA13FA148A559A501
:103F8000821B930BA40BB50BB7FD24C02AA53BA540
:103F90004CA55DA56FA978AD89AD9BAD0E9477F169
:103FA00020E030E040EC5FE30E94D0EC87FDCAC126
:103FB000D701C601805A9541AF4FBF4F8EA39FA333
:103FC000A8A7B9A79AA59FABABA5A8AFBCA5B9AF49
:103FD000EDA5EBAF80914F01882309F4B3C18114A3
:103FE0009104A104B10431F41EAAC12ED02EE72CF5
:103FF000F62CE6CEF0E1CF1AF7E2DF0AE108F1088D
:10400000C818D908EA08FB08F7FCEECF9BC18EE47C
:104010000E94242D882311F40C949E290E94942C34
:104020006093C0127093C1128093C2129093C31216
:104030000C949E2983E50E94DB2C882331F060E0FC
:1040400083E50E9483D380932F0B0E9442338AEE34
:1040500092E00E941C3380912F0B882369F120EE9F
:10406000E22E22E0F22E00E010E020E080912F0B03
:1040700090E0A0E0B0E0002E04C0B695A79597951B
:1040800087950A94D2F780FF0EC0DD24D394D20E18
:10409000222319F08CE20E941533F7018591949147
:1040A0000E941C332D2D0F5F1F4F32E0E30EF11CD9
:1040B00005301105D9F610CC8CED92E00BCC1092A6
:1040C0008A0310924F010C949E2980E090E00E9498
:1040D00046330E9496320C949E2983E50E94242D3B
:1040E000882381F00E9446D3282F30E02D333105FC
:1040F00024F4809300010C949E298CE380930001AA
:104100000C949E290E9442334091000150E060E0EF
:1041100070E081EF92E00E94F6368AE00E9415334B
:104120000C949E2980912F0B83FF02C00C949E2932
:1041300083E50E94242D882311F40C949E290E946B
:10414000A42C0E946DF26337710514F063E770E0F0
:1041500070933913609338130E948C690C949E29D4
:1041600080912F0B83FF02C00C949E2983E50E944F
:10417000242D8DA7811107C082E50E94242D88235C
:1041800011F40C949E290E94A42C0E946DF26337B6
:10419000710514F00C94A32B7093391360933813AA
:1041A0000E948C690E94A42C20E030E040EA50E498
:1041B0000E94FBF2181614F40E94136360913813E6
:1041C00070913913072E000C880B990B0E94D7ECC5
:1041D0002091341330913513409136135091371399
:1041E0000E94FBF2181614F00C94E42A8BE093E082
:1041F00060E00E94736881E080934F011AA21BA2C5
:104200001CA21DA21EA61FA618AA19AA18A21EAAA1
:104210004CE34FAB5CE158AF86E489AFC12CD12CA5
:1042200080E8E82E9FEBF92E91E09AAB812C912C3F
:1042300054016091381370913913072E000C880BCC
:10424000990B0E94D7EC162F072F782E692E960116
:10425000A7010E94D0EC882311F40C94F12A20913C
:104260003413309135134091361350913713ADA567
:10427000612F702F872D962DA1110C94E82A0E9492
:10428000D0EC881F8827881F88A30E9451DD6B010E
:104290007C01DC01CB012EA53FA548A959A9821BB1
:1042A000930BA40BB50BB7FD02C00C94F72A0E9428
:1042B000F5330E9451DD6093700270937102809318
:1042C000720290937302909134139EA3A0913513C0
:1042D000AAA7B0913613BBA7E0913713ECA7292FFB
:1042E0003A2F4B2F5E2F612F702F872D962D0E9416
:1042F00077F11B012C0120E030E0A9010E94FBF2C4
:1043000087FF04C057FA509457F8509481149104D1
:10431000A104B10411F00C943B2B20E030E040E804
:104320005FE3C201B1010E94D0EC87FF02C00C9490
:104330002C2B38A131110C944B2B80914F01811102
:104340000C94892B80914F01882311F40C949E29A1
:104350000E94E5680C949E290E945AD3182F87FF6B
:1043600002C00C94A3298AE193E00E941C33812FA0
:104370000E94DB698AE00E9415330C94A32983E52F
:104380000E94242D882309F4D9C70E9446D3182FF0
:1043900090E0CD970CF01CE3109378020E9451DD61
:1043A0006B017C01212F30E0A8EEB3E00E9404F104
:1043B000C60ED71EE81EF91EC0927402D092750276
:1043C000E0927602F0927702B9C760E080E50E9441
:1043D00083D38111B3C781E40E94DB2C882321F0B1
:1043E0006091540670E002C06FEF70E083E50E94B8
:1043F0004BCF8F3F910519F010F08FEF90E0809335
:10440000540680932F139AC760E080E50E9483D3FF
:10441000811194C71092540610922F138FC70E94D7
:104420000D6B0E9437630E9403440E94D33268EEF2
:1044300073E080E090E00E94723260E08DE193E0F2
:104440000E9473687BC72093810278C783E50E942E
:10445000242D882399F00E94A42C20E030E04AE724
:1044600054E40E9436ED0E9474F26093010170934F
:104470000201809303019093040160C788E50E94C4
:10448000DB2C81110C94A72B89E50E94DB2C811178
:104490000C94A72B8AE50E94DB2C81110C94A72B8E
:1044A00085E40E94DB2C81110C94A72B0E9403440D
:1044B00045C783E50E94DB2C882309F43FC70E948F
:1044C000A42C20E030E04AE754E40E9436ED0E943C
:1044D00074F26093790270937A0280937B029093D6
:1044E0007C022CC70E945AD387FD28C780913512C1
:1044F00084FD04C08091371287FF0AC01FE6C12ED9
:1045000011E0D12E00E3E02E0BE0F02E10E03AC0D7
:1045100080913812837091F70E9442334091440B8E
:104520005091450B6091460B7091470B86E393E0E9
:104530000E943D384091480B5091490B60914A0BC5
:1045400070914B0B83E393E00E943D3840914C0BFC
:1045500050914D0B60914E0B70914F0B80E393E0A7
:104560000E943D384091500B5091510B6091520B7D
:104570007091530B8DE293E00E943D388AE00E94D7
:104580001533DCC6D6018D916D010E94242D882340
:1045900009F46DC0133009F063C00E94A42C4B01D4
:1045A0005C0120E030E040EA51E40E94D0EC87FF5B
:1045B0004EC0A50194016091500B7091510B8091F8
:1045C000520B9091530B0E94FBF12B013C019B017C
:1045D000AC01609138067091390680913A0690914D
:1045E0003B060E9436ED609338067093390680933F
:1045F0003A0690933B06A30192016091600B709183
:10460000610B8091620B9091630B0E9436ED609379
:10461000600B7093610B8093620B9093630B6091BE
:1046200048067091490680914A0690914B060E9477
:10463000D5ECA30192010E9436ED0E9474F26093C2
:1046400048067093490680934A0690934B068092E1
:10465000500B9092510BA092520BB092530B07C08B
:104660000E94A42CF701648B758B868B978B1F5F40
:10467000F4E0EF0EF11C143009F084CF0E94C37CEB
:104680005DC681E694E00E941C3360E081E594E021
:104690000E945ECF60E08CE394E00E945ECF61E018
:1046A00085E394E00E945ECF61E08AE294E00E949C
:1046B0005ECF61E08AE194E00E945ECF60E081E13C
:1046C00094E00E945ECF61E087E094E00E945ECFBC
:1046D00061E08DEF93E00E945ECF61E085EF93E0B3
:1046E0000E945ECF61E087EE93E00E945ECF61E0C2
:1046F00089ED93E00E945ECF60E08AEC93E00E9437
:104700005ECF60E08CEB93E00E945ECF60E086EAD3
:1047100093E00E945ECF60E085E993E00E945ECF67
:1047200060E086E893E00E945ECF60E081E793E07E
:104730000E945ECF61E08EE593E00E945ECF60E074
:1047400081E593E00E945ECF60E08DE393E00E94FC
:104750005ECFF4C58091391290913A12009709F416
:104760006DC8DC012C91222309F468C860E00E9426
:10477000BF68E4C50091391210913A1283E0F12C20
:1047800040E08150E1F0F8019081292F2B7F213406
:10479000C1F721812133A9F7913421F0953421F417
:1047A00041E002C0FF24F39498012E5F3F4F89013E
:1047B0002F5F3F4FD8019C919032C9F3E2CF411156
:1047C0000E944233FF2021F088E295E00E941C33D2
:1047D000C8010E945438B2C50E942EACAFC51092D9
:1047E0006B0410926A040E9449ACA8C560E070E0B6
:1047F00083E50E945ED58C011127023011053CF043
:104800000E943E338CE295E00E941C3397C588E4F9
:104810000E94242D8823A9F00E945AD58A3A910536
:104820003CF08530B1E09B072CF084E091E002C0C1
:104830008AEA90E0F801EE0FFF1FE45CF34F9183EA
:10484000808386E40E94242D882381F00E945AD51B
:1048500097FD07C08F3F910529F024F08FEF90E07E
:1048600001C080E0F801EA5CF34F808382E40E949B
:10487000242D882309F462C50E945AD585309105FC
:1048800034F0843791052CF083E790E002C085E096
:1048900090E0F801EE0FFF1FE85CF34F91838083F7
:1048A0004DC50E945AD3182F87FD48C584E40E9445
:1048B000DB2C882309F43FC00E94A42C6B017C01EF
:1048C00001E020E030E0A9010E94D0EC811101C09C
:1048D00000E00093EB0220E030E0A901C701B6013F
:1048E0000E94D0EC882339F10E94A42C24E012020B
:1048F000F0011124E051FD4F608371838283938323
:1049000020E030E0A9016091F0027091F102809105
:10491000F2029091F3020E94D0EC81110CC080E071
:1049200090E0A0EEBFE38093F0029093F102A09399
:10493000F202B093F3020E94364200C50E945AD39D
:1049400087FDFCC47FE6E72E71E0F72E00E31BE055
:10495000D7018D917D010E94DB2C882349F00E94B4
:10496000A42C0E9474F2F801608371838283938384
:104970000C5F1F4FFBE000341F0751F70E947C7C47
:10498000DDC40E945AD387FDD9C46FE6E62E61E0EC
:10499000F62E00E31BE0D7018D917D010E94DB2CF8
:1049A000882339F00E94A42CF80164A375A386A380
:1049B00097A30C5F1F4FFBE000341F0761F7BEC4D5
:1049C0008091361287FDE8C6809137128E7009F00B
:1049D000E3C64091640B5091650B6091660B70913A
:1049E000670B84E595E00E943D384091680B50913B
:1049F000690B60916A0B70916B0B81E595E00E94E9
:104A00003D3840916C0B50916D0B60916E0B709125
:104A10006F0B8EE495E00E943D388AE00E941533CA
:104A20008DC480913512827109F0FCC680913712D5
:104A30008C7809F0F7C680913812837009F0F2C6BD
:104A40007DC44FE6C42E41E0D42E5EE6E52E54E050
:104A5000F52E10E0D6018D916D010E94DB2C88238C
:104A600051F00E94A42CF7016083718382839383A9
:104A7000812F0E94BD461F5FF4E0EF0EF11C133042
:104A800049F70C94C0180E9442338DEB95E00E94C8
:104A90001C3383E50E94DB2C882321F00E948FD3F6
:104AA0008093270180912701882319F08AE995E0F6
:104AB00002C086E995E00E941C3385EB95E00E94D8
:104AC0001C332091950C3091960C4091970C50918D
:104AD000980C60910F0170911001809111019091DB
:104AE00012010E9478F1AB01BC0183EB95E00E94BA
:104AF0003D382091990C30919A0C40919B0C50912B
:104B00009C0C60911701709118018091190190918E
:104B10001A010E9478F1AB01BC0180EB95E00E9484
:104B20003D3820919D0C30919E0C40919F0C5091EE
:104B3000A00C60911F017091200180912101909142
:104B400022010E9478F1AB01BC018DEA95E00E9440
:104B50003D3885EA95E00E941C332091950C3091F8
:104B6000960C4091970C5091980C609113017091A4
:104B7000140180911501909116010E9478F1AB010A
:104B8000BC0183EA95E00E943D382091990C309158
:104B90009A0C40919B0C50919C0C60911B01709160
:104BA0001C0180911D0190911E010E9478F1AB01C2
:104BB000BC0180EA95E00E943D3820919D0C309127
:104BC0009E0C40919F0C5091A00C6091230170911C
:104BD000240180912501909126010E9478F1AB017A
:104BE000BC018DE995E00E943D388AE00E941533B2
:104BF000A5C383E50E94242D882309F49FC30E9446
:104C00005AD5909329018093280198C30E945AD3C2
:104C1000F82E87FD93C383E50E94242D0F2D0F2CC2
:104C2000000C110B882369F10E945AD5F801EE0F90
:104C3000FF1FE25DFE4F91838083000F111F000F65
:104C4000111F98012F5A3E4F7901BC01990F880B13
:104C5000990B0E94D7EC2AE037ED43E25CE30E9417
:104C600036EDF801E451FD4F2081318142815381BD
:104C70000E9436EDD7016D937D938D939C9313978E
:104C80005DC30E94423385E40E94153380E38F0D9B
:104C90000E941533F801EE0FFF1FE25DFE4F6081A9
:104CA00071818DEC95E00E94303785E20E941533CA
:104CB0008AE00E94153342C380E50E94DB2C8823E2
:104CC00009F43CC360E070E080E50E945ED5F82EF8
:104CD0006FEF7FEF83E50E945ED58C01019603970D
:104CE00008F02CC3F7FC2AC38F2D0E945CE08823B8
:104CF00039F00E943E3385ED95E00E941C331EC3BF
:104D00000E94144360E08F2D0E9469DC0F3FBFEFCB
:104D10001B0731F00130110571F000E010E00DC00B
:104D20008F2D0E9411DC31E020E0892B09F030E06A
:104D3000032F122F02C001E010E08F2D0E9411DC22
:104D40008017910709F4FAC20E94F533F6CF64E0A8
:104D500071E083E50E944BCF8C0168EE73E080E543
:104D60000E944BCF8938E3E19E0710F088E893E179
:104D7000B8010E944668E2C260E085E40E9483D3E5
:104D8000811173C080E50E94DB2C882351F00E94C2
:104D9000A42C6093710670937206809373069093AF
:104DA000740689E40E94DB2C882381F00E94A42CE5
:104DB0002CEA35EC47E25EE30E9436ED609375061F
:104DC00070937606809377069093780684E40E9429
:104DD000DB2C882381F00E94A42C2CEA35EC47E2DE
:104DE0005EE30E94FBF16093790670937A068093EC
:104DF0007B0690937C060E9442334091710650914D
:104E0000720660917306709174068EEF95E00E94B1
:104E10003D382CEA35EC47E25EE36091750670910F
:104E2000760680917706909178060E94FBF1AB019F
:104E3000BC018AEF95E00E943D382CEA35EC47E250
:104E40005EE36091790670917A0680917B0690917D
:104E50007C060E9436EDAB01BC0186EF95E00E9416
:104E60003D388AE00E94153369C20E943E3384EEC9
:104E700095E00E941C3362C280E50E94DB2C8823EF
:104E800051F00E94A42C60933B1370933C138093C9
:104E90003D1390933E1389E40E94DB2C882381F01C
:104EA0000E94A42C2CEA35EC47E25EE30E9436ED2A
:104EB00060933F1370934013809341139093421378
:104EC00084E40E94DB2C882381F00E94A42C2CEA2D
:104ED00035EC47E25EE30E94FBF16093431370936D
:104EE000441380934513909346130E94423340919C
:104EF0003B1350913C1360913D1370913E138AE037
:104F000096E00E943D382CEA35EC47E25EE3609182
:104F10003F137091401380914113909142130E946E
:104F2000FBF1AB01BC0186E096E00E943D382CEA23
:104F300035EC47E25EE36091431370914413809136
:104F40004513909146130E9436EDAB01BC0182E0FF
:104F500096E00E943D388AE00E941533EFC183E558
:104F60000E94DB2C182F882371F00E94A42C0E9431
:104F70006DF2709356016093550121E0672B09F0A3
:104F800020E02093650680E50E94DB2C882359F001
:104F90002091550130915601232B11F00E948FD39F
:104FA00080936506CBC11111C9C10E9442338AE2C8
:104FB00096E00E941C3380916506882319F082E1F7
:104FC00096E002C08EE096E00E941C33609155018D
:104FD0007091560189E196E00E94303785E196E0B4
:104FE0000E941C33ABC10E946B3CA8C10E941443B9
:104FF000A5C181E00E94347B0E94E94C9FC180E002
:105000000E94347B0E94EC7A0E94E94C97C16FEFBA
:105010007FEF89E40E945ED5182F6FEF7FEF8AE45F
:105020000E945ED5082F8AE50E94DB2CF82E8111A4
:1050300005C081E50E94DB2CD82E01C0D12C17FDC4
:1050400006C007FD04C0F11009C0D11007C00E94BE
:105050003E338CE596E00E941C3370C1153010F48D
:10506000053038F00E943E338DE396E00E941C33F9
:1050700065C1E12E110FFF08002E000C110B0E94DC
:10508000A42CDD2099F025E02E9DF0012F9DF00D40
:105090001124E00FF11FEE0FFF1FEE0FFF1FE8536B
:1050A000F44F208131814281538103C020E030E000
:1050B000A901A5E0AE9DF001AF9DF00D11240E0FEA
:1050C0001F1F000F111F000F111F0853144F0E94C4
:1050D00078F1D8016D937D938D939C9313972EC196
:1050E0000E94F9B981112AC109EF1FE0EBE1F6E056
:1050F000F9A3E8A39E012F5F3F4F59019EE4892E3B
:1051000090E1992E1901F80165917591859194911D
:10511000A8A1B9A1CD90DD90ED90FD90B9A3A8A371
:10512000A70196010E9477F12B013C01F1016083F8
:1051300071838283938320E030E040EA51EC0E9447
:10514000FBF287FD0AC020E030E040EA51E4C301F1
:10515000B2010E94D0EC18162CF4F40184911816B8
:105160000CF4D7C3D101CD90DD90ED90FD901D01E1
:1051700020E030E040EA51ECC701B6010E94FBF2AA
:1051800087FD0AC020E030E040EA51E4C701B601E3
:105190000E94D0EC1816A4F40E943E338AE996E0EF
:1051A0000E941C3361E08CE896E00E9473680E94C4
:1051B000859568E270E088EC90E00E944668BEC089
:1051C0000C5F1F4FBFEF8B1A9B0AE0E105301E07F3
:1051D00009F099CF8EE6E82E84E0F82E10E0F50174
:1051E00081919191A191B1915F01F7018193919387
:1051F000A193B1937F01812F0E94BD461F5F1330A1
:1052000071F70E94E94C60E08CE796E00E947368B9
:1052100063E972E084E690E00E9446686AEB72E01F
:1052200084E690E00E94466889C00E942F5E86C096
:105230000E9453B383C02093350C0E9492AD10920C
:10524000350C882309F47AC00E94423388EB96E03B
:105250000E941C3373C08091D31082FF6FC08062A4
:105260008093D3106BC08AE50E94242D882331F1EE
:105270000E94A42C6B017C0120E030E040EA51EC5C
:105280000E94FBF287FD13C020E030E040EA51E4C9
:10529000C701B6010E94D0EC18164CF0C092A10CC8
:1052A000D092A20CE092A30CF092A40C47C00E94F2
:1052B0003E3383EC96E00E941C3340C00E94423390
:1052C0004091A10C5091A20C6091A30C7091A40C80
:1052D00080EE96E00E943D388AE00E9415332EC091
:1052E00081E08093300110921A0660E083E50E940D
:1052F00045D5811123C00E94DFC920C00E94288D9E
:105300001DC000913B1210913C120023B9F00E9485
:10531000423384E50E941533B8017727072E000C2D
:10532000880B990B0E94143780E20E94153381EF9D
:1053300096E00E941C3302C00E94288DFCADF11142
:1053400002C00E94CFC92AAD20937D02EC960FB611
:10535000F894DEBF0FBECDBFDF91CF911F910F91AB
:10536000FF90EF90DF90CF90BF90AF909F908F9085
:105370007F906F905F904F903F902F9008950E9484
:10538000144380E00E944A2F0E94314A81E08093BA
:105390006B040E9449AC88E50E94DB2C182F89E53C
:1053A0000E94DB2C082F8AE50E94DB2C1013B9C069
:1053B000181711F0012FB5C001E011E0FF24F3949C
:1053C00080E1EBE1F6E0AFECB2E001900D928A955E
:1053D000E1F782E50E94242D882361F00E94A42C2D
:1053E0004B015C0120E030E0A9010E94D0EC882351
:1053F00061F106C0812C912CF0E2AF2EF1E4BF2EBA
:10540000111102C0002359F18092D7029092D80264
:10541000A092D902B092DA02A5019401609123060C
:105420007091240680912506909126060E94D0EC6A
:1054300087FF0BC019821A821B821C82BE016F5F1C
:105440007F4F87ED92E00E94114B112319F080E00D
:105450000E94BF4B002319F081E00E94BF4BFF2048
:1054600009F451C08091940C8370833061F060E046
:1054700085E991E00E9473680E94423386E891E0DA
:105480000E941C333EC00E94BD4BE0902306F0906A
:1054900024060091250610912606E092D702F0928C
:1054A000D8020093D9021093DA0280E090E0A2E2E1
:1054B000B3E48093CF029093D002A093D102B09333
:1054C000D20280E090E0A8EFB2E48093D302909300
:1054D000D402A093D502B093D60219821A821B82FD
:1054E0001C82CE0101966C0120E030E048EF52E4CE
:1054F00060E070E082E293E40E94504A82E00E9401
:10550000BF4B0E94EC7A0E94BD4B80916A0480934D
:105510006B040E94184A83E0809350010E94E94C7A
:105520000DCFF82E4DCF0E946DD508CF11110C94E0
:105530007D1B0C94761B0E94F5330C94A11B0E94DA
:10554000942CAB01BC014093CF105093D0106093CA
:10555000D1107093D2108DEB9EE00E94D555EECE07
:1055600061E0802F0E9469DC6F2D802F0E943ADC61
:105570006F2D70E0802F0E94A5DC34E0E312DECEB8
:10558000F0925406DBCE0E9446D390E0853691051A
:1055900014F084E690E08093AF0BD0CE0E941363AA
:1055A0000C949A1EA5019401C701B6010E94FBF25A
:1055B00018163CF082EC92E060E00E9473680C9454
:1055C000BB1E8FEC92E0F8CF8CEF92E00C94F820A9
:1055D0000E94D0EC87FF02C00C94A22118A20C9468
:1055E00045211C2D0D2D7E2C6F2C0C944521D701AF
:1055F000C60188519C4FAF4FBF4F8EA79FA7A8AB46
:10560000B9AB80E00E94DB6988EF92E00E941C3316
:1056100081149104A104B104B9F0D501C401805FE3
:10562000984DAF4FBF4FBC01CD016C197D098E095C
:105630009F0928EE33E040E050E00E94D7F0CA0115
:10564000B9010E94143703C08FE30E9415338AE02A
:105650000E9415330C945721FAA946015701FF23E4
:1056600011F40C94992120E1820E27E2921EA11CD4
:10567000B11C0C94992120E030E040E450E4C201D8
:10568000B1010E94FBF2181614F00C949921460106
:1056900057010C9499218AA19BA1ACA1BDA1892B92
:1056A0008A2B8B2B71F0D701C6012AA13BA14CA1FB
:1056B0005DA1821B930BA40BB50BB7FF02C00C942A
:1056C0009D212EA13AA54BA55CA56EA97FA988AD09
:1056D00099AD0E9477F120E030E040EC5FE30E945A
:1056E000D0EC87FF02C00C94A221D701C601805ADA
:1056F0009541AF4FBF4F8AA39BA3ACA3BDA39EA16F
:105700009EABAAA5AFABBBA5B8AFECA5E9AF0C9417
:105710009D2181149104A104B10439F41AAAC12E67
:10572000D02EE72CF62C0C941921F0E1CF1AF7E2D9
:10573000DF0AE108F108C818D908EA08FB08F7FCF5
:10574000EDCF0C94A22163E770E00C94CC200E9472
:10575000144388E50E94DB2C882331F05E9A809107
:10576000940C8E7F8093940C89E50E94DB2C882317
:1057700031F05E9A8091940C8D7F8093940C8AE531
:105780000E94DB2C882309F4D9CD159A8091940CC2
:105790008B7F8093940CD2CD83E50E94242D8823A7
:1057A00091F00E94A42C6093640B7093650B80931E
:1057B000660B9093670B60936C0B70936D0B8093EB
:1057C0006E0B90936F0B80E50E94242D882351F07F
:1057D0000E94A42C6093640B7093650B8093660BFE
:1057E0009093670B82E50E94242D882351F00E943C
:1057F000A42C6093680B7093690B80936A0B909351
:105800006B0B84E50E94242D882309F497CD0E9418
:10581000A42C60936C0B70936D0B80936E0B909324
:105820006F0B8CCD82E40E94DB2C882351F00E9408
:1058300036D36093400B7093410B8093420B90934F
:10584000430B83E50E94DB2C882351F00E94A42C9B
:105850006093700B7093710B8093720B9093730B2A
:1058600084E50E94DB2C882351F00E94A42C6093D5
:10587000740B7093750B8093760B9093770B88E580
:105880000E94DB2C882351F00E94A42C60932C06EC
:1058900070932D0680932E0690932F0689E50E9423
:1058A000DB2C882351F00E94A42C60933006709367
:1058B000310680933206909333068AE50E94DB2CF2
:1058C0008823B1F00E94A42C6093340670933506AF
:1058D00080933606909337062DEC3CEC4CEC5DE360
:1058E0000E94D0EC181624F084E695E00E941C3348
:1058F00085E40E94DB2C882309F420CD0E94A42C8F
:10590000609338067093390680933A0690933B066D
:1059100015CDF7FAF094F7F8F094D101CD92DD921D
:10592000ED92FC9213971ECC80912D1390912E1323
:10593000009731F04AE050E060E070E00C94C6E976
:1059400060E070E0CB0108950F931F93CF93809197
:105950002D1390912E13009711F1FC018F01C1912D
:105960002C2F2F7DA9F0C53411F0C536B9F7F801F9
:10597000108260E070E080912D1390912E130E94B0
:105980006AE8F801C083562F472F382F292F0BC004
:1059900060E070E0CF911F910F910C946AE850E0A5
:1059A00040E030E020E0652F742F832F922FCF91BD
:1059B0001F910F91089581548A3108F042C0E82F59
:1059C000F0E040913512509136126091371270918B
:1059D000381204C076956795579547958A95D2F702
:1059E000842F817040FF2FC0E55EFD4E908199238A
:1059F00009F1E0910206F0910306E90FF11D908193
:105A000020ED290F2A3098F09E3211F491810CC0BC
:105A10009D3211F09B3271F4918120ED290F2A30D3
:105A200030F09E3239F4928190539A3018F42E2F30
:105A30009F2F02C020E090E020932D1390932E130F
:105A4000089580E0089508950E94DB2C882341F09A
:105A500081E020912D1330912E13232B09F480E047
:105A600008954F925F926F927F928F929F92AF9222
:105A7000BF92CF92DF92EF92FF920F931F93CF933B
:105A8000DF93EC0160912C0C70912D0C072E000C13
:105A9000880B990B0E94D7EC9B01AC01688179813E
:105AA0008A819B810E9477F16B017C0160912E0CB1
:105AB00070912F0C072E000C880B990B0E94D7ECCD
:105AC0009B01AC016C817D818E819F810E9477F169
:105AD0004B015C0120910B0130910C0140910D01B3
