:100000000C94CF170C94F9170C94F9170C94F9175A
:100010000C94F9170C94F9170C94F9170C94F91720
:100020000C94F9170C94F9170C94F9170C94F91710
:100030000C94F9170C9453B20C94F9170C94F9170B
:100040000C94F9170C944F850C94BFDC0C94F917A1
:100050000C9491D40C9487D40C94F9170C94F91740
:100060000C94F9170C94F9170C94F9170C94F917D0
:100070000C94F9170C94F9170C94F9170C94F917C0
:100080000C9478CF0C94F9170C94F9178BBE64BEBE
:1000900067BE8EBE6ABE6DBE70BE7CBE73BE89BEBC
:1000A00076BE79BEFDCABCC9F3C939CBF3C9F3C961
:1000B000F3C9F3C9F3C9F3C9F3C9F3C9F3C9F3C960
:1000C000F3C9F3C9F3C9F3C9F3C9F3C9F3C9F3C950
:1000D000F3C9F3C9F3C9F3C9F3C9F3C9F3C9F3C940
:1000E00033CBF3C9F3C9F3C9F3C9F3C9F3C9F3C9EE
:1000F000F3C90CCBF3C9F3C9F3C9F3C9F3C9F3C905
:10010000F3C9F3C9F3C9F3C950CBF0C97DD980D97C
:1001100073D977D997D997D984D988D98ED992D9D3
:100120002EDC33DC38DC42DC70DC70DC4CDC54DC94
:100130005CDC66DC4E414E494E495459494E46CD31
:10014000CCCC3D0AD7233C17B7D13877CC2B32958E
:1001500095E6241FB14F0A000020410000C842006C
:10016000401C4620BCBE4CCA1B0E5AAEC59D7443F3
:100170004F4D4D554E49434154494F4E00445259FD
:1001800052554E004552524F525300494E464F0071
:100190004543484F00536C6565702E2E2E00486F06
:1001A0006D652058592046697273740A00486F6D56
:1001B0006520585920466972737400205A3A20000D
:1001C00020593A200042656420583A20004D65735A
:1001D0006820706F696E742063616E6E6F74206248
:1001E00065207265736F6C7665640A00436C6963A1
:1001F0006B20746F20526573756D652E2E2E004E28
:100200006F204D6F76652E002569730025696D207E
:10021000256973002569682025696D2025697300AB
:10022000256964202569682025696D20256973008A
:1002300025697920256964202569682025696D2054
:10024000256973005072696E742074696D653A2077
:10025000004520436F6F6C696E672E2E2E0045207F
:1002600048656174696E672E2E2E006F6666009079
:10027000018B0184017D016F0144454255473A00DD
:100280004D31313320530020573A004265642043FA
:100290006F6F6C696E672E2E2E0042656420486574
:1002A0006174696E672E2E2E006F6B0033442050F0
:1002B00072696E746572204F46462E0020450020FC
:1002C0005A00205900204D39322058004348414DF2
:1002D0004245525F54454D50455241545552450098
:1002E0004D4F54494F4E5F4D4F4445530054484580
:1002F000524D414C5F50524F54454354494F4E006C
:100300004155544F5245504F52545F53445F5354DC
:10031000415455530050524F4D50545F5355505017
:100320004F525400454D455247454E43595F504149
:100330005253455200434153455F4C494748545F2F
:100340004252494748544E45535300544F47474C37
:10035000455F4C494748545300534F465457415208
:10036000455F504F574552004255494C445F5045F8
:100370005243454E54004C4556454C494E475F4408
:10038000415441005A5F50524F4245004155544F2D
:100390004C4556454C005052494E545F4A4F42001E
:1003A00050524F4752455353004155544F524550B8
:1003B0004F52545F54454D5000564F4C554D455487
:1003C00052494300454550524F4D0042494E41521B
:1003D000595F46494C455F5452414E534645520081
:1003E00053455249414C5F584F4E5F584F46460067
:1003F0004649524D574152455F4E414D453A4D6138
:10040000726C696E204372656177736F6D65436FBF
:10041000726520322E302E302D52433020534F55EE
:100420005243455F434F44455F55524C3A6874749C
:1004300070733A2F2F6769746875622E636F6D2F22
:1004400074726F7563682F4D61726C696E205052C3
:100450004F544F434F4C5F56455253494F4E3A31DC
:100460002E30204D414348494E455F545950453A3E
:100470003344205072696E74657220455854525549
:100480004445525F434F554E543A312055554944E7
:100490003A63656465326132662D343161322D34E0
:1004A0003734382D396231322D6335356336326653
:1004B00033363766660A002F2F20004D3134352041
:1004C000533C696E6465783E206F7574206F6620BA
:1004D00072616E67652028302D31290A0020540092
:1004E000205200416363656C65726174696F6E3A96
:1004F0002050005741524E494E4721204C6F7720E3
:100500005A204A65726B206D6179206C65616420A8
:10051000746F20756E77616E746564207061757399
:1005200065732E0A004F4646004F4E00205A0020A9
:100530005900580020204D61783A2000205A0020B0
:100540005900580020204D696E3A2000536F6674A0
:1005500020656E6473746F70733A200020466C6F70
:10056000773A200050726F74656374656420506937
:100570006E0A00206F7574206F662072616E676569
:100580000A00536572766F20003A2000205365728E
:10059000766F2000496E76616C69642065787472AC
:1005A000756465720A0020643A0020693A00207080
:1005B0003A0020643A0020693A0020703A006469E9
:1005C0007300656E0043290A0061626C656420282F
:1005D0006D696E2074656D702000436F6C642065DA
:1005E000787472756465732061726520004D65735F
:1005F0006820706F696E742063616E6E6F74206224
:1006000065207265736F6C7665640A004D34323113
:1006100020696E636F727265637420706172616DC0
:10062000657465722075736167650A004F6666734D
:10063000657473204170706C696564004572723A2C
:1006400020546F6F206661722100546F6F206661C5
:10065000722066726F6D207265666572656E636585
:1006600020706F696E740A00454550524F4D204FFF
:100670004B0A003F5A206F7574206F662072616EBE
:10068000676520282D323020746F203230290A000F
:1006900050726F6265205A204F66667365743A2007
:1006A000003F4B2076616C7565206F7574206F6616
:1006B0002072616E67652028302D3130292E0A00A6
:1006C000416476616E6365204B3D00496E76616CD6
:1006D00069642065787472756465720A0024F4D4C4
:1006E0003050C38E20C2A24017828B7011127A91B3
:1006F0000D816CD90AA861E108C7586607615143AA
:10070000061E4B5D05C145A7041A411104093D9819
:1007100003713931034036DB0265339102D4305422
:1007200002802E1D02632CEE01752AC501B028A09F
:1007300001102781018F2564012B244B01E0223415
:1007400001AC211F018D200D01801FFC00841EEDD6
:1007500000971DDF00B81CD200E61BC600201BBCA2
:1007600000641AB200B219A8000A19A0006A189908
:1007700000D117910040178B00B516840031167E0A
:1007800000B31579003A157300C7146F0058146A46
:1007900000EE1366008813630025135E00C7125B2A
:1007A000006C12570015125400C111510070114F06
:1007B0000021114B00D61049008D1047004610440F
:1007C0000002104200C00F4000800F3E00420F3C6C
:1007D00000060F3B00CB0E3800930E37005C0E3541
:1007E00000270E3400F30D3200C10D3100900D30A2
:1007F00000600D2E00320D2D00050D2C00D90C2BA4
:1008000000AE0C2900850C29005C0C2700350C2754
:10081000000E0C2600E80B2400C40B2400A00B23C0
:10082000007D0B23005A0B2100390B2100180B20EF
:1008300000F80A1F00D90A1E00BB0A1E009D0A1DEF
:1008400000800A1D00630A1C00470A1B002C0A1BBB
:1008500000110A1A00F7091A00DD091900C4091964
:1008600000AB091900920917007B091800630917EA
:10087000004C09160036091600200916000A091551
:1008800000F5081500E0081400CC081400B808149E
:1008900000A4081400900813007D0812006B0813D0
:1008A00000580812004608120034081100230811ED
:1008B000001208110001081100F0071000E00710F5
:1008C00000D0071000C0071000B0070F00A10710EC
:1008D0000091070E0083070F0074070F0065070ED5
:1008E0000057070E0049070E003B070D002E070EAC
:1008F0000020070D0013070D0006070D00F9060C78
:1009000000ED060D00E0060C00D4060C00C8060C35
:1009100000BC060C00B0060C00A4060B0099060CE7
:10092000008D060B0082060B0077060B006C060B91
:100930000061060A0057060B004C060A0042060A30
:100940000038060A002E060A0024060A001A060AC3
:10095000001006090007060A00FD050900F4050954
:1009600000EB050900E2050900D9050900D00509D9
:1009700000C7050900BE050900B5050800AD05085A
:1009800000A50509009C050800940508008C0508D1
:1009900000840508007C050800740508006C050744
:1009A00000650508005D050700560508004E0507AF
:1009B0000047050700400508003805070031050716
:1009C000002A050700230507001C05060016050779
:1009D000000F0507000805060002050700FB0406D6
:1009E00000F5040700EE040600E8040600E2040730
:1009F00000DB040600D5040600CF040600C9040687
:100A000000C3040600BD040600B7040600B10405D7
:100A100000AC040600A6040600A00405009B040622
:100A20000095040500900406008A0405008504056D
:100A300000800406007A04050075040500700405B2
:100A4000006B04050066040500610405005C0405F4
:100A50000057040500520405004D04050048040534
:100A600000430405003E0404003A04050035040573
:100A700000300404002C04050027040400230405AE
:100A8000001E0404001A04040016040500110404E6
:100A9000000D04040009040500040404000004041B
:100AA00000FC030400F8030400F4030400F0030452
:100AB00000EC030400E8030400E4030400E0030482
:100AC00000DC030400D8030400D4030400D00304B2
:100AD00000CC030400C8030300C503030024F4048E
:100AE000D9201BC40C5C0E9804C4095F0265077111
:100AF00001F405F900FB04B30048048700C1036951
:100B0000005803550003034500BE023A0084023139
:100B10000053022A002902250004022000E4011CDF
:100B200000C8011900AF01170098011400840113D7
:100B300000710110006101100051010E0043010D10
:100B40000036010B002B010B0020010B00150109E1
:100B5000000C01090003010800FB000800F3000875
:100B600000EB000700E4000600DE000600D80006E7
:100B700000D2000600CC000500C7000500C2000539
:100B800000BD000400B9000400B5000400B1000479
:100B900000AD000400A9000400A5000300A20003AA
:100BA000009F0004009B00030098000300950002D2
:100BB0000093000300900003008D0002008B0003EF
:100BC0000088000200860002008400030081000209
:100BD000007F0002007D0002007B0002007900021D
:100BE000007700010076000200740002007200012C
:100BF00000710002006F0002006D0001006C000235
:100C0000006A00010069000200670001006600013F
:100C10000065000100640002006200010061000143
:100C200000600001005F0002005D0001005C000147
:100C3000005B0001005A000100590001005800014A
:100C4000005700010056000100550001005400014A
:100C50000053000000530001005200010051000148
:100C600000500001004F0001004E0000004E000146
:100C7000004D0001004C0001004B0000004B000142
:100C8000004A00010049000100480000004800013E
:100C9000004700010046000000460001004500003A
:100CA0000045000100440001004300000043000132
:100CB000004200000042000100410000004100012C
:100CC00000400001003F0000003F0001003E000026
:100CD000003E0001003D0000003D0001003C00001E
:100CE000003C0000003C0001003B0000003B000114
:100CF000003A0000003A000100390000003900010C
:100D00000038000000380000003800010037000003
:100D100000370001003600000036000000360001F8
:100D200000350000003500000035000100340000EF
:100D300000340000003400010033000000330000E4
:100D400000330001003200000032000000320001D8
:100D500000310000003100000031000100300000CF
:100D60000030000000300001002F0000002F0000C4
:100D7000002F0000002F0001002E0000002E0000B8
:100D8000002E0001002D0000002D0000002D0000AD
:100D9000002D0001002C0000002C0000002C0000A1
:100DA000002C0001002B0000002B0000002B000095
:100DB000002B0001002A0000002A0000002A000089
:100DC000002A00010029000000290000002900007D
:100DD0000029000000290001002800000028000070
:100DE0000028000000280000002800010027000063
:100DF0000027000000270000002700000027000156
:100E0000002600000026000000260000002600004A
:100E1000002600010025000000250000002500003C
:100E2000002500000025000000250001002400002E
:100E30000024000000240000002400000024000121
:100E40000023000000230000002300000023000016
:100E50000023000000230000002300010022000006
:100E600000220000002200000022000000220000FA
:100E700000220001002100000021000000210000EC
:100E800000210000002100000021000000210001DD
:100E900000200000002000000020000000200000D2
:100EA00000200000002000000020000000200001C1
:100EB000001F0000001F0000001F0000001F0000B6
:100EC000001F0000001F0000001F0001001E0000A6
:100ED000001E0000001E0000001E000000232C0069
:100EE00000B8220000561800003A0F0000B80800B1
:100EF00000B1040000710200003E0100004F4646B0
:100F00000A0046616465204865696768742000428C
:100F10006564204C6576656C696E67200046616982
:100F20006C656420746F20656E61626C652042653B
:100F300064204C6576656C696E670A00496E76615F
:100F40006C6964206D6573682E0A00473120583142
:100F50003137205932333420463630303000507229
:100F60006F62696E6720506F696E742025692F2546
:100F700069002E0A002F0050726F62696E67206D43
:100F800065736820706F696E742000202844525980
:100F900052554E2900473239204175746F20426501
:100FA00064204C6576656C696E67003F20284C2C88
:100FB000522C462C4229206F7574206F6620626F78
:100FC000756E64732E0A003F2856296572626F732E
:100FD00065206C6576656C20697320696D706C6145
:100FE000757369626C652028302D34292E0A004201
:100FF0006164205A2076616C75650A004E6F20622C
:10100000696C696E65617220677269640A004D36A9
:1010100030303A20546F6F20436F6C6400486F7417
:10102000656E6420746F6F20636F6C640A00496E94
:10103000736572742066696C616D656E7420616E93
:101040006420707265737320627574746F6E0A0029
:10105000507265737320627574746F6E20746F20A4
:1010600068656174206E6F7A7A6C650A0020496E3B
:1010700076616C69642065787472756465722000AD
:101080003344205072696E746572205265616479D0
:101090002E005072696E74696E672E2E2E0050728B
:1010A000696E7420506175736564000000754300BB
:1010B000006B4300007A43000000000000000000C5
:1010C000000000290A002062797465733B20637276
:1010D00063200053657474696E67732053746F7274
:1010E000656420280023646566696E652044454672
:1010F00041554C545F0000626564004B6420004B16
:101100006920004B702000504944204175746F7471
:10111000756E652066696E69736865642120507517
:101120007420746865206C617374204B702C204BA4
:101130006920616E64204B6420636F6E7374616E0E
:1011400074732066726F6D2062656C6F7720696EB4
:10115000746F20436F6E66696775726174696F6E34
:101160002E680A00504944204175746F74756E658D
:10117000206661696C6564212074696D656F7574A2
:101180000A00453120544845524D414C2052554E9D
:10119000415741590042454420544845524D414C25
:1011A0002052554E4157415900546865726D616C2B
:1011B0002052756E61776179004531204865617410
:1011C000696E67204661696C656400426564204809
:1011D000656174696E67204661696C656400486585
:1011E0006174696E67206661696C6564005049448A
:1011F000204175746F74756E65206661696C6564F5
:10120000212054656D706572617475726520746F0C
:101210006F20686967680A00204B643A2000204B01
:10122000693A2000204B703A20000A20436C617319
:1012300073696320504944200A00204B643A20001F
:10124000204B693A2000204B703A20000A204E6F54
:10125000206F76657273686F6F740A002054753A58
:101260002000204B753A2000206D61783A20002044
:101270006D696E3A200020643A2000206269617333
:101280003A2000504944204175746F74756E652092
:1012900073746172740A00504944204175746F740C
:1012A000756E65206661696C6564212054656D709A
:1012B0006572617475726520746F6F206869676804
:1012C0000A00504944204175746F74756E6520663C
:1012D00061696C656421204261642065787472756F
:1012E000646572206E756D6265720A004572723AAD
:1012F000207574663820666F6E74206E6F74206976
:101300006E697469616C697A65642E004572723A1F
:10131000207574663820666F6E74206E6F74206955
:101320006E697469616C697A65642E004572723AFF
:10133000207574663820666F6E74206E6F74206935
:101340006E697469616C697A65642E0000060C0030
:10135000FE07022603BC017FFE08FE08FE05080802
:1013600006000040F0C88888987810050808060034
:1013700000C0F88888888888F805050506000120DF
:1013800030F830200508080600002070F8202020E2
:1013900020E00509090600FF2070A8A8B888887019
:1013A00020050606060001E08CEA8C8A0A05090978
:1013B0000600FFF8A88888888888A8F8050A0A0621
:1013C00000FE205050505088A8A8887003030306E0
:1013D000000340A040FFFFFFFFFFFFFFFFFFFFFFF5
:1013E000FFFFFFFFFFFFFFFFFFFFFF0000000605FD
:1013F000FF010707060200808080808000800303D1
:1014000003060105A0A0A005060606000050F8503E
:1014100050F8500509090600FF2070A8A07028A800
:101420007020050707060000C8C8102040989805DE
:10143000070706000040A0A040A89068010303062B
:1014400002058080800309090601FF20404080805A
:10145000804040200309090601FF804040202020F1
:1014600040408005070706000020A8702070A820D3
:101470000505050600012020F820200203030601CF
:10148000FFC04080050101060003F80202020601C8
:1014900000C0C0050707060000081010204040806B
:1014A000050707060000708898A8C888700307071A
:1014B00006010040C040404040E00507070600002C
:1014C000708808102040F8050707060000F808108B
:1014D0003008887005070706000010305090F8109B
:1014E00010050707060000F880F008088870050757
:1014F00007060000304080F0888870050707060066
:1015000000F808101020202005070706000070884A
:10151000887088887005070706000070888878083A
:101520001060020505060100C0C000C0C00206062A
:101530000601FFC0C000C040800305050601012070
:1015400040804020050303060002F800F80305056B
:1015500006010180402040800507070600007088D2
:1015600010202000200507070600007088B8A8B8E2
:101570008070050707060000708888F8888888054D
:101580000707060000F04848704848F005070706BE
:10159000000070888080808870050707060000F0D2
:1015A0004848484848F0050707060000F88080F0E2
:1015B0008080F8050707060000F88080F0808080B2
:1015C0000507070600007088808098887005070767
:1015D000060000888888F8888888030707060100C5
:1015E000E04040404040E00507070600003810108A
:1015F000101090600507070600008890A0C0A0901A
:1016000088050707060000808080808080F8050735
:101610000706000088D8A88888888805070706007C
:10162000008888C8A8988888050707060000708881
:101630008888888870050707060000F08888F08091
:10164000808005070706000070888888A8906805D4
:101650000707060000F08888F0A0908805070706B5
:10166000000070888070088870050707060000F881
:101670002020202020200507070600008888888871
:1016800088887005070706000088888888505020E1
:1016900005070706000088888888A8A8500507075E
:1016A000060000888850205088880507070600003B
:1016B00088885020202020050707060000F8081021
:1016C000204080F80309090601FFE08080808080C7
:1016D0008080E005070706000080404020101008C9
:1016E0000309090601FFE020202020202020E0053A
:1016F00003030600052050880501010600FEF803DB
:10170000030306010580402005050506000070085A
:101710007888780507070600008080F0888888F0C0
:101720000505050600007080808870050707060023
:101730000008087888888878050505060000708804
:10174000F08070050707060000304840E040404048
:101750000507070600FE7088888878087005070767
:101760000600008080F0888888880307070601004B
:101770004000C0404040E00409090601FE1000306E
:1017800010101010906005070706000080808890F8
:10179000E09088030707060100C04040404040E059
:1017A000050505060000D0A8A8A8A805050506009F
:1017B00000B0C888888805050506000070888888FC
:1017C000700507070600FEF0888888F0808005070E
:1017D000070600FE78888888780808050505060051
:1017E00000B0C8808080050505060000788070087C
:1017F000F00507070600002020F820202018050526
:101800000506000088888898680505050600008898
:10181000888850200505050600008888A8A850057E
:10182000050506000088502050880507070600FEC1
:1018300088888850204080050505060000F81020A3
:1018400040F80309090601FF204040408040404025
:10185000200109090602FF808080808080808080CE
:101860000309090601FF80404040204040408005B8
:10187000030306000248A890FF4368616E67652075
:1018800046696C616D656E7400556E6C6F616420A5
:1018900046696C616D656E74004C6F6164204669C9
:1018A0006C616D656E74005072656865617420438B
:1018B0007573746F6D005072656865617420504572
:1018C0005447005072656865617420504C41005067
:1018D00072656865617420437573746F6D00426151
:1018E000636B0050726F62696E67204661696C6558
:1018F000640A0050726F62696E67204661696C65A8
:101900006400486F6D652025732573257320466933
:10191000727374002046697273740A00486F6D65B3
:101920002000496E736572742066696C616D656E26
:101930007420616E642070726573732062757474B4
:101940006F6E20286F72204D313038290A00220A2C
:1019500000556E6B6E6F776E20636F6D6D616E6498
:101960003A20220025753A2530327500253032752F
:101970003A253032750025756420253032753A25B8
:101980003032750020202020202020002020202020
:10199000001FE02010201020101020102020102008
:1019A0001030300840048003001FE03FF03FF03F5C
:1019B000F01FE01FE03FF03FF03FF00FC007800353
:1019C000003FFFF038007030FC3020FC1020781011
:1019D0002030102C00D02E31D02F7BD02F7BD02E5A
:1019E00031D02C00D020301020781020FC1030FC9A
:1019F000303800703FFFF03FFFF038007031863024
:101A00002387102787902F87D02F03D020301020D6
:101A100078102078102030102F03D02F87D0278700
:101A2000902387103186303800703FFFF01FFFF899
:101A30001FFFF8041040020820020820041040088C
:101A40002080104100104100082080041040000058
:101A5000001FFFF81FFFF8496E697469616C697AAD
:101A60006520454550524F4D003F0043616E636510
:101A70006C00496E6974004D34323800496E6974E7
:101A800069616C697A6520454550524F4D00466941
:101A90006C616D656E740054656D7065726174750E
:101AA00072650053746570732F6D6D004A65726BBB
:101AB00000416363656C65726174696F6E005665A1
:101AC0006C6F636974790053657420486F6D65208D
:101AD0004F66667365747300436F6E6669677572EF
:101AE0006174696F6E00436D643A2053746F7700C0
:101AF000436D643A204465706C6F7900436D643ABD
:101B00002053656C662D5465737400436D643A20F0
:101B100053572D4D6F646500436D643A20526573D1
:101B2000657400436F6E66696775726174696F6E84
:101B30000053746F72652053657474696E67730027
:101B400042656400426564004E6F7A7A6C65004EAF
:101B50006F7A7A6C650046616E205370656564002B
:101B600046616E20537065656400436F6E666967F9
:101B700075726174696F6E0020636F6C64206578A4
:101B800074727573696F6E2070726576656E7465B8
:101B9000640A00202D20496E76616C6964206578A6
:101BA000747275646572206E756D62657220210AAB
:101BB0000070012C0190012701B0012201C0011D1C
:101BC00001F00118011002130130020E0160020938
:101BD0000190020401C002FF000003FA004003F577
:101BE000008003F000D003EB002004E6007004E165
:101BF00000E004DC004005D700C005D2004006CD5F
:101C000000D006C8008007C3003008BE00F008B945
:101C100000C009B400B00AAF00B00BAA00D00CA5F8
:101C200000000EA000500F9B00C0109600501291B3
:101C30000000148C00C0158700B0178200B0197D19
:101C400000D01B7800001E730040206E00902269B7
:101C500000F024640040275F0090295A00E02B55D3
:101C600000102E500020304B0010324600E033416F
:101C70000090353C001037370070383200A0392D05
:101C800000B03A2800A03B2300603C1E00103D1924
:101C900000903D1400103E0F00703E0A00C03E054B
:101CA00000003F0000403FFBFF803FF6FFC03FF1D8
:101CB000FF453120544845524D414C2052554E412C
:101CC0005741590042454420544845524D414C200B
:101CD00052554E4157415900546865726D616C20F0
:101CE00052756E61776179004531204572723A20F4
:101CF0004D415854454D50004572723A204D41585F
:101D000054454D5020424544004D415854454D5096
:101D10002074726967676572656400453120457299
:101D2000723A204D494E54454D50004572723A204A
:101D30004D494E54454D5020424544004D494E5466
:101D4000454D502074726967676572656400202F85
:101D5000002042403A0020403A0020573A00506CA0
:101D600065617365205265736574005052494E5425
:101D700045522048414C544544004B494C4C454445
:101D80002E20005072696E7465722068616C7465F3
:101D9000642E206B696C6C28292063616C6C65640F
:101DA000210A0053544F505045442E200050726970
:101DB0006E7465722073746F7070656420647565ED
:101DC00020746F206572726F72732E2046697820BE
:101DD000746865206572726F7220616E642075731D
:101DE00065204D39393920746F20726573746172C2
:101DF000742E202854656D7065726174757265204B
:101E000069732072657365742E205365742069743C
:101E10002061667465722072657374617274696E94
:101E200067290A006563686F3A004572726F723AFB
:101E30000042696C696E656172204C6576656C69FB
:101E40006E6720477269643A0A0053544F5020630A
:101E5000616C6C65642062656361757365206F6693
:101E600020424C546F756368206572726F72202D2A
:101E700020726573746172742077697468204D39BB
:101E800039390A0053544F502063616C6C656420EB
:101E900062656361757365206F6620424C546F758F
:101EA0006368206572726F72202D20726573746191
:101EB00072742077697468204D3939390A00486F87
:101EC00074656E6420746F6F20636F6C640A002009
:101ED0005A3A0020593A0020436F756E7420583AE0
:101EE0000020453A00205A3A0020593A00583A005A
:101EF00020636F6C6420657874727573696F6E20EF
:101F000070726576656E7465640A00486F6D696EFF
:101F100067204661696C65640000000000000000F5
:101F2000000000000000004842000048420000801D
:101F3000405761726E696E673A20486F6D696E67CF
:101F40002042756D702044697669736F72203C2061
:101F5000310A000202040000A0400000A04000007E
:101F600000400000754300006B4300007A43FFFF10
:101F7000FF000000010000000100008000555555E1
:101F8000000000400033333300AAAA2A00499224FB
:101F90000000002000C7711C0099991900D1451755
:101FA00000555515003BB1130024491200111111C1
:101FB00000000010000F0F0F00E3380E0043790DF2
:101FC00000CCCC0C00C3300C00E8A20B0064210B49
:101FD00000AAAA0A00703D0A009DD80900427B09A8
:101FE0000092240900DCD308008888080010420809
:101FF0000000000800F0C107008787070075500740
:1020000000711C07003EEB0600A1BC0600699006AB
:102010000066660600703E06006118060017F405AB
:102020000074D105005BB00500B290050062720536
:10203000005555050078390500B81E050005050551
:10204000004EEC040087D40400A1BD040090A70456
:102050000049920400C17D0400EE690400C75604E3
:1020600000444404005C32040008210400411004D0
:1020700000000004003FF00300F8E0030026D20354
:1020800000C3C30300CCB503003AA803000A9B03B6
:1020900000388E0300C08103009F750300D06903E0
:1020A00000505E03001D53030034480300913D03BC
:1020B000003333030016290300381F03009715036C
:1020C00000300C0300030303000BFA020049F10285
:1020D00000BAE802005CE002002DD802002DD00218
:1020E0000059C80200B0C0020031B90200DAB102E2
:1020F00000AAAA0200A0A30200BC9C0200FA95025A
:10210000005C8F0200DF88020082820200457C02B0
:10211000002776020027700200436A02007C6402F6
:1021200000D05E02003F590200C85302004C6F61AC
:10213000642053657474696E677300526573746FBD
:102140007265206661696C736166650053746F72B5
:10215000652053657474696E6773005072656865B5
:102160006174205045544720436F6E66005072657D
:102170006865617420504C4120436F6E6600424C8C
:10218000546F7563680050726F6265205A204F6605
:10219000667365740050726F6265205A204F6666E0
:1021A00073657400416476616E6365642053657481
:1021B00074696E6773004D61696E004D373032206F
:1021C000542564004D3630302042302054256400C0
:1021D0004D373032203B2564004D373031205425B7
:1021E0006400220A00656E7175657565696E672009
:1021F0002200556E6C6F61642046696C616D656E7E
:102200007400556E6C6F61642046696C616D656E1B
:1022100074004D373032004D373031004C6F6164FF
:102220002046696C616D656E74004D363030204219
:1022300030004368616E67652046696C616D656E4C
:1022400074004D61696E00436F6E74696E75650050
:102250005075726765206D6F726500524553554D1C
:1022600045204F5054494F4E533A005052494E5416
:102270002050415553454400554E4C4F4144204653
:10228000494C414D454E54004C4F41442046494C29
:10229000414D454E540020204E6F7A7A6C653A20AD
:1022A0000020004C6F6164206D6D004C6F616420F4
:1022B0006D6D00556E6C6F6164206D6D00556E6CB8
:1022C0006F6164206D6D0046696C2E204469612E3B
:1022D0000046696C2E204469612E004F6666004FEF
:1022E0006E004520696E206D6D5E3300416476613D
:1022F0006E6365204B00416476616E6365204B0020
:10230000416476616E6365642053657474696E67B9
:102310007300200820466163740020082046616332
:1023200074002008204D6178002008204D6178005D
:102330002008204D696E002008204D696E004F6610
:1023400066004F6E004175746F74656D7000416476
:1023500076616E6365642053657474696E6773009B
:10236000454550524F4D206461746173697A652010
:102370006572726F722E0A00290A002062797465F4
:10238000733B2063726320002073746F7265642056
:1023900073657474696E67732072657472696576AB
:1023A0006564202800202863616C63756C61746526
:1023B0006429210A0020213D2000454550524F4DFF
:1023C00020435243206D69736D61746368202D2032
:1023D0002873746F7265642920002053697A653A06
:1023E0002000496E6465783A2000204D61726C6966
:1023F0006E3D563638290A00454550524F4D2076DD
:10240000657273696F6E206D69736D6174636820A6
:1024100028454550524F4D3D0048617264636F64DA
:1024200065642044656661756C74205365747469D5
:102430006E6773204C6F616465640A00F4010000EC
:10244000F401000064000000881300000000FA435B
:102450000000FA430000A040000048420000A042F3
:102460000000A0420000C8430000BA426F70656ED1
:1024700000545249474745524544003A20007A5F8C
:102480006D696E00795F6D696E00785F6D696E00D1
:102490005265706F7274696E6720656E6473746FD5
:1024A00070207374617475730A00FFFDFCFAF8F60E
:1024B000F4F2F0EEECEAE9E7E5E3E1E0DEDCDAD9BC
:1024C000D7D5D4D2D0CFCDCBCAC8C7C5C3C2C0BF61
:1024D000BDBCBAB9B7B6B4B3B2B0AFADACAAA9A8D7
:1024E000A6A5A4A2A1A09E9D9C9A99989795949325
:1024F00092908F8E8D8B8A89888786848382818053
:102500007F7E7D7B7A797877767574737271706F60
:102510006E6D6C6B6A696867666564636261605F53
:102520005E5D5C5B5A59585857565554535251503A
:10253000504F4E4D4C4B4A4A494847464645444306
:10254000424241403F3E3E3D3C3B3B3A39383837C2
:10255000363535343332323130302F2E2E2D2C2B70
:102560002B2A292928272726252524232322212110
:1025700020201F1E1E1D1C1C1B1B1A1919181817A2
:102580001616151514131312121111100F0F0E0E2B
:102590000D0D0C0C0B0A0A090908080707060605A9
:1025A000050404030302020100005061726B696EAE
:1025B000672E2E2E00746F2073746172740066692A
:1025C0006C616D656E74206368616E67650057614C
:1025D000697420666F720066696C616D656E742047
:1025E000756E6C6F6164005761697420666F72006C
:1025F000506C6561736520776169742E2E2E004ED4
:102600006F7A7A6C652068656174696E6700746FB3
:102610002068656174206E6F7A7A6C65005072650F
:10262000737320627574746F6E00746F20636F6EC5
:1026300074696E756500616E6420707265737320D5
:10264000627574746F6E00496E736572742066698A
:102650006C616D656E740066696C616D656E742089
:102660006C6F6164005761697420666F7200746FEB
:1026700020726573756D65207072696E740050729A
:1026800065737320427574746F6E00746F20726589
:1026900073756D652E2E2E005761697420666F72FA
:1026A000207072696E740066696C616D656E74206D
:1026B0007075726765005761697420666F720043B8
:1026C00068616E67652046696C616D656E74004374
:1026D0006F6E66696775726174696F6E0054656DBF
:1026E0007065726174757265004D6F74696F6E000C
:1026F00054756E6500496E666F2053637265656E32
:10270000004D6F76652058004D6F76652059004D5D
:102710006F7665205A00457874727564657200455D
:1027200078747275646572004D6F7665205A004D3D
:102730006F76652059004D6F76652058004D6F7497
:10274000696F6E0044697361626C652053746570D3
:1027500070657273004D38340046616465204865C9
:1027600069676874004661646520486569676874D4
:10277000004F6666004F6E00426564204C657665CA
:102780006C696E67004C6576656C20426564004735
:1027900032380A473239004175746F20486F6D65D1
:1027A00000473238004D6F76652041786973004DDF
:1027B00061696E005654726176204D696E00565400
:1027C000726176204D696E00566D696E00566D69B6
:1027D0006E00566D6178204500566D617820450089
:1027E000566D6178205A00566D6178205A00566DFA
:1027F0006178205900566D6178205900566D6178D6
:10280000205800566D6178205800416476616E63EF
:1028100065642053657474696E677300416D6178F7
:10282000204500416D6178204500416D6178205A56
:1028300000416D6178205A00416D61782059004156
:102840006D6178205900416D6178205800416D61BB
:1028500078205800412D54726176656C00412D54EA
:10286000726176656C00412D52657472616374000B
:10287000412D5265747261637400416363656C003D
:10288000416363656C00416476616E6365642053E7
:10289000657474696E677300507265686561742051
:1028A000504C4120456E640050726568656174202B
:1028B000504C41005072656865617420504C412055
:1028C0004265640054656D7065726174757265006F
:1028D00050726568656174205045544720456E64A8
:1028E000005072656865617420504554470050720D
:1028F0006568656174205045544720426564005402
:10290000656D706572617475726500436F6F6C649C
:102910006F776E005072656865617420504554474A
:10292000005072656865617420504C410046616ECC
:102930002053706565640046616E20537065656460
:102940000042656400426564004E6F7A7A6C6500EF
:102950004E6F7A7A6C65004D61696E00466C6F77D8
:1029600000466C6F770046616E20537065656400A9
:1029700046616E205370656564004265640042657F
:1029800064004E6F7A7A6C65004E6F7A7A6C6500DF
:102990005370656564005370656564004D61696ED0
:1029A000004572726F722077726974696E67207465
:1029B0006F20454550524F4D210A000F150E12163B
:1029C000170E1303021A1401000E0C190DFF180C38
:1029D000040001627573793A207061757365642033
:1029E000666F7220696E7075740A00627573793A49
:1029F0002070617573656420666F722075736572EF
:102A00000A00627573793A2070726F636573736937
:102A10006E670A004B494C4C2063617573656420F6
:102A2000627920746F6F206D75636820696E6163D1
:102A3000746976652074696D65202D2063757272E6
:102A4000656E7420636F6D6D616E643A2000FFFFE8
:102A5000E7FFFC0003FFFC0FFFC0FFFCFFFFE7FFE9
:102A6000FE0003FFFE1FFFE1FFFEFFFFE7FFFE008A
:102A700003FFFF3FFFF3FFFF00E007000E00000031
:102A800007380073800700E007000E3FF0000738AA
:102A90000073800700E007FFFE3FF3FFFF3800737D
:102AA000800700E007FFFC3FF3FFFF38007380075B
:102AB00000E007FFFE3FF3FFFF380073800700E0F0
:102AC00007000E00000007380073800700E00700D1
:102AD0000E00000007380073800700E007000F00B9
:102AE00003FFFF3FFFF3FFFF00E007000F0003FFBE
:102AF000FE1FFFE1FFFE00E007000F0003FFFC0FD9
:102B0000FFC0FFFC0000000000000000000000000B
:102B100000000000000000000000000000000000B5
:102B2000FFFFFFFFFFFFFFFFFFFFFFFFFFFFFFFFB5
:102B3000FFFFFFFFFFFFFFFFFFFFFFFF2020506CA5
:102B4000616E6E6572427566666572427974657310
:102B50003A20002046726565204D656D6F72793AA6
:102B60002000436F6D70696C65643A204175672081
:102B7000313220323031390A00207C2041757468AE
:102B80006F723A202874726F7563682C20437265E7
:102B90006177736F6D6520436F726520322E302927
:102BA0000A00323031392D30382D303800204C6158
:102BB000737420557064617465643A2000322E305D
:102BC0002E302D5243300A004D61726C696E002028
:102BD000536F6674776172652052657365740A007D
:102BE000205761746368646F672052657365740A67
:102BF000002042726F776E206F7574205265736586
:102C0000740A002045787465726E616C2052657399
:102C100065740A00506F77657255700A00737461AD
:102C200072740A00456E6473746F7073202563209C
:102C3000256320256320256300205A3A0020593A55
:102C40000020583A00656E6473746F707320686971
:102C5000743A20004361703A006F6B0052657365EF
:102C60006E643A200053544F505045442E2000507B
:102C700072696E7465722073746F7070656420641D
:102C8000756520746F206572726F72732E204669AD
:102C90007820746865206572726F7220616E64209E
:102CA000757365204D39393920746F2072657374DE
:102CB0006172742E202854656D706572617475722E
:102CC000652069732072657365742E2053657420C6
:102CD00069742061667465722072657374617274C0
:102CE000696E67290A004E6F20436865636B7375D0
:102CF0006D2077697468206C696E65206E756D62F1
:102D000065722C204C617374204C696E653A20000A
:102D1000636865636B73756D206D69736D61746352
:102D2000682C204C617374204C696E653A20004C0D
:102D3000696E65204E756D626572206973206E6FD5
:102D400074204C617374204C696E65204E756D6201
:102D500065722B312C204C617374204C696E653A7E
:102D600020004D3131300000002100240027002ACE
:102D70000000002200250028002B00000020002376
:102D800000260029000202020202020202040404D8
:102D90000404040404030303030303030301010104
:102DA0000101010101010204081020408001020418
:102DB000081020408001020408102040808040203C
:102DC0001008040201000000010200090A000000CE
:102DD00000040308070000000000000000000000DD
:102DE00000000000004D6F766520302E316D6D00C3
:102DF0004D6F766520316D6D004D6F7665203130F9
:102E00006D6D004D6F7665204178697300486F7471
:102E1000656E6420746F6F20636F6C640045787416
:102E20007275646572004D6F7665205A004D6F763D
:102E3000652059004D6F766520580056652D4A650E
:102E4000726B0056652D4A65726B00567A2D4A6585
:102E5000726B00567A2D4A65726B0056792D4A6561
:102E6000726B0056792D4A65726B0056782D4A6553
:102E7000726B0056782D4A65726B00416476616E04
:102E80006365642053657474696E67730045737479
:102E90006570732F6D6D004573746570732F6D6D64
:102EA000005A73746570732F6D6D005A737465707A
:102EB000732F6D6D005973746570732F6D6D0059AC
:102EC00073746570732F6D6D005873746570732F14
:102ED0006D6D005873746570732F6D6D004164766D
:102EE000616E6365642053657474696E6773006214
:102EF0006564002C2073797374656D2073746F7032
:102F000070656421204865617465725F49443A20A8
:102F1000004265642048656174696E672046616996
:102F20006C65640048656174696E67206661696CF0
:102F300065640042454420544845524D414C20525E
:102F4000554E4157415900546865726D616C20526D
:102F5000756E617761790045312048656174696EED
:102F600067204661696C65640048656174696E67D5
:102F7000206661696C656400453120544845524DB6
:102F8000414C2052554E4157415900546865726D6D
:102F9000616C2052756E61776179000080EB1124BD
:102FA0001FBECFEFD0E4DEBFCDBF12E0A0E0B1E0A6
:102FB000E4E8FFEE01E00BBF02C007900D92AC37D2
:102FC000B107D9F721E1ACE7B2E001C01D92A6320A
:102FD000B207E1F717E1CFECD7E104C02197FE017A
:102FE0000E944DF5CE3CD107C9F70E94F5E70C943D
:102FF000C0F70C9400002F923F924F925F926F9215
:103000007F928F929F92AF92BF92CF92DF92EF9278
:10301000FF920F931F93CF93DF93CDB7DEB7E79760
:103020000FB6F894DEBF0FBECDBF8FAB20914E031D
:103030002CA721E020934E038091F30D8D3409F4E9
:103040004EC3843511F40C948F2A873411F00C94FC
:10305000AA2A8091F10D9091F20D8C31910509F41D
:1030600014C18CF48430910509F4A7C01CF40297B4
:1030700038F131C38531910511F40C94AC2A4B978A
:1030800009F4DAC028C38A32910509F462C244F413
:103090008D31910509F409C14E9709F41AC11BC37A
:1030A0008B35910509F4D3C18C35910509F4D3C151
:1030B0008A35910509F00FC3109289020C94AC2A4D
:1030C00080917601882311F40C94AC2AE8E78E2EC7
:1030D000E1E09E2EF2E1EF2EFBE0FF2E07E913E088
:1030E000ABE3AA2EA3E0BA2EB5E8CB2EB2E0DB2EDE
:1030F000712CD4018D914D010E943E89882319F1D4
:103100000E94BE88F6012081211104C0209189020D
:10311000222341F0D8012D913D914D915C910E9467
:1031200057F50AC0B3E07B1639F0F50120813181F3
:10313000428153810E9456F5D7016D937D938D9303
:103140009C9313970AC0F80180819181A281B38179
:10315000F70180839183A283B3837394F4E0EF0E2D
:10316000F11C0C5F1F4F24E0A20EB11C3FEFC31AED
:10317000D30A44E07412BDCF40E050E0BA0186E4C7
:103180000E94FD5120E030E0A9010E94DAF61816F5
:1031900084F40E94BE8820E030E040E752E40E94C0
:1031A000DAF56093150170931601809317019093DF
:1031B00018010E947E960C94AC2A80E50E943E89FC
:1031C000882329F00E94A8396B017C0103C0C12C1F
:1031D000D12C760183E50E943E89882361F00E940C
:1031E000BE8820E030E04AE754E40E9415F10E94D6
:1031F00053F66B017C010E94B6B680915203811197
:1032000005C060E085E991E00E94D04D0E94B3DCEA
:10321000C60ED71EE81EF91E0E94B3DCDC01CB01EE
:103220008C199D09AE09BF09B7FD02C00C94AC2AE8
:1032300080E00E94D5D0F0CF0E94895A81110C9471
:10324000AC2A80E090E0A0E2B1E489839A83AB836A
:10325000BC8380E090E0A1E6B3E48D839E83AF83DE
:10326000B88780E090E0A0EAB1E489879A87AB87CD
:10327000BC8760E070E080E50E949039BE016F5F1E
:103280007F4F0E948A4C0C94AC2A80914B0387702C
:10329000873011F00C94C22A60E08FE40E94123E45
:1032A00081110C94AC2A0C94C22A0E94895A811173
:1032B0000C94AC2A8091A703882311F40C94952BCD
:1032C00060E08FE40E94123E81110C94AC2A0C94B1
:1032D000952B20E030E044E352E460919703709135
:1032E00098038091990390919A030E9456F5AB013F
:1032F000BC0188E50E94FD516E8B7F8B888F998F72
:1033000020E030E040EE50E460919B0370919C031C
:1033100080919D0390919E030E9456F5AB01BC01E4
:1033200089E50E94FD519B01AC0169837A838B83FF
:103330009C836E897F89888D998D0E9464D78823AC
:1033400011F40C94AC2A80E00E94148C0E94D39952
:1033500061E085E40E94123E182F21E0482FBE0153
:103360006F5F7F4FCE0146960E94E45A6B017C014D
:103370009B01AC010E9458F781115FC08E889F8825
:10338000A88CB98C20E030E0A901C501B4010E94ED
:10339000AFF087FF05C027E137EB41E558EB04C0EC
:1033A00027E137EB41E558E3C501B4010E9457F529
:1033B000AB01BC0185EC91E00E94A19089809A80CC
:1033C000AB80BC8020E030E0A901C501B4010E94BF
:1033D000AFF087FF05C027E137EB41E558EB04C0AC
:1033E00027E137EB41E558E3C501B4010E9457F5E9
:1033F000AB01BC0180EC91E00E94A19020E030E0A4
:10340000A901C701B6010E94AFF087FF05C027E1FF
:1034100037EB41E558EB04C027E137EB41E558E3D2
:10342000C701B6010E9457F5AB01BC018BEB91E0DF
:103430000E94A1908AE00E94CED00E94BA991130D9
:1034400011F40E94A0B30E94B59C0C94AC2A209366
:1034500089020C94AC2A48E7242E41E0342E56E031
:10346000E52E5BE0F52E87E993E09BA38AA36BE34F
:10347000C62E63E0D62E00E010E0D1018D911D0133
:103480000E943E89882309F44BC00E94BE882B010C
:103490003C01133049F0F601208131814281538192
:1034A0000E9456F52B013C01AAA1BBA12D913D9193
:1034B0004D915C91C301B2010E9456F54B015C0134
:1034C0002DEB37E346E855EB0E94DAF687FD0AC09C
:1034D0002DEB37E346E855E3C501B4010E94AFF098
:1034E0001816F4F4133051F44092A3035092A4033D
:1034F0006092A5037092A60301E012C0A501940199
:10350000F70160817181828193810E9457F5D70113
:103510006D937D938D939C931397812F0E945E965C
:103520001F5FB4E0EB0EF11CEAA1FBA13496FBA3F4
:10353000EAA3F4E0CF0ED11C143009F09ECF002393
:1035400021F083EA93E00E94C7B60E94B59C0C94D8
:10355000AC2A80917601882311F40C94AC2A89E47A
:103560000E943E89082F882321F00E94BA88E82E05
:1035700001C0E12C8AE40E943E89182F882321F0A3
:103580000E94BA88F82E01C0F12C002319F024E023
:103590002E1528F0112349F034E03F1530F48DEC5E
:1035A00091E00E94FA8F0C94AC2A80E1E7E9F3E005
:1035B000A2E1BBE001900D928A95E1F70023F1F0C2
:1035C0002091B90B3091BA0B4E2D4203B001439FAD
:1035D000700D11248091B50B9091B60B680F791F77
:1035E000072E000C880B990B0E94B6F06093120B0B
:1035F0007093130B8093140B9093150B1123F1F020
:103600002091BB0B3091BC0B5F2D5203B001539F37
:10361000700D11248091B70B9091B80B680F791F32
:10362000072E000C880B990B0E94B6F06093160BC6
:103630007093170B8093180B9093190B60E080E543
:103640000E94123E882381F10023B1F020E030E097
:1036500044E352E46091120B7091130B8091140BB0
:103660009091150B0E9457F56093120B7093130BFA
:103670008093140B9093150B1123B1F020E030E0F0
:1036800040EE50E46091160B7091170B8091180B6F
:103690009091190B0E9457F56093160B7093170BBE
:1036A0008093180B9093190B40E050E0BA0186E428
:1036B0000E94FD516B017C0120E030E0A9010E94D5
:1036C000DAF618160CF075CD20E030E040E752E451
:1036D000C701B60164CD0E94F5580C94AC2A8091C4
:1036E000F10D9091F20D8B39910509F494C40CF011
:1036F00013C18936910509F47AC40CF05CC08C348E
:10370000910509F430C39CF58231910509F4F6C4A2
:10371000BCF497FF02C00C948C2A823091050CF403
:10372000CAC1419711F00C948C2A60E08FEF91E0B0
:103730000E94D04D5E985E9815985E980C94AC2AC5
:103740008A32910509F4E4C22CF44F9709F432C28D
:103750000C948C2A8934910509F4FDC28B349105AF
:1037600011F00C948C2A0E94A3470C94AC2A833548
:10377000910509F4BFC47CF48135910509F4A1C415
:103780000CF0B4C48D34910511F00C948C2A0E9475
:10379000DC470C94AC2A8535910509F4E4C40CF49B
:1037A000ADC48C35910509F4F9C48836910509F446
:1037B000DEC20C948C2A8237910509F4C2C50CF53F
:1037C0008D36910509F4F7C264F48B36910509F43E
:1037D0006BC40CF448C410924D03109225010C9454
:1037E000AC2A8F36910509F456C30CF441C38037D7
:1037F000910509F49BC38137910509F49BC30C948F
:103800008C2A8737910509F4F3C50CF075C085370C
:10381000910509F49CC50CF0B1C58337910511F0F1
:103820000C948C2A80EF93E00E94FA8F60E080EE87
:1038300093E00E944FD960E08BEC93E00E944FD957
:1038400061E084EC93E00E944FD961E089EB93E062
:103850000E944FD961E089EA93E00E944FD960E06D
:1038600080EA93E00E944FD961E086E993E00E94EC
:103870004FD961E08CE893E00E944FD961E084E881
:1038800093E00E944FD961E086E793E00E944FD910
:1038900061E088E693E00E944FD960E089E593E01B
:1038A0000E944FD960E08BE493E00E944FD960E022
:1038B00085E393E00E944FD960E084E293E00E94A8
:1038C0004FD960E085E193E00E944FD960E080E04D
:1038D00093E00E944FD961E08DEE92E00E944FD9B3
:1038E00060E080EE92E00E944FD960E08CEC92E0C4
:1038F0000E944FD90C94AC2A8937910509F485C5EB
:103900000CF47AC58C38910509F43EC381399105D0
:1039100009F483C50C948C2A8039A1E09A0711F42C
:103920000C94B3260CF055C08C3D910509F486C764
:103930001CF58B3C910509F443C674F4883C910551
:1039400009F4C9C5893C910509F415C68E3B91055A
:1039500011F00C948C2A36C38D3C910509F483C672
:103960000CF44DC68E3C910509F490C6833D91053B
:1039700009F4AEC60C948C2A8C32E1E09E0711F457
:103980000C94642584F4823E910509F4BAC7883109
:1039900021E0920711F40C94CD248D3D910511F096
:1039A0000C948C2A58C78E3231E0930711F40C9492
:1039B0006C2614F40C9479258F3251E0950711F49C
:1039C0000C94B0268033914011F40C94F9250C949A
:1039D0008C2A863FB1E09B0711F40C94D927B4F5EB
:1039E000843AF1E09F0711F40C94C42694F48239D0
:1039F00031E0930711F40C94BC2614F40C94B62611
:103A00008A39914011F00C948C2A0E943ACE0C9481
:103A1000AC2A8C3AA1E09A0711F40C9430273CF4BC
:103A2000853A914011F40C94C7260C948C2A843F5B
:103A3000F1E09F0711F40C94D627853F914011F0D7
:103A40000C948C2A0E9481B10C94AC2A8D3B32E0FC
:103A5000930711F40C947B289CF4883552E0950769
:103A600011F40C942A288B35A2E09A0711F40C94D7
:103A70002D28883F914011F00C948C2A0C94DC275F
:103A80008335E3E09E0711F40C94ED273CF48E3B64
:103A9000924011F40C9484290C948C2A843833E0DD
:103AA000930711F40C94422A873E934011F40C942E
:103AB0007E2A0C948C2AA090EF0DB090F00D80E53A
:103AC0000E943E89882359F00E94A8396B017C012D
:103AD00011E0672B682B692B31F410E004C010E073
:103AE000C12CD12C760183E50E943E89882311F4F4
:103AF0000C94982B0E94BE8820E030E04AE754E402
:103B00000E9415F10E9453F66B017C0111110BC04C
:103B1000672B682B692B39F4A114B10421F0D5016E
:103B20008C91811102C010E001C011E00E94B6B674
:103B3000112341F080916803811109C0C5010E94E1
:103B4000AE4D05C060E08CEE91E00E94D04D10912A
:103B50004E0383E080934E0381E080934D03C114B4
:103B6000D104E104F104B1F00E94B3DCC60ED71E0B
:103B7000E81EF91E0E94B3DCDC01CB018C199D0903
:103B8000AE09BF09B7FF0EC080914D0381110C949F
:103B90009D2B08C080914D03882321F080E00E9476
:103BA000D5D0F8CF0E940A4E10924D0310934E03C9
:103BB0000C94AC2A0E9454477B018C0120E831E52B
:103BC00041E050E00E94B6F4C9016DE671E00E9448
:103BD00025F54B015C01C801B70120E13EE040E062
:103BE00050E00E94B6F4CA01B90128E130E040E09B
:103BF00050E00E94B6F4762E672EC62ED72E3CE3F8
:103C0000232E312C412C512CC801B701A201910166
:103C10000E94B6F4F62EE72ECA01B901A201910165
:103C20000E94B6F4CB018E010F5F1F4F81149104E7
:103C300099F0EF92FF927F936F936F927F92BF9272
:103C4000AF929F928F9280E392E09F938F931F9306
:103C50000F930E9447F013C0A114B104B1F0EF928A
:103C6000FF927F936F936F927F92BF92AF9280E2A9
:103C700092E09F938F931F930F930E9447F00FB68C
:103C8000F894DEBF0FBECDBF30C0CD2879F0EF92E3
:103C9000FF927F936F936F927F9284E192E09F9364
:103CA0008F931F930F930E9447F0E9CF892B69F000
:103CB000EF92FF927F936F938CE092E09F938F93AC
:103CC0001F930F930E9447F0DACFEF92FF9288E0A4
:103CD00092E09F938F931F930F930E9447F00F9052
:103CE0000F900F900F900F900F90809168038111AB
:103CF00003C0C8010E94AE4D0E94D690B80184E472
:103D000092E00E94BF908AE00E94CED00C94AC2A30
:103D100083E50E943E89882311F40C94AC2A0E940A
:103D20009688F82E6FEF7FEF80E50E94B8398C01FE
:103D300097FF02C00C94AC2AE82E60E089E40E9450
:103D4000123E81110C94A22B802F0E94D0E781118A
:103D5000F5C50C94A22B80E50E94F58881110C9486
:103D6000B52B0C94AC2A0E94C7470C94AC2A8091C6
:103D70005F0A83FF02C00C94AC2A0E94673987FF58
:103D800002C00C94AC2A83E50E943E89882379F016
:103D90000E94BE880E944CF68B01CB010E94F486E3
:103DA0000635110524F40E94DC470E940A4E0E9449
:103DB000A0E70C94AC2A80915F0A83FF02C00C94A8
:103DC000AC2A0E946739F82E87FF02C00C94AC2AF7
:103DD00083E50E943E89082F811106C082E50E947A
:103DE0003E89182F8823C1F10E94BE880E944CF69C
:103DF000CB010E94F4860E94BE8820E030E04AEAAF
:103E000052E40E94AFF0181614F40C94C02B0E94D8
:103E1000DC470E940A4E6091EA037091EB03072E83
:103E2000000C880B990B0E94B6F04B015C0140908E
:103E3000E6035090E7036090E8037090E903A30164
:103E400092010E94DAF6181614F40C94D32B002376
:103E500011F40C94C42B11E00E94A0E7112311F47B
:103E60000C94AC2A602F8F2D0E9495820C94AC2A62
:103E70008EE40E943E89882311F40C94AC2A0E949F
:103E800086886093760E7093770E8093780E909369
:103E9000790E0C94AC2A83E50E94F588882331F0D2
:103EA00060E083E50E94603C80935F0A0E94D690A8
:103EB00089E792E00E94FA8F80915F0A882369F176
:103EC0002FE6E22E22E0F22E00E010E020E08091CA
:103ED0005F0A90E0A0E0B0E0002E04C0B695A79580
:103EE000979587950A94D2F780FF0EC0DD24D3946E
:103EF000D20E222319F08CE20E94CED0F7018591D8
:103F000094910E94FA8F2D2D0F5F1F4F92E0E90EC2
:103F1000F11C05301105D9F604C08BE692E00E9431
:103F2000FA8F8AE00E94CED00C94AC2A80E090E018
:103F30000E94D49183E50E943E89882381F00E94EB
:103F40009688282F30E02D33310524F4809300012A
:103F50000C94AC2A8CE3809300010C94AC2A0E9450
:103F6000D690C0900001D12CE12CF12C80E892E099
:103F70000E94FA8F4AE0C701B6010E946FD38AE01F
:103F80000E94CED00C94AC2A80915F0A83FF02C0BD
:103F90000C94AC2A83E50E943E89882311F40C948A
:103FA000AC2A0E94BE880E944CF66337710514F05B
:103FB00063E770E07093EB0E6093EA0E0E9410804E
:103FC0000C94AC2A80915F0A83FF02C00C94AC2A47
:103FD00083E50E943E898DA781110C94D62B82E542
:103FE0000E943E8981110C94D62B0C94AC2A0E941D
:103FF0006739182F87FD0AC089EA92E00E94FA8F7C
:10400000812F0E9423828AE00E94CED02CA520938B
:104010004E030C944C2E83E50E943E89882311F4B4
:104020000C94AC2A0E949688182F90E0CD970CF043
:104030001CE3109380020E94B3DC6B017C01212FF2
:1040400030E0A8EEB3E00E940AF5C60ED71EE81EC7
:10405000F91EC0927C02D0927D02E0927E02F09224
:104060007F020C94AC2A60E080E50E94603C8111E4
:104070000C94AC2A81E40E94F588882321F0609199
:10408000D00370E002C06FEF70E083E50E949039CA
:104090008F3F910519F010F08FEF90E08093D003DF
:1040A0008093E10E0C94AC2A60E080E50E94603CB5
:1040B00081110C94AC2A1092D0031092E10E0C9452
:1040C000AC2A0E9405870E94DC470E9461B80E94CA
:1040D000A33968EE73E080E090E00E943C8F60E0DE
:1040E0008CEA92E00E94D04D0C94AC2A1092880287
:1040F0000C94AC2A209388020C94AC2A83E50E948D
:104100003E898823A1F00E94BE8820E030E04AE783
:1041100054E40E9415F10E9453F6609301017093DC
:10412000020180930301909304010C94AC2A88E56A
:104130000E94F58881110C945F2D89E50E94F58815
:1041400081110C945F2D8AE50E94F58881110C94F1
:104150005F2D85E40E94F58881110C945F2D0E94EB
:1041600061B80C94AC2A83E50E94F588882311F489
:104170000C94AC2A0E94BE8820E030E04AE754E468
:104180000E9415F10E9453F660938102709382029F
:1041900080938302909384020C94AC2A0E94673926
:1041A00087FF02C00C94AC2A8091EB0D84FD04C003
:1041B0008091ED0D87FF0AC018E7C12E11E0D12EC6
:1041C00000E6E02E0AE0F02E10E03BC08091EE0DFC
:1041D000837091F70E94D6904091740A5091750AAD
:1041E0006091760A7091770A85EC92E00E94A19026
:1041F0004091780A5091790A60917A0A70917B0A0D
:1042000082EC92E00E94A19040917C0A50917D0A3C
:1042100060917E0A70917F0A8FEB92E00E94A190DC
:104220004091800A5091810A6091820A7091830ABC
:104230008CEB92E00E94A1908AE00E94CED00C9478
:10424000AC2AD6018D916D010E943E89882309F424
:104250006DC0133009F063C00E94BE884B015C0141
:1042600020E030E040EA51E40E94AFF087FF4EC00A
:10427000A50194016091800A7091810A8091820A5F
:104280009091830A0E94DAF52B013C019B01AC015D
:104290006091C8037091C9038091CA039091CB03C8
:1042A0000E9415F16093C8037093C9038093CA03F9
:1042B0009093CB03A30192016091900A7091910AAF
:1042C0008091920A9091930A0E9415F16093900A4E
:1042D0007093910A8093920A9093930A6091B40329
:1042E0007091B5038091B6039091B7030E94B4F02A
:1042F000A30192010E9415F10E9453F66093B4034A
:104300007093B5038093B6039093B7038092800AAD
:104310009092810AA092820AB092830A07C00E94FA
:10432000BE88F701648B758B868B978B1F5FF4E0DB
:10433000EF0EF11C143009F084CF0E9492B60C9459
:10434000AC2A0E94B6B60E94B59C0C94AC2A80910F
:10435000EF0D9091F00D009769F0DC012C91222374
:1043600049F02091680321110C94AC2A0E94AE4DB3
:104370000C94AC2A0E940A4E0C94AC2A0091EF0DCA
:104380001091F00D83E0F12C40E08150E1F0F80154
:104390009081292F2B7F2134C1F721812133A9F767
:1043A000913421F0953421F441E002C0FF24F394CC
:1043B00098012E5F3F4F89012F5F3F4FD8019C919D
:1043C0009032C9F3E2CF41110E94D690FF2021F034
:1043D00087EB94E00E94FA8FF80181918F01882386
:1043E00019F00E94CED0F8CF0E946DD40C94AC2A64
:1043F0000E94FAA90C94AC2A81E080933B0C809334
:104400003A0C0E9449AA0C94AC2A10923B0C1092D0
:104410003A0C0E9449AA0C94AC2A60E070E083E553
:104420000E94B8398C0111270230110544F00E9416
:10443000D2908BEB94E00E94FA8F0C94AC2A88E423
:104440000E943E898823A9F00E94BA888A3A910581
:104450003CF08530F1E09F072CF084E091E002C051
:104460008AEA90E0F801EE0FFF1FEF5EFC4F9183A8
:10447000808386E40E943E89882381F00E94BA8866
:1044800097FD07C08F3F910529F024F08FEF90E052
:1044900001C080E0F801E953F44F808382E40E9478
:1044A0003E89882311F40C94AC2A0E94BA88853086
:1044B000910534F0843791052CF083E790E002C039
:1044C00085E090E0F801EE0FFF1FE753F44F918372
:1044D00080830C94AC2A0E946739182F87FF02C092
:1044E0000C94AC2A84E40E94F588882309F43FC028
:1044F0000E94BE886B017C0101E020E030E0A90150
:104500000E94AFF0811101C000E00093D20B20E0C7
:1045100030E0A901C701B6010E94AFF0882339F14C
:104520000E94BE8824E01202F0011124E952F44FE7
:10453000608371838283938320E030E0A9016091DE
:10454000D70B7091D80B8091D90B9091DA0B0E9408
:10455000AFF081110CC080E090E0A0EEBFE380934B
:10456000D70B9093D80BA093D90BB093DA0B0E9482
:104570008FB10C94AC2A0E94673987FF02C00C945B
:10458000AC2AE8E7EE2EE1E0FE2E00E61AE0D701C5
:104590008D917D010E94F588882349F00E94BE8894
:1045A0000E9453F6F80160837183828393830C5FCA
:1045B0001F4FFAE000371F0751F70E944BB6CCC7D8
:1045C0000E94673987FDC8C778E7E72E71E0F72EAC
:1045D00000E61AE0D7018D917D010E94F5888823BD
:1045E00039F00E94BE88F80164A375A386A397A33F
:1045F0000C5F1F4FFAE000371F0761F7ADC78091CE
:10460000EC0D87FF02C00C94842D8091ED0D8E700F
:1046100011F00C94842D4091940A5091950A609168
:10462000960A7091970A83EE94E00E94A1904091BF
:10463000980A5091990A60919A0A70919B0A80EEAB
:1046400094E00E94A19040919C0A50919D0A609133
:104650009E0A70919F0A8DED94E00E94A1908AE0DD
:104660000E94CED079C78091EB0D827111F00C942D
:10467000CA2D8091ED0D8C7811F00C94CA2D80918B
:10468000EE0D837011F00C94CA2D66C758E7C52E45
:1046900051E0D52E6EE3E62E6CE0F62E10E0D6014A
:1046A0008D916D010E94F588882351F00E94BE888B
:1046B000F7016083718382839383812F0E945E96CA
:1046C0001F5FF4E0EF0EF11C133049F70C94A51AAC
:1046D0000E94D6908CE495E00E94FA8F83E50E94B8
:1046E000F588882321F00E94AA8880934801809150
:1046F0004801882319F089E295E002C085E295E03F
:104700000E94FA8F84E495E00E94FA8F20913B0387
:1047100030913C0340913D0350913E036091300144
:104720007091310180913201909133010E9457F5CF
:10473000AB01BC0182E495E00E94A19020913F036F
:104740003091400340914103509142036091380100
:104750007091390180913A0190913B010E9457F587
:10476000AB01BC018FE395E00E94A190209143032F
:1047700030914403409145035091460360914001BC
:104780007091410180914201909143010E9457F53F
:10479000AB01BC018CE395E00E94A19084E395E01D
:1047A0000E94FA8F20913B0330913C0340913D03DE
:1047B00050913E0360913401709135018091360132
:1047C000909137010E9457F5AB01BC0182E395E05F
:1047D0000E94A19020913F033091400340914103FA
:1047E0005091420360913C0170913D0180913E01E6
:1047F00090913F010E9457F5AB01BC018FE295E01B
:104800000E94A190209143033091440340914503BD
:104810005091460360914401709145018091460199
:10482000909147010E9457F5AB01BC018CE295E0E5
:104830000E94A1908AE00E94CED08EC683E50E949D
:104840003E89882309F488C60E94BA8890934A0159
:104850008093490181C60E946739F82E87FD7CC686
:1048600083E50E943E890F2D0F2C000C110B88232D
:1048700069F10E94BA88F801EE0FFF1FE15BFE4F5D
:1048800091838083000F111F000F111F9801245E78
:104890003E4F7901BC01990F880B990B0E94B6F02D
:1048A0002AE037ED43E25CE30E9415F1F801ED5296
:1048B000F44F20813181428153810E9415F1D7014B
:1048C0006D937D938D939C93139746C60E94D690CB
:1048D00085E40E94CED080E38F0D0E94CED0F801F7
:1048E000EE0FFF1FE15BFE4F608171818CE595E06B
:1048F0000E94B29085E20E94CED08AE00E94CED083
:104900002BC680E50E94F588882309F425C660E05F
:1049100070E080E50E94B839F82E6FEF7FEF83E5F5
:104920000E94B8398C010196039708F015C6F7FC70
:1049300013C68F2D0E94D0E7882339F00E94D290B1
:1049400084E695E00E94FA8F07C60E94B6B660E042
:104950008F2D0E94CBDB0F3FBFEF1B0731F00130E3
:10496000110571F000E010E00DC08F2D0E9473DB87
:1049700031E020E0892B09F030E0032F122F02C034
:1049800001E010E08F2D0E9473DB8017910709F47E
:10499000E3C580E00E94D5D0F5CF80E50E94F58880
:1049A000882309F4D9C50E94BA888C01892B09F0A3
:1049B0007FC083E50E94F588882389F00E94BA8829
:1049C0008F3FEFEF9E0729F481E39FE00E946BCEBB
:1049D000C3C5BC0181E39FE00E9489CEBDC50E9492
:1049E000D69060E070E08CE895E00E94B2908091F3
:1049F000330F28E532E06901C81AD10887FDD39446
:104A0000CC0CDD1CCC0CDD1C0D2C000CEE08FF08C2
:104A10008091320F28E830E04901881A910887FD1B
:104A20009394880C991C880C991C092C000CAA08DA
:104A3000BB088091310F8F3FC1F090E0FC01EE0F79
:104A4000FF1F8E0F9F1FFC01E45FF04F2181328119
:104A500013E0220F331F1A95E1F704E036952795EE
:104A60000A95E1F72E5F3F4F02C020E030E02F5F54
:104A70003F4FC901330FAA0BBB0B9C01AD01281995
:104A800039094A095B09A4EBB0E00E94F7F4A701D9
:104A90009601281939094A095B090E94D8F4B9011D
:104AA00089E895E00E94B2908AE00E94CED054C579
:104AB0000E94D290B80182E895E00E94B29083E70C
:104AC00095E00E94FA8F48C564E071E083E50E949A
:104AD00090398C0168EE73E080E50E949039893846
:104AE000F3E19F0710F088E893E1B8010E94814D3F
:104AF00033C560E085E40E94603C811173C080E5AD
:104B00000E94F588882351F00E94BE886093ED03CF
:104B10007093EE038093EF039093F00389E40E9477
:104B2000F588882381F00E94BE882CEA35EC47E2A4
:104B30005EE30E9415F16093F1037093F20380939A
:104B4000F3039093F40384E40E94F588882381F0B2
:104B50000E94BE882CEA35EC47E25EE30E94DAF55B
:104B60006093F5037093F6038093F7039093F80333
:104B70000E94D6904091ED035091EE036091EF03B7
:104B80007091F0038EEA95E00E94A1902CEA35EC3A
:104B900047E25EE36091F1037091F2038091F303C9
:104BA0009091F4030E94DAF5AB01BC018AEA95E02A
:104BB0000E94A1902CEA35EC47E25EE36091F50398
:104BC0007091F6038091F7039091F8030E9415F11C
:104BD000AB01BC0186EA95E00E94A1908AE00E94A8
:104BE000CED0BAC40E94D29084E995E00E94FA8F98
:104BF000B3C480E50E94F588882351F00E94BE88E6
:104C00006093ED0E7093EE0E8093EF0E9093F00E86
:104C100089E40E94F588882381F00E94BE882CEAEE
:104C200035EC47E25EE30E9415F16093F10E70935C
:104C3000F20E8093F30E9093F40E84E40E94F588B4
:104C4000882381F00E94BE882CEA35EC47E25EE3BF
:104C50000E94DAF56093F50E7093F60E8093F70ECE
:104C60009093F80E0E94D6904091ED0E5091EE0E6A
:104C70006091EF0E7091F00E8AEB95E00E94A1908A
:104C80002CEA35EC47E25EE36091F10E7091F20E92
:104C90008091F30E9091F40E0E94DAF5AB01BC0105
:104CA00086EB95E00E94A1902CEA35EC47E25EE3AA
:104CB0006091F50E7091F60E8091F70E9091F80EBE
:104CC0000E9415F1AB01BC0182EB95E00E94A1901E
:104CD0008AE00E94CED040C483E50E94F588182F58
:104CE000882371F00E94BE880E944CF670932101C7
:104CF0006093200121E0672B09F020E02093E1037D
:104D000080E50E94F588882359F020912001309198
:104D10002101232B11F00E94AA888093E1031CC477
:104D200011111AC40E94D6908AED95E00E94FA8F64
:104D30008091E103882319F082EC95E002C08EEBAC
:104D400095E00E94FA8F609120017091210189EC19
:104D500095E00E94B29085EC95E00E94FA8FFCC32A
:104D60000E941452F9C30E94B6B6F6C381E00E94B5
:104D7000E8B30E94B59CF0C380E00E94E8B30E94B3
:104D8000A0B30E94B59CE8C30E946C3CE5C36FEFE2
:104D90007FEF89E40E94B839182F6FEF7FEF8AE424
:104DA0000E94B839082F8AE50E94F588F82E8111F3
:104DB00005C081E50E94F588D82E01C0D12C17FDD1
:104DC00006C007FD04C0F11009C0D11007C00E9441
:104DD000D2908CE096E00E94FA8FBEC3153010F49A
:104DE000053038F00E94D2908DEE95E00E94FA8F47
:104DF000B3C3E12E110FFF08002E000C110B0E940F
:104E0000BE88DD2099F025E02E9DF0012F9DF00D4C
:104E10001124E00FF11FEE0FFF1FEE0FFF1FEF5ADF
:104E2000F44F208131814281538103C020E030E082
:104E3000A901A5E0AE9DF001AF9DF00D11240E0F6C
:104E40001F1F000F111F000F111F0F5A144F0E9438
:104E500057F5D8016D937D938D939C9313977CC3E5
:104E60000E94895A811178C309E11FE1E7E9F3E063
:104E7000FBA3EAA39E012F5F3F4F4901EEE6AE2E52
:104E8000EFE1BE2E1901F80165917591859194911C
:104E9000AAA1BBA1CD90DD90ED90FD90BBA3AAA3EC
:104EA000A70196010E9456F52B013C01F101608398
:104EB00071838283938320E030E040EA51EC0E94CA
:104EC000DAF687FD0AC020E030E040EA51E4C30191
:104ED000B2010E94AFF018162CF4F5018491181657
:104EE0000CF4CFC6D101CD90DD90ED90FD901D0169
:104EF00020E030E040EA51ECC701B6010E94DAF64A
:104F000087FD0AC020E030E040EA51E4C701B60165
:104F10000E94AFF01816A4F40E94D2908AE496E0A2
:104F20000E94FA8F61E08CE396E00E94D04D0E94CF
:104F3000C5CB68E270E088EC90E00E94814D0CC324
:104F40000C5F1F4FBFEFAB1ABB0AE5E2FFE1E017B2
:104F5000F10709F098CF7EE3E72E7CE0F72E10E012
:104F6000F40181919191A191B1914F01F701819348
:104F70009193A193B1937F01812F0E945E961F5F51
:104F8000133071F70E94B59C60E08CE296E00E94BD
:104F9000D04D63E972E084E690E00E94814D6AEBB7
:104FA00072E084E690E00E94814DD6C20E94C84221
:104FB000D3C20E9458AAD0C281E08093BE0B0E9447
:104FC000AEAB1092BE0B882309F4C6C20E94D690E5
:104FD00088E696E00E94FA8FBFC28AE50E943E8969
:104FE000882331F10E94BE886B017C0120E030E013
:104FF00040EA51EC0E94DAF687FD13C020E030E071
:1050000040EA51E4C701B6010E94AFF018164CF017
:10501000C0924703D0924803E0924903F0924A03BA
:105020009BC20E94D29083E796E00E94FA8F94C2BE
:105030000E94D690409147035091480360914903E4
:1050400070914A0380E996E00E94A1908AE00E9454
:10505000CED082C20E94C7397FC20E946739082F12
:1050600087FD7AC285E50E94F5888823F9F0E02E55
:10507000002E000CFF080E94BE884B015C0120E05E
:1050800030E0A9010E94DAF687FF04C0B7FAB094B5
:10509000B7F8B094F70163E0EE0FFF1F6A95E1F7F0
:1050A000E154F44F80829182A282B3828CE40E9408
:1050B000F588882309F450C2002E000C110B0E94C1
:1050C000BE886B017C0120E030E0A9010E94DAF685
:1050D00087FF04C0F7FAF094F7F8F09453E0000F5C
:1050E000111F5A95E1F7F801E154F44FC482D582BB
:1050F000E682F78231C20E946739182F87FD2CC2E1
:105100008AE50E943E89882349F040E050E0BA01D8
:105110008AE50E94FD514B015C0106C0812C912C57
:1051200040EAA42E41E4B42E412F62E085E00E94C3
:1051300052BE20E030E0A901C501B4010E94DAF6B8
:1051400018167CF580E090E0A0EAB0E489839A83A9
:10515000AB83BC8320919F033091A0034091A103B6
:105160005091A203C501B4010E9457F56B017C0167
:1051700020E030E04AE753E40E94AFF087FD06C02C
:10518000C12CD12C3AE7E32E33E4F32ECE8ADF8A0A
:10519000E88EF98EBE016F5F7F4FCE0146960E946A
:1051A000D59A1E8E1F8E18A219A28CE40E94F58833
:1051B000882329F00E94BE886B017C0108C0C09042
:1051C000C30BD090C40BE090C50BF090C60B20E051
:1051D00030E0A901C701B6010E94DAF687FF04C0DA
:1051E000F7FAF094F7F8F094CA8EDB8EEC8EFD8E11
:1051F0006091EA037091EB036430710554F1072E5E
:10520000000C880B990B0E94B6F09B01AC016091D9
:10521000E6037091E7038091E8039091E9030E940F
:1052200056F56B017C0120E030E0A9010E94DAF61E
:1052300087FF04C0F7FAF094F7F8F09401E020E05B
:1052400030E040E450E4C701B6010E94DAF61816D7
:105250000CF000E080E090E0A0EAB1E489839A835A
:10526000AB83BC8382E00E94DA90811106C040E0EB
:1052700062E089E00E9452BE0DC022E0E22E23E0EF
:10528000AE014F5F5F4FBE01665E7F4FCE014E960F
:105290000E94A95920E030E0A901C501B4010E9493
:1052A000DAF618165CF580E090E0A0EAB0E48983B5
:1052B0009A83AB83BC83A501940160919F03709195
:1052C000A0038091A1039091A2030E9456F56B0167
:1052D0007C0120E030E0A9010E94DAF618161CF0EB
:1052E000C12CD12C7601CE8ADF8AE88EF98EBE01E0
:1052F0006F5F7F4FCE0146960E94D59A40E060E0F6
:1053000089E00E9452BE28C10E946739182F87FD8C
:1053100023C18AE50E943E89882349F040E050E09D
:10532000BA018AE50E94FD514B015C0106C0812C47
:10533000912C90EAA92E91E4B92E412F63E083E0ED
:105340000E9452BE20E030E0A901C501B4010E94D4
:10535000DAF618167CF580E090E0A0EAB0E48983E4
:105360009A83AB83BC8320919F033091A00340912B
:10537000A1035091A203C501B4010E9457F56B012E
:105380007C0120E030E04AE753E40E94AFF087FD63
:1053900006C0C12CD12C8AE7E82E83E4F82ECE8AF1
:1053A000DF8AE88EF98EBE016F5F7F4FCE01469691
:1053B0000E94D59A85E50E94F588882329F00E94ED
:1053C000BE886B017C010AC028E01202F0011124A2
:1053D000E154F44FC080D180E280F38020E030E0DF
:1053E000A901C701B6010E94DAF687FF04C0F7FAE7
:1053F000F094F7F8F094F7FAF094F7F8F094C98283
:10540000DA82EB82FC8263E0CE0101960E940359AE
:1054100020E030E0A901C501B4010E94DAF61816B7
:105420005CF580E090E0A0EAB0E489839A83AB83E6
:10543000BC83A501940160919F037091A0038091AA
:10544000A1039091A2030E9456F56B017C0120E01C
:1054500030E0A9010E94DAF618161CF0C12CD12CFC
:105460007601CE8ADF8AE88EF98EBE016F5F7F4FAC
:10547000CE0146960E94D59A40E060E089E00E9405
:1054800052BE6AC08BE40E943E89882329F10E94A3
:10549000BE886B017C0120E030E0A9010E94DAF6B1
:1054A00087FD15C020E030E040E251E4C701B601BD
:1054B0000E94AFF018165CF00E94B6B6C092F903D5
:1054C000D092FA03E092FB03F092FC0345C081EA1C
:1054D00096E00E94FA8F40C00E94D6904091F90356
:1054E0005091FA036091FB037091FC0380EC96E00D
:1054F0000E94A1908AE00E94CED02EC081E08093CD
:1055000076011092680360E083E50E94123E8111EB
:1055100023C00E94A4D520C00E94F5581DC0009150
:10552000F10D1091F20D0023B9F00E94D69084E5A0
:105530000E94CED0B8017727072E000C880B990B5C
:105540000E94DCD380E20E94CED08BEC96E00E94D9
:10555000FA8F02C00E94F5583FA931110FC0E091A7
:10556000CC0DF0E0E753F04F8081882339F089E5D6
:105570009CE20E94FA8F8AE00E94CED04CA5409314
:105580004E038AC30E94B6B680E00E94148C0E942B
:10559000D39981E080933B0C0E9449AA88E50E9440
:1055A000F588182F89E50E94F588082F8AE50E9462
:1055B000F5881013B8C0181711F0012FB4C001E01E
:1055C00011E0FF24F39480E1E7E9F3E0A2E1BBE01E
:1055D00001900D928A95E1F782E50E943E89882329
:1055E00061F00E94BE884B015C0120E030E0A9011F
:1055F0000E94AFF0882361F106C0812C912C70E2EB
:10560000A72E71E4B72E111102C0002359F1809228
:105610001A0B90921B0BA0921C0BB0921D0BA501B4
:10562000940160919F037091A0038091A1039091D8
:10563000A2030E94AFF087FF0BC019821A821B825F
:105640001C82BE016F5F7F4F8AE19BE00E94D59A6A
:10565000112319F080E00E94839B002319F081E060
:105660000E94839BFF2009F450C080E00E947F8F3E
:1056700080913A038370833061F060E08DEA91E0BD
:105680000E94D04D0E94D6908EE991E00E94FA8F40
:105690003AC00E94819B80919F039091A003A091AA
:1056A000A103B091A20380931A0B90931B0BA093BC
:1056B0001C0BB0931D0B80E090E0A2E2B3E480935A
:1056C000120B9093130BA093140BB093150B80E067
:1056D00090E0A8EFB2E48093160B9093170BA09381
:1056E000180BB093190B19821A821B821C82AE010F
:1056F0004F5F5F4F66E17BE082E19BE00E94B39ADF
:1057000082E00E94839B0E94A0B30E94819B8091B3
:105710003A0C80933B0C0E94BA9983E08093190164
:105720000E94B59C19CFF82E4ECF0E94273E14CF71
:1057300011110C94931D0C948C1D80E00E94D5D007
:105740000C94BA1D61E0802F0E94CBDB6F2D802F5F
:105750000E949CDB6F2D70E0802F0E9407DC54E0DC
:10576000E512FACEF092D003F7CE0E94968890E030
:105770008536910514F084E690E080936A03ECCEC0
:105780000E94A3470C940B1FA3019201C501B40111
:105790000E94DAF618163CF081E592E060E00E9483
:1057A000D04D0C942B1F8EE592E0F8CF0E94BE885E
:1057B0000E944CF6633771050CF07EC17093EB0EBE
:1057C0006093EA0E0E9410800E94BE8820E030E0C4
:1057D00040EA50E40E94DAF6181614F40E94A34737
:1057E0006091EA0E7091EB0E072E000C880B990B5E
:1057F0000E94B6F02091E60E3091E70E4091E80E3F
:105800005091E90E0E94DAF618161CF48AE992E02B
:1058100002C08BE892E060E00E94D04D81E080936E
:1058200025011CA21DA21EA21FA21EA61FA618AA09
:1058300019AA1AA21BAAACE3ACABBCE1BDABE6E46F
:10584000EEABC12CD12C80E8E82E9FEBF92EF1E0D5
:10585000FAAB812C912C54016091EA0E7091EB0E01
:10586000072E000C880B990B0E94B6F0162F072FFD
:10587000782E692E9601A7010E94AFF0882321F1AE
:105880002091E60E3091E70E4091E80E5091E90E1E
:105890008DA5612F702F811109C0872D962D0E9433
:1058A000AFF0881F8827881F8AA314C0872D962DE4
:1058B0000E94AFF087FF0DC080912501882309F475
:1058C0004BCE0E940A4E48CE1C2D0D2D7E2C6F2CE7
:1058D00001C01AA20E94B3DC6B017C01DC01CB0188
:1058E0002EA53FA548A959A9821B930BA40BB50B64
:1058F000B7FD33C0D701C60188519C4FAF4FBF4F92
:105900008EA79FA7A8ABB9AB80E00E94238287E84F
:1059100092E00E94FA8F81149104A104B104B9F0BD
:10592000D501C401805F984DAF4FBF4FBC01CD0181
:105930006C197D098E099F0928EE33E040E050E0A4
:105940000E94B6F4CA01B9010E94DCD303C08FE300
:105950000E94CED08AE00E94CED080E00E94D5D0B6
:105960000E94B3DC6093C00A7093C10A8093C20A9C
:105970009093C30A9091E60E98A7A091E70EA9A76D
:10598000B091E80EBAA7E091E90EEBA7292F3A2FC4
:105990004B2F5E2F612F702F872D962D0E9456F56D
:1059A0001B012C0120E030E0A9010E94DAF687FFFC
:1059B00004C057FA509457F8509481149104A104EC
:1059C000B104B1F420E030E040E85FE3C201B1018E
:1059D0000E94AFF087FF18C0FAA946015701FF23C4
:1059E00099F020E1820E27E2921EA11CB11C0CC08E
:1059F00020E030E040E450E4C201B1010E94DAF658
:105A0000181614F4460157013AA13323C1F18CA1B1
:105A10009DA1AEA1BFA1892B8A2B8B2B61F0D70151
:105A2000C6012CA13DA14EA15FA1821B930BA40B2B
:105A3000B50BB7FD24C028A539A54AA55BA56BA960
:105A40007CA98DA99EA90E9456F520E030E040EC8B
:105A50005FE30E94AFF087FD2FCFD701C601805AC8
:105A60009541AF4FBF4F8CA39DA3AEA3BFA398A5F5
:105A70009BABA9A5ACABBAA5BDABEBA5EEAB80913A
:105A80002501882309F418CF81149104A104B104DD
:105A900031F41AAAC12ED02EE72CF62CDDCEF0E17F
:105AA000CF1AF7E2DF0AE108F108C818D908EA08B6
:105AB000FB08F7FCEECF00CF63E770E07FCE0E94DB
:105AC000B6B688E50E94F588882331F05E9A809109
:105AD0003A038E7F80933A0389E50E94F5888823F4
