:100000000C9411190C943B190C943B190C943B194A
:100010000C943B190C943B190C943B190C943B1910
:100020000C943B190C943B190C943B190C943B1900
:100030000C943B190C94EBAB0C943B190C943B19AE
:100040000C943B190C9484950C941BE10C943B1973
:100050000C94E23C0C94D83C0C943B190C943B1946
:100060000C943B190C943B190C943B190C943B19C0
:100070000C943B190C943B190C943B190C943B19B0
:100080000C943B190C943B190C943B195BBE1ABDA4
:1000900051BD97BE51BD51BD51BD51BD51BD51BDA9
:1000A00051BD51BD51BD51BD51BD51BD51BD51BDE0
:1000B00051BD51BD51BD51BD51BD51BD51BD51BDD0
:1000C00051BD51BD51BD51BD91BE51BD51BD51BD7F
:1000D00051BD51BD51BD51BD51BD6ABE51BD51BD96
:1000E00051BD51BD51BD51BD51BD51BD51BD51BDA0
:1000F000AEBE4EBDCFD4A8D4ABD4D2D4AED4B1D43E
:10010000B4D4C0D4B7D4CDD4BAD4BDD4D9DDDCDD19
:10011000CFDDD3DDF3DDF3DDE0DDE4DDEADDEEDDD3
:100120008AE08FE094E09EE0CCE0CCE0A8E0B0E094
:10013000B8E0C2E04E414E494E495459494E46CD71
:10014000CCCC3D0AD7233C17B7D13877CC2B32958E
:1001500095E6241FB14F0A000020410000C842006C
:10016000401C4620BCBE4CCA1B0E5AAEC59D7443F3
:100170004F4D4D554E49434154494F4E00445259FD
:1001800052554E004552524F525300494E464F0071
:100190004543484F00536C6565702E2E2E00486F06
:1001A0006D652058592046697273740A00486F6D56
:1001B0006520585920466972737400205A3A20000D
:1001C00020593A200042656420583A20004D65735A
:1001D0006820706F696E742063616E6E6F74206248
:1001E00065207265736F6C7665640A00436C6963A1
:1001F0006B20746F20526573756D652E2E2E004E28
:100200006F204D6F76652E002569730025696D207E
:10021000256973002569682025696D2025697300AB
:10022000256964202569682025696D20256973008A
:1002300025697920256964202569682025696D2054
:10024000256973005072696E742074696D653A2077
:10025000004520436F6F6C696E672E2E2E0045207F
:1002600048656174696E672E2E2E006F6666009079
:10027000018B0184017D016F0144454255473A00DD
:100280004D31313320530020573A004265642043FA
:100290006F6F6C696E672E2E2E0042656420486574
:1002A0006174696E672E2E2E006F6B0033442050F0
:1002B00072696E746572204F46462E004348414D68
:1002C0004245525F54454D504552415455524500A8
:1002D0004D4F54494F4E5F4D4F4445530054484590
:1002E000524D414C5F50524F54454354494F4E007C
:1002F0004155544F5245504F52545F53445F5354ED
:10030000415455530050524F4D50545F5355505027
:100310004F525400454D455247454E43595F504159
:100320005253455200434153455F4C494748545F3F
:100330004252494748544E45535300544F47474C47
:10034000455F4C494748545300534F465457415218
:10035000455F504F574552004255494C445F504508
:100360005243454E54004C4556454C494E475F4418
:10037000415441005A5F50524F4245004155544F3D
:100380004C4556454C005052494E545F4A4F42002E
:1003900050524F4752455353004155544F524550C8
:1003A0004F52545F54454D5000564F4C554D455497
:1003B00052494300454550524F4D0042494E41522B
:1003C000595F46494C455F5452414E534645520091
:1003D00053455249414C5F584F4E5F584F46460077
:1003E0004649524D574152455F4E414D453A4D6148
:1003F000726C696E204372656177736F6D65436FD0
:10040000726520322E302E302D52433020534F55FE
:100410005243455F434F44455F55524C3A687474AC
:1004200070733A2F2F6769746875622E636F6D2F32
:1004300074726F7563682F4D61726C696E205052D3
:100440004F544F434F4C5F56455253494F4E3A31EC
:100450002E30204D414348494E455F545950453A4E
:100460003344205072696E74657220455854525559
:100470004445525F434F554E543A312055554944F7
:100480003A63656465326132662D343161322D34F0
:100490003734382D396231322D6335356336326663
:1004A00033363766660A002F2F20004D3134352051
:1004B000533C696E6465783E206F7574206F6620CA
:1004C00072616E67652028302D31290A00205400A2
:1004D000205200416363656C65726174696F6E3AA6
:1004E0002050005741524E494E4721204C6F7720F3
:1004F0005A204A65726B206D6179206C65616420B9
:10050000746F20756E77616E7465642070617573A9
:1005100065732E0A00205A00205900580020204DF3
:1005200061783A2000205A00205900580020204DC0
:10053000696E3A2000536F667420656E6473746F41
:1005400070733A200020466C6F773A200050726F2B
:100550007465637465642050696E0A00496E766143
:100560006C69642065787472756465720A00206431
:100570003A0020693A0020703A0020643A0020696D
:100580003A0020703A0064697300656E0043290ADE
:100590000061626C656420286D696E2074656D7001
:1005A0002000436F6C6420657874727564657320F5
:1005B00061726520004F4646004F4E004F46460A86
:1005C000004661646520486569676874200042657B
:1005D00064204C6576656C696E6720004661696CC5
:1005E000656420746F20656E61626C65204265648D
:1005F000204C6576656C696E670A00496E76616CA1
:100600006964206D6573682E0A004D6573682070FB
:100610006F696E742063616E6E6F74206265207204
:1006200065736F6C7665640A004D34323120696EF3
:10063000636F727265637420706172616D65746559
:10064000722075736167650A004F6666736574731F
:10065000204170706C696564004572723A20546F75
:100660006F206661722100546F6F20666172206690
:10067000726F6D207265666572656E636520706F5E
:10068000696E740A00454550524F4D204F4B0A0089
:100690003F5A206F7574206F662072616E67652007
:1006A000282D323020746F203230290A0050726FAA
:1006B0006265205A204F66667365743A20003F4B8E
:1006C0002076616C7565206F7574206F662072618D
:1006D0006E67652028302D3130292E0A004164765E
:1006E000616E6365204B3D00496E76616C696420E4
:1006F00065787472756465720A004572726F722053
:1007000077726974696E6720746F20454550524F47
:100710004D210A000F150E1216170E1303021A149C
:1007200001000E0C190DFF180C040001627573799D
:100730003A2070617573656420666F7220696E700F
:1007400075740A00627573793A2070617573656417
:1007500020666F7220757365720A00627573793A4C
:100760002070726F63657373696E670A004B494C42
:100770004C2063617573656420627920746F6F200B
:100780006D75636820696E6163746976652074694C
:100790006D65202D2063757272656E7420636F6DB8
:1007A0006D616E643A2000506C656173652052651E
:1007B000736574005052494E5445522048414C5480
:1007C0004544004B494C4C45442E20005072696E04
:1007D0007465722068616C7465642E206B696C6C42
:1007E00028292063616C6C6564210A006563686F69
:1007F0003A004572726F723A0042696C696E6561C7
:1008000072204C6576656C696E6720477269643A40
:100810000A00486F74656E6420746F6F20636F6C9C
:10082000640A0024F4D43050C38E20C2A240178240
:100830008B7011127A910D816CD90AA861E108C7F9
:10084000586607615143061E4B5D05C145A7041A52
:10085000411104093D9803713931034036DB0265CB
:10086000339102D4305402802E1D02632CEE0175A8
:100870002AC501B028A001102781018F2564012B12
:10088000244B01E0223401AC211F018D200D018099
:100890001FFC00841EED00971DDF00B81CD200E68F
:1008A0001BC600201BBC00641AB200B219A8000AC3
:1008B00019A0006A189900D117910040178B00B554
:1008C00016840031167E00B31579003A157300C7FF
:1008D000146F0058146A00EE136600881363002535
:1008E000135E00C7125B006C12570015125400C152
:1008F00011510070114F0021114B00D61049008D8D
:100900001047004610440002104200C00F40008013
:100910000F3E00420F3C00060F3B00CB0E38009309
:100920000E37005C0E3500270E3400F30D3200C187
:100930000D3100900D3000600D2E00320D2D0005A0
:100940000D2C00D90C2B00AE0C2900850C29005C65
:100950000C2700350C27000E0C2600E80B2400C4E1
:100960000B2400A00B23007D0B23005A0B21003920
:100970000B2100180B2000F80A1F00D90A1E00BB2B
:100980000A1E009D0A1D00800A1D00630A1C004704
:100990000A1B002C0A1B00110A1A00F7091A00DDB5
:1009A000091900C4091900AB091900920917007B45
:1009B000091800630917004C0916003609160020B3
:1009C0000916000A091500F5081500E0081400CC06
:1009D000081400B8081400A4081400900813007D3F
:1009E0000812006B08130058081200460812003461
:1009F000081100230811001208110001081100F06D
:100A0000071000E0071000D0071000C0071000B06A
:100A1000070F00A107100091070E0083070F007455
:100A2000070F0065070E0057070E0049070E003B31
:100A3000070D002E070E0020070D0013070D0006FE
:100A4000070D00F9060C00ED060D00E0060C00D4C1
:100A5000060C00C8060C00BC060C00B0060C00A476
:100A6000060B0099060C008D060B0082060B007722
:100A7000060B006C060B0061060A0057060B004CC3
:100A8000060A0042060A0038060A002E060A00245A
:100A9000060A001A060A001006090007060A00FDE9
:100AA000050900F4050900EB050900E2050900D974
:100AB000050900D0050900C7050900BE050900B5F4
:100AC000050800AD050800A50509009C050800946F
:100AD0000508008C050800840508007C05080074E2
:100AE0000508006C050700650508005D0507005650
:100AF0000508004E050700470507004005080038B7
:100B0000050700310507002A050700230507001C1B
:100B1000050600160507000F050700080506000278
:100B2000050700FB040600F5040700EE040600E8D4
:100B3000040600E2040700DB040600D5040600CF2B
:100B4000040600C9040600C3040600BD040600B77D
:100B5000040600B1040500AC040600A6040600A0CB
:100B60000405009B04060095040500900406008A15
:100B700004050085040500800406007A040500755C
:100B8000040500700405006B04050066040500619F
:100B90000405005C04050057040500520405004DDF
:100BA00004050048040500430405003E0404003A1F
:100BB00004050035040500300404002C040500275A
:100BC000040400230405001E0404001A0404001693
:100BD000040500110404000D0404000904050004C8
:100BE00004040000040400FC030400F8030400F4FF
:100BF000030400F0030400EC030400E8030400E431
:100C0000030400E0030400DC030400D8030400D460
:100C1000030400D0030400CC030400C8030300C590
:100C200003030024F404D9201BC40C5C0E9804C4F4
:100C3000095F0265077101F405F900FB04B3004880
:100C4000048700C10369005803550003034500BE33
:100C5000023A008402310053022A002902250004CE
:100C6000022000E4011C00C8011900AF0117009820
:100C70000114008401130071011000610110005182
:100C8000010E0043010D0036010B002B010B00206B
:100C9000010B00150109000C01090003010800FB0C
:100CA000000800F3000800EB000700E4000600DE87
:100CB000000600D8000600D2000600CC000500C7E0
:100CC000000500C2000500BD000400B9000400B525
:100CD000000400B1000400AD000400A9000400A558
:100CE000000300A20003009F0004009B0003009883
:100CF0000003009500020093000300900003008DA4
:100D00000002008B000300880002008600020084BD
:100D1000000300810002007F0002007D0002007BD2
:100D200000020079000200770001007600020074E2
:100D300000020072000100710002006F0002006DED
:100D40000001006C0002006A0001006900020067F7
:100D500000010066000100650001006400020062FD
:100D600000010061000100600001005F0002005D01
:100D70000001005C0001005B0001005A0001005905
:100D80000001005800010057000100560001005505
:100D90000001005400010053000000530001005204
:100DA00000010051000100500001004F0001004E01
:100DB0000000004E0001004D0001004C0001004BFE
:100DC0000000004B0001004A0001004900010048FA
:100DD00000000048000100470001004600000046F6
:100DE00000010045000000450001004400010043EF
:100DF00000000043000100420000004200010041E9
:100E000000000041000100400001003F0000003FE1
:100E10000001003E0000003E0001003D0000003DDA
:100E20000001003C0000003C0000003C0001003BD1
:100E30000000003B0001003A0000003A00010039C8
:100E400000000039000100380000003800000038C0
:100E500000010037000000370001003600000036B6
:100E600000000036000100350000003500000035AC
:100E700000010034000000340000003400010033A1
:100E80000000003300000033000100320000003297
:100E9000000000320001003100000031000000318C
:100EA0000001003000000030000000300001002F81
:100EB0000000002F0000002F0000002F0001002E76
:100EC0000000002E0000002E0001002D0000002D6B
:100ED0000000002D0000002D0001002C0000002C5F
:100EE0000000002C0000002C0001002B0000002B53
:100EF0000000002B0000002B0001002A0000002A47
:100F00000000002A0000002A00010029000000293A
:100F1000000000290000002900000029000100282D
:100F20000000002800000028000000280000002821
:100F30000001002700000027000000270000002714
:100F40000000002700010026000000260000002607
:100F500000000026000000260001002500000025FA
:100F600000000025000000250000002500000025ED
:100F700000010024000000240000002400000024E0
:100F800000000024000100230000002300000023D3
:100F900000000023000000230000002300000023C5
:100FA00000010022000000220000002200000022B8
:100FB00000000022000000220001002100000021AA
:100FC000000000210000002100000021000000219D
:100FD000000000210001002000000020000000208F
:100FE0000000002000000020000000200000002081
:100FF000000000200001001F0000001F0000001F73
:101000000000001F0000001F0000001F0000001F64
:101010000001001E0000001E0000001E0000001E57
:10102000000000232C0000B8220000561800003AEF
:101030000F0000B8080000B1040000710200003E7B
:10104000010000205A3A0020593A0020436F756E83
:101050007420583A0020453A00205A3A0020593A64
:1010600000583A0020636F6C642065787472757361
:10107000696F6E2070726576656E7465640A0048EB
:101080006F6D696E67204661696C656400000000E1
:10109000000000000000000000000048420000487E
:1010A00042000080405761726E696E673A20486F57
:1010B0006D696E672042756D702044697669736F43
:1010C00072203C20310A000202040000A04000000F
:1010D000A040000000400000754300006B4300008A
:1010E0007A43FFFFFF0000000100000001000080C4
:1010F00000555555000000400033333300AAAA2A9A
:10110000004992240000002000C7711C0099991921
:1011100000D1451700555515003BB1130024491265
:101120000011111100000010000F0F0F00E3380E26
:101130000043790D00CCCC0C00C3300C00E8A20BAE
:101140000064210B00AAAA0A00703D0A009DD8097C
:1011500000427B090092240900DCD308008888083B
:10116000001042080000000800F0C1070087870750
:101170000075500700711C07003EEB0600A1BC067D
:10118000006990060066660600703E06006118065B
:101190000017F4050074D105005BB00500B290059E
:1011A00000627205005555050078390500B81E0526
:1011B00000050505004EEC040087D40400A1BD0421
:1011C0000090A7040049920400C17D0400EE690468
:1011D00000C7560400444404005C320400082104A3
:1011E0000041100400000004003FF00300F8E00399
:1011F0000026D20300C3C30300CCB503003AA80302
:10120000000A9B0300388E0300C08103009F750312
:1012100000D0690300505E03001D530300344803EF
:1012200000913D03003333030016290300381F03E8
:101230000097150300300C0300030303000BFA02B0
:101240000049F10200BAE802005CE002002DD80279
:10125000002DD0020059C80200B0C0020031B9020E
:1012600000DAB10200AAAA0200A0A30200BC9C02FC
:1012700000FA9502005C8F0200DF88020082820281
:1012800000457C02002776020027700200436A02B4
:10129000007C640200D05E02003F590200C8530285
:1012A0000023646566696E652044454641554C548B
:1012B0005F0000626564004B6420004B6920004BB6
:1012C000702000504944204175746F74756E65201C
:1012D00066696E697368656421205075742074684E
:1012E00065206C617374204B702C204B6920616EFB
:1012F00064204B6420636F6E7374616E7473206638
:10130000726F6D2062656C6F7720696E746F204319
:101310006F6E66696775726174696F6E2E680A0018
:10132000504944204175746F74756E65206661691B
:101330006C6564212074696D656F75740A004531B0
:1013400020544845524D414C2052554E4157415929
:101350000042454420544845524D414C2052554E80
:101360004157415900546865726D616C2052756E29
:10137000617761790045312048656174696E672045
:101380004661696C65640042656420486561746902
:101390006E67204661696C65640048656174696EBA
:1013A00067206661696C656400504944204175742A
:1013B0006F74756E65206661696C65642120546583
:1013C0006D706572617475726520746F6F206869E5
:1013D00067680A00204B643A2000204B693A2000DD
:1013E000204B703A20000A20436C617373696320BC
:1013F000504944200A00204B643A2000204B693AAF
:101400002000204B703A20000A204E6F206F766536
:101410007273686F6F740A002054753A2000204B75
:10142000753A2000206D61783A2000206D696E3A8F
:10143000200020643A200020626961733A20005045
:101440004944204175746F74756E652073746172C0
:10145000740A00504944204175746F74756E65209C
:101460006661696C6564212054656D706572617494
:1014700075726520746F6F20686967680A0050494B
:1014800044204175746F74756E65206661696C6582
:1014900064212042616420657874727564657220ED
:1014A0006E756D6265720A004572723A20757466D7
:1014B0003820666F6E74206E6F7420696E6974696F
:1014C000616C697A65642E004572723A20757466A3
:1014D0003820666F6E74206E6F7420696E6974694F
:1014E000616C697A65642E004572723A2075746683
:1014F0003820666F6E74206E6F7420696E6974692F
:10150000616C697A65642E0000060C00FE070226F5
:1015100003BC017FFE08FE08FE0508080600004027
:10152000F0C88888987810050808060000C0F88878
:1015300088888888F80505050600012030F83020E5
:101540000508080600002070F820202020E005098A
:10155000090600FF2070A8A8B88888702005060634
:10156000060001E08CEA8C8A0A0509090600FFF8EA
:10157000A88888888888A8F8050A0A0600FE2050EE
:1015800050505088A8A8887003030306000340A0A9
:1015900040FFFFFFFFFFFFFFFFFFFFFFFFFFFFFF1A
:1015A000FFFFFFFFFFFFFF0000000605FF01070729
:1015B000060200808080808000800303030601050E
:1015C000A0A0A005060606000050F85050F85005EF
:1015D00009090600FF2070A8A07028A87020050740
:1015E00007060000C8C810204098980507070600A5
:1015F0000040A0A040A89068010303060205808077
:10160000800309090601FF2040408080804040207F
:101610000309090601FF804040202020404080054A
:10162000070706000020A8702070A8200505050601
:1016300000012020F820200203030601FFC04080A3
:10164000050101060003F8020202060100C0C00500
:101650000707060000081010204040800507070615
:101660000000708898A8C88870030707060100402A
:10167000C040404040E005070706000070880810A1
:101680002040F8050707060000F8081030088870A9
:1016900005070706000010305090F81010050707E6
:1016A000060000F880F008088870050707060000AB
:1016B000304080F0888870050707060000F80810A1
:1016C0001020202005070706000070888870888891
:1016D000700507070600007088887808106002050A
:1016E00005060100C0C000C0C00206060601FFC01A
:1016F000C000C04080030505060101204080402055
:10170000050303060002F800F80305050601018041
:101710004020408005070706000070881020200048
:10172000200507070600007088B8A8B88070050774
:1017300007060000708888F8888888050707060073
:1017400000F04848704848F0050707060000708818
:101750008080808870050707060000F048484848E8
:1017600048F0050707060000F88080F08080F80543
:101770000707060000F88080F080808005070706D4
:101780000000708880809888700507070600008830
:101790008888F8888888030707060100E0404040F1
:1017A0004040E00507070600003810101010906058
:1017B0000507070600008890A0C0A09088050707CD
:1017C000060000808080808080F805070706000002
:1017D00088D8A8888888880507070600008888C8F0
:1017E000A898888805070706000070888888888878
:1017F00070050707060000F08888F08080800507E4
:101800000706000070888888A8906805070706000A
:1018100000F08888F0A0908805070706000070880F
:101820008070088870050707060000F82020202037
:1018300020200507070600008888888888887005AA
:10184000070706000088888888505020050707068B
:10185000000088888888A8A8500507070600008827
:101860008850205088880507070600008888502087
:10187000202020050707060000F80810204080F807
:101880000309090601FFE080808080808080E005F8
:1018900007070600008040402010100803090906D1
:1018A00001FFE020202020202020E0050303060087
:1018B000052050880501010600FEF8030303060118
:1018C0000580402005050506000070087888780529
:1018D00007070600008080F0888888F00505050667
:1018E00000007080808870050707060000080878EF
:1018F000888888780505050600007088F0807005E6
:101900000707060000304840E04040400507070652
:1019100000FE708888887808700507070600008038
:1019200080F0888888880307070601004000C040CF
:101930004040E00409090601FE10003010101010AC
:10194000906005070706000080808890E09088037B
:101950000707060100C04040404040E0050505067D
:101960000000D0A8A8A8A8050505060000B0C888F2
:1019700088880505050600007088888870050707B7
:101980000600FEF0888888F080800507070600FEC4
:1019900078888888780808050505060000B0C880A2
:1019A000808005050506000078807008F0050707AF
:1019B0000600002020F8202020180505050600005C
:1019C0008888889868050505060000888888502062
:1019D0000505050600008888A8A85005050506002D
:1019E0000088502050880507070600FE8888885028
:1019F000204080050505060000F8102040F8030986
:101A0000090601FF20404040804040402001090974
:101A10000602FF8080808080808080800309090624
:101A200001FF804040402040404080050303060005
:101A30000248A890FF290A002062797465733B2050
:101A4000637263200053657474696E677320537406
:101A50006F726564202800454550524F4D206461E7
:101A6000746173697A65206572726F722E0A00293B
:101A70000A002062797465733B2063726320002042
:101A800073746F7265642073657474696E67732014
:101A90007265747269657665642028002028636128
:101AA0006C63756C6174656429210A0020213D20F6
:101AB00000454550524F4D20435243206D69736D90
:101AC00061746368202D202873746F726564292007
:101AD000002053697A653A2000496E6465783A209F
:101AE00000204D61726C696E3D563638290A0045FA
:101AF0004550524F4D2076657273696F6E206D6947
:101B0000736D617463682028454550524F4D3D0008
:101B10004368616E67652046696C616D656E74002F
:101B2000556E6C6F61642046696C616D656E740002
:101B30004C6F61642046696C616D656E7400507213
:101B4000656865617420437573746F6D00507265CC
:101B5000686561742050455447005072656865613E
:101B60007420504C41005072656865617420437563
:101B700073746F6D004261636B0050726F62696EC7
:101B800067204661696C65640A0050726F62696E15
:101B900067204661696C656400486F6D6520257338
:101BA0002573257320466972737400204669727329
:101BB000740A00486F6D652000496E736572742069
:101BC00066696C616D656E7420616E64207072650B
:101BD000737320627574746F6E20286F72204D319C
:101BE0003038290A00220A00556E6B6E6F776E201E
:101BF000636F6D6D616E643A202200466C6F7700F2
:101C0000466C6F770046616E2053706565640046D0
:101C1000616E2053706565640042656400426564CE
:101C2000004E6F7A7A6C65004E6F7A7A6C6500535D
:101C300070656564005370656564004D61696E0090
:101C400025753A2530327500253032753A25303207
:101C5000750025756420253032753A2530327500BF
:101C6000202020202020200020202020001FE020F5
:101C700010201020101020102020102010303008CC
:101C800040048003001FE03FF03FF03FF01FE01FE3
:101C9000E03FF03FF03FF00FC0078003003FFFF050
:101CA00038007030FC3020FC102078102030102CD0
:101CB00000D02E31D02F7BD02F7BD02E31D02C00D6
:101CC000D020301020781020FC1030FC303800700C
:101CD0003FFFF03FFFF03800703186302387102738
:101CE00087902F87D02F03D02030102078102078B5
:101CF000102030102F03D02F87D0278790238710F4
:101D00003186303800703FFFF01FFFF81FFFF804E6
:101D100010400208200208200410400820801041D2
:101D2000001041000820800410400000001FFFF850
:101D30001FFFF820636F6C64206578747275736997
:101D40006F6E2070726576656E7465640A004C6F04
:101D50006164206D6D004C6F6164206D6D00556E87
:101D60006C6F6164206D6D00556E6C6F6164206DE9
:101D70006D0046696C2E204469612E0046696C2E08
:101D8000204469612E004F6666004F6E0045206951
:101D90006E206D6D5E3300416476616E6365204B2D
:101DA00000416476616E6365204B00416476616E2C
:101DB0006365642053657474696E6773004D3330D6
:101DC0003320553120452569205325690050494469
:101DD000204175746F74756E6500504944204175DB
:101DE000746F74756E65002008204661637400206E
:101DF000082046616374002008204D6178002008A7
:101E0000204D6178002008204D696E002008204D8B
:101E1000696E004F6666004F6E004175746F7465A1
:101E20006D7000416476616E6365642053657474FF
:101E3000696E677300202D20496E76616C6964209D
:101E40006578747275646572206E756D6265722056
:101E5000210A0070012C0190012701B0012201C06C
:101E6000011D01F00118011002130130020E016082
:101E700002090190020401C002FF000003FA0040C1
:101E800003F5008003F000D003EB002004E60070AF
:101E900004E100E004DC004005D700C005D20040AA
:101EA00006CD00D006C8008007C3003008BE00F091
:101EB00008B900C009B400B00AAF00B00BAA00D046
:101EC0000CA500000EA000500F9B00C01096005003
:101ED00012910000148C00C0158700B0178200B06A
:101EE000197D00D01B7800001E730040206E00900A
:101EF000226900F024640040275F0090295A00E026
:101F00002B5500102E500020304B0010324600E0C0
:101F100033410090353C001037370070383200A054
:101F2000392D00B03A2800A03B2300603C1E001071
:101F30003D1900903D1400103E0F00703E0A00C095
:101F40003E0500003F0000403FFBFF803FF6FFC022
:101F50003FF1FF453120544845524D414C205255E8
:101F60004E415741590042454420544845524D4145
:101F70004C2052554E4157415900546865726D616D
:101F80006C2052756E61776179004531204572721F
:101F90003A204D415854454D50004572723A204DFB
:101FA000415854454D5020424544004D41585445F8
:101FB0004D50207472696767657265640045312011
:101FC0004572723A204D494E54454D50004572724B
:101FD0003A204D494E54454D5020424544004D490C
:101FE0004E54454D50207472696767657265640090
:101FF000202F002042403A0020403A0020573A006B
:102000004731205831313720593233342046363069
:1020100030300050726F62696E6720506F696E7465
:102020002025692F2569002E0A002F0050726F624B
:10203000696E67206D65736820706F696E7420002B
:10204000202844525952554E2900473239204175B3
:10205000746F20426564204C6576656C696E67001C
:102060003F20284C2C522C462C4229206F7574207E
:102070006F6620626F756E64732E0A003F285629C2
:102080006572626F7365206C6576656C206973207C
:10209000696D706C61757369626C652028302D34D0
:1020A000292E0A00426164205A2076616C75650A07
:1020B000004E6F2062696C696E656172206772699B
:1020C000640A00204500205A00205900204D393272
:1020D0002058004D3630303A20546F6F20436F6CDB
:1020E0006400486F74656E6420746F6F20636F6C5A
:1020F000640A00496E736572742066696C616D656F
:102100006E7420616E6420707265737320627574E2
:10211000746F6E0A00507265737320627574746F09
:102120006E20746F2068656174206E6F7A7A6C65BA
:102130000A0020496E76616C696420657874727556
:1021400064657220003344205072696E7465722099
:1021500052656164792E005072696E74696E672EE3
:102160002E2E005072696E74205061757365640084
:102170000000754300006B4300007A43000000003C
:102180000000000000000000FFFDFCFAF8F6F4F289
:10219000F0EEECEAE9E7E5E3E1E0DEDCDAD9D7D519
:1021A000D4D2D0CFCDCBCAC8C7C5C3C2C0BFBDBCB7
:1021B000BAB9B7B6B4B3B2B0AFADACAAA9A8A6A528
:1021C000A4A2A1A09E9D9C9A999897959493929071
:1021D0008F8E8D8B8A8988878684838281807F7E9B
:1021E0007D7B7A797877767574737271706F6E6DA6
:1021F0006C6B6A696867666564636261605F5E5D97
:102200005C5B5A5958585756555453525150504F79
:102210004E4D4C4B4A4A4948474646454443424244
:1022200041403F3E3E3D3C3B3B3A393838373635FE
:1022300035343332323130302F2E2E2D2C2B2B2AA9
:102240002929282727262525242323222121202048
:102250001F1E1E1D1C1C1B1B1A19191818171616D9
:10226000151514131312121111100F0F0E0E0D0D60
:102270000C0C0B0A0A0909080807070606050504DD
:1022800004030302020100005654726176204D6976
:102290006E005654726176204D696E00566D696EFF
:1022A00000566D696E00566D6178204500566D616F
:1022B00078204500566D6178205A00566D6178206F
:1022C0005A00566D6178205900566D61782059008A
:1022D000566D6178205800566D6178205800416431
:1022E00076616E6365642053657474696E6773000C
:1022F000416D6178204500416D6178204500416D58
:102300006178205A00416D6178205A00416D6178F2
:10231000205900416D6178205900416D6178205845
:1023200000416D6178205800412D54726176656CD2
:1023300000412D54726176656C00412D52657472B6
:1023400061637400412D526574726163740041636E
:1023500063656C00416363656C00416476616E6324
:1023600065642053657474696E67730044697361B2
:10237000626C65205374657070657273004D3834FB
:102380000046616465204865696768740046616459
:102390006520486569676874004F6666004F6E0087
:1023A000426564204C6576656C696E67004C6576A5
:1023B000656C20426564004732380A473239004173
:1023C00075746F20486F6D6500473238004D6F7629
:1023D000652041786973004D61696E0050726568CF
:1023E00065617420504C4120456E640050726568F0
:1023F00065617420504C41204265640050726568EC
:1024000065617420504C410054656D706572617453
:102410007572650050726568656174205045544757
:1024200020456E64005072656865617420504554A3
:1024300047204265640050726568656174205045AC
:1024400054470054656D7065726174757265004320
:102450006F6F6C646F776E00507265686561742091
:1024600050455447005072656865617420504C4176
:102470000046616E2053706565640046616E2053AE
:10248000706565640042656400426564004E6F7A61
:102490007A6C65004E6F7A7A6C65004D61696E00EA
:1024A0004732380A473120583131372059313137D6
:1024B000204633303030004732380A473120583117
:1024C000313720593131372046333030300A4D31E1
:1024D000343020533530004732380A4731205831E4
:1024E000313720593131372046333030300A4D31C1
:1024F000343020533830004732380A4732390047E9
:1025000039310A4731204531303020463330300AE6
:1025100047393000486F6D652F4C6576656C2042F9
:10252000656400486F6D652F507265686561742041
:1025300028504554472900486F6D652F50726568D3
:102540006561742028504C41290045787472756487
:1025500065203130306D6D00486F6D65004D6169EB
:102560006E004D37303220542564004D3630302017
:10257000423020542564004D373032203B25640022
:102580004D3730312054256400556E6C6F616420E6
:1025900046696C616D656E7400556E6C6F61642088
:1025A00046696C616D656E74004D373032004D3791
:1025B0003031004C6F61642046696C616D656E74EA
:1025C000004D363030204230004368616E67652030
:1025D00046696C616D656E74004D61696E00436F94
:1025E0006E74696E7565005075726765206D6F72E7
:1025F0006500524553554D45204F5054494F4E5359
:102600003A005052494E54205041555345440055CC
:102610004E4C4F41442046494C414D454E54004C90
:102620004F41442046494C414D454E540020204ED8
:102630006F7A7A6C653A200020004D3432380049B8
:102640006E697469616C697A6520454550524F4DD9
:102650000046696C616D656E740054656D706572DD
:1026600061747572650053746570732F6D6D004AE7
:1026700065726B00416363656C65726174696F6E4E
:102680000056656C6F636974790053657420486FF8
:102690006D65204F66667365747300436F6E66697F
:1026A0006775726174696F6E0053746F7265205341
:1026B000657474696E677300426564004265640006
:1026C0004E6F7A7A6C65004E6F7A7A6C650046615F
:1026D0006E2053706565640046616E2053706565B9
:1026E0006400436F6E66696775726174696F6E002E
:1026F0004C6F61642053657474696E677300526532
:1027000073746F7265206661696C736166650053EE
:10271000746F72652053657474696E6773005072CC
:102720006568656174205045544720436F6E6600AC
:102730005072656865617420504C4120436F6E662D
:102740000050726F6265205A204F66667365740090
:1027500050726F6265205A204F666673657400413F
:102760006476616E6365642053657474696E677323
:10277000004D61696E0056652D4A65726B005665A5
:102780002D4A65726B00567A2D4A65726B00567A37
:102790002D4A65726B0056792D4A65726B00567929
:1027A0002D4A65726B0056782D4A65726B0056781B
:1027B0002D4A65726B00416476616E6365642053D7
:1027C000657474696E6773004573746570732F6DFB
:1027D0006D004573746570732F6D6D005A73746569
:1027E00070732F6D6D005A73746570732F6D6D006B
:1027F0005973746570732F6D6D00597374657073C0
:102800002F6D6D005873746570732F6D6D00587364
:10281000746570732F6D6D00416476616E636564DD
:102820002053657474696E677300496E69746961D9
:102830006C697A6520454550524F4D003F00436119
:102840006E63656C00496E697400FFFFE7FFFC0072
:1028500003FFFC0FFFC0FFFCFFFFE7FFFE0003FFCD
:10286000FE1FFFE1FFFEFFFFE7FFFE0003FFFF3F4C
:10287000FFF3FFFF00E007000E00000007380073C1
:10288000800700E007000E3FF00007380073800764
:1028900000E007FFFE3FF3FFFF380073800700E012
:1028A00007FFFC3FF3FFFF380073800700E007FFDE
:1028B000FE3FF3FFFF380073800700E007000E00C3
:1028C000000007380073800700E007000E000000DA
:1028D00007380073800700E007000F0003FFFF3F89
:1028E000FFF3FFFF00E007000F0003FFFE1FFFE103
:1028F000FFFE00E007000F0003FFFC0FFFC0FFFC1E
:1029000000000000000000000000000000000000C7
:10291000000000000000000000000000FFFFFFFFBB
:10292000FFFFFFFFFFFFFFFFFFFFFFFFFFFFFFFFB7
:10293000FFFFFFFFFFFFFFFF2020506C616E6E6501
:102940007242756666657242797465733A2000203A
:1029500046726565204D656D6F72793A2000436F50
:102960006D70696C65643A204175672031322032A0
:102970003031390A00207C20417574686F723A202A
:102980002874726F7563682C204372656177736F6A
:102990006D6520436F726520322E30290A00323077
:1029A00031392D30382D303800204C61737420556A
:1029B0007064617465643A2000322E302E302D52DE
:1029C00043300A004D61726C696E0020536F66746B
:1029D000776172652052657365740A0020576174CF
:1029E0006368646F672052657365740A00204272E1
:1029F0006F776E206F75742052657365740A0020BE
:102A000045787465726E616C2052657365740A0056
:102A1000506F77657255700A0073746172740A00A2
:102A2000456E6473746F70732025632025632025C1
:102A30006320256300205A3A0020593A0020583A72
:102A400000656E6473746F7073206869743A200057
:102A50005061726B696E672E2E2E00746F20737436
:102A60006172740066696C616D656E742063686183
:102A70006E6765005761697420666F720066696CE5
:102A8000616D656E7420756E6C6F6164005761696D
:102A90007420666F7200506C6561736520776169A0
:102AA000742E2E2E004E6F7A7A6C652068656174E4
:102AB000696E6700746F2068656174206E6F7A7A42
:102AC0006C6500507265737320627574746F6E006C
:102AD000746F20636F6E74696E756500616E64203B
:102AE000707265737320627574746F6E00496E73D3
:102AF0006572742066696C616D656E740066696CE0
:102B0000616D656E74206C6F61640057616974203B
:102B1000666F7200746F20726573756D65207072D8
:102B2000696E7400507265737320427574746F6EB1
:102B300000746F20726573756D652E2E2E005761BF
:102B4000697420666F72207072696E740066696CB9
:102B5000616D656E74207075726765005761697488
:102B600020666F72004368616E67652046696C611C
:102B70006D656E7400517569636B20436F6D6D6197
:102B80006E647300436F6E66696775726174696F16
:102B90006E0054656D7065726174757265004D6F7D
:102BA00074696F6E0054756E6500496E666F2053D0
:102BB000637265656E004D6F76652058004D6F76C7
:102BC000652059004D6F7665205A004578747275FE
:102BD000646572004578747275646572004D6F7635
:102BE00065205A004D6F76652059004D6F7665203F
:102BF00058004F6666004F6E00536F667420456E36
:102C00006473746F7073004D6F74696F6E0043610D
:102C1000703A00220A00656E7175657565696E67A8
:102C20002022006F6B00526573656E643A2000537A
:102C3000544F505045442E20005072696E74657296
:102C40002073746F707065642064756520746F20E4
:102C50006572726F72732E204669782074686520E1
:102C60006572726F7220616E6420757365204D39D4
:102C7000393920746F20726573746172742E202844
:102C800054656D7065726174757265206973207228
:102C9000657365742E2053657420697420616674B1
:102CA00065722072657374617274696E67290A00B7
:102CB0004E6F20436865636B73756D207769746828
:102CC000206C696E65206E756D6265722C204C619A
:102CD0007374204C696E653A2000636865636B739A
:102CE000756D206D69736D617463682C204C617320
:102CF00074204C696E653A20004C696E65204E75F3
:102D00006D626572206973206E6F74204C617374FC
:102D1000204C696E65204E756D6265722B312C20DA
:102D20004C617374204C696E653A20004D3131302E
:102D30000048617264636F64656420446566617510
:102D40006C742053657474696E6773204C6F616492
:102D500065640A00F4010000F40100006400000052
:102D6000881300000000FA430000FA430000A0406E
:102D7000000048420000A0420000A0420000C843FA
:102D80000000BA423A0A0020204D3630332000209D
:102D900055004C0046696C616D656E74206C6F6106
:102DA000642F756E6C6F6164206C656E67746873F8
:102DB0003A0A0020204D393030204B004C696E65B6
:102DC000617220416476616E63653A0A0020204D8D
:102DD000383531205A005A2D50726F6265204F6687
:102DE000667365740020440020490020204D333074
:102DF0003420500020440020490020204D33303141
:102E00002050005049442073657474696E67733AAA
:102E10000A0020460020420020480020204D313486
:102E2000352053004D6174657269616C206865617D
:102E300074757020706172616D65746572733A0AA1
:102E400000204A0020204732392057204900205ACC
:102E50000020204D3432302053004175746F2042E1
:102E60006564204C6576656C696E673A0A00205A85
:102E70000020590020204D323036205800486F6D18
:102E800065206F66667365743A0A00204500205A13
:102E90000020590020580020540020530020204DCD
:102EA00032303520420020453C6D61785F655F6AB5
:102EB00065726B3E0020583C6D61785F785F6A6593
:102EC000726B3E20593C6D61785F795F6A65726B09
:102ED0003E205A3C6D61785F7A5F6A65726B3E0096
:102EE000416476616E6365643A20423C6D696E5F51
:102EF0007365676D656E745F74696D655F75733E4C
:102F000020533C6D696E5F66656564726174653EF1
:102F100020543C6D696E5F74726176656C5F6665A6
:102F20006564726174653E002054002052002020C8
:102F30004D323034205000416363656C65726174BA
:102F4000696F6E2028756E6974732F7332293A2069
:102F5000503C7072696E745F616363656C3E2052B1
:102F60003C726574726163745F616363656C3E207B
:102F7000543C74726176656C5F616363656C3E0A94
:102F800000204500205A0020590020204D323031C9
:102F90002058004D6178696D756D20416363656CE3
:102FA00065726174696F6E2028756E6974732F7312
:102FB00032293A0A00204500205A002059002020DA
:102FC0004D3230332058004D6178696D756D206643
:102FD00065656472617465732028756E6974732FFA
:102FE00073293A0A005374657073207065722075F6
:102FF0006E69743A0A0020204D3230302044300A85
:103000000020204D3230302044002044697361623A
:103010006C65640A0046696C616D656E7420736549
:103020007474696E67733A0020204D31343920433F
:10303000203B20556E69747320696E2043656C7364
:103040006975730A0020286D6D29002020473231F0
:10305000202020203B20556E69747320696E206DFE
:103060006D006F70656E00545249474745524544A4
:10307000003A20007A5F6D696E00795F6D696E00BD
:10308000785F6D696E005265706F7274696E67204B
:10309000656E6473746F70207374617475730A0065
:1030A00000002100240027002A0000002200250043
:1030B00028002B0000002000230026002900020227
:1030C00002020202020204040404040404040303CE
:1030D00003030303030301010101010101010102D3
:1030E00004081020408001020408102040800102E2
:1030F00004081020408080402010080402010000D5
:1031000000010200090A0000000004030807000093
:1031100000000000000000000000000000004D6FF3
:10312000766520302E316D6D004D6F766520316DE6
:103130006D004D6F76652031306D6D004D6F766599
:10314000204178697300486F74656E6420746F6FF6
:1031500020636F6C64004578747275646572004D0D
:103160006F7665205A004D6F76652059004D6F7659
:1031700065205800626564002C2073797374656D56
:103180002073746F70706564212048656174657286
:103190005F49443A20004265642048656174696E65
:1031A00067204661696C65640048656174696E6793
:1031B000206661696C65640042454420544845526C
:1031C0004D414C2052554E4157415900546865724B
:1031D0006D616C2052756E617761790045312048D0
:1031E000656174696E67204661696C656400486555
:1031F0006174696E67206661696C656400453120A1
:10320000544845524D414C2052554E41574159006A
:10321000546865726D616C2052756E6177617900DA
:10322000A0EC11241FBECFEFD0E4DEBFCDBF12E073
:10323000A0E0B1E0ECE8F1EF01E00BBF02C00790C5
:103240000D92AA37B107D9F720E1AAE7B2E001C091
:103250001D92AA3FB207E1F719E1C1E1D9E104C02B
:103260002197FE010E9449F6C031D107C9F70E949B
:103270006CE90C94C4F80C9400002F923F924F928A
:103280005F926F927F928F929F92AF92BF92CF92F6
:10329000DF92EF92FF920F931F93CF93DF93CDB7FF
:1032A000DEB7E8970FB6F894DEBF0FBECDBF88AF8C
:1032B0002091BF032DA721E02093BF038091730DC0
:1032C0008D3409F44EC3843511F40C94792C873471
:1032D00011F00C94942C8091710D9091720D8C31A1
:1032E000910509F414C18CF48430910509F4A7C048
:1032F0001CF4029738F131C38531910511F40C9417
:10330000962C4B9709F4DAC028C38A32910509F448
:1033100062C244F48D31910509F409C14E9709F454
:103320001AC11BC38B35910509F4D3C18C359105A6
:1033300009F4D3C18A35910509F00FC310928702B1
:103340000C94962C80917801882311F40C94962C7F
:103350009AE7892E91E0992E25E3E22E23E0F22EC2
:1033600004EF13E03CEAA32E33E0B32E43E8C42E6F
:1033700042E0D42E712CD4018D914D010E94DC309D
:10338000882319F10E945C30F6012081211104C0CC
:1033900020918702222341F0D8012D913D914D913A
:1033A0005C910E945BF60AC0B3E07B1639F0F50130
:1033B00020813181428153810E945AF6D7016D9359
:1033C0007D938D939C9313970AC0F801808191811E
:1033D000A281B381F70180839183A283B383739425
:1033E000F4E0EF0EF11C0C5F1F4F24E0A20EB11CA5
:1033F0003FEFC31AD30A44E07412BDCF40E050E05F
:10340000BA0186E40E94365720E030E0A9010E940C
:10341000DEF7181684F40E945C3020E030E040E7CC
:1034200052E40E94DEF660933E0170933F01809368
:103430004001909341010E945D4C0C94962C80E5D4
:103440000E94DC30882329F00E940E996B017C01D8
:1034500003C0C12CD12C760183E50E94DC30882387
:1034600061F00E945C3020E030E04AE754E40E94C2
:1034700019F20E9457F76B017C010E9436B08091CF
:10348000C303811105C060E085E991E00E9404A8B2
:103490000E940FE1C60ED71EE81EF91E0E940FE122
:1034A000DC01CB018C199D09AE09BF09B7FD02C033
:1034B0000C94962C80E00E947038F0CF0E94FE6938
:1034C00081110C94962C80E090E0A0E2B1E4898315
:1034D0009A83AB83BC8380E090E0A1E6B3E48D8364
:1034E0009E83AF83B88780E090E0A0EAB1E489874B
:1034F0009A87AB87BC8760E070E080E50E94BB984C
:10350000BE016F5F7F4F0E94BEA60C94962C8091E7
:10351000BC038770873011F00C94AC2C60E08FE412
:103520000E94779981110C94962C0C94AC2C0E94DB
:10353000FE6981110C94962C80910404882311F467
:103540000C947C2D60E08FE40E94779981110C949B
:10355000962C0C947C2D20E030E044E352E4609102
:10356000F4037091F5038091F6039091F7030E94A4
:103570005AF6AB01BC0188E50E9436576E8B7F8BF3
:10358000888F998F20E030E040EE50E46091F8039E
:103590007091F9038091FA039091FB030E945AF60F
:1035A000AB01BC0189E50E9436579B01AC016983E0
:1035B0007A838B839C836E897F89888D998D0E9405
:1035C000C7D6882311F40C94962C80E00E94B23365
:1035D0000E94B24F61E085E40E947799182F21E0A4
:1035E000482FBE016F5F7F4FCE0146960E94596AF9
:1035F0006B017C019B01AC010E945CF881115FC0F2
:103600008E889F88A88CB98C20E030E0A901C50184
:10361000B4010E94B3F187FF05C027E137EB41E514
:1036200058EB04C027E137EB41E558E3C501B4018D
:103630000E945BF6AB01BC0185EC91E00E94AD3CC1
:1036400089809A80AB80BC8020E030E0A901C50170
:10365000B4010E94B3F187FF05C027E137EB41E5D4
:1036600058EB04C027E137EB41E558E3C501B4014D
:103670000E945BF6AB01BC0180EC91E00E94AD3C86
:1036800020E030E0A901C701B6010E94B3F187FF35
:1036900005C027E137EB41E558EB04C027E137EBE4
:1036A00041E558E3C701B6010E945BF6AB01BC01DE
:1036B0008BEB91E00E94AD3C8AE00E946C370E9447
:1036C000994F113011F40E9438AD0E948C520C9425
:1036D000962C209387020C94962CFAE72F2EF1E07B
:1036E0003F2EA9E2EA2EA3E0FA2E84EF93E09BA3FB
:1036F0008AA3BCEACB2EB3E0DB2E00E010E0D101C0
:103700008D911D010E94DC30882309F44BC00E947A
:103710005C302B013C01133049F0F60120813181EE
:10372000428153810E945AF62B013C01AAA1BBA100
:103730002D913D914D915C91C301B2010E945AF6C9
:103740004B015C012DEB37E346E855EB0E94DEF7B9
:1037500087FD0AC02DEB37E346E855E3C501B40108
:103760000E94B3F11816F4F4133051F4409200049F
:1037700050920104609202047092030401E012C0AE
:10378000A5019401F70160817181828193810E947A
:103790005BF6D7016D937D938D939C931397812F47
:1037A0000E943D4C1F5FB4E0EB0EF11CEAA1FBA1AF
:1037B0003496FBA3EAA3F4E0CF0ED11C143009F039
:1037C0009ECF002321F080E094E00E9447B00E9449
:1037D0008C520C94962C80917801882311F40C94CF
:1037E000962C89E40E94DC30082F882321F00E9467
:1037F0008C99E82E01C0E12C8AE40E94DC30182F5D
:10380000882321F00E948C99F82E01C0F12C00230E
:1038100019F024E02E1528F0112349F034E03F156B
:1038200030F48DEC91E00E9473370C94962C80E17B
:10383000E4EFF3E0A5E3B3E001900D928A95E1F7A0
:103840000023F1F02091670E3091680E4E2D420357
:10385000B001439F700D1124809171039091720308
:10386000680F791F072E000C880B990B0E94BAF184
:103870006093350370933603809337039093380336
:103880001123F1F02091690E30916A0E5F2D5203E1
:10389000B001539F700D11248091730390917403B4
:1038A000680F791F072E000C880B990B0E94BAF144
:1038B0006093390370933A0380933B0390933C03E6
:1038C00060E080E50E947799882381F10023B1F0C0
:1038D00020E030E044E352E4609135037091360318
:1038E00080913703909138030E945BF66093350313
:1038F0007093360380933703909338031123B1F00C
:1039000020E030E040EE50E46091390370913A03DA
:1039100080913B0390913C030E945BF660933903D6
:1039200070933A0380933B0390933C0340E050E054
:10393000BA0186E40E9436576B017C0120E030E03A
:10394000A9010E94DEF718160CF075CD20E030E0DA
:1039500040E752E4C701B60164CD0E946A680C9446
:10396000962C8091710D9091720D8B39910509F40F
:10397000A1C40CF013C18936910509F487C40CF079
:103980005CC08C34910509F439C39CF582319105F2
:1039900009F403C5BCF497FF02C00C94762C823066
:1039A00091050CF4D3C1419711F00C94762C60E092
:1039B0008FEF91E00E9404A85E985E9815985E983B
:1039C0000C94962C8A32910509F4EDC22CF44F9791
:1039D00009F43BC20C94762C8934910509F406C392
:1039E0008B34910511F00C94762C0E94D7A10C9485
:1039F000962C8335910509F4CCC47CF4813591056E
:103A000009F4AEC40CF0C1C48D34910511F00C94CE
:103A1000762C0E9410A20C94962C8535910509F401
:103A2000F1C40CF4BAC48C35910509F406C5883686
:103A3000910509F4E7C20C94762C8237910509F4BC
:103A40009EC50CF58D36910509F400C364F48B36E0
:103A5000910509F478C40CF455C41092BE03109279
:103A60004E010C94962C8F36910509F45FC30CF42B
:103A70004AC38037910509F4A4C38137910509F43D
:103A8000A8C30C94762C8737910509F4CFC50CF0A8
:103A900075C08537910509F478C50CF08DC583375D
:103AA000910511F00C94762C80EE93E00E94733710
:103AB00060E080ED93E00E94B2D860E08BEB93E091
:103AC0000E94B2D861E084EB93E00E94B2D861E03A
:103AD00089EA93E00E94B2D861E089E993E00E940C
:103AE000B2D860E080E993E00E94B2D861E086E855
:103AF00093E00E94B2D861E08CE793E00E94B2D8D4
:103B000061E084E793E00E94B2D861E086E693E04A
:103B10000E94B2D861E088E593E00E94B2D860E0EC
:103B200089E493E00E94B2D860E08BE393E00E94C6
:103B3000B2D860E085E293E00E94B2D860E084E110
:103B400093E00E94B2D860E085E093E00E94B2D892
:103B500060E080EF92E00E94B2D861E08DED92E0EB
:103B60000E94B2D860E080ED92E00E94B2D860E09E
:103B70008CEB92E00E94B2D80C94962C8937910578
:103B800009F461C50CF456C58C38910509F44BC392
:103B90008139910509F45FC50C94762C8139A1E037
:103BA0009A0711F40C9443270CF057C08C3D9105F3
:103BB00009F46BC71CF58B3C910509F423C674F41A
:103BC000883C910509F4A5C5893C910509F4F1C526
:103BD0008E3B910511F00C94762C43C38D3C9105DE
:103BE00009F467C60CF430C68E3C910509F475C61D
:103BF000833D910509F493C60C94762C8D32E1E057
:103C00009E0711F40C94092684F4823E910509F470
:103C10009FC78C3221E0920711F40C94F4258D3D5E
:103C2000910511F00C94762C3DC78F3231E093074B
:103C300011F40C94402714F40C94FC26803351E0CA
:103C4000950711F40C9489268039914011F00C9459
:103C5000762C0E9436B00C94962C873FB1E09B07DF
:103C600011F40C94BF29ECF5853AF1E09F0711F4AB
:103C70000C94AB28CCF48A3931E0930709F4A5C23F
:103C8000843A41E0940711F40C9449278239914019
:103C900011F00C94762C80E00E9480AD0E9438AD2B
:103CA0000E948C520C94962C843FA1E09A0711F448
:103CB0000C94B9293CF48C3A914011F40C941329DA
:103CC0000C94762C853FF1E09F0711F40C94BC29ED
:103CD000863F914011F00C94762C0E940ED90C94E2
:103CE000962C8D3B32E0930711F40C94652A9CF4DA
:103CF000883552E0950711F40C94142A8B35A2E014
:103D00009A0711F40C94172A883F914011F00C94F3
:103D1000762C0C94C6298335E3E09E0711F40C94AD
:103D2000D7293CF48E3B924011F40C946E2B0C94EA
:103D3000762C843833E0930711F40C942C2C873EB6
:103D4000934011F40C94682C0C94762CA0906F0D79
:103D5000B090700D80E50E94DC30882359F00E94FD
:103D60000E996B017C0111E0672B682B692B31F4F4
:103D700010E004C010E0C12CD12C760183E50E9434
:103D8000DC30882311F40C947F2D0E945C3020E0FD
:103D900030E04AE754E40E9419F20E9457F76B01A1
:103DA0007C0111110BC0672B682B692B39F4A1140E
:103DB000B10421F0D5018C91811102C010E001C045
:103DC00011E00E9436B0112341F08091D903811196
:103DD00009C0C5010E94E2A705C060E08CEE91E039
:103DE0000E9404A81091BF0383E08093BF0381E089
:103DF0008093BE03C114D104E104F104B1F00E9428
:103E00000FE1C60ED71EE81EF91E0E940FE1DC016D
:103E1000CB018C199D09AE09BF09B7FF0EC0809177
:103E2000BE0381110C94842D08C08091BE038823A9
:103E300021F080E00E947038F8CF0E943EA81092D6
:103E4000BE031093BF030C94962C0E9488A17B01A3
:103E50008C0120E831E541E050E00E94BAF5C9014B
:103E60006DE671E00E9402F64B015C01C801B701EA
:103E700020E13EE040E050E00E94BAF5CA01B901FD
:103E800028E130E040E050E00E94BAF5762E672E3F
:103E9000C62ED72EECE32E2E312C412C512CC801EE
:103EA000B701A20191010E94BAF5F62EE72ECA01D0
:103EB000B901A20191010E94BAF5CB018E010F5FF9
:103EC0001F4F8114910499F0EF92FF927F936F93AB
:103ED0006F927F92BF92AF929F928F9280E392E017
:103EE0009F938F931F930F930E944BF113C0A114C4
:103EF000B104B1F0EF92FF927F936F936F927F9234
:103F0000BF92AF9280E292E09F938F931F930F93A3
:103F10000E944BF10FB6F894DEBF0FBECDBF30C08C
:103F2000CD2879F0EF92FF927F936F936F927F92FB
:103F300084E192E09F938F931F930F930E944BF124
:103F4000E9CF892B69F0EF92FF927F936F938CE01A
:103F500092E09F938F931F930F930E944BF1DACFC0
:103F6000EF92FF9288E092E09F938F931F930F93BD
:103F70000E944BF10F900F900F900F900F900F90A9
:103F80008091D903811103C0C8010E94E2A70E9459
:103F90009937B80184E492E00E9482378AE00E9457
:103FA0006C370C94962C83E50E94DC30882311F446
:103FB0000C94962C0E941E99F82E6FEF7FEF80E5EF
:103FC0000E9490998C0197FF02C00C94962CE82EC9
:103FD00060E089E40E94779981110C94892D802FEB
:103FE0000E9410E88111D1C50C94892D80E50E94B2
:103FF000933081110C949C2D0C94962C0E94FBA163
:104000000C94962C8091BC0A83FF02C00C94962CD1
:104010000E94329987FF02C00C94962C83E50E947F
:10402000DC30882379F00E945C300E9450F78B01CD
:10403000CB010E9429970635110524F40E9410A295
:104040000E943EA80E943CE90C94962C8091BC0AE8
:1040500083FF02C00C94962C0E943299F82E87FFA1
:1040600002C00C94962C83E50E94DC30082F81114D
:1040700006C082E50E94DC30182F8823C1F10E941F
:104080005C300E9450F7CB010E9429970E945C305F
:1040900020E030E04AEA52E40E94B3F1181614F42A
:1040A0000C94A72D0E9410A20E943EA86091470484
:1040B00070914804072E000C880B990B0E94BAF1EE
:1040C0004B015C01409043045090440460904504CF
:1040D00070904604A30192010E94DEF7181614F4B2
:1040E0000C94BA2D002311F40C94AB2D11E00E9416
:1040F0003CE9112311F40C94962C602F8F2D0E9413
:10410000CA920C94962C8EE40E94DC30882311F421
:104110000C94962C0E944C306093F60D7093F70D22
:104120008093F80D9093F90D0C94962C83E50E94E2
:104130009330882331F060E083E50E945B9980939F
:10414000BC0A0E94993789E792E00E9473378091F8
:10415000BC0A882369F17FE6E72E72E0F72E00E0C3
:1041600010E020E08091BC0A90E0A0E0B0E0002EDA
:1041700004C0B695A795979587950A94D2F780FFC6
:104180000EC0DD24D394D20E222319F08CE20E94BB
:104190006C37F701859194910E9473372D2D0F5F35
:1041A0001F4F92E0E90EF11C05301105D9F604C04D
:1041B0008BE692E00E9473378AE00E946C370C9481
:1041C000962C80E090E00E94C1370E94FE360C944D
:1041D000962C83E50E94DC30882381F00E941E9992
:1041E000282F30E02D33310524F4809300010C9406
:1041F000962C8CE3809300010C94962C0E949937A6
:10420000C0900001D12CE12CF12C80E892E00E94BA
:1042100073374AE0C701B6010E940A3B8AE00E9458
:104220006C370C94962C8091BC0A83FF02C00C94CE
:10423000962C83E50E94DC30882311F40C94962C94
:104240000E945C300E9450F76337710514F063E7F9
:1042500070E07093E70E6093E60E0E9445900C9418
:10426000962C8091BC0A83FF02C00C94962C83E5A7
:104270000E94DC308EA781110C94BD2D82E50E9436
:10428000DC3081110C94BD2D0C94962C0E94329937
:10429000182F87FD0AC089EA92E00E947337812FA8
:1042A0000E9458928AE00E946C372DA52093BF038C
:1042B0000C94333083E50E94DC30882311F40C9495
:1042C000962C0E941E99182F90E0CD970CF01CE3BD
:1042D00010937E020E940FE16B017C01212F30E0E0
:1042E000A8EEB3E00E94E7F5C60ED71EE81EF91E41
:1042F000C0927A02D0927B02E0927C02F0927D0220
:104300000C94962C60E080E50E945B9981110C94DE
:10431000962C81E40E949330882321F060912D0433
:1043200070E002C06FEF70E083E50E94BB988F3FA2
:10433000910519F010F08FEF90E080932D04809399
:10434000DD0E0C94962C60E080E50E945B99811153
:104350000C94962C10922D041092DD0E0C94962C39
:104360000E943A970E9410A20E94E1B10E94CE984A
:1043700068EE73E080E090E00E94DA3660E08CEA5C
:1043800092E00E9404A80C94962C109286020C9441
:10439000962C209386020C94962C83E50E94DC30A8
:1043A0008823A1F00E945C3020E030E04AE754E42A
:1043B0000E9419F20E9457F7609301017093020165
:1043C00080930301909304010C94962C88E50E943D
:1043D000933081110C94462F89E50E94933081110E
:1043E0000C94462F8AE50E94933081110C94462F3D
:1043F00085E40E94933081110C94462F0E94E1B114
:104400000C94962C83E50E949330882311F40C942D
:10441000962C0E945C3020E030E04AE754E40E9491
:1044200019F20E9457F760937F0270938002809385
:104430008102909382020C94962C0E94329987FFFD
:1044400002C00C94962C90916B0D94FD04C0909139
:104450006D0D97FF0AC03AE7C32E31E0D32E4DEB26
:10446000E42E4AE0F42E10E00AC090916E0D937095
:1044700091F7682F81E00E94D3980C94962CD60176
:104480008D916D010E94DC30882309F46DC01330DA
:1044900009F063C00E945C304B015C0120E030E019
:1044A00040EA51E40E94B3F187FF4EC0A501940198
:1044B0006091DD0A7091DE0A8091DF0A9091E00A36
:1044C0000E94DEF62B013C019B01AC0160912504AA
:1044D0007091260480912704909128040E9419F27B
:1044E00060932504709326048093270490932804F6
:1044F000A30192016091ED0A7091EE0A8091EF0A9A
:104500009091F00A0E9419F26093ED0A7093EE0AFE
:104510008093EF0A9093F00A609111047091120455
:1045200080911304909114040E94B8F1A3019201A8
:104530000E9419F20E9457F76093110470931204BD
:1045400080931304909314048092DD0A9092DE0A03
:10455000A092DF0AB092E00A07C00E945C30F70127
:10456000648B758B868B978B1F5FF4E0EF0EF11CCD
:10457000143009F084CF0E9412B00C94962C0E9443
:1045800036B00E948C520C94962C80916F0D9091B5
:10459000700D009769F0DC012C91222349F02091E5
:1045A000D90321110C94962C0E94E2A70C94962C0E
:1045B0000E943EA80C94962C00916F0D1091700DE6
:1045C00083E0F12C40E08150E1F0F8019081292F47
:1045D0002B7F2134C1F721812133A9F7913421F0B8
:1045E000953421F441E002C0FF24F39498012E5F3A
:1045F0003F4F89012F5F3F4FD8019C919032C9F303
:10460000E2CF41110E949937FF2021F087EA94E020
:104610000E947337F80181918F01882319F00E945D
:104620006C37F8CF0E94BE3C0C94962C0E94E4D8C4
:104630000C94962C81E08093B60B8093B50B0E946E
:10464000FFD80C94962C1092B60B1092B50B0E94CA
:10465000FFD80C94962C60E070E083E50E9490995E
:104660008C0111270230110544F00E9495378BEA26
:1046700094E00E9473370C94962C88E40E94DC30FE
:104680008823A9F00E948C998A3A91053CF08530E4
:10469000F1E09F072CF084E091E002C08AEA90E00C
:1046A000F801EE0FFF1FEE57FC4F9183808386E4E5
:1046B0000E94DC30882381F00E948C9997FD07C00E
:1046C0008F3F910529F024F08FEF90E001C080E04A
:1046D000F801ED58F14F808382E40E94DC3088239A
:1046E00011F40C94962C0E948C998530910534F02D
:1046F000843791052CF083E790E002C085E090E0DC
:10470000F801EE0FFF1FEB58F14F918380830C945B
:10471000962C0E943299182F87FF02C00C94962C79
:1047200084E40E949330882309F43FC00E945C30E7
:104730006B017C0101E020E030E0A9010E94B3F1AF
:10474000811101C000E000936D0B20E030E0A90171
:10475000C701B6010E94B3F1882339F10E945C3091
:1047600024E01202F0011124EE58F44F60837183AB
:104770008283938320E030E0A9016091720B7091F5
:10478000730B8091740B9091750B0E94B3F18111A2
:104790000CC080E090E0A0EEBFE38093720B90939A
:1047A000730BA093740BB093750B0E9427AB0C9402
:1047B000962C0E94329987FF02C00C94962CAAE78F
:1047C000EA2EA1E0FA2E0DEB1AE0BDECCB2EBAE0FA
:1047D000DB2ED7018D917D010E949330882349F013
:1047E0000E945C300E9457F7F801608371838283D6
:1047F00093830C5F1F4FC016D10659F70E94CBAFB1
:104800000C94962C0E94329987FF02C00C94962C2F
:10481000FAE7EF2EF1E0FF2E0DEB1AE0D7018D91B4
:104820007D010E949330882339F00E945C30F801AA
:1048300064A375A386A397A30C5F1F4FFAE00D3CFA
:104840001F0761F70C94962C80916C0D87FF02C0B6
:104850000C946B2F80916D0D8E7011F00C946B2F5A
:104860004091F10A5091F20A6091F30A7091F40AB2
:1048700083ED94E00E94AD3C4091F50A5091F60A18
:104880006091F70A7091F80A80ED94E00E94AD3CC7
:104890004091F90A5091FA0A6091FB0A7091FC0A62
:1048A0008DEC94E00E94AD3C8AE00E946C370C9441
:1048B000962C80916B0D827111F00C94B12F809128
:1048C0006D0D8C7811F00C94B12F80916E0D83706A
:1048D00011F00C94B12F0C94962C7AE7C72E71E04E
:1048E000D72EE9EBEE2EEBE0FE2E10E0D6018D91F7
:1048F0006D010E949330882351F00E945C30F701D3
:104900006083718382839383812F0E943D4C1F5F5C
:10491000F4E0EF0EF11C133049F70C94E71B0E94F2
:10492000993785E395E00E94733783E50E949330C1
:10493000882321F00E94679980933301809133018D
:10494000882319F089EB95E002C085EB95E00E9481
:1049500073378DE295E00E9473372091AC0330915C
:10496000AD034091AE035091AF0360911B01709174
:104970001C0180911D0190911E010E945BF6AB010C
:10498000BC018BE295E00E94AD3C2091B0033091D8
:10499000B1034091B2035091B30360912301709130
:1049A000240180912501909126010E945BF6AB01C4
:1049B000BC0188E295E00E94AD3C2091B4033091A7
:1049C000B5034091B6035091B70360912B017091EC
:1049D0002C0180912D0190912E010E945BF6AB017C
:1049E000BC0185E295E00E94AD3C8DE195E00E941E
:1049F00073372091AC033091AD034091AE035091D9
:104A0000AF0360911F01709120018091210190916D
:104A100022010E945BF6AB01BC018BE195E00E9494
:104A2000AD3C2091B0033091B1034091B20350915D
:104A3000B303609127017091280180912901909121
:104A40002A010E945BF6AB01BC0188E195E00E945F
:104A5000AD3C2091B4033091B5034091B603509121
:104A6000B70360912F0170913001809131019091D5
:104A700032010E945BF6AB01BC0185E195E00E942A
:104A8000AD3C8AE00E946C3751C783E50E94DC3060
:104A9000882309F44BC70E948C9990933501809329
:104AA000340144C70E943299F82E87FD3FC783E541
:104AB0000E94DC300F2D0F2C000C110B882369F1A4
:104AC0000E948C99F801EE0FFF1FEF5AFE4F918361
:104AD0008083000F111F000F111F98012D5B3E4FA7
:104AE0007901BC01990F880B990B0E94BAF12AE059
:104AF00037ED43E25CE30E9419F2F801E259F44F0A
:104B000020813181428153810E9419F2D7016D9336
:104B10007D938D939C93139709C70E94993785E4E1
:104B20000E946C3780E38F0D0E946C37F801EE0F06
:104B3000FF1FEF5AFE4F6081718185E495E00E946E
:104B4000A03B85E20E946C378AE00E946C37EEC67B
:104B500080E50E949330882309F4E8C660E070E0A5
:104B600080E50E949099F82E6FEF7FEF83E50E9419
:104B700090998C010196039708F0D8C6F7FCD6C629
:104B80008F2D0E9410E8882339F00E9495378DE41C
:104B900095E00E947337CAC60E9436B060E08F2D40
:104BA0000E9427E00F3FBFEF1B0731F001301105D6
:104BB00071F000E010E00DC08F2D0E94CFDF31E0DA
:104BC00020E0892B09F030E0032F122F02C001E012
:104BD00010E08F2D0E94CFDF8017910709F4A6C641
:104BE00080E00E947038F5CF64E071E083E50E94B8
:104BF000BB988C0168EE73E080E50E94BB98893811
:104C0000E3E19E0710F088E893E1B8010E94B5A7A0
:104C10008DC660E085E40E945B99811173C080E5D8
:104C20000E949330882351F00E945C3060934A04C4
:104C300070934B0480934C0490934D0489E40E943C
:104C40009330882381F00E945C302CEA35EC47E2F7
:104C50005EE30E9419F260934E0470934F048093B8
:104C600050049093510484E40E949330882381F08F
:104C70000E945C302CEA35EC47E25EE30E94DEF6EF
:104C8000609352047093530480935404909355049A
:104C90000E94993740914A0450914B0460914C0412
:104CA00070914D0486E795E00E94AD3C2CEA35EC0E
:104CB00047E25EE360914E0470914F04809150048E
:104CC000909151040E94DEF6AB01BC0182E795E0B1
:104CD0000E94AD3C2CEA35EC47E25EE36091520461
:104CE0007091530480915404909155040E9419F2DC
:104CF000AB01BC018EE695E00E94AD3C8AE00E94CB
:104D00006C3714C60E9495378CE595E00E94733786
:104D10000DC680E50E949330882351F00E945C30DC
:104D20006093E90E7093EA0E8093EB0E9093EC0E75
:104D300089E40E949330882381F00E945C302CEA41
:104D400035EC47E25EE30E9419F26093ED0E70933A
:104D5000EE0E8093EF0E9093F00E84E40E94933059
:104D6000882381F00E945C302CEA35EC47E25EE358
:104D70000E94DEF66093F10E7093F20E8093F30EB4
:104D80009093F40E0E9499374091E90E5091EA0EEB
:104D90006091EB0E7091EC0E82E895E00E94AD3CC4
:104DA0002CEA35EC47E25EE36091ED0E7091EE0E79
:104DB0008091EF0E9091F00E0E94DEF6AB01BC01E7
:104DC0008EE795E00E94AD3C2CEA35EC47E25EE3CD
:104DD0006091F10E7091F20E8091F30E9091F40EAD
:104DE0000E9419F2AB01BC018AE795E00E94AD3C3C
:104DF0008AE00E946C379AC583E50E949330182F91
:104E0000882371F00E945C300E9450F77093480133
:104E10006093470121E0672B09F020E020933E04D6
:104E200080E50E949330882359F02091470130910A
:104E30004801232B11F00E94679980933E0476C5A8
:104E4000111174C50E94993782EA95E00E94733768
:104E500080913E04882319F08AE895E002C086E834
:104E600095E00E947337609147017091480181E994
:104E700095E00E94A03B8DE895E00E94733756C5EF
:104E80000E944D5753C581E00E9480AD0E948C5214
:104E90004DC583E50E949330882349F00E946799AD
:104EA000182F811106C080E00E94B23302C0109119
:104EB00004048091F4039091F503A091F603B0915E
:104EC000F70389839A83AB83BC838091F803909125
:104ED000F903A091FA03B091FB038D839E83AF8306
:104EE000B8878091FC039091FD03A091FE03B091DF
:104EF000FF0389879A87AB87BC8786E50E9493303A
:104F0000682E8091670E9091680E892B09F4B0C0CD
:104F100083E40E949330882309F4B5C00E945C307A
:104F20001B012C01912CA12C28ECB22E32ECC32EAB
:104F3000712C812CF8ECF8A722E429A735E03AA3DC
:104F40004AA141504AA34F3F09F43EC055E05CA33B
:104F500095E0949FC00111249BA78AA79CA1915022
:104F60009CA39F3F69F3EAA5FBA5E90FF11DEE0F96
:104F7000FF1FEE0FFF1FE758F14FD080E180F28056
:104F80000381272D382D48A559A56D2D7E2D8F2DF8
:104F9000902F0E94B3F187FF04C07D2C8E2CF8A6C1
:104FA00009A7292D3A2D4B2D5C2D6D2D7E2D8F2D92
:104FB000902F0E94DEF718161CF0D92C75010C2DCD
:104FC0009D2C5701C02ECACF292D3A2D4B2D5C2D7B
:104FD000672D782D88A599A50E945BF620E030E02A
:104FE00040E05FE30E9419F2A20191010E945BF68A
:104FF0001B012C012DEB37E346E855EB0E94DEF751
:1050000087FD0AC02DEB37E346E855E3C201B10145
:105010000E94B3F11816BCF580E00E94B23305E09F
:10502000B02E85E0A82EBA94BFEFBB1661F105E063
:10503000AB9C600111240150B0F37601E00EF11C2D
:10504000C701880F991F880F991FFC01E758F14F7E
:105050007F01A201910160817181828193810E940F
:105060005AF6D7016D937D938D939C931397E3CF5D
:10507000111102C0662089F00E9499378BEF95E0EC
:105080000E94733717C0662041F08091670E90919F
:10509000680E892B11F00E94223C8AE50E94933011
:1050A000882329F00E945C3040E00E941534812F53
:1050B0000E94B233112351F080910404811106C083
:1050C0000E9495378CED95E00E9473370E949937C6
:1050D0008EEC95E00E94733780910404882319F0C8
:1050E00089EB95E002C085EB95E00E9473378AE07A
:1050F0000E946C370E94993781EC95E00E947337CB
:10510000C0904D03D0904E03E0904F03F0905003B9
:1051100020E030E0A901C701B6010E94DEF71816B1
:1051200044F442E0C701B6010E94AD3B0E94BE3C80
:1051300004C08CEB95E00E9473374CE050E064EFC4
:1051400073E0CE0101960E946DF8892B09F4EEC33D
:105150000E948C52EBC36FEF7FEF89E40E9490991D
:10516000182F6FEF7FEF8AE40E949099082F8AE54D
:105170000E949330F82E811105C081E50E94933082
:10518000D82E01C0D12C17FD06C007FD04C0F110B8
:1051900009C0D11007C00E94953789E296E00E94AD
:1051A0007337C4C3153010F4053038F00E949537BA
:1051B0008AE096E00E947337B9C3E12E110FFF0811
:1051C000002E000C110B0E945C30DD2099F025E0D0
:1051D0002E9DF0012F9DF00D1124E00FF11FEE0F19
:1051E000FF1FEE0FFF1FE758F14F208131814281F1
:1051F000538103C020E030E0A901A5E0AE9DF0019D
:10520000AF9DF00D11240E0F1F1F000F111F000F77
:10521000111F0758114F0E945BF6F80160837183DC
:105220008283938383C30E94FE6981117FC30DE84B
:1052300010E124EF33E03BA32AA3AE014F5F5F4FA1
:105240005A01E2EE8E2EE0E19E2E1A01F8016591E0
:10525000759185919491AAA1BBA1CD90DD90ED901F
:10526000FD90BBA3AAA3A70196010E945AF62B01A9
:105270003C01F101608371838283938320E030E0FD
:1052800040EA51EC0E94DEF787FD0AC020E030E0E2
:1052900040EA51E4C301B2010E94B3F118162CF4A4
:1052A000F401849118160CF4D3C6D101CD90DD9091
:1052B000ED90FD901D0120E030E040EA51ECC70187
:1052C000B6010E94DEF787FD0AC020E030E040EA28
:1052D00051E4C701B6010E94B3F11816A4F40E946C
:1052E000953787E696E00E94733761E089E596E09E
:1052F0000E9404A80E9423BF68E270E088EC90E05E
:105300000E94B5A713C30C5F1F4FBFEF8B1A9B0AF8
:10531000E9E9F0E1E017F10709F098CF79EBE72E22
:105320007BE0F72E10E0F50181919191A191B1916F
:105330005F01F70181939193A193B1937F01812F35
:105340000E943D4C1F5F133071F70E948C5260E049
:1053500089E496E00E9404A863E972E084E690E0A4
:105360000E94B5A76AEB72E084E690E00E94B5A7C0
:10537000DDC20E943763DAC20E9464DAD7C261E0FC
:1053800083E50E9477990E9472DAD0C281E080930F
:10539000620E0E94DD5C1092620E882309F4C6C280
:1053A0000E94993785E896E00E947337BFC28AE56C
:1053B0000E94DC30882331F10E945C306B017C015B
:1053C00020E030E040EA51EC0E94DEF787FD13C098
:1053D00020E030E040EA51E4C701B6010E94B3F199
:1053E00018164CF0C092B803D092B903E092BA03F9
:1053F000F092BB039BC20E94953780E996E00E9421
:10540000733794C20E9499374091B8035091B90301
:105410006091BA037091BB038DEA96E00E94AD3CA7
:105420008AE00E946C3782C20E949F997FC20E94CC
:105430003299082F87FD7AC285E50E949330882330
:10544000F9F0E02E002E000CFF080E945C304B01AA
:105450005C0120E030E0A9010E94DEF787FF04C074
:10546000B7FAB094B7F8B094F70163E0EE0FFF1FFE
:105470006A95E1F7E559F14F80829182A282B38269
:105480008CE40E949330882309F450C2002E000C53
:10549000110B0E945C306B017C0120E030E0A9011F
:1054A0000E94DEF787FF04C0F7FAF094F7F8F09453
:1054B00053E0000F111F5A95E1F7F801E559F14F3C
:1054C000C482D582E682F78231C20E943299182FB7
:1054D00087FD2CC28AE50E94DC30882349F040E039
:1054E00050E0BA018AE50E9436574B015C0106C0C4
:1054F000812C912C40EAA42E41E4B42E412F62E08D
:1055000085E00E9496D420E030E0A901C501B401F5
:105510000E94DEF718167CF580E090E0A0EAB0E487
:1055200089839A83AB83BC832091FC033091FD0374
:105530004091FE035091FF03C501B4010E945BF648
:105540006B017C0120E030E04AE753E40E94B3F1B4
:1055500087FD06C0C12CD12C3AE7E32E33E4F32EAD
:10556000CE8ADF8AE88EF98EBE016F5F7F4FCE0153
:1055700046960E94B4501E8E1F8E18A219A28CE46B
:105580000E949330882329F00E945C306B017C01DB
:1055900008C0C0906F0ED090700EE090710EF09029
:1055A000720E20E030E0A901C701B6010E94DEF7CB
:1055B00087FF04C0F7FAF094F7F8F094CA8EDB8EF8
:1055C000EC8EFD8E60914704709148046430710543
:1055D00054F1072E000C880B990B0E94BAF19B0125
:1055E000AC01609143047091440480914504909112
:1055F00046040E945AF66B017C0120E030E0A901CC
:105600000E94DEF787FF04C0F7FAF094F7F8F094F1
:1056100001E020E030E040E450E4C701B6010E9420
:10562000DEF718160CF000E080E090E0A0EAB1E4AC
:1056300089839A83AB83BC8382E00E949D3781116A
:1056400006C040E062E089E00E9496D40DC022E0EE
:10565000E22E23E0AE014F5F5F4FBE01665E7F4FDB
:10566000CE014E960E941E6920E030E0A901C501DE
:10567000B4010E94DEF718165CF580E090E0A0EA25
:10568000B0E489839A83AB83BC83A50194016091C4
:10569000FC037091FD038091FE039091FF030E9433
:1056A0005AF66B017C0120E030E0A9010E94DEF790
:1056B00018161CF0C12CD12C7601CE8ADF8AE88E18
:1056C000F98EBE016F5F7F4FCE0146960E94B450A7
:1056D00040E060E089E00E9496D428C10E9432999F
:1056E000182F87FD23C18AE50E94DC30882349F00A
:1056F00040E050E0BA018AE50E9436574B015C0158
:1057000006C0812C912C90EAA92E91E4B92E412F4C
:1057100063E083E00E9496D420E030E0A901C50157
:10572000B4010E94DEF718167CF580E090E0A0EA54
:10573000B0E489839A83AB83BC832091FC033091CE
:10574000FD034091FE035091FF03C501B4010E9487
:105750005BF66B017C0120E030E04AE753E40E94F5
:10576000B3F187FD06C0C12CD12C8AE7E82E83E473
:10577000F82ECE8ADF8AE88EF98EBE016F5F7F4FEA
:10578000CE0146960E94B45085E50E94933088234E
:1057900029F00E945C306B017C010AC028E01202F3
:1057A000F0011124E559F14FC080D180E280F380EF
:1057B00020E030E0A901C701B6010E94DEF787FFB3
:1057C00004C0F7FAF094F7F8F094F7FAF094F7F8C9
:1057D000F094C982DA82EB82FC8263E0CE0101960A
:1057E0000E94786820E030E0A901C501B4010E9460
:1057F000DEF718165CF580E090E0A0EAB0E489835B
:105800009A83AB83BC83A50194016091FC037091E2
:10581000FD038091FE039091FF030E945AF66B01F5
:105820007C0120E030E0A9010E94DEF718161CF090
:10583000C12CD12C7601CE8ADF8AE88EF98EBE018A
:105840006F5F7F4FCE0146960E94B45040E060E00B
:1058500089E00E9496D46AC08BE40E94DC308823E1
:1058600029F10E945C306B017C0120E030E0A9014D
:105870000E94DEF787FD15C020E030E040E251E4F1
:10588000C701B6010E94B3F118165CF00E9436B051
:10589000C0925604D0925704E0925804F0925904F2
:1058A00045C08EEB96E00E94733740C00E94993746
:1058B00040915604509157046091580470915904D6
:1058C0008DED96E00E94AD3C8AE00E946C372EC0C0
:1058D00081E0809378011092D90360E083E50E9413
:1058E0007799811123C00E94EAD420C00E946A687F
:1058F0001DC00091710D1091720D0023B9F00E942E
:10590000993784E50E946C37B8017727072E000C81
:10591000880B990B0E94843B80E20E946C3788EED2
:1059200096E00E94733702C00E946A6838AD311158
:105930000FC0E091470DF0E0E356F04F80818823DF
:1059400039F083E29CE20E9473378AE00E946C3750
:105950004DA54093BF0387C30E9436B080E00E94EC
:10596000B2330E94B24F81E08093B60B0E94FFD801
:1059700088E50E949330182F89E50E949330082F04
:105980008AE50E9493301013B5C0181711F0012F4B
:10599000B1C001E011E0FF24F39480E1E4EFF3E013
:1059A000A5E3B3E001900D928A95E1F782E50E94AC
:1059B000DC30882361F00E945C304B015C0120E008
:1059C00030E0A9010E94B3F1882361F106C0812C67
:1059D000912C80E2A82E81E4B82E111102C0002380
:1059E00059F180923D0390923E03A0923F03B09202
:1059F0004003A50194016091FC037091FD03809127
:105A0000FE039091FF030E94B3F187FF0BC0198240
:105A10001A821B821C82BE016F5F7F4F8DE393E071
:105A20000E94B450112319F080E00E9462510023BB
:105A300019F081E00E946251FF2009F44DC080916D
:105A4000AB038370833061F060E08DEA91E00E94E7
:105A500004A80E9499378EE991E00E9473373AC0FA
:105A60000E9460518091FC039091FD03A091FE0380
:105A7000B091FF0380933D0390933E03A0933F03B7
:105A8000B093400380E090E0A2E2B3E4809335035A
:105A900090933603A0933703B093380380E090E0EF
:105AA000A8EFB2E48093390390933A03A0933B03A9
:105AB000B0933C0319821A821B821C82AE014F5F95
:105AC0005F4F69E373E085E393E00E94925082E0C8
:105AD0000E9462510E9438AD0E9460518091B50BC6
