:100000000C94281B0C94521B0C94521B0C94521BE6
:100010000C94521B0C94521B0C94521B0C94521BAC
:100020000C94521B0C94521B0C94521B0C94521B9C
:100030000C94521B0C94ACB50C94521B0C94521B98
:100040000C94521B0C94A8880C9418E00C94521B2E
:100050000C94EAD70C94E0D70C94521B0C94521BCE
:100060000C94521B0C94521B0C94521B0C94521B5C
:100070000C94521B0C94521B0C94521B0C94521B4C
:100080000C94D1D20C94521B0C94521BE4C1BDC1F0
:10009000C0C1E7C1C3C1C6C1C9C1D5C1CCC1E2C1DC
:1000A000CFC1D2C156CE15CD4CCD92CE4CCD4CCD7C
:1000B0004CCD4CCD4CCD4CCD4CCD4CCD4CCD4CCD78
:1000C0004CCD4CCD4CCD4CCD4CCD4CCD4CCD4CCD68
:1000D0004CCD4CCD4CCD4CCD4CCD4CCD4CCD4CCD58
:1000E0008CCE4CCD4CCD4CCD4CCD4CCD4CCD4CCD07
:1000F0004CCD65CE4CCD4CCD4CCD4CCD4CCD4CCD1E
:100100004CCD4CCD4CCD4CCDA9CE49CDD6DCD9DC97
:10011000CCDCD0DCF0DCF0DCDDDCE1DCE7DCEBDCF3
:1001200087DF8CDF91DF9BDFC9DFC9DFA5DFADDFB4
:10013000B5DFBFDF4E414E494E495459494E46CD79
:10014000CCCC3D0AD7233C17B7D13877CC2B32958E
:1001500095E6241FB14F0A000020410000C842006C
:10016000401C4620BCBE4CCA1B0E5AAEC59D7443F3
:100170004F4D4D554E49434154494F4E00445259FD
:1001800052554E004552524F525300494E464F0071
:100190004543484F005265706F732E2E2E004F72EC
:1001A0006967696E65205859205072656D6965727E
:1001B0000A004F726967696E652058592050726550
:1001C0006D69657200205A3A200020593A20004299
:1001D000656420583A20004D65736820706F696E21
:1001E000742063616E6E6F74206265207265736F38
:1001F0006C7665640A00417474656E74652075746C
:10020000696C69732E004D6F746575727320626C32
:100210006F7175C3A973002569730025696D202569
:100220006973002569682025696D2025697300259B
:100230006964202569682025696D2025697300257A
:10024000697920256964202569682025696D202544
:100250006973005072696E742074696D653A20008C
:100260004520526566726F6964697373656D656E6A
:1002700074004520456E20636861756666652E2EA4
:100280002E006F66660090018B0184017D016F0175
:1002900044454255473A004D3131332053002057F1
:1002A0003A00526566726F69642E206475206C692D
:1002B000742E2E2E004C697420656E206368617563
:1002C0006666652E2E2E006F6B00334420507269D7
:1002D0006E746572204F46462E00204500205A005D
:1002E000205900204D39322058004348414D4245A5
:1002F000525F54454D5045524154555245004D4F63
:1003000054494F4E5F4D4F44455300544845524D5C
:10031000414C5F50524F54454354494F4E00415554
:10032000544F5245504F52545F53445F53544154BD
:1003300055530050524F4D50545F535550504F52EB
:100340005400454D455247454E43595F5041525325
:10035000455200434153455F4C494748545F425220
:10036000494748544E45535300544F47474C455F07
:100370004C494748545300534F4654574152455FE8
:10038000504F574552004255494C445F50455243E7
:10039000454E54004C4556454C494E475F444154E8
:1003A00041005A5F50524F4245004155544F4C4511
:1003B00056454C005052494E545F4A4F42005052ED
:1003C0004F4752455353004155544F5245504F5299
:1003D000545F54454D5000564F4C554D455452496D
:1003E0004300454550524F4D0042494E4152595FDE
:1003F00046494C455F5452414E5346455200534581
:100400005249414C5F584F4E5F584F46460046494F
:10041000524D574152455F4E414D453A4D61726CC8
:10042000696E204372656177736F6D65436F7265A6
:1004300020322E302E302D52433020534F55524310
:10044000455F434F44455F55524C3A68747470732E
:100450003A2F2F6769746875622E636F6D2F7472FF
:100460006F7563682F4D61726C696E2050524F54E6
:100470004F434F4C5F56455253494F4E3A312E3001
:10048000204D414348494E455F545950453A334405
:10049000205072696E746572204558545255444517
:1004A000525F434F554E543A3120555549443A63B3
:1004B000656465326132662D343161322D343734F2
:1004C000382D396231322D63353563363266333635
:1004D0003766660A002F2F20004D31343520533CFB
:1004E000696E6465783E206F7574206F6620726156
:1004F0006E67652028302D31290A002054002052D3
:1005000000416363656C65726174696F6E3A205077
:10051000005741524E494E4721204C6F77205A20B8
:100520004A65726B206D6179206C65616420746F1F
:1005300020756E77616E7465642070617573657384
:100540002E0A004F4646004F4E00205A0020590008
:10055000580020204D61783A2000205A0020590090
:10056000580020204D696E3A2000536F6674206554
:100570006E6473746F70733A200020466C6F773A24
:10058000200050726F7465637465642050696E0A50
:1005900000206F7574206F662072616E67650A00B7
:1005A000536572766F20003A200020536572766F93
:1005B0002000496E76616C69642065787472756498
:1005C00065720A0020643A0020693A0020703A00FF
:1005D00020643A0020693A0020703A006469730090
:1005E000656E0043290A0061626C656420286D69AC
:1005F0006E2074656D702000436F6C6420657874A4
:1006000072756465732061726520004D65736820A2
:10061000706F696E742063616E6E6F742062652006
:100620007265736F6C7665640A004D3432312069EF
:100630006E636F727265637420706172616D657450
:1006400065722075736167650A0044C3A963616CB4
:1006500061676573206170706C697175C3A97300FF
:100660004572723A20546F6F206661722100546F98
:100670006F206661722066726F6D207265666572AA
:10068000656E636520706F696E740A00454550524F
:100690004F4D204F4B0A003F5A206F7574206F66F4
:1006A0002072616E676520282D323020746F2032F1
:1006B00030290A0050726F6265205A204F666673B7
:1006C00065743A20003F4B2076616C7565206F752C
:1006D00074206F662072616E67652028302D31307E
:1006E000292E0A00416476616E6365204B3D004906
:1006F0006E76616C69642065787472756465720ADF
:100700000024F4D43050C38E20C2A24017828B70D4
:1007100011127A910D816CD90AA861E108C7586657
:1007200007615143061E4B5D05C145A7041A4111DF
:1007300004093D9803713931034036DB026533917A
:1007400002D4305402802E1D02632CEE01752AC59E
:1007500001B028A001102781018F2564012B244BB3
:1007600001E0223401AC211F018D200D01801FFC0E
:1007700000841EED00971DDF00B81CD200E61BC6EA
:1007800000201BBC00641AB200B219A8000A19A00C
:10079000006A189900D117910040178B00B5168494
:1007A0000031167E00B31579003A157300C7146F37
:1007B0000058146A00EE1366008813630025135E68
:1007C00000C7125B006C12570015125400C1115182
:1007D0000070114F0021114B00D61049008D1047B9
:1007E000004610440002104200C00F4000800F3E3F
:1007F00000420F3C00060F3B00CB0E3800930E3733
:10080000005C0E3500270E3400F30D3200C10D31AF
:1008100000900D3000600D2E00320D2D00050D2CC6
:1008200000D90C2B00AE0C2900850C29005C0C278C
:1008300000350C27000E0C2600E80B2400C40B2406
:1008400000A00B23007D0B23005A0B2100390B2144
:1008500000180B2000F80A1F00D90A1E00BB0A1E50
:10086000009D0A1D00800A1D00630A1C00470A1B28
:10087000002C0A1B00110A1A00F7091A00DD0919D9
:1008800000C4091900AB091900920917007B091867
:1008900000630917004C09160036091600200916D6
:1008A000000A091500F5081500E0081400CC08142A
:1008B00000B8081400A4081400900813007D081262
:1008C000006B081300580812004608120034081183
:1008D00000230811001208110001081100F0071090
:1008E00000E0071000D0071000C0071000B0070F8D
:1008F00000A107100091070E0083070F0074070F77
:100900000065070E0057070E0049070E003B070D54
:10091000002E070E0020070D0013070D0006070D1F
:1009200000F9060C00ED060D00E0060C00D4060CE4
:1009300000C8060C00BC060C00B0060C00A4060B98
:100940000099060C008D060B0082060B0077060B43
:10095000006C060B0061060A0057060B004C060AE5
:100960000042060A0038060A002E060A0024060A7B
:10097000001A060A001006090007060A00FD05090C
:1009800000F4050900EB050900E2050900D9050995
:1009900000D0050900C7050900BE050900B5050816
:1009A00000AD050800A50509009C05080094050890
:1009B000008C050800840508007C05080074050803
:1009C000006C050700650508005D05070056050871
:1009D000004E0507004705070040050800380507D9
:1009E00000310507002A050700230507001C05063E
:1009F00000160507000F0507000805060002050799
:100A000000FB040600F5040700EE040600E80406F7
:100A100000E2040700DB040600D5040600CF04064C
:100A200000C9040600C3040600BD040600B704069E
:100A300000B1040500AC040600A6040600A00405ED
:100A4000009B04060095040500900406008A040536
:100A50000085040500800406007A0405007504057D
:100A600000700405006B04050066040500610405C0
:100A7000005C04050057040500520405004D040500
:100A80000048040500430405003E0404003A040540
:100A90000035040500300404002C0405002704047C
:100AA00000230405001E0404001A040400160405B3
:100AB00000110404000D04040009040500040404EA
:100AC0000000040400FC030400F8030400F4030421
:100AD00000F0030400EC030400E8030400E4030452
:100AE00000E0030400DC030400D8030400D4030482
:100AF00000D0030400CC030400C8030300C50303B3
:100B00000024F404D9201BC40C5C0E9804C4095FB3
:100B10000265077101F405F900FB04B3004804877E
:100B200000C10369005803550003034500BE023AA3
:100B3000008402310053022A002902250004022009
:100B400000E4011C00C8011900AF0117009801144E
:100B50000084011300710110006101100051010EA9
:100B60000043010D0036010B002B010B0020010B8F
:100B700000150109000C01090003010800FB000831
:100B800000F3000800EB000700E4000600DE0006AA
:100B900000D8000600D2000600CC000500C7000502
:100BA00000C2000500BD000400B9000400B5000447
:100BB00000B1000400AD000400A9000400A500037A
:100BC00000A20003009F0004009B000300980003A4
:100BD000009500020093000300900003008D0002C6
:100BE000008B0003008800020086000200840003DE
:100BF00000810002007F0002007D0002007B0002F5
:100C00000079000200770001007600020074000203
:100C10000072000100710002006F0002006D00010F
:100C2000006C0002006A0001006900020067000118
:100C3000006600010065000100640002006200011E
:100C40000061000100600001005F0002005D000122
:100C5000005C0001005B0001005A00010059000126
:100C60000058000100570001005600010055000126
:100C70000054000100530000005300010052000125
:100C80000051000100500001004F0001004E000023
:100C9000004E0001004D0001004C0001004B00001F
:100CA000004B0001004A000100490001004800001B
:100CB0000048000100470001004600000046000116
:100CC0000045000000450001004400010043000011
:100CD000004300010042000000420001004100000A
:100CE0000041000100400001003F0000003F000102
:100CF000003E0000003E0001003D0000003D0001FC
:100D0000003C0000003C0000003C0001003B0000F3
:100D1000003B0001003A0000003A000100390000E9
:100D200000390001003800000038000000380001E0
:100D300000370000003700010036000000360000D8
:100D400000360001003500000035000000350001CC
:100D500000340000003400000034000100330000C3
:100D600000330000003300010032000000320000B8
:100D700000320001003100000031000000310001AC
:100D8000003000000030000000300001002F0000A3
:100D9000002F0000002F0000002F0001002E000097
:100DA000002E0000002E0001002D0000002D00008C
:100DB000002D0000002D0001002C0000002C000080
:100DC000002C0000002C0001002B0000002B000074
:100DD000002B0000002B0001002A0000002A000068
:100DE000002A0000002A000100290000002900005C
:100DF000002900000029000000290001002800004F
:100E00000028000000280000002800000028000141
:100E10000027000000270000002700000027000036
:100E20000027000100260000002600000026000028
:100E3000002600000026000100250000002500001B
:100E4000002500000025000000250000002500010D
:100E50000024000000240000002400000024000002
:100E600000240001002300000023000000230000F4
:100E700000230000002300000023000000230001E5
:100E800000220000002200000022000000220000DA
:100E900000220000002200010021000000210000CB
:100EA00000210000002100000021000000210000BE
:100EB00000210001002000000020000000200000B0
:100EC00000200000002000000020000000200000A2
:100ED00000200001001F0000001F0000001F000094
:100EE000001F0000001F0000001F0000001F000185
:100EF000001E0000001E0000001E0000001E00007A
:100F000000232C0000B8220000561800003A0F0001
:100F100000B8080000B1040000710200003E0100AA
:100F2000004F46460A004661646520486569676867
:100F3000742000426564204C6576656C696E67209C
:100F4000004661696C656420746F20656E61626C37
:100F50006520426564204C6576656C696E670A00A1
:100F6000496E76616C6964206D6573682E0A00476E
:100F70003120583131372059323334204636303021
:100F800030004D657375726520706F696E74202531
:100F9000692F2569002E0A002F0050726F62696E5A
:100FA00067206D65736820706F696E74200020285B
:100FB00044525952554E2900473239204175746FB9
:100FC00020426564204C6576656C696E67003F2041
:100FD000284C2C522C462C4229206F7574206F66A9
:100FE00020626F756E64732E0A003F285629657261
:100FF000626F7365206C6576656C20697320696D1E
:10100000706C61757369626C652028302D34292EEF
:101010000A00426164205A2076616C75650A004EB0
:101020006F2062696C696E65617220677269640A1B
:10103000004D3630303A2054726F702066726F69FE
:101040006400486F74656E6420746F6F20636F6C0A
:10105000640A00496E736572742066696C616D651F
:101060006E7420616E642070726573732062757493
:10107000746F6E0A00507265737320627574746FBA
:101080006E20746F2068656174206E6F7A7A6C656B
:101090000A0020496E76616C696420657874727507
:1010A00064657220003344205072696E746572204A
:1010B0007072C3AA74652E00496D7072657373698E
:1010C0006F6E00496D70722E20656E2070617573B1
:1010D00065000000754300006B4300007A43000088
:1010E00000000000000000000000290A00206279D2
:1010F0007465733B20637263200053657474696E7A
:1011000067732053746F72656420280023646566DA
:10111000696E652044454641554C545F0000626548
:1011200064004B6420004B6920004B702000504944
:1011300044204175746F74756E652066696E6973BD
:10114000686564212050757420746865206C617333
:1011500074204B702C204B6920616E64204B6420FE
:10116000636F6E7374616E74732066726F6D20624C
:10117000656C6F7720696E746F20436F6E66696768
:1011800075726174696F6E2E680A0050494420417F
:1011900075746F74756E65206661696C6564212075
:1011A00074696D656F75740A00453120457272204F
:1011B000544845524D495155450045727220544896
:1011C00045524D49515545204C495400546865726B
:1011D0006D616C2052756E617761790045312045F3
:1011E0007272206465206368617566666500457289
:1011F000722064652063686175666665206C697439
:101200000048656174696E67206661696C65640099
:10121000504944204175746F74756E65206661692C
:101220006C6564212054656D7065726174757265BA
:1012300020746F6F20686967680A00204B643A2049
:1012400000204B693A2000204B703A20000A2043CE
:101250006C617373696320504944200A00204B6419
:101260003A2000204B693A2000204B703A20000AB7
:10127000204E6F206F76657273686F6F740A00205E
:1012800054753A2000204B753A2000206D61783A61
:101290002000206D696E3A200020643A2000206210
:1012A0006961733A2000504944204175746F747528
:1012B0006E652073746172740A0050494420417550
:1012C000746F74756E65206661696C656421205465
:1012D000656D706572617475726520746F6F2068DA
:1012E0006967680A00504944204175746F74756ECF
:1012F00065206661696C65642120426164206578BF
:10130000747275646572206E756D6265720A00454F
:1013100072723A207574663820666F6E74206E6F34
:101320007420696E697469616C697A65642E004520
:1013300072723A207574663820666F6E74206E6F14
:101340007420696E697469616C697A65642E004500
:1013500072723A207574663820666F6E74206E6FF4
:101360007420696E697469616C697A65642E000025
:10137000060C00FE07022603BC01FFFE0AFE08FE63
:1013800005080806000040F0C8888898781005080D
:1013900008060000C0F88888888888F805050506D2
:1013A00000012030F830200508080600002070F801
:1013B00020202020E00509090600FF2070A8A8B819
:1013C00088887020050606060001E08CEA8C8A0AEF
:1013D0000509090600FFF8A88888888888A8F80504
:1013E0000A0A0600FE205050505088A8A8887003B2
:1013F000030306000340A040FFFFFFFFFFFFFFFFC6
:10140000FFFFFFFFFFFFFFFFFFFFFFFFFFFF0000EA
:10141000000605FF0107070602008080808080002B
:1014200080030303060105A0A0A005060606000030
:1014300050F85050F8500509090600FF2070A8A088
:101440007028A87020050707060000C8C8102040B3
:10145000989805070706000040A0A040A8906801E2
:1014600003030602058080800309090601FF20406E
:10147000408080804040200309090601FF804040F1
:1014800020202040408005070706000020A870208B
:1014900070A8200505050600012020F82020020381
:1014A000030601FFC04080050101060003F80202A7
:1014B00002060100C0C00507070600000810102042
:1014C000404080050707060000708898A8C888700B
:1014D00003070706010040C040404040E005070701
:1014E000060000708808102040F805070706000075
:1014F000F808103008887005070706000010305003
:1015000090F81010050707060000F880F00808881A
:1015100070050707060000304080F08888700507D6
:1015200007060000F8081010202020050707060015
:10153000007088887088887005070706000070882A
:101540008878081060020505060100C0C000C0C010
:101550000206060601FFC0C000C040800305050664
:1015600001012040804020050303060002F800F836
:10157000030505060101804020408005070706009D
:1015800000708810202000200507070600007088E2
:10159000B8A8B88070050707060000708888F8882A
:1015A0008888050707060000F04848704848F0059D
:1015B000070706000070888080808870050707068E
:1015C0000000F04848484848F0050707060000F8C2
:1015D0008080F08080F8050707060000F88080F022
:1015E00080808005070706000070888080988870DA
:1015F000050707060000888888F888888803070799
:10160000060100E04040404040E0050707060000BA
:10161000381010101090600507070600008890A091
:10162000C0A0908805070706000080808080808029
:10163000F805070706000088D8A888888888050765
:10164000070600008888C8A898888805070706004C
:101650000070888888888870050707060000F08871
:1016600088F080808005070706000070888888A8B9
:101670009068050707060000F08888F0A0908805AC
:101680000707060000708880700888700507070645
:101690000000F820202020202005070706000088F1
:1016A00088888888887005070706000088888888E9
:1016B00050502005070706000088888888A8A85091
:1016C000050707060000888850205088880507070E
:1016D000060000888850202020200507070600000B
:1016E000F80810204080F80309090601FFE0808017
:1016F0008080808080E00507070600008040402051
:101700001010080309090601FFE0202020202020F6
:1017100020E00503030600052050880501010600AE
:10172000FEF80303030601058040200505050600B9
:101730000070087888780507070600008080F08828
:101740008888F00505050600007080808870050710
:1017500007060000080878888888780505050600CF
:10176000007088F08070050707060000304840E0F0
:101770004040400507070600FE708888887808709A
:101780000507070600008080F0888888880307071F
:101790000601004000C0404040E00409090601FE87
:1017A0001000301010101090600507070600008030
:1017B000808890E09088030707060100C040404001
:1017C0004040E0050505060000D0A8A8A8A805052A
:1017D00005060000B0C88888880505050600007069
:1017E000888888700507070600FEF0888888F080E2
:1017F000800507070600FE788888887808080505B0
:1018000005060000B0C88080800505050600007848
:10181000807008F00507070600002020F82020202F
:1018200018050505060000888888986805050506DE
:10183000000088888850200505050600008888A8D3
:10184000A8500505050600008850205088050707A8
:101850000600FE88888850204080050505060000A7
:10186000F8102040F80309090601FF20404040809D
:10187000404040200109090602FF8080808080806E
:101880008080800309090601FF80404040204040DD
:10189000408005030306000248A890FFFFFFFFFFFA
:1018A000FFFFFFFFFFFFFFFFFFFFFFFFFFFFFFFF48
:1018B000FFFFFFFFFFFFFFFFFFFFFFFF000000062E
:1018C00005FF0107070602008000808080808005F8
:1018D00007070600FF2070A8A0A8702005070706CC
:1018E0000000304840E04048B0050505060000A86B
:1018F000508850A80507070600008850F820F820F7
:101900002001070706020080808000808080040894
:101910000806010070806090906010E003010106ED
:101920000107A00607070600007884B4A4B48478F1
:1019300003050506010460A06000E005050506003A
:10194000002850A05028050303060001F8080803EA
:101950000101060103E00607070600007884B4A42D
:10196000A48478050101060007F8040404060105B3
:10197000609090600507070600002020F8202000F6
:10198000F803050506010440A02040E00305050614
:101990000104C0204020C00303030601052040804D
:1019A0000507070600FE88888898E88080050808F3
:1019B00006000078E8E8E868282828020202060203
:1019C00003C0C00302020601FE20C0030505060194
:1019D0000440C04040E003050506010540A040006A
:1019E000E0050505060000A0502850A0050A0A06DB
:1019F000000040C048506050B0507810050A0A06F8
:101A0000000040C048506050A8081038050A0A0677
:101A10000000C0204830E050B0507810050707069D
:101A2000000020002020408870050A0A06000040BF
:101A30002000708888F8888888050A0A0600001047
:101A40002000708888F8888888050A0A0600002027
:101A50005000708888F8888888050A0A060000689F
:101A6000B000708888F88888880509090600005049
:101A700000708888F8888888050A0A0600002050C7
:101A800020708888F888888805070706000078A0F5
:101A9000A0F0A0A0B80509090600FE70888080802B
:101AA00088701060050A0A060000402000F8808057
:101AB000F08080F8050A0A060000102000F88080F7
:101AC000F08080F8050A0A060000205000F88080A7
:101AD000F08080F80509090600005000F88080F0C9
:101AE0008080F8030A0A060100804000E040404080
:101AF0004040E0030A0A060100204000E040404068
:101B00004040E0030A0A06010040A000E0404040D7
:101B10004040E0030909060100A000E040404040C9
:101B200040E0050707060000704848E8484870058F
:101B30000A0A06000068B0008888C8A89888880546
:101B40000A0A06000040200070888888888870058E
:101B50000A0A0600001020007088888888887005AE
:101B60000A0A06000020500070888888888870055E
:101B70000A0A06000068B0007088888888887005A6
:101B8000090906000050007088888888887005055B
:101B90000506000188502050880509090600FF0845
:101BA0007098A8A8A8C87080050A0A0600004020FE
:101BB0000088888888888870050A0A060000102036
:101BC0000088888888888870050A0A0600002050E6
:101BD00000888888888888700509090600005000F8
:101BE00088888888888870050A0A06000010200006
:101BF0008888502020202004070706010080E090FC
:101C00009090E080050707060000708890A09088FB
:101C1000B0050808060000402000700878887805A4
:101C20000808060000102000700878887805080869
:101C30000600002050007008788878050808060023
:101C40000068B00070087888780507070600005023
:101C50000070087888780508080600002050207079
:101C600008788878050505060000702870A07805BA
:101C700007070600FE708880887010600508080657
:101C800000004020007088F0807005080806000001
:101C90001020007088F080700508080600002050B1
:101CA000007088F0807005070706000050007088FB
:101CB000F08070030808060100804000C0404040EA
:101CC000E0030808060100204000C0404040E00357
:101CD000080806010040A000C0404040E00307079C
:101CE000060100A000C0404040E0050909060000D0
:101CF0005020500878888888700508080600006819
:101D0000B000B0C888888805080806000040200098
:101D10007088888870050808060000102000708808
:101D200088887005080806000020500070888888A0
:101D30007005080806000068B00070888888700583
:101D400007070600005000708888887005050506A2
:101D500000012000F800200505050600007898A87D
:101D6000C8F00508080600004020008888888870B0
:101D7000050808060000102000888888887005087B
:101D8000080600002050008888888870050707062C
:101D9000000050008888888870050A0A0600FE1036
:101DA0002000888888502040800509090600FE80B0
:101DB00080F0888888F080800509090600FE5000C0
:101DC000888888502040804368616E67657220660D
:101DD000696C616D656E740052657472616974201E
:101DE00066696C616D656E740043686172676572E7
:101DF0002066696C616D656E74005072C3A963687A
:101E00006175666661676520706572736F005072F8
:101E1000C3A963686175666661676520504554476C
:101E2000005072C3A963686175666661676520507A
:101E30004C41005072C3A96368617566666167654D
:101E400020706572736F005265746F757200456320
:101E500068656320736F6E64650A00456368656337
:101E600020736F6E6465004F726967696E65202527
:101E70007325732573205072656D6965720020505B
:101E800072656D6965720A004F726967696E6520D7
:101E900000496E736572742066696C616D656E745D
:101EA00020616E6420707265737320627574746F44
:101EB0006E20286F72204D313038290A00220A0026
:101EC000556E6B6E6F776E20636F6D6D616E643AE9
:101ED00020220025753A2530327500253032753ABA
:101EE000253032750025756420253032753A25304D
:101EF00032750020202020202020002020202000DB
:101F00001FE0201020102010102010202010201082
:101F100030300840048003001FE03FF03FF03FF006
:101F20001FE01FE03FF03FF03FF00FC007800300CD
:101F30003FFFF038007030FC3020FC10207810207B
:101F400030102C00D02E31D02F7BD02F7BD02E31D3
:101F5000D02C00D020301020781020FC1030FC3025
:101F60003800703FFFF03FFFF038007031863023BB
:101F700087102787902F87D02F03D020301020780C
:101F8000102078102030102F03D02F87D027879073
:101F90002387103186303800703FFFF01FFFF81F95
:101FA000FFF8041040020820020820041040082016
:101FB0008010410010410008208004104000000003
:101FC0001FFFF81FFFF8496E697469616C697365DA
:101FD0007220454550524F4D003F00416E6E756C6A
:101FE000657200496E69742E004D34323800496EB6
:101FF000697469616C6973657220454550524F4D33
:102000000046696C616D656E740054656D70C3A99E
:10201000726174757265005061732F6D6D004A6551
:10202000726B00416363C3A96CC3A9726174696F69
:102030006E0056C3A96C6F636974C3A90052C3A92B
:10204000676C2E2064C3A963616C206F7269676935
:102050006E6500436F6E66696775726174696F6E55
:1020600000436D643A2052616E67657200436D648F
:102070003A2044C3A9706C6F79657200436D643A6D
:102080002053656C662D5465737400436D643A206B
:102090004D6F646520535700436D643A2052657359
:1020A000657400436F6E66696775726174696F6EFF
:1020B00000456E72656769737472657220636F6E36
:1020C0006669672E004C6974004C69740042757330
:1020D0006500427573650056697465737365207693
:1020E000656E74696C2E005669746573736520762D
:1020F000656E74696C2E00436F6E666967757261F8
:1021000074696F6E0020636F6C64206578747275FB
:1021100073696F6E2070726576656E7465640A000F
:10212000202D20496E76616C696420657874727523
:10213000646572206E756D62657220210A007001FF
:102140002C0190012701B0012201C0011D01F00105
:1021500018011002130130020E0160020901900201
:102160000401C002FF000003FA004003F5008003F1
:10217000F000D003EB002004E6007004E100E0046E
:10218000DC004005D700C005D2004006CD00D006D7
:10219000C8008007C3003008BE00F008B900C009BD
:1021A000B400B00AAF00B00BAA00D00CA500000E1E
:1021B000A000500F9B00C010960050129100001418
:1021C0008C00C0158700B0178200B0197D00D01BAD
:1021D0007800001E730040206E0090226900F024F9
:1021E000640040275F0090295A00E02B5500102E14
:1021F000500020304B0010324600E0334100903553
:102200003C001037370070383200A0392D00B03A4A
:102210002800A03B2300603C1E00103D1900903DAB
:102220001400103E0F00703E0A00C03E0500003F43
:102230000000403FFBFF803FF6FFC03FF1FF45310C
:102240002045727220544845524D4951554500452C
:10225000727220544845524D49515545204C4954BD
:1022600000546865726D616C2052756E617761799A
:10227000004531204572722054454D502E204D416D
:1022800058004572722054454D502E204D41582023
:102290004C4954004D415854454D50207472696763
:1022A0006765726564004531204572722054454D62
:1022B000502E204D494E004572722054454D502EEF
:1022C000204D494E204C4954004D494E54454D50E7
:1022D0002074726967676572656400202F00204270
:1022E000403A0020403A0020573A00526564C3A9A2
:1022F0006D61727265722053565000494D50522ED6
:102300002053544F5050C38945004B494C4C4544D1
:10231000005072696E7465722068616C7465642E19
:10232000206B696C6C28292063616C6C6564210AE0
:102330000053544F5050C389005072696E746572D7
:102340002073746F707065642064756520746F20ED
:102350006572726F72732E204669782074686520EA
:102360006572726F7220616E6420757365204D39DD
:10237000393920746F20726573746172742E20284D
:1023800054656D7065726174757265206973207231
:10239000657365742E2053657420697420616674BA
:1023A00065722072657374617274696E67290A00C0
:1023B0006563686F3A004572726F723A0042696CE9
:1023C000696E656172204C6576656C696E67204741
:1023D0007269643A0A0053544F502063616C6C6513
:1023E000642062656361757365206F6620424C549A
:1023F0006F756368206572726F72202D207265732D
:10240000746172742077697468204D3939390A0013
:1024100053544F502063616C6C6564206265636146
:10242000757365206F6620424C546F756368206534
:1024300072726F72202D20726573746172742077CE
:10244000697468204D3939390A00486F74656E64C3
:1024500020746F6F20636F6C640A00205A3A00206A
:10246000593A0020436F756E7420583A0020453A5F
:1024700000205A3A0020593A00583A0020636F6C05
:102480006420657874727573696F6E2070726576FA
:10249000656E7465640A004563686563206F7269E0
:1024A00067696E6500000000000000000000000089
:1024B000000000484200004842000080405761721E
:1024C0006E696E673A20486F6D696E672042756D60
:1024D000702044697669736F72203C20310A0002D3
:1024E00002040000A0400000A040000000400000E6
:1024F000754300006B4300007A43FFFFFF000000BC
:10250000010000000100008000555555000000400A
:102510000033333300AAAA2A004992240000002085
:1025200000C7711C0099991900D145170055551520
:10253000003BB113002449120011111100000010DA
:10254000000F0F0F00E3380E0043790D00CCCC0CC8
:1025500000C3300C00E8A20B0064210B00AAAA0AF9
:1025600000703D0A009DD80900427B0900922409B1
:1025700000DCD3080088880800104208000000082A
:1025800000F0C107008787070075500700711C071E
:10259000003EEB0600A1BC060069900600666606D8
:1025A00000703E06006118060017F4050074D1059E
:1025B000005BB00500B2900500627205005555053C
:1025C0000078390500B81E0500050505004EEC042D
:1025D0000087D40400A1BD040090A7040049920420
:1025E00000C17D0400EE690400C7560400444404A1
:1025F000005C3204000821040041100400000004C3
:10260000003FF00300F8E0030026D20300C3C30339
:1026100000CCB503003AA803000A9B0300388E03E0
:1026200000C08103009F750300D0690300505E0362
:10263000001D53030034480300913D03003333036E
:102640000016290300381F030097150300300C0300
:1026500000030303000BFA020049F10200BAE8028A
:10266000005CE002002DD802002DD0020059C80203
:1026700000B0C0020031B90200DAB10200AAAA0219
:1026800000A0A30200BC9C0200FA9502005C8F022D
:1026900000DF88020082820200457C020027760269
:1026A0000027700200436A02007C640200D05E02D0
:1026B000003F590200C853020043686172676572A7
:1026C00020636F6E6669672E005265737461757260
:1026D00065722064C3A9666175747300456E726586
:1026E0006769737472657220636F6E6669672E0026
:1026F00052C3A9676C6572207072C3A963682E20EB
:10270000504554470052C3A9676C6572207072C36C
:10271000A963682E20504C4100424C546F75636889
:102720000044C3A963616C616765205A0044C3A972
:1027300063616C616765205A00436F6E6669672E3E
:10274000206176616E63C3A965004D656E7520706A
:1027500072696E636970616C004D373032205425A8
:1027600064004D36303020423020542564004D370F
:102770003032203B2564004D373031205425640031
:10278000220A00656E7175657565696E67202200A5
:10279000526574726169742066696C616D656E74EE
:1027A00000526574726169742066696C616D656E52
:1027B00074004D373032004D37303100436861725C
:1027C0006765722066696C616D656E74004D3630A8
:1027D00030204230004368616E6765722066696C24
:1027E000616D656E74004D656E75207072696E6303
:1027F0006970616C0052657072656E647265206903
:102800006D70722E0050757267657220656E636F11
:102810007265004F5054494F4E5320524550524913
:1028200053453A00494D50522E20504155534500D2
:102830004445434841524745522046494C0043488D
:1028400041524745522046494C002020427573654D
:102850003A2000200043686172676572206D6D0048
:1028600043686172676572206D6D005265747261B4
:102870006974206D6D0052657472616974206D6DAC
:10288000004469616DC3A87472652066696C2E008E
:102890004469616DC3A87472652066696C2E00413D
:1028A0007272C3AA74004D61726368650045206549
:1028B0006E206D6D33004176616E6365204B004183
:1028C00076616E6365204B00436F6E6669672E20EC
:1028D0006176616E63C3A965000820466163746513
:1028E0007572000820466163746575720008204D9A
:1028F00061780008204D61780008204D696E00085D
:10290000204D696E00417272C3AA74004D617263FA
:1029100068650054656D702E204175746F2E0043FC
:102920006F6E6669672E206176616E63C3A965006C
:10293000454550524F4D206461746173697A65203A
:102940006572726F722E0A00290A0020627974651E
:10295000733B2063726320002073746F7265642080
:1029600073657474696E67732072657472696576D5
:102970006564202800202863616C63756C61746550
:102980006429210A0020213D2000454550524F4D29
:1029900020435243206D69736D61746368202D205C
:1029A0002873746F7265642920002053697A653A30
:1029B0002000496E6465783A2000204D61726C6990
:1029C0006E3D563638290A00454550524F4D207607
:1029D000657273696F6E206D69736D6174636820D1
:1029E00028454550524F4D3D0048617264636F6405
:1029F00065642044656661756C7420536574746900
:102A00006E6773204C6F616465640A00F401000016
:102A1000F401000064000000881300000000FA4385
:102A20000000FA430000A040000048420000A0421D
:102A30000000A0420000C8430000BA426F70656EFB
:102A400000545249474745524544003A20007A5FB6
:102A50006D696E00795F6D696E00785F6D696E00FB
:102A60005265706F7274696E6720656E6473746FFF
:102A700070207374617475730A00FFFDFCFAF8F638
:102A8000F4F2F0EEECEAE9E7E5E3E1E0DEDCDAD9E6
:102A9000D7D5D4D2D0CFCDCBCAC8C7C5C3C2C0BF8B
:102AA000BDBCBAB9B7B6B4B3B2B0AFADACAAA9A801
:102AB000A6A5A4A2A1A09E9D9C9A9998979594934F
:102AC00092908F8E8D8B8A8988878684838281807D
:102AD0007F7E7D7B7A797877767574737271706F8B
:102AE0006E6D6C6B6A696867666564636261605F7E
:102AF0005E5D5C5B5A595858575655545352515065
:102B0000504F4E4D4C4B4A4A494847464645444330
:102B1000424241403F3E3E3D3C3B3B3A39383837EC
:102B2000363535343332323130302F2E2E2D2C2B9A
:102B30002B2A29292827272625252423232221213A
:102B400020201F1E1E1D1C1C1B1B1A1919181817CC
:102B50001616151514131312121111100F0F0E0E55
:102B60000D0D0C0C0B0A0A090908080707060605D3
:102B7000050404030302020100005061726B696ED8
:102B8000672E2E2E00706F75722064C3A96D61725E
:102B900072657200417474656E74652066696C615B
:102BA0006D656E740072657472616974206475205D
:102BB00066696C616D656E7400417474656E7465F0
:102BC0000050617469656E746572205356502E2EE4
:102BD0002E004275736520656E20636861756666B8
:102BE00065007072206368617566666572206C614D
:102BF00020627573650050726573736572206C6531
:102C000020626F75746F6E2E2E2E00706F7572209D
:102C1000636F6E74696E7565722E2E2E006574205A
:102C20006170702E20626F75746F6E00496E73C391
:102C3000A97265722066696C616D656E7400636867
:102C4000617267656D656E742066696C616D656E35
:102C50007400417474656E746500706F75722072D3
:102C6000657072656E64726500507265737365722B
:102C700020626F75746F6E00696D70726573736931
:102C80006F6E00417474656E746520726570726950
:102C900073650050757267652066696C616D656E5D
:102CA0007400417474656E7465004368616E676595
:102CB000722066696C616D656E7400436F6E666943
:102CC0006775726174696F6E0054656D70C3A97227
:102CD0006174757265004D6F7576656D656E740013
:102CE00052C3A9676C6572005375727665696C6C26
:102CF00065720044C3A9706C61636572205800441A
:102D0000C3A9706C6163657220590044C3A9706CDB
:102D100061636572205A00457874727564657572D6
:102D2000004578747275646575720044C3A9706C4F
:102D300061636572205A0044C3A9706C6163657257
:102D400020590044C3A9706C616365722058004D1E
:102D50006F7576656D656E7400417272C3AA746595
:102D600072206D6F7465757273004D383400486160
:102D70007574657572206C697373C3A965004861C9
:102D80007574657572206C697373C3A965004172AF
:102D900072C3AA74004D61726368650052C3A9676B
:102DA0006C6572204E69762E206C6974004E6976CF
:102DB000656175206475206C6974004732380A4774
:102DC0003239004F726967696E65206175746F00F2
:102DD0004732380044C3A9706C6163657220756E18
:102DE00020617865004D656E75207072696E63694B
:102DF00070616C00562064C3A9706C2E206D696EE2
:102E000000562064C3A9706C2E206D696E00566D4B
:102E1000696E2000566D696E2000566D6178204500
:102E200000566D6178204500566D6178205A005635
:102E30006D6178205A00566D6178205900566D6199
:102E400078205900566D6178205800566D617820C1
:102E50005800436F6E6669672E206176616E63C3AA
:102E6000A96500416D6178204500416D617820457C
:102E700000416D6178205A00416D6178205A00410F
:102E80006D6178205900416D6178205900416D6174
:102E900078205800416D6178205800412064C3A912
:102EA000706C2E00412064C3A9706C2E004120720A
:102EB000657472616974004120726574726169742D
:102EC00000416363C3A96CC3A9726174696F6E002A
:102ED000416363C3A96CC3A9726174696F6E0043D7
:102EE0006F6E6669672E206176616E63C3A96500A7
:102EF0005072C3A963682E20504C412062757365DF
:102F0000005072C3A9636861756666616765205089
:102F10004C41005072C3A963682E20504C41206C74
:102F200069740054656D70C3A9726174757265002F
:102F30005072C3A963682E205045544720627573B0
:102F400065005072C3A96368617566666167652034
:102F500050455447005072C3A963682E2050455411
:102F600047206C69740054656D70C3A972617475F3
:102F7000726500526566726F69646972005072C34F
:102F8000A9636861756666616765205045544700AE
:102F90005072C3A963686175666661676520504CAD
:102FA0004100566974657373652076656E74696C4B
:102FB0002E00566974657373652076656E74696C4E
:102FC0002E004C6974004C697400427573650042B0
:102FD000757365004D656E75207072696E636970FA
:102FE000616C00466C757800466C757800566974A3
:102FF000657373652076656E74696C2E005669740E
:10300000657373652076656E74696C2E004C697407
:10301000004C697400427573650042757365005613
:103020006974657373650056697465737365004DE3
:10303000656E75207072696E636970616C004572AF
:10304000726F722077726974696E6720746F2045A1
:103050004550524F4D210A000F150E1216170E1330
:1030600003021A1401000E0C190DFF180C040001C4
:10307000627573793A2070617573656420666F724A
:1030800020696E7075740A00627573793A207061F8
:103090007573656420666F7220757365720A0062CD
:1030A0007573793A2070726F63657373696E670A1E
:1030B000004B494C4C206361757365642062792034
:1030C000746F6F206D75636820696E6163746976D3
:1030D000652074696D65202D2063757272656E744C
:1030E00020636F6D6D616E643A2000FFFFE7FFFCA7
:1030F0000003FFFC0FFFC0FFFCFFFFE7FFFE000324
:10310000FFFE1FFFE1FFFEFFFFE7FFFE0003FFFFE3
:103110003FFFF3FFFF00E007000E0000000738004C
:1031200073800700E007000E3FF00007380073804F
:103130000700E007FFFE3FF3FFFF38007380070042
:10314000E007FFFC3FF3FFFF380073800700E00754
:10315000FFFE3FF3FFFF380073800700E007000E1B
:1031600000000007380073800700E007000E000031
:103170000007380073800700E007000F0003FFFF1F
:103180003FFFF3FFFF00E007000F0003FFFE1FFFFC
:10319000E1FFFE00E007000F0003FFFC0FFFC0FF90
:1031A000FC00000000000000000000000000000023
:1031B00000000000000000000000000000FFFFFF12
:1031C000FFFFFFFFFFFFFFFFFFFFFFFFFFFFFFFF0F
:1031D000FFFFFFFFFFFFFFFFFF2020506C616E6EBF
:1031E000657242756666657242797465733A20004D
:1031F0002046726565204D656D6F72793A200043F7
:103200006F6D70696C65643A2041756720313220BA
:10321000323031390A00207C20417574686F723A6F
:10322000202874726F7563682C2043726561777310
:103230006F6D6520436F726520322E30290A00328F
:103240003031392D30382D303800204C61737420E6
:10325000557064617465643A2000322E302E302D32
:103260005243300A004D61726C696E0020536F66E4
:1032700074776172652052657365740A0020576126
:10328000746368646F672052657365740A00204236
:10329000726F776E206F75742052657365740A00C3
:1032A0002045787465726E616C2052657365740A8E
:1032B00000506F77657255700A0073746172740AFA
:1032C00000427574C3A965732025632025632025FA
:1032D0006320256300205A3A0020593A0020583ACA
:1032E00000656E6473746F7073206869743A2000AF
:1032F0004361703A006F6B00526573656E643A20EB
:103300000053544F5050C389005072696E746572F7
:103310002073746F707065642064756520746F200D
:103320006572726F72732E2046697820746865200A
:103330006572726F7220616E6420757365204D39FD
:10334000393920746F20726573746172742E20286D
:1033500054656D7065726174757265206973207251
:10336000657365742E2053657420697420616674DA
:1033700065722072657374617274696E67290A00E0
:103380004E6F20436865636B73756D207769746851
:10339000206C696E65206E756D6265722C204C61C3
:1033A0007374204C696E653A2000636865636B73C3
:1033B000756D206D69736D617463682C204C617349
:1033C00074204C696E653A20004C696E65204E751C
:1033D0006D626572206973206E6F74204C61737426
:1033E000204C696E65204E756D6265722B312C2004
:1033F0004C617374204C696E653A20004D31313058
:103400000000002100240027002A000000220025DF
:103410000028002B000000200023002600290002C5
:10342000020202020202020404040404040404036B
:10343000030303030303030101010101010101016E
:10344000020408102040800102040810204080017E
:10345000020408102040808040201008040201006F
:103460000000010200090A00000000040308070030
:103470000000000000000000000000000000004408
:10348000C3A9706C6163657220302E316D6D00448C
:10349000C3A9706C6163657220316D6D0044C3A96E
:1034A000706C616365722031306D6D0044C3A9702A
:1034B0006C6163657220756E20617865004275737A
:1034C000652074726F702066726F6964650045785C
:1034D000747275646575720044C3A9706C6163652C
:1034E00072205A0044C3A9706C6163657220590050
:1034F00044C3A9706C616365722058005665206AE8
:1035000065726B005665206A65726B00567A206A98
:1035100065726B00567A206A65726B005679206A74
:1035200065726B005679206A65726B005678206A66
:1035300065726B005678206A65726B00436F6E6629
:1035400069672E206176616E63C3A96500452070AE
:1035500061732F6D6D0045207061732F6D6D005A82
:10356000207061732F6D6D005A207061732F6D6D27
:103570000059207061732F6D6D0059207061732F99
:103580006D6D0058207061732F6D6D005820706153
:10359000732F6D6D00436F6E6669672E20617661D3
:1035A0006E63C3A96500626564002C20737973742F
:1035B000656D2073746F7070656421204865617457
:1035C00065725F49443A2000457272206465206349
:1035D000686175666665206C697400486561746928
:1035E0006E67206661696C6564004572722054489C
:1035F00045524D49515545204C4954005468657217
:103600006D616C2052756E6177617900453120459E
:10361000727220646520636861756666650048653E
:103620006174696E67206661696C6564004531206C
:1036300045727220544845524D49515545005468D1
:1036400065726D616C2052756E6177617900D9EE9B
:1036500011241FBECFEFD0E4DEBFCDBF12E0A0E04B
:10366000B1E0E6E3F6EF01E00BBF02C007900D9278
:10367000AC37B107D9F721E1ACE7B2E001C01D9248
:10368000AB33B207E1F71BE1C8E2DBE104C02197ED
:10369000FE010E94A6F8C732D107C9F70E944EEB7F
:1036A0000C9419FB0C9400002F923F924F925F9262
:1036B0006F927F928F929F92AF92BF92CF92DF9242
:1036C000EF92FF920F931F93CF93DF93CDB7DEB7A7
:1036D000E7970FB6F894DEBF0FBECDBF8FAB20913A
:1036E0004E032CA721E020934E038091080E8D34C9
:1036F00009F44EC3843511F40C94E82D873411F08D
:103700000C94032E8091060E9091070E8C3191053A
:1037100009F414C18CF48430910509F4A7C01CF499
:10372000029738F131C38531910511F40C94052EBF
:103730004B9709F4DAC028C38A32910509F462C2B2
:1037400044F48D31910509F409C14E9709F41AC169
:103750001BC38B35910509F4D3C18C35910509F450
:10376000D3C18A35910509F00FC3109289020C94D8
:10377000052E80917601882311F40C94052EE8E73C
:103780008E2EE1E09E2EF7E2EF2EFBE0FF2E0CEAFC
:1037900013E0ABE3AA2EA3E0BA2EB5E8CB2EB2E03D
:1037A000DB2E712CD4018D914D010E94978C8823C2
:1037B00019F10E94178CF6012081211104C020917B
:1037C0008902222341F0D8012D913D914D915C91C8
:1037D0000E94B0F80AC0B3E07B1639F0F5012081F1
:1037E0003181428153810E94AFF8D7016D937D935F
:1037F0008D939C9313970AC0F80180819181A281D7
:10380000B381F70180839183A283B3837394F4E03F
:10381000EF0EF11C0C5F1F4F24E0A20EB11C3FEF16
:10382000C31AD30A44E07412BDCF40E050E0BA019D
:1038300086E40E94565520E030E0A9010E9433FA48
:10384000181684F40E94178C20E030E040E752E420
:103850000E9433F96093150170931601809317014C
:10386000909318010E94D7990C94052E80E50E9430
:10387000978C882329F00E94013D6B017C0103C0D5
:10388000C12CD12C760183E50E94978C882361F0AE
:103890000E94178C20E030E04AE754E40E946EF466
:1038A0000E94ACF96B017C010E940FBA8091520317
:1038B000811105C060E085E991E00E9429510E94D4
:1038C0000CE0C60ED71EE81EF91E0E940CE0DC01BB
:1038D000CB018C199D09AE09BF09B7FD02C00C943C
:1038E000052E80E00E942ED4F0CF0E94E25D81116F
:1038F0000C94052E80E090E0A0E2B1E489839A83E5
:10390000AB83BC8380E090E0A1E6B3E48D839E832B
:10391000AF83B88780E090E0A0EAB1E489879A8716
:10392000AB87BC8760E070E080E50E94E93CBE01A7
:103930006F5F7F4F0E94E34F0C94052E80914B03E5
:103940008770873011F00C941B2E60E08FE40E948A
:103950006B4181110C94052E0C941B2E0E94E25D8C
:1039600081110C94052E8091BC03882311F40C94D2
:10397000EE2E60E08FE40E946B4181110C94052EC5
:103980000C94EE2E20E030E044E352E46091AC036E
:103990007091AD038091AE039091AF030E94AFF898
:1039A000AB01BC0188E50E9456556E8B7F8B888FDA
:1039B000998F20E030E040EE50E46091B0037091C8
:1039C000B1038091B2039091B3030E94AFF8AB01B1
:1039D000BC0189E50E9456559B01AC0169837A833D
:1039E0008B839C836E897F89888D998D0E94BDDA37
:1039F000882311F40C94052E80E00E946D8F0E94A4
:103A00002C9D61E085E40E946B41182F21E0482F36
:103A1000BE016F5F7F4FCE0146960E943D5E6B01F7
:103A20007C019B01AC010E94B1FA81115FC08E88BC
:103A30009F88A88CB98C20E030E0A901C501B401B1
:103A40000E9408F487FF05C027E137EB41E558EBFA
:103A500004C027E137EB41E558E3C501B4010E94FA
:103A6000B0F8AB01BC018FEC91E00E94FA93898021
:103A70009A80AB80BC8020E030E0A901C501B40190
:103A80000E9408F487FF05C027E137EB41E558EBBA
:103A900004C027E137EB41E558E3C501B4010E94BA
:103AA000B0F8AB01BC018AEC91E00E94FA9320E0EF
:103AB00030E0A901C701B6010E9408F487FF05C0E4
:103AC00027E137EB41E558EB04C027E137EB41E54F
:103AD00058E3C701B6010E94B0F8AB01BC0185EC08
:103AE00091E00E94FA938AE00E9427D40E94139DDD
:103AF000113011F40E94F9B60E940EA00C94052E0C
:103B0000209389020C94052E48E7242E41E0342EA0
:103B10005BE1E52E5BE0F52E8CEA93E09BA38AA3A4
:103B20006BE3C62E63E0D62E00E010E0D1018D914C
:103B30001D010E94978C882309F44BC00E94178CAA
:103B40002B013C01133049F0F60120813181428183
:103B500053810E94AFF82B013C01AAA1BBA12D917A
:103B60003D914D915C91C301B2010E94AFF84B01B0
:103B70005C012DEB37E346E855EB0E9433FA87FDF5
:103B80000AC02DEB37E346E855E3C501B4010E94B6
:103B900008F41816F4F4133051F44092B80350921C
:103BA000B9036092BA037092BB0301E012C0A50191
:103BB0009401F70160817181828193810E94B0F844
:103BC000D7016D937D938D939C931397812F0E94C2
:103BD000B7991F5FB4E0EB0EF11CEAA1FBA134968C
:103BE000FBA3EAA3F4E0CF0ED11C143009F09ECF62
:103BF000002321F088EB93E00E9420BA0E940EA0DF
:103C00000C94052E80917601882311F40C94052ED6
:103C100089E40E94978C082F882321F00E94138C3E
:103C2000E82E01C0E12C8AE40E94978C182F88238B
:103C300021F00E94138CF82E01C0F12C002319F002
:103C400024E02E1528F0112349F034E03F1530F41C
:103C500087ED91E00E9453930C94052E80E1ECEAED
:103C6000F3E0A7E2BBE001900D928A95E1F7002313
:103C7000F1F02091CE0B3091CF0B4E2D4203B001CD
:103C8000439F700D11248091CA0B9091CB0B680F4C
:103C9000791F072E000C880B990B0E940FF460937C
:103CA000270B7093280B8093290B90932A0B1123D9
:103CB000F1F02091D00B3091D10B5F2D5203B00168
:103CC000539F700D11248091CC0B9091CD0B680FF8
:103CD000791F072E000C880B990B0E940FF460933C
:103CE0002B0B70932C0B80932D0B90932E0B60E07D
:103CF00080E50E946B41882381F10023B1F020E030
:103D000030E044E352E46091270B7091280B8091DE
:103D1000290B90912A0B0E94B0F86093270B7093A7
:103D2000280B8093290B90932A0B1123B1F020E0EC
:103D300030E040EE50E460912B0B70912C0B8091A1
:103D40002D0B90912E0B0E94B0F860932B0B70936B
:103D50002C0B80932D0B90932E0B40E050E0BA017A
:103D600086E40E9456556B017C0120E030E0A901F9
:103D70000E9433FA18160CF075CD20E030E040E7D1
:103D800052E4C701B60164CD0E944E5C0C94052E2E
:103D90008091060E9091070E8B39910509F494C419
:103DA0000CF013C18936910509F47AC40CF05CC09B
:103DB0008C34910509F430C39CF58231910509F4E6
:103DC000F6C4BCF497FF02C00C94E52D8230910537
:103DD0000CF4CAC1419711F00C94E52D60E086E027
:103DE00092E00E9429515E985E9815985E980C9416
:103DF000052E8A32910509F4E4C22CF44F9709F498
:103E000032C20C94E52D8934910509F4FDC28B343E
:103E1000910511F00C94E52D0E94FC4A0C94052E9E
:103E20008335910509F4BFC47CF48135910509F40B
:103E3000A1C40CF0B4C48D34910511F00C94E52D9F
:103E40000E94354B0C94052E8535910509F4E4C488
:103E50000CF4ADC48C35910509F4F9C4883691058C
:103E600009F4DEC20C94E52D8237910509F4C2C530
:103E70000CF58D36910509F4F7C264F48B36910583
:103E800009F46BC40CF448C410924D031092250140
:103E90000C94052E8F36910509F456C30CF441C3DA
:103EA0008037910509F49BC38137910509F49BC3C1
:103EB0000C94E52D8737910509F4F3C50CF075C016
:103EC0008537910509F49CC50CF0B1C58337910580
:103ED00011F00C94E52D8EE094E00E94539360E085
:103EE0008EEF93E00E94A8DC60E089EE93E00E94F0
:103EF000A8DC61E082EE93E00E94A8DC61E087ED3F
:103F000093E00E94A8DC61E087EC93E00E94A8DCCB
:103F100060E08EEB93E00E94A8DC61E084EB93E02C
:103F20000E94A8DC61E08AEA93E00E94A8DC61E0DC
:103F300082EA93E00E94A8DC61E084E993E00E94B9
:103F4000A8DC61E086E893E00E94A8DC60E087E7F7
:103F500093E00E94A8DC60E089E693E00E94A8DC80
:103F600060E083E593E00E94A8DC60E082E493E0F7
:103F70000E94A8DC60E083E393E00E94A8DC60E09C
:103F80008EE193E00E94A8DC61E08BE093E00E9468
:103F9000A8DC60E08EEF92E00E94A8DC60E08AEE90
:103FA00092E00E94A8DC0C94052E8937910509F453
:103FB00085C50CF47AC58C38910509F43EC3813966
:103FC000910509F483C50C94E52D8039A1E09A0789
:103FD00011F40C940C2A0CF055C08C3D910509F499
:103FE00086C71CF58B3C910509F443C674F4883CE4
:103FF000910509F4C9C5893C910509F415C68E3BA4
:10400000910511F00C94E52D36C38D3C910509F412
:1040100083C60CF44DC68E3C910509F490C6833DD1
:10402000910509F4AEC60C94E52D8C32E1E09E07B3
:1040300011F40C94BD2884F4823E910509F4BAC7AA
:10404000883121E0920711F40C9426288D3D9105CA
:1040500011F00C94E52D58C78E3231E0930711F41E
:104060000C94C52914F40C94D2288F3251E0950792
:1040700011F40C94092A8033914011F40C945229C4
:104080000C94E52D863FB1E09B0711F40C94322B84
:10409000B4F5843AF1E09F0711F40C941D2A94F4CE
:1040A000823931E0930711F40C94152A14F40C941E
:1040B0000F2A8A39914011F00C94E52D0E9493D17A
:1040C0000C94052E8C3AA1E09A0711F40C94892ADD
:1040D0003CF4853A914011F40C94202A0C94E52D7F
:1040E000843FF1E09F0711F40C942F2B853F914002
:1040F00011F00C94E52D0E94DAB40C94052E8D3B42
:1041000032E0930711F40C94D42B9CF4883552E0E0
:10411000950711F40C94832B8B35A2E09A0711F4C8
:104120000C94862B883F914011F00C94E52D0C9453
:10413000352B8335E3E09E0711F40C94462B3CF4B9
:104140008E3B924011F40C94DD2C0C94E52D8438B8
:1041500033E0930711F40C949B2D873E934011F4A8
:104160000C94D72D0C94E52DA090040EB090050E64
:1041700080E50E94978C882359F00E94013D6B01D5
:104180007C0111E0672B682B692B31F410E004C02F
:1041900010E0C12CD12C760183E50E94978C8823F6
:1041A00011F40C94F12E0E94178C20E030E04AE7C5
:1041B00054E40E946EF40E94ACF96B017C01111171
:1041C0000BC0672B682B692B39F4A114B10421F0C3
:1041D000D5018C91811102C010E001C011E00E9454
:1041E0000FBA112341F080917D03811109C0C501EF
:1041F0000E94075105C060E086EF91E00E942951BE
:1042000010914E0383E080934E0381E080934D0331
:10421000C114D104E104F104B1F00E940CE0C60E17
:10422000D71EE81EF91E0E940CE0DC01CB018C19A0
:104230009D09AE09BF09B7FF0EC080914D038111E2
:104240000C94F62E08C080914D03882321F080E065
:104250000E942ED4F8CF0E94635110924D03109308
:104260004E030C94052E0E94AD4A7B018C0120E880
:1042700031E541E050E00E940FF8C9016DE671E0C0
:104280000E947EF84B015C01C801B70120E13EE0CD
:1042900040E050E00E940FF8CA01B90128E130E087
:1042A00040E050E00E940FF8762E672EC62ED72EE3
:1042B0003CE3232E312C412C512CC801B701A20123
:1042C00091010E940FF8F62EE72ECA01B901A20152
:1042D00091010E940FF8CB018E010F5F1F4F8114D7
:1042E000910499F0EF92FF927F936F936F927F9278
:1042F000BF92AF929F928F928FE392E09F938F93A2
:104300001F930F930E94A0F313C0A114B104B1F046
:10431000EF92FF927F936F936F927F92BF92AF92D3
:104320008FE292E09F938F931F930F930E94A0F3CD
:104330000FB6F894DEBF0FBECDBF30C0CD2879F0E8
:10434000EF92FF927F936F936F927F9283E292E05E
:104350009F938F931F930F930E94A0F3E9CF892B14
:1043600069F0EF92FF927F936F938BE192E09F93BE
:104370008F931F930F930E94A0F3DACFEF92FF92D7
:1043800087E192E09F938F931F930F930E94A0F376
:104390000F900F900F900F900F900F9080917D03D2
:1043A000811103C0C8010E9407510E942F94B801D7
:1043B00083E592E00E9418948AE00E9427D40C942E
:1043C000052E83E50E94978C882311F40C94052E0A
:1043D0000E94EF8BF82E6FEF7FEF80E50E94113D7A
:1043E0008C0197FF02C00C94052EE82E60E089E452
:1043F0000E946B4181110C94FB2E802F0E9429EBAF
:104400008111F5C50C94FB2E80E50E944E8C811124
:104410000C940E2F0C94052E0E94204B0C94052E0C
:104420008091740A83FF02C00C94052E0E94C03C48
:1044300087FF02C00C94052E83E50E94978C882389
:1044400079F00E94178C0E94A5F98B01CB010E9484
:104450004D8A0635110524F40E94354B0E946351A4
:104460000E94F9EA0C94052E8091740A83FF02C021
:104470000C94052E0E94C03CF82E87FF02C00C94BD
:10448000052E83E50E94978C082F811106C082E5D6
:104490000E94978C182F8823C1F10E94178C0E94CC
:1044A000A5F9CB010E944D8A0E94178C20E030E0D4
:1044B0004AEA52E40E9408F4181614F40C94192FD6
:1044C0000E94354B0E9463516091FF03709100047C
:1044D000072E000C880B990B0E940FF44B015C0116
:1044E0004090FB035090FC036090FD037090FE032E
:1044F000A30192010E9433FA181614F40C942C2F85
:10450000002311F40C941D2F11E00E94F9EA1123ED
:1045100011F40C94052E602F8F2D0E94EE850C94C3
:10452000052E8EE40E94978C882311F40C94052E9E
:104530000E94DF8B60938B0E70938C0E80938D0E98
:1045400090938E0E0C94052E83E50E944E8C88234A
:1045500031F060E083E50E94B93F8093740A0E94C5
:104560002F9480E992E00E9453938091740A8823EB
:1045700069F126E8E22E22E0F22E00E010E020E0D1
:104580008091740A90E0A0E0B0E0002E04C0B695DF
:10459000A795979587950A94D2F780FF0EC0DD24E2
:1045A000D394D20E222319F08CE20E9427D4F70173
:1045B000859194910E9453932D2D0F5F1F4F92E090
:1045C000E90EF11C05301105D9F604C082E892E02D
:1045D0000E9453938AE00E9427D40C94052E80E019
:1045E00090E00E942D9583E50E94978C882381F0AE
:1045F0000E94EF8B282F30E02D33310524F4809377
:1046000000010C94052E8CE3809300010C94052E80
:104610000E942F94C0900001D12CE12CF12C87E94D
:1046200092E00E9453934AE0C701B6010E94C8D6A7
:104630008AE00E9427D40C94052E8091740A83FF8F
:1046400002C00C94052E83E50E94978C882311F4F8
:104650000C94052E0E94178C0E94A5F963377105F2
:1046600014F063E770E07093000F6093FF0E0E94F8
:1046700069830C94052E8091740A83FF02C00C9408
:10468000052E83E50E94978C8DA781110C942F2F06
:1046900082E50E94978C81110C942F2F0C94052E8B
:1046A0000E94C03C182F87FD0AC087EC92E00E9450
:1046B0005393812F0E947C858AE00E9427D42CA5E9
:1046C00020934E030C94A53183E50E94978C882398
:1046D00011F40C94052E0E94EF8B182F90E0CD97CB
:1046E0000CF01CE3109380020E940CE06B017C0133
:1046F000212F30E0A8EEB3E00E9463F8C60ED71E6B
:10470000E81EF91EC0927C02D0927D02E0927E02E9
:10471000F0927F020C94052E60E080E50E94B93F84
:1047200081110C94052E81E40E944E8C882321F087
:104730006091E50370E002C06FEF70E083E50E94D6
:10474000E93C8F3F910519F010F08FEF90E08093D6
:10475000E5038093F60E0C94052E60E080E50E9440
:10476000B93F81110C94052E1092E5031092F60EBC
:104770000C94052E0E945E8A0E94354B0E94BABBA3
:104780000E94FC3C68EE73E080E090E00E9495920D
:1047900060E08AEC92E00E9429510C94052E109260
:1047A00088020C94052E209388020C94052E83E534
:1047B0000E94978C8823A1F00E94178C20E030E0A3
:1047C0004AE754E40E946EF40E94ACF96093010140
:1047D0007093020180930301909304010C94052EC1
:1047E00088E50E944E8C81110C94B83089E50E94B6
:1047F0004E8C81110C94B8308AE50E944E8C811148
:104800000C94B83085E40E944E8C81110C94B83021
:104810000E94BABB0C94052E83E50E944E8C88231F
:1048200011F40C94052E0E94178C20E030E04AE72A
:1048300054E40E946EF40E94ACF96093810270937C
:10484000820280938302909384020C94052E0E942E
:10485000C03C87FF02C00C94052E8091000E84FDA1
:1048600004C08091020E87FF0AC018E7C12E11E034
:10487000D12E05E7E02E0AE0F02E10E03BC080913B
:10488000030E837091F70E942F944091890A5091F2
:104890008A0A60918B0A70918C0A83EE92E00E94E2
:1048A000FA9340918D0A50918E0A60918F0A70910F
:1048B000900A80EE92E00E94FA934091910A509102
:1048C000920A6091930A7091940A8DED92E00E9491
:1048D000FA934091950A5091960A6091970A7091C7
:1048E000980A8AED92E00E94FA938AE00E9427D407
:1048F0000C94052ED6018D916D010E94978C882312
:1049000009F46DC0133009F063C00E94178C4B018D
:104910005C0120E030E040EA51E40E9408F487FFA7
:104920004EC0A50194016091950A7091960A8091FC
:10493000970A9091980A0E9433F92B013C019B0140
:10494000AC016091DD037091DE038091DF039091F3
:10495000E0030E946EF46093DD037093DE038093A6
:10496000DF039093E003A30192016091A50A709187
:10497000A60A8091A70A9091A80A0E946EF46093FB
:10498000A50A7093A60A8093A70A9093A80A60913B
:10499000C9037091CA038091CB039091CC030E940C
:1049A0000DF4A30192010E946EF40E94ACF9609391
:1049B000C9037093CA038093CB039093CC03809276
:1049C000950A9092960AA092970AB092980A07C008
:1049D0000E94178CF701648B758B868B978B1F5FFA
:1049E000F4E0EF0EF11C143009F084CF0E94EBB913
:1049F0000C94052E0E940FBA0E940EA00C94052E56
:104A00008091040E9091050E009769F0DC012C91C5
:104A1000222349F020917D0321110C94052E0E9440
:104A200007510C94052E0E9463510C94052E0091A1
:104A3000040E1091050E83E0F12C40E08150E1F06E
:104A4000F8019081292F2B7F2134C1F72181213357
:104A5000A9F7913421F0953421F441E002C0FF24FC
:104A6000F39498012E5F3F4F89012F5F3F4FD8018C
:104A70009C919032C9F3E2CF41110E942F94FF2004
:104A800021F085ED94E00E945393F80181918F010C
:104A9000882319F00E9427D4F8CF0E94C6D70C941F
:104AA000052E0E9453AD0C94052E81E08093500C8E
:104AB00080934F0C0E94A2AD0C94052E1092500CC6
:104AC00010924F0C0E94A2AD0C94052E60E070E095
:104AD00083E50E94113D8C0111270230110544F03D
:104AE0000E942B9489ED94E00E9453930C94052E20
:104AF00088E40E94978C8823A9F00E94138C8A3A3C
:104B000091053CF08530F1E09F072CF084E091E0C6
:104B100002C08AEA90E0F801EE0FFF1FEF5EFC4F43
:104B20009183808386E40E94978C882381F00E9481
:104B3000138C97FD07C08F3F910529F024F08FEF6C
:104B400090E001C080E0F801E452F44F808382E4F9
:104B50000E94978C882311F40C94052E0E94138CCC
:104B60008530910534F0843791052CF083E790E08F
:104B700002C085E090E0F801EE0FFF1FE252F44F13
:104B8000918380830C94052E0E94C03C182F87FFD0
:104B900002C00C94052E84E40E944E8C882309F4F4
:104BA0003FC00E94178C6B017C0101E020E030E0E7
:104BB000A9010E9408F4811101C000E00093E70BF5
:104BC00020E030E0A901C701B6010E9408F4882363
:104BD00039F10E94178C24E01202F0011124E451F3
:104BE000F44F608371838283938320E030E0A901D6
:104BF0006091EC0B7091ED0B8091EE0B9091EF0BAF
:104C00000E9408F481110CC080E090E0A0EEBFE3A8
:104C10008093EC0B9093ED0BA093EE0BB093EF0B06
:104C20000E94E8B40C94052E0E94C03C87FF02C08D
:104C30000C94052EE8E7EE2EE1E0FE2E05E71AE0E3
:104C4000D7018D917D010E944E8C882349F00E94EE
:104C5000178C0E94ACF9F80160837183828393837F
:104C60000C5F1F4FFAE005381F0751F70E94A4B9E7
:104C7000CCC70E94C03C87FDC8C778E7E72E71E02B
:104C8000F72E05E71AE0D7018D917D010E944E8C29
:104C9000882339F00E94178CF80164A375A386A3BA
:104CA00097A30C5F1F4FFAE005381F0761F7ADC7E8
:104CB0008091010E87FF02C00C94DD308091020EBE
:104CC0008E7011F00C94DD304091A90A5091AA0A1F
:104CD0006091AB0A7091AC0A81E095E00E94FA9372
:104CE0004091AD0A5091AE0A6091AF0A7091B00A3E
:104CF0008EEF94E00E94FA934091B10A5091B20A6B
:104D00006091B30A7091B40A8BEF94E00E94FA9319
:104D10008AE00E9427D479C78091000E827111F039
:104D20000C9423318091020E8C7811F00C94233175
:104D30008091030E837011F00C94233166C758E7FD
:104D4000C52E51E0D52E63E5E62E6CE0F62E10E080
:104D5000D6018D916D010E944E8C882351F00E94E6
:104D6000178CF7016083718382839383812F0E9464
:104D7000B7991F5FF4E0EF0EF11C133049F70C9464
:104D8000FE1D0E942F948AE695E00E94539383E5CE
:104D90000E944E8C882321F00E94038C809348014E
:104DA00080914801882319F087E495E002C083E4EC
:104DB00095E00E94539382E695E00E9453932091E0
:104DC0003B0330913C0340913D0350913E03609181
:104DD00030017091310180913201909133010E9434
:104DE000B0F8AB01BC0180E695E00E94FA932091F7
:104DF0003F03309140034091410350914203609141
:104E000038017091390180913A0190913B010E94E3
:104E1000B0F8AB01BC018DE595E00E94FA932091BA
:104E20004303309144034091450350914603609100
:104E300040017091410180914201909143010E9493
:104E4000B0F8AB01BC018AE595E00E94FA9382E5D7
:104E500095E00E94539320913B0330913C03409195
:104E60003D0350913E036091340170913501809172
:104E70003601909137010E94B0F8AB01BC0180E58A
:104E800095E00E94FA9320913F03309140034091B6
:104E900041035091420360913C0170913D0180912A
:104EA0003E0190913F010E94B0F8AB01BC018DE43E
:104EB00095E00E94FA93209143033091440340917E
:104EC00045035091460360914401709145018091E2
:104ED0004601909147010E94B0F8AB01BC018AE401
:104EE00095E00E94FA938AE00E9427D48EC683E55B
:104EF0000E94978C882309F488C60E94138C909393
:104F00004A018093490181C60E94C03CF82E87FD6A
:104F10007CC683E50E94978C0F2D0F2C000C110B83
:104F2000882369F10E94138CF801EE0FFF1FE15BEB
:104F3000FE4F91838083000F111F000F111F9801F6
:104F4000245E3E4F7901BC01990F880B990B0E949A
:104F50000FF42AE037ED43E25CE30E946EF4F801BF
:104F6000E851F44F20813181428153810E946EF4D7
:104F7000D7016D937D938D939C93139746C60E94A2
:104F80002F9485E40E9427D480E38F0D0E9427D4BC
:104F9000F801EE0FFF1FE15BFE4F608171818AE730
:104FA00095E00E940B9485E20E9427D48AE00E943B
:104FB00027D42BC680E50E944E8C882309F425C691
:104FC00060E070E080E50E94113DF82E6FEF7FEF0A
:104FD00083E50E94113D8C010196039708F015C6E8
:104FE000F7FC13C68F2D0E9429EB882339F00E940D
:104FF0002B9482E895E00E94539307C60E940FBA53
:1050000060E08F2D0E9424DF0F3FBFEF1B0731F0C0
:105010000130110571F000E010E00DC08F2D0E94ED
:10502000CCDE31E020E0892B09F030E0032F122F95
:1050300002C001E010E08F2D0E94CCDE80179107A6
:1050400009F4E3C580E00E942ED4F5CF80E50E94EC
:105050004E8C882309F4D9C50E94138C8C01892BAE
:1050600009F07FC083E50E944E8C882389F00E945E
:10507000138C8F3FEFEF9E0729F486E49FE00E9498
:10508000C4D1C3C5BC0186E49FE00E94E2D1BDC586
:105090000E942F9460E070E08AEA95E00E940B94F1
:1050A0008091480F28E532E06901C81AD10887FDD0
:1050B000D394CC0CDD1CCC0CDD1C0D2C000CEE08AC
:1050C000FF088091470F28E830E04901881A9108CD
:1050D00087FD9394880C991C880C991C092C000C52
:1050E000AA08BB088091460F8F3FC1F090E0FC01F9
:1050F000EE0FFF1F8E0F9F1FFC01EF5DF04F218110
:10510000328113E0220F331F1A95E1F704E0369540
:1051100027950A95E1F72E5F3F4F02C020E030E06F
:105120002F5F3F4FC901330FAA0BBB0B9C01AD0191
:10513000281939094A095B09A4EBB0E00E9450F82C
:10514000A7019601281939094A095B090E9431F81B
:10515000B90187EA95E00E940B948AE00E9427D467
:1051600054C50E942B94B80180EA95E00E940B94EC
:1051700081E995E00E94539348C564E071E083E5BE
:105180000E94E93C8C0168EE73E080E50E94E93CF6
:105190008938F3E19F0710F088E893E1B8010E9495
:1051A000DA5033C560E085E40E94B93F811173C0D5
:1051B00080E50E944E8C882351F00E94178C6093EA
:1051C000020470930304809304049093050489E41B
:1051D0000E944E8C882381F00E94178C2CEA35ECBB
:1051E00047E25EE30E946EF4609306047093070446
:1051F000809308049093090484E40E944E8C8823D1
:1052000081F00E94178C2CEA35EC47E25EE30E94A5
:1052100033F960930A0470930B0480930C04909309
:105220000D040E942F944091020450910304609158
:105230000404709105048CEC95E00E94FA932CEA2A
:1052400035EC47E25EE360910604709107048091BB
:105250000804909109040E9433F9AB01BC0188EC69
:1052600095E00E94FA932CEA35EC47E25EE3609108
:105270000A0470910B0480910C0490910D040E941B
:105280006EF4AB01BC0184EC95E00E94FA938AE0D5
:105290000E9427D4BAC40E942B9482EB95E00E940E
:1052A0005393B3C480E50E944E8C882351F00E9432
:1052B000178C6093020F7093030F8093040F9093E9
:1052C000050F89E40E944E8C882381F00E94178C80
:1052D0002CEA35EC47E25EE30E946EF46093060F21
:1052E0007093070F8093080F9093090F84E40E9436
:1052F0004E8C882381F00E94178C2CEA35EC47E213
:105300005EE30E9433F960930A0F70930B0F809352
:105310000C0F90930D0F0E942F944091020F50910B
:10532000030F6091040F7091050F88ED95E00E94C6
:10533000FA932CEA35EC47E25EE36091060F709138
:10534000070F8091080F9091090F0E9433F9AB016C
:10535000BC0184ED95E00E94FA932CEA35EC47E21B
:105360005EE360910A0F70910B0F80910C0F90918A
:105370000D0F0E946EF4AB01BC0180ED95E00E9420
:10538000FA938AE00E9427D440C483E50E944E8CA1
:10539000182F882371F00E94178C0E94A5F9709332
:1053A00021016093200121E0672B09F020E0209388
:1053B000F60380E50E944E8C882359F0209120014D
:1053C00030912101232B11F00E94038C8093F6036E
:1053D0001CC411111AC40E942F9488EF95E00E94FA
:1053E00053938091F603882319F080EE95E002C074
:1053F0008CED95E00E945393609120017091210102
:1054000087EE95E00E940B9483EE95E00E94539303
:10541000FCC30E946D55F9C30E940FBAF6C381E028
:105420000E9441B70E940EA0F0C380E00E9441B7E5
:105430000E94F9B60E940EA0E8C30E94C53FE5C3D2
:105440006FEF7FEF89E40E94113D182F6FEF7FEF20
:105450008AE40E94113D082F8AE50E944E8CF82EA6
:10546000811105C081E50E944E8CD82E01C0D12C3F
:1054700017FD06C007FD04C0F11009C0D11007C018
:105480000E942B948AE296E00E945393BEC315308B
:1054900010F4053038F00E942B948BE096E00E94C7
:1054A0005393B3C3E12E110FFF08002E000C110B14
:1054B0000E94178CDD2099F025E02E9DF0012F9D94
:1054C000F00D1124E00FF11FEE0FFF1FEE0FFF1F75
:1054D000EA59F44F208131814281538103C020E099
:1054E00030E0A901A5E0AE9DF001AF9DF00D1124C3
:1054F0000E0F1F1F000F111F000F111F0A59144F0D
:105500000E94B0F8D8016D937D938D939C9313976F
:105510007CC30E94E25D811178C305EA14E2ECEAE3
:10552000F3E0FBA3EAA39E012F5F3F4F4901EAEF9F
:10553000AE2EE4E2BE2E1901F801659175918591B8
:105540009491AAA1BBA1CD90DD90ED90FD90BBA35D
:10555000AAA3A70196010E94AFF82B013C01F1011B
:10556000608371838283938320E030E040EA51ECD2
:105570000E9433FA87FD0AC020E030E040EA51E49F
:10558000C301B2010E9408F418162CF4F5018491AD
:1055900018160CF4CFC6D101CD90DD90ED90FD90A2
:1055A0001D0120E030E040EA51ECC701B6010E9445
:1055B00033FA87FD0AC020E030E040EA51E4C70139
:1055C000B6010E9408F41816A4F40E942B948EE6EB
:1055D00096E00E94539361E080E696E00E94295194
:1055E0000E941ECF68E270E088EC90E00E94DA50E2
:1055F0000CC30C5F1F4FBFEFAB1ABB0AE1EBF4E229
:10560000E017F10709F098CF73E5E72E7CE0F72E5D
:1056100010E0F40181919191A191B1914F01F701B5
:1056200081939193A193B1937F01812F0E94B799A8
:105630001F5F133071F70E940EA060E08AE496E0CD
:105640000E94295163E972E084E690E00E94DA50FA
:105650006AEB72E084E690E00E94DA50D6C20E94C3
:105660002146D3C20E94B1ADD0C281E08093D30B5A
:105670000E9407AF1092D30B882309F4C6C20E9480
:105680002F948CE896E00E945393BFC28AE50E9453
:10569000978C882331F10E94178C6B017C0120E0EC
:1056A00030E040EA51EC0E9433FA87FD13C020E05D
:1056B00030E040EA51E4C701B6010E9408F4181630
:1056C0004CF0C0924703D0924803E0924903F09215
:1056D0004A039BC20E942B9487E996E00E94539351
:1056E00094C20E942F9440914703509148036091C7
:1056F000490370914A0384EB96E00E94FA938AE092
:105700000E9427D482C20E94203D7FC20E94C03CDA
:10571000082F87FD7AC285E50E944E8C8823F9F018
:10572000E02E002E000CFF080E94178C4B015C013C
:1057300020E030E0A9010E9433FA87FF04C0B7FAE5
:10574000B094B7F8B094F70163E0EE0FFF1F6A95CD
:10575000E1F7EC52F44F80829182A282B3828CE412
:105760000E944E8C882309F450C2002E000C110BAD
:105770000E94178C6B017C0120E030E0A9010E949F
:1057800033FA87FF04C0F7FAF094F7F8F09453E087
:10579000000F111F5A95E1F7F801EC52F44FC48243
:1057A000D582E682F78231C20E94C03C182F87FD65
:1057B0002CC28AE50E94978C882349F040E050E093
:1057C000BA018AE50E9456554B015C0106C0812C46
:1057D000912C40EAA42E41E4B42E412F62E085E0F2
:1057E0000E94ABC120E030E0A901C501B4010E94D4
:1057F00033FA18167CF580E090E0A0EAB0E48983E3
:105800009A83AB83BC832091B4033091B50340915C
:10581000B6035091B703C501B4010E94B0F86B0103
:105820007C0120E030E04AE753E40E9408F487FD61
:1058300006C0C12CD12C3AE7E32E33E4F32ECE8AF6
:10584000DF8AE88EF98EBE016F5F7F4FCE014696EC
:105850000E942E9E1E8E1F8E18A219A28CE40E94FA
:105860004E8C882329F00E94178C6B017C0108C0A4
:10587000C090D80BD090D90BE090DA0BF090DB0BF6
:1058800020E030E0A901C701B6010E9433FA87FF8A
:1058900004C0F7FAF094F7F8F094CA8EDB8EEC8E21
:1058A000FD8E6091FF03709100046430710554F126
:1058B000072E000C880B990B0E940FF49B01AC0182
:1058C0006091FB037091FC038091FD039091FE03B6
:1058D0000E94AFF86B017C0120E030E0A9010E943A
:1058E00033FA87FF04C0F7FAF094F7F8F09401E078
:1058F00020E030E040E450E4C701B6010E9433FAF2
:1059000018160CF000E080E090E0A0EAB1E4898392
:105910009A83AB83BC8382E00E943394811106C0DA
:1059200040E062E089E00E94ABC10DC022E0E22EBF
:1059300023E0AE014F5F5F4FBE01665E7F4FCE0139
:105940004E960E94025D20E030E0A901C501B4013D
:105950000E9433FA18165CF580E090E0A0EAB0E40B
:1059600089839A83AB83BC83A50194016091B403BE
:105970007091B5038091B6039091B7030E94AFF880
:105980006B017C0120E030E0A9010E9433FA181677
:105990001CF0C12CD12C7601CE8ADF8AE88EF98EDC
:1059A000BE016F5F7F4FCE0146960E942E9E40E063
:1059B00060E089E00E94ABC128C10E94C03C182F62
:1059C00087FD23C18AE50E94978C882349F040E037
:1059D00050E0BA018AE50E9456554B015C0106C0B1
:1059E000812C912C90EAA92E91E4B92E412F63E0ED
:1059F00083E00E94ABC120E030E0A901C501B40101
:105A00000E9433FA18167CF580E090E0A0EAB0E43A
:105A100089839A83AB83BC832091B4033091B5030F
:105A20004091B6035091B703C501B4010E94B0F88C
:105A30006B017C0120E030E04AE753E40E9408F467
:105A400087FD06C0C12CD12C8AE7E82E83E4F82E0E
:105A5000CE8ADF8AE88EF98EBE016F5F7F4FCE015E
:105A600046960E942E9E85E50E944E8C882329F042
:105A70000E94178C6B017C010AC028E01202F00121
:105A80001124EC52F44FC080D180E280F38020E0FA
:105A900030E0A901C701B6010E9433FA87FF04C0B4
:105AA000F7FAF094F7F8F094F7FAF094F7F8F09426
:105AB000C982DA82EB82FC8263E0CE0101960E9409
:105AC0005C5C20E030E0A901C501B4010E9433FA1A
:105AD00018165CF580E090E0A0EAB0E489839A8330
