:100000000C94E11B0C940B1C0C940B1C0C940B1CFF
:100010000C940B1C0C940B1C0C940B1C0C940B1CC4
:100020000C940B1C0C940B1C0C940B1C0C940B1CB4
:100030000C940B1C0C94E6BA0C940B1C0C940B1C2B
:100040000C940B1C0C94069E0C94EBE10C940B1C72
:100050000C94B23F0C94A83F0C940B1C0C940B1CFA
:100060000C940B1C0C940B1C0C940B1C0C940B1C74
:100070000C940B1C0C940B1C0C940B1C0C940B1C64
:100080000C940B1C0C940B1C0C940B1CB26B956BFE
:10009000986BB56B9B6B9E6BA16BAD6BA46BC06BD0
:1000A000A76BAA6BA8C867C79EC7E4C89EC79EC7B0
:1000B0009EC79EC79EC79EC79EC79EC79EC79EC718
:1000C0009EC79EC79EC79EC79EC79EC79EC79EC708
:1000D0009EC79EC79EC79EC79EC79EC79EC79EC7F8
:1000E000DEC89EC79EC79EC79EC79EC79EC79EC7A7
:1000F0009EC7B7C89EC79EC79EC79EC79EC79EC7BE
:100100009EC79EC79EC79EC7FBC89BC7A9DEACDE25
:100110009FDEA3DEC3DEC3DEB0DEB4DEBADEBEDE4B
:100120005AE15FE164E16EE19CE19CE178E180E10C
:1001300088E192E14E414E494E495459494E46CDCF
:10014000CCCC3D0AD7233C17B7D13877CC2B32958E
:1001500095E6241FB14F0A000020410000C842006C
:10016000401C4620BCBE4CCA1B0E5AAEC59D7443F3
:100170004F4D4D554E49434154494F4E00445259FD
:1001800052554E004552524F525300494E464F0071
:100190004543484F005265706F732E2E2E004F72EC
:1001A0006967696E65205859205072656D6965727E
:1001B0000A004F726967696E652058592050726550
:1001C0006D69657200205A3A200020593A20004299
:1001D000656420583A20004D65736820706F696E21
:1001E000742063616E6E6F74206265207265736F38
:1001F0006C7665640A00417474656E74652075746C
:10020000696C69732E004D6F746575727320626C32
:100210006F7175C3A973002569730025696D202569
:100220006973002569682025696D2025697300259B
:100230006964202569682025696D2025697300257A
:10024000697920256964202569682025696D202544
:100250006973005072696E742074696D653A20008C
:100260004520526566726F6964697373656D656E6A
:1002700074004520456E20636861756666652E2EA4
:100280002E006F66660090018B0184017D016F0175
:1002900044454255473A004D3131332053002057F1
:1002A0003A00526566726F69642E206475206C692D
:1002B000742E2E2E004C697420656E206368617563
:1002C0006666652E2E2E006F6B00334420507269D7
:1002D0006E746572204F46462E004348414D42459C
:1002E000525F54454D5045524154555245004D4F73
:1002F00054494F4E5F4D4F44455300544845524D6D
:10030000414C5F50524F54454354494F4E00415564
:10031000544F5245504F52545F53445F53544154CD
:1003200055530050524F4D50545F535550504F52FB
:100330005400454D455247454E43595F5041525335
:10034000455200434153455F4C494748545F425230
:10035000494748544E45535300544F47474C455F17
:100360004C494748545300534F4654574152455FF8
:10037000504F574552004255494C445F50455243F7
:10038000454E54004C4556454C494E475F444154F8
:1003900041005A5F50524F4245004155544F4C4521
:1003A00056454C005052494E545F4A4F42005052FD
:1003B0004F4752455353004155544F5245504F52A9
:1003C000545F54454D5000564F4C554D455452497D
:1003D0004300454550524F4D0042494E4152595FEE
:1003E00046494C455F5452414E5346455200534591
:1003F0005249414C5F584F4E5F584F464600464960
:10040000524D574152455F4E414D453A4D61726CD8
:10041000696E204372656177736F6D65436F7265B6
:1004200020322E302E302D52433020534F55524320
:10043000455F434F44455F55524C3A68747470733E
:100440003A2F2F6769746875622E636F6D2F74720F
:100450006F7563682F4D61726C696E2050524F54F6
:100460004F434F4C5F56455253494F4E3A312E3011
:10047000204D414348494E455F545950453A334415
:10048000205072696E746572204558545255444527
:10049000525F434F554E543A3120555549443A63C3
:1004A000656465326132662D343161322D34373402
:1004B000382D396231322D63353563363266333645
:1004C0003766660A002F2F20004D31343520533C0B
:1004D000696E6465783E206F7574206F6620726166
:1004E0006E67652028302D31290A002054002052E3
:1004F00000416363656C65726174696F6E3A205088
:10050000005741524E494E4721204C6F77205A20C8
:100510004A65726B206D6179206C65616420746F2F
:1005200020756E77616E7465642070617573657394
:100530002E0A00205A00205900580020204D6178D2
:100540003A2000205A00205900580020204D696EA2
:100550003A2000536F667420656E6473746F707315
:100560003A200020466C6F773A200050726F746515
:10057000637465642050696E0A00496E76616C6927
:10058000642065787472756465720A0020643A00AC
:1005900020693A0020703A0020643A0020693A004D
:1005A00020703A0064697300656E0043290A006197
:1005B000626C656420286D696E2074656D70200022
:1005C000436F6C6420657874727564657320617222
:1005D0006520004F4646004F4E004F46460A0046F3
:1005E000616465204865696768742000426564201D
:1005F0004C6576656C696E6720004661696C656460
:1006000020746F20656E61626C6520426564204CC9
:100610006576656C696E670A00496E76616C69641F
:10062000206D6573682E0A004D65736820706F69D0
:100630006E742063616E6E6F7420626520726573E4
:100640006F6C7665640A004D34323120696E636FD9
:10065000727265637420706172616D657465722079
:1006600075736167650A0044C3A963616C6167655E
:1006700073206170706C697175C3A97300457272E3
:100680003A20546F6F206661722100546F6F2066AC
:1006900061722066726F6D207265666572656E6349
:1006A0006520706F696E740A00454550524F4D20A9
:1006B0004F4B0A003F5A206F7574206F662072619D
:1006C0006E676520282D323020746F203230290A61
:1006D0000050726F6265205A204F66667365743AE7
:1006E00020003F4B2076616C7565206F7574206F1C
:1006F000662072616E67652028302D3130292E0A00
:1007000000416476616E6365204B3D00496E766101
:100710006C69642065787472756465720A0045724C
:10072000726F722077726974696E6720746F2045EA
:100730004550524F4D210A000F150E1216170E1379
:1007400003021A1401000E0C190DFF180C0400010D
:10075000627573793A2070617573656420666F7293
:1007600020696E7075740A00627573793A20706141
:100770007573656420666F7220757365720A006216
:100780007573793A2070726F63657373696E670A67
:10079000004B494C4C20636175736564206279207D
:1007A000746F6F206D75636820696E61637469761C
:1007B000652074696D65202D2063757272656E7495
:1007C00020636F6D6D616E643A2000526564C3A949
:1007D0006D61727265722053565000494D50522E11
:1007E0002053544F5050C38945004B494C4C45440D
:1007F000005072696E7465722068616C7465642E55
:10080000206B696C6C28292063616C6C6564210A1B
:10081000006563686F3A004572726F723A00426910
:100820006C696E656172204C6576656C696E6720D7
:10083000477269643A0A00486F74656E6420746F89
:100840006F20636F6C640A0024F4D43050C38E2090
:10085000C2A24017828B7011127A910D816CD90A55
:10086000A861E108C7586607615143061E4B5D0544
:10087000C145A7041A411104093D98037139310398
:100880004036DB0265339102D4305402802E1D02C3
:10089000632CEE01752AC501B028A0011027810143
:1008A0008F2564012B244B01E0223401AC211F0170
:1008B0008D200D01801FFC00841EED00971DDF00C0
:1008C000B81CD200E61BC600201BBC00641AB20094
:1008D000B219A8000A19A0006A189900D11791004E
:1008E00040178B00B516840031167E00B3157900D1
:1008F0003A157300C7146F0058146A00EE136600AF
:100900008813630025135E00C7125B006C1257004A
:1009100015125400C111510070114F0021114B00EC
:10092000D61049008D1047004610440002104200C6
:10093000C00F4000800F3E00420F3C00060F3B00FE
:10094000CB0E3800930E37005C0E3500270E3400B6
:10095000F30D3200C10D3100900D3000600D2E00FE
:10096000320D2D00050D2C00D90C2B00AE0C2900EA
:10097000850C29005C0C2700350C27000E0C260086
:10098000E80B2400C40B2400A00B23007D0B2300E4
:100990005A0B2100390B2100180B2000F80A1F0008
:1009A000D90A1E00BB0A1E009D0A1D00800A1D00F8
:1009B000630A1C00470A1B002C0A1B00110A1A00BC
:1009C000F7091A00DD091900C4091900AB0919005B
:1009D000920917007B091800630917004C091600DB
:1009E00036091600200916000A091500F508150039
:1009F000E0081400CC081400B8081400A40814007F
:100A0000900813007D0812006B08130058081200AC
:100A100046081200340811002308110012081100C2
:100A200001081100F0071000E0071000D0071000C7
:100A3000C0071000B0070F00A107100091070E00BB
:100A400083070F0074070F0065070E0057070E009D
:100A500049070E003B070D002E070E0020070D0072
:100A600013070D0006070D00F9060C00ED060D003A
:100A7000E0060C00D4060C00C8060C00BC060C00F6
:100A8000B0060C00A4060B0099060C008D060B00A6
:100A900082060B0077060B006C060B0061060A004D
:100AA00057060B004C060A0042060A0038060A00E8
:100AB0002E060A0024060A001A060A00100609007B
:100AC00007060A00FD050900F4050900EB05090009
:100AD000E2050900D9050900D0050900C70509008C
:100AE000BE050900B5050800AD050800A50509000B
:100AF0009C050800940508008C0508008405080082
:100B00007C050800740508006C05070065050800F1
:100B10005D050700560508004E050700470507005C
:100B20004005080038050700310507002A050700C1
:100B3000230507001C050600160507000F05070022
:100B40000805060002050700FB040600F50407007F
:100B5000EE040600E8040600E2040700DB040600D9
:100B6000D5040600CF040600C9040600C30406002D
:100B7000BD040600B7040600B1040500AC0406007D
:100B8000A6040600A00405009B04060095040500C9
:100B9000900406008A040500850405008004060010
:100BA0007A04050075040500700405006B04050057
:100BB00066040500610405005C0405005704050097
:100BC000520405004D0405004804050043040500D7
:100BD0003E0404003A040500350405003004040016
:100BE0002C04050027040400230405001E0404004F
:100BF0001A04040016040500110404000D04040086
:100C0000090405000404040000040400FC030400BB
:100C1000F8030400F4030400F0030400EC030400F0
:100C2000E8030400E4030400E0030400DC03040020
:100C3000D8030400D4030400D0030400CC03040050
:100C4000C8030300C503030024F404D9201BC40C0B
:100C50005C0E9804C4095F0265077101F405F90090
:100C6000FB04B30048048700C10369005803550022
:100C700003034500BE023A008402310053022A00F9
:100C80002902250004022000E4011C00C80119000B
:100C9000AF011700980114008401130071011000C6
:100CA0006101100051010E0043010D0036010B00DF
:100CB0002B010B0020010B00150109000C0109009C
:100CC00003010800FB000800F3000800EB00070028
:100CD000E4000600DE000600D8000600D200060090
:100CE000CC000500C7000500C2000500BD000400DF
:100CF000B9000400B5000400B1000400AD00040018
:100D0000A9000400A5000300A20003009F00040046
:100D10009B0003009800030095000200930003006D
:100D2000900003008D0002008B0003008800020089
:100D30008600020084000300810002007F000200A0
:100D40007D0002007B0002007900020077000100B4
:100D500076000200740002007200010071000200BF
:100D60006F0002006D0001006C0002006A000100CB
:100D700069000200670001006600010065000100D3
:100D800064000200620001006100010060000100D7
:100D90005F0002005D0001005C0001005B000100DB
:100DA0005A000100590001005800010057000100DD
:100DB00056000100550001005400010053000000DE
:100DC00053000100520001005100010050000100D9
:100DD0004F0001004E0000004E0001004D000100D8
:100DE0004C0001004B0000004B0001004A000100D4
:100DF00049000100480000004800010047000100D0
:100E000046000000460001004500000045000100CA
:100E100044000100430000004300010042000000C4
:100E200042000100410000004100010040000100BB
:100E30003F0000003F0001003E0000003E000100B6
:100E40003D0000003D0001003C0000003C000000AF
:100E50003C0001003B0000003B0001003A000000A4
:100E60003A0001003900000039000100380000009C
:100E70003800000038000100370000003700010092
:100E8000360000003600000036000100350000008A
:100E9000350000003500010034000000340000007F
:100EA0003400010033000000330000003300010073
:100EB000320000003200000032000100310000006A
:100EC000310000003100010030000000300000005F
:100ED000300001002F0000002F0000002F00000054
:100EE0002F0001002E0000002E0000002E00010047
:100EF0002D0000002D0000002D0000002D0001003D
:100F00002C0000002C0000002C0000002C00010030
:100F10002B0000002B0000002B0000002B00010024
:100F20002A0000002A0000002A0000002A00010018
:100F3000290000002900000029000000290000000D
:100F400029000100280000002800000028000000FF
:100F500028000000280001002700000027000000F2
:100F600027000000270000002700010026000000E5
:100F700026000000260000002600000026000100D8
:100F800025000000250000002500000025000000CD
:100F900025000000250001002400000024000000BE
:100FA00024000000240000002400010023000000B1
:100FB00023000000230000002300000023000000A5
:100FC0002300000023000100220000002200000096
:100FD0002200000022000000220000002200010088
:100FE000210000002100000021000000210000007D
:100FF000210000002100000021000100200000006D
:101000002000000020000000200000002000000060
:101010002000000020000000200001001F00000050
:101020001F0000001F0000001F0000001F00000044
:101030001F0000001F0001001E0000001E00000035
:101040001E0000001E000000232C0000B82200003B
:10105000561800003A0F0000B8080000B104000064
:10106000710200003E010000457874727564657578
:10107000720044C3A9706C61636572205A0044C356
:10108000A9706C6163657220590044C3A9706C61DA
:101090006365722058004D6F7576656D656E7400DE
:1010A000417272C3AA746572206D6F746575727334
:1010B000004D38340048617574657572206C697331
:1010C00073C3A9650048617574657572206C697396
:1010D00073C3A96500417272C3AA74004D61726343
:1010E00068650052C3A9676C6572204E69762E2030
:1010F0006C6974004E6976656175206475206C6951
:1011000074004732380A473239004F726967696E96
:1011100065206175746F004732380044C3A9706C54
:101120006163657220756E20617865004D656E752E
:10113000207072696E636970616C005072C3A9633C
:10114000682E20504C412062757365005072C3A90F
:1011500063682E20504C41206C6974005072C3A902
:1011600063686175666661676520504C410054652F
:101170006D70C3A9726174757265005072C3A96302
:10118000682E20504554472062757365005072C325
:10119000A963682E2050455447206C697400507232
:1011A000C3A96368617566666167652050455447E9
:1011B0000054656D70C3A9726174757265005265E3
:1011C00066726F69646972005072C3A96368617561
:1011D00066666167652050455447005072C3A96335
:1011E000686175666661676520504C410056697498
:1011F000657373652076656E74696C2E005669742C
:10120000657373652076656E74696C2E004C697425
:10121000004C697400427573650042757365004D3A
:10122000656E75207072696E636970616C00205A1A
:101230003A0020593A0020436F756E7420583A00E6
:1012400020453A00205A3A0020593A00583A0020E6
:10125000636F6C6420657874727573696F6E20704B
:10126000726576656E7465640A004563686563201F
:101270006F726967696E6500000000000000000081
:10128000000000000000484200004842000080408A
:101290005761726E696E673A20486F6D696E67209C
:1012A00042756D702044697669736F72203C2031FD
:1012B0000A000202040000A0400000A0400000005C
:1012C000400000754300006B4300007A43FFFFFFBE
:1012D000000000010000000100008000555555008D
:1012E0000000400033333300AAAA2A0049922400A8
:1012F00000002000C7711C0099991900D145170002
:10130000555515003BB1130024491200111111006D
:10131000000010000F0F0F00E3380E0043790D009E
:10132000CCCC0C00C3300C00E8A20B0064210B00F5
:10133000AAAA0A00703D0A009DD80900427B090054
:1013400092240900DCD308008888080010420800B5
:1013500000000800F0C107008787070075500700EC
:10136000711C07003EEB0600A1BC06006990060058
:1013700066660600703E06006118060017F4050058
:1013800074D105005BB00500B290050062720500E3
:101390005555050078390500B81E050005050500FE
:1013A0004EEC040087D40400A1BD040090A7040003
:1013B00049920400C17D0400EE690400C756040090
:1013C000444404005C32040008210400411004007D
:1013D000000004003FF00300F8E0030026D2030001
:1013E000C3C30300CCB503003AA803000A9B030063
:1013F000388E0300C08103009F750300D06903008D
:10140000505E03001D53030034480300913D030068
:101410003333030016290300381F03009715030018
:10142000300C0300030303000BFA020049F1020031
:10143000BAE802005CE002002DD802002DD00200C4
:1014400059C80200B0C0020031B90200DAB102008E
:10145000AAAA0200A0A30200BC9C0200FA95020006
:101460005C8F0200DF88020082820200457C02005D
:101470002776020027700200436A02007C640200A3
:10148000D05E02003F590200C85302002364656623
:10149000696E652044454641554C545F00006265C5
:1014A00064004B6420004B6920004B7020005049C1
:1014B00044204175746F74756E652066696E69733A
:1014C000686564212050757420746865206C6173B0
:1014D00074204B702C204B6920616E64204B64207B
:1014E000636F6E7374616E74732066726F6D2062C9
:1014F000656C6F7720696E746F20436F6E666967E5
:1015000075726174696F6E2E680A005049442041FB
:1015100075746F74756E65206661696C65642120F1
:1015200074696D656F75740A0045312045727220CB
:10153000544845524D495155450045727220544812
:1015400045524D49515545204C49540054686572E7
:101550006D616C2052756E6177617900453120456F
:101560007272206465206368617566666500457205
:10157000722064652063686175666665206C6974B5
:101580000048656174696E67206661696C65640016
:10159000504944204175746F74756E6520666169A9
:1015A0006C6564212054656D706572617475726537
:1015B00020746F6F20686967680A00204B643A20C6
:1015C00000204B693A2000204B703A20000A20434B
:1015D0006C617373696320504944200A00204B6496
:1015E0003A2000204B693A2000204B703A20000A34
:1015F000204E6F206F76657273686F6F740A0020DB
:1016000054753A2000204B753A2000206D61783ADD
:101610002000206D696E3A200020643A200020628C
:101620006961733A2000504944204175746F7475A4
:101630006E652073746172740A00504944204175CC
:10164000746F74756E65206661696C6564212054E1
:10165000656D706572617475726520746F6F206856
:101660006967680A00504944204175746F74756E4B
:1016700065206661696C656421204261642065783B
:10168000747275646572206E756D6265720A0045CC
:1016900072723A207574663820666F6E74206E6FB1
:1016A0007420696E697469616C697A65642E00459D
:1016B00072723A207574663820666F6E74206E6F91
:1016C0007420696E697469616C697A65642E00457D
:1016D00072723A207574663820666F6E74206E6F71
:1016E0007420696E697469616C697A65642E0000A2
:1016F000060C00FE07022603BC01FFFE0AFE08FEE0
:1017000005080806000040F0C88888987810050889
:1017100008060000C0F88888888888F8050505064E
:1017200000012030F830200508080600002070F87D
:1017300020202020E00509090600FF2070A8A8B895
:1017400088887020050606060001E08CEA8C8A0A6B
:101750000509090600FFF8A88888888888A8F80580
:101760000A0A0600FE205050505088A8A88870032E
:10177000030306000340A040FFFFFFFFFFFFFFFF42
:10178000FFFFFFFFFFFFFFFFFFFFFFFFFFFF000067
:10179000000605FF010707060200808080808000A8
:1017A00080030303060105A0A0A0050606060000AD
:1017B00050F85050F8500509090600FF2070A8A005
:1017C0007028A87020050707060000C8C810204030
:1017D000989805070706000040A0A040A89068015F
:1017E00003030602058080800309090601FF2040EB
:1017F000408080804040200309090601FF8040406E
:1018000020202040408005070706000020A8702007
:1018100070A8200505050600012020F820200203FD
:10182000030601FFC04080050101060003F8020223
:1018300002060100C0C005070706000008101020BE
:10184000404080050707060000708898A8C8887087
:1018500003070706010040C040404040E00507077D
:10186000060000708808102040F8050707060000F1
:10187000F80810300888700507070600001030507F
:1018800090F81010050707060000F880F008088897
:1018900070050707060000304080F0888870050753
:1018A00007060000F8081010202020050707060092
:1018B00000708888708888700507070600007088A7
:1018C0008878081060020505060100C0C000C0C08D
:1018D0000206060601FFC0C000C0408003050506E1
:1018E00001012040804020050303060002F800F8B3
:1018F000030505060101804020408005070706001A
:10190000007088102020002005070706000070885E
:10191000B8A8B88070050707060000708888F888A6
:101920008888050707060000F04848704848F00519
:10193000070706000070888080808870050707060A
:101940000000F04848484848F0050707060000F83E
:101950008080F08080F8050707060000F88080F09E
:101960008080800507070600007088808098887056
:10197000050707060000888888F888888803070715
:10198000060100E04040404040E005070706000037
:10199000381010101090600507070600008890A00E
:1019A000C0A09088050707060000808080808080A6
:1019B000F805070706000088D8A8888888880507E2
:1019C000070600008888C8A89888880507070600C9
:1019D0000070888888888870050707060000F088EE
:1019E00088F080808005070706000070888888A836
:1019F0009068050707060000F08888F0A090880529
:101A000007070600007088807008887005070706C1
:101A10000000F8202020202020050707060000886D
:101A20008888888888700507070600008888888865
:101A300050502005070706000088888888A8A8500D
:101A4000050707060000888850205088880507078A
:101A50000600008888502020202005070706000087
:101A6000F80810204080F80309090601FFE0808093
:101A70008080808080E005070706000080404020CD
:101A80001010080309090601FFE020202020202073
:101A900020E005030306000520508805010106002B
:101AA000FEF8030303060105804020050505060036
:101AB0000070087888780507070600008080F088A5
:101AC0008888F0050505060000708080887005078D
:101AD000070600000808788888887805050506004C
:101AE000007088F08070050707060000304840E06D
:101AF0004040400507070600FE7088888878087017
:101B00000507070600008080F0888888880307079B
:101B10000601004000C0404040E00409090601FE03
:101B200010003010101010906005070706000080AC
:101B3000808890E09088030707060100C04040407D
:101B40004040E0050505060000D0A8A8A8A80505A6
:101B500005060000B0C888888805050506000070E5
:101B6000888888700507070600FEF0888888F0805E
:101B7000800507070600FE7888888878080805052C
:101B800005060000B0C880808005050506000078C5
:101B9000807008F00507070600002020F8202020AC
:101BA000180505050600008888889868050505065B
:101BB000000088888850200505050600008888A850
:101BC000A850050505060000885020508805070725
:101BD0000600FE8888885020408005050506000024
:101BE000F8102040F80309090601FF20404040801A
:101BF000404040200109090602FF808080808080EB
:101C00008080800309090601FF8040404020404059
:101C1000408005030306000248A890FFFFFFFFFF76
:101C2000FFFFFFFFFFFFFFFFFFFFFFFFFFFFFFFFC4
:101C3000FFFFFFFFFFFFFFFFFFFFFFFF00000006AA
:101C400005FF010707060200800080808080800574
:101C500007070600FF2070A8A0A870200507070648
:101C60000000304840E04048B0050505060000A8E7
:101C7000508850A80507070600008850F820F82073
:101C80002001070706020080808000808080040811
:101C90000806010070806090906010E0030101066A
:101CA0000107A00607070600007884B4A4B484786E
:101CB00003050506010460A06000E00505050600B7
:101CC000002850A05028050303060001F808080367
:101CD0000101060103E00607070600007884B4A4AA
:101CE000A48478050101060007F804040406010530
:101CF000609090600507070600002020F820200073
:101D0000F803050506010440A02040E00305050690
:101D10000104C0204020C0030303060105204080C9
:101D20000507070600FE88888898E880800508086F
:101D300006000078E8E8E86828282802020206027F
:101D400003C0C00302020601FE20C0030505060110
:101D50000440C04040E003050506010540A04000E6
:101D6000E0050505060000A0502850A0050A0A0657
:101D7000000040C048506050B0507810050A0A0674
:101D8000000040C048506050A8081038050A0A06F4
:101D90000000C0204830E050B0507810050707061A
:101DA000000020002020408870050A0A060000403C
:101DB0002000708888F8888888050A0A06000010C4
:101DC0002000708888F8888888050A0A06000020A4
:101DD0005000708888F8888888050A0A060000681C
:101DE000B000708888F888888805090906000050C6
:101DF00000708888F8888888050A0A060000205044
:101E000020708888F888888805070706000078A071
:101E1000A0F0A0A0B80509090600FE7088808080A7
:101E200088701060050A0A060000402000F88080D3
:101E3000F08080F8050A0A060000102000F8808073
:101E4000F08080F8050A0A060000205000F8808023
:101E5000F08080F80509090600005000F88080F045
:101E60008080F8030A0A060100804000E0404040FC
:101E70004040E0030A0A060100204000E0404040E4
:101E80004040E0030A0A06010040A000E040404054
:101E90004040E0030909060100A000E04040404046
:101EA00040E0050707060000704848E8484870050C
:101EB0000A0A06000068B0008888C8A898888805C3
:101EC0000A0A06000040200070888888888870050B
:101ED0000A0A06000010200070888888888870052B
:101EE0000A0A0600002050007088888888887005DB
:101EF0000A0A06000068B000708888888888700523
:101F000009090600005000708888888888700505D7
:101F10000506000188502050880509090600FF08C1
:101F20007098A8A8A8C87080050A0A06000040207A
:101F30000088888888888870050A0A0600001020B2
:101F40000088888888888870050A0A060000205062
:101F50000088888888888870050909060000500074
:101F600088888888888870050A0A06000010200082
:101F70008888502020202004070706010080E09078
:101F80009090E080050707060000708890A0908878
:101F9000B005080806000040200070087888780521
:101FA00008080600001020007008788878050808E6
:101FB00006000020500070087888780508080600A0
:101FC0000068B000700878887805070706000050A0
:101FD00000700878887805080806000020502070F6
:101FE00008788878050505060000702870A0780537
:101FF00007070600FE7088808870106005080806D4
:1020000000004020007088F080700508080600007D
:102010001020007088F0807005080806000020502D
:10202000007088F080700507070600005000708877
:10203000F08070030808060100804000C040404066
:10204000E0030808060100204000C0404040E003D3
:10205000080806010040A000C0404040E003070718
:10206000060100A000C0404040E00509090600004C
:102070005020500878888888700508080600006895
:10208000B000B0C888888805080806000040200015
:102090007088888870050808060000102000708885
:1020A000888870050808060000205000708888881D
:1020B0007005080806000068B00070888888700500
:1020C000070706000050007088888870050505061F
:1020D00000012000F800200505050600007898A8FA
:1020E000C8F005080806000040200088888888702D
:1020F00005080806000010200088888888700508F8
:1021000008060000205000888888887005070706A8
:10211000000050008888888870050A0A0600FE10B2
:102120002000888888502040800509090600FE802C
:1021300080F0888888F080800509090600FE50003C
:10214000888888502040804D3730322054256400E4
:102150004D36303020423020542564004D37303227
:10216000203B2564004D3730312054256400220A7D
:1021700000656E7175657565696E67202200526530
:1021800074726169742066696C616D656E74005269
:102190006574726169742066696C616D656E740046
:1021A0004D373032004D373031004368617267651A
:1021B000722066696C616D656E74004D363030203A
:1021C0004230004368616E6765722066696C616DBC
:1021D000656E74004D656E75207072696E6369700E
:1021E000616C0052657072656E64726520696D7015
:1021F000722E0050757267657220656E636F72652E
:10220000004F5054494F4E53205245505249534568
:102210003A00494D50522E205041555345004445F7
:10222000434841524745522046494C004348415299
:102230004745522046494C002020427573653A209C
:102240000020005061726B696E672E2E2E00706F39
:1022500075722064C3A96D617272657200417474F5
:10226000656E74652066696C616D656E740072657B
:1022700074726169742064752066696C616D656E45
:102280007400417474656E74650050617469656EA4
:10229000746572205356502E2E2E004275736520A1
:1022A000656E20636861756666650070722063689C
:1022B000617566666572206C612062757365005099
:1022C000726573736572206C6520626F75746F6ED2
:1022D0002E2E2E00706F757220636F6E74696E758E
:1022E00065722E2E2E006574206170702E20626F34
:1022F00075746F6E00496E73C3A97265722066694A
:102300006C616D656E74006368617267656D656EA2
:10231000742066696C616D656E7400417474656EDD
:10232000746500706F75722072657072656E64728C
:1023300065005072657373657220626F75746F6E9D
:1023400000696D7072657373696F6E0041747465B6
:102350006E7465207265707269736500507572677E
:10236000652066696C616D656E7400417474656E9C
:102370007465004368616E6765722066696C616DA3
:10238000656E7400436F6E66696775726174696F1C
:102390006E0054656D70C3A9726174757265004DED
:1023A0006F7576656D656E740052C3A9676C657252
:1023B000005375727665696C6C65720044C3A970D0
:1023C0006C6163657220580044C3A9706C616365D9
:1023D0007220590044C3A9706C61636572205A0071
:1023E00045787472756465757200290A00206279F7
:1023F0007465733B20637263200053657474696E67
:1024000067732053746F72656420280045455052ED
:102410004F4D206461746173697A65206572726FD3
:10242000722E0A00290A002062797465733B2063CA
:10243000726320002073746F726564207365747416
:10244000696E6773207265747269657665642028A9
:1024500000202863616C63756C6174656429210ACE
:102460000020213D2000454550524F4D204352430E
:10247000206D69736D61746368202D202873746FFB
:102480007265642920002053697A653A2000496EFC
:102490006465783A2000204D61726C696E3D563655
:1024A00038290A00454550524F4D207665727369B0
:1024B0006F6E206D69736D617463682028454550A7
:1024C000524F4D3D004368616E6765722066696CCE
:1024D000616D656E7400526574726169742066691D
:1024E0006C616D656E740043686172676572206629
:1024F000696C616D656E74005072C3A96368617523
:10250000666661676520706572736F005072C3A95B
:102510006368617566666167652050455447005081
:1025200072C3A963686175666661676520504C4136
:10253000005072C3A9636861756666616765207043
:102540006572736F005265746F75720045636865DC
:102550006320736F6E64650A00456368656320736A
:102560006F6E6465004F726967696E65202573251B
:10257000732573205072656D696572002050726515
:102580006D6965720A004F726967696E652000495E
:102590006E736572742066696C616D656E7420611E
:1025A0006E6420707265737320627574746F6E2030
:1025B000286F72204D313038290A00220A00556EEA
:1025C0006B6E6F776E20636F6D6D616E643A202263
:1025D00000466C757800466C7578005669746573B2
:1025E00073652076656E74696C2E00566974657328
:1025F00073652076656E74696C2E004C6974004CAE
:10260000697400427573650042757365005669749C
:10261000657373650056697465737365004D656E07
:1026200075207072696E636970616C0025753A255A
:1026300030327500253032753A25303275002575F7
:102640006420253032753A25303275002020202054
:102650002020200020202020001FE020102010201B
:10266000101020102020102010303008400480036B
:10267000001FE03FF03FF03FF01FE01FE03FF03F62
:10268000F03FF00FC0078003003FFFF038007030CC
:10269000FC3020FC102078102030102C00D02E317F
:1026A000D02F7BD02F7BD02E31D02C00D0203010DB
:1026B00020781020FC1030FC303800703FFFF03FD5
:1026C000FFF03800703186302387102787902F87DE
:1026D000D02F03D020301020781020781020301018
:1026E0002F03D02F87D0278790238710318630384B
:1026F00000703FFFF01FFFF81FFFF80410400208B2
:1027000020020820041040082080104100104100E1
:102710000820800410400000001FFFF81FFFF82071
:10272000636F6C6420657874727573696F6E207066
:10273000726576656E7465640A00202D20496E7698
:10274000616C6964206578747275646572206E7559
:102750006D62657220210A0070012C019001270131
:10276000B0012201C0011D01F00118011002130186
:1027700030020E016002090190020401C002FF0054
:102780000003FA004003F5008003F000D003EB00E3
:102790002004E6007004E100E004DC004005D700FE
:1027A000C005D2004006CD00D006C8008007C30097
:1027B0003008BE00F008B900C009B400B00AAF008C
:1027C000B00BAA00D00CA500000EA000500F9B007B
:1027D000C01096005012910000148C00C0158700A4
:1027E000B0178200B0197D00D01B7800001E730066
:1027F00040206E0090226900F024640040275F00B2
:1028000090295A00E02B5500102E500020304B002C
:1028100010324600E033410090353C00103737005D
:1028200070383200A0392D00B03A2800A03B2300B8
:10283000603C1E00103D1900903D1400103E0F003A
:10284000703E0A00C03E0500003F0000403FFBFF15
:10285000803FF6FFC03FF1FF4531204572722054A2
:102860004845524D495155450045727220544845DE
:10287000524D49515545204C495400546865726D7C
:10288000616C2052756E6177617900453120457227
:10289000722054454D502E204D41580045727220F3
:1028A00054454D502E204D4158204C4954004D4127
:1028B0005854454D502074726967676572656400AD
:1028C0004531204572722054454D502E204D494EC1
:1028D000004572722054454D502E204D494E204CDB
:1028E0004954004D494E54454D50207472696767F4
:1028F0006572656400202F002042403A0020403A73
:102900000020573A004731205831313720593233AF
:1029100034204636303030004D6573757265207056
:102920006F696E742025692F2569002E0A002F001B
:1029300050726F62696E67206D65736820706F6991
:102940006E742000202844525952554E29004732B7
:1029500039204175746F20426564204C6576656C42
:10296000696E67003F20284C2C522C462C422920AF
:102970006F7574206F6620626F756E64732E0A0027
:102980003F2856296572626F7365206C6576656CA9
:1029900020697320696D706C61757369626C652064
:1029A00028302D34292E0A00426164205A20766195
:1029B0006C75650A004E6F2062696C696E656172A4
:1029C00020677269640A00204500205A00205900DF
:1029D000204D39322058004D3630303A2054726F35
:1029E000702066726F696400486F74656E6420744D
:1029F0006F6F20636F6C640A00496E736572742098
:102A000066696C616D656E7420616E6420707265BC
:102A1000737320627574746F6E0A005072657373FD
:102A200020627574746F6E20746F20686561742005
:102A30006E6F7A7A6C650A0020496E76616C696403
:102A400020657874727564657220004368617267EE
:102A50006572206D6D0043686172676572206D6DEF
:102A60000052657472616974206D6D0052657472F4
:102A7000616974206D6D004469616DC3A8747265ED
:102A80002066696C2E004469616DC3A8747265206C
:102A900066696C2E00417272C3AA74004D61726344
:102AA0006865004520656E206D6D33004176616E6E
:102AB0006365204B004176616E6365204B00436F78
:102AC0006E6669672E206176616E63C3A965000832
:102AD0002046616374657572000820466163746501
:102AE00075720008204D61780008204D617800085B
:102AF000204D696E0008204D696E00417272C3AAB4
:102B000074004D61726368650054656D702E2041DC
:102B100075746F2E00436F6E6669672E2061766153
:102B20006E63C3A965003344205072696E74657288
:102B3000207072C3AA74652E00496D70726573733C
:102B4000696F6E00496D70722E20656E2070617520
:102B50007365000000754300006B4300007A43007A
:102B60000000000000000000000000FFFDFCFAF87B
:102B7000F6F4F2F0EEECEAE9E7E5E3E1E0DEDCDAD8
:102B8000D9D7D5D4D2D0CFCDCBCAC8C7C5C3C2C080
:102B9000BFBDBCBAB9B7B6B4B3B2B0AFADACAAA9F9
:102BA000A8A6A5A4A2A1A09E9D9C9A999897959449
:102BB0009392908F8E8D8B8A898887868483828179
:102BC000807F7E7D7B7A7978777675747372717089
:102BD0006F6E6D6C6B6A696867666564636261607D
:102BE0005F5E5D5C5B5A5958585756555453525165
:102BF00050504F4E4D4C4B4A4A4948474646454433
:102C000043424241403F3E3E3D3C3B3B3A393838EF
:102C100037363535343332323130302F2E2E2D2C9D
:102C20002B2B2A292928272726252524232322213F
:102C30002120201F1E1E1D1C1C1B1B1A19191818D1
:102C4000171616151514131312121111100F0F0E5B
:102C50000E0D0D0C0C0B0A0A0909080807070606D9
:102C60000505040403030202010000562064C3A901
:102C7000706C2E206D696E00562064C3A9706C2E96
:102C8000206D696E00566D696E2000566D696E206C
:102C900000566D6178204500566D617820450056DC
:102CA0006D6178205A00566D6178205A00566D612A
:102CB00078205900566D6178205900566D61782052
:102CC0005800566D6178205800436F6E6669672E14
:102CD000206176616E63C3A96500416D617820450E
:102CE00000416D6178204500416D6178205A0041B6
:102CF0006D6178205A00416D6178205900416D6105
:102D000078205900416D6178205800416D6178202C
:102D10005800412064C3A9706C2E00412064C3A9EF
:102D2000706C2E00412072657472616974004120DC
:102D30007265747261697400416363C3A96CC3A94D
:102D4000726174696F6E00416363C3A96CC3A97239
:102D50006174696F6E00436F6E6669672E206176DD
:102D6000616E63C3A965004D34323800496E6974E1
:102D700069616C6973657220454550524F4D00463C
:102D8000696C616D656E740054656D70C3A9726184
:102D900074757265005061732F6D6D004A65726BBA
:102DA00000416363C3A96CC3A9726174696F6E004B
:102DB00056C3A96C6F636974C3A90052C3A9676C39
:102DC0002E2064C3A963616C206F726967696E65A8
:102DD00000436F6E66696775726174696F6E004556
:102DE0006E72656769737472657220636F6E66696F
:102DF000672E004C6974004C69740042757365005D
:102E00004275736500566974657373652076656EE7
:102E100074696C2E00566974657373652076656EEF
:102E200074696C2E00436F6E6669677572617469B0
:102E30006F6E004368617267657220636F6E6669CA
:102E4000672E005265737461757265722064C3A940
:102E5000666175747300456E726567697374726537
:102E60007220636F6E6669672E0052C3A9676C6536
:102E700072207072C3A963682E20504554470052D7
:102E8000C3A9676C6572207072C3A963682E205055
:102E90004C410044C3A963616C616765205A0044DA
:102EA000C3A963616C616765205A00436F6E6669F0
:102EB000672E206176616E63C3A965004D656E75EE
:102EC000207072696E636970616C005665206A6576
:102ED000726B005665206A65726B00567A206A65CF
:102EE000726B00567A206A65726B005679206A65AB
:102EF000726B005679206A65726B005678206A659D
:102F0000726B005678206A65726B00436F6E66695B
:102F1000672E206176616E63C3A9650045207061EC
:102F2000732F6D6D0045207061732F6D6D005A20F9
:102F30007061732F6D6D005A207061732F6D6D007D
:102F400059207061732F6D6D0059207061732F6D62
:102F50006D0058207061732F6D6D00582070617383
:102F60002F6D6D00436F6E6669672E206176616E0E
:102F700063C3A96500496E697469616C69736572A0
:102F800020454550524F4D003F00416E6E756C65B7
:102F90007200496E69742E00FFFFE7FFFC0003FF1B
:102FA000FC0FFFC0FFFCFFFFE7FFFE0003FFFE1F5B
:102FB000FFE1FFFEFFFFE7FFFE0003FFFF3FFFF320
:102FC000FFFF00E007000E000000073800738007D5
:102FD00000E007000E3FF00007380073800700E0B4
:102FE00007FFFE3FF3FFFF380073800700E007FF95
:102FF000FC3FF3FFFF380073800700E007FFFE3F50
:10300000F3FFFF380073800700E007000E000000A8
:1030100007380073800700E007000E000000073843
:103020000073800700E007000F0003FFFF3FFFF37E
:10303000FFFF00E007000F0003FFFE1FFFE1FFFEA0
:1030400000E007000F0003FFFC0FFFC0FFFC0000C3
:103050000000000000000000000000000000000070
:1030600000000000000000000000FFFFFFFFFFFF66
:10307000FFFFFFFFFFFFFFFFFFFFFFFFFFFFFFFF60
:10308000FFFFFFFFFFFF2020506C616E6E657242F4
:10309000756666657242797465733A2000204672DF
:1030A0006565204D656D6F72793A2000436F6D70D4
:1030B000696C65643A2041756720313220323031C5
:1030C000390A00207C20417574686F723A20287498
:1030D000726F7563682C204372656177736F6D65DD
:1030E00020436F726520322E30290A003230313988
:1030F0002D30382D303800204C61737420557064A9
:10310000617465643A2000322E302E302D524330E7
:103110000A004D61726C696E0020536F66747761AE
:1031200072652052657365740A0020576174636884
:10313000646F672052657365740A002042726F776E
:103140006E206F75742052657365740A002045788F
:103150007465726E616C2052657365740A00506FFD
:1031600077657255700A0073746172740A00427553
:1031700074C3A9657320256320256320256320255A
:103180006300205A3A0020593A0020583A00656EF0
:103190006473746F7073206869743A2000486172B8
:1031A00064636F6465642044656661756C74205364
:1031B000657474696E6773204C6F616465640A009E
:1031C000F4010000F4010000640000008813000016
:1031D0000000FA430000FA430000A040000048420B
:1031E0000000A0420000A0420000C8430000BA4214
:1031F0003A0A0020204D36303320002055004C0084
:1032000046696C616D656E74206C6F61642F756EBC
:103210006C6F6164206C656E677468733A0A002095
:10322000204D393030204B004C696E656172204171
:103230006476616E63653A0A0020204D383531208E
:103240005A005A2D50726F6265204F66667365741E
:103250000020440020490020204D3330342050000D
:1032600020440020490020204D33303120500050B0
:1032700049442073657474696E67733A0A00204686
:103280000020420020480020204D313435205300DA
:103290004D6174657269616C206865617475702038
:1032A000706172616D65746572733A0A00204A003C
:1032B00020204732392057204900205A0020204D35
:1032C0003432302053004175746F20426564204CC5
:1032D0006576656C696E673A0A00205A00205900CD
:1032E00020204D323036205800486F6D65206F66C3
:1032F000667365743A0A00204500205A0020590080
:1033000020580020540020530020204D323035201A
:10331000420020453C6D61785F655F6A65726B3E77
:103320000020583C6D61785F785F6A65726B3E2063
:10333000593C6D61785F795F6A65726B3E205A3CDB
:103340006D61785F7A5F6A65726B3E004164766199
:103350006E6365643A20423C6D696E5F7365676DAC
:10336000656E745F74696D655F75733E20533C6D67
:10337000696E5F66656564726174653E20543C6D7C
:10338000696E5F74726176656C5F666565647261B3
:1033900074653E0020540020520020204D3230340D
:1033A000205000416363656C65726174696F6E20C3
:1033B00028756E6974732F7332293A20503C7072ED
:1033C000696E745F616363656C3E20523C72657424
:1033D000726163745F616363656C3E20543C747218
:1033E0006176656C5F616363656C3E0A0020450031
:1033F000205A0020590020204D3230312058004DF5
:103400006178696D756D20416363656C6572617487
:10341000696F6E2028756E6974732F7332293A0AAA
:1034200000204500205A0020590020204D32303322
:103430002058004D6178696D756D20666565647210
:10344000617465732028756E6974732F73293A0A45
:103450000053746570732070657220756E69743ADC
:103460000A0020204D3230302044300A0020204D08
:103470003230302044002044697361626C65640A14
:103480000046696C616D656E742073657474696E55
:1034900067733A0020204D3134392043203B2055BA
:1034A0006E69747320696E2043656C736975730A65
:1034B0000020286D6D290020204732312020202057
:1034C0003B20556E69747320696E206D6D006F70BE
:1034D000656E00545249474745524544003A200022
:1034E0007A5F6D696E00795F6D696E00785F6D69F6
:1034F0006E005265706F7274696E6720656E6473DA
:10350000746F70207374617475730A004361703A4C
:10351000006F6B00526573656E643A200053544F20
:103520005050C389005072696E7465722073746F55
:10353000707065642064756520746F206572726FA9
:1035400072732E2046697820746865206572726FE8
:103550007220616E6420757365204D39393920748D
:103560006F20726573746172742E202854656D70BB
:103570006572617475726520697320726573657414
:103580002E20536574206974206166746572207200
:10359000657374617274696E67290A004E6F204307
:1035A0006865636B73756D2077697468206C696EEC
:1035B00065206E756D6265722C204C617374204CB1
:1035C000696E653A2000636865636B73756D206D85
:1035D00069736D617463682C204C617374204C694D
:1035E0006E653A20004C696E65204E756D6265729D
:1035F000206973206E6F74204C617374204C696E67
:1036000065204E756D6265722B312C204C61737490
:10361000204C696E653A20004D31313000000021A8
:1036200000240027002A0000002200250028002B8B
:1036300000000020002300260029000202020202EE
:103640000202020404040404040404030303030345
:10365000030303010101010101010101020408103A
:10366000204080010204081020408001020408105C
:103670002040808040201008040201000000010268
:1036800000090A0000000004030807000000000011
:10369000000000000000000000000044C3A9706C9E
:1036A0006163657220302E316D6D0044C3A9706C6A
:1036B0006163657220316D6D0044C3A9706C6163F4
:1036C00065722031306D6D0044C3A9706C61636513
:1036D0007220756E20617865004275736520747282
:1036E0006F702066726F69646500457874727564E6
:1036F0006575720044C3A9706C61636572205A00DD
:1037000044C3A9706C6163657220590044C3A970F9
:103710006C61636572205800626564002C207379C7
:103720007374656D2073746F7070656421204865D3
:10373000617465725F49443A200045727220646585
:103740002063686175666665206C69740048656110
:1037500074696E67206661696C65640045727220E9
:10376000544845524D49515545204C4954005468E0
:1037700065726D616C2052756E61776179004531BB
:103780002045727220646520636861756666650015
:1037900048656174696E67206661696C656400459F
:1037A000312045727220544845524D4951554500CB
:1037B000546865726D616C2052756E617761790035
:1037C00070ED11241FBECFEFD0E4DEBFCDBF12E0FD
:1037D000A0E0B1E0ECE2F3EF01E00BBF02C0079024
:1037E0000D92A837B107D9F721E1A8E7B2E001C0EF
:1037F0001D92AD30B207E1F71BE1C1EEDBE104C081
:103800002197FE010E9419F7C03ED107C9F70E9417
:103810003CEA0C9494F90C9400002F923F924F9242
:103820005F926F927F928F929F92AF92BF92CF9250
:10383000DF92EF92FF920F931F93CF93DF93CDB759
:10384000DEB7E8970FB6F894DEBF0FBECDBF88AFE6
:103850002091C9032DA721E02093C9038091020E76
:103860008D3409F44EC3843511F40C94492F8734F8
:1038700011F00C94642F8091000E9091010E8C3108
:10388000910509F414C18CF48430910509F4A7C0A2
:103890001CF4029738F131C38531910511F40C9471
:1038A000662F4B9709F4DAC028C38A32910509F4D0
:1038B00062C244F48D31910509F409C14E9709F4AF
:1038C0001AC11BC38B35910509F4D3C18C35910501
:1038D00009F4D3C18A35910509F00FC3109285020E
:1038E0000C94662F80917601882311F40C94662F36
:1038F00098E7892E91E0992E27E3E22E23E0F22E1D
:1039000003E114E036EBA32E33E0B32E41E8C42EDE
:1039100042E0D42E712CD4018D914D010E94AC3324
:10392000882319F10E942C33F6012081211104C053
:1039300020918502222341F0D8012D913D914D9196
:103940005C910E942BF70AC0B3E07B1639F0F501B9
:1039500020813181428153810E942AF7D7016D93E2
:103960007D938D939C9313970AC0F8018081918178
:10397000A281B381F70180839183A283B38373947F
:10398000F4E0EF0EF11C0C5F1F4F24E0A20EB11CFF
:103990003FEFC31AD30A44E07412BDCF40E050E0B9
:1039A000BA0186E40E94955F20E030E0A9010E9400
:1039B000AEF8181684F40E942C3320E030E040E783
:1039C00052E40E94AEF760933F01709340018093F0
:1039D0004101909342010E94BC540C94662F80E5F3
:1039E0000E94AC33882329F00E9490A16B017C01D6
:1039F00003C0C12CD12C760183E50E94AC3388230F
:103A000061F00E942C3320E030E04AE754E40E9449
:103A1000E9F20E9427F86B017C010E9431BF80917E
:103A2000CD03811105C060E085E991E00E94FFB6F9
:103A30000E94DFE1C60ED71EE81EF91E0E94DFE1DC
:103A4000DC01CB018C199D09AE09BF09B7FD02C08D
:103A50000C94662F80E00E94403BF0CF0E94687972
:103A600081110C94662F80E090E0A0E2B1E489839C
:103A70009A83AB83BC8380E090E0A1E6B3E48D83BE
:103A80009E83AF83B88780E090E0A0EAB1E48987A5
:103A90009A87AB87BC8760E070E080E50E943DA11B
:103AA000BE016F5F7F4F0E94B9B50C94662F809165
:103AB000C6038770873011F00C947C2F60E08FE490
:103AC0000E94F9A181110C94662F0C947C2F0E9406
:103AD000687981110C94662F80912304882311F456
:103AE0000C944C3060E08FE40E94F9A181110C9499
:103AF000662F0C944C3020E030E044E352E46091B7
:103B000013047091140480911504909116040E947E
:103B10002AF7AB01BC0188E50E94955F6E8B7F8B15
:103B2000888F998F20E030E040EE50E460911704D8
:103B3000709118048091190490911A040E942AF738
:103B4000AB01BC0189E50E94955F9B01AC016983D3
:103B50007A838B839C836E897F89888D998D0E945F
:103B600090DC882311F40C94662F80E00E9482364A
:103B70000E94115861E085E40E94F9A1182F21E00C
:103B8000482FBE016F5F7F4FCE0146960E94C379DA
:103B90006B017C019B01AC010E942CF981115FC07B
:103BA0008E889F88A88CB98C20E030E0A901C501DF
:103BB000B4010E9483F287FF05C027E137EB41E59E
:103BC00058EB04C027E137EB41E558E3C501B401E8
:103BD0000E942BF7AB01BC018FEC91E00E947D3F6E
:103BE00089809A80AB80BC8020E030E0A901C501CB
:103BF000B4010E9483F287FF05C027E137EB41E55E
:103C000058EB04C027E137EB41E558E3C501B401A7
:103C10000E942BF7AB01BC018AEC91E00E947D3F32
:103C200020E030E0A901C701B6010E9483F287FFBE
:103C300005C027E137EB41E558EB04C027E137EB3E
:103C400041E558E3C701B6010E942BF7AB01BC0167
:103C500085EC91E00E947D3F8AE00E943C3A0E9400
:103C6000F857113011F40E9433BC0E94EB5A0C94A7
:103C7000662F209385020C94662FF8E72F2EF1E033
:103C80003F2EABE2EA2EA3E0FA2E83E194E09BA361
:103C90008AA3B6EBCB2EB3E0DB2E00E010E0D1011F
:103CA0008D911D010E94AC33882309F44BC00E9402
:103CB0002C332B013C01133049F0F6012081318176
:103CC000428153810E942AF72B013C01AAA1BBA18A
:103CD0002D913D914D915C91C301B2010E942AF753
:103CE0004B015C012DEB37E346E855EB0E94AEF843
:103CF00087FD0AC02DEB37E346E855E3C501B40163
:103D00000E9483F21816F4F4133051F440921F0409
:103D100050922004609221047092220401E012C0AB
:103D2000A5019401F70160817181828193810E94D4
:103D30002BF7D7016D937D938D939C931397812FD0
:103D40000E949C541F5FB4E0EB0EF11CEAA1FBA1A2
:103D50003496FBA3EAA3F4E0CF0ED11C143009F093
:103D60009ECF002321F08FE194E00E9442BF0E9489
:103D7000EB5A0C94662F80917601882311F40C94F1
:103D8000662F89E40E94AC33082F882321F00E941B
:103D90000EA2E82E01C0E12C8AE40E94AC33182F59
:103DA000882321F00E940EA2F82E01C0F12C0023DE
:103DB00019F024E02E1528F0112349F034E03F15C6
:103DC00030F487ED91E00E94433A0C94662F80E135
:103DD000E3E1F4E0A7E3B3E001900D928A95E1F707
:103DE0000023F1F020916A0D30916B0D4E2D4203AE
:103DF000B001439F700D112480917B0390917C034F
:103E0000680F791F072E000C880B990B0E948AF20D
:103E100060933703709338038093390390933A0388
:103E20001123F1F020916C0D30916D0D5F2D520337
:103E3000B001539F700D112480917D0390917E03FA
:103E4000680F791F072E000C880B990B0E948AF2CD
:103E500060933B0370933C0380933D0390933E0338
:103E600060E080E50E94F9A1882381F10023B1F090
:103E700020E030E044E352E460913703709138036E
:103E80008091390390913A030E942BF76093370396
:103E9000709338038093390390933A031123B1F060
:103EA00020E030E040EE50E460913B0370913C0331
:103EB00080913D0390913E030E942BF760933B035A
:103EC00070933C0380933D0390933E0340E050E0A9
:103ED000BA0186E40E94955F6B017C0120E030E02E
:103EE000A9010E94AEF818160CF075CD20E030E064
:103EF00040E752E4C701B60164CD0E94D4770C9428
:103F0000662F8091000E9091010E8B39910509F476
:103F1000A1C40CF013C18936910509F487C40CF0D3
:103F20005CC08C34910509F439C39CF5823191054C
:103F300009F403C5BCF497FF02C00C94462F8230ED
:103F400091050CF4D3C1419711F00C94462F60E019
:103F500086E092E00E94FFB65E985E9815985E98A3
:103F60000C94662F8A32910509F4EDC22CF44F9718
:103F700009F43BC20C94462F8934910509F406C319
:103F80008B34910511F00C94462F0E94D2B00C9402
:103F9000662F8335910509F4CCC47CF481359105F5
:103FA00009F4AEC40CF0C1C48D34910511F00C9429
:103FB000462F0E940BB10C94662F8535910509F4AC
:103FC000F1C40CF4BAC48C35910509F406C58836E1
:103FD000910509F4E7C20C94462F8237910509F444
:103FE0009EC50CF58D36910509F400C364F48B363B
:103FF000910509F478C40CF455C41092C8031092CA
:104000004D010C94662F8F36910509F45FC30CF4B3
:104010004AC38037910509F4A4C38137910509F497
:10402000A8C30C94462F8737910509F4CFC50CF02F
:1040300075C08537910509F478C50CF08DC58337B7
:10404000910511F00C94462F8EEF93E00E94433AB5
:1040500060E08EEE93E00E947BDE60E089ED93E00D
:104060000E947BDE61E082ED93E00E947BDE61E0F6
:1040700087EC93E00E947BDE61E087EB93E00E9497
:104080007BDE60E08EEA93E00E947BDE61E084EA02
:1040900093E00E947BDE61E08AE993E00E947BDE90
:1040A00061E082E993E00E947BDE61E084E893E0D6
:1040B0000E947BDE61E086E793E00E947BDE60E0A9
:1040C00087E693E00E947BDE60E089E593E00E9452
:1040D0007BDE60E083E493E00E947BDE60E082E3CD
:1040E00093E00E947BDE60E083E293E00E947BDE4F
:1040F00060E08EE093E00E947BDE61E08BEF92E077
:104100000E947BDE60E08EEE92E00E947BDE60E04B
:104110008AED92E00E947BDE0C94662F8937910530
:1041200009F461C50CF456C58C38910509F44BC3EC
:104130008139910509F45FC50C94462F8139A1E0BE
:104140009A0711F40C94132A0CF057C08C3D91057A
:1041500009F46BC71CF58B3C910509F423C674F474
:10416000883C910509F4A5C5893C910509F4F1C580
:104170008E3B910511F00C94462F43C38D3C910565
:1041800009F467C60CF430C68E3C910509F475C677
:10419000833D910509F493C60C94462F8D32E1E0DE
:1041A0009E0711F40C94D92884F4823E910509F4F9
:1041B0009FC78C3221E0920711F40C94C4288D3DE6
:1041C000910511F00C94462F3DC78F3231E09307D3
:1041D00011F40C94102A14F40C94CC29803351E07F
:1041E000950711F40C9459298039914011F00C94E1
:1041F000462F0E9431BF0C94662F873FB1E09B078A
:1042000011F40C948F2CECF5853AF1E09F0711F432
:104210000C947B2BCCF48A3931E0930709F4A5C2C6
:10422000843A41E0940711F40C94192A82399140A0
:1042300011F00C94462F80E00E947BBC0E9433BC9E
:104240000E94EB5A0C94662F843FA1E09A0711F468
:104250000C94892C3CF48C3A914011F40C94E32B8F
:104260000C94462F853FF1E09F0711F40C948C2CA1
:10427000863F914011F00C94462F0E9419D60C9461
:10428000662F8D3B32E0930711F40C94352D9CF48E
:10429000883552E0950711F40C94E42C8B35A2E09C
:1042A0009A0711F40C94E72C883F914011F00C947C
:1042B000462F0C94962C8335E3E09E0711F40C9462
:1042C000A72C3CF48E3B924011F40C943E2E0C949F
:1042D000462F843833E0930711F40C94FC2E873E6C
:1042E000934011F40C94382F0C94462FA090FE0D9F
:1042F000B090FF0D80E50E94AC33882359F00E94F6
:1043000090A16B017C0111E0672B682B692B31F4C4
:1043100010E004C010E0C12CD12C760183E50E948E
:10432000AC33882311F40C944F300E942C3320E0DE
:1043300030E04AE754E40E94E9F20E9427F86B015A
:104340007C0111110BC0672B682B692B39F4A11468
:10435000B10421F0D5018C91811102C010E001C09F
:1043600011E00E9431BF112341F08091F8038111C7
:1043700009C0C5010E94DDB605C060E086EF91E08E
:104380000E94FFB61091C90383E08093C90381E0C6
:104390008093C803C114D104E104F104B1F00E9478
:1043A000DFE1C60ED71EE81EF91E0E94DFE1DC0128
:1043B000CB018C199D09AE09BF09B7FF0EC08091D2
:1043C000C80381110C94543008C08091C80388231D
:1043D00021F080E00E94403BF8CF0E9439B7109254
:1043E000C8031093C9030C94662F0E9483B07B010D
:1043F0008C0120E831E541E050E00E948AF6C901D5
:104400006DE671E00E94D2F64B015C01C801B70174
:1044100020E13EE040E050E00E948AF6CA01B90186
:1044200028E130E040E050E00E948AF6762E672EC8
:10443000C62ED72EECE32E2E312C412C512CC80148
:10444000B701A20191010E948AF6F62EE72ECA0159
:10445000B901A20191010E948AF6CB018E010F5F82
:104460001F4F8114910499F0EF92FF927F936F9305
:104470006F927F92BF92AF929F928F928FE392E062
:104480009F938F931F930F930E941BF213C0A1144D
:10449000B104B1F0EF92FF927F936F936F927F928E
:1044A000BF92AF928FE292E09F938F931F930F93EF
:1044B0000E941BF20FB6F894DEBF0FBECDBF30C016
:1044C000CD2879F0EF92FF927F936F936F927F9256
:1044D00083E292E09F938F931F930F930E941BF2AE
:1044E000E9CF892B69F0EF92FF927F936F938BE175
:1044F00092E09F938F931F930F930E941BF2DACF4A
:10450000EF92FF9287E192E09F938F931F930F9317
:104510000E941BF20F900F900F900F900F900F9032
:104520008091F803811103C0C8010E94DDB60E948A
:10453000693AB80183E592E00E94523A8AE00E940B
:104540003C3A0C94662F83E50E94AC33882311F427
:104550000C94662F0E94A0A1F82E6FEF7FEF80E5EC
:104560000E9412A28C0197FF02C00C94662FE82EC5
:1045700060E089E40E94F9A181110C945930802FE8
:104580000E94E0E88111D1C50C94593080E50E9469
:10459000633381110C946C300C94662F0E94F6B03A
:1045A0000C94662F8091DB0A83FF02C00C94662F67
:1045B0000E94B4A187FF02C00C94662F83E50E947D
:1045C000AC33882379F00E942C330E9420F88B01B1
:1045D000CB010E94AB9F0635110524F40E940BB15C
:1045E0000E9439B70E940CEA0C94662F8091DB0A76
:1045F00083FF02C00C94662F0E94B4A1F82E87FF9F
:1046000002C00C94662F83E50E94AC33082F811101
:1046100006C082E50E94AC33182F8823C1F10E94A6
:104620002C330E9420F8CB010E94AB9F0E942C33B8
:1046300020E030E04AEA52E40E9483F2181614F4B3
:104640000C9477300E940BB10E9439B760916604D8
:1046500070916704072E000C880B990B0E948AF258
:104660004B015C01409062045090630460906404CC
:1046700070906504A30192010E94AEF8181614F41C
:104680000C948A30002311F40C947B3011E00E94CA
:104690000CEA112311F40C94662F602F8F2D0E94C9
:1046A0004C9B0C94662F8EE40E94AC33882311F44B
:1046B0000C94662F0E941C336093850E7093860EB7
:1046C0008093870E9093880E0C94662F83E50E944A
:1046D0006333882331F060E083E50E94DDA180939D
:1046E000DB0A0E94693A80E992E00E94433A809195
:1046F000DB0A882369F176E8E72E72E0F72E00E006
:1047000010E020E08091DB0A90E0A0E0B0E0002E15
:1047100004C0B695A795979587950A94D2F780FF20
:104720000EC0DD24D394D20E222319F08CE20E9415
:104730003C3AF701859194910E94433A2D2D0F5FE9
:104740001F4F92E0E90EF11C05301105D9F604C0A7
:1047500082E892E00E94433A8AE00E943C3A0C943C
:10476000662F80E090E00E94913A0E94CE390C942E
:10477000662F83E50E94AC33882381F00E94A0A1BC
:10478000282F30E02D33310524F4809300010C9460
:10479000662F8CE3809300010C94662F0E94693A87
:1047A000C0900001D12CE12CF12C87E992E00E940D
:1047B000433A4AE0C701B6010E94DA3D8AE00E940E
:1047C0003C3A0C94662F8091DB0A83FF02C00C9464
:1047D000662F83E50E94AC33882311F40C94662F76
:1047E0000E942C330E9420F86337710514F063E7B0
:1047F00070E07093FA0E6093F90E0E94C7980C94C3
:10480000662F8091DB0A83FF02C00C94662F83E53C
:104810000E94AC338EA781110C948D3082E50E94EA
:10482000AC3381110C948D300C94662F0E94B4A18E
:10483000182F87FD0AC087EC92E00E94433A812F2F
:104840000E94DA9A8AE00E943C3A2DA52093C9037F
:104850000C94033383E50E94AC33882311F40C9449
:10486000662F0E94A0A1182F90E0CD970CF01CE3BA
:1048700010937C020E94DFE16B017C01212F30E06C
:10488000A8EEB3E00E94B7F6C60ED71EE81EF91ECA
:10489000C0927802D0927902E0927A02F0927B0282
:1048A0000C94662F60E080E50E94DDA181110C94DC
:1048B000662F81E40E946333882321F060914C04C9
:1048C00070E002C06FEF70E083E50E943DA18F3F72
:1048D000910519F010F08FEF90E080934C048093D5
:1048E000F00E0C94662F60E080E50E94DDA181113E
:1048F0000C94662F10924C041092F00E0C94662FBC
:104900000E94BC9F0E940BB10E94DCC00E9450A17B
:1049100068EE73E080E090E00E94AA3960E08AECE3
:1049200092E00E94FFB60C94662F109284020C94C1
:10493000662F209384020C94662F83E50E94AC338B
:104940008823A1F00E942C3320E030E04AE754E4B1
:104950000E94E9F20E9427F860930101709302011E
:1049600080930301909304010C94662F88E50E94C4
:10497000633381110C94163289E50E9463338111EF
:104980000C9416328AE50E94633381110C9416321E
:1049900085E40E94633381110C9416320E94DCC0BE
:1049A0000C94662F83E50E946333882311F40C94E2
:1049B000662F0E942C3320E030E04AE754E40E9446
:1049C000E9F20E9427F860937D0270937E02809343
:1049D0007F02909380020C94662F0E94B4A187FFFF
:1049E00002C00C94662F9091FA0D94FD04C0909132
:1049F000FC0D97FF0AC038E7C32E31E0D32E4CEDF3
:104A0000E42E4AE0F42E10E00AC09091FD0D937060
:104A100091F7682F81E00E9455A10C94662FD60172
:104A20008D916D010E94AC33882309F46DC0133061
:104A300009F063C00E942C334B015C0120E030E0A0
:104A400040EA51E40E9483F287FF4EC0A501940121
:104A50006091FC0A7091FD0A8091FE0A9091FF0A14
:104A60000E94AEF72B013C019B01AC016091440414
:104A70007091450480914604909147040E94E9F2A8
:104A800060934404709345048093460490934704D4
:104A9000A301920160910C0B70910D0B80910E0B94
:104AA00090910F0B0E94E9F260930C0B70930D0B29
:104AB00080930E0B90930F0B609130047091310432
:104AC00080913204909133040E9488F2A3019201F4
:104AD0000E94E9F20E9427F8609330047093310439
:104AE00080933204909333048092FC0A9092FD0AE2
:104AF000A092FE0AB092FF0A07C00E942C33F70171
:104B0000648B758B868B978B1F5FF4E0EF0EF11C27
:104B1000143009F084CF0E940DBF0C94662F0E94C0
:104B200031BF0E94EB5A0C94662F8091FE0D90913C
:104B3000FF0D009769F0DC012C91222349F02091B0
:104B4000F80321110C94662F0E94DDB60C94662F99
:104B50000E9439B70C94662F0091FE0D1091FF0D45
:104B600083E0F12C40E08150E1F0F8019081292FA1
:104B70002B7F2134C1F721812133A9F7913421F012
:104B8000953421F441E002C0FF24F39498012E5F94
:104B90003F4F89012F5F3F4FD8019C919032C9F35D
:104BA000E2CF41110E94693AFF2021F085EC94E0A8
:104BB0000E94433AF80181918F01882319F00E94E5
:104BC0003C3AF8CF0E948E3F0C94662F0E94EFD59E
:104BD0000C94662F81E08093CF0B8093CE0B0E94C4
:104BE0000AD60C94662F1092CF0B1092CE0B0E9417
:104BF0000AD60C94662F60E070E083E50E9412A252
:104C00008C0111270230110544F00E94653A89ECAD
:104C100094E00E94433A0C94662F88E40E94AC33DF
:104C20008823A9F00E940EA28A3A91053CF08530B3
:104C3000F1E09F072CF084E091E002C08AEA90E066
:104C4000F801EE0FFF1FE457FC4F9183808386E449
:104C50000E94AC33882381F00E940EA297FD07C00A
:104C60008F3F910529F024F08FEF90E001C080E0A4
:104C7000F801EA58F24F808382E40E94AC33882323
:104C800011F40C94662F0E940EA28530910534F029
:104C9000843791052CF083E790E002C085E090E036
:104CA000F801EE0FFF1FE858F24F918380830C94B8
:104CB000662F0E94B4A1182F87FF02C00C94662FA4
:104CC00084E40E946333882309F43FC00E942C339C
:104CD0006B017C0101E020E030E0A9010E9483F239
:104CE000811101C000E000938C0B20E030E0A901AD
:104CF000C701B6010E9483F2882339F10E942C3348
:104D000024E01202F0011124EF56F44F6083718306
:104D10008283938320E030E0A9016091910B709130
:104D2000920B8091930B9091940B0E9483F28111CE
:104D30000CC080E090E0A0EEBFE38093910B9093D5
:104D4000920BA093930BB093940B0E9422BA0C94F5
:104D5000662F0E94B4A187FF02C00C94662FA8E7BB
:104D6000EA2EA1E0FA2E0CED1AE0BCEECB2EBAE052
:104D7000DB2ED7018D917D010E946333882349F09A
:104D80000E942C330E9427F8F8016083718382838C
:104D900093830C5F1F4FC016D10659F70E94C6BE01
:104DA0000C94662F0E94B4A187FF02C00C94662F5A
:104DB000F8E7EF2EF1E0FF2E0CED1AE0D7018D9110
:104DC0007D010E946333882339F00E942C33F8015F
:104DD00064A375A386A397A30C5F1F4FFAE00C3E54
:104DE0001F0761F70C94662F8091FB0D87FF02C0AF
:104DF0000C943B328091FC0D8E7011F00C943B3280
:104E00004091100B5091110B6091120B7091130B8C
:104E100081EF94E00E947D3F4091140B5091150B5F
:104E20006091160B7091170B8EEE94E00E947D3FFF
:104E30004091180B5091190B60911A0B70911B0B3C
:104E40008BEE94E00E947D3F8AE00E943C3A0C94F5
:104E5000662F8091FA0D827111F00C94813280914D
:104E6000FC0D8C7811F00C9481328091FD0D8370D3
:104E700011F00C9481320C94662F78E7C72E71E004
:104E8000D72EE2EDEE2EEBE0FE2E10E0D6018D9156
:104E90006D010E946333882351F00E942C33F70187
:104EA0006083718382839383812F0E949C541F5F50
:104EB000F4E0EF0EF11C133049F70C94B71E0E947A
:104EC000693A83E595E00E94433A83E50E946333A3
:104ED000882321F00E94E9A180933301809133015E
:104EE000882319F087ED95E002C083ED95E00E94DC
:104EF000433A8BE495E00E94433A2091B603309107
:104F0000B7034091B8035091B90360911B017091B0
:104F10001C0180911D0190911E010E942BF7AB0195
:104F2000BC0189E495E00E947D3F2091BA03309155
:104F3000BB034091BC035091BD036091230170916C
:104F4000240180912501909126010E942BF7AB014D
:104F5000BC0186E495E00E947D3F2091BE03309124
:104F6000BF034091C0035091C10360912B01709128
:104F70002C0180912D0190912E010E942BF7AB0105
:104F8000BC0183E495E00E947D3F8BE395E00E94A5
:104F9000433A2091B6033091B7034091B803509142
:104FA000B90360911F0170912001809121019091BE
:104FB00022010E942BF7AB01BC0189E395E00E941E
:104FC0007D3F2091BA033091BB034091BC035091C7
:104FD000BD03609127017091280180912901909172
:104FE0002A010E942BF7AB01BC0186E395E00E94E9
:104FF0007D3F2091BE033091BF034091C00350918B
:10500000C10360912F017091300180913101909125
:1050100032010E942BF7AB01BC0183E395E00E94B3
:105020007D3F8AE00E943C3A51C783E50E94AC3341
:10503000882309F44BC70E940EA2909335018093F8
:10504000340144C70E94B4A1F82E87FD3FC783E511
:105050000E94AC330F2D0F2C000C110B882369F12B
:105060000E940EA2F801EE0FFF1FE05BFE4F91833E
:105070008083000F111F000F111F98012C5B3E4F02
:105080007901BC01990F880B990B0E948AF22AE0E2
:1050900037ED43E25CE30E94E9F2F801E357F44F95
:1050A00020813181428153810E94E9F2D7016D93C1
:1050B0007D938D939C93139709C70E94693A85E469
:1050C0000E943C3A80E38F0D0E943C3AF801EE0FBB
:1050D000FF1FE05BFE4F6081718183E695E00E94D7
:1050E000703E85E20E943C3A8AE00E943C3AEEC65D
:1050F00080E50E946333882309F4E8C660E070E02D
:1051000080E50E9412A2F82E6FEF7FEF83E50E94E8
:1051100012A28C010196039708F0D8C6F7FCD6C6F8
:105120008F2D0E94E0E8882339F00E94653A8BE6D3
:1051300095E00E94433ACAC60E9431BF60E08F2DBD
:105140000E94F7E00F3FBFEF1B0731F00130110560
:1051500071F000E010E00DC08F2D0E949FE031E063
:1051600020E0892B09F030E0032F122F02C001E06C
:1051700010E08F2D0E949FE08017910709F4A6C6CA
:1051800080E00E94403BF5CF64E071E083E50E943F
:105190003DA18C0168EE73E080E50E943DA1893855
:1051A000E3E19E0710F088E893E1B8010E94B0B6F1
:1051B0008DC660E085E40E94DDA1811173C080E5A9
:1051C0000E946333882351F00E942C33609369045A
:1051D00070936A0480936B0490936C0489E40E943A
:1051E0006333882381F00E942C332CEA35EC47E2AC
:1051F0005EE30E94E9F260936D0470936E04809305
:105200006F049093700484E40E946333882381F0D8
:105210000E942C332CEA35EC47E25EE30E94AEF7A5
:105220006093710470937204809373049093740478
:105230000E94693A4091690450916A0460916B043C
:1052400070916C0484E995E00E947D3F2CEA35EC76
:1052500047E25EE360916D0470916E0480916F048B
:10526000909170040E94AEF7AB01BC0180E995E01B
:105270000E947D3F2CEA35EC47E25EE360917104C9
:105280007091720480917304909174040E94E9F209
:10529000AB01BC018CE895E00E947D3F8AE00E9452
:1052A0003C3A14C60E94653A8AE795E00E94433A68
:1052B0000DC680E50E946333882351F00E942C3391
:1052C0006093FC0E7093FD0E8093FE0E9093FF0E84
:1052D00089E40E946333882381F00E942C332CEAF6
:1052E00035EC47E25EE30E94E9F26093000F7093B1
:1052F000010F8093020F9093030F84E40E946333A5
:10530000882381F00E942C332CEA35EC47E25EE3DF
:105310000E94AEF76093040F7093050F8093060F01
:105320009093070F0E94693A4091FC0E5091FD0E38
:105330006091FE0E7091FF0E80EA95E00E947D3F25
:105340002CEA35EC47E25EE36091000F7091010FAB
:105350008091020F9091030F0E94AEF7AB01BC0148
:105360008CE995E00E947D3F2CEA35EC47E25EE354
:105370006091040F7091050F8091060F9091070FB7
:105380000E94E9F2AB01BC0188E995E00E947D3FF3
:105390008AE00E943C3A9AC583E50E946333182F45
:1053A000882371F00E942C330E9420F870934901E9
:1053B0006093480121E0672B09F020E020935D0411
:1053C00080E50E946333882359F020914801309191
:1053D0004901232B11F00E94E9A180935D0476C559
:1053E000111174C50E94693A80EC95E00E94433A1D
:1053F00080915D04882319F088EA95E002C084EA70
:1054000095E00E94433A60914801709149018FEA0A
:1054100095E00E94703E8BEA95E00E94433A56C5A3
:105420000E94AC5F53C581E00E947BBC0E94EB5A96
:105430004DC583E50E946333882349F00E94E9A1AA
:10544000182F811106C080E00E94823602C01091A0
:1054500023048091130490911404A0911504B09139
:10546000160489839A83AB83BC838091170490913F
:105470001804A0911904B0911A048D839E83AF8300
:10548000B88780911B0490911C04A0911D04B091D9
:105490001E0489879A87AB87BC8786E50E946333A1
:1054A000682E80916A0D90916B0D892B09F4B0C024
:1054B00083E40E946333882309F4B5C00E942C332F
:1054C0001B012C01912CA12C28ECB22E32ECC32E06
:1054D000712C812CF8ECF8A722E429A735E03AA337
:1054E0004AA141504AA34F3F09F43EC055E05CA396
:1054F00095E0949FC00111249BA78AA79CA191507D
:105500009CA39F3F69F3EAA5FBA5E90FF11DEE0FF0
:10551000FF1FEE0FFF1FE458F24FD080E180F280B2
:105520000381272D382D48A559A56D2D7E2D8F2D52
:10553000902F0E9483F287FF04C07D2C8E2CF8A64A
:1055400009A7292D3A2D4B2D5C2D6D2D7E2D8F2DEC
:10555000902F0E94AEF818161CF0D92C75010C2D56
:105560009D2C5701C02ECACF292D3A2D4B2D5C2DD5
:10557000672D782D88A599A50E942BF720E030E0B3
:1055800040E05FE30E94E9F2A20191010E942BF743
:105590001B012C012DEB37E346E855EB0E94AEF8DA
:1055A00087FD0AC02DEB37E346E855E3C201B101A0
:1055B0000E9483F21816BCF580E00E94823605E056
:1055C000B02E85E0A82EBA94BFEFBB1661F105E0BE
:1055D000AB9C600111240150B0F37601E00EF11C88
:1055E000C701880F991F880F991FFC01E458F24FDB
:1055F0007F01A201910160817181828193810E946A
:105600002AF7D7016D937D938D939C931397E3CFE6
:10561000111102C0662089F00E94693A89E196E082
:105620000E94433A17C0662041F080916A0D909124
:105630006B0D892B11F00E94F23E8AE50E946333C4
:10564000882329F00E942C3340E00E94E536812F08
:105650000E948236112351F080912304811106C0EB
:105660000E94653A8AEF95E00E94433A0E94693AA7
:105670008CEE95E00E94433A80912304882319F030
:1056800087ED95E002C083ED95E00E94433A8AE001
:105690000E943C3A0E94693A8FED95E00E94433A9D
:1056A000C0904F03D0905003E0905103F09052030C
:1056B00020E030E0A901C701B6010E94AEF818163B
:1056C00044F442E0C701B6010E947D3E0E948E3F35
:1056D00004C08AED95E00E94433A4CE050E063E15B
:1056E00074E0CE0101960E943DF9892B09F4EEC3C6
:1056F0000E94EB5AEBC36FEF7FEF89E40E9412A286
:10570000182F6FEF7FEF8AE40E9412A2082F8AE51C
:105710000E946333F82E811105C081E50E94633336
:10572000D82E01C0D12C17FD06C007FD04C0F11012
:1057300009C0D11007C00E94653A87E496E00E9434
:10574000433AC4C3153010F4053038F00E94653A6E
:1057500088E296E00E94433AB9C3E12E110FFF0898
:10576000002E000C110B0E942C33DD2099F025E057
:105770002E9DF0012F9DF00D1124E00FF11FEE0F73
:10578000FF1FEE0FFF1FE458F24F2081318142814D
:10579000538103C020E030E0A901A5E0AE9DF001F7
:1057A000AF9DF00D11240E0F1F1F000F111F000FD2
:1057B000111F0458124F0E942BF7F8016083718368
:1057C0008283938383C30E94687981117FC308E732
:1057D00012E123E134E03BA32AA3AE014F5F5F4F08
:1057E0005A01EDEC8E2EE2E19E2E1A01F801659130
:1057F000759185919491AAA1BBA1CD90DD90ED907A
:10580000FD90BBA3AAA3A70196010E942AF72B0132
:105810003C01F101608371838283938320E030E057
:1058200040EA51EC0E94AEF887FD0AC020E030E06B
:1058300040EA51E4C301B2010E9483F218162CF42D
:10584000F401849118160CF4D3C6D101CD90DD90EB
:10585000ED90FD901D0120E030E040EA51ECC701E1
:10586000B6010E94AEF887FD0AC020E030E040EAB1
:1058700051E4C701B6010E9483F21816A4F40E94F5
:10588000653A8BE896E00E94433A61E08DE796E046
:105890000E94FFB60E9470C968E270E088EC90E058
:1058A0000E94B0B613C30C5F1F4FBFEF8B1A9B0A49
:1058B000E4E8F2E1E017F10709F098CF72EDE72E86
:1058C0007BE0F72E10E0F50181919191A191B191CA
:1058D0005F01F70181939193A193B1937F01812F90
:1058E0000E949C541F5F133071F70E94EB5A60E0D6
:1058F00087E696E00E94FFB663E972E084E690E0F6
:105900000E94B0B66AEB72E084E690E00E94B0B606
:10591000DDC20E94A172DAC20E946FD7D7C261E0D5
:1059200083E50E94F9A10E947DD7D0C281E08093D7
:10593000650D0E94476C1092650D882309F4C6C25C
:105940000E94693A89EA96E00E94433ABFC28AE51A
:105950000E94AC33882331F10E942C336B017C010F
:1059600020E030E040EA51EC0E94AEF887FD13C021
:1059700020E030E040EA51E4C701B6010E9483F222
:1059800018164CF0C092C203D092C303E092C40335
:10599000F092C5039BC20E94653A84EB96E00E9498
:1059A000433A94C20E94693A4091C2035091C303A2
:1059B0006091C4037091C50381ED96E00E947D3F24
:1059C0008AE00E943C3A82C20E9421A27FC20E94C9
:1059D000B4A1082F87FD7AC285E50E94633388232E
:1059E000F9F0E02E002E000CFF080E942C334B0132
:1059F0005C0120E030E0A9010E94AEF887FF04C0FE
:105A0000B7FAB094B7F8B094F70163E0EE0FFF1F58
:105A10006A95E1F7E259F24F80829182A282B382C5
:105A20008CE40E946333882309F450C2002E000CDA
:105A3000110B0E942C336B017C0120E030E0A901A6
:105A40000E94AEF887FF04C0F7FAF094F7F8F094DC
:105A500053E0000F111F5A95E1F7F801E259F24F98
:105A6000C482D582E682F78231C20E94B4A1182F87
:105A700087FD2CC28AE50E94AC33882349F040E0C0
:105A800050E0BA018AE50E94955F4B015C0106C0B7
:105A9000812C912C40EAA42E41E4B42E412F62E0E7
:105AA00085E00E94836B20E030E0A901C501B401CC
:105AB0000E94AEF818167CF580E090E0A0EAB0E411
:105AC00089839A83AB83BC8320911B0430911C048F
:105AD00040911D0450911E04C501B4010E942BF792
