:100000000C9485160C94AF160C94AF160C94AF1686
:100010000C94AF160C94AF160C94AF160C94AF164C
:100020000C94AF160C94AF160C94AF160C94AF163C
:100030000C94AF160C94F54B0C94AF160C94AF16B1
:100040000C94AF160C94EA600C940FE40C94AF1669
:100050000C945D380C9453380C94AF160C94AF1676
:100060000C94AF160C94AF160C94AF160C94AF16FC
:100070000C94AF160C94AF160C94AF160C94AF16EC
:100080000C94D5310C94AF160C94AF163AC7F9C541
:1000900030C676C730C630C630C630C630C630C669
:1000A00030C630C630C630C630C630C630C630C6A0
:1000B00030C630C630C630C630C630C630C630C690
:1000C00030C630C630C630C670C730C630C630C63F
:1000D00030C630C630C630C630C649C730C630C656
:1000E00030C630C630C630C630C630C630C630C660
:1000F0008DC72DC6D3E0D6E0C9E0CDE0EDE0EDE060
:10010000DAE0DEE0E4E0E8E07EE383E388E392E344
:10011000C0E3C0E39CE3A4E3ACE3B6E34E414E4945
:100120004E495459494E46CDCCCC3D0AD7233C17B5
:10013000B7D13877CC2B329595E6241FB14F0A0002
:100140000020410000C84200401C4620BCBE4CCAF2
:100150001B0E5AAEC59D74434F4D4D554E494341FC
:1001600054494F4E0044525952554E004552524F39
:10017000525300494E464F004543484F00536C656B
:1001800065702E2E2E00486F6D65205859204669E7
:100190007273740A00486F6D652058592046697261
:1001A000737400205A3A200020593A2000426564B6
:1001B00020583A20004D65736820706F696E742076
:1001C00063616E6E6F74206265207265736F6C760A
:1001D00065640A00436C69636B20746F2052657319
:1001E000756D652E2E2E004E6F204D6F76652E009C
:1001F000456E642066696C65206C6973740A004200
:100200006567696E2066696C65206C6973740A00A5
:10021000286E6F2066696C65290043757272656E81
:10022000742066696C653A20005344207072696ED0
:1002300074696E67206279746520004E6F74205374
:1002400044207072696E74696E670A002E0A004459
:10025000656C6574696F6E206661696C65642C20DD
:1002600046696C653A200046696C652064656C657A
:100270007465643A002569730025696D20256973EA
:10028000002569682025696D20256973002569644A
:10029000202569682025696D202569730025697905
:1002A00020256964202569682025696D20256973EA
:1002B000005072696E742074696D653A20006F6633
:1002C0006600780173016C01650157014445425590
:1002D000473A004D31313320530020573A004265F0
:1002E0006420436F6F6C696E672E2E2E004265642A
:1002F0002048656174696E672E2E2E006F6B003387
:1003000044205072696E746572204F46462E00205C
:100310004500205A00205900204D39322058004312
:1003200048414D4245525F54454D50455241545508
:100330005245004D4F54494F4E5F4D4F4445530079
:10034000544845524D414C5F50524F5445435449D7
:100350004F4E004155544F5245504F52545F5344F5
:100360005F5354415455530050524F4D50545F53B6
:100370005550504F525400454D455247454E4359F4
:100380005F50415253455200434153455F4C4947EA
:1003900048545F4252494748544E45535300544FC6
:1003A00047474C455F4C494748545300534F4654C8
:1003B000574152455F504F574552004255494C44B2
:1003C0005F50455243454E54004C4556454C494EAE
:1003D000475F44415441005A5F50524F42450041EB
:1003E00055544F4C4556454C005052494E545F4A67
:1003F0004F420050524F4752455353004155544FBE
:100400005245504F52545F54454D5000564F4C5535
:100410004D455452494300454550524F4D004249C5
:100420004E4152595F46494C455F5452414E5346E6
:1004300045520053455249414C5F584F4E5F584F0B
:100440004646004649524D574152455F4E414D4543
:100450003A4D61726C696E204372656177736F6D9E
:1004600065436F726520322E302E302D524330207E
:10047000534F555243455F434F44455F55524C3AA5
:1004800068747470733A2F2F6769746875622E638D
:100490006F6D2F74726F7563682F4D61726C696E2A
:1004A0002050524F544F434F4C5F56455253494F83
:1004B0004E3A312E30204D414348494E455F545904
:1004C00050453A3344205072696E74657220455825
:1004D0005452554445525F434F554E543A3120557E
:1004E0005549443A63656465326132662D34316141
:1004F000322D343734382D396231322D633535633E
:1005000036326633363766660A002F2F20004D31AB
:10051000343520533C696E6465783E206F757420D5
:100520006F662072616E67652028302D31290A00C0
:10053000205400205200416363656C6572617469E8
:100540006F6E3A2050005741524E494E4721204C81
:100550006F77205A204A65726B206D6179206C6537
:10056000616420746F20756E77616E7465642070AD
:1005700061757365732E0A004F4646004F4E00208A
:100580005A00205900580020204D61783A20002060
:100590005A00205900580020204D696E3A2000531F
:1005A0006F667420656E6473746F70733A200020F8
:1005B000466C6F773A200050726F7465637465649F
:1005C0002050696E0A00206F7574206F662072617A
:1005D0006E67650A00536572766F20003A2000202E
:1005E000536572766F2000496E76616C6964206590
:1005F000787472756465720A0020643A0020693A62
:100600000020703A0020643A0020693A0020703AD5
:100610000064697300656E0043290A0061626C65BD
:100620006420286D696E2074656D702000436F6CC6
:10063000642065787472756465732061726520004A
:100640004D65736820706F696E742063616E6E6FA4
:1006500074206265207265736F6C7665640A004D64
:1006600034323120696E636F727265637420706119
:1006700072616D657465722075736167650A004FFC
:10068000666673657473204170706C6965640045BB
:1006900072723A20546F6F206661722100546F6F3E
:1006A000206661722066726F6D2072656665726584
:1006B0006E636520706F696E740A00454550524F35
:1006C0004D204F4B0A003F5A206F7574206F6620F3
:1006D00072616E676520282D323020746F203230B1
:1006E000290A0050726F6265205A204F6666736552
:1006F000743A2000496E76616C6964206578747282
:10070000756465720A004572726F7220777269743F
:10071000696E6720746F20454550524F4D210A0085
:100720000F150E1216170E1303021A1401000E0CE9
:10073000190DFF180C040001627573793A2070617D
:100740007573656420666F7220696E7075740A0037
:10075000627573793A2070617573656420666F7293
:1007600020757365720A00627573793A2070726F32
:1007700063657373696E670A004B494C4C20636173
:100780007573656420627920746F6F206D7563687E
:1007900020696E6163746976652074696D65202DCA
:1007A0002063757272656E7420636F6D6D616E6427
:1007B0003A2000506C656173652052657365740062
:1007C0005052494E5445522048414C544544004BE8
:1007D000494C4C45442E20005072696E746572205D
:1007E00068616C7465642E206B696C6C28292063C9
:1007F000616C6C6564210A0053544F505045442E7F
:1008000020005072696E7465722073746F70706529
:10081000642064756520746F206572726F72732E28
:100820002046697820746865206572726F72206155
:100830006E6420757365204D39393920746F2072CC
:100840006573746172742E202854656D70657261D1
:10085000747572652069732072657365742E2053F8
:1008600065742069742061667465722072657374A2
:10087000617274696E67290A006563686F3A0045A2
:1008800072726F723A0042696C696E656172204CD7
:100890006576656C696E6720477269643A0A002064
:1008A0005A3A0020593A0020436F756E7420583A26
:1008B0000020453A00205A3A0020593A00583A00A0
:1008C00020636F6C6420657874727573696F6E2035
:1008D00070726576656E7465640A00486F6D696E46
:1008E00067204661696C656400000000000000003C
:1008F0000000000000000048420000484200008064
:10090000405761726E696E673A20486F6D696E6715
:100910002042756D702044697669736F72203C20A7
:10092000310A000202040000A0400000A0400000C4
:1009300000400000754300006B4300007A43FFFF56
:10094000FF46696C2E204469612E0046696C2E209A
:100950004469612E004F6666004F6E004520696E47
:10096000206D6D5E3300416476616E636564205373
:10097000657474696E6773002008204661637400B3
:1009800020082046616374002008204D6178002013
:1009900008204D6178002008204D696E0020082055
:1009A0004D696E004F6666004F6E004175746F743E
:1009B000656D7000416476616E6365642053657493
:1009C00074696E6773005654726176204D696E00CB
:1009D0005654726176204D696E00566D696E0056F0
:1009E0006D696E00566D6178204500566D61782006
:1009F0004500566D6178205A00566D6178205A0086
:100A0000566D6178205900566D6178205900566DF9
:100A10006178205800566D617820580041647661F5
:100A20006E6365642053657474696E67730024F4A3
:100A3000D43050C38E20C2A24017828B7011127A1C
:100A4000910D816CD90AA861E108C7586607615108
:100A500043061E4B5D05C145A7041A411104093D1B
:100A60009803713931034036DB0265339102D4308B
:100A70005402802E1D02632CEE01752AC501B02898
:100A8000A001102781018F2564012B244B01E02256
:100A90003401AC211F018D200D01801FFC00841E3C
:100AA000ED00971DDF00B81CD200E61BC600201B1E
:100AB000BC00641AB200B219A8000A19A0006A1892
:100AC0009900D117910040178B00B516840031169C
:100AD0007E00B31579003A157300C7146F005814DF
:100AE0006A00EE1366008813630025135E00C712C8
:100AF0005B006C12570015125400C11151007011A7
:100B00004F0021114B00D61049008D1047004610B0
:100B1000440002104200C00F4000800F3E00420F10
:100B20003C00060F3B00CB0E3800930E37005C0EE6
:100B30003500270E3400F30D3200C10D3100900D49
:100B40003000600D2E00320D2D00050D2C00D90C4B
:100B50002B00AE0C2900850C29005C0C2700350CFD
:100B600027000E0C2600E80B2400C40B2400A00B69
:100B700023007D0B23005A0B2100390B2100180B99
:100B80002000F80A1F00D90A1E00BB0A1E009D0A99
:100B90001D00800A1D00630A1C00470A1B002C0A66
:100BA0001B00110A1A00F7091A00DD091900C4090F
:100BB0001900AB091900920917007B091800630995
:100BC00017004C09160036091600200916000A09FC
:100BD0001500F5081500E0081400CC081400B8084A
:100BE0001400A4081400900813007D0812006B087C
:100BF0001300580812004608120034081100230898
:100C000011001208110001081100F0071000E007A0
:100C10001000D0071000C0071000B0070F00A10798
:100C2000100091070E0083070F0074070F0065077F
:100C30000E0057070E0049070E003B070D002E0758
:100C40000E0020070D0013070D0006070D00F90622
:100C50000C00ED060D00E0060C00D4060C00C806E2
:100C60000C00BC060C00B0060C00A4060B00990694
:100C70000C008D060B0082060B0077060B006C063D
:100C80000B0061060A0057060B004C060A004206DC
:100C90000A0038060A002E060A0024060A001A0670
:100CA0000A001006090007060A00FD050900F40500
:100CB0000900EB050900E2050900D9050900D00586
:100CC0000900C7050900BE050900B5050800AD0506
:100CD0000800A50509009C050800940508008C057E
:100CE0000800840508007C050800740508006C05F0
:100CF0000700650508005D050700560508004E055C
:100D000007004705070040050800380507003105C2
:100D100007002A050700230507001C050600160525
:100D200007000F0507000805060002050700FB0481
:100D30000600F5040700EE040600E8040600E204DD
:100D40000700DB040600D5040600CF040600C90432
:100D50000600C3040600BD040600B7040600B10483
:100D60000500AC040600A6040600A00405009B04D0
:100D7000060095040500900406008A040500850419
:100D80000500800406007A0405007504050070045F
:100D900005006B04050066040500610405005C04A1
:100DA000050057040500520405004D0405004804E1
:100DB0000500430405003E0404003A040500350420
:100DC0000500300404002C0405002704040023045B
:100DD00005001E0404001A04040016040500110492
:100DE00004000D04040009040500040404000004C8
:100DF0000400FC030400F8030400F4030400F003FF
:100E00000400EC030400E8030400E4030400E0032E
:100E10000400DC030400D8030400D4030400D0035E
:100E20000400CC030400C8030300C503030024F43A
:100E300004D9201BC40C5C0E9804C4095F0265072A
:100E40007101F405F900FB04B30048048700C103F5
:100E500069005803550003034500BE023A008402AE
:100E6000310053022A002902250004022000E40177
:100E70001C00C8011900AF0117009801140084017B
:100E80001300710110006101100051010E004301B7
:100E90000D0036010B002B010B0020010B0015018A
:100EA00009000C01090003010800FB000800F30021
:100EB0000800EB000700E4000600DE000600D80092
:100EC0000600D2000600CC000500C7000500C200E5
:100ED0000500BD000400B9000400B5000400B10025
:100EE0000400AD000400A9000400A5000300A20056
:100EF00003009F0004009B0003009800030095007E
:100F0000020093000300900003008D0002008B009C
:100F100003008800020086000200840003008100B4
:100F200002007F0002007D0002007B0002007900C9
:100F300002007700010076000200740002007200D7
:100F40000100710002006F0002006D0001006C00E2
:100F500002006A00010069000200670001006600EB
:100F600001006500010064000200620001006100F0
:100F70000100600001005F0002005D0001005C00F4
:100F800001005B0001005A000100590001005800F7
:100F900001005700010056000100550001005400F7
:100FA00001005300000053000100520001005100F5
:100FB0000100500001004F0001004E0000004E00F3
:100FC00001004D0001004C0001004B0000004B00EF
:100FD00001004A00010049000100480000004800EB
:100FE00001004700010046000000460001004500E6
:100FF00000004500010044000100430000004300E0
:1010000001004200000042000100410000004100D8
:101010000100400001003F0000003F0001003E00D1
:1010200000003E0001003D0000003D0001003C00CA
:1010300000003C0000003C0001003B0000003B00C1
:1010400001003A0000003A000100390000003900B8
:1010500001003800000038000000380001003700AF
:1010600000003700010036000000360000003600A6
:10107000010035000000350000003500010034009B
:101080000000340000003400010033000000330091
:101090000000330001003200000032000000320086
:1010A000010031000000310000003100010030007B
:1010B000000030000000300001002F0000002F0071
:1010C00000002F0000002F0001002E0000002E0065
:1010D00000002E0001002D0000002D0000002D005A
:1010E00000002D0001002C0000002C0000002C004E
:1010F00000002C0001002B0000002B0000002B0042
:1011000000002B0001002A0000002A0000002A0035
:1011100000002A0001002900000029000000290029
:10112000000029000000290001002800000028001C
:10113000000028000000280000002800010027000F
:101140000000270000002700000027000000270003
:1011500001002600000026000000260000002600F6
:1011600000002600010025000000250000002500E9
:1011700000002500000025000000250001002400DB
:1011800000002400000024000000240000002400CF
:1011900001002300000023000000230000002300C2
:1011A00000002300000023000000230001002200B3
:1011B00000002200000022000000220000002200A7
:1011C0000000220001002100000021000000210099
:1011D000000021000000210000002100000021008B
:1011E000010020000000200000002000000020007E
:1011F000000020000000200000002000000020006F
:1012000001001F0000001F0000001F0000001F0061
:1012100000001F0000001F0000001F0001001E0052
:1012200000001E0000001E0000001E000000043729
:1012300000001E290000511B00005810000010097A
:101240000000CC040000780200004101000023648B
:101250006566696E652044454641554C545F000003
:10126000626564004B6420004B6920004B702000D5
:10127000504944204175746F74756E652066696EBF
:101280006973686564212050757420746865206CEA
:10129000617374204B702C204B6920616E64204B6D
:1012A0006420636F6E7374616E74732066726F6D09
:1012B0002062656C6F7720696E746F20436F6E6675
:1012C000696775726174696F6E2E680A00504944CF
:1012D000204175746F74756E65206661696C656414
:1012E000212074696D656F75740A0045312054487A
:1012F00045524D414C2052554E41574159004245AF
:101300004420544845524D414C2052554E4157417E
:101310005900546865726D616C2052756E61776119
:10132000790045312048656174696E6720466169BE
:101330006C6564004265642048656174696E67206D
:101340004661696C65640048656174696E67206612
:1013500061696C656400504944204175746F74750F
:101360006E65206661696C6564212054656D7065E9
:1013700072617475726520746F6F20686967680A9E
:1013800000204B643A2000204B693A2000204B702B
:101390003A20000A20436C6173736963205049440A
:1013A000200A00204B643A2000204B693A2000209C
:1013B0004B703A20000A204E6F206F76657273687A
:1013C0006F6F740A002054753A2000204B753A2044
:1013D00000206D61783A2000206D696E3A2000206F
:1013E000643A200020626961733A20005049442029
:1013F0004175746F74756E652073746172740A0040
:10140000504944204175746F74756E65206661693A
:101410006C6564212054656D7065726174757265C8
:1014200020746F6F20686967680A00504944204142
:1014300075746F74756E65206661696C65642120D2
:10144000426164206578747275646572206E756D92
:101450006265720A004572723A20757466382066B9
:101460006F6E74206E6F7420696E697469616C6947
:101470007A65642E004572723A207574663820666B
:101480006F6E74206E6F7420696E697469616C6927
:101490007A65642E004572723A207574663820664B
:1014A0006F6E74206E6F7420696E697469616C6907
:1014B0007A65642E0000060C00FE07022603BC01BC
:1014C0007FFE08FE08FE05080806000040F0C888F8
:1014D00088987810050808060000C0F88888888871
:1014E00088F80505050600012030F83020050808B9
:1014F0000600002070F820202020E00509090600E1
:10150000FF2070A8A8B8888870200506060600018C
:10151000E08CEA8C8A0A0509090600FFF8A8888889
:10152000888888A8F8050A0A0600FE205050505006
:1015300088A8A8887003030306000340A040FFFFAB
:10154000FFFFFFFFFFFFFFFFFFFFFFFFFFFFFFFFAB
:10155000FFFFFFFF0000000605FF0107070602006E
:1015600080808080800080030303060105A0A0A086
:1015700005060606000050F85050F8500509090607
:1015800000FF2070A8A07028A8702005070706009B
:1015900000C8C8102040989805070706000040A022
:1015A000A040A8906801030306020580808003091B
:1015B000090601FF20404080808040402003090947
:1015C0000601FF804040202020404080050707069C
:1015D000000020A8702070A8200505050600012045
:1015E00020F820200203030601FFC040800501010E
:1015F000060003F8020202060100C0C00507070644
:101600000000081010204040800507070600007009
:101610008898A8C8887003070706010040C04040AA
:101620004040E0050707060000708808102040F8D9
:10163000050707060000F80810300888700507073E
:1016400006000010305090F8101005070706000043
:10165000F880F00808887005070706000030408011
:10166000F0888870050707060000F8081010202091
:1016700020050707060000708888708888700507B5
:1016800007060000708888780810600205050601CA
:1016900000C0C000C0C00206060601FFC0C000C0F6
:1016A000408003050506010120408040200503031A
:1016B000060002F800F803050506010180402040FD
:1016C000800507070600007088102020002005070D
:1016D000070600007088B8A8B880700507070600E4
:1016E00000708888F8888888050707060000F04899
:1016F00048704848F0050707060000708880808021
:101700008870050707060000F04848484848F0057B
:101710000707060000F88080F08080F805070706BC
:101720000000F88080F080808005070706000070C8
:10173000888080988870050707060000888888F8E8
:10174000888888030707060100E04040404040E0E9
:1017500005070706000038101010109060050707F5
:101760000600008890A0C0A090880507070600002A
:10177000808080808080F805070706000088D8A850
:10178000888888880507070600008888C8A8988880
:101790008805070706000070888888888870050714
:1017A00007060000F08888F08080800507070600A3
:1017B0000070888888A89068050707060000F088F0
:1017C00088F0A090880507070600007088807008E0
:1017D0008870050707060000F8202020202020053B
:1017E000070706000088888888888870050707062C
:1017F0000000888888885050200507070600008868
:10180000888888A8A8500507070600008888502007
:10181000508888050707060000888850202020206F
:10182000050707060000F80810204080F8030909A2
:101830000601FFE080808080808080E00507070649
:101840000000804040201010080309090601FFE055
:1018500020202020202020E0050303060005205042
:10186000880501010600FEF8030303060105804018
:10187000200505050600007008788878050707062A
:1018800000008080F0888888F0050505060000705B
:101890008080887005070706000008087888888817
:1018A000780505050600007088F0807005070706BA
:1018B0000000304840E04040400507070600FE7049
:1018C0008888887808700507070600008080F088FF
:1018D0008888880307070601004000C0404040E0B8
:1018E0000409090601FE1000301010101090600568
:1018F000070706000080808890E0908803070706AD
:101900000100C04040404040E0050505060000D011
:10191000A8A8A8A8050505060000B0C888888805FD
:10192000050506000070888888700507070600FE18
:10193000F0888888F080800507070600FE78888890
:1019400088780808050505060000B0C88080800575
:10195000050506000078807008F0050707060000FE
:101960002020F8202020180505050600008888881A
:10197000986805050506000088888850200505053B
:101980000600008888A8A8500505050600008850B4
:101990002050880507070600FE8888885020408070
:1019A000050505060000F8102040F80309090601A6
:1019B000FF2040404080404040200109090602FFCE
:1019C0008080808080808080800309090601FF80FC
:1019D000404040204040408005030306000248A8E4
:1019E00090FF626564002C2073797374656D2073B9
:1019F000746F7070656421204865617465725F4919
:101A0000443A20004265642048656174696E67202D
:101A10004661696C65640048656174696E6720663B
:101A200061696C65640042454420544845524D410B
:101A30004C2052554E4157415900546865726D61B2
:101A40006C2052756E61776179004531204865617F
:101A500074696E67204661696C65640048656174ED
:101A6000696E67206661696C656400453120544881
:101A700045524D414C2052554E41574159005468F2
:101A800065726D616C2052756E6177617900202DF1
:101A900020496E76616C696420657874727564653E
:101AA00072206E756D62657220210A0070012C0132
:101AB00090012701B0012201C0011D01F0011801B0
:101AC0001002130130020E016002090190020401AC
:101AD000C002FF000003FA004003F5008003F0009D
:101AE000D003EB002004E6007004E100E004DC0019
:101AF0004005D700C005D2004006CD00D006C80082
:101B00008007C3003008BE00F008B900C009B40067
:101B1000B00AAF00B00BAA00D00CA500000EA000C8
:101B2000500F9B00C01096005012910000148C00C2
:101B3000C0158700B0178200B0197D00D01B780057
:101B4000001E730040206E0090226900F0246400A3
:101B500040275F0090295A00E02B5500102E5000BE
:101B600020304B0010324600E033410090353C00FD
:101B70001037370070383200A0392D00B03A2800F5
:101B8000A03B2300603C1E00103D1900903D140056
:101B9000103E0F00703E0A00C03E0500003F0000EE
:101BA000403FFBFF803FF6FFC03FF1FF453120542F
:101BB0004845524D414C2052554E415741590042E3
:101BC000454420544845524D414C2052554E4157B2
:101BD000415900546865726D616C2052756E617771
:101BE0006179004531204572723A204D4158544583
:101BF0004D50004572723A204D415854454D502089
:101C0000424544004D415854454D50207472696717
:101C10006765726564004531204572723A204D490E
:101C20004E54454D50004572723A204D494E544530
:101C30004D5020424544004D494E54454D5020746E
:101C40007269676765726564004D383420582059A1
:101C5000205A204500202F002042403A0020403AE0
:101C60000043616E6E6F74206F70656E20737562D5
:101C7000646972200053442063617264206F6B0AB0
:101C8000006F70656E526F6F74206661696C656479
:101C90000A00766F6C756D652E696E6974206661D9
:101CA000696C65640A00534420696E69742066613A
:101CB000696C0A004D3234004D32332025730057D1
:101CC000726974696E6720746F2066696C653A206A
:101CD000002E0A006F70656E206661696C65642C69
:101CE0002046696C653A20002E0A006F70656E20F0
:101CF0006661696C65642C2046696C653A20004613
:101D0000696C652073656C65637465640A002053B3
:101D1000697A653A200046696C65206F70656E656A
:101D2000643A2000667265736800646F696E6700CC
:101D30002066696C653A20004E6F772000454E445E
:101D400020535542524F5554494E450A00222070A7
:101D50006F73002220706172656E743A22005355D1
:101D600042524F5554494E452043414C4C207461DA
:101D7000726765743A2200747279696E6720746FB5
:101D80002063616C6C207375622D67636F646520DE
:101D900066696C6573207769746820746F6F206D55
:101DA000616E79206C6576656C732E204D415820EC
:101DB0006C6576656C2069733A310A00FFFFE7FFB6
:101DC000FC0003FFFC0FFFC0FFFCFFFFE7FFFE006E
:101DD00003FFFE1FFFE1FFFEFFFFE7FFFE0003FF23
:101DE000FF3FFFF3FFFF00E007000E000000073891
:101DF0000073800700E007000E3FF0000738007313
:101E0000800700E007FFFE3FF3FFFF380073800705
:101E100000E007FFFC3FF3FFFF380073800700E09E
:101E200007FFFE3FF3FFFF380073800700E0070065
:101E30000E00000007380073800700E007000E0066
:101E4000000007380073800700E007000F0003FF61
:101E5000FF3FFFF3FFFF00E007000F0003FFFE1F3F
:101E6000FFE1FFFE00E007000F0003FFFC0FFFC0D3
:101E7000FFFC000000000000000000000000000067
:101E80000000000000000000000000000000FFFF54
:101E9000FFFFFFFFFFFFFFFFFFFFFFFFFFFFFFFF52
:101EA000FFFFFFFFFFFFFFFFFFFF2020506C616E71
:101EB0006E657242756666657242797465733A2022
:101EC000002046726565204D656D6F72793A20007D
:101ED000436F6D70696C65643A20417567203132DB
:101EE00020323031390A00207C20417574686F72CD
:101EF0003A202874726F7563682C2043726561778D
:101F0000736F6D6520436F726520322E30290A0091
:101F1000323031392D30382D303800204C61737417
:101F200020557064617465643A2000322E302E3082
:101F30002D5243300A004D61726C696E0020536F60
:101F40006674776172652052657365740A00205764
:101F500061746368646F672052657365740A00205A
:101F600042726F776E206F75742052657365740AC4
:101F7000002045787465726E616C205265736574DB
:101F80000A00506F77657255700A0073746172743D
:101F90000A006175746F25632E67006572726F7237
:101FA0002077726974696E6720746F2066696C654A
:101FB0000A00446F6E6520736176696E67206669FA
:101FC0006C652E0A004D323900456E6473746F7073
:101FD0007320256320256320256320256300205A74
:101FE0003A0020593A0020583A00656E6473746FC5
:101FF0007073206869743A20004732385859007C61
:102000003C3E5E2B3D3F2F5B5D3B2C2A225C003328
:1020100044205072696E7465722052656164792E35
:10202000005072696E74696E672E2E2E00507269B0
:102030006E7420506175736564005072696E74200F
:1020400041626F72746564000000754300006B4369
:1020500000007A43000000000000000000000000C3
:10206000290A002062797465733B20637263200043
:1020700053657474696E67732053746F726564205E
:102080002800220A00556E6B6E6F776E20636F6DAD
:102090006D616E643A20220020636F6C6420657865
:1020A00074727573696F6E2070726576656E746593
:1020B000640A0053544F502063616C6C6564206265
:1020C000656361757365206F6620424C546F75635C
:1020D00068206572726F72202D2072657374617250
:1020E000742077697468204D3939390A0053544F88
:1020F000502063616C6C6564206265636175736513
:10210000206F6620424C546F756368206572726F51
:1021100072202D20726573746172742077697468FF
:10212000204D3939390A004F46460A004661646538
:10213000204865696768742000426564204C6576B4
:10214000656C696E6720004661696C656420746F18
:1021500020656E61626C6520426564204C65766521
:102160006C696E670A00496E76616C6964206D6502
:1021700073682E0A004731205831313720593233E5
:10218000342046363030300050726F62696E6720FE
:10219000506F696E742025692F2569002E0A002F63
:1021A0000050726F62696E67206D65736820706F92
:1021B000696E742000202844525952554E29004718
:1021C0003239204175746F20426564204C65766514
:1021D0006C696E67003F20284C2C522C462C4229FB
:1021E000206F7574206F6620626F756E64732E0A9F
:1021F000003F2856296572626F7365206C657665AD
:102200006C20697320696D706C61757369626C65AF
:102210002028302D34292E0A00426164205A20766D
:10222000616C75650A004E6F2062696C696E65614C
:102230007220677269640A0020496E76616C696475
:1022400020657874727564657220004573746570DA
:10225000732F6D6D004573746570732F6D6D005A2B
:1022600073746570732F6D6D005A73746570732F7E
:102270006D6D005973746570732F6D6D00597374B3
:102280006570732F6D6D005873746570732F6D6D6D
:10229000005873746570732F6D6D00416476616EC4
:1022A0006365642053657474696E6773003F004909
:1022B0006E697469616C697A6520454550524F4D6D
:1022C0000043616E63656C00496E6974004D343281
:1022D0003800496E697469616C697A6520454550BA
:1022E000524F4D0046696C616D656E740054656DAA
:1022F00070657261747572650053746570732F6DCB
:102300006D004A65726B00416363656C6572617450
:10231000696F6E0056656C6F6369747900536574FC
:1023200020486F6D65204F66667365747300436F58
:102330006E66696775726174696F6E00436D643AA9
:102340002053746F7700436D643A204465706C6F5E
:102350007900436D643A2053656C662D546573743F
:1023600000436D643A2053572D4D6F646500436DF3
:10237000643A20526573657400436F6E66696775D1
:10238000726174696F6E0053746F72652053657467
:1023900074696E67730042656400426564004E6F45
:1023A0007A7A6C65004E6F7A7A6C650046616E20B1
:1023B00053706565640046616E2053706565640006
:1023C000436F6E66696775726174696F6E00436111
:1023D000703A00220A00656E7175657565696E67F1
:1023E0002022006F6B00526573656E643A200053C3
:1023F000544F505045442E20005072696E746572DF
:102400002073746F707065642064756520746F202C
:102410006572726F72732E20466978207468652029
:102420006572726F7220616E6420757365204D391C
:10243000393920746F20726573746172742E20288C
:1024400054656D7065726174757265206973207270
:10245000657365742E2053657420697420616674F9
:1024600065722072657374617274696E67290A00FF
:102470004E6F20436865636B73756D207769746870
:10248000206C696E65206E756D6265722C204C61E2
:102490007374204C696E653A20004E6F2043686566
:1024A000636B73756D2077697468206C696E652045
:1024B0006E756D6265722C204C617374204C696E70
:1024C000653A2000636865636B73756D206D697391
:1024D0006D617463682C204C617374204C696E6567
:1024E0003A20004C696E65204E756D6265722069F8
:1024F00073206E6F74204C617374204C696E65207C
:102500004E756D6265722B312C204C617374204CBA
:10251000696E653A20004D313130004D3131370060
:102520004D33310053442072656164206572726FCF
:10253000720A00446F6E65207072696E74696E670E
:102540002066696C650A0020573A004520436F6F8A
:102550006C696E672E2E2E00452048656174696E89
:10256000672E2E2E004C6F61642053657474696E63
:10257000677300526573746F7265206661696C736E
:102580006166650053746F72652053657474696E7B
:102590006773005072656865617420504554472028
:1025A000436F6E66005072656865617420504C41DF
:1025B00020436F6E6600424C546F75636800507222
:1025C0006F6265205A204F66667365740050726FA3
:1025D0006265205A204F66667365740041647661B7
:1025E0006E6365642053657474696E6773004D6132
:1025F000696E003F0053746F70205072696E7400F2
:102600004261636B0053746F70004D32350050723D
:10261000696E7420506175736564005061757365EF
:10262000205072696E74004D323400496E69742E08
:102630002053442043617264004D3231005072696E
:102640006E742066726F6D2053440052656C656134
:1026500073652053442043617264004D323200435D
:102660006F6E66696775726174696F6E0054656D2F
:102670007065726174757265004D6F74696F6E007C
:10268000526573756D65205072696E740043617296
:10269000642052656C65617365640054756E6500F5
:1026A00053746F70205072696E7400506175736559
:1026B000205072696E7400496E666F2053637265B4
:1026C000656E00454550524F4D20646174617369D9
:1026D0007A65206572726F722E0A00290A002062E4
:1026E000797465733B2063726320002073746F728A
:1026F00065642073657474696E67732072657472A3
:102700006965766564202800202863616C63756CB8
:102710006174656429210A0020213D20004545504F
:10272000524F4D20435243206D69736D617463684D
:10273000202D202873746F7265642920002053694E
:102740007A653A2000496E6465783A2000204D6130
:10275000726C696E3D563638290A00454550524F15
:102760004D2076657273696F6E206D69736D61744B
:1027700063682028454550524F4D3D0048617264C2
:10278000636F6465642044656661756C742053658D
:102790007474696E6773204C6F616465640A00F439
:1027A000010000F401000064000000881300000034
:1027B00000FA430000FA430000A040000048420035
:1027C00000A0420000A0420000C8430000BA426FCF
:1027D00070656E00545249474745524544003A20BF
:1027E000007A5F6D696E00795F6D696E00785F6D6C
:1027F000696E005265706F7274696E6720656E64F1
:1028000073746F70207374617475730A0025753A60
:102810002530327500253032753A25303275002565
:10282000756420253032753A25303275002020201D
:10283000202020200020202020001FE02010201039
:10284000201010201020201020103030084004806C
:1028500003001FE03FF03FF03FF01FE01FE03FF0BC
:102860003FF03FF00FC0078003003FFFF0380070DB
:1028700030FC3020FC102078102030102C00D02E9E
:1028800031D02F7BD02F7BD02E31D02C00D02030D8
:102890001020781020FC1030FC303800703FFFF022
:1028A0003FFFF03800703186302387102787902F44
:1028B00087D02F03D02030102078102078102030BF
:1028C000102F03D02F87D027879023871031863091
:1028D0003800703FFFF01FFFF81FFFF804104002A0
:1028E00008200208200410400820801041001041F8
:1028F000000820800410400000001FFFF81FFFF8B0
:102900005072656865617420504C4120456E6400CA
:102910005072656865617420504C412042656400C6
:102920005072656865617420504C410054656D704B
:1029300065726174757265005072656865617420B6
:102940005045544720426564005072656865617463
:10295000205045544720456E64005072656865619B
:102960007420504554470054656D706572617475EC
:10297000726500436F6F6C646F776E0050726568AC
:1029800065617420504554470050726568656174F4
:1029900020504C410046616E2053706565640046CE
:1029A000616E205370656564004265640042656431
:1029B000004E6F7A7A6C65004E6F7A7A6C65004DC6
:1029C00061696E00466C6F7700466C6F77004661F8
:1029D0006E2053706565640046616E2053706565B6
:1029E000640042656400426564004E6F7A7A6C65EB
:1029F000004E6F7A7A6C65005370656564005370A1
:102A0000656564004D61696E0050726F62696E6742
:102A1000204661696C65640A0050726F62696E6776
:102A2000204661696C656400486F6D6520257325DB
:102A3000732573204669727374002046697273743B
:102A40000A00486F6D6520002E0A006F70656E20C9
:102A50006661696C65642C2046696C653A200041AA
:102A60006D6178204500416D6178204500416D61C0
:102A700078205A00416D6178205A00416D617820BC
:102A80005900416D6178205900416D6178205800EE
:102A9000416D6178205800412D54726176656C005B
:102AA000412D54726176656C00412D5265747261DE
:102AB000637400412D5265747261637400416363F5
:102AC000656C00416363656C00416476616E6365AB
:102AD000642053657474696E67730056652D4A658A
:102AE000726B0056652D4A65726B00567A2D4A65E9
:102AF000726B00567A2D4A65726B0056792D4A65C5
:102B0000726B0056792D4A65726B0056782D4A65B6
:102B1000726B0056782D4A65726B00416476616E67
:102B20006365642053657474696E6773004D6F76D6
:102B3000652058004D6F76652059004D6F766520F1
:102B40005A004578747275646572004578747275C0
:102B5000646572004D6F7665205A004D6F76652072
:102B600059004D6F76652058004D6F74696F6E0087
:102B700044697361626C652053746570706572732B
:102B8000004D3834004661646520486569676874A3
:102B9000004661646520486569676874004F666631
:102BA000004F6E00426564204C6576656C696E6707
:102BB000004C6576656C20426564004732380A47F0
:102BC0003239004175746F20486F6D6500473238A7
:102BD000004D6F76652041786973004D61696E0024
:102BE0003F005374617274205072696E7420004308
:102BF000616E63656C005072696E740043616E6E45
:102C00006F7420656E746572207375626469723AC0
:102C10002000022E2E000152656672657368004D19
:102C200061696E0000002100240027002A000000D6
:102C30002200250028002B00000020002300260091
:102C40002900020202020202020204040404040433
:102C5000040403030303030303030101010101014E
:102C60000101010204081020408001020408102024
:102C70004080010204081020408080402010080499
:102C80000201000000010200090A00000000040324
:102C90000807000000000000000000000000000025
:102CA00000004D6F766520302E316D6D004D6F76D2
:102CB0006520316D6D004D6F76652031306D6D0092
:102CC0004D6F7665204178697300486F74656E6456
:102CD00020746F6F20636F6C640045787472756444
:102CE0006572004D6F7665205A004D6F76652059EC
:102CF000004D6F76652058004361726420496E7301
:102D000065727465640054EE33E711241FBECFEF83
:102D1000D0E4DEBFCDBF12E0A0E0B1E0EAE1F6EF23
:102D200001E00BBF02C007900D92A437B107D9F79D
:102D300023E1A4E7B2E001C01D92AD39B207E1F78B
:102D400016E1C4E8D6E104C02197FE010E945EF8B6
:102D5000C338D107C9F70E944DE70C9400FB0C94CF
:102D600000002F923F924F925F926F927F928F92CC
:102D70009F92AF92BF92CF92DF92EF92FF920F930A
:102D80001F93CF93DF93CDB7DEB7E5970FB6F894D7
:102D9000DEBF0FBECDBF8DAB20917D022AA721E003
:102DA00020937D028091A30B8D3409F467C3843591
:102DB00011F40C945A28873411F00C9475288091E2
:102DC000A10B9091A20B8D31910509F405C18CF4F2
:102DD0008430910509F4B2C01CF4029790F14AC303
:102DE0008531910511F40C9477284C9709F4E4C0CF
:102DF00041C38A35910509F4C1C144F48E3191056E
:102E000009F4FEC08A9709F473C234C38B35910567
:102E100009F4B8C18C35910509F02CC34FE6242E76
:102E200041E0342E51ECE52E52E0F52EADE1B6E056
:102E3000B9A3A8A36FEAC62E6DE0D62E00E010E07D
:102E4000E1C180914001882311F40C947728EFE6CA
:102E50008E2EE1E09E2EFDECEF2EF2E0FF2E0DE136
:102E600016E0AFEAAA2EADE0BA2EBEE7CB2EB2E056
:102E7000DB2E712CD4018D914D010E945995882330
:102E800019F10E94DD94F6012081211104C02091E6
:102E90008202222341F0D8012D913D914D915C9108
:102EA0000E9468F80AC0B3E07B1639F0F501208172
:102EB0003181428153810E9467F8D7016D937D93E0
:102EC0008D939C9313970AC0F80180819181A28110
:102ED000B381F70180839183A283B3837394F4E079
:102EE000EF0EF11C0C5F1F4F24E0A20EB11C3FEF50
:102EF000C31AD30A44E07412BDCF40E050E0BA01D7
:102F000086E40E94075A20E030E0A9010E94EBF914
:102F1000181684F40E94DD9420E030E040E752E48B
:102F20000E94EBF860935B0170935C0180935D01FC
:102F300090935E010E94783D0C94772880E50E9472
:102F40005995882329F00E9495946B017C0103C058
:102F5000C12CD12C760183E50E945995882361F01C
:102F60000E94DD9420E030E04AE754E40E9426F419
:102F70000E9464F96B017C010E94AF3980910606C2
:102F8000811105C060E08DE791E00E941C850E94E0
:102F900003E4C60ED71EE81EF91E0E9403E4DC01FE
:102FA000CB018C199D09AE09BF09B7FD02C00C9475
:102FB00077280E94D333F1CF8091BF0D877087307F
:102FC00011F00C94982860E08FE40E94AA9581117A
:102FD0000C9477280C9498280E945DCB81110C9456
:102FE000772880912D06882311F40C946F2960E0D6
:102FF0008FE40E94AA9581110C9477280C946F2974
:1030000020E030E044E352E460911D0670911E061A
:1030100080911F06909120060E9467F8AB01BC01C9
:1030200088E50E94075A6C8F7D8F8E8F9F8F20E0DE
:1030300030E040EE50E460912106709122068091CC
:103040002306909124060E9467F8AB01BC0189E534
:103050000E94075A9B01AC0169837A838B839C830E
:103060006C8D7D8D8E8D9F8D0E9465A9882311F4B6
:103070000C94772880E00E94382E0E94CC4061E0BA
:1030800085E40E94AA95182F21E0482FBE016F5FAA
:103090007F4FCE014C960E94B8CB6B017C019B0107
:1030A000AC010E9469FA81115FC08C8C9D8CAE8C42
:1030B000BF8C20E030E0A901C501B4010E94C0F33B
:1030C00087FF05C027E137EB41E558EB04C027E156
:1030D00037EB41E558E3C501B4010E9468F8AB0144
:1030E000BC018DEA91E00E941B3889809A80AB80F8
:1030F000BC8020E030E0A901C501B4010E94C0F30A
:1031000087FF05C027E137EB41E558EB04C027E115
:1031100037EB41E558E3C501B4010E9468F8AB0103
:10312000BC0188EA91E00E941B3820E030E0A90150
:10313000C701B6010E94C0F387FF05C027E137EB46
:1031400041E558EB04C027E137EB41E558E3C701FF
:10315000B6010E9468F8AB01BC0183EA91E00E94CD
:103160001B388AE00E94D7320E94B340113011F41C
:103170000E9461530E948C430C9477281092820223
:103180000C947728209382020C9477280E94DD9477
:103190002B013C01133049F0D6012D913D914D9109
:1031A0005C910E9467F82B013C01E8A1F9A1208104
:1031B000318142815381C301B2010E9467F84B0102
:1031C0005C012DEB37E346E855EB0E94EBF987FDF8
:1031D00021C02DEB37E346E855E3C501B4010E9459
:1031E000C0F31816BCF01F5FF4E0EF0EF11C28A12D
:1031F00039A12C5F3F4F39A328A334E0C30ED11C63
:10320000143031F1F10181911F010E9459958823F9
:1032100051F3BCCF133051F44092290650922A0644
:1032200060922B0670922C0601E0DDCFA50194017F
:10323000D7016D917D918D919C910E9468F8F70165
:103240006083718382839383812F0E94583DCBCF0B
:10325000002309F449C02091520B3091530B409147
:10326000540B5091550B6091290670912A0680915C
:103270002B0690912C060E9426F40E94F0F9609390
:10328000901070939110809392109093931090915E
:103290006E1080916F10981719F00E94513924C058
:1032A0000E94AF3980916F00982F927081FF05C006
:1032B00080916F008D7F80936F00409190105091AE
:1032C0009110609192107091931040932B03509342
:1032D0002C0360932D0370932E03992329F0809182
:1032E0006F00826080936F000E948C430C9477285B
:1032F00080914001882311F40C94772889E40E947E
:103300005995082F882321F00E94D994E82E01C0F6
:10331000E12C8AE40E945995182F882321F00E94FD
:10332000D994F82E01C0F12C002319F044E04E1579
:1033300028F0112349F054E05F1530F485EB91E05B
:103340000E94DE320C94772880E1EDE1F6E0ADECEE
:10335000B2E001900D928A95E1F70023F1F02091FF
:10336000020D3091030D4E2D4203B001439F700DAD
:1033700011248091FE0C9091FF0C680F791F072E8D
:10338000000C880B990B0E94C7F36093CD027093D9
:10339000CE028093CF029093D0021123F1F02091BE
:1033A000040D3091050D5F2D5203B001539F700D38
:1033B00011248091000D9091010D680F791F072E47
:1033C000000C880B990B0E94C7F36093D102709395
:1033D000D2028093D3029093D40260E080E50E94F1
:1033E000AA95882381F10023B1F020E030E044E386
:1033F00052E46091CD027091CE028091CF02909103
:10340000D0020E9468F86093CD027093CE02809340
:10341000CF029093D0021123B1F020E030E040EED3
:1034200050E46091D1027091D2028091D3029091C8
:10343000D4020E9468F86093D1027093D202809304
:10344000D3029093D40240E050E0BA0186E40E9497
:10345000075A6B017C0120E030E0A9010E94EBF9E2
:1034600018160CF067CD20E030E040E752E4C701C9
:10347000B60156CD0E9487940C9477288091A10BB9
:103480009091A20B8337910509F438C70CF0B2C0B4
:103490008B34910509F499C40CF052C0893191051F
:1034A00009F48DC21CF58431910509F431C27CF414
:1034B0008131910509F421C22CF4029708F4A2C1CC
:1034C0000C945728429709F4FDC50C94572886316F
:1034D000910509F447C20CF441C28731910509F402
:1034E0004AC2489709F45FC20C9457288E3191055F
:1034F00009F4E9C2ACF48B31910509F487C20CF4EC
:1035000077C28C31910509F4D4C24D9711F00C9417
:10351000572880910D128E7F80930D120C9477287E
:103520008032910509F42EC30CF472C38A329105DE
:1035300009F419C48934910509F438C40C94572846
:103540008936910509F43CC544F58335910509F4A4
:10355000B5C59CF48D34910509F450C40CF439C4FC
:103560008135910509F495C58235910511F00C94CA
:103570005728109281020C9477288535910509F41B
:10358000D5C50CF49FC58C35910509F4E8C588367E
:10359000910509F437C40C9457288E36910509F427
:1035A00055C49CF48B36910509F466C50CF443C5EB
:1035B0008C36910509F4A2C48D36910511F00C9456
:1035C00057280E94CEA30C9477288037910509F4E0
:1035D0009BC40CF44EC48137910509F499C4823719
:1035E000910511F00C9457280E94AF390E948C432A
:1035F0000C9477288831A1E09A0711F40C94EA24FE
:103600000CF071C0883C910509F488C7BCF5893776
:10361000910509F421C7ECF48637910509F4E7C652
:1036200034F48537910509F4D2C60C9457288737AE
:10363000910509F40EC78837910511F00C945728AD
:1036400081E080934C0480934B040E9431B20C942F
:1036500077288139910509F406C734F48C3891052F
:1036600009F47BC40C9457288B39910509F4BBC429
:103670008E3B910509F48FC40C9457288E3C91051C
:1036800011F40C946423B4F48B3C910509F4B6C78F
:1036900034F4893C910509F48EC70C9457288C3C6E
:1036A000910509F4CAC78D3C910511F40C9451237E
:1036B0000C9457288C3D910511F40C943C243CF457
:1036C000833D910511F40C9486230C9457288D3D6D
:1036D000910511F40C944924823E910511F40C9447
:1036E0009F240C945728843AE1E09E0711F40C942F
:1036F000DB260CF043C0803321E0920711F40C94D8
:103700001626ECF48D3241E0940711F40C949625C2
:103710003CF48C32914011F40C9481250C94572880
:103720008E32B1E09B0711F40C9489268F329140C0
:1037300011F00C9457280E941E5A0C947728813956
:10374000F1E09F0711F40C94CD264CF480399140A0
:1037500011F00C9457280E94AF390C9477288239C5
:1037600041E0940711F40C94D3268A39914011F06A
:103770000C9457280E9486300C947728863FA1E04D
:103780009A0711F40C94F027ECF48C3AE1E09E07D0
:1037900011F40C9447273CF4853A914011F40C94B1
:1037A000DE260C945728843F31E0930711F40C94E3
:1037B000ED27853F914011F00C9457280E943AB9AB
:1037C0000C947728833553E0950711F40C940C285A
:1037D0006CF4883FB1E09B0711F40C94F3278C3014
:1037E000924011F40C9404280C945728803AF3E08A
:1037F0009F0709F4FDC1873E934011F40C944928BA
:103800000C945728A0909F0BB090A00B80E50E94CD
:103810005995882359F00E9495946B017C0111E021
:10382000672B682B692B31F410E004C010E0C12C29
:10383000D12C760183E50E945995882311F40C94CC
:1038400072290E94DD9420E030E04AE754E40E94AF
:1038500026F40E9464F96B017C0111110BC0672BE7
:10386000682B692B39F4A114B10421F0D5018C9196
:10387000811102C010E001C011E00E94AF39112394
:1038800029F061E0C5010E94688505C060E084ED13
:1038900091E00E941C8510917D0283E080937D025F
:1038A00081E08093E805C114D104E104F104B1F092
:1038B0000E9403E4C60ED71EE81EF91E0E9403E410
:1038C000DC01CB018C199D09AE09BF09B7FF0DC002
:1038D0008091E80581110C94772907C08091E80553
:1038E000882319F00E94D333F9CF0E948E8510925D
:1038F000E80510937D020C94772860E087EE91E054
:103900000E941C855E985E9815985E980C947728A6
:103910008FEF91E00E94DE321092440488E290E141
:103920000E9494748BE1E8E2F0E1DE0111960190CF
:103930000D928A95E1F740E050E0BE016F5F7F4F46
:1039400080E090E00E94A66DCE0101960E943F7635
:1039500080EF91E00E94DE320C9477280E948D6CFB
:103960000C9477280E941E6C80910D12877F8093A3
:103970000D120C947728E0919F0BF091A00B8081A1
:10398000882329F0803209F410823196F8CF40E084
:1039900061E080919F0B9091A00B0E94446F109268
:1039A000180D0C9477280E94C6A5882321F00E9448
:1039B0002D6C0E94BC7F0E948E850C94772880918C
:1039C0000D1282FF03C08B7F80930D128091ED0555
:1039D000813089F782E08093ED050E9403E46093D3
:1039E000E9057093EA058093EB059093EC05E3CF2E
:1039F00080910D1283FD02C00C94772883E50E940C
:103A0000599581110C947B290C94772883E40E94AA
:103A10001095882319F18AE192E00E94DE328091AC
:103A2000D20F882391F0BE016F5F7F4F8FEC9FE034
:103A30000E9445768E010F5F1F4FF80181918F0123
:103A4000882339F00E94D732F8CF80E192E00E94BB
:103A5000DE328AE00E94D7320C94772880910D12D2
:103A600082FF21C089E292E00E94DE326091091259
:103A700070910A1280910B1290910C124AE00E94F0
:103A800067368FE20E94D73260910512709106125C
:103A900080910712909108124AE00E9467360E94B6
:103AA0002C380C9477288BE392E00E94DE320C9441
:103AB000772840E060E080919F0B9091A00B0E94DE
:103AC000446F0C94772880910D1283FD02C00C94F2
:103AD00077280E94709480910D1283FD02C00C948F
:103AE000772860919F0B7091A00BCE014C960E949D
:103AF00007D48C01009711F40C9477286C8D7D8D80
:103B000019821C8222E0AC01CE0101960E94EC7960
:103B1000811102C0F12C14C0CE0101960E9475D310
:103B20008823C1F361E0CE0101960E94E7750097FA
:103B300089F325EEDC012C931C820E940475F82E7B
:103B4000CE0101960E943F76B801FF2089F087E6FA
:103B500092E00E94ED328AE00E94D7321092091260
:103B600010920A1210920B1210920C120C947728D9
:103B70008FE492E00E94ED328CE492E00E94DE320B
:103B80000C94772880910D1282FD0E94AF398091AC
:103B90000D1283FD02C00C94772860E080E50E943E
:103BA000AA95182F482F61E080919F0B9091A00B50
:103BB0000E94446F83E50E945995882381F00E94FA
:103BC000A594AB01BC014093091250930A12609373
:103BD0000B1270930C128FEC9FE00E94A5720E9452
:103BE0002D6C11110C9477280E94BC7F0C947728BF
:103BF00020919F0B3091A00B90910D1292609093A9
:103C00000D1240E060E0C9010E94446F0C947728D7
:103C10000E946D7F7B018C0120E831E541E050E09E
:103C20000E94C7F7C9016DE671E00E9436F84B01AA
:103C30005C01C801B70120E13EE040E050E00E9495
:103C4000C7F7CA01B90128E130E040E050E00E9426
:103C5000C7F7762E672EC62ED72E3CE3232E312CA7
:103C6000412C512CC801B701A20191010E94C7F754
:103C7000F62EE72ECA01B901A20191010E94C7F7F1
:103C8000CB018E010F5F1F4F8114910499F0EF92C9
:103C9000FF927F936F936F927F92BF92AF929F92AA
:103CA0008F928DE992E09F938F931F930F930E94C1
:103CB00058F313C0A114B104B1F0EF92FF927F93B7
:103CC0006F936F927F92BF92AF928DE892E09F9335
:103CD0008F931F930F930E9458F30FB6F894DEBF93
:103CE0000FBECDBF30C0CD2879F0EF92FF927F9309
:103CF0006F936F927F9281E892E09F938F931F93CF
:103D00000F930E9458F3E9CF892B69F0EF92FF924D
:103D10007F936F9389E792E09F938F931F930F9305
:103D20000E9458F3DACFEF92FF9285E792E09F93DB
:103D30008F931F930F930E9458F30F900F900F9043
:103D40000F900F900F9060E0C8010E9468850E945C
:103D50000433B80181EB92E00E94ED328AE00E94C8
:103D6000D7320C94772883E50E945995882311F463
:103D70000C9477280E94B594F82E6FEF7FEF80E5C2
:103D80000E948F958C0197FF02C00C947728E82E33
:103D900060E089E40E94AA9581110C948C29802FFF
:103DA0000E940EE78111E8C50C948C2980E50E94E1
:103DB0001095882311F40C94772880910D1282FFBE
:103DC00002C00C9477280C949F290E94BC7F0C940D
:103DD00077288091ED05813011F00C94772882E0EE
:103DE0008093ED050E9403E46093E9057093EA0572
:103DF0008093EB059093EC050C9477280E94E07F6C
:103E00000C9477288091310B83FF02C00C947728A3
:103E10000E94669587FF02C00C94772883E50E9474
:103E20005995882379F00E94DD940E945DF98B01F9
:103E3000CB010E9471610635110524F40E94E07FD8
:103E40000E948E850E9409550C9477288EE40E946A
:103E50005995882311F40C9477280E94A5946093B7
:103E6000260C7093270C8093280C9093290C0C94AB
:103E7000772883E50E941095882331F060E083E580
:103E80000E949E958093310B0E9404338CEC92E04B
:103E90000E94DE328091310B882369F122ECE22E00
:103EA00022E0F22E00E010E020E08091310B90E063
:103EB000A0E0B0E0002E04C0B695A7959795879531
:103EC0000A94D2F780FF0EC0DD24D394D20E2223B1
:103ED00019F08CE20E94D732F701859194910E94EB
:103EE000DE322D2D0F5F1F4F92E0E90EF11C0530E1
:103EF0001105D9F6AECD8EEB92E0A9CD1092E80572
:103F000010924F010C94772880E090E00E942433B7
:103F100083E50E945995882381F00E94B594282F4B
:103F200030E02D33310524F4809300010C94772880
:103F30008CE3809300010C9477280E940433409115
:103F4000000150E060E070E083ED92E00E94D43622
:103F50008AE00E94D7320C9477288091310B83FF3E
:103F600002C00C94772883E50E945995882311F4A8
:103F70000C9477280E94DD940E945DF963377105E7
:103F800014F063E770E070936713609366130E9408
:103F9000DF5F0C9477288091310B83FF02C00C9473
:103FA000772883E50E9459958BA781110C94AA2943
:103FB00082E50E94599581110C94AA290C947728C6
:103FC0000E946695182F87FF02C00C947C288CEF06
:103FD00092E00E94DE32812F0E9478608AE00E9487
:103FE000D7320C947C2883E50E945995882311F4DC
:103FF0000C9477280E94B594182F90E0CD970CF080
:104000001CE3109378020E9403E46B017C01212FD2
:1040100030E0A8EEB3E00E941BF8C60ED71EE81EE3
:10402000F91EC0927402D0927502E0927602F0926C
:1040300077020C94772860E080E50E949E958111BC
:104040000C94772881E40E941095882321F06091D8
:10405000560670E002C06FEF70E083E50E9450AB3F
:104060008F3F910519F010F08FEF90E08093560686
:1040700080935D130C94772860E080E50E949E9504
:1040800081110C9477281092560610925D130C94AF
:1040900077280E94BB610E94E07F0E949E3A0E94A6
:1040A000C33068EE73E080E090E00E94623060E030
:1040B0008FEF92E00E941C850C9477282093810258
:1040C0000C94772883E50E9459958823A1F00E94DB
:1040D000DD9420E030E04AE754E40E9426F40E9498
:1040E00064F960930101709302018093030190933E
:1040F00004010C94772888E50E94109581110C9496
:10410000322B89E50E94109581110C94322B8AE59F
:104110000E94109581110C94322B85E40E94109519
:1041200081110C94322B0E949E3AE1C783E50E94D4
:104130001095882309F4DBC70E94DD9420E030E06D
:104140004AE754E40E9426F40E9464F960937902DD
:1041500070937A0280937B0290937C02C8C70E947E
:10416000669587FDC4C780919B0B84FD04C0809138
:104170009D0B87FF0AC01FE6C12E11E0D12E02E37E
:10418000E02E0BE0F02E10E03AC080919E0B837081
:1041900091F70E9404334091460B5091470B609178
:1041A000480B7091490B88E193E00E941B384091C5
:1041B0004A0B50914B0B60914C0B70914D0B85E16C
:1041C00093E00E941B3840914E0B50914F0B609131
:1041D000500B7091510B82E193E00E941B3840918B
:1041E000520B5091530B6091540B7091550B8FE013
:1041F00093E00E941B388AE00E94D73278C7D6012C
:104200008D916D010E945995882309F46DC013307A
:1042100009F063C00E94DD944B015C0120E030E0B6
:1042200040EA51E40E94C0F387FF4EC0A50194010B
:104230006091520B7091530B8091540B9091550BE0
:104240000E94EBF82B013C019B01AC0160913A0606
:1042500070913B0680913C0690913D060E9426F4A9
:1042600060933A0670933B0680933C0690933D061C
:10427000A30192016091620B7091630B8091640BBA
:104280009091650B0E9426F46093620B7093630B10
:104290008093640B9093650B60914A0670914B0676
:1042A00080914C0690914D060E94C5F3A3019201A6
:1042B0000E9426F40E9464F960934A0670934B06AC
:1042C00080934C0690934D068092520B9092530B24
:1042D000A092540BB092550B07C00E94DD94F701D9
:1042E000648B758B868B978B1F5FF4E0EF0EF11C50
:1042F000143009F084CF0E948055F9C683E494E01D
:104300000E94DE3260E083E394E00E9463AB60E0F1
:104310008EE194E00E9463AB61E087E194E00E944B
:1043200063AB61E08CE094E00E9463AB61E08CEFF2
:1043300093E00E9463AB60E083EF93E00E9463AB85
:1043400061E089EE93E00E9463AB61E08FED93E062
:104350000E9463AB61E087ED93E00E9463AB61E094
:1043600089EC93E00E9463AB61E08BEB93E00E94E9
:1043700063AB60E08CEA93E00E9463AB60E08EE99F
:1043800093E00E9463AB60E088E893E00E9463AB37
:1043900060E087E793E00E9463AB60E088E693E02B
:1043A0000E9463AB60E083E593E00E9463AB61E051
:1043B00080E493E00E9463AB60E083E393E00E94BB
:1043C00063AB60E08FE193E00E9463AB90C68091A5
:1043D0009F0B9091A00B009709F4EDCADC012C9182
:1043E000222309F4E8CA60E00E94688580C6009133
:1043F0009F0B1091A00B83E0F12C40E08150E1F085
:10440000F8019081292F2B7F2134C1F7218121339D
:10441000A9F7913421F0953421F441E002C0FF2442
:10442000F39498012E5F3F4F89012F5F3F4FD801D2
:104430009C919032C9F3E2CF41110E940433FF20D6
:1044400021F08AE095E00E94DE32C8010E943238F5
:104450004EC60E94E2B14BC610924C0410924B041F
:104460000E9431B244C660E070E083E50E948F95FF
:104470008C011127023011053CF00E9400338EE0C0
:1044800095E00E94DE3233C688E40E945995882365
:10449000A9F00E94D9948A3A91053CF08530B1E0A8
:1044A0009B072CF084E091E002C08AEA90E0F801DA
:1044B000EE0FFF1FE25FF24F9183808386E40E943C
:1044C0005995882381F00E94D99497FD07C08F3FAA
:1044D000910529F024F08FEF90E001C080E0F80111
:1044E000E85FF24F808382E40E945995882309F4A3
:1044F000FEC50E94D9948530910534F0843791052A
:104500002CF083E790E002C085E090E0F801EE0F28
:10451000FF1FE65FF24F91838083E9C50E94669595
:10452000182F87FDE4C584E40E941095882309F4C0
:104530003FC00E94DD946B017C0101E020E030E08F
:10454000A9010E94C0F3811101C000E00093E902BB
:1045500020E030E0A901C701B6010E94C0F3882322
:1045600039F10E94DD9424E01202F0011124E2519D
:10457000FD4F608371838283938320E030E0A90143
:104580006091EE027091EF028091F0029091F10241
:104590000E94C0F381110CC080E090E0A0EEBFE368
:1045A0008093EE029093EF02A093F002B093F10299
:1045B0000E94D1389CC50E94669587FD98C5EFE69C
:1045C000EE2EE1E0FE2E02E31BE0D7018D917D018E
:1045D0000E941095882349F00E94DD940E9464F99E
:1045E000F80160837183828393830C5F1F4FFBE02C
:1045F00002341F0751F70E94395579C50E9466950C
:1046000087FD75C57FE6E72E71E0F72E02E31BE01C
:10461000D7018D917D010E941095882339F00E9469
:10462000DD94F80164A375A386A397A30C5F1F4FC5
:10463000FBE002341F0761F75AC580919C0B87FF8E
:1046400002C00C94572B80919D0B8E7011F00C942E
:10465000572B4091660B5091670B6091680B7091DE
:10466000690B86E395E00E941B3840916A0B5091DC
:104670006B0B60916C0B70916D0B83E395E00E9466
:104680001B3840916E0B50916F0B6091700B7091C5
:10469000710B80E395E00E941B388AE00E94D732BC
:1046A00026C580919B0B827111F00C949D2B8091FB
:1046B0009D0B8C7811F00C949D2B80919E0B837038
:1046C00011F00C949D2B13C55FE6C52E51E0D52E3D
:1046D0006FE4E62E64E0F62E10E0D6018D916D01B8
:1046E0000E941095882351F00E94DD94F7016083A9
:1046F000718382839383812F0E94583D1F5FF4E072
:10470000EF0EF11C133049F70C9474190E94043316
:104710008FE995E00E94DE3283E50E9410958823A0
:1047200021F00E94C994809327018091270188235A
:1047300019F08CE795E002C088E795E00E94DE3230
:1047400087E995E00E94DE322091AF0D3091B00DE7
:104750004091B10D5091B20D60910F017091100117
:1047600080911101909112010E9468F8AB01BC0187
:1047700085E995E00E941B382091B30D3091B40D6E
:104780004091B50D5091B60D6091170170911801CF
:104790008091190190911A010E9468F8AB01BC0147
:1047A00082E995E00E941B382091B70D3091B80D39
:1047B0004091B90D5091BA0D60911F017091200187
:1047C00080912101909122010E9468F8AB01BC0107
:1047D0008FE895E00E941B3887E895E00E94DE3262
:1047E0002091AF0D3091B00D4091B10D5091B20DAF
:1047F000609113017091140180911501909116013F
:104800000E9468F8AB01BC0185E895E00E941B3866
:104810002091B30D3091B40D4091B50D5091B60D6E
:1048200060911B0170911C0180911D0190911E01EE
:104830000E9468F8AB01BC0182E895E00E941B3839
:104840002091B70D3091B80D4091B90D5091BA0D2E
:10485000609123017091240180912501909126019E
:104860000E9468F8AB01BC018FE795E00E941B38FD
:104870008AE00E94D7323BC483E50E945995882381
:1048800009F435C40E94D99490932901809328019A
:104890002EC40E946695F82E87FD29C483E50E94E8
:1048A00059950F2D0F2C000C110B882369F10E94D4
:1048B000D994F801EE0FFF1FE25DFE4F91838083D4
:1048C000000F111F000F111F98012F5A3E4F790141
:1048D000BC01990F880B990B0E94C7F32AE037EDB2
:1048E00043E25CE30E9426F4F801E651FD4F20818B
:1048F0003181428153810E9426F4D7016D937D93CB
:104900008D939C931397F3C30E94043385E40E9414
:10491000D73280E38F0D0E94D732F801EE0FFF1FD0
:10492000E25DFE4F608171818FEA95E00E940E3753
:1049300085E20E94D7328AE00E94D732D8C380E550
:104940000E941095882309F4D2C360E070E080E5EE
:104950000E948F95F82E6FEF7FEF83E50E948F9571
:104960008C010196039708F0C2C3F7FCC0C38F2DDA
:104970000E940EE7882339F00E94003387EB95E010
:104980000E94DE32B4C30E94AF3960E08F2D0E94D6
:104990001BE30F3FBFEF1B0731F00130110571F032
:1049A00000E010E00DC08F2D0E94C3E231E020E056
:1049B000892B09F030E0032F122F02C001E010E034
:1049C0008F2D0E94C3E28017910709F490C30E94C3
:1049D000D333F6CF80E50E941095882309F487C36E
:1049E0000E94D9948C01892B09F07FC083E50E9435
:1049F0001095882389F00E94D9948F3FEFEF9E078E
:104A000029F488E690E10E94C83071C3BC0188E6B1
:104A100090E10E94E6306BC30E94043360E070E0D6
:104A20008FED95E00E940E3780916A1028E532E004
:104A30006901C81AD10887FDD394CC0CDD1CCC0CBD
:104A4000DD1C0D2C000CEE08FF088091691028E891
:104A500030E04901881A910887FD9394880C991CCD
:104A6000880C991C092C000CAA08BB0880916810BE
:104A70008F3FC1F090E0FC01EE0FFF1F8E0F9F1FD4
:104A8000FC01ED5BFF4E2181328113E0220F331FC9
:104A90001A95E1F704E0369527950A95E1F72E5F20
:104AA0003F4F02C020E030E02F5F3F4FC901330F7E
:104AB000AA0BBB0B9C01AD01281939094A095B09F6
:104AC000A4EBB0E00E9408F8A70196012819390963
:104AD0004A095B090E94E9F7B9018CED95E00E9453
:104AE0000E378AE00E94D73202C30E940033B80119
:104AF00085ED95E00E940E3786EC95E00E94DE324F
:104B0000F6C264E071E083E50E9450AB8C0168EE70
:104B100073E080E50E9450AB8938F3E19F0710F005
:104B200088E893E1B8010E94EF84E1C260E085E487
:104B30000E949E95811173C080E50E941095882384
:104B400051F00E94DD946093730670937406809315
:104B500075069093760689E40E941095882381F06B
:104B60000E94DD942CEA35EC47E25EE30E9426F4D5
:104B700060937706709378068093790690937A060F
:104B800084E40E941095882381F00E94DD942CEA31
:104B900035EC47E25EE30E94EBF860937B0670938E
:104BA0007C0680937D0690937E060E94043340919C
:104BB000730650917406609175067091760681E0D7
:104BC00096E00E941B382CEA35EC47E25EE36091E8
:104BD0007706709178068091790690917A060E9406
:104BE000EBF8AB01BC018DEF95E00E941B382CEA7D
:104BF00035EC47E25EE360917B0670917C06809124
:104C00007D0690917E060E9426F4AB01BC0189EFDF
:104C100095E00E941B388AE00E94D73268C20E9449
:104C2000003387EE95E00E94DE3261C280E50E948B
:104C30001095882351F00E94DD946093691370935E
:104C40006A1380936B1390936C1389E40E94109500
:104C5000882381F00E94DD942CEA35EC47E25EE384
:104C60000E9426F460936D1370936E1380936F13FC
:104C70009093701384E40E941095882381F00E9421
:104C8000DD942CEA35EC47E25EE30E94EBF860939A
:104C900071137093721380937313909374130E9423
:104CA00004334091691350916A1360916B137091B2
:104CB0006C138DE096E00E941B382CEA35EC47E23D
:104CC0005EE360916D1370916E1380916F139091FC
:104CD00070130E94EBF8AB01BC0189E096E00E94E2
:104CE0001B382CEA35EC47E25EE36091711370915A
:104CF000721380917313909174130E9426F4AB0188
:104D0000BC0185E096E00E941B388AE00E94D73201
:104D1000EEC183E50E941095182F882371F00E9440
:104D2000DD940E945DF9709356016093550121E076
:104D3000672B09F020E02093670680E50E9410951C
:104D4000882359F02091550130915601232B11F001
:104D50000E94C99480936706CAC11111C8C10E94FC
:104D600004338DE296E00E94DE328091670688234C
:104D700019F085E196E002C081E196E00E94DE3202
:104D800060915501709156018CE196E00E940E37BA
:104D900088E196E00E94DE32AAC181E00E94A95318
:104DA0000E948C43A4C180E00E94A9530E946153D9
:104DB0000E948C439CC10E94B19C99C16FEF7FEF10
:104DC00089E40E948F95182F6FEF7FEF8AE40E948D
:104DD0008F95082F8AE50E941095F82E811105C045
:104DE00081E50E941095D82E01C0D12C17FD06C078
:104DF00007FD04C0F11009C0D11007C00E940033A4
:104E00008FE596E00E94DE3272C1153010F4053055
:104E100038F00E94003380E496E00E94DE3267C1E1
:104E2000E12E110FFF08002E000C110B0E94DD94E3
:104E3000DD2099F025E02E9DF0012F9DF00D11242D
:104E4000E00FF11FEE0FFF1FEE0FFF1FE656F34FAF
:104E5000208131814281538103C020E030E0A901EB
:104E6000A5E0AE9DF001AF9DF00D11240E0F1F1FA8
:104E7000000F111F000F111F0656134F0E9468F8F4
:104E8000D8016D937D938D939C93139730C10E94AD
:104E90005DCB81112CC109EE18E0EDE1F6E0F9A33C
:104EA000E8A39E012F5F3F4F59019EE3892E99E0B1
:104EB000992E1901F8016591759185919491A8A198
:104EC000B9A1CD90DD90ED90FD90B9A3A8A3A70165
:104ED00096010E9467F82B013C01F1016083718308
:104EE0008283938320E030E040EA51EC0E94EBF9AA
:104EF00087FD0AC020E030E040EA51E4C301B2017E
:104F00000E94C0F318162CF4F401849118160CF4C6
:104F10008BC4D101CD90DD90ED90FD901D0120E07E
:104F200030E040EA51ECC701B6010E94EBF987FD81
:104F30000AC020E030E040EA51E4C701B6010E9417
:104F4000C0F31816A4F40E9400338DE996E00E9485
:104F5000DE3261E08FE896E00E941C850E9402C864
:104F600068E270E088EC90E00E94EF84C0C00C5FC3
:104F70001F4FBFEF8B1A9B0AE5EFF8E0E017F10730
:104F800009F098CF8FE4E82E84E0F82E10E0F501C8
:104F900081919191A191B1915F01F70181939193D9
:104FA000A193B1937F01812F0E94583D1F5F133061
:104FB00071F70E948C4360E08FE796E00E941C85A9
:104FC00063E972E084E690E00E94EF846AEB72E0AD
:104FD00084E690E00E94EF848AC00E94DD7A87C058
:104FE0000E9440B284C081E08093070D0E947AB392
:104FF0001092070D882309F47AC00E9404338BEBCA
:1050000096E00E94DE3273C080910D1282FF6FC065
:10501000806280930D126BC08AE50E9459958823A7
:1050200031F10E94DD946B017C0120E030E040EA28
:1050300051EC0E94EBF987FD13C020E030E040EA1C
:1050400051E4C701B6010E94C0F318164CF0C0929B
:10505000BB0DD092BC0DE092BD0DF092BE0D47C0CD
:105060000E94003386EC96E00E94DE3240C00E942F
:1050700004334091BB0D5091BC0D6091BD0D7091FA
:10508000BE0D83EE96E00E941B388AE00E94D73264
:105090002EC081E08093400110921C0660E083E501
:1050A0000E94AA95811123C00E94E4A520C00E94FD
:1050B00087941DC00091A10B1091A20B0023B9F0A1
:1050C0000E94043384E50E94D732B8017727072E67
:1050D000000C880B990B0E94F23680E20E94D732B6
:1050E00084EF96E00E94DE3202C00E948794FDA900
:1050F000F11102C00E94D4A52AA520937D02E59655
:105100000FB6F894DEBF0FBECDBFDF91CF911F91D8
:105110000F91FF90EF90DF90CF90BF90AF909F9056
:105120008F907F906F905F904F903F902F90089559
:105130000E94AF3980E00E94382E0E94CC4081E06E
:1051400080934C040E9431B288E50E941095182F7C
:1051500089E50E941095082F8AE50E94109510138A
:10516000BCC0181711F0012FB8C001E011E0FF24F6
:10517000F39480E1EDE1F6E0ADECB2E001900D9248
:105180008A95E1F782E50E945995882361F00E9493
:10519000DD944B015C0120E030E0A9010E94C0F3E6
:1051A000882361F106C0812C912C70E2A72E71E456
:1051B000B72E111102C0002359F18092D5029092AE
:1051C000D602A092D702B092D802A50194016091B4
:1051D00025067091260680912706909128060E9448
:1051E000C0F387FF0BC019821A821B821C82BE018A
:1051F0006F5F7F4F85ED92E00E94AC41112319F063
:1052000080E00E945A42002319F081E00E945A4235
:10521000FF2009F454C080E00E9498968091AE0D62
:105220008370833061F060E085E991E00E941C8525
:105230000E94043386E891E00E94DE323EC00E9464
:105240005842E0902506F09026060091270610911E
:105250002806E092D502F092D6020093D70210936E
:10526000D80280E090E0A2E2B3E48093CD02909374
:10527000CE02A093CF02B093D00280E090E0A8EFDE
:10528000B2E48093D1029093D202A093D302B09360
:10529000D40219821A821B821C82CE0101966C01F3
:1052A00020E030E048EF52E460E070E082E293E416
:1052B0000E94EB4082E00E945A420E9461530E9489
:1052C000584280914B0480934C040E94B34083E089
:1052D000809350010E948C430ACFF82E4ACF0E943F
:1052E0004A9705CF11110C943A1C0C94331C0E9460
:1052F000D3330C945E1C0E94A594AB01BC01409377
:10530000091250930A1260930B1270930C128FECD7
:105310009FE00E94A572EBCE61E0802F0E941BE30C
:105320006F2D802F0E94ECE26F2D70E0802F0E9485
:1053300057E334E0E312DBCEF0925606D8CE0E945B
:10534000B59490E08536910514F084E690E0809362
:10535000180DCDCE0E94DD940E945DF96337710572
:105360000CF07DC170936713609366130E94DF5F3A
:105370000E94DD9420E030E040EA50E40E94EBF926
:10538000181614F40E94BC7F609166137091671325
:10539000072E000C880B990B0E94C7F32091621313
:1053A0003091631340916413509165130E94EBF99F
:1053B00018161CF48DEE92E002C08EED92E060E0D3
:1053C0000E941C8581E080934F011AA21BA21CA29F
:1053D0001DA21CA61DA61EA61FA618A219AAACE3F4
:1053E000AAABBCE1BBABE6E4ECABC12CD12C80E8B2
:1053F000E82E9FEBF92EF1E0F8AB812C912C5401B3
:105400006091661370916713072E000C880B990B3F
:105410000E94C7F3162F072F782E692E9601A70139
:105420000E94C0F3882321F120916213309163130D
:1054300040916413509165138BA5612F702F8111DA
:1054400009C0872D962D0E94C0F3881F8827881FCA
:1054500088A314C0872D962D0E94C0F387FF0DC02E
:1054600080914F01882309F442CE0E948E853FCE61
:105470001C2D0D2D7E2C6F2C01C018A20E9403E460
:105480006B017C01DC01CB012CA53DA54EA55FA5E0
:10549000821B930BA40BB50BB7FD33C0D701C6011C
:1054A00088519C4FAF4FBF4F8CA79DA7AEA7BFA7FA
:1054B00080E00E9478608AED92E00E94DE328114E2
:1054C0009104A104B104B9F0D501C401805F984DE5
:1054D000AF4FBF4FBC01CD016C197D098E099F09EB
:1054E00028EE33E040E050E00E94C7F7CA01B9015E
:1054F0000E94F23603C08FE30E94D7328AE00E94F6
:10550000D7320E94D3330E9403E460932A0C709335
:105510002B0C80932C0C90932D0C909162139EA3D6
:10552000A0916313AFA3B0916413B8A7E091651382
:10553000E9A7292F3A2F4B2F5E2F612F702F872D30
:10554000962D0E9467F81B012C0120E030E0A90194
:105550000E94EBF987FF04C057FA509457F8509413
:1055600081149104A104B104B1F420E030E040E8DA
:105570005FE3C201B1010E94C0F387FF18C0F8A920
:1055800046015701FF2399F020E1820E27E2921E87
:10559000A11CB11C0CC020E030E040E450E4C2018A
:1055A000B1010E94EBF9181614F44601570138A115
:1055B0003323C1F18AA19BA1ACA1BDA1892B8A2B68
:1055C0008B2B61F0D701C6012AA13BA14CA15DA1A3
:1055D000821B930BA40BB50BB7FD24C02EA13FA1DA
:1055E00048A559A569A97AA98BA99CA90E9467F821
:1055F00020E030E040EC5FE30E94C0F387FD30CF55
:10560000D701C601805A9541AF4FBF4F8AA39BA3D4
:10561000ACA3BDA39EA199ABAFA1AAABB8A5BBABF0
:10562000E9A5ECAB80914F01882309F419CF8114CF
:105630009104A104B10431F418AAC12ED02EE72C94
:10564000F62CDECEF0E1CF1AF7E2DF0AE108F1082E
:10565000C818D908EA08FB08F7FCEECF01CF63E7CA
:1056600070E080CE0E94AF3988E50E9410958823B3
:1056700031F05E9A8091AE0D8E7F8093AE0D89E5FC
:105680000E941095882331F05E9A8091AE0D8D7F37
:105690008093AE0D8AE50E941095882309F427CDEA
:1056A000159A8091AE0D8B7F8093AE0D20CD83E552
:1056B0000E945995882391F00E94DD946093660BB7
:1056C0007093670B8093680B9093690B60936E0BDC
:1056D00070936F0B8093700B9093710B80E50E9419
:1056E0005995882351F00E94DD946093660B709366
:1056F000670B8093680B9093690B82E50E94599524
:10570000882351F00E94DD9460936A0B70936B0BB9
:1057100080936C0B90936D0B84E50E9459958823C0
:1057200009F4E5CC0E94DD9460936E0B70936F0BCF
:105730008093700B9093710BDACC82E40E941095E9
:10574000882351F00E9495946093420B7093430B11
:105750008093440B9093450B83E50E94109588231A
:1057600051F00E94DD946093720B7093730B8093E1
:10577000740B9093750B84E50E941095882351F06B
:105780000E94DD946093760B7093770B8093780B77
:105790009093790B88E50E941095882351F00E9420
:1057A000DD9460932E0670932F06809330069093BD
:1057B000310689E50E941095882351F00E94DD94FE
:1057C00060933206709333068093340690933506C7
:1057D0008AE50E9410958823B1F00E94DD946093C1
:1057E00036067093370680933806909339062DEC71
:1057F0003CEC4CEC5DE30E94C0F3181624F086E408
:1058000095E00E94DE3285E40E941095882309F419
:105810006ECC0E94DD9460933A0670933B068093B1
:105820003C0690933D0663CCF7FAF094F7F8F094B9
:10583000D101CD92DD92ED92FC9213976ACB4F92FB
:105840005F926F927F928F929F92AF92BF92CF9210
:10585000DF92EF92FF920F931F93CF93DF93EC01B0
:105860006091FE0C7091FF0C072E000C880B990BB9
:105870000E94C7F39B01AC01688179818A819B8179
:105880000E9467F86B017C016091000D7091010D21
:10589000072E000C880B990B0E94C7F39B01AC01EB
:1058A0006C817D818E819F810E9467F84B015C0134
:1058B00020910B0130910C0140910D0150910E018E
:1058C000C701B6010E94C0F3882309F467C0C092E3
:1058D0000B01D0920C01E0920D01F0920E0120918B
:1058E000B9023091BA024091BB025091BC02C7018B
:1058F000B6010E9426F42B013C010E9493F96B0132
:105900007C0120E030E0A9010E94C0F387FD11C0B6
:1059100020E030E040E850E4C701B6010E94EBF916
:10592000181654F4C12CD12CC0E8EC2EC0E4FC2E87
:1059300003C0C12CD12C7601A7019601C301B2018D
:105940000E9467F82B013C0120E030E0A9010E9491
:10595000C0F387FD09C04092B5025092B602609232
:10596000B7027092B80208C01092B5021092B60247
:105970001092B7021092B802C701B6010E945DF9F9
:105980006093B402062E000C770B6F5F7F4F64307C
:10599000710514F064E070E06093B3022091070198
:1059A000309108014091090150910A01C501B401EB
:1059B0000E94C0F3D09106011091B402811103C07E
:1059C000D11368C028C18092070190920801A0926B
:1059D0000901B0920A012091BD023091BE024091AE
:1059E000BF025091C002C501B4010E9426F44B01D0
:1059F0005C010E9493F96B017C0120E030E0A90179
:105A00000E94C0F387FD11C020E030E040E850E480
:105A1000C701B6010E94EBF9181654F4C12CD12C21
:105A2000B0E8EB2EB0E4FB2E03C0C12CD12C7601E4
:105A3000A7019601C501B4010E9467F84B015C0102
:105A400020E030E0A9010E94C0F387FD09C08092E8
:105A5000AF029092B002A092B102B092B20208C01E
:105A60001092AF021092B0021092B1021092B202E4
:105A7000C701B6010E945DF96093AE02062E000CCC
:105A8000770B6F5F7F4F6430710514F064E070E056
:105A90006093AD02C091AE02D11305C080910501A3
:105AA0008C1709F46EC010930601C09305010C2EEB
:105AB000000CDD0B85E0F82E2F2D1203C001112400
:105AC000FC01EC0FFD1FEE0FFF1FEE0FFF1FE65650
:105AD000F34F20813181428153812093A902309379
