:020000040800F2
:1000000000C00020A5030008010E0008050E00082E
:10001000090E00080D0E0008110E0008FF1400085C
:10002000FF140008FF140008FF140008FF14000864
:10003000FF140008FF140008FF1400081115000841
:10004000FF140008FF140008FF140008FF14000844
:10005000FF140008FF140008550E0008750E000874
:10006000950E0008B50E0008D50E0008A10C00087A
:10007000B90C0008D10C0008ED0C0008090D0008AF
:10008000250D0008410D0008AD0A0008FF14000806
:1000900089200008FF140008FF140008F50E00086E
:1000A000F5170008191800083D1800087518000811
:1000B000C918000839190008A91900080D1200080C
:1000C000251200081912000831120008FF14000858
:1000D000FF140008F51D0008451E0008951E0008C5
:1000E000390F0008FF140008FF140008D11A000897
:1000F000F51A0008191B0008511B0008050B000821
:10010000FF140008FF140008191A0008FF14000863
:10011000E51E0008351F0008891A0008AD1A0008FE
:100120005D0D0008750D00088D0D0008A90D000873
:1001300010B5054C237833B9044B13B10448AFF321
:1001400000800123237010BD70100020000000000B
:1001500048FB020808B5034B1BB103490348AFF342
:10016000008008BD000000007410002048FB020859
:1001700010B512490A2309220968114800F0EAF96A
:1001800010490323022209680F4800F0E3F90F49E0
:100190001B231A2209680E4800F0DCF90D492B23B5
:1001A0002A2209680C4800F0D5F9BDE810400B4937
:1001B00032232C2209680A4800F0CCB984020020BE
:1001C0008C10002088020020A41000208C02002047
:1001D000BC1000207C020020D410002080020020EF
:1001E000EC10002010B5044600F0E2FC034B204662
:1001F000BDE81040197800F043BC00BF1600002095
:10020000F8B50446056801F0DFF9002223685B01B8
:1002100003F184431A6080232B600123AB622A61BF
:10022000EA606B61637973B1012B0FD001222368FF
:100230005B0103F18443C3F8802223685B0103F16F
:1002400084431A60F8BD4FF400436B644FF6FF72AD
:1002500000252368DA626E1CF7B23946204601F0A9
:10026000C8F9E8B148F6FF72236817F0010F03F1EF
:10027000340343F8252014BF6FF0FF026FF47F4270
:1002800023684FEA650503F1180353F8251001EAC6
:10029000020114BF68224FF4D0420A4343F82520DC
:1002A000042E3546D7D1C1E77047000038B5002588
:1002B000264A274C1368022043F01003136000F015
:1002C0005DFE002001F010F865602368182023F41B
:1002D0000023236001F014F8102001F011F800F061
:1002E00043F8A560102000F0FFFF102001F016F881
:1002F0000028FAD000F039F8164801F01BF8182051
:1003000000F0F2FF182001F009F80028FAD00220CE
:1003100000F0DAFF00214FF0006000F0B9FF0E4856
:1003200001F0EEF800F038F80C4B188800F028FCCB
:100330000B4800F029FC0B4801F020F900F02EF8E2
:1003400000F02DF8FFF7B0FF38BD00BF00200240DD
:10035000001002400C0000203F1901001400002092
:10036000E5010008010200087047002108B50846B1
:1003700001F020F84FF48061012001F01BF800210A
:10038000022001F017F82D2001F024F8BDE8084004
:100390000021032001F00EB800F004BE704700F009
:1003A00040BE000001498D460149084700C00020B9
:1003B000B503000808B5114B1A68114B9A4213D1C6
:1003C000104B114A934213D328F08CFC00221146A3
:1003D000104602F0A9FD0D4B7BB128F01FFA52F830
:1003E000041B043343F8041C09498B42F7D3E7E7A5
:1003F0000022043343F8042CE3E7FEE778570308B0
:100400000000002070100020082900201D8802082C
:100410007010002010B50D4B1A680AB90C4A1A600A
:100420001A680C49891A814204DB09494442511A6D
:10043000A14207DA28F0ECF90C234FF0FF320360F9
:10044000104610BD10441860FAE700BF04110020E8
:1004500008290020B0CD0328002070474FF4005336
:1004600000204B607047012070474FF0FF3070470D
:100470000020704710B50C46FFF7FAFF20700120EE
:1004800010BD704770B515460C468E18B44201D1A8
:10049000284670BD14F8010BFFF7F3FFF6E7FEE7FF
:1004A000C38882889B1AC2888188914282BF028950
:1004B00001329B1898B2704710B50369044658681A
:1004C000FFF7EEFF88B123695B689A88196892B2DA
:1004D000885C99881A89C0B292B28A420FBF002202
:1004E0009A88013292B29A8010BD4FF0FF30FBE73C
:1004F00008B503695868FFF7D3FF08BD03695B6857
:100500009988DA8892B28A421FBF9A881B6892B291
:10051000985C14BFC0B24FF0FF3070470269916819
:100520008888CB889BB28342FAD1126813685B0635
:10053000FCD5704713B504698DF8071001220DF141
:100540000701204601F079FB0028F7D0012002B016
:1005500010BD000030B54FF0000C4FF47A75C0E9C3
:1005600001C5034D016105600275437530BD00BFD3
:10057000E81003082DE9F74303690446DB68884661
:100580008B42914625D3067D134D3601AB19477D2D
:10059000586818B10022597B01F0E2F8206901F097
:1005A00001FB39016A18127BAB19CDF804901B7B53
:1005B000695800932069AB5901F0BBFB20694246A2
:1005C000002101F0DCFB206903B0BDE8F04301F03D
:1005D0000FBB03B0BDE8F083B00D03080022FFF7A6
:1005E000C9BF0000044B02791B789A4202BF034B3B
:1005F0001B681860704700BF281100202C110020D4
:10060000002310B50446036072B6054B193119700A
:10061000044B1860044800F0B1FF62B6204610BDDC
:10062000281100202C110020E50500080022036895
:100630001B685B0103F184431A6070470122036861
:100640001B685B0103F184431A607047036801393A
:100650001B6889B29962704703681A68D36A9BB2B3
:10066000994228BF19465162704738B561B90122D5
:1006700003681B68996203681B68DA6203681B6879
:10068000DC6AA4B2204638BD48224A434FF6FF71C7
:10069000B2FBF1F1013189B202EB5102B2FBF1F28E
:1006A00094B2FFF7D3FF036892B21B68DA62E9E7FE
:1006B000012203681B685B0103F18443C3F88022B5
:1006C0007047000008B501211048FFF799FF02218B
:1006D0000F48FFF795FF03210E48FFF791FF042114
:1006E0000D48FFF78DFF05210C48FFF789FF062114
:1006F0000B48FFF785FF07210A48FFF781FFBDE898
:10070000084008210848FFF77BBF00BF0811002000
:100710000C110020101100201411002018110020CD
:100720001C1100202011002024110020F8B50646DD
:100730000C4615468F18A74206D0336814F8011BE3
:100740001B6830469847F6E72846F8BD70B5054661
:100750000C46084649B129F081FB2B680246214628
:100760002846BDE870409B68184770BD0368C9B251
:100770001B68184703685B68184738B50D210546A4
:10078000FFF7F4FF0A2104462846FFF7EFFF204455
:1007900038BD38B50546FFF7EDFF04462846FFF79C
:1007A000ECFF204438BD2DE970439046994690B047
:1007B00058EA090306469DF8585007D13021FFF743
:1007C000D5FF0125284610B0BDE8708300244046BF
:1007D00049462A4600231EF0E9FE80468946013438
:1007E0000DEB040303F8012C58EA0903EFD10025AF
:1007F000013C1DF804103046092994BF30313731CF
:1008000049B2FFF7B3FF0544002CF1D1DAE72DE937
:10081000F0411D46002A75F1000307461446069E66
:1008200005DA2D21FFF7A2FF644265EB4505F6B21C
:10083000069622462B463846BDE8F041FFF7B3BF87
:1008400007B5CB1700920A46FFF7E1FF03B05DF84A
:1008500004FB38B50546FFF7F3FF04462846FFF7CB
:100860008CFF204438BD07B5CB1700920A46FFF72E
:10087000CEFF03B05DF804FB37B5CB1700920A46F4
:100880000546FFF7C4FF04462846FFF776FF2044DD
:1008900003B030BD07B5D2B200920023CAB2FFF751
:1008A00082FF03B05DF804FB07B5D2B200920023CB
:1008B0000A46FFF778FF03B05DF804FB37B5D2B204
:1008C000009200230A460546FFF76DFF04462846BE
:1008D000FFF753FF204403B030BD000000000000CC
:1008E0002DE9F34717461E4682460022002338466C
:1008F00031461EF089FA9DF828504FF00104F8B1F6
:1009000043A3D3E90023384631461EF073FA00B9F9
:100910000446E4B20022002338463146C4B11EF03A
:1009200055FA18B12D215046FFF720FF04463C49E7
:100930005046FFF71FFF0444204602B0BDE8F08791
:1009400035A3D3E90023384631461EF049FADEE7E5
:100950001EF03CFA30B12D215046FFF707FF044648
:1009600006F100464FF0000800202E495FFA88F398
:100970009D4206D900222C4B1EF0E0F808F1010838
:10098000F4E73A4633461DF0F9FD06460F461EF0E1
:1009900025FE0A230246009380460B4650468946B0
:1009A000FFF735FF0444002DC6D0404649461DF0F0
:1009B0006DFF02460B46304639461DF0DDFD06460A
:1009C0000F4650461949FFF7D5FE0444013DEDB2EC
:1009D000FF2DB1D0144B0022304639461DF084FF64
:1009E0000F4606461EF01AFA0A2201468046504675
:1009F000FFF726FF044440461DF00CFF02460B465D
:100A0000304639461DF0B8FD06460F46DEE700BF0A
:100A1000800350726C92DF43800350726C92DFC38C
:100A2000041103080000E03F000024409133030854
:100A30009DF800100091FFF753BF37B59DF81810CF
:100A400005460091FFF74CFF04462846FFF795FE48
:100A5000204403B030BDFEE7704710B5044600796E
:100A600000F076FC2079BDE8104000F089BC0268F7
:100A700041F48011936823F4602319439160704717
:100A8000002330B51C461D4603EB4302072B01FA39
:100A900002F203F10103D8BF15430A2B44EA020412
:100AA000F2D10368DD6003681C6130BD70B5144C81
:100AB00023681B681D68A90707D51A6822F002027F
:100AC0001A6023689B6803B198476A0709D52368B1
:100AD0001A68136823F00403136023681B6903B1C9
:100AE0009847EB070BD523681A68136823F00103B6
:100AF00013602368DB6813B1BDE87040184770BD10
:100B00001C00002070B5144C23681B681D68A907E1
:100B100007D51A6822F002021A6023689B6803B1A5
:100B200098476A0709D523681A68136823F00403F5
:100B3000136023681B6903B19847EB070BD5236843
:100B40001A68136823F0010313602368DB6813B18C
:100B5000BDE87040184770BD2400002001220368E2
:100B60005B0103F1844303F58673191F1A6018684B
:100B70000028FCD143F8042C0B68002BFCD17047F3
:100B80000146042000F016BC10B50446054B186859
:100B9000A047054B1868A047044B18682346BDE8DA
:100BA000104018471C0000202000002024000020D6
:100BB00010B50446FFF751FF20464FF46021FFF7C0
:100BC00056FF0122236820465B0103F18443C3F8EA
:100BD000502123685B0103F18443C3F80021BDE881
:100BE0001040FFF7BBBF007900F0B2BB14230139FE
:100BF000594300680830435823F4405343EA023213
:100C000042507047036814200833013900FB01315A
:100C10004A60704700EBC10340F8312093F904307B
:100C2000002B08DB0122591103F01F0302FA03F322
:100C3000014A42F82130704700E100E014220368C5
:100C4000013902FB01310123490101F18441C1F85D
:100C50000031704714220368013902FB013100237F
:100C6000490101F18441C1F8003170472DE9F0419B
:100C700014251C4690464B1E5D430668FFF7EAFFAD
:100C80009DF81C30240244EA8324089B08361C4348
:100C9000069B77197451FB60C7F80880BDE8F081A6
:100CA00010B5044B1C68A3681BB198470122236848
:100CB0005A6010BD6000002010B5044B1C68236909
:100CC0001BB19847102223685A6010BD60000020B5
:100CD00010B5054B1C68A36923B198474FF4807287
:100CE00023685A6010BD00BF6000002010B5054B9E
:100CF0001C68236A23B198474FF4805223685A60D6
:100D000010BD00BF6000002010B5054B1C68A36A31
:100D100023B198474FF4803223685A6010BD00BF5A
:100D20006000002010B5054B1C68236B23B1984769
:100D30004FF4801223685A6010BD00BF600000208D
:100D400010B5054B1C68A36B23B198474FF0807218
:100D500023685A6010BD00BF6000002010B5044B2E
:100D60001C68A3681BB19847012223685A6010BD14
:100D70006400002010B5044B1C6823691BB1984720
:100D8000102223685A6010BD6400002010B5054B86
:100D90001C68A36923B198474FF4807223685A6096
:100DA00010BD00BF6400002038B5104C636CD8073C
:100DB0000BD52368D90408D50D4B1D682B6A23B1C8
:100DC00098474FF480522B685A60A36DDA070BD511
:100DD0002368DB0308D5064B1C68A36A23B1984738
:100DE0004FF4803223685A6038BD00BF00040240CF
:100DF000640000200000000000000000000000006F
:100E0000012007E0022005E0032003E0042001E0C8
:100E10000520FFE70D4A0121116072B60C4A00213E
:100E20001160074902B4084902B486B005498E46EC
:100E3000704700BFAFF30080AFF30080AFF30080D6
:100E400000000061F9FFFFFFF52E000814ED00E03F
:100E500010E000E008B5054A136833B150689847C0
:100E60000122034B5A6100BF00BF08BD30110020B2
:100E70000004014008B5054A936833B1D06898472B
:100E80000222034B5A6100BF00BF08BD3011002091
:100E90000004014008B5054A136933B15069984709
:100EA0000422034B5A6100BF00BF08BD301100206F
:100EB0000004014008B5054A936933B1D0699847E9
:100EC0000822034B5A6100BF00BF08BD301100204B
:100ED0000004014008B5054A136A33B1506A9847C7
:100EE0001022034B5A6100BF00BF08BD3011002023
:100EF000000401402DE9F041002705240C4DD5F8F0
:100F000014800126A64018EA060F08D0094BE1001C
:100F100053F834201AB10B445868904737430134D2
:100F20000A2CEED16F6100BF00BFBDE8F08100BFA9
:100F300000040140301100202DE9F04100270A246F
:100F40000C4DD5F814800126A64018EA060F08D0EB
:100F5000094BE10053F834201AB10B44586890470C
:100F600037430134102CEED16F6100BF00BFBDE8E4
:100F7000F08100BF0004014030110020034A1368D3
:100F800023F0070318431060704700BF00200240A1
:100F900010B50446007900F0DBF92079BDE8104077
:100FA00000F0EEB908B50748FFF7F2FF0648FFF773
:100FB000EFFF0648FFF7ECFFBDE808400448FFF7E5
:100FC000E7BF00BFD8000020E0000020E8000020BC
:100FD000F000002070B50F250368CE0801F007006F
:100FE000840053F82600092A05FA04F520EA0505CD
:100FF00014BF10460820A0402843082A43F82600C2
:1010000007D10120DA6800FA01F122EA0101D96072
:1010100070BD092AFCD10122D86802FA01F101430E
:10102000F5E708B5032000F093F9BDE80840032078
:1010300000F0A6B903681A6812F4985FFBD11A6829
:1010400042F480721A60704703681A6812F4985F5D
:10105000FBD11A6842F400721A600268136813F434
:10106000985FFBD17047000070B502684568516910
:1010700092695A4AAE781268CB07044606F0010618
:10108000C26014D50023EB8000F0D8F822685368C2
:1010900043F48063536026B12268136843F480638D
:1010A000136000212B88226846EA4303136111F084
:1010B0000A0F10D0AB88002E45D0012B0AD1226830
:1010C0002046136823F480631360A38B012B37D968
:1010D000FFF7B0FF002101F08402802A03D1A38B27
:1010E000002B49D1002101F08402842A0DD1A18B6B
:1010F0002046002954D0FFF79DFF22685369D90785
:10110000FCD5002163680C3363604B0661D523680E
:10111000AA681969EB88581CE880D154AB88EA8822
:10112000591E8A424BD122682046136823F48063FB
:101130001360A38B022B3ED9BDE87040FFF77ABF46
:10114000FFF782FFC6E7012B08D9EB88A9685A1C74
:10115000EA802268CB5C13613146BCE7002BFBD1EF
:101160002046FFF771FF2268536823F40073536031
:10117000022384F82330ADE7EB88A9685A1CEA8083
:101180002268CB5C1361EA88AB889A42AAD12268B4
:10119000536823F480635360A38B013BA383A1E7CF
:1011A000FFF752FF2268536823F400735360022351
:1011B00084F82330A9E7BDE87040FFF745BF9A42A5
:1011C00007D1A38B013B9BB2A3831BB9022384F8F5
:1011D000233070BD63680C336360FAE7A4280020F5
:1011E00008B50268536903F4706383600023536198
:1011F00002689361FFF728FF0268536823F4E063F5
:101200005360FF2380F8233008BD00000148FFF73A
:101210002BBF00BFF80000200148FFF725BF00BF2B
:101220001C0100200148FFF7DBBF00BFF8000020D1
:101230000148FFF7D5BF00BF1C01002010B50446D0
:10124000002190F9210000F00FF894F9220000210C
:10125000BDE8104000F008B84AF6AA22014B1A6017
:10126000704700BF003000400028A8BF00F1604078
:101270004FEA0111B8BF054BC9B2B5BF00F00F006E
:1012800000F56140195480F80013704714ED00E038
:1012900010B5002421F0604121F07F01064A01438E
:1012A000916060B20F210134FFF7DEFF3C2CF8D1D2
:1012B000F02382F8233010BD00ED00E0014B13F85D
:1012C0001000704730110308064B5A6822F00302E1
:1012D00002435A6080005A6802F00C028242FAD13E
:1012E000704700BF00100240030AC2B2012003F1A0
:1012F000804303F504331968904008431860704731
:101300000121030A03F1804303F504331A68C0B2D4
:1013100001FA00F022EA000018607047030A03F1A6
:10132000804303F504331A680223C0B203FA00F0C5
:1013300010407047054A0168536823F474130B4347
:10134000416809680B435360704700BF00100240BA
:1013500010B50446FFF7B2FF074B53F820200748AB
:1013600000EB4400437803EBC20301229B0003F12E
:1013700084431A6010BD00BF4001002030110308F3
:1013800010B50446FFF79AFF084B53F82020084891
:1013900000EB4400437803EBC20301229B0003F1FE
:1013A00084431A6000221A6010BD00BF580100205B
:1013B0003011030810B5054A054C536854F8200055
:1013C00023EA00030B43536010BD00BF001002402E
:1013D0001C11030810B50446FFF770FF074B53F8C4
:1013E0002020074800EB4400437803EBC2030022AF
:1013F0009B0003F184431A6010BD00BF4C01002024
:101400003011030801EBC000800000F1844002604D
:10141000704710B504460079FFF79AFF2079BDE8C0
:101420001040FFF7ADBF012206210068FFF7EABFB9
:10143000002206210068FFF7E5BF10B50C460168E1
:1014400003464A6822F0E0024A600268126862407D
:1014500012F4205F01D0FFF7EBFF1A681846146002
:10146000BDE81040FFF7DFBF134343F00403194307
:10147000FFF7E3BF0122006811460430FFF7C2BF47
:101480000068002201210430FFF7BCBF0068012280
:1014900000210430FFF7B6BF002203685B0103F1AF
:1014A0008443C3F880207047F8B51046069C9DF829
:1014B0001C709DF820609DF8245081B10B223946A4
:1014C0002046FFF787FD042231462046FFF782FDC4
:1014D0000B2229462046BDE8F840FFF77BBD1946A0
:1014E0000422FFF777FD042239462046FFF772FDFC
:1014F0000B2231462046FFF76DFD0422E9E7FEE7A7
:101500000722024B58601A60704700BF10E000E0ED
:10151000044A136801331360034B1B6803B1184777
:10152000704700BFA4280020B011002011F0010F67
:1015300070B501F1FF340DBF082500256FF0FF01E4
:101540006FF47F410068C4F34004183050F8246001
:1015500013433140AB400B4340F8243070BD026868
:101560004B1E02F1404220329B0003EBC2030122DA
:101570009B0003F184431A607047000010B50446D5
:101580000948A0470948A0470948A0470948A0477B
:101590000948A0470948A0470948A0472346BDE895
:1015A00010400848184700BF84010020AC0100200B
:1015B000D0010020F4010020180200203C0200208D
:1015C000480200205402002010B504460079FFF7BD
:1015D000BFFE2079BDE81040FFF7D2BE00230268AD
:1015E00013600268D3604279012A9CBF02681362CB
:1015F000704703791E2B10D9212B0ED0202B0ED92A
:10160000222B01D0252B04D102298CBF00200120E0
:1016100070474B1E584258417047012070470020C8
:10162000704700008B1C40F82320012342798B4037
:1016300010B5DB43EAB1012A41F65F6218BF01220F
:101640001340012204682361036803F140430C3313
:1016500001EBC3039B0003F184431A6042790379D1
:101660003ABB072915D8DFE801F007151515151A3B
:101670001A1F41F6FF62E3E71A2B0CBF19232C2334
:101680000122590903F01F0302FA03F3254A42F825
:10169000213010BD1A2B0CBF1B232E23F0E71A2B71
:1016A0000CBF1A232D23EBE71A2B0CBF18232B2377
:1016B000E6E71B3B0C2BECD801A252F823F000BF4D
:1016C00021170008F5160008F9160008FD16000895
:1016D00001170008051700089316000809170008ED
:1016E0000D17000811170008151700081917000832
:1016F0001D1700081D23C3E71E23C1E73223BFE7E0
:101700003623BDE73723BBE71823B9E71923B7E72B
:101710001A23B5E72B23B3E72C23B1E72D23AFE73B
:101720001C23ADE700E100E00022036803F1404321
:101730000C3301EBC3039B0003F1844302311A60B5
:1017400040F82120704738B504460D461346002264
:10175000FFF7ECFE29462046BDE83840FFF7FFBE04
:1017600038B543790546022B0C4615D0042A13D808
:10177000DFE802F003132A2D3A00FFF7D5FF0268D5
:10178000631E02F1404220329B0003EBC2030022A1
:101790009B0003F184431A6038BD0022036803F103
:1017A00040430C3301EBC3039B0003F184431A60F5
:1017B0000823602221462846FFF7B8FE2146284626
:1017C000BDE83840FFF7CBBE00231022F2E74FF20E
:1017D000F11203689A61032203689A600368012288
:1017E0005B0103F18443D6E70122BDE83840FFF7EF
:1017F000AABF000010B5074A1468E36821690B40CE
:101800001B0606D5536A23B19847236923F080034A
:10181000236110BD8401002010B5074A1468E368F5
:1018200021690B40DB0706D5936823B198472369EC
:1018300023F00103236110BD84010020F8B50C4D95
:101840002F68FE683B691E4016F0400403D02C6AE6
:101850000CB1A0474024B30604D5EB6913B19847F7
:1018600044F020043B6923EA04043C61F8BD00BF56
:1018700084010020F8B5134D2F68FE683B691E40B7
:1018800016F0100403D0AC690CB1A0471024310746
:1018900004D56B6913B1984744F00804720704D566
:1018A0002B6913B1984744F00404B30704D5EB68DF
:1018B00013B1984744F002043B6923EA04043C61F5
:1018C000F8BD00BF84010020F8B51A4D2F68FE68EE
:1018D0003B691E4016F0400403D02C6A0CB1A047AF
:1018E0004024F30604D5AB6913B1984744F01004C3
:1018F000300704D56B6913B1984744F008047107A9
:1019000004D52B6913B1984744F00404B20704D5F9
:10191000EB6813B1984744F00204F30704D5AB68B1
:1019200013B1984744F001043B6923EA04043C6185
:10193000F8BD00BFAC010020F8B51A4D2F68FE6855
:101940003B691E4016F0400403D02C6A0CB1A0473E
:101950004024F30604D5AB6913B1984744F0100452
:10196000300704D56B6913B1984744F00804710738
:1019700004D52B6913B1984744F00404B20704D589
:10198000EB6813B1984744F00204F30704D5AB6841
:1019900013B1984744F001043B6923EA04043C6115
:1019A000F8BD00BFD0010020F8B51A4D2F68FE68C1
:1019B0003B691E4016F0400403D02C6A0CB1A047CE
:1019C0004024F30604D5AB6913B1984744F01004E2
:1019D000300704D56B6913B1984744F008047107C8
:1019E00004D52B6913B1984744F00404B20704D519
:1019F000EB6813B1984744F00204F30704D5AB68D1
:101A000013B1984744F001043B6923EA04043C61A4
:101A1000F8BD00BFF4010020F8B51A4D2F68FE682C
:101A20003B691E4016F0400403D02C6A0CB1A0475D
:101A30004024F30604D5AB6913B1984744F0100471
:101A4000300704D56B6913B1984744F00804710757
:101A500004D52B6913B1984744F00404B20704D5A8
:101A6000EB6813B1984744F00204F30704D5AB6860
:101A700013B1984744F001043B6923EA04043C6134
:101A8000F8BD00BF1802002010B5074A1468E368CB
:101A900021690B40DB0706D5936823B1984723697A
:101AA00023F00103236110BD3C02002010B5074A5A
:101AB0001468E36821690B40DB0706D5936823B1FE
:101AC0009847236923F00103236110BD48020020D9
:101AD00010B5074A1468E36821690B401B0606D558
:101AE000536A23B19847236923F08003236110BD13
:101AF0005402002010B5074A1468E36821690B40BE
:101B0000DB0706D5936823B19847236923F00103C7
:101B1000236110BD54020020F8B50C4D2F68FE68FB
:101B20003B691E4016F0400403D02C6A0CB1A0475C
:101B30004024B30604D5EB6913B1984744F0200460
:101B40003B6923EA04043C61F8BD00BF5402002055
:101B5000F8B5134D2F68FE683B691E4016F010045F
:101B600003D0AC690CB1A0471024310704D56B69D0
:101B700013B1984744F00804720704D52B6913B1D8
:101B8000984744F00404B30704D5EB6813B19847B1
:101B900044F002043B6923EA04043C61F8BD00BF41
:101BA0005402002000223F2110B504464368103043
:101BB0009A801860DA801981A3689A80DA8004F12B
:101BC000500219811A6094F89000FFF7C1FB94F954
:101BD0009130002B08DB0122591103F01F0302FA98
:101BE00003F3024A42F8213010BD00BF00E100E0DB
:101BF0000368DA6842F02C02DA60DA6842F40052D4
:101C0000DA60704710B5036881688C88CA8892B220
:101C1000A242FAD1DA68910402D51A685206F9D5BF
:101C2000DA6822F40052DA60426893889BB2D3806B
:101C3000826893889BB2D38010BDF0B50B460646F0
:101C40000468B568581AAF88ED88ADB2BD4204D1BA
:101C500025682D0601D5824210D8E36823F0800361
:101C6000E3609042B3680DD39A88DB889BB29342BD
:101C70001EBFE36843F08003E360F0BD13F8010B7F
:101C80006060DEE7DD889F880135BD42ECD0DF88EB
:101C90001D89ADB2BD4203D19D88ADB2002DE3D008
:101CA000DD8811F800C01F68ADB207F805C0DF88F5
:101CB0001D890130ADB2BD420FBF0025DD88013561
:101CC000ADB2DD80CDE703468288016892B2885CC0
:101CD00099881A89C0B292B28A420FBF00229A88AC
:101CE000013292B29A80704738B5C3888288013336
:101CF000934204460D4607D0C28803899BB29342A3
:101D000014D183889BB28BB92046FFF7DCFFE388B0
:101D100022689BB2D554E28823899BB293420FBFBD
:101D20000023E38801339BB2E38038BD4FF0FF30DE
:101D3000EDE770B51E460546084611460422059C8F
:101D4000FFF748F90B229DF810103046FFF742F9D3
:101D500029686302CA6803F4F05322F4F0521204B3
:101D6000120C1343CB602A682402136904F4405414
:101D700023F440531B041B0C1C43146170BD38B585
:101D80000546144611B900F0FDF8014619235943E0
:101D9000A200B1FBF2F26421B2FBF1F001FB1023CF
:101DA0001B013233B3FBF1F303F00F032C6843EA5A
:101DB00000139BB2A36038BD10B50446084B1868E9
:101DC000A047084B1868A047074B1868A047074B67
:101DD0001868A047064B18682346BDE8104018470E
:101DE00084020020880200208C0200207C02002057
:101DF0008002002010B5104CE368980607D52368D0
:101E0000990604D561680D48C9B2FFF76DFFE36814
:101E10001A060BD523681B0608D509488288C38893
:101E20009BB2934203D0FFF74EFF606010BDE368A2
:101E300023F08003E360F9E700380140E41100205B
:101E4000F011002010B5104CE368980607D5236800
:101E5000990604D561680D48C9B2FFF745FFE368EC
:101E60001A060BD523681B0608D509488288C38843
:101E70009BB2934203D0FFF726FF606010BDE3687A
:101E800023F08003E360F9E700440040FC110020E8
:101E90000812002010B5104CE368980607D5236897
:101EA000990604D561680D48C9B2FFF71DFFE368C4
:101EB0001A060BD523681B0608D509488288C388F3
:101EC0009BB2934203D0FFF7FEFE606010BDE36853
:101ED00023F08003E360F9E700480040141200207B
:101EE0002012002010B5104CE368980607D523682F
:101EF000990604D561680D48C9B2FFF7F5FEE3689D
:101F00001A060BD523681B0608D509488288C388A2
:101F10009BB2934203D0FFF7D6FE606010BDE3682A
:101F200023F08003E360F9E7004C0040B411002087
:101F3000C011002010B5104CE368980607D523683F
:101F4000990604D561680D48C9B2FFF7CDFEE36874
:101F50001A060BD523681B0608D509488288C38852
:101F60009BB2934203D0FFF7AEFE606010BDE36802
:101F700023F08003E360F9E700500040CC1100201B
:101F8000D811002008B590F89000FFF797F920B11C
:101F90000128034818BF002008BD0248FCE700BF25
:101FA00000A24A040051250230B548F28005094CD0
:101FB000226822F4804222F070022A4342402260CA
:101FC000236823F4E04323F040032B434B4023607A
:101FD00030BD00BF005C0040284B072818BF1870B8
:101FE0001A78052A48D8DFE802F003131E232B369F
:101FF0004FF6FB71224A106C014011644FF43F41CF
:10200000116406221A701F4B1B685A7B1A737047A3
:102010004FF6FB711A4A106C014011644FF43F41B6
:102020001164042202E002225A7003221A7006E0B0
:102030005A78013AD2B25A705A78002AF1D07047D1
:102040000F490A6C92B242F010020A6405221A701B
:102050000A225A7070475A78013AD2B25A705A78A6
:10206000002AECD14FF6EF720549086C02400A6471
:10207000044A1268517B11730622D7E7A828002072
:10208000005C0040740500202DE9F0415F4D604A7E
:102090002B68546C1B68A4B223405E0506D56FF410
:1020A000806353645B4B1B685B6898472A681368BE
:1020B0002340980442BF6FF40051554B5964136894
:1020C0002340D90406D56FF4C052514B00205A6406
:1020D000FFF782FF2B681A68224012050FD54C4982
:1020E0000A6C92B242F0080042F00C0208640A64E2
:1020F0001A7B5A7303221A736FF4C0524A641A6827
:102100002240970542BF6FF40071414A51641B6839
:102110002340DE0506D56FF480723D4B07205A64DC
:10212000FFF75AFF2B681B681C40240403D5384C6A
:10213000676C3B0401D4BDE8F0816FF4004317F0F5
:102140000F06636438D148F68003D4F8008018EA9B
:10215000030FECD01FFA88F32F4D304E03F440529A
:102160004FF4005003F03003202133802A80FFF722
:102170001BFFF80623680ED423F4E14323F0700319
:102180001B041B0C236000F09BFD31882888BDE8F0
:10219000F041FFF709BF18F0800FEDD123F0700375
:1021A0001B051B0D18F4006F236002D000F0A6FB86
:1021B000EBE700F003FDE8E7B40004F1804404F528
:1021C000B844276839040DD5236823F070031B0534
:1021D0001B0D23602A6806F180439268013B52F888
:1021E000233098473A06A2D5236806F1804623F4A7
:1021F000E14323F070031B041B0C23602B68013E9A
:102200005B6853F82630984791E700BF74050020BB
:10221000005C0040B0280020AA280020AC28002044
:10222000800000F1804000F5B840036823F480434B
:1022300023F0700343F4004343F0800359400160EE
:102240007047000018B90722024B1B681A82024827
:10225000704700BFB8280020E405002000220121BB
:1022600010B5104B1B689A720F4B19640F49086820
:102270000260086804681C644FF4E0545A64046007
:10228000086804681C644FF43F445A64046008689A
:10229000006818644FF48010054B18600B681A73BF
:1022A00010BD00BFB8280020005C0040740500206D
:1022B00000E100E013B5104B1A68137803F07F03B8
:1022C000212B16D1022808D0222801D0022405E0B3
:1022D00093780A4A03F0030313700024084B1B6829
:1022E00023B102A901F8010D02209847204602B04F
:1022F00010BD0224FAE700BFB828002030120020E9
:102300002C12002021B901288CBF02200020704728
:1023100002207047054B1B689B78032B04D80449A7
:1023200001EBC30100F0BCBA00207047B8280020C0
:10233000CC050020014900F0B3BA00BF8805002099
:10234000014900F0ADBA00BF9005002037B5114C2F
:102350002268127802F07F02212A02D0022003B004
:1023600030BDA0F12003012B0B4B0C4D1B6888BF27
:10237000002523B102A901F8010D02209847002D84
:10238000ECD0236800249D615C822046A84720464B
:10239000E5E700BFB82800202C12002045220008E5
:1023A0002DE9F04700254FF0C00948F68F1648F296
:1023B00080074FF0400A434B434C1B68DFF83881DD
:1023C0009D7283F80990256523682846334043F4BD
:1023D00000732360236803EA08033B4383F0100380
:1023E0002360226D394B520043F802A08022236DF6
:1023F0005B0003F1804303F5C0431A60236823F4B4
:10240000E24323F070031B041B0C2360304B1B685A
:1024100093F82C1000F072F84FF440512846FFF763
:10242000FFFEA3682946334043F4C063A360226DD6
:10243000284B520013444FF480721A60A2680220A5
:1024400002EA08023A4382F02002A260FFF7E8FEA7
:10245000E36851463340E360226D1F4B5200134442
:102460004FF4887203201A6000F048F84FF440518E
:102470000320FFF7D5FE636829461E406660226D83
:10248000164B520043F802906368012003EA0803E8
:102490003B4383F020036360FFF7C2FE0122104B31
:1024A00028461B681A7300F0EBFBFF220D4B1D60E2
:1024B0000D4B1D600D4B1D600D4B1D600D4B1A70BB
:1024C000BDE8F087B8280020005C004008600040AC
:1024D000B0280020206000403860004010600040BC
:1024E0007405002034120020381200204012002011
:1024F000441200203C120020BF8FFFFF0D4B0E4AFC
:102500001B6D3E2903EBC0004FEA400002440AD98C
:102510004B09C80604BF03F1FF339BB29B0243F48F
:102520000043136070474B08C90748BF01339B0243
:10253000F7E700BF005C00400C60004010B5064C9F
:1025400018B9012223681A8210BD044B1B681B684E
:10255000984720680A30F7E7B8280020B428002000
:1025600010B5064C18B9012223681A8210BD044B1D
:102570001B689B68984720680C30F7E7B828002054
:10258000B428002010B51E4B1C68002310B902238C
:10259000238210BD1B4803802178024611F07F0181
:1025A00012D1617A8C0644BF022303700378480677
:1025B0004CBF23F0010343F001031370124B1B685F
:1025C0001B6998470F48E4E70129E2D0022915D199
:1025D000217901F00F039B0003F1804303F5B84319
:1025E00009061B6805D503F03003102BE6D1012343
:1025F000E3E703F44053B3F5805FF7E71846C8E715
:10260000B8280020AE280020B42800202DE9F84387
:10261000234FDFF8A0803D682C8AD4B92E7A042E8F
:1026200017D120490B78012B0ED11F4B1A681F4B75
:1026300092B213445B001C6030230C70A8F8003089
:102640003B681E72BDE8F88310230726A8F8003007
:10265000F6E7AB8A9C4294BF042602269C4228BF20
:102660001C46AB69204698478146002000F0B4FB29
:1026700022460146484600F052FB2146002000F069
:10268000C7FB2B8A4FF440521B1B2B826B8A1C44C6
:102690003023A8F80030064B6C821A80D0E700BFC8
:1026A000B828002048120020505C00400230002072
:1026B000AA280020AC28002010B50A4B0A491B6844
:1026C00049789A7891420AD3D97841B99C8834B92B
:1026D0009A72064B1B685B689847204610BD022023
:1026E000FCE700BFB8280020C8050020B42800205F
:1026F00038B50F4A0F4D12682B689269997818798E
:1027000090472B6804469A7A7AB170B95A7962B9BF
:10271000DB7853B9084B1B68DB6898472B681A793C
:10272000DA729A781A73204638BD0224FBE700BF9C
:10273000B0280020B8280020B428002038B52B4B42
:102740001B68187810F07F0004D15A7A22F020021A
:102750005A7238BD022847D15A88002AF9D15A79CD
:10276000002AF6D11979224D21F08000840004F16D
:10277000804404F5B844226849B22D780029B4BFDA
:1027800002F0300202F4405285422DD962B39B7AA6
:1027900053B30029236811DA03F03003102B07D15B
:1027A000C4B2204600F004FB3021204600F0D8FAE5
:1027B000104B1B685B6998470020CAE703F440533D
:1027C000B3F5805FF4D10C4D58B90C4B93F82C1035
:1027D00000F02CFB23682B409BB283F44053236012
:1027E000E6E700F0D2FAF5E70220B2E7B8280020C9
:1027F000C8050020B42800208FBFFFFF98050020E7
:1028000038B51B4B1B4D18682D78017921F08004D9
:10281000A30003F1804303F5B8431A6849B20029C5
:10282000B4BF02F0300202F44052A5421DD94488E0
:10283000DCB9D2B1827AC2B11A680029B5BF22F4DC
:10284000E04222F4804222F0400222F07002B5BF42
:1028500092B292B282F0100282F480521A60064B59
:102860001B689B699847002038BD0220FCE700BF29
:10287000B8280020C8050020B428002008B5064B61
:102880001A68537A43F020035372044B1B68DB69C8
:102890009847002008BD00BFB8280020B4280020B9
:1028A00010B5054B1C68628A18B98B889B1A238265
:1028B00010BD08681044FBE7B828002008B50B4B92
:1028C000002093F82C1000F0B1FA094B1B68187A1D
:1028D000082806D14FF48052064B1A801022064B6E
:1028E0001A80A0F109035842584108BD98050020FC
:1028F000B8280020AA280020AC28002073B5964CE8
:10290000964E216832680B7A092B16D0944B92B2FE
:1029100013445B001B885B0003F1804303F5C04355
:102920001A780A7059782268517099882268518003
:102930001989226891809B89D380012223681A72A9
:10294000DA885D78002A64D11A7812F07F024DD1BE
:10295000092D03D1FFF7B0FE40BB16E0052D20D1B5
:1029600093F90220002A07DA08232268137202B0C2
:10297000BDE87040FFF7A2BFDA78002AF4D19A8848
:10298000002AF1D19B7A002BEED13268754B92B2BE
:10299000134400225B001A603022734B1A80062316
:1029A000E3E7032D14D19A78012A08D06F4B28460B
:1029B0001B685B699847032828D10923D5E79A88C3
:1029C000002AF3D15B7A9A06F0D5FFF757FFC3E7E9
:1029D000012DEBD19A78012AE8D19A88002AE5D115
:1029E0005B7A9B06E2D5FFF7A9FEB5E7012A04D181
:1029F0000B2DDBD1FFF77CFEAEE7022AD6D1012DED
:102A0000F1D0032DD2D1FFF7FBFEA5E70028ABD113
:102A1000BBE7062D12D11A7855065AD1DB78534AF6
:102A2000012B126802D1D369DBB952E0022B01D12C
:102A3000136AF9E7032B4CD1536AF5E7002D54D103
:102A40005988002945D15A6822F0FF02B2F5003FAB
:102A50003FD11A7812F07F0216D19B88002B38D113
:102A6000434B0025226828465582936198472846A3
:102A70004FF6FF7123681A8A8A4233D0022801D0A8
:102A8000002A55D108222EE0012A0AD1374A1879A6
:102A9000126892699047E0B923689B7A002BDFD1D6
:102AA00017E0022A15D11A7902F00F018B001006E7
:102AB00003F180432F4803F5B8431B6800784CBFEF
:102AC00003F0300303F44053884202D912F0700F30
:102AD000E4D0264B22681B6850781B69984703286E
:102AE000C6D1236809221A7241E7082D04D11B7848
:102AF0005B06EED1204BB4E70A2DEAD11A7802F03A
:102B00007F02012AE5D19A7A002AE2D05988002969
:102B1000DFD15A6822F0FF02B2F5803FD9D1134AC3
:102B200018791268926990470028D2D1134B98E720
:102B300093F90010002936DAD9880C4C01910198DC
:102B4000246882421CD9019A1A8294F82C209A8215
:102B5000FFF75CFD0BE700BFB8280020505C004089
:102B60000430002002300020AC280020B0280020D3
:102B700085250008C80500203D25000861250008BE
:102B80008A42E2D294F82C00824203D20021094A00
:102B90001170DAE792FBF0F100FB1122002AD4D188
:102BA000044A0121F4E703221A724FF44052024B07
:102BB0001A80DCE648120020AA280020F8B52A4E28
:102BC0003468237A032B01D0052B44D1A369B3B118
:102BD000258AA5B1A28A954228BF1546284698475E
:102BE000238A07465B1B2382638A00202B4463826F
:102BF00000F000F92A460146384600F09FF8238A83
:102C000053B100214FF44052184B08461A8000F08F
:102C1000FFF83022164B1A80228AA18A336891422B
:102C200009D803221A7233681B7A32681372BDE81E
:102C3000F840FFF743BE0AB10522F3E706211972F7
:102C40000C4B19680C4B89B20B445B001A603022A4
:102C5000074B1A80E7E7072B03D1084B1B68DB689B
:102C600098470823E1E700BFB8280020AA280020E1
:102C7000AC280020505C004002300020B02800202A
:102C8000002210B50C4B1C78A24204D30B4B40F031
:102C90008000186010BD02F1805303F5B8539B000B
:102CA000196821F4E04121F070010904090C114375
:102CB00019600132E8E700BFC80500204C5C004005
:102CC00010B5134C23681A7A022A01D0042A09D1BC
:102CD000FFF79CFC23681B7A22681372BDE8104042
:102CE000FFF7ECBD062A10D15A78052A09D11A78C7
:102CF000520606D19878FFF7C3FF064B1B681B6A84
:102D00009847054B1B689B6898470823E4E700BF7A
:102D1000B8280020B4280020B0280020704701F116
:102D20000051013201F540515210490002B970477B
:102D300030F8023B013A21F8043BF7E7002310B5D5
:102D400001F10051013201F54051521049009A42FF
:102D500000D110BD51F8234020F813400133F6E7AD
:102D6000800000F1804000F5B8400368CA0623F4F3
:102D7000E04323F040039BB248BF83F010038A0670
:102D800048BF83F0200303607047800000F180405B
:102D900000F5B84003685B0409D5036823F4E043F9
:102DA00023F070031B041B0C43F480430360704743
:102DB000800000F1804000F5B84003685B0609D54B
:102DC000036823F4E04323F070031B041B0C43F05F
:102DD0004003036070470000054B1B689BB203EB88
:102DE000C00000F1005000F54050400000887047DE
:102DF000505C0040044B1B689BB203EBC000034BCC
:102E000003445B0018887047505C00400430002089
:102E1000044B1B689BB203EBC000034B03445B00F5
:102E200019607047505C0040023000200D4B0E4A84
:102E30001B683E299BB203EBC00002444FEA4202EA
:102E40000AD94B09C80604BF03F1FF339BB29B02AA
:102E500043F40043136070474B08C90748BF013370
:102E60009B02F7E7505C00400630002013B5044693
:102E70008DF8071001220DF107012046FEF7DDFE57
:102E80000028F7D002B010BD38B505464C1E14F925
:102E9000011F01B938BDC9B22846FFF7E7FFF6E7C1
:102EA00008B5134B03221C6801212046FEF792F857
:102EB000002301211A46B2F5007F0CD072B1B3F5A0
:102EC000007F01D100230A449A420CD902252068D0
:102ED00005610133EFE74FF0FF31F0E7B3F5007F15
:102EE0004FF00101EED020684FF40035F0E700BF4D
:102EF0001811030808B5034B0BB100F045F862B692
:102F0000FFF7CEFF892F000808B5044B23B100F06E
:102F10005BF80349FFF7B8FFFFF7ECFFC92F000884
:102F200003120308FDF7C2B908B500F075FC00F004
:102F30003DFDFCE725F01CBF32280BD8064B03EB08
:102F4000001043681A68437B343203F18043013B2D
:102F500042F82310704700BFB00D030838B50C4687
:102F60000546072104EB042400F046F8A1B22846E8
:102F7000BDE83840FFF7E0BF002203685B0103F1C2
:102F80008443C3F8002170474FF0FF3310B50A4C5B
:102F90000A48C4F88030C4F88430FEF7EFFA0848D5
:102FA000FDF7F2FD0748FEF707FF4FF4002323600B
:102FB0004FF48013236010BD00E100E0DD15000830
:102FC000792F0008051C000810B5094B094C18683A
:102FD0000B220221FDF7FEFF2068FEF7E3FD2068CB
:102FE0004FF416520021FEF7CAFE206810BD00BF44
:102FF0001411030888020020322838B53BD808296C
:1030000039D8DFE801F00529171A1D2017232600FB
:1030100000240322184B00011D18297B1858FDF7C6
:10302000D9FF686838B3697BCCB1BDE8384001226C
:10303000FEF796BB00240422ECE700242246E9E7D1
:1030400000240922E6E700240822E3E701240B22FA
:10305000E0E701240F22DDE700240722DAE7026817
:103060004B1E02F1404220329B0003EBC2039B0047
:1030700003F184431C6038BDB00D030808B501217D
:103080001048FDF7BDFA02210F48FDF7B9FA0321F8
:103090000E48FDF7B5FA04210D48FDF7B1FA0521F8
:1030A0000C48FDF7ADFA06210B48FDF7A9FA0721F8
:1030B0000A48FDF7A5FABDE8084008210848FDF7D1
:1030C0009FBA00BF4C120020501200205412002062
:1030D000581200205C1200206012002064120020B0
:1030E0006812002032280DD8074B000119181B5810
:1030F000097B1B689A6801238B40134214BF01208F
:103100000020704700207047B00D0308322810B52A
:103110000ED8084B00011C181B58B1FA81F11A682F
:103120000123207B49098340090103FA01F1116160
:1031300010BD00BFB00D03080A4A0B4B11689B6815
:1031400000BF00BF12688A42F6D14820C3F58C3315
:1031500003F5A073B3FBF0F34FF47A7000FB023079
:10316000704700BFA428002010E000E038B50446F6
:10317000FFF7E2FF05465CB1FDF76EFCFFF7DCFFF1
:10318000401BB0F57A7FF6D3013C05F57A75F5D191
:1031900038BD28B10C234343013B18460138FDD804
:1031A000704700000449054BCA6822F4E06212042B
:1031B000120C1343CB60704700ED00E00003FA05EA
:1031C000704701207047000013B5104C20461BF0DB
:1031D00002F9204604211BF098F8204602220C49EF
:1031E0001BF096F8002302220A4900932046A023F0
:1031F0001BF0F4F820461BF0E7F820461BF0D6F849
:10320000204602B0BDE810401BF0D7B87412002071
:10321000EB0500206E12002024280AD0252807D1B3
:103220000123054A32F81330044AC3F3890313809B
:1032300070470023F5E700BF6E1200206C120020DB
:10324000044B03EB00135B6813B1C0B2FFF786BEFB
:10325000704700BFB00D0308024B034819681BF00C
:1032600052B800BF1C0000207412002010B5074C9B
:10327000032294F84C10206CFDF7ACFE236C94F8FC
:103280004C101A6801238B40136110BDB00D030868
:10329000062838B58CBF00250A4B0B4C98BF1D5C27
:1032A0002046E46619F02BFC2946204619F039FC2B
:1032B0002046012119F042FC2046BDE8384000219B
:1032C00019F049BC2812030894270020FF21014867
:1032D00019F05CBC942700200B46024600210148EF
:1032E00019F012BD942700200146014819F098BD3D
:1032F0009427002070B50D46064C0146204619F073
:103300008FFD29462046BDE8704001234FF400722E
:1033100019F07ABD942700200228F8B506460D461C
:1033200039D0052836D100262C4C022223680121F1
:103330005B0103F184431E602046FEF711FA284921
:103340004FF6FF70B1FBF5F11122814228BF014613
:1033500023685E629A62D8629A69204622F0FF0270
:103360009A6159635B0103F184430121DE611D4AC7
:10337000FEF758F901213220FDF776FF012223687C
:103380005B0103F18443C3F8802223685B0103F1EE
:1033900084431A60F8BD0027134C024623680121BC
:1033A0005B0103F184431F602046FEF7D9F940F228
:1033B000E73223680D495F62B1FBF5F19A624FF67F
:1033C000FF72914228BF1146DA6220465963084ACB
:1033D0000121FEF727F931461C20CDE71802002015
:1033E00000093D00358E0108AC01002040190100A4
:1033F00035A1010802280CD005280CD1074B1B6809
:103400005B0103F18443D3F88401003018BF01202D
:103410007047034BF3E70020704700BF18020020FD
:10342000AC010020013807289ABF024B53F8200056
:1034300000207047301203080120014B18707047BC
:103440008412002008B51BF08BF80022014B0120EC
:103450001A7008BD841200202DE9F8431B4D9846D0
:103460002B7806460C46174683B11BF06DF81848BA
:103470001BF022F8052802D00120BDE8F88315488A
:103480001BF01AF80528F7D100232B70254607EB0F
:1034900004094D45A5EB04030DD0306815F8011B58
:1034A00000F1806000F5FC30184440001BF026F865
:1034B0000528EED0E0E7BAB24046214610F040F9C8
:1034C000326800203A443260D7E700BF84120020FF
:1034D00000F0030800F803082DE9F74305460F46FE
:1034E00090461E4600249DF828902A6844452244B0
:1034F00013D002F1806202F5FC32520013788DF88D
:103500000730B9F1000F00D03B5501220DF1070142
:10351000304610F015F90134E7E700202A6003B0C7
:10352000BDE8F083FDF798BE70470368C9B21B6819
:10353000184700000023054A9A56824204D00133FE
:10354000162BF8D10020704701207047A9130308FB
:1035500008B500F075FABDE80840014800F05EBA11
:103560008A12030808B513F085FC13F0F1FCFE2065
:1035700012F0A4FBBDE8084012F07EBB124AD2F85C
:10358000803092F88C101868012303FA01F10904C5
:103590000161D2F81011086892F81C1103FA01F1C8
:1035A00009040161D2F82012086892F82C1203FA7B
:1035B00001F109040161D2F8D01292F8DC22096805
:1035C00093401B040B617047B00D0308044BD3F804
:1035D000D02293F8DC12012312688B4013617047EC
:1035E000B00D030840B9054BD3F8D02293F8DC1294
:1035F000012312688B401361704700BFB00D0308B0
:10360000012130B4124BD3F88020106893F88C203D
:1036100001FA02F202610F48027822F001040470FC
:10362000D3F81041256893F81C4101FA04F42C6189
:1036300022F003040470D3F8204293F82C3224685B
:10364000994022F007022161027030BCFFF7BEBF33
:10365000B00D03084318002008B540F2E933013BE0
:1036600008D000BF00BF00BF42F62F22013A00BFC2
:10367000FCD1F4E772B640F2E933013B08D000BF59
:1036800000BF00BF41F29312013A00BFFCD1F4E742
:1036900016F0E8F9FFF746FFFCE70000044608B51E
:1036A00016F0E0F900F0CCF9054800F0B7F905484C
:1036B000002C18BF20460FF00DFFFFF7CDFF00BF15
:1036C000A21203089912030870B5384B05461B78FF
:1036D000032B01D807F0C2FB354B364A1B68146830
:1036E0009BB1354909680B44E31A002B0DDB00F050
:1036F000A7F9324B3248196800F0A8F90A2131487D
:10370000FFF713FF0020FFF7C9FF2F4B1B6843B1E2
:103710002E4908782E49097888420ED01268264B27
:103720001A602C4D03F096FA2B68E31A002B03DB8A
:10373000643413F0DDFA2C6070BD274A1178274AF3
:1037400089BB85BB1C4909680B44E31A002B2ADBA3
:103750001378002BE5D101231370214AD2F8801091
:10376000086892F88C1003FA01F101611D48017894
:1037700021F001050570D2F810512E6892F81C5105
:1037800003FA05F5356121F003050570D2F82052E2
:1037900092F82C222D68934021F007012B610170D3
:1037A000FFF714FFBDE700231370BAE738150020B8
:1037B00090120020A42800206C1300207C1300200D
:1037C000501203088C100020F0050020A61F0020D6
:1037D000A71F002088120020501300208C12002008
:1037E000B00D03084318002010B504460FF0C2FCCA
:1037F00006F002F92046FFF767FF16F043FA0FF0D4
:1038000029FF044B1B781BB9BDE8104016F0A6BF7A
:1038100010BD00BF9412002037B5FFF7C3FC4E4A1D
:10382000136823F0E06343F00073136015F08AFB24
:103830004FF4E1314948FCF7D1FE494B49481B6838
:1038400000F0ECF800F0F6F8FFF7BBFCC507044603
:1038500002D5454800F0E2F8A00702D5434800F041
:10386000DDF8610702D5424800F0D8F8220702D5FA
:10387000404800F0D3F8A30602D53F4800F0CEF848
:10388000FFF79EFC3D4800F0C9F820213348FFF7C0
:103890004CFE3B4800F0C2F80A213048FFF745FED5
:1038A00000F0C8F8374800F0B9F8374800F0B6F82B
:1038B000364800F0B3F800F0BDF8354800F0AEF837
:1038C00000F0B8F80020FCF7A5FD0DF10701091A7A
:1038D000304800F0C7F8304C4FF4D8612F4800F062
:1038E000C1F80A211D48FFF720FE0FF097FB0FF0EB
:1038F000FDFD08F0BBFC237823B911F0DFFF08B110
:1039000001232370264C274D216828681BF024FBD7
:103910006968206060681BF01FFBA9686060A06890
:103920001BF01AFBA06012F0A7F91F4815F076FFF4
:1039300010F0F4FB12F000F814F064FE002012F016
:103940001DF8FFF7F1FD01231A461946184602F04B
:103950003FFA03B030BD00BF040001408C100020CE
:10396000A4280020B63D0308C8120308D11203089A
:10397000E2120308F41203080513030816130308E0
:103980001D130308281303083813030843130308FF
:103990006C13030883130308851200209213030895
:1039A0005018002070180020B022002008B5002018
:1039B000FFF71AFF18F0C4FE114B1B789B0613D5B6
:1039C00018F0D2FA06F01EFFFFF7CCFD10F07EFBD8
:1039D00016F048F80021084615F0DCFC0022094BDF
:1039E00009481A7006F0AAFF084B1B78032B01D870
:1039F00007F034FA07F0A8F812F0A8F8D7E700BFEC
:103A0000BC260020F4050020C2120308381500204F
:103A1000014818F0FDB800BF8D12002010B5044613
:103A200014F9011B19B10248FFF77FFDF8E710BD3B
:103A30008C1000200148FFF7F1BF00BFD11303082D
:103A40000148FFF7EBBF00BFCA13030810B50C46CF
:103A5000FFF7E4FF2146BDE810400148FCF78ABEAD
:103A60008C10002010B50C46FFF7D8FF2146BDE8AA
:103A700010400A220148FCF7E3BE00BF8C10002072
:103A800010B50C46FFF7CAFF2146BDE810400A22D8
:103A90000148FCF7E8BE00BF8C10002013B50C46AF
:103AA000FFF7BCFF20461AF0C7FE02230246009330
:103AB00002480B46FCF7BCFF02B010BD8C10002082
:103AC00010B50C46FFF7AAFF2146BDE810400A22B8
:103AD0000148FCF7E9BE00BF8C10002010B5044679
:103AE000013CE4B2FF2C04D020210248FFF71DFD69
:103AF000F6E710BD8C100020034A044B002814BFC9
:103B000010461846FFF78ABFAF1D0308C21C030802
:103B100008B5FFF7F1FF0A210148FFF706FD08BDD0
:103B20008C100020034A044B002814BF104618468E
:103B3000FFF774BFBF130308C413030810B504468E
:103B4000322C06D93220323CFFF710FB16F09AF8DF
:103B5000F6E72046FFF70AFBBDE8104016F092B8E2
:103B60002DE9F74F1F4683001D18404C01936B1839
:103B7000884654F823100090084616461BF0BAFCFD
:103B800000286FD0009BF2B2D618F6B23244FBB2D6
:103B9000D2B206EB860003EB080102EB8202C9B247
:103BA00000EB080702EB08060B4454F827B054F862
:103BB0002670DBB26E1801441D4454F82190134462
:103BC0003946384654F826A054F8256054F8235056
:103BD0001BF090FC00B10027594658461BF08AFCA8
:103BE00000B1BB46314630461BF084FC00B10026D4
:103BF000514650461BF07EFC00B1B246294628468D
:103C00001BF078FC00B10025494648461BF072FCC9
:103C100000B1A946DDE900235946134458469844AB
:103C20001BF09AF939461BF095F951460746504664
:103C30001BF092F931461BF08DF9014638461BF016
:103C40008BF94946064648461BF086F929461BF083
:103C500081F9014630461BF07FF905491BF038FB1E
:103C600044F8280003B0BDE8F08F00BFD412002054
:103C70000000404000EB8000024B014453F821005B
:103C8000704700BFD4120020F8B502263546022442
:103C9000012321461A46C4F104072846FFF760FFB6
:103CA000FFB2214601234FF0FF323046FFF758FFA5
:103CB0004FF0FF33012239462846FFF751FF4FF0FE
:103CC000FF33013C1A4639463046E4B2FFF748FF5D
:103CD000FF2CDDD1013DEDB20136FF2DF6B2D6D17C
:103CE000F8BD000010B50548FFF798FEBDE810408C
:103CF0000521034B0322084600F010BAD71303082E
:103D0000753C000870B5164D28681BF0D9F91549A7
:103D100006461BF0DBFB20B1134930461BF0CCFB01
:103D2000D0B931464FF07E501BF0D2FA0F4C2060D4
:103D300068681BF0C5F90B4905461BF0C7FB20B1AD
:103D4000094928461BF0B8FB40B929464FF07E5080
:103D50001BF0BEFA606070BD0020E7E70020F9E7C5
:103D6000C4120020BD3786B5BD378635BC12002091
:103D70002DE9F74F7B4E054630681BF0A1F901464F
:103D800028681BF0E7F8044670681BF099F90146B3
:103D900068681BF0DFF8744F8146214638681BF0D5
:103DA00077FB724D724E68BB724B3C6019682046BF
:103DB0001BF0DAF9804623F07DFC002104461BF05D
:103DC00071FB0027002839D14FF0814120461BF0BC
:103DD00087FB08B14FF08144214640461BF0BAF8FA
:103DE000002180461BF05EFB50BBC5F800802046DA
:103DF0001BF096FB40B2307001300428A8BF0420AD
:103E00005D4B1870DFF894A14946DAF800001BF00A
:103E10003FFB5A4F96F9004097F900800097584EA3
:103E2000584F78B1A04540D1396828681BF09CF9FB
:103E300031681BF091F803B0BDE8F08F3C46CBE74A
:103E40002F60D4E74B4BCAF80090596848461BF0E6
:103E50008BF9824623F02EFC002183461BF022FBC7
:103E60004FF00009002877D14FF0814158461BF0F0
:103E700037FB08B14FF0814B594650461BF06AF8AA
:103E8000002182461BF00EFB3F4A002866D1C2F893
:103E900000A058461BF044FB3C4B40B21870013068
:103EA0000428A8BF04203A4B1870384BA04593F95A
:103EB0000030384ADFF8E890DFF8E8A0DFF8E88063
:103EC00003D192F9001099422AD00099DFF8DCB0B2
:103ED0000C7004EB84041370E2185BF822102C4A77
:103EE000C9F8001092F90020019314445BF82400F3
:103EF00000921BF02FF82049CAF8000091F9000049
:103F0000019B00EB80000344009A5BF823100244FD
:103F1000C8F800105BF822001BF01CF81E4B18605C
:103F2000194BDAF80010D3F800B058461BF01CF912
:103F3000D9F800101BF010F80446174B30601968D0
:103F400058461BF011F9D8F800101BF005F821466F
:103F50001BF000F8386067E7CB468DE7C2F80090A9
:103F600097E700BFCC120020F8050020B412002013
:103F7000B0120020BC120020B2120020F505002073
:103F80009C12002098120020B8120020B1120020CC
:103F9000B3120020F6050020A4120020FC0500202A
:103FA000A8120020A0120020AC120020D412002081
:103FB000024B1868003018BF01207047C41200205F
:103FC0001FB510B1124B1B68CBB1124C2378834242
:103FD00015D012F0BDFF104A01AB07CA83E80700F5
:103FE0001846FFF7C5FE23785BB10C4A111FA2F1FA
:103FF000080012F0E5FE0023237011F03DFE04B02E
:1040000010BD01230648237012F00CFFF5E700BF36
:10401000C4120020A41F0020F01303085818002029
:1040200050180020F0B5224D85B004460E460146DA
:1040300028681BF02DFA002837D11E4B1F78FFF798
:10404000BFFF002120461BF04BFA00B900242C6072
:10405000194920461BF03AFA20B1184920461BF0B6
:104060002BFA00BB21464FF07E501BF031F9144B68
:10407000144A1860144B1A60BFB1144C0120236815
:10408000019363680293A3680393FFF799FF66B1F6
:104090000C22214601A825F061F930B105B0BDE838
:1040A000F04011F0B9BD0020E1E705B0F0BD00BF60
:1040B000801F0020A41F0020BD3786B5BD37863580
:1040C000B01F0020F0FF79C49C1800205018002079
:1040D00008B50020FFF774FF00230C4AC2E9003343
:1040E0000B4AC2E900330B4B03F164010A4A143353
:1040F00043F8142C43F8102C43F80C2C43F8082CEC
:1041000043F8042C9942F1D108BD00BFC41200202D
:10411000CC120020D41200200000C07F2DE9F74F00
:104120000446894617469A460025A5420FD0EBB2B1
:104130000A2B34BF032002203844C0B2FFF7CEFC64
:1041400029460A222D48FCF77BFB0135EDE70A21C1
:104150002A48FFF7EAF90024A1455FFA84FB46D01C
:10416000092C03D820212548FFF7DFF90A22214630
:104170002248FCF765FB0026AE425FFA86F830D095
:1041800020211E48FFF7D1F959464046D047014645
:1041900080461BF0AFF998B9002140461BF096F914
:1041A00018B12B211548FFF7C0F940461AF044FB1F
:1041B000009702460B461148FCF73AFC0136DBE754
:1041C0004FF000085FFA88F3BA1C9A42F6DB002B26
:1041D00014BF3D2120210948FFF7A7F908F1010884
:1041E000F0E70A210548FFF7A0F90134B4E70A21F6
:1041F0000248FFF79AF903B0BDE8F08F8C10002059
:1042000038B51B4B93F90030012B2DD0194D19B146
:104210000023194A2B601370184B1A682B68D31AA5
:10422000002B21DB144C002894F900301DDB011D0C
:10423000994219DB9842CCBF4FF47A704FF4FA7070
:1042400003F001031902C91A03EBC10103EBC10119
:104250008900104401F55C71286089B232200FF0AA
:104260002FFA23780133237038BD4FF47A70E7E7D3
:10427000000600204C13002048130020A428002032
:1042800010B5104B01461B781B070AD40E4B1C7847
:104290003CB90E4BB3F908200D4BB3F900309A42EC
:1042A00009DB0B2000220CF06DF9BDE81040012164
:1042B000002016F08FBAFFF7BDFB0648FFF7AEFBF4
:1042C000204610BD96120020342200200822002033
:1042D000860600208E14030830B50F4B0F4C85B0B6
:1042E00000680D4619681AF0F3FFE1681AF034FE11
:1042F0002346002243F80C0F02920022211DCDE933
:104300000052204604F1080213F020FC05B0BDE87D
:10431000304012F01DBE00BF6C0600205018002077
:104320002DE9F04F85B09DF94050814628468846DA
:1043300017469A469DF838409DF83CB0FFF7A0FF1D
:10434000064648B924B10246294609200CF01AF95C
:10435000304605B0BDE8F08FBBF1000F28D024B186
:104360000022294604200CF00DF9FFF763FB3A48C0
:10437000FFF754FB01215046FFF742FF0321374B63
:10438000012093F90020197035499B460B460870AF
:104390001978019351B1002150460092FFF730FF88
:1043A0000120FFF721FADDE90023F1E78BF8002077
:1043B00024B10022294605200CF0E4F80021D9F8A8
:1043C00000001BF065F830B9264B04A941F8043D04
:1043D0004846FFF781FF0021D8F800001BF058F88D
:1043E00068B9214D214BD5F83890AB63204B04A917
:1043F00041F8043D4046FFF76FFFC5F838900021B3
:1044000038681BF06DF860B124B100220620114617
:104410000CF0B8F8174B04A941F8043D3846FFF7F3
:104420005BFF002C94D0032300220C4D114695F91C
:1044300000802B700A4B07201A700CF0A3F80E4B6B
:1044400093F900301BB90120FFF7CEF9F7E7012BF4
:1044500085F80080D3D07BE70B1403086813002095
:10446000951200200000C040F41F00200000C84149
:104470000000F041000040405C1300202DE9F743AC
:10448000814610460E461446FFF7FAFE054648B927
:1044900026B10246014609200CF074F8284603B004
:1044A000BDE8F08326B10022214603200CF06AF813
:1044B000154F02AC44F8047D144B21466846009326
:1044C000FFF70AFF41F28830FFF738FB104E114B1F
:1044D00021460093336B68460193FFF7FDFE0E4BB8
:1044E000D6F83880B363D9F8003021466846009387
:1044F0000197FFF7F1FE0020C6F83880FFF772F849
:104500006420FFF71BFBC9E700004842000080C0A1
:10451000F41F0020000040410000C8412DE9F7438E
:104520003B4D1F462B7880468946164623B1002412
:10453000204603B0BDE8F083364B1B7818070FD434
:10454000002110681AF0A4FF50B9334B1C783CB915
:10455000324BB3F90820324BB3F900309A423EDBBC
:104560000123304A2B701378590749D40FF0C2FD4C
:104570002D4C2E4B0FCB84E80F0012F0E9FC0021EC
:10458000D8F800001AF084FF98B9234B1B784BB978
:10459000224B58681AF0C4FF214B00B2B3F9003027
:1045A000984206DB224B02A941F8043D4046FFF742
:1045B00093FE01221146104611F034FF18B9494606
:1045C00002200FF017F9002130681AF061FFE8B9F6
:1045D000012239463046FFF751FF0124A8E7FFF7D3
:1045E00029FA1448FFF71AFA002FA0D021462246D4
:1045F00009200BF0C7FF21460F480EF08DFD97E70D
:104600006FF38203137002232B70AFE701248FE74F
:10461000501300209612002034220020082200208F
:1046200086060020BC2600203813002050180020E9
:10463000000048428E140308FC130308002210B542
:1046400004461146904214BF042002200BF09AFF4A
:10465000FFF7F0F90448054B002C08BF1846BDE8E9
:104660001040FFF7DBB900BF3714030859140308E3
:104670002DE9F84F89468346FFF7E0FF01214846C0
:10468000FFF7BEFD244A254C1368254F03F52F4341
:10469000C833236000232371032397F900A03B70E4
:1046A000012390461F4D2B702B7883B30021484681
:1046B000FFF7A6FD237933B300220A2011460BF041
:1046C00061FFFFF7B7F91848FFF7A8F92E781EB178
:1046D0000120FFF789F8F9E730462660267115F0CA
:1046E0004FF93046FFF7CCFD5846FFF7A7FF0121F1
:1046F000D8F80030484603F52F43C83323602671AD
:104700002970FFF77DFD0120FFF76EF8CCE787F8F1
:1047100000A0BDE8F88F00BFA428002000220020E0
:104720006813002095120020711403082DE9F0434E
:10473000354C9946237887B006460F469046002BA5
:104740005FD00020314B1D791860187115F018F9F1
:1047500065B92F4B1B784BB92E4B58681AF0E0FE09
:104760002D4B00B2B3F90030984209DB01234246D9
:10477000CDE90153009339464B463046FFF7D0FD53
:104780000022264D114608200BF0FCFE0021E868AF
:104790001AF088FE30B1224B05A905F10C000593F3
:1047A000FFF79AFD1F49204B05AA081F059311F03A
:1047B00019FB1E4B05A91E48059311F007FBEB687A
:1047C0001C481D4A40F80C3FD36013F05BFA0022EE
:1047D000092011460BF0D6FE2378013BDBB2237093
:1047E00023B117F0B7FB2378013B2370134B93F9E8
:1047F0000030022B01D10FF0C1FC0EF077FE08F063
:10480000D3FF07B0BDE8F083501300200022002042
:1048100034220020082200208606002038130020C1
:10482000000048423C1300200000C8420000A040A5
:104830004013002060180020501800202418002089
:1048400010B50B6804461B69084698472379C0F3E6
:10485000400210F01E0F60F3000362F3410314BF27
:104860000122002262F38203C0F304426271C0F3AA
:104870008072206062F34513C00F60F386136FF3FC
:10488000C7132371204610BD0A3908B509291CD861
:10489000DFE801F0051B0E1B1B1B1B1B1C1419F072
:1048A0006DFABDE8084001460A220A48FBF7F2BF4C
:1048B00019F0F0F8BDE80840FFF734B919F099F89D
:1048C00018B12A210348FEF730FE08BD19F09AF806
:1048D000F6E700BF8C100020093908B507290CD86D
:1048E000DFE801F0150B0B0B040C0F1219F0C0F8E8
:1048F00018B12A210A48FEF718FE08BD19F0AFF8D2
:10490000F6E719F0A3F8F3E719F097F8F0E719F0D4
:10491000B8F8BDE8084001460A220148FBF790BFFD
:104920008C10002008B509210148FEF7FEFD08BDE6
:104930008C10002008B558210148FEF7F6FD08BD8F
:104940008C10002008B559210148FEF7EEFD08BD86
:104950008C10002008B55A210148FEF7E6FD08BD7D
:104960008C10002008B545210148FEF7DEFD08BD8A
:104970008C10002000000000F7B5044617461E46C4
:104980009DF82050002900F033840921BA48FEF731
:10499000CCFD162C00F2DD83DFE814F01700DB03FA
:1049A000380061009200C50027017A01DB03B401E1
:1049B000DB03F301DB0333026402DB03DB03AD0241
:1049C000EA02120348037903AA03FFF7B3FF002F9B
:1049D00000F062840921A848FEF7A7FDFFF7B2FFA7
:1049E000002E00F0A0840921A348FEF79EFDFFF7EA
:1049F000B1FF2DB10921A048FEF797FDFFF7B2FFE7
:104A00000A219D48FEF791FD03B0F0BD9B4819F0C7
:104A1000A3F9FFF787F8002F00F03E84092196489C
:104A2000FEF783FD964819F097F9FFF77BF8002E03
:104A300000F0798409219048FEF777FD914819F03C
:104A40008BF9FFF76FF8002DDAD009218A48FEF7BD
:104A50006CFD8D4819F080F9FFF764F8D0E7874BBB
:104A60000A22B3F840108448FBF7EAFE002F00F05A
:104A7000138409218048FEF758FD814B0A22B3F8C0
:104A800040107D48FBF7DCFE002E00F04C8409212D
:104A90007948FEF74AFD7B4B0A22B3F8401076486E
:104AA000FBF7CEFE002DABD009217348FEF73DFD8C
:104AB0000A22754BB3F840106F48FBF7C1FE9FE721
:104AC0006E4819F088FB0A2201466B48FBF7B8FED6
:104AD000002F00F0E18309216748FEF726FD6848B2
:104AE00019F079FB0A2201466348FBF7A9FE002E64
:104AF00000F0198409216048FEF717FD614819F09C
:104B00006AFB0A2201465C48FBF79AFE002D3FF43F
:104B100077AF09215848FEF708FD5B4819F05BFBA9
:104B20000A220146C8E7554819F055FB1AF0C4FAA5
:104B300019F082FE4EA3D3E9002319F0D5FE00231D
:104B4000024600934C480B46FBF772FF002F00F023
:104B5000A38309214848FEF7E8FC494819F03BFBCC
:104B60001AF0AAFA19F068FE41A3D3E9002319F05C
:104B7000BBFE0023024600933F480B46FBF758FF5D
:104B8000002E00F0D08309213B48FEF7CEFC3D48C3
:104B900019F021FB1AF090FA19F04EFE34A3D3E974
:104BA000002319F0A1FE00230246009332480B4671
:104BB000FBF73EFF002D3FF423AF09212E48FEF7FF
:104BC000B4FC314819F007FB1AF076FA19F034FEFC
:104BD00027A3D3E9002319F087FE002302460093A0
:104BE00025480B46FBF724FF0AE7244818F0BCFFD2
:104BF0000A2201462048FBF74DFE2448FEF70EFF2F
:104C0000002F00F0498309211B48FEF78EFC1C4849
:104C100018F0AAFF0A2201461748FBF73BFE1B4883
:104C2000FEF7FCFE002E00F07E8309211248FEF7FD
:104C30007CFC144818F098FF0A2201460E48FBF746
:104C400029FE1248FEF7EAFE002D3FF4D9AE0921F5
:104C50000948FEF76AFC0C4818F086FF01460A2254
:104C60000548FBF717FE0948FEF7D8FEC8E600BF67
:104C70008FC2F5285C8FF63F8C1000202821002081
:104C800070210020B8210020E0200020E317030855
:104C9000AD4818F065FF0A220146AC48FBF7FAFD63
:104CA000AB48FEF7BBFE002F00F0F6820921A748B3
:104CB000FEF73BFCA74818F053FF0A220146A34821
:104CC000FBF7E8FDA248FEF7A9FE002E00F02B83BB
:104CD00009219E48FEF729FC9F4818F041FF0A224F
:104CE00001469A48FBF7D6FD9948FEF797FE002D3E
:104CF0003FF486AE09219548FEF717FC974818F057
:104D00002FFFABE7904818F0BCFE0A2201468F48FF
:104D1000FBF796FD8E48FEF781FE002F00F0BC8267
:104D200009218A48FEF701FC8A4818F0AAFE0A22E7
:104D300001468648FBF784FD8548FEF76FFE002E8E
:104D400000F0F18209218148FEF7EFFB824818F05C
:104D500098FE0A2201467D48FBF772FD7C48FEF76B
:104D60005DFE002D3FF44CAE09217848FEF7DDFBD7
:104D70007A4818F086FE0A2201467448FBF760FD67
:104D800071E7714818F0EDFD754A764B002814BFA5
:104D900010461846FEF742FE002F00F07D820921E2
:104DA0006A48FEF7C2FB6B4818F0DBFD6C4A6D4B9E
:104DB000002814BF10461846FEF730FE002E00F003
:104DC000B28209216148FEF7B0FB634818F0C9FDC3
:104DD000634A644B002814BF10461846FEF71EFEB7
:104DE000002D3FF40DAE09215848FEF79EFB5B48AD
:104DF00018F0B7FD5A4A5B4B002814BF10461846FE
:104E000032E7514819F048FA0A2201464F48FBF7A9
:104E100017FD002F00F0408209214C48FEF785FB6A
:104E20004C4819F039FA0A2201464848FBF708FDB8
:104E3000002E00F0788209214448FEF776FB4648B0
:104E400019F02AFA0A2201464048FBF7F9FC002D26
:104E50003FF4D6AD09213D48FEF767FB3F4819F006
:104E60001BFA5DE6384819F046FA3F4B0146984276
:104E70003DD00A223548FBF717FD002F00F00C82C9
:104E800009213248FEF751FB324819F034FA364B0B
:104E90000146984200F0E6810A222C48FBF704FD07
:104EA000002E00F0408209212848FEF73EFB2A48E8
:104EB00019F021FA2C4B0146984200F027820A2271
:104EC0002248FBF7F1FC002D3FF49AAD09211F4861
:104ED000FEF72BFB214819F00EFA234B01469842AE
:104EE00000F05C820A221948FBF7DEFC88E51F48C7
:104EF000FEF794FDC1E7144818F057FDFEF712FEC7
:104F0000002F00F0C98109211048FEF70EFB11485F
:104F100018F04BFDFEF706FE002E00F0048209217A
:104F20000A48FEF702FB0C4818F03FFDFEF7FAFDB9
:104F3000002D3FF465AD09210448FEF7F6FA074855
:104F400018F033FD88E500BF282100208C100020D8
:104F5000E317030870210020B8210020E020002082
:104F6000D6170308DC170308FFFF0F00E717030835
:104F7000C14B93F84400FEF7D5FD002F00F08C8163
:104F80000921BE48FEF7D1FABD4B93F84400FEF765
:104F9000C9FD002E00F0C7810921B848FEF7C5FA07
:104FA000B84B93F84400FEF7BDFD002D3FF428AD4B
:104FB0000921B248FEF7B9FAB34B93F844004BE528
:104FC000AD4818F0E0FC0A220146AC48FBF762FC51
:104FD000002F00F061810921A848FEF7A6FAA84831
:104FE00018F0D1FC0A220146A448FBF753FC002E1E
:104FF00000F099810921A148FEF797FAA14818F01D
:10500000C2FC0A2201469D48FBF744FC002D3FF4F8
:10501000F7AC09219948FEF788FA9B4818F0B3FCD1
:105020000A2201469548FBF735FCE9E4924819F05D
:1050300041F90A2201469148FBF72CFC002F00F0B1
:105040002B8109218D48FEF770FA8D4819F032F94D
:105050000A2201468948FBF71DFC002E00F06381FF
:1050600009218648FEF761FA864819F023F90A22D9
:1050700001468248FBF70EFC002D3FF4C1AC09212C
:105080007E48FEF752FA804819F014F9C8E77A48CA
:1050900019F0B6F80A2201467848FBF7D1FB002F39
:1050A00000F0FA8009217548FEF73FFA744819F0BC
:1050B000A7F80A2201467148FBF7C2FB002E00F058
:1050C000328109216D48FEF730FA6E4819F098F8E0
:1050D0000A2201466948FBF7B3FB002D3FF490AC70
:1050E00009216648FEF721FA674819F089F817E5A3
:1050F000614819F08CF80A2201466048FBF7CAFBA8
:10510000002F00F0C98009215C48FEF70EFA5C48C8
:1051100019F07DF80A2201465848FBF7BBFB002E28
:1051200000F0018109215548FEF7FFF9554819F0B3
:105130006EF80A2201465148FBF7ACFB002D3FF404
:105140005FAC09214D48FEF7F0F94F4819F05FF8C0
:1051500066E7012C43D0172C46D1474818F071FF61
:105160000A2201464548FBF795FB002F00F094808A
:1051700009214248FEF7D9F9012C77D0172C40F0CD
:1051800087803F4818F05DFF0A2201463B48FBF745
:1051900081FB002E00F0C78009213848FEF7C5F9D1
:1051A000012C00F0B780172C40F0B980354818F07A
:1051B00048FF0A2201463148FBF76CFB002D3FF403
:1051C0001FAC09212D48FEF7B0F9012C00F0E88052
:1051D000172C40F0EA802C4818F033FF20E7264BCC
:1051E0000A2293F83810BDE721462348FFF74CFB0D
:1051F000002F51D009212148FEF797F9162CBBD872
:1052000001A353F824F000BFDD49000879510008DC
:10521000254A00087B4A0008DF4A00085B4B00086B
:105220000F4C0008B54C000879510008294D0008C2
:1052300079510008A74D000879510008214E000857
:10524000894E000879510008795100080F4F000875
:10525000894F0008DF4F00084B500008AD50000890
:105260000F5100080948FEF7D9FB19E6044B0A2242
:1052700093F838108AE700BF282100208C10002006
:1052800070210020B8210020E0200020E71703084B
:1052900021464948FFF7F8FA002E44D00921474833
:1052A000FEF743F9162C3FF67BAF01A353F824F029
:1052B000EF490008A15100083D4A0008974A00083C
:1052C000FD4A00088F4B0008334C0008D94C0008F9
:1052D000A15100084D4D0008A1510008CB4D000818
:1052E000A15100083F4E0008AF4E0008A151000830
:1052F000A1510008274F0008A14F0008FD4F0008EA
:1053000069500008CB5000082D5100082C48FEF7CA
:1053100085FBD8E52B4B0A2293F838104BE7214642
:105320002848FFF7B1FA002D3FF46AAB0921234862
:10533000FEF7FBF8162C3FF648AF01A353F824F014
:10534000FD490008CB510008534A0008B14A000843
:105350001B4B0008C34B0008574C0008FD4C0008CD
:10536000CB510008714D0008CB510008EF4D0008EB
:10537000CB5100085D4E0008D54E0008CB51000807
:10538000CB5100083F4F0008B94F00081B500008E0
:1053900087500008E95000084B510008084863E4B2
:1053A000094B0A2293F838103CE621460648FFF7DD
:1053B0006BFAFFF725BB00BF702100208C10002086
:1053C000E7170308B8210020E02000202DE9F04174
:1053D000044617461E469DF81850002900F0258205
:1053E00009219748FEF7A1F80C2C00F21A82DFE899
:1053F00014F00D002E0064009400C500F600310189
:10540000620118021802180218029301FFF792FABB
:10541000002F00F0338209218948FEF786F8FFF754
:1054200091FA002E00F0528209218548FEF77DF89E
:10543000FFF790FA2DB109218148FEF776F8FFF7C2
:1054400091FA0A217E48FEF770F8BDE8F0817D48A8
:1054500018F029FB18B12A217948FEF766F8002FC9
:1054600000F00C8209217648FEF75FF8764818F0C4
:105470001AFB18B12A217248FEF757F8002E00F0E7
:10548000258209216E48FEF750F8704818F00BFB92
:1054900018B12A216A48FEF748F8002DD1D0092119
:1054A0006748FEF742F86A4818F0FDFA0028C8D0AD
:1054B0002A216348FEF739F8C3E7624818F0B4FAC6
:1054C00018B12A215E48FEF730F8002F00F0D6818F
:1054D00009215B48FEF729F85B4818F0A5FA18B1D6
:1054E0002A215748FEF721F8002E00F0EF8109210C
:1054F0005348FEF71AF8554818F096FA18B12A21C1
:105500004F48FEF712F8002D9BD009214C48FEF7BA
:105510000CF84F4818F088FAC8E74A4818F07BFAA8
:1055200018B12A214648FEF700F8002F00F0A681A6
:1055300009214348FDF7F9FF434818F06CFA18B108
:105540002A213F48FDF7F1FF002E00F0BF8109211D
:105550003B48FDF7EAFF3D4818F05DFA18B12A21F3
:105560003748FDF7E2FF002D3FF46BAF09213448C7
:10557000FDF7DBFF364818F04EFA97E7314818F090
:105580002FFA18B12A212E48FDF7CFFF002F00F087
:10559000758109212A48FDF7C8FF2B4818F020FA29
:1055A00018B12A212648FDF7C0FF002E00F08E8199
:1055B00009212348FDF7B9FF244818F011FA18B162
:1055C0002A211F48FDF7B1FF002D3FF43AAF092112
:1055D0001B48FDF7AAFF1E4818F002FA66E71948B3
:1055E00018F0F5F918B12A211548FDF79EFF002F94
:1055F00000F0448109211248FDF797FF124818F086
:10560000E6F918B12A210E48FDF78FFF002E00F0B1
:105610005D8109210A48FDF788FF0C4818F0D7F989
:1056200018B12A210648FDF780FF002D3FF409AF8D
:1056300009210348FDF779FF054818F0C8F935E757
:105640008C1000202821002070210020B82100208B
:10565000E0200020B34818F0A8F918B12A21B24878
:10566000FDF763FF002F00F009810921AE48FDF727
:105670005CFFAE4818F099F918B12A21AA48FDF745
:1056800054FF002E00F022810921A748FDF74DFFAD
:10569000A74818F08AF918B12A21A348FDF745FF59
:1056A000002D3FF4CEAE09219F48FDF73EFFA148F3
:1056B00018F07BF9FAE69B4818F080F918B12A2116
:1056C0009948FDF732FF002F00F0D8800921964855
:1056D000FDF72BFF954818F071F918B12A2192486F
:1056E000FDF723FF002E00F0F18009218E48FDF721
:1056F0001CFF8F4818F062F918B12A218A48FDF77B
:1057000014FF002D3FF49DAE09218748FDF70DFFE2
:10571000884818F053F9C9E6824818F03DF98046E8
:1057200009218148FDF701FFFFF704F909217E48AF
:10573000FDF7FBFE40463A2108F1FF380EF03EF837
:1057400018F1030F02D97C48FEF768F90A21764860
:10575000FDF7EBFE002F00F0918009217248FDF764
:10576000E4FE724818F018F9074609216E48FDF763
:10577000DCFEFFF7E7F809216B48FDF7D6FE384657
:105780003A21013F0EF01AF8033702D96A48FEF7B2
:1057900045F90A216448FDF7C8FE002E00F0968006
:1057A00009216148FDF7C1FE614818F0F5F804468B
:1057B00009215D48FDF7B9FEFFF7CCF809215A48E9
:1057C000FDF7B3FE20463A21013C0DF0F7FF03340C
:1057D00002D95948FEF722F90A215348FDF7A5FEE0
:1057E000002D3FF42EAE09214F48FDF79EFE514893
:1057F00018F0D2F8044609214B48FDF796FEFFF752
:10580000B1F809214848FDF790FE20463A21013CB5
:105810000DF0D4FF033402D94748FEF7FFF80A2100
:1058200047E621463F48FFF757F83FB309213E4876
:10583000FDF77BFE0C2C1DD801A353F824F000BF0C
:105840001F5400086D540008D95400083955000849
:105850009B550008FD55000873560008D5560008F2
:1058600075580008755800087558000875580008E4
:105870006357000821462D48FFF72EF836B309215B
:105880002948FDF752FE0C2C1CD801A353F824F034
:10589000315400088B540008F7540008575500088D
:1058A000B95500081B56000891560008F356000829
:1058B000C5580008C5580008C5580008C558000854
:1058C000A957000821461A48FFF706F8002D3FF4B3
:1058D000B8AD09211448FDF728FE0C2C1CD801A3F3
:1058E00053F824F03F540008A7540008135500084B
:1058F00075550008D755000839560008AF560008FE
:1059000011570008195900081959000819590008B9
:1059100019590008EF57000821460648FEF7DCFF3A
:105920008FE500BF282100208C100020702100206E
:10593000B8210020E0200020EB170308F7B53C2435
:1059400000680D46B0FBF4F74FF46161B7FBF4F368
:10595000B0FBF1F104FB13738EB2A2B11821B6FBB8
:10596000F1F2104C01FB1266B0FBF4F400932246F6
:10597000B3B20D49284624F05DF80A2C34BF082044
:10598000092003B0F0BD632E8AB205D80749284626
:1059900024F050F80520F4E70549284624F04AF899
:1059A0000620EEE780510100FB170308FF170308EC
:1059B00009180308034B188010B10348FEF72EB8EE
:1059C000704700BF5E130020A1170308F7B50D460E
:1059D00016461F460446C148FEF720F833462A46BD
:1059E000214600970020FEF7C7FFBD48FEF716F8D6
:1059F00033462A46214600970120FEF7BDFFB948ED
:105A0000FEF70CF833462A46214600970220FEF79F
:105A1000B3FFB548FEF702F833462A462146009701
:105A20000320FEF7A9FFB148FDF7F8FF33462A46E9
:105A3000214600970420FEF79FFFAD48FDF7EEFFDB
:105A400033462A46214600970520FEF795FFA948D0
:105A5000FDF7E4FF33462A46214600970620FEF76D
:105A60008BFFA548FDF7DAFF33462A46214600970B
:105A70000720FEF781FFA148FDF7D0FF33462A46F5
:105A8000214600970920FEF777FF9D48FDF7C6FFE6
:105A900033462A46214600970A20FEF76DFF9948B3
:105AA000FDF7BCFF33462A46214600970B20FEF740
:105AB00063FF9548FDF7B2FF33462A46214600971B
:105AC0000C20FEF759FF9148FDF7A8FF33462A4600
:105AD000214600970D20FEF74FFF8D48FDF79EFFF2
