:020000040800F2
:1000000000C00020A5030008D10D0008D50D000890
:10001000D90D0008DD0D0008E10D0008CF1400081F
:10002000CF140008CF140008CF140008CF14000824
:10003000CF140008CF140008CF140008E114000802
:10004000CF140008CF140008CF140008CF14000804
:10005000CF140008CF140008250E0008450E000834
:10006000650E0008850E0008A50E0008750C000836
:100070008D0C0008A50C0008C10C0008DD0C000860
:10008000F90C0008150D0008810A0008CF140008BB
:1000900059200008CF140008CF140008C50E00082E
:1000A000C5170008E91700080D18000845180008D2
:1000B000991800080919000879190008DD110008CD
:1000C000F5110008E911000801120008CF1400081A
:1000D000CF140008C51D0008151E0008651E000885
:1000E000090F0008CF140008CF140008A11A000857
:1000F000C51A0008E91A0008211B0008D90A0008DF
:10010000CF140008CF140008E9190008CF14000824
:10011000B51E0008051F0008591A00087D1A0008BE
:10012000310D0008490D0008610D00087D0D000823
:1001300010B5054C237833B9044B13B10448AFF321
:1001400000800123237010BD50100020000000002B
:10015000B8B3020808B5034B1BB103490348AFF31A
:10016000008008BD0000000054100020B8B3020851
:1001700010B512490A2309220968114800F0EAF96A
:1001800010490323022209680F4800F0E3F90F49E0
:100190001B231A2209680E4800F0DCF90D492B23B5
:1001A0002A2209680C4800F0D5F9BDE810400B4937
:1001B00032232C2209680A4800F0CCB984020020BE
:1001C0006C10002088020020841000208C02002087
:1001D0009C1000207C020020B4100020800200202F
:1001E000CC10002010B5044600F0CCFC034B204698
:1001F000BDE81040197800F02CBC00BF16000020AC
:10020000F8B50446056801F0C7F9002223685B01D0
:1002100003F184431A6080232B600123AB622A61BF
:10022000EA606B61637973B1012B0FD001222368FF
:100230005B0103F18443C3F8802223685B0103F16F
:1002400084431A60F8BD4FF400436B644FF6FF72AD
:1002500000252368DA626E1CF7B23946204601F0A9
:10026000B0F9E8B148F6FF72236817F0010F03F107
:10027000340343F8252014BF6FF0FF026FF47F4270
:1002800023684FEA650503F1180353F8251001EAC6
:10029000020114BF68224FF4D0420A4343F82520DC
:1002A000042E3546D7D1C1E77047000038B5002588
:1002B000264A274C1368022043F01003136000F015
:1002C00045FE002000F0F8FF65602368182023F445
:1002D0000023236000F0FCFF102000F0F9FF00F085
:1002E00043F8A560102000F0E7FF102000F0FEFFAB
:1002F0000028FAD000F039F8164801F003F8182069
:1003000000F0DAFF182000F0F1FF0028FAD00220F8
:1003100000F0C2FF00214FF0006000F0A1FF0E4886
:1003200001F0D6F800F038F80C4B188800F012FCF9
:100330000B4800F013FC0B4801F008F900F02EF810
:1003400000F02DF8FFF7B0FF38BD00BF00200240DD
:10035000001002400C0000203F1901001400002092
:10036000E5010008010200087047002108B50846B1
:1003700001F008F84FF48061012001F003F800213A
:10038000022000F0FFFF2D2001F00CF8BDE808402E
:100390000021032000F0F6BF00F0ECBD704700F034
:1003A00028BE000001498D460149084700C00020D1
:1003B000B503000808B5114B1A68114B9A4213D1C6
:1003C000104B114A934213D324F0C4F80022114673
:1003D000104602F091FD0D4B7BB123F057FE52F811
:1003E000041B043343F8041C09498B42F7D3E7E7A5
:1003F0000022043343F8042CE3E7FEE7B00B0308C4
:100400000000002050100020282800208D40020805
:100410005010002010B50D4B1A680AB90C4A1A602A
:100420001A680C49891A814204DB09494442511A6D
:10043000A14207DA23F024FE0C234FF0FF320360C1
:10044000104610BD10441860FAE700BFE410002009
:100450002828002000860328002070474FF400530E
:1004600000204B607047012070474FF0FF3070470D
:100470000020704710B50C46FFF7FAFF20700120EE
:1004800010BD704770B515460C468E18B44201D1A8
:10049000284670BD14F8010BFFF7F3FFF6E7FEE7FF
:1004A000C38882889B1AC2888188914282BF028950
:1004B00001329B1898B2704710B50369044658681A
:1004C000FFF7EEFF88B123695B689A88196892B2DA
:1004D000885C99881A89C0B292B28A420FBF002202
:1004E0009A88013292B29A8010BD4FF0FF30FBE73C
:1004F00008B503695868FFF7D3FF08BD03695B6857
:100500009988DA8892B28A421FBF9A881B6892B291
:10051000985C14BFC0B24FF0FF3070470269916819
:100520008888CB889BB28342FAD1126813685B0635
:10053000FCD5704713B504698DF8071001220DF141
:100540000701204601F061FB0028F7D0012002B02E
:1005500010BD000030B54FF0000C4FF47A75C0E9C3
:1005600001C5034D016105600275437530BD00BFD3
:1005700038C902082DE9F74303690446DB68884659
:100580008B42914625D3067D134D3601AB19477D2D
:10059000586818B10022597B01F0CAF8206901F0AF
:1005A000E9FA39016A18127BAB19CDF804901B7B6C
:1005B000695800932069AB5901F0A3FB20694246BA
:1005C000002101F0C4FB206903B0BDE8F04301F055
:1005D000F7BA03B0BDE8F08300C602080022FFF7B7
:1005E000C9BF0000044B02791B789A4202BF034B3B
:1005F0001B681860704700BF081100200C11002014
:10060000002310B50446036072B6054B193119700A
:10061000044B1860044800F099FF62B6204610BDF4
:10062000081100200C110020E505000800220368D5
:100630001B685B0103F184431A6070470122036861
:100640001B685B0103F184431A607047036801393A
:100650001B6889B29962704703681A68D36A9BB2B3
:10066000994228BF19465162704738B561B90122D5
:1006700003681B68996203681B68DA6203681B6879
:10068000DC6AA4B2204638BD48224A434FF6FF71C7
:10069000B2FBF1F1013189B202EB5102B2FBF1F28E
:1006A00094B2FFF7D3FF036892B21B68DA62E9E7FE
:1006B000C9B2006800F09EBF012203681B685B019D
:1006C00003F18443C3F880227047000008B501217C
:1006D0001048FFF795FF02210F48FFF791FF032114
:1006E0000E48FFF78DFF04210D48FFF789FF052114
:1006F0000C48FFF785FF06210B48FFF781FF072114
:100700000A48FFF77DFFBDE8084008210848FFF7C9
:1007100077BF00BFE8100020EC100020F010002090
:10072000F4100020F8100020FC1000200011002020
:1007300004110020F8B506460C4615468F18A7424E
:1007400006D0336814F8011B1B6830469847F6E75B
:100750002846F8BD70B505460C46084649B124F058
:10076000B5FF2B68024621462846BDE870409B68CD
:10077000184770BD0368C9B21B68184703685B68F7
:10078000184738B50D210546FFF7F4FF0A21044646
:100790002846FFF7EFFF204438BD38B50546FFF780
:1007A000EDFF04462846FFF7ECFF204438BD2DE955
:1007B00070439046994690B058EA090306469DF862
:1007C000585007D13021FFF7D5FF0125284610B03A
:1007D000BDE870830024404649462A4600231AF0AB
:1007E00081F98046894601340DEB040303F8012C9E
:1007F00058EA0903EFD10025013C1DF804103046EA
:10080000092994BF3031373149B2FFF7B3FF0544AE
:10081000002CF1D1DAE72DE9F0411D46002A75F1EF
:10082000000307461446069E05DA2D21FFF7A2FFB6
:10083000644265EB4505F6B2069622462B463846DD
:10084000BDE8F041FFF7B3BF07B5CB1700920A46EA
:10085000FFF7E1FF03B05DF804FB38B50546FFF78D
:10086000F3FF04462846FFF78CFF204438BD07B548
:10087000CB1700920A46FFF7CEFF03B05DF804FBEA
:1008800037B5CB1700920A460546FFF7C4FF04466A
:100890002846FFF776FF204403B030BD07B5D2B23B
:1008A000009200230A46FFF782FF03B05DF804FBC5
:1008B00037B5D2B2009200230A460546FFF777FF0C
:1008C00004462846FFF75DFF204403B030BD00001A
:1008D0002DE9F34717461E4682460022002338467C
:1008E000314619F043FD9DF828504FF00104F8B14E
:1008F00043A3D3E900233846314619F02DFD00B952
:100900000446E4B20022002338463146C4B119F04F
:100910000FFD18B12D215046FFF72CFF04463C492E
:100920005046FFF72BFF0444204602B0BDE8F08795
:1009300035A3D3E900233846314619F003FDDEE73D
:1009400019F0F6FC30B12D215046FFF713FF044695
:1009500006F100464FF0000800202E495FFA88F3A8
:100960009D4206D900222C4B19F09AFB08F1010890
:10097000F4E73A46334619F0B3F806460F461AF044
:10098000C9F80A230246009380460B465046894622
:10099000FFF741FF0444002DC6D04046494619F0F8
:1009A00027FA02460B463046394619F097F80646B4
:1009B0000F4650461949FFF7E1FE0444013DEDB2F0
:1009C000FF2DB1D0144B00223046394619F03EFAC3
:1009D0000F46064619F0D4FC0A22014680465046CE
:1009E000FFF732FF0444404619F0C6F902460B46B1
:1009F0003046394619F072F806460F46DEE700BF6A
:100A0000800350726C92DF43800350726C92DFC39C
:100A100054C902080000E03F00002440B0E702088B
:100A20009DF800100091FFF753BF704710B50446C2
:100A3000007900F075FC2079BDE8104000F088BC1A
:100A4000026841F48011936823F460231943916094
:100A50007047002330B51C461D4603EB4302072BAD
:100A600001FA02F203F10103D8BF15430A2B44EA4D
:100A70000204F2D10368DD6003681C6130BD000030
:100A800070B5144C23681B681D68A90707D51A6840
:100A900022F002021A6023689B6803B198476A0734
:100AA00009D523681A68136823F0040313602368C8
:100AB0001B6903B19847EB070BD523681A681368C5
:100AC00023F0010313602368DB6813B1BDE87040B5
:100AD000184770BD1C00002070B5144C23681B68BB
:100AE0001D68A90707D51A6822F002021A60236858
:100AF0009B6803B198476A0709D523681A68136889
:100B000023F00403136023681B6903B19847EB07C4
:100B10000BD523681A68136823F001031360236858
:100B2000DB6813B1BDE87040184770BD2400002099
:100B3000012203685B0103F1844303F58673191FE7
:100B40001A6018680028FCD143F8042C0B68002BAD
:100B5000FCD170470146042000F014BC10B50446D7
:100B6000054B1868A047054B1868A047044B186848
:100B70002346BDE8104018471C000020200000203C
:100B80002400002010B50446FFF750FF20464FF424
:100B90006021FFF755FF0122236820465B0103F126
:100BA0008443C3F8502123685B0103F18443C3F8F5
:100BB0000021BDE81040FFF7BBBF007900F0B0BBDB
:100BC00014230139594300680830435823F4405333
:100BD00043EA023242507047036814200833013957
:100BE00000FB01314A60704700EBC10340F831203F
:100BF00093F90430002B08DB0122591103F01F0385
:100C000002FA03F3014A42F82130704700E100E0A4
:100C100014220368013902FB01310123490101F16A
:100C20008441C1F80031704714220368013902FB86
:100C300001310023490101F18441C1F800317047BD
:100C40002DE9F04114251C4690464B1E5D43066875
:100C5000FFF7EAFF9DF81C30240244EA8324089B36
:100C600008361C43069B77197451FB60C7F808804F
:100C7000BDE8F08110B5044B1C68A3681BB1984710
:100C8000012223685A6010BD6000002010B5044B9B
:100C90001C6823691BB19847102223685A6010BD55
:100CA0006000002010B5054B1C68A36923B198476C
:100CB0004FF4807223685A6010BD00BF60000020AE
:100CC00010B5054B1C68236A23B198474FF4805236
:100CD00023685A6010BD00BF6000002010B5054BAE
:100CE0001C68A36A23B198474FF4803223685A6086
:100CF00010BD00BF6000002010B5054B1C68236BC1
:100D000023B198474FF4801223685A6010BD00BF8A
:100D10006000002010B5054B1C68A36B23B19847F9
:100D20004FF0807223685A6010BD00BF6000002041
:100D300010B5044B1C68A3681BB1984701222368B7
:100D40005A6010BD6400002010B5044B1C68236974
:100D50001BB19847102223685A6010BD6400002020
:100D600010B5054B1C68A36923B198474FF48072F6
:100D700023685A6010BD00BF6400002038B5104CD5
:100D8000636CD8070BD52368D90408D50D4B1D68B3
:100D90002B6A23B198474FF480522B685A60A36D99
:100DA000DA070BD52368DB0308D5064B1C68A36A5A
:100DB00023B198474FF4803223685A6038BD00BF92
:100DC0000004024064000020000000000000000059
:100DD000012007E0022005E0032003E0042001E0F9
:100DE0000520FFE70D4A0121116072B60C4A00216F
:100DF0001160074902B4084902B486B005498E461D
:100E0000704700BFAFF30080AFF30080AFF3008006
:100E100000000061F9FFFFFFC52E000814ED00E09F
:100E200010E000E008B5054A136833B150689847F0
:100E30000122034B5A6100BF00BF08BD1011002002
:100E40000004014008B5054A936833B1D06898475B
:100E50000222034B5A6100BF00BF08BD10110020E1
:100E60000004014008B5054A136933B15069984739
:100E70000422034B5A6100BF00BF08BD10110020BF
:100E80000004014008B5054A936933B1D069984719
:100E90000822034B5A6100BF00BF08BD101100209B
:100EA0000004014008B5054A136A33B1506A9847F7
:100EB0001022034B5A6100BF00BF08BD1011002073
:100EC000000401402DE9F041002705240C4DD5F820
:100ED00014800126A64018EA060F08D0094BE1004D
:100EE00053F834201AB10B44586890473743013403
:100EF0000A2CEED16F6100BF00BFBDE8F08100BFDA
:100F000000040140101100202DE9F04100270A24BF
:100F10000C4DD5F814800126A64018EA060F08D01B
:100F2000094BE10053F834201AB10B44586890473C
:100F300037430134102CEED16F6100BF00BFBDE814
:100F4000F08100BF0004014010110020034A136823
:100F500023F0070318431060704700BF00200240D1
:100F600010B50446007900F0DBF92079BDE81040A7
:100F700000F0EEB908B50748FFF7F2FF0648FFF7A3
:100F8000EFFF0648FFF7ECFFBDE808400448FFF715
:100F9000E7BF00BFD8000020E0000020E8000020EC
:100FA000F000002070B50F250368CE0801F007009F
:100FB000840053F82600092A05FA04F520EA0505FD
:100FC00014BF10460820A0402843082A43F82600F2
:100FD00007D10120DA6800FA01F122EA0101D960A3
:100FE00070BD092AFCD10122D86802FA01F101433F
:100FF000F5E708B5032000F093F9BDE808400320A9
:1010000000F0A6B903681A6812F4985FFBD11A6859
:1010100042F480721A60704703681A6812F4985F8D
:10102000FBD11A6842F400721A600268136813F464
:10103000985FFBD17047000070B502684568516940
:1010400092695A4AAE781268CB07044606F0010648
:10105000C26014D50023EB8000F0D8F822685368F2
:1010600043F48063536026B12268136843F48063BD
:10107000136000212B88226846EA4303136111F0B4
:101080000A0F10D0AB88002E45D0012B0AD1226860
:101090002046136823F480631360A38B012B37D998
:1010A000FFF7B0FF002101F08402802A03D1A38B57
:1010B000002B49D1002101F08402842A0DD1A18B9B
:1010C0002046002954D0FFF79DFF22685369D907B5
:1010D000FCD5002163680C3363604B0661D523683F
:1010E000AA681969EB88581CE880D154AB88EA8853
:1010F000591E8A424BD122682046136823F480632C
:101100001360A38B022B3ED9BDE87040FFF77ABF76
:10111000FFF782FFC6E7012B08D9EB88A9685A1CA4
:10112000EA802268CB5C13613146BCE7002BFBD11F
:101130002046FFF771FF2268536823F40073536061
:10114000022384F82330ADE7EB88A9685A1CEA80B3
:101150002268CB5C1361EA88AB889A42AAD12268E4
:10116000536823F480635360A38B013BA383A1E7FF
:10117000FFF752FF2268536823F400735360022381
:1011800084F82330A9E7BDE87040FFF745BF9A42D5
:1011900007D1A38B013B9BB2A3831BB9022384F825
:1011A000233070BD63680C336360FAE7C02700200A
:1011B00008B50268536903F47063836000235361C8
:1011C00002689361FFF728FF0268536823F4E06325
:1011D0005360FF2380F8233008BD00000148FFF76B
:1011E0002BBF00BFF80000200148FFF725BF00BF5C
:1011F0001C0100200148FFF7DBBF00BFF800002002
:101200000148FFF7D5BF00BF1C01002010B5044600
:10121000002190F9210000F00FF894F9220000213C
:10122000BDE8104000F008B84AF6AA22014B1A6047
:10123000704700BF003000400028A8BF00F16040A8
:101240004FEA0111B8BF054BC9B2B5BF00F00F009E
:1012500000F56140195480F80013704714ED00E068
:1012600010B5002421F0604121F07F01064A0143BE
:10127000916060B20F210134FFF7DEFF3C2CF8D102
:10128000F02382F8233010BD00ED00E0014B13F88D
:101290001000704780C90208064B5A6822F003020A
:1012A00002435A6080005A6802F00C028242FAD16E
:1012B000704700BF00100240030AC2B2012003F1D0
:1012C000804303F504331968904008431860704761
:1012D0000121030A03F1804303F504331A68C0B205
:1012E00001FA00F022EA000018607047030A03F1D7
:1012F000804303F504331A680223C0B203FA00F0F6
:1013000010407047054A0168536823F474130B4377
:10131000416809680B435360704700BF00100240EA
:1013200010B50446FFF7B2FF074B53F820200748DB
:1013300000EB4400437803EBC20301229B0003F15E
:1013400084431A6010BD00BF4001002080C902081C
:1013500010B50446FFF79AFF084B53F820200848C1
:1013600000EB4400437803EBC20301229B0003F12E
:1013700084431A6000221A6010BD00BF580100208B
:1013800080C9020810B5054A054C536854F820007E
:1013900023EA00030B43536010BD00BF001002405E
:1013A0006CC9020810B50446FFF770FF074B53F8ED
:1013B0002020074800EB4400437803EBC2030022DF
:1013C0009B0003F184431A6010BD00BF4C01002054
:1013D00080C9020801EBC000800000F18440026077
:1013E000704710B504460079FFF79AFF2079BDE8F1
:1013F0001040FFF7ADBF012206210068FFF7EABFEA
:10140000002206210068FFF7E5BF10B50C46016811
:1014100003464A6822F0E0024A60026812686240AD
:1014200012F4205F01D0FFF7EBFF1A681846146032
:10143000BDE81040FFF7DFBF134343F00403194337
:10144000FFF7E3BF0122006811460430FFF7C2BF77
:101450000068002201210430FFF7BCBF00680122B0
:1014600000210430FFF7B6BF002203685B0103F1DF
:101470008443C3F880207047F8B51046069C9DF859
:101480001C709DF820609DF8245081B10B223946D4
:101490002046FFF787FD042231462046FFF782FDF4
:1014A0000B2229462046BDE8F840FFF77BBD1946D0
:1014B0000422FFF777FD042239462046FFF772FD2C
:1014C0000B2231462046FFF76DFD0422E9E7FEE7D7
:1014D0000722024B58601A60704700BF10E000E01E
:1014E000044A136801331360034B1B6803B11847A8
:1014F000704700BFC02700209011002011F0010F9D
:1015000070B501F1FF340DBF082500256FF0FF0114
:101510006FF47F410068C4F34004183050F8246031
:1015200013433140AB400B4340F8243070BD026898
:101530004B1E02F1404220329B0003EBC20301220A
:101540009B0003F184431A607047000010B5044605
:101550000948A0470948A0470948A0470948A047AB
:101560000948A0470948A0470948A0472346BDE8C5
:1015700010400848184700BF84010020AC0100203B
:10158000D0010020F4010020180200203C020020BD
:10159000480200205402002010B504460079FFF7ED
:1015A000BFFE2079BDE81040FFF7D2BE00230268DD
:1015B00013600268D3604279012A9CBF02681362FB
:1015C000704703791E2B10D9212B0ED0202B0ED95A
:1015D000222B01D0252B04D102298CBF0020012011
:1015E00070474B1E584258417047012070470020F9
:1015F000704700008B1C40F82320012342798B4068
:1016000010B5DB43EAB1012A41F65F6218BF01223F
:101610001340012204682361036803F140430C3343
:1016200001EBC3039B0003F184431A604279037901
:101630003ABB072915D8DFE801F007151515151A6B
:101640001A1F41F6FF62E3E71A2B0CBF19232C2364
:101650000122590903F01F0302FA03F3254A42F855
:10166000213010BD1A2B0CBF1B232E23F0E71A2BA1
:101670000CBF1A232D23EBE71A2B0CBF18232B23A7
:10168000E6E71B3B0C2BECD801A252F823F000BF7D
:10169000F1160008C5160008C9160008CD16000886
:1016A000D1160008D516000863160008D9160008E0
:1016B000DD160008E1160008E5160008E916000826
:1016C000ED1600081D23C3E71E23C1E73223BFE741
:1016D0003623BDE73723BBE71823B9E71923B7E75C
:1016E0001A23B5E72B23B3E72C23B1E72D23AFE76C
:1016F0001C23ADE700E100E00022036803F1404352
:101700000C3301EBC3039B0003F1844302311A60E5
:1017100040F82120704738B504460D461346002294
:10172000FFF7ECFE29462046BDE83840FFF7FFBE34
:1017300038B543790546022B0C4615D0042A13D838
:10174000DFE802F003132A2D3A00FFF7D5FF026805
:10175000631E02F1404220329B0003EBC2030022D1
:101760009B0003F184431A6038BD0022036803F133
:1017700040430C3301EBC3039B0003F184431A6025
:101780000823602221462846FFF7B8FE2146284656
:10179000BDE83840FFF7CBBE00231022F2E74FF23E
:1017A000F11203689A61032203689A6003680122B8
:1017B0005B0103F18443D6E70122BDE83840FFF71F
:1017C000AABF000010B5074A1468E36821690B40FE
:1017D0001B0606D5536A23B19847236923F080037B
:1017E000236110BD8401002010B5074A1468E36826
:1017F00021690B40DB0706D5936823B1984723691D
:1018000023F00103236110BD84010020F8B50C4DC5
:101810002F68FE683B691E4016F0400403D02C6A16
:101820000CB1A0474024B30604D5EB6913B1984727
:1018300044F020043B6923EA04043C61F8BD00BF86
:1018400084010020F8B5134D2F68FE683B691E40E7
:1018500016F0100403D0AC690CB1A0471024310776
:1018600004D56B6913B1984744F00804720704D596
:101870002B6913B1984744F00404B30704D5EB680F
:1018800013B1984744F002043B6923EA04043C6125
:10189000F8BD00BF84010020F8B51A4D2F68FE681E
:1018A0003B691E4016F0400403D02C6A0CB1A047DF
:1018B0004024F30604D5AB6913B1984744F01004F3
:1018C000300704D56B6913B1984744F008047107D9
:1018D00004D52B6913B1984744F00404B20704D52A
:1018E000EB6813B1984744F00204F30704D5AB68E2
:1018F00013B1984744F001043B6923EA04043C61B6
:10190000F8BD00BFAC010020F8B51A4D2F68FE6885
:101910003B691E4016F0400403D02C6A0CB1A0476E
:101920004024F30604D5AB6913B1984744F0100482
:10193000300704D56B6913B1984744F00804710768
:1019400004D52B6913B1984744F00404B20704D5B9
:10195000EB6813B1984744F00204F30704D5AB6871
:1019600013B1984744F001043B6923EA04043C6145
:10197000F8BD00BFD0010020F8B51A4D2F68FE68F1
:101980003B691E4016F0400403D02C6A0CB1A047FE
:101990004024F30604D5AB6913B1984744F0100412
:1019A000300704D56B6913B1984744F008047107F8
:1019B00004D52B6913B1984744F00404B20704D549
:1019C000EB6813B1984744F00204F30704D5AB6801
:1019D00013B1984744F001043B6923EA04043C61D5
:1019E000F8BD00BFF4010020F8B51A4D2F68FE685D
:1019F0003B691E4016F0400403D02C6A0CB1A0478E
:101A00004024F30604D5AB6913B1984744F01004A1
:101A1000300704D56B6913B1984744F00804710787
:101A200004D52B6913B1984744F00404B20704D5D8
:101A3000EB6813B1984744F00204F30704D5AB6890
:101A400013B1984744F001043B6923EA04043C6164
:101A5000F8BD00BF1802002010B5074A1468E368FB
:101A600021690B40DB0706D5936823B198472369AA
:101A700023F00103236110BD3C02002010B5074A8A
:101A80001468E36821690B40DB0706D5936823B12E
:101A90009847236923F00103236110BD4802002009
:101AA00010B5074A1468E36821690B401B0606D588
:101AB000536A23B19847236923F08003236110BD43
:101AC0005402002010B5074A1468E36821690B40EE
:101AD000DB0706D5936823B19847236923F00103F8
:101AE000236110BD54020020F8B50C4D2F68FE682C
:101AF0003B691E4016F0400403D02C6A0CB1A0478D
:101B00004024B30604D5EB6913B1984744F0200490
:101B10003B6923EA04043C61F8BD00BF5402002085
:101B2000F8B5134D2F68FE683B691E4016F010048F
:101B300003D0AC690CB1A0471024310704D56B6900
:101B400013B1984744F00804720704D52B6913B108
:101B5000984744F00404B30704D5EB6813B19847E1
:101B600044F002043B6923EA04043C61F8BD00BF71
:101B70005402002000223F2110B504464368103073
:101B80009A801860DA801981A3689A80DA8004F15B
:101B9000500219811A6094F89000FFF7C1FB94F984
:101BA0009130002B08DB0122591103F01F0302FAC8
:101BB00003F3024A42F8213010BD00BF00E100E00B
:101BC0000368DA6842F02C02DA60DA6842F4005204
:101BD000DA60704710B5036881688C88CA8892B251
:101BE000A242FAD1DA68910402D51A685206F9D5F0
:101BF000DA6822F40052DA60426893889BB2D3809C
:101C0000826893889BB2D38010BDF0B50B46064620
:101C10000468B568581AAF88ED88ADB2BD4204D1EA
:101C200025682D0601D5824210D8E36823F0800391
:101C3000E3609042B3680DD39A88DB889BB29342ED
:101C40001EBFE36843F08003E360F0BD13F8010BAF
:101C50006060DEE7DD889F880135BD42ECD0DF881B
:101C60001D89ADB2BD4203D19D88ADB2002DE3D038
:101C7000DD8811F800C01F68ADB207F805C0DF8825
:101C80001D890130ADB2BD420FBF0025DD88013591
:101C9000ADB2DD80CDE703468288016892B2885CF0
:101CA00099881A89C0B292B28A420FBF00229A88DC
:101CB000013292B29A80704738B5C3888288013366
:101CC000934204460D4607D0C28803899BB29342D3
:101CD00014D183889BB28BB92046FFF7DCFFE388E1
:101CE00022689BB2D554E28823899BB293420FBFEE
:101CF0000023E38801339BB2E38038BD4FF0FF300F
:101D0000EDE770B51E460546084611460422059CBF
:101D1000FFF748F90B229DF810103046FFF742F903
:101D200029686302CA6803F4F05322F4F0521204E3
:101D3000120C1343CB602A682402136904F4405444
:101D400023F440531B041B0C1C43146170BD38B5B5
:101D50000546144611B900F0FDF801461923594310
:101D6000A200B1FBF2F26421B2FBF1F001FB1023FF
:101D70001B013233B3FBF1F303F00F032C6843EA8A
:101D800000139BB2A36038BD10B50446084B186819
:101D9000A047084B1868A047074B1868A047074B97
:101DA0001868A047064B18682346BDE8104018473E
:101DB00084020020880200208C0200207C02002087
:101DC0008002002010B5104CE368980607D5236800
:101DD000990604D561680D48C9B2FFF76DFFE36845
:101DE0001A060BD523681B0608D509488288C388C4
:101DF0009BB2934203D0FFF74EFF606010BDE368D3
:101E000023F08003E360F9E700380140C4110020AB
:101E1000D011002010B5104CE368980607D5236850
:101E2000990604D561680D48C9B2FFF745FFE3681C
:101E30001A060BD523681B0608D509488288C38873
:101E40009BB2934203D0FFF726FF606010BDE368AA
:101E500023F08003E360F9E700440040DC11002038
:101E6000E811002010B5104CE368980607D52368E8
:101E7000990604D561680D48C9B2FFF71DFFE368F4
:101E80001A060BD523681B0608D509488288C38823
:101E90009BB2934203D0FFF7FEFE606010BDE36883
:101EA00023F08003E360F9E700480040F4110020CC
:101EB0000012002010B5104CE368980607D523687F
:101EC000990604D561680D48C9B2FFF7F5FEE368CD
:101ED0001A060BD523681B0608D509488288C388D3
:101EE0009BB2934203D0FFF7D6FE606010BDE3685B
:101EF00023F08003E360F9E7004C004094110020D8
:101F0000A011002010B5104CE368980607D523688F
:101F1000990604D561680D48C9B2FFF7CDFEE368A4
:101F20001A060BD523681B0608D509488288C38882
:101F30009BB2934203D0FFF7AEFE606010BDE36832
:101F400023F08003E360F9E700500040AC1100206B
:101F5000B811002008B590F89000FFF797F920B16C
:101F60000128034818BF002008BD0248FCE700BF55
:101F700000A24A040051250230B548F28005094C00
:101F8000226822F4804222F070022A4342402260FA
:101F9000236823F4E04323F040032B434B402360AA
:101FA00030BD00BF005C0040284B072818BF1870E8
:101FB0001A78052A48D8DFE802F003131E232B36CF
:101FC0004FF6FB71224A106C014011644FF43F41FF
:101FD000116406221A701F4B1B685A7B1A737047D4
:101FE0004FF6FB711A4A106C014011644FF43F41E7
:101FF0001164042202E002225A7003221A7006E0E1
:102000005A78013AD2B25A705A78002AF1D0704701
:102010000F490A6C92B242F010020A6405221A704B
:102020000A225A7070475A78013AD2B25A705A78D6
:10203000002AECD14FF6EF720549086C02400A64A1
:10204000044A1268517B11730622D7E7C427002087
:10205000005C0040740500202DE9F0415F4D604AAE
:102060002B68546C1B68A4B223405E0506D56FF440
:10207000806353645B4B1B685B6898472A681368EE
:102080002340980442BF6FF40051554B59641368C4
:102090002340D90406D56FF4C052514B00205A6436
:1020A000FFF782FF2B681A68224012050FD54C49B2
:1020B0000A6C92B242F0080042F00C0208640A6412
:1020C0001A7B5A7303221A736FF4C0524A641A6857
:1020D0002240970542BF6FF40071414A51641B686A
:1020E0002340DE0506D56FF480723D4B07205A640D
:1020F000FFF75AFF2B681B681C40240403D5384C9B
:10210000676C3B0401D4BDE8F0816FF4004317F025
:102110000F06636438D148F68003D4F8008018EACB
:10212000030FECD01FFA88F32F4D304E03F44052CA
:102130004FF4005003F03003202133802A80FFF752
:102140001BFFF80623680ED423F4E14323F0700349
:102150001B041B0C236000F09BFD31882888BDE820
:10216000F041FFF709BF18F0800FEDD123F07003A5
:102170001B051B0D18F4006F236002D000F0A6FBB6
:10218000EBE700F003FDE8E7B40004F1804404F558
:10219000B844276839040DD5236823F070031B0564
:1021A0001B0D23602A6806F180439268013B52F8B8
:1021B000233098473A06A2D5236806F1804623F4D7
:1021C000E14323F070031B041B0C23602B68013ECA
:1021D0005B6853F82630984791E700BF74050020EC
:1021E000005C0040CC270020C6270020C827002024
:1021F000800000F1804000F5B840036823F480437C
:1022000023F0700343F4004343F08003594001601E
:102210007047000018B90722024B1B681A82024857
:10222000704700BFD4270020E405002000220121D0
:1022300010B5104B1B689A720F4B19640F49086850
:102240000260086804681C644FF4E0545A64046037
:10225000086804681C644FF43F445A6404600868CA
:10226000006818644FF48010054B18600B681A73EF
:1022700010BD00BFD4270020005C00407405002082
:1022800000E100E013B5104B1A68137803F07F03E8
:10229000212B16D1022808D0222801D0022405E0E3
:1022A00093780A4A03F0030313700024084B1B6859
:1022B00023B102A901F8010D02209847204602B07F
:1022C00010BD0224FAE700BFD4270020101200201E
:1022D0000C12002021B901288CBF02200020704779
:1022E00002207047054B1B689B78032B04D80449D8
:1022F00001EBC30100F0BCBA00207047D4270020D6
:10230000CC050020014900F0B3BA00BF88050020C9
:10231000014900F0ADBA00BF9005002037B5114C5F
:102320002268127802F07F02212A02D0022003B034
:1023300030BDA0F12003012B0B4B0C4D1B6888BF57
:10234000002523B102A901F8010D02209847002DB4
:10235000ECD0236800249D615C822046A84720467B
:10236000E5E700BFD42700200C120020152200084A
:102370002DE9F04700254FF0C00948F68F1648F2C6
:1023800080074FF0400A434B434C1B68DFF838810D
:102390009D7283F80990256523682846334043F4ED
:1023A00000732360236803EA08033B4383F01003B0
:1023B0002360226D394B520043F802A08022236D26
:1023C0005B0003F1804303F5C0431A60236823F4E4
:1023D000E24323F070031B041B0C2360304B1B688B
:1023E00093F82C1000F072F84FF440512846FFF794
:1023F000FFFEA3682946334043F4C063A360226D07
:10240000284B520013444FF480721A60A2680220D5
:1024100002EA08023A4382F02002A260FFF7E8FED7
:10242000E36851463340E360226D1F4B5200134472
:102430004FF4887203201A6000F048F84FF44051BE
:102440000320FFF7D5FE636829461E406660226DB3
:10245000164B520043F802906368012003EA080318
:102460003B4383F020036360FFF7C2FE0122104B61
:1024700028461B681A7300F0EBFBFF220D4B1D6012
:102480000D4B1D600D4B1D600D4B1D600D4B1A70EB
:10249000BDE8F087D4270020005C004008600040C1
:1024A000CC270020206000403860004010600040D1
:1024B00074050020141200201812002020120020A1
:1024C000241200201C120020BF8FFFFF0D4B0E4A6C
:1024D0001B6D3E2903EBC0004FEA400002440AD9BD
:1024E0004B09C80604BF03F1FF339BB29B0243F4C0
:1024F0000043136070474B08C90748BF01339B0274
:10250000F7E700BF005C00400C60004010B5064CCF
:1025100018B9012223681A8210BD044B1B681B687E
:10252000984720680A30F7E7D4270020D0270020FA
:1025300010B5064C18B9012223681A8210BD044B4D
:102540001B689B68984720680C30F7E7D427002069
:10255000D027002010B51E4B1C68002310B90223A1
:10256000238210BD1B4803802178024611F07F01B1
:1025700012D1617A8C0644BF0223037003784806A7
:102580004CBF23F0010343F001031370124B1B688F
:102590001B6998470F48E4E70129E2D0022915D1C9
:1025A000217901F00F039B0003F1804303F5B84349
:1025B00009061B6805D503F03003102BE6D1012373
:1025C000E3E703F44053B3F5805FF7E71846C8E745
:1025D000D4270020CA270020D02700202DE9F84367
:1025E000234FDFF8A0803D682C8AD4B92E7A042EC0
:1025F00017D120490B78012B0ED11F4B1A681F4BA6
:1026000092B213445B001C6030230C70A8F80030B9
:102610003B681E72BDE8F88310230726A8F8003037
:10262000F6E7AB8A9C4294BF042602269C4228BF50
:102630001C46AB69204698478146002000F0B4FB59
:1026400022460146484600F052FB2146002000F099
:10265000C7FB2B8A4FF440521B1B2B826B8A1C44F6
:102660003023A8F80030064B6C821A80D0E700BFF8
:10267000D427002028120020505C004002300020A7
:10268000C6270020C827002010B50A4B0A491B683E
:1026900049789A7891420AD3D97841B99C8834B95B
:1026A0009A72064B1B685B689847204610BD022053
:1026B000FCE700BFD4270020C8050020D027002059
:1026C00038B50F4A0F4D12682B68926999781879BE
:1026D00090472B6804469A7A7AB170B95A7962B9F0
:1026E000DB7853B9084B1B68DB6898472B681A796D
:1026F000DA729A781A73204638BD0224FBE700BFCD
:10270000CC270020D4270020D027002038B52B4B21
:102710001B68187810F07F0004D15A7A22F020024A
:102720005A7238BD022847D15A88002AF9D15A79FD
:10273000002AF6D11979224D21F08000840004F19D
:10274000804404F5B844226849B22D780029B4BF0A
:1027500002F0300202F4405285422DD962B39B7AD6
:1027600053B30029236811DA03F03003102B07D18B
:10277000C4B2204600F004FB3021204600F0D8FA15
:10278000104B1B685B6998470020CAE703F440536D
:10279000B3F5805FF4D10C4D58B90C4B93F82C1065
:1027A00000F02CFB23682B409BB283F44053236042
:1027B000E6E700F0D2FAF5E70220B2E7D4270020DE
:1027C000C8050020D02700208FBFFFFF98050020FC
:1027D00038B51B4B1B4D18682D78017921F080040A
:1027E000A30003F1804303F5B8431A6849B20029F6
:1027F000B4BF02F0300202F44052A5421DD9448811
:10280000DCB9D2B1827AC2B11A680029B5BF22F40C
:10281000E04222F4804222F0400222F07002B5BF72
:1028200092B292B282F0100282F480521A60064B89
:102830001B689B699847002038BD0220FCE700BF59
:10284000D4270020C8050020D027002008B5064B5B
:102850001A68537A43F020035372044B1B68DB69F8
:102860009847002008BD00BFD4270020D0270020B3
:1028700010B5054B1C68628A18B98B889B1A238295
:1028800010BD08681044FBE7D427002008B50B4BA7
:10289000002093F82C1000F0B1FA094B1B68187A4D
:1028A000082806D14FF48052064B1A801022064B9E
:1028B0001A80A0F109035842584108BD980500202C
:1028C000D4270020C6270020C827002073B5964CC7
:1028D000964E216832680B7A092B16D0944B92B22F
:1028E00013445B001B885B0003F1804303F5C04386
:1028F0001A780A7059782268517099882268518034
:102900001989226891809B89D380012223681A72D9
:10291000DA885D78002A64D11A7812F07F024DD1EE
:10292000092D03D1FFF7B0FE40BB16E0052D20D1E5
:1029300093F90220002A07DA08232268137202B0F2
:10294000BDE87040FFF7A2BFDA78002AF4D19A8878
:10295000002AF1D19B7A002BEED13268754B92B2EE
:10296000134400225B001A603022734B1A80062346
:10297000E3E7032D14D19A78012A08D06F4B28463B
:102980001B685B699847032828D10923D5E79A88F3
:10299000002AF3D15B7A9A06F0D5FFF757FFC3E719
:1029A000012DEBD19A78012AE8D19A88002AE5D145
:1029B0005B7A9B06E2D5FFF7A9FEB5E7012A04D1B1
:1029C0000B2DDBD1FFF77CFEAEE7022AD6D1012D1D
:1029D000F1D0032DD2D1FFF7FBFEA5E70028ABD144
:1029E000BBE7062D12D11A7855065AD1DB78534A27
:1029F000012B126802D1D369DBB952E0022B01D15D
:102A0000136AF9E7032B4CD1536AF5E7002D54D133
:102A10005988002945D15A6822F0FF02B2F5003FDB
:102A20003FD11A7812F07F0216D19B88002B38D143
:102A3000434B0025226828465582936198472846D3
:102A40004FF6FF7123681A8A8A4233D0022801D0D8
:102A5000002A55D108222EE0012A0AD1374A1879D6
:102A6000126892699047E0B923689B7A002BDFD106
:102A700017E0022A15D11A7902F00F018B00100617
:102A800003F180432F4803F5B8431B6800784CBF1F
:102A900003F0300303F44053884202D912F0700F60
:102AA000E4D0264B22681B6850781B69984703289E
:102AB000C6D1236809221A7241E7082D04D11B7878
:102AC0005B06EED1204BB4E70A2DEAD11A7802F06A
:102AD0007F02012AE5D19A7A002AE2D0598800299A
:102AE000DFD15A6822F0FF02B2F5803FD9D1134AF4
:102AF00018791268926990470028D2D1134B98E751
:102B000093F90010002936DAD9880C4C019101980C
:102B1000246882421CD9019A1A8294F82C209A8245
:102B2000FFF75CFD0BE700BFD4270020505C00409E
:102B30000430002002300020C8270020CC270020CD
:102B400055250008C80500200D250008312500087E
:102B50008A42E2D294F82C00824203D20021094A30
:102B60001170DAE792FBF0F100FB1122002AD4D1B8
:102B7000044A0121F4E703221A724FF44052024B37
:102B80001A80DCE628120020C6270020F8B52A4E5D
:102B90003468237A032B01D0052B44D1A369B3B148
:102BA000258AA5B1A28A954228BF1546284698478E
:102BB000238A07465B1B2382638A00202B4463829F
:102BC00000F000F92A460146384600F09FF8238AB3
:102BD00053B100214FF44052184B08461A8000F0C0
:102BE000FFF83022164B1A80228AA18A336891425C
:102BF00009D803221A7233681B7A32681372BDE84F
:102C0000F840FFF743BE0AB10522F3E70621197227
:102C10000C4B19680C4B89B20B445B001A603022D4
:102C2000074B1A80E7E7072B03D1084B1B68DB68CB
:102C300098470823E1E700BFD4270020C6270020DB
:102C4000C8270020505C004002300020CC27002024
:102C5000002210B50C4B1C78A24204D30B4B40F061
:102C60008000186010BD02F1805303F5B8539B003B
:102C7000196821F4E04121F070010904090C1143A5
:102C800019600132E8E700BFC80500204C5C004035
:102C900010B5134C23681A7A022A01D0042A09D1EC
:102CA000FFF79CFC23681B7A22681372BDE8104072
:102CB000FFF7ECBD062A10D15A78052A09D11A78F7
:102CC000520606D19878FFF7C3FF064B1B681B6AB4
:102CD0009847054B1B689B6898470823E4E700BFAB
:102CE000D4270020D0270020CC270020704701F1F6
:102CF0000051013201F540515210490002B97047AC
:102D000030F8023B013A21F8043BF7E7002310B505
:102D100001F10051013201F54051521049009A422F
:102D200000D110BD51F8234020F813400133F6E7DD
:102D3000800000F1804000F5B8400368CA0623F423
:102D4000E04323F040039BB248BF83F010038A06A0
:102D500048BF83F0200303607047800000F180408B
:102D600000F5B84003685B0409D5036823F4E04329
:102D700023F070031B041B0C43F480430360704773
:102D8000800000F1804000F5B84003685B0609D57B
:102D9000036823F4E04323F070031B041B0C43F08F
:102DA0004003036070470000054B1B689BB203EBB8
:102DB000C00000F1005000F540504000008870470E
:102DC000505C0040044B1B689BB203EBC000034BFC
:102DD00003445B0018887047505C004004300020BA
:102DE000044B1B689BB203EBC000034B03445B0026
:102DF00019607047505C0040023000200D4B0E4AB5
:102E00001B683E299BB203EBC00002444FEA42021A
:102E10000AD94B09C80604BF03F1FF339BB29B02DA
:102E200043F40043136070474B08C90748BF0133A0
:102E30009B02F7E7505C00400630002013B50446C3
:102E40008DF8071001220DF107012046FEF7DDFE87
:102E50000028F7D002B010BD38B505464C1E14F955
:102E6000011F01B938BDC9B22846FFF7E7FFF6E7F1
:102E700008B5134B03221C6801212046FEF792F887
:102E8000002301211A46B2F5007F0CD072B1B3F5D0
:102E9000007F01D100230A449A420CD90225206800
:102EA00005610133EFE74FF0FF31F0E7B3F5007F45
:102EB0004FF00101EED020684FF40035F0E700BF7D
:102EC00068C9020808B5034B0BB100F047F862B6B9
:102ED000FFF7CEFF5D2F000808B5044B23B100F0CB
:102EE0005DF80349FFF7B8FFFFF7ECFF9D2F0008DF
:102EF00053CA0208FDF7DAB908B500F075FC00F016
:102F000039FDFCE721F064BB21F06ABB32280BD805
:102F1000064B03EB001043681A68437B343203F11D
:102F20008043013B42F82310704700BF00C60208EF
:102F300038B50C460546072104EB042400F046F89A
:102F4000A1B22846BDE83840FFF7E0BF0022036881
:102F50005B0103F18443C3F8002170474FF0FF3356
:102F600010B50A4C0A48C4F88030C4F88430FEF723
:102F7000EDFA0848FDF7F2FD0748FEF705FF4FF4AC
:102F8000002323604FF48013236010BD00E100E0B4
:102F9000AD1500084D2F0008D51B000810B5094BD2
:102FA000094C18680B220221FDF7FCFF2068FEF790
:102FB000E1FD20684FF416520021FEF7C8FE20689C
:102FC00010BD00BF64C9020888020020322838B54D
:102FD0003BD8082939D8DFE801F00529171A1D2048
:102FE0001723260000240322184B00011D18297BFB
:102FF0001858FDF7D7FF686838B3697BCCB1BDE8D6
:1030000038400122FEF794BB00240422ECE70024A0
:103010002246E9E700240922E6E700240822E3E744
:1030200001240B22E0E701240F22DDE70024072220
:10303000DAE702684B1E02F1404220329B0003EBAC
:10304000C2039B0003F184431C6038BD00C6020824
:1030500008B501211048FDF7D3FA02210F48FDF70A
:10306000CFFA03210E48FDF7CBFA04210D48FDF7F6
:10307000C7FA05210C48FDF7C3FA06210B48FDF7F6
:10308000BFFA07210A48FDF7BBFABDE8084008214E
:103090000848FDF7B5BA00BF2C12002030120020FE
:1030A00034120020381200203C1200204012002070
:1030B000441200204812002032280DD8074B00018E
:1030C00019181B58097B1B689A6801238B4013420F
:1030D00014BF0120002070470020704700C602087E
:1030E000322810B50ED8084B00011C181B58B1FA35
:1030F00081F11A680123207B49098340090103FA01
:1031000001F1116110BD00BF00C602080A4A0B4B55
:1031100011689B6800BF00BF12688A42F6D1482040
:10312000C3F58C3303F5A073B3FBF0F34FF47A705F
:1031300000FB0230704700BFC027002010E000E015
:1031400038B50446FFF7E2FF05465CB1FDF76DFCBC
:10315000FFF7DCFF401BB0F57A7FF6D3013C05F5A5
:103160007A75F5D138BD28B10C234343013B18468D
:103170000138FDD8704700000449054BCA6822F4A5
:10318000E0621204120C1343CB60704700ED00E0C4
:103190000003FA05704701207047000013B5104C7A
:1031A000204616F0CAFB2046042116F05FFB20469D
:1031B00002220C4916F05EFB002302220A4900930A
:1031C0002046A02316F0BCFB204616F0AFFB20469D
:1031D00016F09EFB204602B0BDE8104016F09FBBE3
:1031E00054120020EB0500204E12002024280AD0A3
:1031F000252807D10123054A32F81330044AC3F3C6
:103200008903138070470023F5E700BF4E120020AA
:103210004C120020044B03EB00135B6813B1C0B2E7
:10322000FFF786BE704700BF00C60208024B034886
:10323000196816F019BB00BF1C00002054120020B2
:1032400010B5074C032294F84C10206CFDF7AAFE31
:10325000236C94F84C101A6801238B40136110BD45
:1032600000C60208062838B58CBF00250A4B0B4C57
:1032700098BF1D5C2046E46615F03BF829462046C1
:1032800015F049F82046012115F052F82046BDE816
:103290003840002115F059B878CA02089C26002051
:1032A000FF21014815F06CB89C2600200B46024611
:1032B0000021014815F022B99C2600200146014852
:1032C00015F0A8B99C26002070B50D46064C0146A5
:1032D000204615F09FF929462046BDE8704001239D
:1032E0004FF4007215F08AB99C2600200228F8B528
:1032F00006460D4639D0052836D100262C4C022230
:10330000236801215B0103F184431E602046FEF720
:103310000FFA28494FF6FF70B1FBF5F111228142F7
:1033200028BF014623685E629A62D8629A69204685
:1033300022F0FF029A6159635B0103F1844301218A
:10334000DE611D4AFEF756F901213220FDF774FFB8
:10335000012223685B0103F18443C3F880222368C0
:103360005B0103F184431A60F8BD0027134C024649
:10337000236801215B0103F184431F602046FEF7AF
:10338000D7F940F2E73223680D495F62B1FBF5F1EE
:103390009A624FF6FF72914228BF1146DA622046C8
:1033A0005963084A0121FEF725F931461C20CDE773
:1033B0001802002000093D003D460108AC01002034
:1033C000401901002959010802280CD005280CD108
:1033D000074B1B685B0103F18443D3F88401003081
:1033E00018BF01207047034BF3E70020704700BF70
:1033F00018020020AC010020013807289ABF024BB8
:1034000053F820000020704780CA02080120014BB9
:10341000187070476412002008B516F053FB0022A4
:10342000014B01201A7008BD641200202DE9F843F9
:103430001B4D98462B7806460C46174683B116F06E
:1034400035FB184816F0EAFA052802D00120BDE83D
:10345000F883154816F0E2FA0528F7D100232B70FF
:10346000254607EB04094D45A5EB04030DD0306854
:1034700015F8011B00F1806000F5FC301844400095
:1034800016F0EEFA0528EED0E0E7BAB24046214643
:103490000CF034FA326800203A443260D7E700BFBB
:1034A0006412002000F0030800F803082DE9F74338
:1034B00005460F4690461E4600249DF828902A682F
:1034C0004445224413D002F1806202F5FC325200DE
:1034D00013788DF80730B9F1000F00D03B55012269
:1034E0000DF1070130460CF009FA0134E7E700203E
:1034F0002A6003B0BDE8F083FDF796BE704703680D
:10350000C9B21B68184700000023054A9A56824238
:1035100004D00133172BF8D10020704701207047E9
:10352000F7CB020808B500F073FABDE8084001487F
:1035300000F05CBADACA020808B50FF097FA0FF08B
:1035400003FBFE200EF0AAFBBDE808400EF084BB92
:10355000124AD2F8803092F88C101868012303FACE
:1035600001F109040161D2F81011086892F81C11E8
:1035700003FA01F109040161D2F82012086892F8F7
:103580002C1203FA01F109040161D2F8D01292F869
:10359000DC22096893401B040B61704700C60208D7
:1035A000044BD3F8D02293F8DC12012312688B402D
:1035B0001361704700C6020840B9054BD3F8D0220A
:1035C00093F8DC12012312688B401361704700BF2F
:1035D00000C60208012130B4124BD3F880201068D5
:1035E00093F88C2001FA02F202610F48027822F06F
:1035F00001040470D3F81041256893F81C4101FAC6
:1036000004F42C6122F003040470D3F8204293F8F0
:103610002C322468994022F007022161027030BCEC
:10362000FFF7BEBF00C602087717002008B540F2BA
:10363000E933013B08D000BF00BF00BF42F62F2294
:10364000013A00BFFCD1F4E772B640F2E933013B26
:1036500008D000BF00BF00BF41F29312013A00BF83
:10366000FCD1F4E711F0F8FDFFF746FFFCE700009E
:10367000044608B511F0F0FD00F0CAF9054800F065
:10368000B5F90548002C18BF20460CF001F8FFF7EB
:10369000CDFF00BFF0CA0208E9CA020870B5374B77
:1036A00005461B78032B01D803F0A4FD344B354AA3
:1036B0001B6814689BB1344909680B44E31A002B5A
:1036C0000DDB00F0A5F9314B3148196800F0A6F97F
:1036D0000A213048FFF713FF0020FFF7C9FF2E4BE8
:1036E0001B6843B12D4908782D49097888420CD0D0
:1036F0001268254B1A602B4D2B68E31A002B03DB55
:1037000064340FF045F92C6070BD274A1178274AC0
:1037100089BB85BB1C4909680B44E31A002B2ADBD3
:103720001378002BE7D101231370214AD2F88010BF
:10373000086892F88C1003FA01F101611D480178C4
:1037400021F001050570D2F810512E6892F81C5135
:1037500003FA05F5356121F003050570D2F8205212
:1037600092F82C222D68934021F007012B61017003
:10377000FFF716FFBFE700231370BCE76C140020AF
:1037800070120020C0270020A0120020B0120020DC
:10379000A0CA02086C100020F0050020D11E0020F5
:1037A000D21E002068120020901200206C1200200F
:1037B00000C602087717002010B504460BF0B8FDCC
:1037C00002F056FC2046FFF769FF11F055FE0CF0A1
:1037D0001FF8044B1B781BB9BDE8104012F0B8BBB2
:1037E00010BD00BF7412002037B5FFF7C5FC4C4A6E
:1037F000136823F0E06343F00073136010F0A6FF3A
:103800004FF4E1314748FCF7E9FE474B47481B6856
:1038100000F0ECF800F0F6F8FFF7BDFCC507044631
:1038200002D5434800F0E2F8A00702D5414800F075
:10383000DDF8610702D5404800F0D8F8220702D52C
:103840003E4800F0D3F8A30602D53D4800F0CEF87C
:10385000FFF7A0FC3B4800F0C9F820213148FFF7F2
:103860004EFE394800F0C2F80A212E48FFF747FE05
:1038700000F0C8F8354800F0B9F8354800F0B6F85F
:10388000344800F0B3F800F0BDF8334800F0AEF86B
:1038900000F0B8F80020FCF7BDFD0DF10701091A92
:1038A0002E4800F0C7F82E4C4FF4D8612D4800F098
:1038B000C1F80A211B48FFF722FE0BF08DFC0BF02C
:1038C000F3FE04F0A3FE237823B90DF0F9FF08B14D
:1038D00001232370244C254D2168286816F0EEFD45
:1038E00069682060606816F0E9FDA9686060A068FA
:1038F00016F0E4FDA0600EF0AFF91D4811F070FB6A
:103900000CF0ACFC0EF016F810F080FAFFF7F6FDA4
:1039100001231A461946184600F006FC03B030BDD4
:10392000040001406C100020C0270020D6F10208DE
:1039300016CB02081FCB020830CB020842CB02088C
:1039400053CB020864CB02086BCB020876CB02088B
:1039500086CB020891CB0208BACB0208D1CB020871
:1039600065120020E0CB020884170020A417002075
:10397000B821002008B50020FFF71EFF14F0DAFA86
:10398000134B1B789B0617D513F0E8FE03F006F9DE
:10399000FFF7D2FD0CF03AFC11F05EFC0021084666
:1039A00011F0D8F80120002111F0D4F80022094BC1
:1039B00009481A7003F08EF9084B1B78032B01D8C5
:1039C00003F018FC03F08CFA0EF0B0F8D3E700BF58
:1039D000C4250020F405002010CB02086C14002040
:1039E000014813F00FBD00BF6D12002010B5044652
:1039F00014F9011B19B10248FFF781FDF8E710BD6A
:103A00006C1000200148FFF7F1BF00BF15CC020881
:103A10000148FFF7EBBF00BF0ECC020810B50C4603
:103A2000FFF7E4FF2146BDE810400148FCF7A6BEC1
:103A30006C10002010B50C46FFF7D8FF2146BDE8FA
:103A400010400A220148FCF7FFBE00BF6C100020A6
:103A500010B50C46FFF7CAFF2146BDE810400A2208
:103A60000148FCF704BF00BF6C10002013B50C46E2
:103A7000FFF7BCFF204616F091F90223024600939F
:103A800002480B46FCF7CCFF02B010BD6C100020C2
:103A900010B50C46FFF7AAFF2146BDE810400A22E8
:103AA0000148FCF7FBBE00BF6C100020034A044B2A
:103AB000002814BF10461846FFF798BFEDD0020843
:103AC00000D0020810B50446322C06D93220323C10
:103AD000FFF736FB11F0D0FCF6E72046FFF730FB8E
:103AE000BDE8104011F0C8BC38B51B4B93F900304D
:103AF000012B2DD0194D19B10023194A2B601370D9
:103B0000184B1A682B68D31A002B21DB144C0028A1
:103B100094F900301DDB011D994219DB9842CCBF9E
:103B20004FF47A704FF4FA7003F001031902C91AC6
:103B300003EBC10103EBC1018900104401F55C7185
:103B4000286089B232200BF099FE2378013323706C
:103B500038BD4FF47A70E7E7F50500208C1200209D
:103B600088120020C027002010B5104B01461B789A
:103B70001B070AD40E4B1C783CB90E4BB3F9082036
:103B80000D4BB3F900309A4209DB0B20002208F0FC
:103B900051FEBDE810400121002012F015BAFFF7D8
:103BA00031FF0648FFF722FF204610BD76120020A5
:103BB0003C2100200C21002066060020AFCC02082A
:103BC00030B50F4B0F4C85B000680D46196816F0E4
:103BD00031FEE16816F072FC2346002243F80C0F18
:103BE00002920022211DCDE90052204604F1080274
:103BF0000FF0AAFD05B0BDE830400EF0A5BF00BF34
:103C00004C060020841700202DE9F04F85B09DF967
:103C1000405081462846884617469A469DF83840C7
:103C20009DF83CB0FFF7A0FF064648B924B1024614
:103C30002946092008F0FEFD304605B0BDE8F08FAA
:103C4000BBF1000F28D024B100222946042008F03F
:103C5000F1FDFFF7D7FE3A48FFF7C8FE01215046B5
:103C6000FFF742FF0321374B012093F90020197021
:103C700035499B460B4608701978019351B10021D4
:103C800050460092FFF730FF0120FFF795FDDDE978
:103C90000023F1E78BF8002024B1002229460520FB
:103CA00008F0C8FD0021D9F8000016F0A3FE30B9D5
:103CB000264B04A941F8043D4846FFF781FF002147
:103CC000D8F8000016F096FE68B9214D214BD5F8C2
:103CD0003890AB63204B04A941F8043D4046FFF700
:103CE0006FFFC5F838900021386816F0ABFE60B160
:103CF00024B100220620114608F09CFD174B04A9B0
:103D000041F8043D3846FFF75BFF002C94D00323B5
:103D100000220C4D114695F900802B700A4B0720AC
:103D20001A7008F087FD0E4B93F900301BB9012083
:103D3000FFF742FDF7E7012B85F80080D3D07BE742
:103D40002CCC02089D120020751200200000C040FB
:103D50001C1F00200000C8410000F041000040404E
:103D60009C1200202DE9F743814610460E4614466A
:103D7000FFF7FAFE054648B926B10246014609207A
:103D800008F058FD284603B0BDE8F08326B10022B4
:103D90002146032008F04EFD154F02AC44F8047D87
:103DA000144B214668460093FFF70AFF41F2883022
:103DB000FFF788FE104E114B21460093336B684687
:103DC0000193FFF7FDFE0E4BD6F83880B363D9F8A8
:103DD00000302146684600930197FFF7F1FE00206E
:103DE000C6F83880FFF7E8FB6420FFF76BFEC9E7F1
:103DF00000004842000080C01C1F0020000040411D
:103E00000000C8412DE9F7433B4D1F462B78804603
:103E10008946164623B10024204603B0BDE8F0834E
:103E2000364B1B7818070FD40021106816F0E2FDFE
:103E300050B9334B1C783CB9324BB3F90820324BA4
:103E4000B3F900309A423EDB0123304A2B701378DD
:103E5000590749D40CF0EEF92D4C2E4B0FCB84E8CA
:103E60000F000EF071FE0021D8F8000016F0C2FD20
:103E700098B9234B1B784BB9224B586816F0ECFDD0
:103E8000214B00B2B3F90030984206DB224B02A965
:103E900041F8043D4046FFF793FE012211461046CB
:103EA0000EF042F918B9494602200BF043FD0021FB
:103EB000306816F09FFDE8B9012239463046FFF719
:103EC00051FF0124A8E7FFF79DFD1448FFF78EFD81
:103ED000002FA0D021462246092008F0ABFC214645
:103EE0000F480BF0F7F997E76FF382031370022383
:103EF0002B70AFE701248FE790120020761200208C
:103F00003C2100200C21002066060020C425002052
:103F1000781200208417002000004842AFCC02082D
:103F20001BCC0208002210B504461146904214BF73
:103F30000420022008F07EFCFFF764FD0448054BD6
:103F4000002C08BF1846BDE81040FFF74FBD00BF6A
:103F500058CC02087ACC02082DE9F84F89468346EE
:103F6000FFF7E0FF01214846FFF7BEFD244A254C3C
:103F70001368254F03F52F43C833236000232371B3
:103F8000032397F900A03B70012390461F4D2B702F
:103F90002B7883B300214846FFF7A6FD237933B37E
:103FA00000220A20114608F045FCFFF72BFD1848B7
:103FB000FFF71CFD2E781EB10120FFF7FDFBF9E78E
:103FC00030462660267111F0D5F83046FFF7CCFD5B
:103FD0005846FFF7A7FF0121D8F80030484603F5FF
:103FE0002F43C833236026712970FFF77DFD012020
:103FF000FFF7E2FBCCE787F800A0BDE8F88F00BF31
:10400000C0270020042100209D12002075120020EE
:1040100092CC02082DE9F043354C9946237887B0BD
:1040200006460F469046002B5FD00020314B1D798D
:104030001860187111F09EF865B92F4B1B784BB9B9
:104040002E4B586816F008FD2D4B00B2B3F9003026
:10405000984209DB01234246CDE9015300933946DA
:104060004B463046FFF7D0FD0022264D1146082072
:1040700008F0E0FB0021E86816F0C6FC30B1224BE6
:1040800005A905F10C000593FFF79AFD1F49204B88
:1040900005AA081F05930DF081FE1E4B05A91E48B9
:1040A00005930DF06FFEEB681C481D4A40F80C3F6D
:1040B000D3600FF0D9FB00220920114608F0BAFBAB
:1040C0002378013BDBB2237023B113F03DFB23784F
:1040D000013B2370134B93F90030022B01D10CF0FC
:1040E000EDF80BF0E1FA05F01FFD07B0BDE8F08335
:1040F00090120020042100203C2100200C210020EF
:104100006606002078120020000048427C12002041
:104110000000C8420000A040801200209417002038
:104120008417002068170020F8B50D4617461E4674
:10413000002800F09E805648FFF758FC582155484B
:10414000FFF7DDF95448FFF751FC544815F037FBF1
:104150000446002800F08B805148FFF747FC012CF3
:1041600000F083804F48504B022C18BF1846FFF7D1
:104170003DFC0A214748FFF7C2F9003418BF01246B
:104180001DB34348FFF732FC59214248FFF7B7F906
:104190004148FFF72BFC454815F011FB0546002868
:1041A0006BD03F48FFF722FC012D64D03D483E4BC9
:1041B000022D18BF1846FFF719FC002D18BF013457
:1041C0000A213448FFF79BF9E4B21FB33048FFF7E8
:1041D0000DFC5A212F48FFF792F92F48FFF706FCF4
:1041E000334815F0ECFA054600284AD02C48FFF772
:1041F000FDFB012D43D02B482B4B022D18BF184639
:10420000FFF7F4FB002D18BF01340A212148FFF706
:1042100076F9E4B216B31E48FFF7E8FB45211D48C6
:10422000FFF76DF91C48FFF7E1FB224815F0C7FACC
:10423000054650B31A48FFF7D9FB012D23D0194882
:10424000194B022D18BF1846FFF7D0FB002D18BFE1
:1042500001340A210F48FFF752F9E4B2BCB1BDE8BE
:10426000F840002114480BF035B814487FE70E4899
:104270007DE7044684E711489DE70B489BE70F481C
:10428000BEE70948BCE70D48DEE70748DCE7F8BDB4
:10429000CCCC02086C100020D5CC020844200020B1
:1042A000E5CC0208C8CC0208C0CC0208842000205B
:1042B000C420002004200020F1CC0208C3CC020856
:1042C0004138C3B2192B2DD8174A1068D84010F0C6
:1042D000010028D0154AD25C12B3154B19688B180F
:1042E0008A56A2F13001C9B2092906D92E2A08D16D
:1042F0005A78303A092A88BF00230E4A01201360F9
:1043000070472D2A01D02B2A0AD193F90110A1F16F
:104310003002D2B2092AF0D92E2901D19A78E8E7E1
:104320000023EAE700207047D4120020B6120020D4
:10433000B0120020D812002008B5FFF7C1FF20B14D
:10434000024B1868003018BF012008BDD8120020A9
:10435000034B186818B10A22002122F04FBD7047A4
:10436000D81200202DE9F74F4E4B05461B7803F07D
:104370000703072B70D00EF0E7FB0DF019FD0120AD
:104380000DF0F4FA5820FFF79BFF04465920FFF781
:1043900097FF80465A20FFF793FF81461DB9444599
:1043A00004D1844202D10124A046A1463E4E3F4F93
:1043B000B24697E80F0086E80F005220FFF7BCFFD7
:1043C00000286CD03A4B186850B30246934612F955
:1043D000016B36F020015ED0452E01D0652EF5D15F
:1043E00000218BF80010186822F028FC05468BF895
:1043F00000600021284616F0FDFA88B914B9B8F11A
:10440000000F17D0CAF808502946B86816F0FCFA11
:1044100030B1002302A941F8043D26480DF0B2FC5A
:1044200014B100200DF02CFEB8F1000F02D00120D5
:104430000DF026FEB9F1000F02D002200DF020FE93
:104440000DF00AFC0DF04AFA0DF0C6FC03221A4BDF
:104450001A700DF0D1FB14E04F20FFF76DFF98B1FB
:10446000134B1B686BB1FFF773FF002883DBFFF76B
:104470006FFFFF2805DCFFF76BFF10F0FF0F3FF425
:104480007AAF03B0BDE8F08F4F20FFF719FF002887
:104490003FF471AFF5E722F0D1FB0546A9E7074DE0
:1044A000ACE700BF76170020941700208417002087
:1044B000D81200209C170020140600200000204184
:1044C00038B50D4B1868A8B10246154612F9014BD4
:1044D00034F020010AD0452C01D0652CF5D1002103
:1044E0002970186822F0AAFB2C7038BDBDE838404E
:1044F00022F0A4BB0020F8E7D812002070B501F02C
:1045000091FA051E26DB4420FFF7DAFED8B1FFF74B
:10451000D7FF002106464FF0010416F06BFA08B1F0
:104520004FF000040C4B00211C70304616F062FA6C
:1045300048B9FFF7C5FF0021044616F05BFA074BA8
:1045400028B943F82540BDE870400EF051BA044A3E
:104550001A60F8E770BD00BFB5120020AC1E002045
:104560000000E03F10B501F05DFA002813DB0024E5
:10457000094B1857FFF7A4FE30B1FFF7A1FF16F063
:1045800091FA064B43F824000134042CF0D1BDE825
:1045900010400FF093B910BD06CD02081C1F00207B
:1045A00010B501F03FFA00280EDB0024074B185726
:1045B000FFF786FE28B1FFF783FF054B03EB84036B
:1045C00058620134042CF1D110BD00BF06CD0208A1
:1045D0001C1F002008B5214B214A1B681A423CD001
:1045E0004220FFF76DFE40B11E4B186818B10A2239
:1045F000002122F0BFFC1C4B18615320FFF760FE26
:1046000018B1FFF75DFF184B18645420FFF758FEF0
:1046100018B1FFF755FF144B58645820FFF750FEB0
:1046200018B1FFF74DFF114B18605920FFF748FEF6
:1046300018B1FFF745FF0D4B58605A20FFF740FEB9
:1046400018B1FFF73DFF094B98604520FFF738FE92
:1046500018B1FFF735FF054BD86008BDD412002014
:1046600012008C03D81200201C1F0020FC1E00200A
:1046700010B51D4B1B6813F4682F12D11B4C1C483E
:10468000616BFFF7F3F9A16B1A48FFF7EFF9E16BE4
:104690001948FFF7EBF9BDE810400A211748FBF76E
:1046A00049BF5320FFF748FE20B1FFF709FF0F4B2A
:1046B0005863D8635020FFF73FFE18B1FFF700FFA3
:1046C0000A4B58635220FFF737FE18B1FFF7F8FE88
:1046D000064B98635420FFF72FFE18B1FFF7F0FE4A
:1046E000024BD86310BD00BFD41200201C1F002055
:1046F0000ACD02081ACD02081DCD02086C10002058
:1047000008B5194B1B685B0304D5184B9A7C184BF2
:104710000AB91A6008BD1749096888188A56A2F1B3
:104720003001C9B2092905D92E2A0BD14278303A75
:10473000092A0BD80A220021186022F05FFB0E4BD9
:104740001880E7E72D2A03D02B2A01D00022E0E7CA
:1047500090F90110A1F13002D2B2092AEAD92E292A
:10476000F4D18278E3E700BFD4120020B612002013
:10477000D8120020B01200201C06002038B501F02D
:1047800051F9041E47DB2D4B2D4D1B6813F4802F70
:1047900004D02C4B9A7C2C4BCAB91A60FFF732F923
:1047A00045212A48FEF7ABFE04F130012748FEF709
:1047B000A6FE35F914102648FFF73CF925212348B9
:1047C000FEF79DFE0A212148FEF799FE23E02149CC
:1047D000096888188A56A2F13001C9B2092905D999
:1047E0002E2A19D14278303A092A19D80A220021F2
:1047F000186022F003FB00B225F8140015F012FF38
:10480000154915F063FF154B53F8241015F05EFFA2
:10481000134B43F8240038BD2D2A03D02B2A01D096
:104820000022BAE790F90110A1F13002D2B2092AB0
:10483000DCD92E29F4D18278D5E700BFD41200202C
:1048400048060020B6120020D81200206C1000206C
:1048500020CD0208B01200200AD7233CDC1E002025
:104860004C06002010B54520FFF72AFD002837D15F
:104870005020FFF725FD264C10B1FFF721FEE06028
:104880004920FFF71DFD28B1FFF71AFE214915F059
:104890001DFF20614420FFF713FD28B1FFF710FE34
:1048A0001C4915F0C7FF6061FFF7ACF8E1681A48D2
:1048B000FFF7DCF82069174915F0BCFF01461748DF
:1048C000FFF7D4F86069134915F000FF014614485A
:1048D000FFF7CCF8BDE810400A211248FBF72ABECA
:1048E000114B1B68002BC3D0FFF732FD0028BFDB44
:1048F000FFF72EFDFF2804DCFFF72AFD10F0FF0F65
:10490000B6D0FFF785F8BDE810400848FFF76EB84D
:104910000C2100200AD7233E28CD02082CCD020806
:1049200030CD02086C100020D812002034CD0208CF
:1049300070B55320FFF7C4FC0546F0B12F4B186843
:1049400000283AD00246164612F9014B34F02001F5
:1049500030D0452C01D0652CF5D10021317018687C
:1049600022F06CF9347016F077F8254B00B21880FD
:10497000B0FA80F0234B400918705020FFF7A0FCDC
:104980000446F0B11E4BB3F9003083B11B4B1B68DA
:104990006BB1FFF7DDFC002811DBFFF7D9FCFF2826
:1049A00005DCFFF7D5FCC0B2041C18BF0124154B71
:1049B0001C7070BD22F042F9D5E70020D3E7002437
:1049C000F5E7002DF5D1FFF71DF80F48FFF70EF8BA
:1049D0000C4B0E4A18780E4B002814BF1046184690
:1049E000FFF704F8064B0B48B3F90010FFF722F865
:1049F000BDE870400848FEF7F9BF00BFD81200209C
:104A0000660600203C2100204ACD020842ED020843
:104A100046CD02085DCD02086ECD020810B55020CB
:104A2000FFF74EFC1A4C10B1FFF74AFDE060492039
:104A3000FFF746FC28B1FFF743FD164915F046FE87
:104A400020614420FFF73CFC28B1FFF739FD1149F4
:104A500015F0F0FE6061FEF7D5FFE1680E48FFF744
:104A600005F820690B4915F0E5FE01460B48FEF7F5
:104A7000FDFF6069074915F029FE01460848FEF769
:104A8000F5FFBDE810400A210648FBF753BD00BF03
:104A9000582100200AD7233E28CD02082CCD020839
:104AA00030CD02086C10002010B5C0B1FEF7AAFF8F
:104AB0000D4C0E486169FEF7D9FFA1690C48FEF75D
:104AC000D5FFE1690B48FEF7D1FF216A0A48FEF7DE
:104AD000CDFFBDE810400A210848FBF72BBD20217F
:104AE0000648FBF727FDE3E71C1F002072CD0208F4
:104AF00095E70208A1E70208D8EC02086C10002034
:104B00002DE9F04100F08EFF011E4ADB264B274ABB
:104B10001B681A4204D1BDE8F0410120FFF7C4BF71
:104B20000025234B5857FFF7CBFB68B3214B1B687D
:104B300053B3032D204C2ED1FFF7C2FC1F4907466B
:104B400015F062FFF8B13946206A15F073FEDFF800
:104B5000708006460146D8F80C0015F0B7FD3146C6
:104B6000C8F80C00206B15F0B1FDDFF85880206309
:104B7000D8F80C0015F052FD314615F0A7FD15F0E0
:104B800091FFC8F80C0027620135042DC9D1BDE89A
:104B9000F0410EF0B7BEFFF793FC04EB85046061B3
:104BA000F2E7BDE8F08100BFD412002010008003BE
:104BB00079CD0208D81200201C1F00200000A0415F
:104BC000FC1E0020EC1E00200023024A1370024A43
:104BD0001370704775120020F40500200020FEF7C6
:104BE00047BDFEF7A9BC000070B55320FFF768FB76
:104BF000204D28B15320FFF763FB20BB0020287015
:104C0000FEF700FF1C48FEF7F1FE2B786BB3002483
:104C100023462A78E240D2070CD55E1CF6B21BB1BF
:104C20002C211648FBF786FC154B53F82400FEF7A1
:104C3000DDFE33460134052CEBD1BDE870400A217E
:104C40000E48FBF777BC0F4B1B68002BD6D0FFF745
:104C50007FFB0028D2DBFFF77BFBFF2803DCFFF79D
:104C600077FBC0B2CBE7FF20C9E70748FEF7BEFEDF
:104C7000E3E700BF761200207DCD02086C10002013
:104C8000B0CD0208D812002084CD020801200CF01B
:104C900047BE00200CF044BE08B5002103480AF0CE
:104CA00019FBBDE80840FEF753BC00BFC4CD0208A5
:104CB00038B55320FFF704FBF0B13A4B1868D8B170
:104CC0000246154612F9014B34F0200111D0452C53
:104CD00001D0652CF5D100212970186821F0AEFFB4
:104CE0002C70314915F0F2FC15F0DCFE2F4B1860EA
:104CF00038BD21F0A3FFF4E75820FFF7E1FA78B9B7
:104D00005920FFF7DDFA58B95A20FFF7D9FA38B918
:104D10004520FFF7D5FA18B9BDE838400DF0EEBED2
:104D20000DF012FF5820FFF7CBFA68B1204BD3F8F3
:104D3000802093F88C10012312688B4013611D4A68
:104D4000137823F0010313705920FFF7B9FA68B103
:104D5000174BD3F8102193F81C11012312688B40D4
:104D60001361144A137823F0020313705A20FFF7DB
:104D7000A7FA68B10E4BD3F8202293F82C12012326
:104D800012688B4013610B4A137823F004031370ED
:104D90004520FFF795FA0028AAD0BDE83840FEF775
:104DA000FFBB00BFD812002000007A44F0050020AD
:104DB00000C602087717002038B5FEF723FE4248E8
:104DC000FEF714FE414B424C1B6813F4802F1CD09D
:104DD000404B997C404B11B91960012014E03F4AC7
:104DE000106842184156A1F13000C0B2092805D917
:104DF0002E294BD15178303909294BD81A60FFF749
:104E0000A7FA002854DA00202070354D2078354C60
:104E1000FEF74CFE3448FEF7E9FD2968206815F0DE
:104E20004DFB01463148FEF721FE6968A06815F088
:104E300045FB01462E48FEF719FEA968206915F0CA
:104E40003DFB01462B48FEF711FE2B48FEF7CEFD39
:104E50002968606815F032FB01462448FEF706FE1B
:104E60006968E06815F02AFB01462148FEF7FEFD5F
:104E7000A968606915F022FB01461E48FEF7F6FDA1
:104E8000BDE838400A211D48FBF754BB2D2904D04A
:104E90002B2902D000221A609FE792F90100A0F1AD
:104EA0003001C9B20929A9D92E28F3D19178A2E7F6
:104EB000FFF74EFAFF2890DCFFF74AFAC0B2003045
:104EC00018BF0120A0E700BFD5CD0208D4120020F2
:104ED00038060020B6120020D8120020B0120020A0
:104EE000C017002020060020E5CD02086EEB020866
:104EF00095E70208A1E70208EDCD02086C1000203A
:104F000010B50C46FFF7DCF938B1054B186820B135
:104F10000A22002121F072FF04B2204610BD00BF1A
:104F2000D812002038B55020FFF7CAF998B30021F5
:104F30005020FFF7E5FF4FF0FF3105465320FFF704
:104F4000DFFF431C022B044625D868B2002822DB71
:104F5000FEF7DAFA18B1BDE83840FEF7E3BAEDB271
:104F60000DF0F2FD02212846FEF730F8621C0BD04E
:104F7000631E5C425C412846FEF79EF8A0420AD0C0
:104F80000020FEF719FCF6E72846FEF795F8B0FA80
:104F900080F46409EFE738BD0DF0D6BD08B5FFF722
:104FA000D7F9002807DBFFF7D3F9FF2805DCFFF767
:104FB000CFF9C0B208BD0020FCE7FF20FAE70000EF
:104FC00070B55320FFF7B8F9B0B3FFF7E7FF054618
:104FD0005020FFF7B1F978B3FFF7BAF9030404469C
:104FE0002AD446B24920FFF7A7F968B1144B1B68D1
:104FF0007BB1FFF7D3FF60B93046FEF785FA40B1C9
:10500000BDE87040FEF78EBA4920FFF759F9002835
:10501000F2D0E4B200212046FDF7D8FF2946204611
:10502000FEF75EF829463046FEF7F4F8102E04D05D
:10503000282E01D1034B1D7070BD024B5D70FBE744
:10504000D81200207021002008B510F005F90BF0EF
:10505000DDF80DF053FD002108460FF07BFD002127
:1050600001200FF077FD4FF47A70FEF72BFDBDE8BD
:105070000840002101480AF02DB900BFF5CD020813
:1050800038B5244B1B685B030CD5234B9A7C234B10
:105090004AB900201A60224915F018FB15F002FDEC
:1050A000204B186038BD2049096888188A56A2F13B
:1050B0003001C9B2092905D92E2A16D14278303AD1
:1050C000092A16D802461860154612F9014B34F029
:1050D00020011BD0452C01D0652CF5D10021297071
:1050E000186821F0ABFD2C70D5E72D2A03D02B2AB0
:1050F00001D00022CDE790F90110A1F13002D2B227
:10510000092ADFD92E29F4D18278D8E721F096FD3B
:10511000C1E700BFD4120020B6120020D812002030
:1051200000007A4470120020B0120020012208B55D
:10513000114B53201A700022104B1A70FFF7C0F861
:10514000A0B10F4B1B688BB1FFF702F9002803DAFF
:10515000BDE8084001F00CBFFFF7FAF8FF2804DCB7
:10516000FFF7F6F810F0FF0FF2D008BD5320FFF75D
:10517000A7F80028ECD0F8E7ED050020D7160020AE
:10518000D8120020002111F09DB80BF0F9B80CF0F6
:1051900097BB0BF089BB000010B55320FFF790F8C8
:1051A0000446A8B10E4B1B6893B1FFF7D1F8002855
:1051B00013DBFFF7CDF8FF2805DCFFF7C9F8C0B215
:1051C000041C18BF01242046BDE810400BF01CBC95
:1051D0005320FFF775F80124F5E70024F3E700BF3B
:1051E000D812002008B50CF05FFB30B1FEF70AFCC6
:1051F000BDE808400148FEF7F9BB08BD05CE02082E
:1052000070B5304B1B685B0504D52F4B9A7A2F4B3A
:105210006AB91A60FEF7F6FB2D4B2E481968FEF7A7
:1052200025FCBDE870400A212B48FBF783B92B49C8
:10523000096888188A56A2F13001C9B2092905D92E
:105240002E2A25D14278303A092A25D802461860FC
:10525000164612F9014B34F020012AD0452C01D01A
:10526000652CF5D100213170186821F0E7FC054666
:1052700034700021284615F0DBFBF0B118492846B0
:1052800015F0CCFBC8B10DF05FFC114B1D6070BD7B
:105290002D2A03D02B2A01D00022BAE790F9011061
:1052A000A1F13002D2B2092AD0D92E29F4D18278C4
:1052B000C9E721F0C3FC0546DBE70A48BDE87040BA
:1052C000FEF794BBD4120020B6120020D8120020A2
:1052D000D41E00202FCE02086C100020B012002037
:1052E0000000204110CE02081FB5012211461046D1
:1052F0000CF01AFF014670B9204B1B681B040CD43C
:1053000000201F4B01A901931E4BC0B202931E4BFC
:1053100003930AF00FFB04B010BD1C4BDA7B1C4B4F
:105320000AB91A60ECE71B480468A018A256A2F15B
:105330003004E4B2092C1AD92E2A05D14278303A29
:10534000092A14D91960DBE72D2A01D02B2AF9D1BB
:1053500090F90110A1F13002D2B2092A07D92E2901
:1053600001D00022DDE78278303A092AF9D80A22F2
:105370000021186021F042FD80B2C2E7D412002063
:1053800000002041000061430000A041B61200204F
:10539000D8120020B012002010B50C46FEF7CCFF4A
:1053A00010B1FFF78DF80446204610BD30B5464BCE
:1053B00089B00593454D464B0795069300F032FBA7
:1053C000021E74DB0121D2B2084607F033FA4520F1
:1053D000FEF776FF00286CD0FFF772F80021044634
:1053E00015F026FB08B904F1004404F100445A20EA
:1053F0000094FEF7A1FF20B100215A20FFF7CCFF57
:1054000007905820FEF798FF20B100215820FFF7A1
:10541000C3FF05905920FEF78FFF20B100215920CE
:10542000FFF7BAFF06905520FEF74AFF002843D049
:10543000FFF746F804460021204615F0F9FA08B9AE
:1054400004F10044002304F100444C200194029331
:10545000FEF736FF002832D0FFF732F8044600216D
:10546000204615F0E5FA08B904F1004442200394FF
:10547000FEF762FF30B3174B186818B10A220021FB
:1054800021F0BCFC04B2012301AA05A96846FEF77D
:10549000B9FC60B164B221460120FEF75DFD08AAA7
:1054A00042F8105D234603A902A8FEF7B3FD09B038
:1054B00030BD4FF0804498E7074B1C68BBE7064BB4
:1054C0005C68CCE70324DEE7000020410000A04137
:1054D00000006143D81200209412002038B500F07B
:1054E000A1FA051E20DB5520FEF7EAFE58B1FEF7B3
:1054F000E7FF0021044615F09BFA08B904F10044C7
:105500000A4B43F835404C20FEF7DAFE60B1FEF757
:10551000D7FF0021044615F08BFA08B904F10044C6
:10552000024800EBC500446038BD00BF9412002063
:10553000F0B589B000F076FA071E7EDB5A20FEF740
:10554000FBFE434E0024002879D05A20FEF7F4FEDB
:10555000002876D0FEF7B4FF054602210520FAB2F6
:1055600007F068F90021284615F06CFA88B1394B2C
:105570002846996814F0A2FF3749074615F044FA07
:1055800000B9354F354B07A906A8069707930CF0CD
:10559000F9FB4C200494FEF793FE002853D0FEF74D
:1055A0008FFF04460021204615F042FA08B904F1A5
:1055B000004405942A4C0796B4F90800032845DDF9
:1055C00015F030F80146606814F076FF00210646B9
:1055D00015F02EFA08B906F10046224930464FF080
:1055E000010415F02FFA00B90446E4B20223CDE914
:1055F0000143012305A9009307AA032304A8FEF78A
:1056000003FB0021284615F01DFA88B1114B2946ED
:10561000986814F051FF0021044615F013FA00B900
:1056200000240E4B07A906A8069407930CF0AAFBCA
:1056300000220920114607F0FDF809B0F0BD3546FB
:105640008BE7254689E7084B5C68ABE70024CDE78C
:105650000000A0418417002000007A430000A04011
:105660000C210020000040409412002073B500F08F
:10567000D9F9041E5BDB5A20FEF75EFE002858D0E5
:105680005A20FEF759FE002855D0FEF719FF0546AF
:105690000321E2B2084607F0CDF80021284615F0B4
:1056A000D1F988B1274B2846996814F007FF26499D
:1056B000064615F0A9F900B9234E244B01A9684606
:1056C000009601930CF05EFB5520FEF7F9FD0028D3
:1056D00033D0FEF7F5FE04460021204615F0A8F968
:1056E00008B904F10044012104F10044032201A897
:1056F0000194FEF737FB0021284615F0A3F988B185
:10570000104B2946986814F0D7FE0021044615F086
:1057100099F900B900240D4B01A968460094019342
:105720000CF030FB00220920114607F083F802B08C
:1057300070BD074DACE70025AAE7064B53F834408F
:10574000CAE700BF8417002000007A430000A04091
:105750000000A0419412002037B5002401250194D7
:10576000114B1857FEF7ACFD18B10122002501AB13
:10577000E2540134042CF3D145B101238DF80430F7
:105780008DF805308DF806308DF807309DF807301C
:105790009DF806209DF805109DF8040003B0BDE8B3
:1057A0003040FEF7C1BC00BF3ACE02082DE9F041FF
:1057B0005320FEF785FD054600283CD0474E326851
:1057C00022B1FFF7EBFB051C18BF012500F02AF9F9
:1057D00080464920FEF774FD18B1346814B1FFF714
:1057E000DDFB044600263E4BF7B29857FEF768FDF6
:1057F00070B1022F15D0032F17D0012F0DD03CB957
:10580000384885F0010180F83C50C9B213F0DBFC48
:105810000136042EE7D1BDE8F081002CF8D13248E2
:10582000EFE7002CF4D13148EBE7B8F1000FF2DBE1
:10583000EED12F48E5E758212E48FDF760FE2E48AF
:10584000FEF7D4F8274813F0C9FC2C4D2C4C002847
:105850000CBF28462046FEF7C9F80A212548FDF767
:105860004EFE59212348FDF74AFE2348FEF7BEF8B5
:105870001D4813F0B3FC00280CBF28462046FEF755
:10588000B5F80A211B48FDF73AFE5A211948FDF7E1
:1058900036FE1948FEF7AAF8144813F09FFC0028BA
:1058A0000CBF28462046FEF7A1F80A211148FDF753
:1058B00026FE45210F48FDF722FE0F48FEF796F819
:1058C0000B4813F08BFC00280CBF28462046FEF73F
:1058D0008DF80A210748FDF712FE9CE7D812002038
:1058E0003ECE02084420002084200020C420002056
:1058F000042000206C1000205ACE020842CE02087C
:105900004ECE02082DE9F0414920FEF715FDF8B909
:105910000026002701253C4B5FFA87F8D857FEF791
:105920000BFD10B1FEF714FD00B284B284B3B8F1E0
:10593000020F1FD0B8F1030F20D0B8F1010F15D01E
:1059400026B932484487214613F0C2FE00251FE0E5
:10595000FEF7FEFC0028DBDBFEF7FAFCFF2803DC89
:10596000FEF7F6FCC6B2D4E7FF26D2E7002EEDD153
:105970002748E7E7002EE9D12648E3E700F052F890
:10598000051E3EDBE2D124482146448713F0A0FEE9
:105990000137042FBFD1002D33D058211F48FDF708
:1059A000AEFD1A4B1E48598FFEF744F80A211B48DA
:1059B000FDF7A5FD59211948FDF7A1FD144B184825
:1059C000598FFEF737F80A211448FDF798FD5A2140
:1059D0001248FDF794FD0F4B1148598FFEF72AF836
:1059E0000A210E48FDF78BFD45210C48FDF787FD88
:1059F000094B0B48598FFEF71DF80A210748FDF7A0
:105A00007EFDBDE8F08100BF69CE02084420002081
:105A100084200020C4200020042000206C100020DE
:105A20006DCE020810B55420FEF786FC48B3FEF791
:105A30008FFC002821DBFEF78BFCFF281FDCFEF724
:105A400087FCC0B244B2002C15DDFDF7DBFF4D2111
:105A50000D48FDF754FD0D4B0A2219680A48FAF764
:105A6000F3FE21460A48FDF7E5FF0A210648FDF747
:105A700046FD4FF0FF34204610BD0020E2E7FF2036
:105A8000E0E70446F7E700BF6C100020D0120020CA
:105A9000C4CE020870B500241C4BA5001857FEF7B1
:105AA0004BFC1B4E58B3FEF70BFD1A4A0346A25C93
:105AB00012B9194A1278DAB1184A1846515914F035
:105AC000FDFC034673510134042CE5D14620FEF75A
:105AD00033FC60B1FEF7F4FC002114F0B3FF30B1E9
