:020000040800F2
:1000000000C00020A5030008010E0008050E00082E
:10001000090E00080D0E0008110E0008FF1400085C
:10002000FF140008FF140008FF140008FF14000864
:10003000FF140008FF140008FF1400081115000841
:10004000FF140008FF140008FF140008FF14000844
:10005000FF140008FF140008550E0008750E000874
:10006000950E0008B50E0008D50E0008A10C00087A
:10007000B90C0008D10C0008ED0C0008090D0008AF
:10008000250D0008410D0008AD0A0008FF14000806
:1000900089200008FF140008FF140008F50E00086E
:1000A000F5170008191800083D1800087518000811
:1000B000C918000839190008A91900080D1200080C
:1000C000251200081912000831120008FF14000858
:1000D000FF140008F51D0008451E0008951E0008C5
:1000E000390F0008FF140008FF140008D11A000897
:1000F000F51A0008191B0008511B0008050B000821
:10010000FF140008FF140008191A0008FF14000863
:10011000E51E0008351F0008891A0008AD1A0008FE
:100120005D0D0008750D00088D0D0008A90D000873
:1001300010B5054C237833B9044B13B10448AFF321
:1001400000800123237010BD70100020000000000B
:100150009805030808B5034B1BB103490348AFF3E7
:10016000008008BD000000007410002098050308FE
:1001700010B512490A2309220968114800F0EAF96A
:1001800010490323022209680F4800F0E3F90F49E0
:100190001B231A2209680E4800F0DCF90D492B23B5
:1001A0002A2209680C4800F0D5F9BDE810400B4937
:1001B00032232C2209680A4800F0CCB984020020BE
:1001C0008C10002088020020A41000208C02002047
:1001D000BC1000207C020020D410002080020020EF
:1001E000EC10002010B5044600F0E2FC034B204662
:1001F000BDE81040197800F043BC00BF1600002095
:10020000F8B50446056801F0DFF9002223685B01B8
:1002100003F184431A6080232B600123AB622A61BF
:10022000EA606B61637973B1012B0FD001222368FF
:100230005B0103F18443C3F8802223685B0103F16F
:1002400084431A60F8BD4FF400436B644FF6FF72AD
:1002500000252368DA626E1CF7B23946204601F0A9
:10026000C8F9E8B148F6FF72236817F0010F03F1EF
:10027000340343F8252014BF6FF0FF026FF47F4270
:1002800023684FEA650503F1180353F8251001EAC6
:10029000020114BF68224FF4D0420A4343F82520DC
:1002A000042E3546D7D1C1E77047000038B5002588
:1002B000264A274C1368022043F01003136000F015
:1002C0005DFE002001F010F865602368182023F41B
:1002D0000023236001F014F8102001F011F800F061
:1002E00043F8A560102000F0FFFF102001F016F881
:1002F0000028FAD000F039F8164801F01BF8182051
:1003000000F0F2FF182001F009F80028FAD00220CE
:1003100000F0DAFF00214FF0006000F0B9FF0E4856
:1003200001F0EEF800F038F80C4B188800F028FCCB
:100330000B4800F029FC0B4801F020F900F02EF8E2
:1003400000F02DF8FFF7B0FF38BD00BF00200240DD
:10035000001002400C0000203F1901001400002092
:10036000E5010008010200087047002108B50846B1
:1003700001F020F84FF48061012001F01BF800210A
:10038000022001F017F82D2001F024F8BDE8084004
:100390000021032001F00EB800F004BE704700F009
:1003A00040BE000001498D460149084700C00020B9
:1003B000B503000808B5114B1A68114B9A4213D1C6
:1003C000104B114A934213D329F0B4F9002211467D
:1003D000104602F0A9FD0D4B7BB128F047FF52F803
:1003E000041B043343F8041C09498B42F7D3E7E7A5
:1003F0000022043343F8042CE3E7FEE770620308AD
:100400000000002070100020382900206D920208A2
:100410007010002010B50D4B1A680AB90C4A1A600A
:100420001A680C49891A814204DB09494442511A6D
:10043000A14207DA28F014FF0C234FF0FF320360CB
:10044000104610BD10441860FAE700BF04110020E8
:100450003829002008D80328002070474FF40053A3
:1004600000204B607047012070474FF0FF3070470D
:100470000020704710B50C46FFF7FAFF20700120EE
:1004800010BD704770B515460C468E18B44201D1A8
:10049000284670BD14F8010BFFF7F3FFF6E7FEE7FF
:1004A000C38882889B1AC2888188914282BF028950
:1004B00001329B1898B2704710B50369044658681A
:1004C000FFF7EEFF88B123695B689A88196892B2DA
:1004D000885C99881A89C0B292B28A420FBF002202
:1004E0009A88013292B29A8010BD4FF0FF30FBE73C
:1004F00008B503695868FFF7D3FF08BD03695B6857
:100500009988DA8892B28A421FBF9A881B6892B291
:10051000985C14BFC0B24FF0FF3070470269916819
:100520008888CB889BB28342FAD1126813685B0635
:10053000FCD5704713B504698DF8071001220DF141
:100540000701204601F079FB0028F7D0012002B016
:1005500010BD000030B54FF0000C4FF47A75C0E9C3
:1005600001C5034D016105600275437530BD00BFD3
:10057000401B03082DE9F74303690446DB688846FE
:100580008B42914625D3067D134D3601AB19477D2D
:10059000586818B10022597B01F0E2F8206901F097
:1005A00001FB39016A18127BAB19CDF804901B7B53
:1005B000695800932069AB5901F0BBFB20694246A2
:1005C000002101F0DCFB206903B0BDE8F04301F03D
:1005D0000FBB03B0BDE8F083081803080022FFF743
:1005E000C9BF0000044B02791B789A4202BF034B3B
:1005F0001B681860704700BF281100202C110020D4
:10060000002310B50446036072B6054B193119700A
:10061000044B1860044800F0B1FF62B6204610BDDC
:10062000281100202C110020E50500080022036895
:100630001B685B0103F184431A6070470122036861
:100640001B685B0103F184431A607047036801393A
:100650001B6889B29962704703681A68D36A9BB2B3
:10066000994228BF19465162704738B561B90122D5
:1006700003681B68996203681B68DA6203681B6879
:10068000DC6AA4B2204638BD48224A434FF6FF71C7
:10069000B2FBF1F1013189B202EB5102B2FBF1F28E
:1006A00094B2FFF7D3FF036892B21B68DA62E9E7FE
:1006B000012203681B685B0103F18443C3F88022B5
:1006C0007047000008B501211048FFF799FF02218B
:1006D0000F48FFF795FF03210E48FFF791FF042114
:1006E0000D48FFF78DFF05210C48FFF789FF062114
:1006F0000B48FFF785FF07210A48FFF781FFBDE898
:10070000084008210848FFF77BBF00BF0811002000
:100710000C110020101100201411002018110020CD
:100720001C1100202011002024110020F8B50646DD
:100730000C4615468F18A74206D0336814F8011BE3
:100740001B6830469847F6E72846F8BD70B5054661
:100750000C46084649B12AF0A9F82B680246214602
:100760002846BDE870409B68184770BD0368C9B251
:100770001B68184703685B68184738B50D210546A4
:10078000FFF7F4FF0A2104462846FFF7EFFF204455
:1007900038BD38B50546FFF7EDFF04462846FFF79C
:1007A000ECFF204438BD2DE970439046994690B047
:1007B00058EA090306469DF8585007D13021FFF743
:1007C000D5FF0125284610B0BDE8708300244046BF
:1007D00049462A4600231FF011FC80468946013411
:1007E0000DEB040303F8012C58EA0903EFD10025AF
:1007F000013C1DF804103046092994BF30313731CF
:1008000049B2FFF7B3FF0544002CF1D1DAE72DE937
:10081000F0411D46002A75F1000307461446069E66
:1008200005DA2D21FFF7A2FF644265EB4505F6B21C
:10083000069622462B463846BDE8F041FFF7B3BF87
:1008400007B5CB1700920A46FFF7E1FF03B05DF84A
:1008500004FB38B50546FFF7F3FF04462846FFF7CB
:100860008CFF204438BD07B5CB1700920A46FFF72E
:10087000CEFF03B05DF804FB37B5CB1700920A46F4
:100880000546FFF7C4FF04462846FFF776FF2044DD
:1008900003B030BD07B5D2B200920023CAB2FFF751
:1008A00082FF03B05DF804FB07B5D2B200920023CB
:1008B0000A46FFF778FF03B05DF804FB37B5D2B204
:1008C000009200230A460546FFF76DFF04462846BE
:1008D000FFF753FF204403B030BD000000000000CC
:1008E0002DE9F34717461E4682460022002338466C
:1008F00031461EF061FF9DF828504FF00104F8B119
:1009000043A3D3E90023384631461EF04BFF00B91C
:100910000446E4B20022002338463146C4B11EF03A
:100920002DFF18B12D215046FFF720FF04463C490A
:100930005046FFF71FFF0444204602B0BDE8F08791
:1009400035A3D3E90023384631461EF021FFDEE708
:100950001EF014FF30B12D215046FFF707FF04466B
:1009600006F100464FF0000800202E495FFA88F398
:100970009D4206D900222C4B1EF0B8FD08F101085B
:10098000F4E73A4633461EF0D1FA06460F461FF00A
:100990004DFB0A230246009380460B46504689468B
:1009A000FFF735FF0444002DC6D0404649461EF0EF
:1009B00045FC02460B46304639461EF0B5FA06465F
:1009C0000F4650461949FFF7D5FE0444013DEDB2EC
:1009D000FF2DB1D0144B0022304639461EF05CFC8E
:1009E0000F4606461EF0F2FE0A2201468046504699
:1009F000FFF726FF044440461EF0E4FB02460B4688
:100A0000304639461EF090FA06460F46DEE700BF34
:100A1000800350726C92DF43800350726C92DFC38C
:100A20005C1B03080000E03F00002440823E0308F6
:100A30009DF800100091FFF753BF37B59DF81810CF
:100A400005460091FFF74CFF04462846FFF795FE48
:100A5000204403B030BDFEE7704710B5044600796E
:100A600000F076FC2079BDE8104000F089BC0268F7
:100A700041F48011936823F4602319439160704717
:100A8000002330B51C461D4603EB4302072B01FA39
:100A900002F203F10103D8BF15430A2B44EA020412
:100AA000F2D10368DD6003681C6130BD70B5144C81
:100AB00023681B681D68A90707D51A6822F002027F
:100AC0001A6023689B6803B198476A0709D52368B1
:100AD0001A68136823F00403136023681B6903B1C9
:100AE0009847EB070BD523681A68136823F00103B6
:100AF00013602368DB6813B1BDE87040184770BD10
:100B00001C00002070B5144C23681B681D68A907E1
:100B100007D51A6822F002021A6023689B6803B1A5
:100B200098476A0709D523681A68136823F00403F5
:100B3000136023681B6903B19847EB070BD5236843
:100B40001A68136823F0010313602368DB6813B18C
:100B5000BDE87040184770BD2400002001220368E2
:100B60005B0103F1844303F58673191F1A6018684B
:100B70000028FCD143F8042C0B68002BFCD17047F3
:100B80000146042000F016BC10B50446054B186859
:100B9000A047054B1868A047044B18682346BDE8DA
:100BA000104018471C0000202000002024000020D6
:100BB00010B50446FFF751FF20464FF46021FFF7C0
:100BC00056FF0122236820465B0103F18443C3F8EA
:100BD000502123685B0103F18443C3F80021BDE881
:100BE0001040FFF7BBBF007900F0B2BB14230139FE
:100BF000594300680830435823F4405343EA023213
:100C000042507047036814200833013900FB01315A
:100C10004A60704700EBC10340F8312093F904307B
:100C2000002B08DB0122591103F01F0302FA03F322
:100C3000014A42F82130704700E100E014220368C5
:100C4000013902FB01310123490101F18441C1F85D
:100C50000031704714220368013902FB013100237F
:100C6000490101F18441C1F8003170472DE9F0419B
:100C700014251C4690464B1E5D430668FFF7EAFFAD
:100C80009DF81C30240244EA8324089B08361C4348
:100C9000069B77197451FB60C7F80880BDE8F081A6
:100CA00010B5044B1C68A3681BB198470122236848
:100CB0005A6010BD6000002010B5044B1C68236909
:100CC0001BB19847102223685A6010BD60000020B5
:100CD00010B5054B1C68A36923B198474FF4807287
:100CE00023685A6010BD00BF6000002010B5054B9E
:100CF0001C68236A23B198474FF4805223685A60D6
:100D000010BD00BF6000002010B5054B1C68A36A31
:100D100023B198474FF4803223685A6010BD00BF5A
:100D20006000002010B5054B1C68236B23B1984769
:100D30004FF4801223685A6010BD00BF600000208D
:100D400010B5054B1C68A36B23B198474FF0807218
:100D500023685A6010BD00BF6000002010B5044B2E
:100D60001C68A3681BB19847012223685A6010BD14
:100D70006400002010B5044B1C6823691BB1984720
:100D8000102223685A6010BD6400002010B5054B86
:100D90001C68A36923B198474FF4807223685A6096
:100DA00010BD00BF6400002038B5104C636CD8073C
:100DB0000BD52368D90408D50D4B1D682B6A23B1C8
:100DC00098474FF480522B685A60A36DDA070BD511
:100DD0002368DB0308D5064B1C68A36A23B1984738
:100DE0004FF4803223685A6038BD00BF00040240CF
:100DF000640000200000000000000000000000006F
:100E0000012007E0022005E0032003E0042001E0C8
:100E10000520FFE70D4A0121116072B60C4A00213E
:100E20001160074902B4084902B486B005498E46EC
:100E3000704700BFAFF30080AFF30080AFF30080D6
:100E400000000061F9FFFFFFF52E000814ED00E03F
:100E500010E000E008B5054A136833B150689847C0
:100E60000122034B5A6100BF00BF08BD30110020B2
:100E70000004014008B5054A936833B1D06898472B
:100E80000222034B5A6100BF00BF08BD3011002091
:100E90000004014008B5054A136933B15069984709
:100EA0000422034B5A6100BF00BF08BD301100206F
:100EB0000004014008B5054A936933B1D0699847E9
:100EC0000822034B5A6100BF00BF08BD301100204B
:100ED0000004014008B5054A136A33B1506A9847C7
:100EE0001022034B5A6100BF00BF08BD3011002023
:100EF000000401402DE9F041002705240C4DD5F8F0
:100F000014800126A64018EA060F08D0094BE1001C
:100F100053F834201AB10B445868904737430134D2
:100F20000A2CEED16F6100BF00BFBDE8F08100BFA9
:100F300000040140301100202DE9F04100270A246F
:100F40000C4DD5F814800126A64018EA060F08D0EB
:100F5000094BE10053F834201AB10B44586890470C
:100F600037430134102CEED16F6100BF00BFBDE8E4
:100F7000F08100BF0004014030110020034A1368D3
:100F800023F0070318431060704700BF00200240A1
:100F900010B50446007900F0DBF92079BDE8104077
:100FA00000F0EEB908B50748FFF7F2FF0648FFF773
:100FB000EFFF0648FFF7ECFFBDE808400448FFF7E5
:100FC000E7BF00BFD8000020E0000020E8000020BC
:100FD000F000002070B50F250368CE0801F007006F
:100FE000840053F82600092A05FA04F520EA0505CD
:100FF00014BF10460820A0402843082A43F82600C2
:1010000007D10120DA6800FA01F122EA0101D96072
:1010100070BD092AFCD10122D86802FA01F101430E
:10102000F5E708B5032000F093F9BDE80840032078
:1010300000F0A6B903681A6812F4985FFBD11A6829
:1010400042F480721A60704703681A6812F4985F5D
:10105000FBD11A6842F400721A600268136813F434
:10106000985FFBD17047000070B502684568516910
:1010700092695A4AAE781268CB07044606F0010618
:10108000C26014D50023EB8000F0D8F822685368C2
:1010900043F48063536026B12268136843F480638D
:1010A000136000212B88226846EA4303136111F084
:1010B0000A0F10D0AB88002E45D0012B0AD1226830
:1010C0002046136823F480631360A38B012B37D968
:1010D000FFF7B0FF002101F08402802A03D1A38B27
:1010E000002B49D1002101F08402842A0DD1A18B6B
:1010F0002046002954D0FFF79DFF22685369D90785
:10110000FCD5002163680C3363604B0661D523680E
:10111000AA681969EB88581CE880D154AB88EA8822
:10112000591E8A424BD122682046136823F48063FB
:101130001360A38B022B3ED9BDE87040FFF77ABF46
:10114000FFF782FFC6E7012B08D9EB88A9685A1C74
:10115000EA802268CB5C13613146BCE7002BFBD1EF
:101160002046FFF771FF2268536823F40073536031
:10117000022384F82330ADE7EB88A9685A1CEA8083
:101180002268CB5C1361EA88AB889A42AAD12268B4
:10119000536823F480635360A38B013BA383A1E7CF
:1011A000FFF752FF2268536823F400735360022351
:1011B00084F82330A9E7BDE87040FFF745BF9A42A5
:1011C00007D1A38B013B9BB2A3831BB9022384F8F5
:1011D000233070BD63680C336360FAE7D0280020C9
:1011E00008B50268536903F4706383600023536198
:1011F00002689361FFF728FF0268536823F4E063F5
:101200005360FF2380F8233008BD00000148FFF73A
:101210002BBF00BFF80000200148FFF725BF00BF2B
:101220001C0100200148FFF7DBBF00BFF8000020D1
:101230000148FFF7D5BF00BF1C01002010B50446D0
:10124000002190F9210000F00FF894F9220000210C
:10125000BDE8104000F008B84AF6AA22014B1A6017
:10126000704700BF003000400028A8BF00F1604078
:101270004FEA0111B8BF054BC9B2B5BF00F00F006E
:1012800000F56140195480F80013704714ED00E038
:1012900010B5002421F0604121F07F01064A01438E
:1012A000916060B20F210134FFF7DEFF3C2CF8D1D2
:1012B000F02382F8233010BD00ED00E0014B13F85D
:1012C00010007047881B0308064B5A6822F003027F
:1012D00002435A6080005A6802F00C028242FAD13E
:1012E000704700BF00100240030AC2B2012003F1A0
:1012F000804303F504331968904008431860704731
:101300000121030A03F1804303F504331A68C0B2D4
:1013100001FA00F022EA000018607047030A03F1A6
:10132000804303F504331A680223C0B203FA00F0C5
:1013300010407047054A0168536823F474130B4347
:10134000416809680B435360704700BF00100240BA
:1013500010B50446FFF7B2FF074B53F820200748AB
:1013600000EB4400437803EBC20301229B0003F12E
:1013700084431A6010BD00BF40010020881B030891
:1013800010B50446FFF79AFF084B53F82020084891
:1013900000EB4400437803EBC20301229B0003F1FE
:1013A00084431A6000221A6010BD00BF580100205B
:1013B000881B030810B5054A054C536854F82000F3
:1013C00023EA00030B43536010BD00BF001002402E
:1013D000741B030810B50446FFF770FF074B53F862
:1013E0002020074800EB4400437803EBC2030022AF
:1013F0009B0003F184431A6010BD00BF4C01002024
:10140000881B030801EBC000800000F184400260EB
:10141000704710B504460079FFF79AFF2079BDE8C0
:101420001040FFF7ADBF012206210068FFF7EABFB9
:10143000002206210068FFF7E5BF10B50C460168E1
:1014400003464A6822F0E0024A600268126862407D
:1014500012F4205F01D0FFF7EBFF1A681846146002
:10146000BDE81040FFF7DFBF134343F00403194307
:10147000FFF7E3BF0122006811460430FFF7C2BF47
:101480000068002201210430FFF7BCBF0068012280
:1014900000210430FFF7B6BF002203685B0103F1AF
:1014A0008443C3F880207047F8B51046069C9DF829
:1014B0001C709DF820609DF8245081B10B223946A4
:1014C0002046FFF787FD042231462046FFF782FDC4
:1014D0000B2229462046BDE8F840FFF77BBD1946A0
:1014E0000422FFF777FD042239462046FFF772FDFC
:1014F0000B2231462046FFF76DFD0422E9E7FEE7A7
:101500000722024B58601A60704700BF10E000E0ED
:10151000044A136801331360034B1B6803B1184777
:10152000704700BFD0280020B011002011F0010F3B
:1015300070B501F1FF340DBF082500256FF0FF01E4
:101540006FF47F410068C4F34004183050F8246001
:1015500013433140AB400B4340F8243070BD026868
:101560004B1E02F1404220329B0003EBC2030122DA
:101570009B0003F184431A607047000010B50446D5
:101580000948A0470948A0470948A0470948A0477B
:101590000948A0470948A0470948A0472346BDE895
:1015A00010400848184700BF84010020AC0100200B
:1015B000D0010020F4010020180200203C0200208D
:1015C000480200205402002010B504460079FFF7BD
:1015D000BFFE2079BDE81040FFF7D2BE00230268AD
:1015E00013600268D3604279012A9CBF02681362CB
:1015F000704703791E2B10D9212B0ED0202B0ED92A
:10160000222B01D0252B04D102298CBF00200120E0
:1016100070474B1E584258417047012070470020C8
:10162000704700008B1C40F82320012342798B4037
:1016300010B5DB43EAB1012A41F65F6218BF01220F
:101640001340012204682361036803F140430C3313
:1016500001EBC3039B0003F184431A6042790379D1
:101660003ABB072915D8DFE801F007151515151A3B
:101670001A1F41F6FF62E3E71A2B0CBF19232C2334
:101680000122590903F01F0302FA03F3254A42F825
:10169000213010BD1A2B0CBF1B232E23F0E71A2B71
:1016A0000CBF1A232D23EBE71A2B0CBF18232B2377
:1016B000E6E71B3B0C2BECD801A252F823F000BF4D
:1016C00021170008F5160008F9160008FD16000895
:1016D00001170008051700089316000809170008ED
:1016E0000D17000811170008151700081917000832
:1016F0001D1700081D23C3E71E23C1E73223BFE7E0
:101700003623BDE73723BBE71823B9E71923B7E72B
:101710001A23B5E72B23B3E72C23B1E72D23AFE73B
:101720001C23ADE700E100E00022036803F1404321
:101730000C3301EBC3039B0003F1844302311A60B5
:1017400040F82120704738B504460D461346002264
:10175000FFF7ECFE29462046BDE83840FFF7FFBE04
:1017600038B543790546022B0C4615D0042A13D808
:10177000DFE802F003132A2D3A00FFF7D5FF0268D5
:10178000631E02F1404220329B0003EBC2030022A1
:101790009B0003F184431A6038BD0022036803F103
:1017A00040430C3301EBC3039B0003F184431A60F5
:1017B0000823602221462846FFF7B8FE2146284626
:1017C000BDE83840FFF7CBBE00231022F2E74FF20E
:1017D000F11203689A61032203689A600368012288
:1017E0005B0103F18443D6E70122BDE83840FFF7EF
:1017F000AABF000010B5074A1468E36821690B40CE
:101800001B0606D5536A23B19847236923F080034A
:10181000236110BD8401002010B5074A1468E368F5
:1018200021690B40DB0706D5936823B198472369EC
:1018300023F00103236110BD84010020F8B50C4D95
:101840002F68FE683B691E4016F0400403D02C6AE6
:101850000CB1A0474024B30604D5EB6913B19847F7
:1018600044F020043B6923EA04043C61F8BD00BF56
:1018700084010020F8B5134D2F68FE683B691E40B7
:1018800016F0100403D0AC690CB1A0471024310746
:1018900004D56B6913B1984744F00804720704D566
:1018A0002B6913B1984744F00404B30704D5EB68DF
:1018B00013B1984744F002043B6923EA04043C61F5
:1018C000F8BD00BF84010020F8B51A4D2F68FE68EE
:1018D0003B691E4016F0400403D02C6A0CB1A047AF
:1018E0004024F30604D5AB6913B1984744F01004C3
:1018F000300704D56B6913B1984744F008047107A9
:1019000004D52B6913B1984744F00404B20704D5F9
:10191000EB6813B1984744F00204F30704D5AB68B1
:1019200013B1984744F001043B6923EA04043C6185
:10193000F8BD00BFAC010020F8B51A4D2F68FE6855
:101940003B691E4016F0400403D02C6A0CB1A0473E
:101950004024F30604D5AB6913B1984744F0100452
:10196000300704D56B6913B1984744F00804710738
:1019700004D52B6913B1984744F00404B20704D589
:10198000EB6813B1984744F00204F30704D5AB6841
:1019900013B1984744F001043B6923EA04043C6115
:1019A000F8BD00BFD0010020F8B51A4D2F68FE68C1
:1019B0003B691E4016F0400403D02C6A0CB1A047CE
:1019C0004024F30604D5AB6913B1984744F01004E2
:1019D000300704D56B6913B1984744F008047107C8
:1019E00004D52B6913B1984744F00404B20704D519
:1019F000EB6813B1984744F00204F30704D5AB68D1
:101A000013B1984744F001043B6923EA04043C61A4
:101A1000F8BD00BFF4010020F8B51A4D2F68FE682C
:101A20003B691E4016F0400403D02C6A0CB1A0475D
:101A30004024F30604D5AB6913B1984744F0100471
:101A4000300704D56B6913B1984744F00804710757
:101A500004D52B6913B1984744F00404B20704D5A8
:101A6000EB6813B1984744F00204F30704D5AB6860
:101A700013B1984744F001043B6923EA04043C6134
:101A8000F8BD00BF1802002010B5074A1468E368CB
:101A900021690B40DB0706D5936823B1984723697A
:101AA00023F00103236110BD3C02002010B5074A5A
:101AB0001468E36821690B40DB0706D5936823B1FE
:101AC0009847236923F00103236110BD48020020D9
:101AD00010B5074A1468E36821690B401B0606D558
:101AE000536A23B19847236923F08003236110BD13
:101AF0005402002010B5074A1468E36821690B40BE
:101B0000DB0706D5936823B19847236923F00103C7
:101B1000236110BD54020020F8B50C4D2F68FE68FB
:101B20003B691E4016F0400403D02C6A0CB1A0475C
:101B30004024B30604D5EB6913B1984744F0200460
:101B40003B6923EA04043C61F8BD00BF5402002055
:101B5000F8B5134D2F68FE683B691E4016F010045F
:101B600003D0AC690CB1A0471024310704D56B69D0
:101B700013B1984744F00804720704D52B6913B1D8
:101B8000984744F00404B30704D5EB6813B19847B1
:101B900044F002043B6923EA04043C61F8BD00BF41
:101BA0005402002000223F2110B504464368103043
:101BB0009A801860DA801981A3689A80DA8004F12B
:101BC000500219811A6094F89000FFF7C1FB94F954
:101BD0009130002B08DB0122591103F01F0302FA98
:101BE00003F3024A42F8213010BD00BF00E100E0DB
:101BF0000368DA6842F02C02DA60DA6842F40052D4
:101C0000DA60704710B5036881688C88CA8892B220
:101C1000A242FAD1DA68910402D51A685206F9D5BF
:101C2000DA6822F40052DA60426893889BB2D3806B
:101C3000826893889BB2D38010BDF0B50B460646F0
:101C40000468B568581AAF88ED88ADB2BD4204D1BA
:101C500025682D0601D5824210D8E36823F0800361
:101C6000E3609042B3680DD39A88DB889BB29342BD
:101C70001EBFE36843F08003E360F0BD13F8010B7F
:101C80006060DEE7DD889F880135BD42ECD0DF88EB
:101C90001D89ADB2BD4203D19D88ADB2002DE3D008
:101CA000DD8811F800C01F68ADB207F805C0DF88F5
:101CB0001D890130ADB2BD420FBF0025DD88013561
:101CC000ADB2DD80CDE703468288016892B2885CC0
:101CD00099881A89C0B292B28A420FBF00229A88AC
:101CE000013292B29A80704738B5C3888288013336
:101CF000934204460D4607D0C28803899BB29342A3
:101D000014D183889BB28BB92046FFF7DCFFE388B0
:101D100022689BB2D554E28823899BB293420FBFBD
:101D20000023E38801339BB2E38038BD4FF0FF30DE
:101D3000EDE770B51E460546084611460422059C8F
:101D4000FFF748F90B229DF810103046FFF742F9D3
:101D500029686302CA6803F4F05322F4F0521204B3
:101D6000120C1343CB602A682402136904F4405414
:101D700023F440531B041B0C1C43146170BD38B585
:101D80000546144611B900F0FDF8014619235943E0
:101D9000A200B1FBF2F26421B2FBF1F001FB1023CF
:101DA0001B013233B3FBF1F303F00F032C6843EA5A
:101DB00000139BB2A36038BD10B50446084B1868E9
:101DC000A047084B1868A047074B1868A047074B67
:101DD0001868A047064B18682346BDE8104018470E
:101DE00084020020880200208C0200207C02002057
:101DF0008002002010B5104CE368980607D52368D0
:101E0000990604D561680D48C9B2FFF76DFFE36814
:101E10001A060BD523681B0608D509488288C38893
:101E20009BB2934203D0FFF74EFF606010BDE368A2
:101E300023F08003E360F9E700380140E41100205B
:101E4000F011002010B5104CE368980607D5236800
:101E5000990604D561680D48C9B2FFF745FFE368EC
:101E60001A060BD523681B0608D509488288C38843
:101E70009BB2934203D0FFF726FF606010BDE3687A
:101E800023F08003E360F9E700440040FC110020E8
:101E90000812002010B5104CE368980607D5236897
:101EA000990604D561680D48C9B2FFF71DFFE368C4
:101EB0001A060BD523681B0608D509488288C388F3
:101EC0009BB2934203D0FFF7FEFE606010BDE36853
:101ED00023F08003E360F9E700480040141200207B
:101EE0002012002010B5104CE368980607D523682F
:101EF000990604D561680D48C9B2FFF7F5FEE3689D
:101F00001A060BD523681B0608D509488288C388A2
:101F10009BB2934203D0FFF7D6FE606010BDE3682A
:101F200023F08003E360F9E7004C0040B411002087
:101F3000C011002010B5104CE368980607D523683F
:101F4000990604D561680D48C9B2FFF7CDFEE36874
:101F50001A060BD523681B0608D509488288C38852
:101F60009BB2934203D0FFF7AEFE606010BDE36802
:101F700023F08003E360F9E700500040CC1100201B
:101F8000D811002008B590F89000FFF797F920B11C
:101F90000128034818BF002008BD0248FCE700BF25
:101FA00000A24A040051250230B548F28005094CD0
:101FB000226822F4804222F070022A4342402260CA
:101FC000236823F4E04323F040032B434B4023607A
:101FD00030BD00BF005C0040284B072818BF1870B8
:101FE0001A78052A48D8DFE802F003131E232B369F
:101FF0004FF6FB71224A106C014011644FF43F41CF
:10200000116406221A701F4B1B685A7B1A737047A3
:102010004FF6FB711A4A106C014011644FF43F41B6
:102020001164042202E002225A7003221A7006E0B0
:102030005A78013AD2B25A705A78002AF1D07047D1
:102040000F490A6C92B242F010020A6405221A701B
:102050000A225A7070475A78013AD2B25A705A78A6
:10206000002AECD14FF6EF720549086C02400A6471
:10207000044A1268517B11730622D7E7D428002046
:10208000005C0040740500202DE9F0415F4D604A7E
:102090002B68546C1B68A4B223405E0506D56FF410
:1020A000806353645B4B1B685B6898472A681368BE
:1020B0002340980442BF6FF40051554B5964136894
:1020C0002340D90406D56FF4C052514B00205A6406
:1020D000FFF782FF2B681A68224012050FD54C4982
:1020E0000A6C92B242F0080042F00C0208640A64E2
:1020F0001A7B5A7303221A736FF4C0524A641A6827
:102100002240970542BF6FF40071414A51641B6839
:102110002340DE0506D56FF480723D4B07205A64DC
:10212000FFF75AFF2B681B681C40240403D5384C6A
:10213000676C3B0401D4BDE8F0816FF4004317F0F5
:102140000F06636438D148F68003D4F8008018EA9B
:10215000030FECD01FFA88F32F4D304E03F440529A
:102160004FF4005003F03003202133802A80FFF722
:102170001BFFF80623680ED423F4E14323F0700319
:102180001B041B0C236000F09BFD31882888BDE8F0
:10219000F041FFF709BF18F0800FEDD123F0700375
:1021A0001B051B0D18F4006F236002D000F0A6FB86
:1021B000EBE700F003FDE8E7B40004F1804404F528
:1021C000B844276839040DD5236823F070031B0534
:1021D0001B0D23602A6806F180439268013B52F888
:1021E000233098473A06A2D5236806F1804623F4A7
:1021F000E14323F070031B041B0C23602B68013E9A
:102200005B6853F82630984791E700BF74050020BB
:10221000005C0040DC280020D6280020D8280020C0
:10222000800000F1804000F5B840036823F480434B
:1022300023F0700343F4004343F0800359400160EE
:102240007047000018B90722024B1B681A82024827
:10225000704700BFE4280020E4050020002201218F
:1022600010B5104B1B689A720F4B19640F49086820
:102270000260086804681C644FF4E0545A64046007
:10228000086804681C644FF43F445A64046008689A
:10229000006818644FF48010054B18600B681A73BF
:1022A00010BD00BFE4280020005C00407405002041
:1022B00000E100E013B5104B1A68137803F07F03B8
:1022C000212B16D1022808D0222801D0022405E0B3
:1022D00093780A4A03F0030313700024084B1B6829
:1022E00023B102A901F8010D02209847204602B04F
:1022F00010BD0224FAE700BFE428002030120020BD
:102300002C12002021B901288CBF02200020704728
:1023100002207047054B1B689B78032B04D80449A7
:1023200001EBC30100F0BCBA00207047E428002094
:10233000CC050020014900F0B3BA00BF8805002099
:10234000014900F0ADBA00BF9005002037B5114C2F
:102350002268127802F07F02212A02D0022003B004
:1023600030BDA0F12003012B0B4B0C4D1B6888BF27
:10237000002523B102A901F8010D02209847002D84
:10238000ECD0236800249D615C822046A84720464B
:10239000E5E700BFE42800202C12002045220008B9
:1023A0002DE9F04700254FF0C00948F68F1648F296
:1023B00080074FF0400A434B434C1B68DFF83881DD
:1023C0009D7283F80990256523682846334043F4BD
:1023D00000732360236803EA08033B4383F0100380
:1023E0002360226D394B520043F802A08022236DF6
:1023F0005B0003F1804303F5C0431A60236823F4B4
:10240000E24323F070031B041B0C2360304B1B685A
:1024100093F82C1000F072F84FF440512846FFF763
:10242000FFFEA3682946334043F4C063A360226DD6
:10243000284B520013444FF480721A60A2680220A5
:1024400002EA08023A4382F02002A260FFF7E8FEA7
:10245000E36851463340E360226D1F4B5200134442
:102460004FF4887203201A6000F048F84FF440518E
:102470000320FFF7D5FE636829461E406660226D83
:10248000164B520043F802906368012003EA0803E8
:102490003B4383F020036360FFF7C2FE0122104B31
:1024A00028461B681A7300F0EBFBFF220D4B1D60E2
:1024B0000D4B1D600D4B1D600D4B1D600D4B1A70BB
:1024C000BDE8F087E4280020005C00400860004080
:1024D000DC28002020600040386000401060004090
:1024E0007405002034120020381200204012002011
:1024F000441200203C120020BF8FFFFF0D4B0E4AFC
:102500001B6D3E2903EBC0004FEA400002440AD98C
:102510004B09C80604BF03F1FF339BB29B0243F48F
:102520000043136070474B08C90748BF01339B0243
:10253000F7E700BF005C00400C60004010B5064C9F
:1025400018B9012223681A8210BD044B1B681B684E
:10255000984720680A30F7E7E4280020E0280020A8
:1025600010B5064C18B9012223681A8210BD044B1D
:102570001B689B68984720680C30F7E7E428002028
:10258000E028002010B51E4B1C68002310B9022360
:10259000238210BD1B4803802178024611F07F0181
:1025A00012D1617A8C0644BF022303700378480677
:1025B0004CBF23F0010343F001031370124B1B685F
:1025C0001B6998470F48E4E70129E2D0022915D199
:1025D000217901F00F039B0003F1804303F5B84319
:1025E00009061B6805D503F03003102BE6D1012343
:1025F000E3E703F44053B3F5805FF7E71846C8E715
:10260000E4280020DA280020E02800202DE9F84303
:10261000234FDFF8A0803D682C8AD4B92E7A042E8F
:1026200017D120490B78012B0ED11F4B1A681F4B75
:1026300092B213445B001C6030230C70A8F8003089
:102640003B681E72BDE8F88310230726A8F8003007
:10265000F6E7AB8A9C4294BF042602269C4228BF20
:102660001C46AB69204698478146002000F0B4FB29
:1026700022460146484600F052FB2146002000F069
:10268000C7FB2B8A4FF440521B1B2B826B8A1C44C6
:102690003023A8F80030064B6C821A80D0E700BFC8
:1026A000E428002048120020505C00400230002046
:1026B000D6280020D828002010B50A4B0A491B68EC
:1026C00049789A7891420AD3D97841B99C8834B92B
:1026D0009A72064B1B685B689847204610BD022023
:1026E000FCE700BFE4280020C8050020E028002007
:1026F00038B50F4A0F4D12682B689269997818798E
:1027000090472B6804469A7A7AB170B95A7962B9BF
:10271000DB7853B9084B1B68DB6898472B681A793C
:10272000DA729A781A73204638BD0224FBE700BF9C
:10273000DC280020E4280020E028002038B52B4BBE
:102740001B68187810F07F0004D15A7A22F020021A
:102750005A7238BD022847D15A88002AF9D15A79CD
:10276000002AF6D11979224D21F08000840004F16D
:10277000804404F5B844226849B22D780029B4BFDA
:1027800002F0300202F4405285422DD962B39B7AA6
:1027900053B30029236811DA03F03003102B07D15B
:1027A000C4B2204600F004FB3021204600F0D8FAE5
:1027B000104B1B685B6998470020CAE703F440533D
:1027C000B3F5805FF4D10C4D58B90C4B93F82C1035
:1027D00000F02CFB23682B409BB283F44053236012
:1027E000E6E700F0D2FAF5E70220B2E7E42800209D
:1027F000C8050020E02800208FBFFFFF98050020BB
:1028000038B51B4B1B4D18682D78017921F08004D9
:10281000A30003F1804303F5B8431A6849B20029C5
:10282000B4BF02F0300202F44052A5421DD94488E0
:10283000DCB9D2B1827AC2B11A680029B5BF22F4DC
:10284000E04222F4804222F0400222F07002B5BF42
:1028500092B292B282F0100282F480521A60064B59
:102860001B689B699847002038BD0220FCE700BF29
:10287000E4280020C8050020E028002008B5064B09
:102880001A68537A43F020035372044B1B68DB69C8
:102890009847002008BD00BFE4280020E028002061
:1028A00010B5054B1C68628A18B98B889B1A238265
:1028B00010BD08681044FBE7E428002008B50B4B66
:1028C000002093F82C1000F0B1FA094B1B68187A1D
:1028D000082806D14FF48052064B1A801022064B6E
:1028E0001A80A0F109035842584108BD98050020FC
:1028F000E4280020D6280020D828002073B5964C64
:10290000964E216832680B7A092B16D0944B92B2FE
:1029100013445B001B885B0003F1804303F5C04355
:102920001A780A7059782268517099882268518003
:102930001989226891809B89D380012223681A72A9
:10294000DA885D78002A64D11A7812F07F024DD1BE
:10295000092D03D1FFF7B0FE40BB16E0052D20D1B5
:1029600093F90220002A07DA08232268137202B0C2
:10297000BDE87040FFF7A2BFDA78002AF4D19A8848
:10298000002AF1D19B7A002BEED13268754B92B2BE
:10299000134400225B001A603022734B1A80062316
:1029A000E3E7032D14D19A78012A08D06F4B28460B
:1029B0001B685B699847032828D10923D5E79A88C3
:1029C000002AF3D15B7A9A06F0D5FFF757FFC3E7E9
:1029D000012DEBD19A78012AE8D19A88002AE5D115
:1029E0005B7A9B06E2D5FFF7A9FEB5E7012A04D181
:1029F0000B2DDBD1FFF77CFEAEE7022AD6D1012DED
:102A0000F1D0032DD2D1FFF7FBFEA5E70028ABD113
:102A1000BBE7062D12D11A7855065AD1DB78534AF6
:102A2000012B126802D1D369DBB952E0022B01D12C
:102A3000136AF9E7032B4CD1536AF5E7002D54D103
:102A40005988002945D15A6822F0FF02B2F5003FAB
:102A50003FD11A7812F07F0216D19B88002B38D113
:102A6000434B0025226828465582936198472846A3
:102A70004FF6FF7123681A8A8A4233D0022801D0A8
:102A8000002A55D108222EE0012A0AD1374A1879A6
:102A9000126892699047E0B923689B7A002BDFD1D6
:102AA00017E0022A15D11A7902F00F018B001006E7
:102AB00003F180432F4803F5B8431B6800784CBFEF
:102AC00003F0300303F44053884202D912F0700F30
:102AD000E4D0264B22681B6850781B69984703286E
:102AE000C6D1236809221A7241E7082D04D11B7848
:102AF0005B06EED1204BB4E70A2DEAD11A7802F03A
:102B00007F02012AE5D19A7A002AE2D05988002969
:102B1000DFD15A6822F0FF02B2F5803FD9D1134AC3
:102B200018791268926990470028D2D1134B98E720
:102B300093F90010002936DAD9880C4C01910198DC
:102B4000246882421CD9019A1A8294F82C209A8215
:102B5000FFF75CFD0BE700BFE4280020505C00405D
:102B60000430002002300020D8280020DC2800207B
:102B700085250008C80500203D25000861250008BE
:102B80008A42E2D294F82C00824203D20021094A00
:102B90001170DAE792FBF0F100FB1122002AD4D188
:102BA000044A0121F4E703221A724FF44052024B07
:102BB0001A80DCE648120020D6280020F8B52A4EFC
:102BC0003468237A032B01D0052B44D1A369B3B118
:102BD000258AA5B1A28A954228BF1546284698475E
:102BE000238A07465B1B2382638A00202B4463826F
:102BF00000F000F92A460146384600F09FF8238A83
:102C000053B100214FF44052184B08461A8000F08F
:102C1000FFF83022164B1A80228AA18A336891422B
:102C200009D803221A7233681B7A32681372BDE81E
:102C3000F840FFF743BE0AB10522F3E706211972F7
:102C40000C4B19680C4B89B20B445B001A603022A4
:102C5000074B1A80E7E7072B03D1084B1B68DB689B
:102C600098470823E1E700BFE4280020D628002089
:102C7000D8280020505C004002300020DC280020D2
:102C8000002210B50C4B1C78A24204D30B4B40F031
:102C90008000186010BD02F1805303F5B8539B000B
:102CA000196821F4E04121F070010904090C114375
:102CB00019600132E8E700BFC80500204C5C004005
:102CC00010B5134C23681A7A022A01D0042A09D1BC
:102CD000FFF79CFC23681B7A22681372BDE8104042
:102CE000FFF7ECBD062A10D15A78052A09D11A78C7
:102CF000520606D19878FFF7C3FF064B1B681B6A84
:102D00009847054B1B689B6898470823E4E700BF7A
:102D1000E4280020E0280020DC280020704701F192
:102D20000051013201F540515210490002B970477B
:102D300030F8023B013A21F8043BF7E7002310B5D5
:102D400001F10051013201F54051521049009A42FF
:102D500000D110BD51F8234020F813400133F6E7AD
:102D6000800000F1804000F5B8400368CA0623F4F3
:102D7000E04323F040039BB248BF83F010038A0670
:102D800048BF83F0200303607047800000F180405B
:102D900000F5B84003685B0409D5036823F4E043F9
:102DA00023F070031B041B0C43F480430360704743
:102DB000800000F1804000F5B84003685B0609D54B
:102DC000036823F4E04323F070031B041B0C43F05F
:102DD0004003036070470000054B1B689BB203EB88
:102DE000C00000F1005000F54050400000887047DE
:102DF000505C0040044B1B689BB203EBC000034BCC
:102E000003445B0018887047505C00400430002089
:102E1000044B1B689BB203EBC000034B03445B00F5
:102E200019607047505C0040023000200D4B0E4A84
:102E30001B683E299BB203EBC00002444FEA4202EA
:102E40000AD94B09C80604BF03F1FF339BB29B02AA
:102E500043F40043136070474B08C90748BF013370
:102E60009B02F7E7505C00400630002013B5044693
:102E70008DF8071001220DF107012046FEF7DDFE57
:102E80000028F7D002B010BD38B505464C1E14F925
:102E9000011F01B938BDC9B22846FFF7E7FFF6E7C1
:102EA00008B5134B03221C6801212046FEF792F857
:102EB000002301211A46B2F5007F0CD072B1B3F5A0
:102EC000007F01D100230A449A420CD902252068D0
:102ED00005610133EFE74FF0FF31F0E7B3F5007F15
:102EE0004FF00101EED020684FF40035F0E700BF4D
:102EF000701B030808B5034B0BB100F045F862B630
:102F0000FFF7CEFF892F000808B5044B23B100F06E
:102F10005BF80349FFF7B8FFFFF7ECFFC92F000884
:102F20005B1C0308FDF7C2B908B500F063FE00F0B2
:102F300031FFFCE726F044BC32280BD8064B03EBEC
:102F4000001043681A68437B343203F18043013B2D
:102F500042F82310704700BF0818030838B50C4624
:102F60000546072104EB042400F046F8A1B22846E8
:102F7000BDE83840FFF7E0BF002203685B0103F1C2
:102F80008443C3F8002170474FF0FF3310B50A4C5B
:102F90000A48C4F88030C4F88430FEF7EFFA0848D5
:102FA000FDF7F2FD0748FEF707FF4FF4002323600B
:102FB0004FF48013236010BD00E100E0DD15000830
:102FC000792F0008051C000810B5094B094C18683A
:102FD0000B220221FDF7FEFF2068FEF7E3FD2068CB
:102FE0004FF416520021FEF7CAFE206810BD00BF44
:102FF0006C1B030888020020322838B53BD808290A
:1030000039D8DFE801F00529171A1D2017232600FB
:1030100000240322184B00011D18297B1858FDF7C6
:10302000D9FF686838B3697BCCB1BDE8384001226C
:10303000FEF796BB00240422ECE700242246E9E7D1
:1030400000240922E6E700240822E3E701240B22FA
:10305000E0E701240F22DDE700240722DAE7026817
:103060004B1E02F1404220329B0003EBC2039B0047
:1030700003F184431C6038BD0818030808B501211A
:103080001048FDF7BDFA02210F48FDF7B9FA0321F8
:103090000E48FDF7B5FA04210D48FDF7B1FA0521F8
:1030A0000C48FDF7ADFA06210B48FDF7A9FA0721F8
:1030B0000A48FDF7A5FABDE8084008210848FDF7D1
:1030C0009FBA00BF4C120020501200205412002062
:1030D000581200205C1200206012002064120020B0
:1030E0006812002032280DD8074B000119181B5810
:1030F000097B1B689A6801238B40134214BF01208F
:10310000002070470020704708180308322810B5C7
:103110000ED8084B00011C181B58B1FA81F11A682F
:103120000123207B49098340090103FA01F1116160
:1031300010BD00BF081803080A4A0B4B11689B68B2
:1031400000BF00BF12688A42F6D14820C3F58C3315
:1031500003F5A073B3FBF0F34FF47A7000FB023079
:10316000704700BFD028002010E000E038B50446CA
:10317000FFF7E2FF05465CB1FDF76EFCFFF7DCFFF1
:10318000401BB0F57A7FF6D3013C05F57A75F5D191
:1031900038BD28B10C234343013B18460138FDD804
:1031A000704700000449054BCA6822F4E06212042B
:1031B000120C1343CB60704700ED00E00003FA05EA
:1031C000704701207047000013B5104C20461BF0DB
:1031D000DAFD204604211BF070FD204602220C4936
:1031E0001BF06EFD002302220A4900932046A02313
:1031F0001BF0CCFD20461BF0BFFD20461BF0AEFDB2
:10320000204602B0BDE810401BF0AFBD7412002094
:10321000EB0500206E12002024280AD0252807D1B3
:103220000123054A32F81330044AC3F3890313809B
:1032300070470023F5E700BF6E1200206C120020DB
:10324000044B03EB00135B6813B1C0B2FFF786BEFB
:10325000704700BF08180308024B034819681BF0A9
:103260002ABD00BF1C0000207412002001234279F7
:103270008B4010B5DB439AB1012A41F65F6218BF5B
:103280000122046813402361036803F140430C33B7
:1032900001EBC3010123890001F184410B6010BDE2
:1032A00041F6FF62EDE7002203685B0103F184430E
:1032B0001A607047012203685B0103F18443C3F87D
:1032C0008022704770B5224D224C2B78BFF35B8F64
:1032D00013F0010F0AD128461DF0FEF830B101208D
:1032E00000F068FA206028461DF012F923681B6878
:1032F0001E69B20714D5184D0322297B2868FDF7F3
:1033000069FE2B68297B1A684FF480338B40136168
:10331000002223681B685B0103F18443C3F8042285
:10332000730713D50C4D0322297B2868FDF752FE45
:103330002B68297B1A6801238B40136100222368C4
:103340001B685B0103F18443C3F8082270BD00BF12
:10335000881200208C120020081803084FF0FF3359
:10336000044A43601378022B8EBFFF23591C11704F
:10337000037070478412002038B542680546531C1C
:1033800028D003780BB9006938BD846844F6206002
:10339000114B03EB02135A685B7B126803F1804305
:1033A0003432013B52F823104FF6AF7289B200233A
:1033B000A1FB00011CF0D2FDE968A0F50870091B13
:1033C0004FF4E862002380FB01011CF0C7FD20449C
:1033D00000B2D9E70020D7E708180308F8B50120A4
:1033E0000D4600F0E7F9044600283ED01F4E2D019F
:1033F0007719397B70590322FDF7ECFD73590125CC
:103400001A683B7B204605FA03F31B041361FFF7A0
:103410004AFF02222946FEF7A3F92268294693694A
:10342000204623F0FF0393612268936923F47F43CE
:103430009361152223689A624FF6AF732268D362B4
:103440002268536322689363094AFEF7EBF8084A3F
:1034500002212046FEF7E6F82046FFF72BFF28461C
:1034600023685B0103F184431D60F8BD081803085D
:10347000C532000870B5054601200E4600F09AF9E5
:1034800003685E63FFF716FF3EB10121FFF7EEFE12
:10349000BDE870400221FFF7E9BE03680F4C5B01F5
:1034A00003F18443C3F88461036803225B0103F1E1
:1034B0008443C3F888616B681B01E118097BE058FD
:1034C000FDF788FD6B681B01E118E358097B1A685A
:1034D0004FF480338B40136170BD00BF08180308A0
:1034E000037813B91146FFF7C5BF074B03EB011370
:1034F000596839B15B7B086803F180433430013B84
:1035000040F82320704700BF08180308F8B5057875
:103510000446022D0E4601D90020F8BD3229FBDCFD
:10352000C0E902234FF0FF33036125B9FFF756FFCF
:1035300008B16660F1E7114B03EB06135D68002DDF
:10354000EAD0F7B207213846FFF756FD0022394688
:103550002046FFF7C5FF2846FFF7A5FE15222B687A
:103560009A624FF6AF722B68DA62FFF7A3FE012072
:103570002B685B0103F184431860DAE7081803083D
:1035800008B541684A1C08D04FF0FF32C9B2026149
:103590000022FFF7A5FF012008BD0020FCE738B599
:1035A000456804466B1C28D0D0E902328B4222DCED
:1035B0009142A8BF11464FF4E8602161D21AC91A9E
:1035C00081FB0001D3171CF0C9FC4FF6AF7100F569
:1035D000087080B2002344F62062A0FB01011CF0B9
:1035E000BDFCE9B282B22046FFF77AFFBDE8384061
:1035F000322000F097BC1946DDE738BD10B5074C06
:10360000032294F84C10206CFDF7E4FC236C94F832
:103610004C101A6801238B40136110BD0818030871
:10362000062838B58CBF00250A4B0B4C98BF1D5C93
:103630002046E46619F03BFF2946204619F049FF71
:103640002046012119F052FF2046BDE838400021F4
:1036500019F059BF801C0308C0270020FF21014832
:1036600019F06CBFC02700200B460246002101481C
:103670001AF022B8C0270020014601481AF0A8B865
:10368000C027002070B50D46064C014620461AF0B2
:103690009FF829462046BDE8704001234FF4007290
:1036A0001AF08AB8C02700200228F8B506460D4651
:1036B00039D0052836D100262C4C0222236801215E
:1036C0005B0103F184431E602046FEF749F8284958
:1036D0004FF6FF70B1FBF5F11122814228BF014680
:1036E00023685E629A62D8629A69204622F0FF02DD
:1036F0009A6159635B0103F184430121DE611D4A34
:10370000FDF790FF01213220FDF7AEFD0122236875
:103710005B0103F18443C3F8802223685B0103F15A
:1037200084431A60F8BD0027134C02462368012128
:103730005B0103F184431F602046FEF711F840F25D
:10374000E73223680D495F62B1FBF5F19A624FF6EB
:10375000FF72914228BF1146DA6220465963084A37
:103760000121FDF75FFF31461C20CDE71802002044
:1037700000093D00E5970108AC0100204019010057
:10378000E5AA010802280CD005280CD1074B1B68BC
:103790005B0103F18443D3F88401003018BF01209A
:1037A0007047034BF3E70020704700BF180200206A
:1037B000AC010020013807289ABF024B53F82000C3
:1037C00000207047881C03080120014B18707047C7
:1037D0009012002008B51BF09BFB0022014B01203A
:1037E0001A7008BD901200202DE9F8431B4D984631
:1037F0002B7806460C46174683B11BF07DFB184814
:103800001BF032FB052802D00120BDE8F8831548E3
:103810001BF02AFB0528F7D100232B70254607EB68
:1038200004094D45A5EB04030DD0306815F8011BC4
:1038300000F1806000F5FC30184440001BF036FBBE
:103840000528EED0E0E7BAB24046214610F000FC71
:10385000326800203A443260D7E700BF901200205F
:1038600000F0030800F803082DE9F74305460F466A
:1038700090461E4600249DF828902A68444522441C
:1038800013D002F1806202F5FC32520013788DF8F9
:103890000730B9F1000F00D03B5501220DF10701AF
:1038A000304610F0D5FB0134E7E700202A6003B072
:1038B000BDE8F083FDF7D0BC70470368C9B21B6850
:1038C000184700000023054A9A56824204D001336B
:1038D000162BF8D10020704701207047821E030884
:1038E00008B500F0A1FABDE80840014800F08ABA26
:1038F000E21C030808B513F071FF13F0DDFFFE2092
:1039000012F07CFEBDE8084012F056BE124AD2F812
:10391000803092F88C101868012303FA01F1090431
:103920000161D2F81011086892F81C1103FA01F134
:1039300009040161D2F82012086892F82C1203FAE7
:1039400001F109040161D2F8D01292F8DC22096871
:1039500093401B040B61704708180308044BD3F80D
:10396000D02293F8DC12012312688B401361704758
:103970000818030840B9054BD3F8D02293F8DC129D
:10398000012312688B401361704700BF08180308B9
:10399000012130B4124BD3F88020106893F88C20AA
:1039A00001FA02F202610F48027822F00104047069
:1039B000D3F81041256893F81C4101FA04F42C61F6
:1039C00022F003040470D3F8204293F82C322468C8
:1039D000994022F007022161027030BCFFF7BEBFA0
:1039E000081803085B18002008B540F2E933013BD2
:1039F00008D000BF00BF00BF42F62F22013A00BF2F
:103A0000FCD1F4E772B640F2E933013B08D000BFC5
:103A100000BF00BF41F29312013A00BFFCD1F4E7AE
:103A200016F0F8FCFFF746FFFCE70000044608B577
:103A300016F0F0FC00F0F8F9054800F0E3F905484D
:103A4000002C18BF204610F0CDF9FFF7CDFF00BFC6
:103A5000FA1C0308F11C030870B5384B05461B78A7
:103A6000032B01D807F01AFD354B364A1B68146842
:103A70009BB1354909680B44E31A002B0DDB00F0BC
:103A8000D3F9324B3248196800F0D4F90A21314891
:103A9000FFF713FF0020FFF7C9FF2F4B1B6843B14F
:103AA0002E4908782E49097888420ED01268264B94
:103AB0001A602C4D03F09AFB2B68E31A002B03DBF2
:103AC000643413F0C9FD2C6070BD274A1178274A71
:103AD00089BB85BB1C4909680B44E31A002B2ADB10
:103AE0001378002BE5D101231370214AD2F88010FE
:103AF000086892F88C1003FA01F101611D48017801
:103B000021F001050570D2F810512E6892F81C5171
:103B100003FA05F5356121F003050570D2F820524E
:103B200092F82C222D68934021F007012B6101703F
:103B3000FFF714FFBDE700231370BAE74815002014
:103B40009C120020D02800207C1300208C13002021
:103B5000A81C03088C100020F0050020BE1F0020C8
:103B6000BF1F002094120020601300209812002034
:103B7000081803085B18002010B504460FF082FFF8
:103B800006F05AFA2046FFF767FF16F053FD10F0D3
:103B9000E9F9044B1B781BB9BDE8104017F0B6BA21
:103BA00010BD00BFA012002010B50D4C16F032FC65
:103BB00010F014FF237893B10A4B1A680A4B1A606D
:103BC00000F032F9094800F01DF9002108480FF013
:103BD0002BFF4FF4AF7000F0A5F90023237010BD48
:103BE000ED050020441500204C150020201D030881
:103BF000971D030837B5FFF7D5FA514A136823F02C
:103C0000E06343F00073136015F074FE4FF4E1318C
:103C10004C48FCF7E3FC4C4B4C481B6800F0F2F8B6
:103C200000F0FCF8FFF7CDFAC507044602D5484876
:103C300000F0E8F8A00702D5464800F0E3F8610775
:103C400002D5454800F0DEF8220702D5434800F0CF
:103C5000D9F8A30602D5424800F0D4F8FFF7B0FA2D
:103C6000404800F0CFF820213648FFF726FE3E48B6
:103C700000F0C8F80A213348FFF71FFE00F0CEF825
:103C80003A4800F0BFF83A4800F0BCF8394800F074
:103C9000B9F800F0C3F8384800F0B4F800F0BEF806
:103CA0000020FCF7B7FB0DF10701091A334800F0BB
:103CB000CDF8334C4FF4D861324800F0C7F80A21F0
:103CC0002048FFF7FAFD0FF031FE10F097F808F0EA
:103CD000EDFD237823B912F079FA08B1012323709E
:103CE000294C2A4D216828681BF00EFE6968206067
:103CF00060681BF009FEA9686060A0681BF004FE04
:103D0000A06012F059FC224816F060FA10F08EFE06
:103D100012F09AFA15F04EF914F0FCFE14F08EFD34
:103D2000002012F0B3FA012000F01AFDFFF7C4FDE5
:103D300001231A461946184602F016FB03B030BD9F
:103D4000040001408C100020D0280020AE48030859
:103D5000A11D0308AA1D0308BB1D0308CD1D0308F0
:103D6000DE1D0308EF1D0308F61D0308011E0308EE
:103D7000111E03081C1E0308451E03085C1E0308D1
:103D8000911200206B1E030868180020881800207C
:103D9000DC22002008B50020FFF7EEFE19F0A8F99C
:103DA000114B1B789B0613D518F0B6FD07F04AF8A7
:103DB000FFF7A0FD10F012FE16F02CFB00210846C4
:103DC00015F0C0FF0022094B09481A7007F0D6F819
:103DD000084B1B78032B01D807F060FB07F0D4F9E0
:103DE00012F054FBD7E700BFE8260020F4050020BE
:103DF0001A1D030848150020014818F0E1BB00BF58
:103E00009912002010B5044614F9011B19B102489B
:103E1000FFF753FDF8E710BD8C1000200148FFF7B5
:103E2000F1BF00BFAA1E03080148FFF7EBBF00BFA8
:103E3000A31E030810B50C46FFF7E4FF2146BDE8BA
:103E400010400148FCF796BC8C10002010B50C46C1
:103E5000FFF7D8FF2146BDE810400A220148FCF7D1
:103E6000EFBC00BF8C10002010B50C46FFF7CAFF56
:103E70002146BDE810400A220148FCF7F4BC00BF0F
:103E80008C10002013B50C46FFF7BCFF20461BF03A
:103E9000ABF902230246009302480B46FCF7C8FD2B
:103EA00002B010BD8C10002010B50C46FFF7AAFF21
:103EB0002146BDE810400A220148FCF7F5BC00BFCE
:103EC0008C10002010B50446013CE4B2FF2C04D055
:103ED00020210248FFF7F1FCF6E710BD8C1000200E
:103EE000034A044B002814BF10461846FFF78ABF48
:103EF000DE280308F127030808B5FFF7F1FF0A21C0
:103F00000148FFF7DAFC08BD8C100020034A044B7F
:103F1000002814BF10461846FFF774BF981E030808
:103F20009D1E030810B50446322C06D93220323CBF
:103F3000FFF71CF916F07EFBF6E72046FFF716F9AF
:103F4000BDE8104016F076BB2DE9F74F1F46830001
:103F50001D18404C01936B18884654F823100090AC
:103F6000084616461BF09EFF00286FD0009BF2B259
:103F7000D618F6B23244FBB2D2B206EB860003EB9F
:103F8000080102EB8202C9B200EB080702EB080647
:103F90000B4454F827B054F82670DBB26E18014475
:103FA0001D4454F8219013443946384654F826A04D
:103FB00054F8256054F823501BF074FF00B100271B
:103FC000594658461BF06EFF00B1BB46314630469D
:103FD0001BF068FF00B10026514650461BF062FFFF
:103FE00000B1B246294628461BF05CFF00B100250F
:103FF000494648461BF056FF00B1A946DDE90023BB
:1040000059461344584698441BF07EFC39461BF031
:1040100079FC5146074650461BF076FC31461BF0B2
:1040200071FC014638461BF06FFC4946064648467F
:104030001BF06AFC29461BF065FC014630461BF06C
:1040400063FC05491BF01CFE44F8280003B0BDE8E2
:10405000F08F00BFE01200200000404000EB800025
:10406000024B014453F82100704700BFE0120020CA
:10407000F8B5022635460224012321461A46C4F12A
:1040800004072846FFF760FFFFB2214601234FF0E7
:10409000FF323046FFF758FF4FF0FF330122394619
:1040A0002846FFF751FF4FF0FF33013C1A463946CF
:1040B0003046E4B2FFF748FFFF2CDDD1013DEDB201
:1040C0000136FF2DF6B2D6D1F8BD000010B5054877
:1040D000FFF798FEBDE810400521034B0322084678
:1040E00000F010BAB01E03085D40000870B5164D10
:1040F00028681BF0BDFC154906461BF0BFFE20B129
:10410000134930461BF0B0FED0B931464FF07E5017
:104110001BF0B6FD0F4C206068681BF0A9FC0B4932
:1041200005461BF0ABFE20B1094928461BF09CFE5A
:1041300040B929464FF07E501BF0A2FD606070BD73
:104140000020E7E70020F9E7D0120020BD3786B550
:10415000BD378635C81200202DE9F74F7B4E054646
:1041600030681BF085FC014628681BF0CBFB044639
:1041700070681BF07DFC014668681BF0C3FB744F40
:104180008146214638681BF05BFE724D724E68BB5B
:10419000724B3C60196820461BF0BEFC804623F041
:1041A000B1FF002104461BF055FE0027002839D13D
:1041B0004FF0814120461BF06BFE08B14FF0814467
:1041C000214640461BF09EFB002180461BF042FE2C
:1041D00050BBC5F8008020461BF07AFE40B230701C
:1041E00001300428A8BF04205D4B1870DFF894A1AB
:1041F0004946DAF800001BF023FE5A4F96F90040BA
:1042000097F900800097584E584F78B1A04540D19B
:10421000396828681BF080FC31681BF075FB03B01F
:10422000BDE8F08F3C46CBE72F60D4E74B4BCAF894
:104230000090596848461BF06FFC824623F062FFED
:10424000002183461BF006FE4FF00009002877D1BD
:104250004FF0814158461BF01BFE08B14FF0814BD7
:10426000594650461BF04EFB002182461BF0F2FDE2
:104270003F4A002866D1C2F800A058461BF028FE2D
:104280003C4B40B2187001300428A8BF04203A4BC0
:104290001870384BA04593F90030384ADFF8E890A1
:1042A000DFF8E8A0DFF8E88003D192F90010994226
:1042B0002AD00099DFF8DCB00C7004EB8404137092
:1042C000E2185BF822102C4AC9F8001092F900207D
:1042D000019314445BF8240000921BF013FB204967
:1042E000CAF8000091F90000019B00EB8000034434
:1042F000009A5BF823100244C8F800105BF8220013
:104300001BF000FB1E4B1860194BDAF80010D3F8B5
:1043100000B058461BF000FCD9F800101BF0F4FA6E
:104320000446174B3060196858461BF0F5FBD8F867
:1043300000101BF0E9FA21461BF0E4FA386067E749
:10434000CB468DE7C2F8009097E700BFD812002057
:10435000F8050020C0120020BC120020C812002066
:10436000BE120020F5050020A8120020A412002093
:10437000C4120020BD120020BF120020F60500204C
:10438000B0120020FC050020B4120020AC12002066
:10439000B8120020E0120020024B1868003018BF4D
:1043A00001207047D01200201FB510B1124B1B68BE
:1043B000CBB1124C2378834215D013F07DFA104A0A
:1043C00001AB07CA83E807001846FFF7C5FE23784C
:1043D0005BB10C4A111FA2F1080013F0A5F90023EC
:1043E000237012F0E9F804B010BD012306482370D1
:1043F00013F0CCF9F5E700BFD0120020BC1F00205D
:10440000CC1E03087018002068180020F0B5224D5B
:1044100085B004460E46014628681BF011FD0028B1
:1044200037D11E4B1F78FFF7BFFF002120461BF03E
:104430002FFD00B900242C60194920461BF01EFDF9
:1044400020B1184920461BF00FFD00BB21464FF05C
:104450007E501BF015FC144B144A1860144B1A6064
:10446000BFB1144C01202368019363680293A368D1
:104470000393FFF799FF66B10C22214601A825F0AE
:1044800095FC30B105B0BDE8F04012F065B80020F1
:10449000E1E705B0F0BD00BF981F0020BC1F002061
:1044A000BD3786B5BD378635C81F0020F0FF79C4FB
:1044B000B41800206818002008B50020FFF774FF2A
:1044C00000230C4AC2E900330B4AC2E900330B4B0C
:1044D00003F164010A4A143343F8142C43F8102CF6
:1044E00043F80C2C43F8082C43F8042C9942F1D1E2
:1044F00008BD00BFD0120020D8120020E01200201A
:104500000000C07F2DE9F74F0446894617469A46BA
:104510000025A5420FD0EBB20A2B34BF03200220A6
:104520003844C0B2FFF7CEFC29460A222D48FCF7DA
:1045300087F90135EDE70A212A48FFF7BEF9002483
:10454000A1455FFA84FB46D0092C03D820212548D9
:10455000FFF7B3F90A2221462248FCF771F9002639
:10456000AE425FFA86F830D020211E48FFF7A5F949
:1045700059464046D047014680461BF093FC98B907
:10458000002140461BF07AFC18B12B211548FFF79B
:1045900094F940461AF028FE009702460B4611484F
:1045A000FCF746FA0136DBE74FF000085FFA88F3C4
:1045B000BA1C9A42F6DB002B14BF3D21202109488A
:1045C000FFF77BF908F10108F0E70A210548FFF73A
:1045D00074F90134B4E70A210248FFF76EF903B019
:1045E000BDE8F08F8C100020064BD3F8F02093F834
:1045F000FC10012312688B409268134214BF012003
:10460000002070470818030810B50C4601460748FB
:10461000FEF7C5FF2068B0F5FA7F38BF4FF4FA7097
:10462000FFF780FCBDE81040FFF7DEBF64200020EC
:104630004FF4FA7337B540F2EE2502AC44F8043D6E
:104640002146A020FFF7E0FF21465A200195FFF701
:10465000DBFF21460A200195FFF7D6FF21465A20AD
:104660000195FFF7D1FF03B030BD000037B540F230
:10467000EE2502AC44F8045D21460A20FFF7C4FF92
:1046800018B90024204603B030BDFFF7D1FF214602
:104690000A200195FFF7B8FF04460028F1D0FFF784
:1046A000C3FB0348FFF7AEFBFFF77EFAEAE700BF64
:1046B000D81E030837B540F2EE2502AC44F8045D7D
:1046C00021465A20FFF7A0FF18B90024204603B066
:1046D00030BD4FF4FA732146A0200193FFF794FFF9
:1046E00021465A200195FFF78FFF04460028ECD0A1
:1046F000FFF79AFB0248FFF785FBFFF755FAE5E75E
:10470000D81E030840F2EE2373B502AC44F8043D12
:10471000214606460A20FFF777FF962021460190A2
:1047200006B18C209625FFF76FFF21468220019568
:10473000FFF76AFF019521466EB18C20FFF764FFF9
:1047400040F2EE2321465A200193FFF75DFF034B11
:104750001E7002B070BD2846F0E700BF4413002071
:104760004FF4FA7337B502AC44F8043D21460546D0
:10477000A020FFF749FF40F2EE2321465A20019383
:10478000FFF742FF044B1B781BB115B10020FFF768
:10479000B9FF03B030BD00BF4413002038B51B4B38
:1047A00093F90030012B2DD0194D19B10023194A6E
:1047B0002B601370184B1A682B68D31A002B21DB5F
:1047C000144C002894F900301DDB011D994219DBBF
:1047D0009842CCBF4FF47A704FF4FA7003F00103A3
:1047E0001902C91A03EBC10103EBC101890010448E
:1047F00001F55C71286089B232200FF0E9FB237863
:104800000133237038BD4FF47A70E7E700060020CB
:104810005C13002058130020D028002010B5104B46
:1048200001461B781B070AD40E4B1C783CB90E4B73
:10483000B3F908200D4BB3F900309A4209DB0B2085
:1048400000220CF027FBBDE810400121002016F0EB
:1048500099BCFFF7E3FA0648FFF7D4FA204610BDEB
:10486000A2120020602200203422002086060020B0
:10487000A41F030830B50F4B0F4C85B000680D46E0
:1048800019681BF0FDF9E1681BF03EF82346002291
:1048900043F80C0F02920022211DCDE90052204660
:1048A00004F1080213F006FE05B0BDE8304013F035
:1048B00003B800BF6C060020681800202DE9F04FF7
:1048C00085B09DF9405081462846884617469A464D
:1048D0009DF838409DF83CB0FFF7A0FF064648B968
:1048E00024B10246294609200CF0D4FA304605B01E
:1048F000BDE8F08FBBF1000F28D024B1002229467B
:1049000004200CF0C7FAFFF789FA3A48FFF77AFA61
:1049100001215046FFF742FF0321374B012093F955
:104920000020197035499B460B4608701978019391
:1049300051B1002150460092FFF730FF0120FFF7F0
:104940001BF9DDE90023F1E78BF8002024B10022F8
:10495000294605200CF09EFA0021D9F800001BF032
:104960006FFA30B9264B04A941F8043D4846FFF7D9
:1049700081FF0021D8F800001BF062FA68B9214DD0
:10498000214BD5F83890AB63204B04A941F8043D86
:104990004046FFF76FFFC5F83890002138681BF0DC
:1049A00077FA60B124B10022062011460CF072FAA9
:1049B000174B04A941F8043D3846FFF75BFF002C74
:1049C00094D0032300220C4D114695F900802B70E2
:1049D0000A4B07201A700CF05DFA0E4B93F9003069
:1049E0001BB90120FFF7C8F8F7E7012B85F8008015
:1049F000D3D07BE7211F030878130020A1120020E9
:104A00000000C0400C2000200000C8410000F04120
:104A1000000040406C1300202DE9F743814610460A
:104A20000E461446FFF7FAFE054648B926B102467F
:104A3000014609200CF02EFA284603B0BDE8F083A9
:104A400026B10022214603200CF024FA154F02ACB7
:104A500044F8047D144B214668460093FFF70AFF93
:104A600041F28830FFF75EFA104E114B2146009359
:104A7000336B68460193FFF7FDFE0E4BD6F8388086
:104A8000B363D9F800302146684600930197FFF7D9
:104A9000F1FE0020C6F83880FEF76CFF6420FFF7B7
:104AA00041FAC9E700004842000080C00C20002005
:104AB000000040410000C8412DE9F7433B4D1F462F
:104AC0002B7880468946164623B10024204603B041
:104AD000BDE8F083364B1B7818070FD4002110680F
:104AE0001BF0AEF950B9334B1C783CB9324BB3F9DB
:104AF0000820324BB3F900309A423EDB0123304AA2
:104B00002B701378590749D40FF07CFF2D4C2E4B96
:104B10000FCB84E80F0012F0CFFE0021D8F8000080
:104B20001BF08EF998B9234B1B784BB9224B586870
:104B30001BF0CEF9214B00B2B3F90030984206DBEE
:104B4000224B02A941F8043D4046FFF793FE0122A3
:104B50001146104612F01AF918B9494602200FF012
:104B6000D1FA002130681BF06BF9E8B9012239460F
:104B70003046FFF751FF0124A8E7FFF74FF914482B
:104B8000FFF740F9002FA0D02146224609200CF063
:104B900081F921460F480EF047FF97E76FF3820334
:104BA000137002232B70AFE701248FE760130020FE
:104BB000A21200206022002034220020860600205D
:104BC000E826002048130020681800200000484212
:104BD000A41F0308121F0308002210B50446114643
:104BE000904214BF042002200CF054F9FFF716F98C
:104BF0000448054B002C08BF1846BDE81040FFF7DD
:104C000001B900BF4D1F03086F1F03082DE9F84FBE
:104C100089468346FFF7E0FF01214846FFF7BEFDC6
:104C2000244A254C1368254F03F52F43C8332360CE
:104C300000232371032397F900A03B7001239046C2
:104C40001F4D2B702B7883B300214846FFF7A6FD3C
:104C5000237933B300220A2011460CF01BF9FFF729
:104C6000DDF81848FFF7CEF82E781EB10120FEF7C8
:104C700083FFF9E730462660267115F059FB304670
:104C8000FFF7CCFD5846FFF7A7FF0121D8F8003009
:104C9000484603F52F43C833236026712970FFF778
:104CA0007DFD0120FEF768FFCCE787F800A0BDE896
:104CB000F88F00BFD02800202C220020781300207D
:104CC000A1120020871F03082DE9F043354C9946B7
:104CD000237887B006460F469046002B5FD0002011
:104CE000314B1D791860187115F022FB65B92F4BF7
:104CF0001B784BB92E4B58681BF0EAF82D4B00B2CD
:104D0000B3F90030984209DB01234246CDE9015353
:104D1000009339464B463046FFF7D0FD0022264D22
:104D2000114608200CF0B6F80021E8681BF092F854
:104D300030B1224B05A905F10C000593FFF79AFD50
:104D40001F49204B05AA081F059311F0EBFC1E4BD1
:104D500005A91E48059311F0D9FCEB681C481D4AB3
:104D600040F80C3FD36013F041FC002209201146AB
:104D70000CF090F82378013BDBB2237023B117F0DD
:104D8000C1FD2378013B2370134B93F90030022BB4
:104D900001D10FF07BFE0FF031F809F025F807B0D4
:104DA000BDE8F083601300202C2200206022002048
:104DB00034220020860600204813002000004842CC
:104DC0004C1300200000C8420000A04050130020F7
:104DD00078180020681800203C18002010B50B68D7
:104DE00004461B69084698472379C0F3400210F037
:104DF0001E0F60F3000362F3410314BF012200227F
:104E000062F38203C0F304426271C0F380722060D7
:104E100062F34513C00F60F386136FF3C71323715A
:104E2000204610BD0A3908B509291CD8DFE801F071
:104E3000051B0E1B1B1B1B1B1C1419F077FCBDE86C
:104E4000084001460A220A48FBF724BD19F0FAFA85
:104E5000BDE80840FFF75AB819F0A3FA18B12A21A3
:104E60000348FEF72AFD08BD19F0A4FAF6E700BFD3
:104E70008C100020093908B507290CD8DFE801F0AB
:104E8000150B0B0B040C0F1219F0CAFA18B12A21DA
:104E90000A48FEF712FD08BD19F0B9FAF6E719F055
:104EA000ADFAF3E719F0A1FAF0E719F0C2FABDE89C
:104EB000084001460A220148FBF7C2BC8C100020C2
:104EC00008B509210148FEF7F8FC08BD8C10002048
:104ED00008B558210148FEF7F0FC08BD8C100020F1
:104EE00008B559210148FEF7E8FC08BD8C100020E8
:104EF00008B55A210148FEF7E0FC08BD8C100020DF
:104F000008B545210148FEF7D8FC08BD8C100020EB
:104F1000F7B5044617461E469DF82050002900F0BC
:104F200033840921BA48FEF7C8FC162C00F2DD8351
:104F3000DFE814F01700DB03380061009200C500C1
:104F400027017A01DB03B401DB03F301DB03330246
:104F50006402DB03DB03AD02EA02120348037903B8
:104F6000AA03FFF7B5FF002F00F062840921A848CB
:104F7000FEF7A3FCFFF7B4FF002E00F0A084092188
:104F8000A348FEF79AFCFFF7B3FF2DB10921A04813
:104F9000FEF793FCFFF7B4FF0A219D48FEF78DFC56
:104FA00003B0F0BD9B4819F0AFFBFEF7AFFF002F39
:104FB00000F03E8409219648FEF77FFC964819F0E0
:104FC000A3FBFEF7A3FF002E00F07984092190488F
:104FD000FEF773FC914819F097FBFEF797FF002D41
:104FE000DAD009218A48FEF768FC8D4819F08CFB5D
:104FF000FEF78CFFD0E7874B0A22B3F840108448B5
:10500000FBF71EFC002F00F0138409218048FEF7F7
:1050100054FC814B0A22B3F840107D48FBF710FC8A
:10502000002E00F04C8409217948FEF746FC7B4BAA
:105030000A22B3F840107648FBF702FC002DABD0F3
:1050400009217348FEF739FC0A22754BB3F840106A
:105050006F48FBF7F5FB9FE76E4819F094FD0A22B5
:1050600001466B48FBF7ECFB002F00F0E1830921C0
:105070006748FEF722FC684819F085FD0A220146C0
:105080006348FBF7DDFB002E00F01984092160481E
:10509000FEF713FC614819F076FD0A2201465C48D0
:1050A000FBF7CEFB002D3FF477AF09215848FEF700
:1050B00004FC5B4819F067FD0A220146C8E7554821
:1050C00019F061FD1AF0D0FC1AF08EF84EA3D3E966
:1050D00000231AF0E1F80023024600934C480B46E7
:1050E000FBF7A6FC002F00F0A38309214848FEF738
:1050F000E4FB494819F047FD1AF0B6FC1AF074F8C1
:1051000041A3D3E900231AF0C7F800230246009315
:105110003F480B46FBF78CFC002E00F0D0830921A2
:105120003B48FEF7CAFB3D4819F02DFD1AF09CFCE8
:105130001AF05AF834A3D3E900231AF0ADF800238B
:105140000246009332480B46FBF772FC002D3FF4F9
:1051500023AF09212E48FEF7B0FB314819F013FDAB
:105160001AF082FC1AF040F827A3D3E900231AF0C2
:1051700093F800230246009325480B46FBF758FCA2
:105180000AE7244819F0C8F90A2201462048FBF72B
:1051900081FB2448FEF736FE002F00F049830921E9
:1051A0001B48FEF78AFB1C4819F0B6F90A22014693
:1051B0001748FBF76FFB1B48FEF724FE002E00F09C
:1051C0007E8309211248FEF778FB144819F0A4F9F0
:1051D0000A2201460E48FBF75DFB1248FEF712FE5D
:1051E000002D3FF4D9AE09210948FEF766FB0C48B3
:1051F00019F092F901460A220548FBF74BFB0948D2
:10520000FEF700FEC8E600BF8FC2F5285C8FF63FB0
:105210008C100020542100209C210020E42100203B
:105220000C210020FB220308AD4819F071F90A2275
:105230000146AC48FBF72EFBAB48FEF7E3FD002F21
:1052400000F0F6820921A748FEF737FBA74819F0BE
:105250005FF90A220146A348FBF71CFBA248FEF7B0
:10526000D1FD002E00F02B8309219E48FEF725FB7F
:105270009F4819F04DF90A2201469A48FBF70AFBAC
:105280009948FEF7BFFD002D3FF486AE09219548F1
:10529000FEF713FB974819F03BF9ABE7904819F07C
:1052A000C8F80A2201468F48FBF7CAFA8E48FEF773
:1052B000A9FD002F00F0BC8209218A48FEF7FDFA03
:1052C0008A4819F0B6F80A2201468648FBF7B8FA70
:1052D0008548FEF797FD002E00F0F18209218148F4
:1052E000FEF7EBFA824819F0A4F80A2201467D483D
:1052F000FBF7A6FA7C48FEF785FD002D3FF44CAE87
:1053000009217848FEF7D9FA7A4819F092F80A226A
:1053100001467448FBF794FA71E7714818F0F9FFF9
:10532000754A764B002814BF10461846FEF76AFDF2
:10533000002F00F07D8209216A48FEF7BEFA6B4813
:1053400018F0E7FF6C4A6D4B002814BF1046184652
:10535000FEF758FD002E00F0B28209216148FEF7E9
:10536000ACFA634818F0D5FF634A644B002814BFB9
:1053700010461846FEF746FD002D3FF40DAE0921FC
:105380005848FEF79AFA5B4818F0C3FF5A4A5B4B3D
:10539000002814BF1046184632E7514819F054FC53
:1053A0000A2201464F48FBF74BFA002F00F04082DB
:1053B00009214C48FEF781FA4C4819F045FC0A22B5
:1053C00001464848FBF73CFA002E00F0788209219C
:1053D0004448FEF772FA464819F036FC0A220146A4
:1053E0004048FBF72DFA002D3FF4D6AD09213D488A
:1053F000FEF763FA3F4819F027FC5DE6384819F0DC
:1054000052FC3F4B014698423DD00A223548FBF7FB
:105410004BFA002F00F00C8209213248FEF74DFABA
:10542000324819F040FC364B0146984200F0E681C4
:105430000A222C48FBF738FA002E00F0408209219E
:105440002848FEF73AFA2A4819F02DFC2C4B014661
:10545000984200F027820A222248FBF725FA002D05
:105460003FF49AAD09211F48FEF727FA214819F0A9
:105470001AFC234B0146984200F05C820A2219482C
:10548000FBF712FA88E51F48FEF7BCFCC1E7144899
:1054900018F063FFFEF73AFD002F00F0C9810921E3
:1054A0001048FEF70AFA114818F057FFFEF72EFDD4
:1054B000002E00F0048209210A48FEF7FEF90C488C
:1054C00018F04BFFFEF722FD002D3FF465AD0921DA
:1054D0000448FEF7F2F9074818F03FFF88E500BFDF
:1054E000542100208C100020FB2203089C21002066
:1054F000E42100200C210020EE220308F4220308FE
:10550000FFFF0F00FF220308C14B93F84400FEF792
:10551000FDFC002F00F08C810921BE48FEF7CDF97B
:10552000BD4B93F84400FEF7F1FC002E00F0C7815C
:105530000921B848FEF7C1F9B84B93F84400FEF7CB
:10554000E5FC002D3FF428AD0921B248FEF7B5F97E
:10555000B34B93F844004BE5AD4818F0ECFE0A223B
:105560000146AC48FBF796F9002F00F06181092154
:10557000A848FEF7A2F9A84818F0DDFE0A22014665
:10558000A448FBF787F9002E00F099810921A14872
:10559000FEF793F9A14818F0CEFE0A2201469D4875
:1055A000FBF778F9002D3FF4F7AC09219948FEF795
:1055B00084F99B4818F0BFFE0A2201469548FBF784
:1055C00069F9E9E4924819F04DFB0A220146914835
:1055D000FBF760F9002F00F02B8109218D48FEF7C1
:1055E0006CF98D4819F03EFB0A2201468948FBF709
:1055F00051F9002E00F0638109218648FEF75DF91C
:10560000864819F02FFB0A2201468248FBF742F92F
:10561000002D3FF4C1AC09217E48FEF74EF98048C9
:1056200019F020FBC8E77A4819F0C2FA0A220146AD
:105630007848FBF705F9002F00F0FA80092175483A
:10564000FEF73BF9744819F0B3FA0A220146714893
:10565000FBF7F6F8002E00F0328109216D48FEF7C5
:105660002CF96E4819F0A4FA0A2201466948FBF7A2
:10567000E7F8002D3FF490AC09216648FEF71DF9CC
:10568000674819F095FA17E5614819F098FA0A2267
:1056900001466048FBF7FEF8002F00F0C9800921A1
:1056A0005C48FEF70AF95C4819F089FA0A220146BB
:1056B0005848FBF7EFF8002E00F00181092155480A
:1056C000FEF7FBF8554819F07AFA0A2201465148CC
:1056D000FBF7E0F8002D3FF45FAC09214D48FEF7E1
:1056E000ECF84F4819F06BFA66E7012C43D0172C01
:1056F00046D1474819F07DF90A2201464548FBF793
:10570000C9F8002F00F0948009214248FEF7D5F82F
:10571000012C77D0172C40F087803F4819F069F9A9
:105720000A2201463B48FBF7B5F8002E00F0C7807F
:1057300009213848FEF7C1F8012C00F0B780172C7A
:1057400040F0B980354819F054F90A220146314831
:10575000FBF7A0F8002D3FF41FAC09212D48FEF700
:10576000ACF8012C00F0E880172C40F0EA802C48BF
:1057700019F03FF920E7264B0A2293F83810BDE7CD
:1057800021462348FFF74EFB002F51D00921214825
:10579000FEF793F8162CBBD801A353F824F000BFF2
:1057A000754F000811570008BD4F0008135000083E
:1057B00077500008F3500008A75100084D52000828
:1057C00011570008C1520008115700083F53000844
:1057D00011570008B9530008215400081157000858
:1057E00011570008A75400082155000877550008F4
:1057F000E355000845560008A75600080948FEF77B
:1058000001FB19E6044B0A2293F838108AE700BF1F
:10581000542100208C1000209C210020E421002035
:105820000C210020FF22030821464948FFF7FAFA1D
:10583000002E44D009214748FEF73FF8162C3FF6CA
:105840007BAF01A353F824F0874F000839570008B5
:10585000D54F00082F500008955000082751000828
:10586000CB5100087152000839570008E552000872
:10587000395700086353000839570008D753000808
:10588000475400083957000839570008BF5400082A
:105890003955000895550008015600086356000860
:1058A000C55600082C48FEF7ADFAD8E52B4B0A2266
:1058B00093F838104BE721462848FFF7B3FA002D3C
:1058C0003FF46AAB09212348FDF7F7FF162C3FF69A
:1058D00048AF01A353F824F0954F00086357000820
:1058E000EB4F000849500008B35000085B51000816
:1058F000EF5100089552000863570008095300084B
:10590000635700088753000863570008F5530008E1
:105910006D5400086357000863570008D754000807
:1059200051550008B35500081F560008815600085D
:10593000E3560008084863E4094B0A2293F838103C
:105940003CE621460648FFF76DFAFFF725BB00BF8E
:105950009C2100208C100020FF220308E42100205D
:105960000C2100202DE9F041044617461E469DF803
:105970001850002900F0258209219748FDF79DFF66
:105980000C2C00F21A82DFE814F00D002E006400E7
:105990009400C500F60031016201180218021802D5
:1059A00018029301FFF794FA002F00F033820921C7
:1059B0008948FDF782FFFFF793FA002E00F052822C
:1059C00009218548FDF779FFFFF792FA2DB10921EA
:1059D0008148FDF772FFFFF793FA0A217E48FDF731
:1059E0006CFFBDE8F0817D4818F035FD18B12A2123
:1059F0007948FDF762FF002F00F00C8209217648FC
:105A0000FDF75BFF764818F026FD18B12A21724891
:105A1000FDF753FF002E00F0258209216E48FDF7A7
:105A20004CFF704818F017FD18B12A216A48FDF79D
:105A300044FF002DD1D009216748FDF73EFF6A4899
:105A400018F009FD0028C8D02A216348FDF735FF6A
:105A5000C3E7624818F0C0FC18B12A215E48FDF780
:105A60002CFF002F00F0D68109215B48FDF725FFB0
:105A70005B4818F0B1FC18B12A215748FDF71DFF0B
:105A8000002E00F0EF8109215348FDF716FF55481D
:105A900018F0A2FC18B12A214F48FDF70EFF002D87
:105AA0009BD009214C48FDF708FF4F4818F094FCA3
:105AB000C8E74A4818F087FC18B12A214648FDF784
:105AC000FCFE002F00F0A68109214348FDF7F5FEFA
:105AD000434818F078FC18B12A213F48FDF7EDFE45
