:020000040800F2
:1000000000C00020A5030008E10D0008E50D000870
:10001000E90D0008ED0D0008F10D0008DF140008DF
:10002000DF140008DF140008DF140008DF140008E4
:10003000DF140008DF140008DF140008F1140008C2
:10004000DF140008DF140008DF140008DF140008C4
:10005000DF140008DF140008350E0008550E0008F4
:10006000750E0008950E0008B50E0008850C0008F6
:100070009D0C0008B50C0008D10C0008ED0C000820
:10008000090D0008250D0008910A0008DF1400087A
:1000900069200008DF140008DF140008D50E0008EE
:1000A000D5170008F91700081D1800085518000892
:1000B000A91800081919000889190008ED1100088D
:1000C00005120008F911000811120008DF140008D9
:1000D000DF140008D51D0008251E0008751E000845
:1000E000190F0008DF140008DF140008B11A000817
:1000F000D51A0008F91A0008311B0008E90A00089F
:10010000DF140008DF140008F9190008DF140008E4
:10011000C51E0008151F0008691A00088D1A00087E
:10012000410D0008590D0008710D00088D0D0008E3
:1001300010B5054C237833B9044B13B10448AFF321
:1001400000800123237010BD581000200000000023
:10015000E8D8020808B5034B1BB103490348AFF3C5
:10016000008008BD000000005C100020E8D80208F4
:1001700010B512490A2309220968114800F0EAF96A
:1001800010490323022209680F4800F0E3F90F49E0
:100190001B231A2209680E4800F0DCF90D492B23B5
:1001A0002A2209680C4800F0D5F9BDE810400B4937
:1001B00032232C2209680A4800F0CCB984020020BE
:1001C00074100020880200208C1000208C02002077
:1001D000A41000207C020020BC100020800200201F
:1001E000D410002010B5044600F0D4FC034B204688
:1001F000BDE81040197800F035BC00BF16000020A3
:10020000F8B50446056801F0CFF9002223685B01C8
:1002100003F184431A6080232B600123AB622A61BF
:10022000EA606B61637973B1012B0FD001222368FF
:100230005B0103F18443C3F8802223685B0103F16F
:1002400084431A60F8BD4FF400436B644FF6FF72AD
:1002500000252368DA626E1CF7B23946204601F0A9
:10026000B8F9E8B148F6FF72236817F0010F03F1FF
:10027000340343F8252014BF6FF0FF026FF47F4270
:1002800023684FEA650503F1180353F8251001EAC6
:10029000020114BF68224FF4D0420A4343F82520DC
:1002A000042E3546D7D1C1E77047000038B5002588
:1002B000264A274C1368022043F01003136000F015
:1002C0004DFE002001F000F865602368182023F43B
:1002D0000023236001F004F8102001F001F800F081
:1002E00043F8A560102000F0EFFF102001F006F8A1
:1002F0000028FAD000F039F8164801F00BF8182061
:1003000000F0E2FF182000F0F9FF0028FAD00220E8
:1003100000F0CAFF00214FF0006000F0A9FF0E4876
:1003200001F0DEF800F038F80C4B188800F01AFCE9
:100330000B4800F01BFC0B4801F010F900F02EF800
:1003400000F02DF8FFF7B0FF38BD00BF00200240DD
:10035000001002400C0000203F1901001400002092
:10036000E5010008010200087047002108B50846B1
:1003700001F010F84FF48061012001F00BF800212A
:10038000022001F007F82D2001F014F8BDE8084024
:100390000021032000F0FEBF00F0F4BD704700F024
:1003A00030BE000001498D460149084700C00020C9
:1003B000B503000808B5114B1A68114B9A4213D1C6
:1003C000104B114A934213D326F05CFB00221146D6
:1003D000104602F099FD0D4B7BB126F0EFF852F874
:1003E000041B043343F8041C09498B42F7D3E7E7A5
:1003F0000022043343F8042CE3E7FEE7003303084C
:10040000000000205810002030280020BD650208A0
:100410005810002010B50D4B1A680AB90C4A1A6022
:100420001A680C49891A814204DB09494442511A6D
:10043000A14207DA26F0BCF80C234FF0FF3203602C
:10044000104610BD10441860FAE700BFEC10002001
:100450003028002038AB0328002070474FF40053A9
:1004600000204B607047012070474FF0FF3070470D
:100470000020704710B50C46FFF7FAFF20700120EE
:1004800010BD704770B515460C468E18B44201D1A8
:10049000284670BD14F8010BFFF7F3FFF6E7FEE7FF
:1004A000C38882889B1AC2888188914282BF028950
:1004B00001329B1898B2704710B50369044658681A
:1004C000FFF7EEFF88B123695B689A88196892B2DA
:1004D000885C99881A89C0B292B28A420FBF002202
:1004E0009A88013292B29A8010BD4FF0FF30FBE73C
:1004F00008B503695868FFF7D3FF08BD03695B6857
:100500009988DA8892B28A421FBF9A881B6892B291
:10051000985C14BFC0B24FF0FF3070470269916819
:100520008888CB889BB28342FAD1126813685B0635
:10053000FCD5704713B504698DF8071001220DF141
:100540000701204601F069FB0028F7D0012002B026
:1005500010BD000030B54FF0000C4FF47A75C0E9C3
:1005600001C5034D016105600275437530BD00BFD3
:1005700070EE02082DE9F74303690446DB688846FC
:100580008B42914625D3067D134D3601AB19477D2D
:10059000586818B10022597B01F0D2F8206901F0A7
:1005A000F1FA39016A18127BAB19CDF804901B7B64
:1005B000695800932069AB5901F0ABFB20694246B2
:1005C000002101F0CCFB206903B0BDE8F04301F04D
:1005D000FFBA03B0BDE8F08338EB02080022FFF752
:1005E000C9BF0000044B02791B789A4202BF034B3B
:1005F0001B681860704700BF101100201411002004
:10060000002310B50446036072B6054B193119700A
:10061000044B1860044800F0A1FF62B6204610BDEC
:100620001011002014110020E505000800220368C5
:100630001B685B0103F184431A6070470122036861
:100640001B685B0103F184431A607047036801393A
:100650001B6889B29962704703681A68D36A9BB2B3
:10066000994228BF19465162704738B561B90122D5
:1006700003681B68996203681B68DA6203681B6879
:10068000DC6AA4B2204638BD48224A434FF6FF71C7
:10069000B2FBF1F1013189B202EB5102B2FBF1F28E
:1006A00094B2FFF7D3FF036892B21B68DA62E9E7FE
:1006B000012203681B685B0103F18443C3F88022B5
:1006C0007047000008B501211048FFF799FF02218B
:1006D0000F48FFF795FF03210E48FFF791FF042114
:1006E0000D48FFF78DFF05210C48FFF789FF062114
:1006F0000B48FFF785FF07210A48FFF781FFBDE898
:10070000084008210848FFF77BBF00BFF010002019
:10071000F4100020F8100020FC1000200011002030
:1007200004110020081100200C110020F8B5064625
:100730000C4615468F18A74206D0336814F8011BE3
:100740001B6830469847F6E72846F8BD70B5054661
:100750000C46084649B127F051FA2B68024621465B
:100760002846BDE870409B68184770BD0368C9B251
:100770001B68184703685B68184738B50D210546A4
:10078000FFF7F4FF0A2104462846FFF7EFFF204455
:1007900038BD38B50546FFF7EDFF04462846FFF79C
:1007A000ECFF204438BD2DE970439046994690B047
:1007B00058EA090306469DF8585007D13021FFF743
:1007C000D5FF0125284610B0BDE8708300244046BF
:1007D00049462A4600231CF0A3FD80468946013481
:1007E0000DEB040303F8012C58EA0903EFD10025AF
:1007F000013C1DF804103046092994BF30313731CF
:1008000049B2FFF7B3FF0544002CF1D1DAE72DE937
:10081000F0411D46002A75F1000307461446069E66
:1008200005DA2D21FFF7A2FF644265EB4505F6B21C
:10083000069622462B463846BDE8F041FFF7B3BF87
:1008400007B5CB1700920A46FFF7E1FF03B05DF84A
:1008500004FB38B50546FFF7F3FF04462846FFF7CB
:100860008CFF204438BD07B5CB1700920A46FFF72E
:10087000CEFF03B05DF804FB37B5CB1700920A46F4
:100880000546FFF7C4FF04462846FFF776FF2044DD
:1008900003B030BD07B5D2B200920023CAB2FFF751
:1008A00082FF03B05DF804FB07B5D2B200920023CB
:1008B0000A46FFF778FF03B05DF804FB37B5D2B204
:1008C000009200230A460546FFF76DFF04462846BE
:1008D000FFF753FF204403B030BD000000000000CC
:1008E0002DE9F34717461E4682460022002338466C
:1008F00031461CF059F99DF828504FF00104F8B129
:1009000043A3D3E90023384631461CF043F900B92C
:100910000446E4B20022002338463146C4B11CF03C
:1009200025F918B12D215046FFF720FF04463C4918
:100930005046FFF71FFF0444204602B0BDE8F08791
:1009400035A3D3E90023384631461CF019F9DEE718
:100950001CF00CF930B12D215046FFF707FF04467B
:1009600006F100464FF0000800202E495FFA88F398
:100970009D4206D900222C4B1BF0B0FF08F1010864
:10098000F4E73A4633461BF0C9FC06460F461CF016
:10099000DFFC0A230246009380460B4650468946F8
:1009A000FFF735FF0444002DC6D0404649461BF0F2
:1009B0003DFE02460B46304639461BF0ADFC06466E
:1009C0000F4650461949FFF7D5FE0444013DEDB2EC
:1009D000FF2DB1D0144B0022304639461BF054FE97
:1009E0000F4606461CF0EAF80A22014680465046A9
:1009F000FFF726FF044440461BF0DCFD02460B4691
:100A0000304639461BF088FC06460F46DEE700BF3D
:100A1000800350726C92DF43800350726C92DFC38C
:100A20008CEE02080000E03F000024406E0F030837
:100A30009DF800100091FFF753BFFEE7704710B517
:100A40000446007900F074FC2079BDE8104000F005
:100A500087BC026841F48011936823F46023194332
:100A600091607047002330B51C461D4603EB4302DE
:100A7000072B01FA02F203F10103D8BF15430A2B39
:100A800044EA0204F2D10368DD6003681C6130BDF2
:100A900070B5144C23681B681D68A90707D51A6830
:100AA00022F002021A6023689B6803B198476A0724
:100AB00009D523681A68136823F0040313602368B8
:100AC0001B6903B19847EB070BD523681A681368B5
:100AD00023F0010313602368DB6813B1BDE87040A5
:100AE000184770BD1C00002070B5144C23681B68AB
:100AF0001D68A90707D51A6822F002021A60236848
:100B00009B6803B198476A0709D523681A68136878
:100B100023F00403136023681B6903B19847EB07B4
:100B20000BD523681A68136823F001031360236848
:100B3000DB6813B1BDE87040184770BD2400002089
:100B4000012203685B0103F1844303F58673191FD7
:100B50001A6018680028FCD143F8042C0B68002B9D
:100B6000FCD170470146042000F014BC10B50446C7
:100B7000054B1868A047054B1868A047044B186838
:100B80002346BDE8104018471C000020200000202C
:100B90002400002010B50446FFF751FF20464FF413
:100BA0006021FFF756FF0122236820465B0103F115
:100BB0008443C3F8502123685B0103F18443C3F8E5
:100BC0000021BDE81040FFF7BBBF007900F0B0BBCB
:100BD00014230139594300680830435823F4405323
:100BE00043EA023242507047036814200833013947
:100BF00000FB01314A60704700EBC10340F831202F
:100C000093F90430002B08DB0122591103F01F0374
:100C100002FA03F3014A42F82130704700E100E094
:100C200014220368013902FB01310123490101F15A
:100C30008441C1F80031704714220368013902FB76
:100C400001310023490101F18441C1F800317047AD
:100C50002DE9F04114251C4690464B1E5D43066865
:100C6000FFF7EAFF9DF81C30240244EA8324089B26
:100C700008361C43069B77197451FB60C7F808803F
:100C8000BDE8F08110B5044B1C68A3681BB1984700
:100C9000012223685A6010BD6000002010B5044B8B
:100CA0001C6823691BB19847102223685A6010BD45
:100CB0006000002010B5054B1C68A36923B198475C
:100CC0004FF4807223685A6010BD00BF600000209E
:100CD00010B5054B1C68236A23B198474FF4805226
:100CE00023685A6010BD00BF6000002010B5054B9E
:100CF0001C68A36A23B198474FF4803223685A6076
:100D000010BD00BF6000002010B5054B1C68236BB0
:100D100023B198474FF4801223685A6010BD00BF7A
:100D20006000002010B5054B1C68A36B23B19847E9
:100D30004FF0807223685A6010BD00BF6000002031
:100D400010B5044B1C68A3681BB1984701222368A7
:100D50005A6010BD6400002010B5044B1C68236964
:100D60001BB19847102223685A6010BD6400002010
:100D700010B5054B1C68A36923B198474FF48072E6
:100D800023685A6010BD00BF6400002038B5104CC5
:100D9000636CD8070BD52368D90408D50D4B1D68A3
:100DA0002B6A23B198474FF480522B685A60A36D89
:100DB000DA070BD52368DB0308D5064B1C68A36A4A
:100DC00023B198474FF4803223685A6038BD00BF82
:100DD0000004024064000020000000000000000049
:100DE000012007E0022005E0032003E0042001E0E9
:100DF0000520FFE70D4A0121116072B60C4A00215F
:100E00001160074902B4084902B486B005498E460C
:100E1000704700BFAFF30080AFF30080AFF30080F6
:100E200000000061F9FFFFFFD52E000814ED00E07F
:100E300010E000E008B5054A136833B150689847E0
:100E40000122034B5A6100BF00BF08BD18110020EA
:100E50000004014008B5054A936833B1D06898474B
:100E60000222034B5A6100BF00BF08BD18110020C9
:100E70000004014008B5054A136933B15069984729
:100E80000422034B5A6100BF00BF08BD18110020A7
:100E90000004014008B5054A936933B1D069984709
:100EA0000822034B5A6100BF00BF08BD1811002083
:100EB0000004014008B5054A136A33B1506A9847E7
:100EC0001022034B5A6100BF00BF08BD181100205B
:100ED000000401402DE9F041002705240C4DD5F810
:100EE00014800126A64018EA060F08D0094BE1003D
:100EF00053F834201AB10B445868904737430134F3
:100F00000A2CEED16F6100BF00BFBDE8F08100BFC9
:100F100000040140181100202DE9F04100270A24A7
:100F20000C4DD5F814800126A64018EA060F08D00B
:100F3000094BE10053F834201AB10B44586890472C
:100F400037430134102CEED16F6100BF00BFBDE804
:100F5000F08100BF0004014018110020034A13680B
:100F600023F0070318431060704700BF00200240C1
:100F700010B50446007900F0DBF92079BDE8104097
:100F800000F0EEB908B50748FFF7F2FF0648FFF793
:100F9000EFFF0648FFF7ECFFBDE808400448FFF705
:100FA000E7BF00BFD8000020E0000020E8000020DC
:100FB000F000002070B50F250368CE0801F007008F
:100FC000840053F82600092A05FA04F520EA0505ED
:100FD00014BF10460820A0402843082A43F82600E2
:100FE00007D10120DA6800FA01F122EA0101D96093
:100FF00070BD092AFCD10122D86802FA01F101432F
:10100000F5E708B5032000F093F9BDE80840032098
:1010100000F0A6B903681A6812F4985FFBD11A6849
:1010200042F480721A60704703681A6812F4985F7D
:10103000FBD11A6842F400721A600268136813F454
:10104000985FFBD17047000070B502684568516930
:1010500092695A4AAE781268CB07044606F0010638
:10106000C26014D50023EB8000F0D8F822685368E2
:1010700043F48063536026B12268136843F48063AD
:10108000136000212B88226846EA4303136111F0A4
:101090000A0F10D0AB88002E45D0012B0AD1226850
:1010A0002046136823F480631360A38B012B37D988
:1010B000FFF7B0FF002101F08402802A03D1A38B47
:1010C000002B49D1002101F08402842A0DD1A18B8B
:1010D0002046002954D0FFF79DFF22685369D907A5
:1010E000FCD5002163680C3363604B0661D523682F
:1010F000AA681969EB88581CE880D154AB88EA8843
:10110000591E8A424BD122682046136823F480631B
:101110001360A38B022B3ED9BDE87040FFF77ABF66
:10112000FFF782FFC6E7012B08D9EB88A9685A1C94
:10113000EA802268CB5C13613146BCE7002BFBD10F
:101140002046FFF771FF2268536823F40073536051
:10115000022384F82330ADE7EB88A9685A1CEA80A3
:101160002268CB5C1361EA88AB889A42AAD12268D4
:10117000536823F480635360A38B013BA383A1E7EF
:10118000FFF752FF2268536823F400735360022371
:1011900084F82330A9E7BDE87040FFF745BF9A42C5
:1011A00007D1A38B013B9BB2A3831BB9022384F815
:1011B000233070BD63680C336360FAE7C8270020F2
:1011C00008B50268536903F47063836000235361B8
:1011D00002689361FFF728FF0268536823F4E06315
:1011E0005360FF2380F8233008BD00000148FFF75B
:1011F0002BBF00BFF80000200148FFF725BF00BF4C
:101200001C0100200148FFF7DBBF00BFF8000020F1
:101210000148FFF7D5BF00BF1C01002010B50446F0
:10122000002190F9210000F00FF894F9220000212C
:10123000BDE8104000F008B84AF6AA22014B1A6037
:10124000704700BF003000400028A8BF00F1604098
:101250004FEA0111B8BF054BC9B2B5BF00F00F008E
:1012600000F56140195480F80013704714ED00E058
:1012700010B5002421F0604121F07F01064A0143AE
:10128000916060B20F210134FFF7DEFF3C2CF8D1F2
:10129000F02382F8233010BD00ED00E0014B13F87D
:1012A00010007047B8EE0208064B5A6822F003029D
:1012B00002435A6080005A6802F00C028242FAD15E
:1012C000704700BF00100240030AC2B2012003F1C0
:1012D000804303F504331968904008431860704751
:1012E0000121030A03F1804303F504331A68C0B2F5
:1012F00001FA00F022EA000018607047030A03F1C7
:10130000804303F504331A680223C0B203FA00F0E5
:1013100010407047054A0168536823F474130B4367
:10132000416809680B435360704700BF00100240DA
:1013300010B50446FFF7B2FF074B53F820200748CB
:1013400000EB4400437803EBC20301229B0003F14E
:1013500084431A6010BD00BF40010020B8EE0208AF
:1013600010B50446FFF79AFF084B53F820200848B1
:1013700000EB4400437803EBC20301229B0003F11E
:1013800084431A6000221A6010BD00BF580100207B
:10139000B8EE020810B5054A054C536854F8200011
:1013A00023EA00030B43536010BD00BF001002404E
:1013B000A4EE020810B50446FFF770FF074B53F880
:1013C0002020074800EB4400437803EBC2030022CF
:1013D0009B0003F184431A6010BD00BF4C01002044
:1013E000B8EE020801EBC000800000F1844002600A
:1013F000704710B504460079FFF79AFF2079BDE8E1
:101400001040FFF7ADBF012206210068FFF7EABFD9
:10141000002206210068FFF7E5BF10B50C46016801
:1014200003464A6822F0E0024A600268126862409D
:1014300012F4205F01D0FFF7EBFF1A681846146022
:10144000BDE81040FFF7DFBF134343F00403194327
:10145000FFF7E3BF0122006811460430FFF7C2BF67
:101460000068002201210430FFF7BCBF00680122A0
:1014700000210430FFF7B6BF002203685B0103F1CF
:101480008443C3F880207047F8B51046069C9DF849
:101490001C709DF820609DF8245081B10B223946C4
:1014A0002046FFF787FD042231462046FFF782FDE4
:1014B0000B2229462046BDE8F840FFF77BBD1946C0
:1014C0000422FFF777FD042239462046FFF772FD1C
:1014D0000B2231462046FFF76DFD0422E9E7FEE7C7
:1014E0000722024B58601A60704700BF10E000E00E
:1014F000044A136801331360034B1B6803B1184798
:10150000704700BFC82700209811002011F0010F7C
:1015100070B501F1FF340DBF082500256FF0FF0104
:101520006FF47F410068C4F34004183050F8246021
:1015300013433140AB400B4340F8243070BD026888
:101540004B1E02F1404220329B0003EBC2030122FA
:101550009B0003F184431A607047000010B50446F5
:101560000948A0470948A0470948A0470948A0479B
:101570000948A0470948A0470948A0472346BDE8B5
:1015800010400848184700BF84010020AC0100202B
:10159000D0010020F4010020180200203C020020AD
:1015A000480200205402002010B504460079FFF7DD
:1015B000BFFE2079BDE81040FFF7D2BE00230268CD
:1015C00013600268D3604279012A9CBF02681362EB
:1015D000704703791E2B10D9212B0ED0202B0ED94A
:1015E000222B01D0252B04D102298CBF0020012001
:1015F00070474B1E584258417047012070470020E9
:10160000704700008B1C40F82320012342798B4057
:1016100010B5DB43EAB1012A41F65F6218BF01222F
:101620001340012204682361036803F140430C3333
:1016300001EBC3039B0003F184431A6042790379F1
:101640003ABB072915D8DFE801F007151515151A5B
:101650001A1F41F6FF62E3E71A2B0CBF19232C2354
:101660000122590903F01F0302FA03F3254A42F845
:10167000213010BD1A2B0CBF1B232E23F0E71A2B91
:101680000CBF1A232D23EBE71A2B0CBF18232B2397
:10169000E6E71B3B0C2BECD801A252F823F000BF6D
:1016A00001170008D5160008D9160008DD16000835
:1016B000E1160008E516000873160008E916000890
:1016C000ED160008F1160008F5160008F9160008D6
:1016D000FD1600081D23C3E71E23C1E73223BFE721
:1016E0003623BDE73723BBE71823B9E71923B7E74C
:1016F0001A23B5E72B23B3E72C23B1E72D23AFE75C
:101700001C23ADE700E100E00022036803F1404341
:101710000C3301EBC3039B0003F1844302311A60D5
:1017200040F82120704738B504460D461346002284
:10173000FFF7ECFE29462046BDE83840FFF7FFBE24
:1017400038B543790546022B0C4615D0042A13D828
:10175000DFE802F003132A2D3A00FFF7D5FF0268F5
:10176000631E02F1404220329B0003EBC2030022C1
:101770009B0003F184431A6038BD0022036803F123
:1017800040430C3301EBC3039B0003F184431A6015
:101790000823602221462846FFF7B8FE2146284646
:1017A000BDE83840FFF7CBBE00231022F2E74FF22E
:1017B000F11203689A61032203689A6003680122A8
:1017C0005B0103F18443D6E70122BDE83840FFF70F
:1017D000AABF000010B5074A1468E36821690B40EE
:1017E0001B0606D5536A23B19847236923F080036B
:1017F000236110BD8401002010B5074A1468E36816
:1018000021690B40DB0706D5936823B1984723690C
:1018100023F00103236110BD84010020F8B50C4DB5
:101820002F68FE683B691E4016F0400403D02C6A06
:101830000CB1A0474024B30604D5EB6913B1984717
:1018400044F020043B6923EA04043C61F8BD00BF76
:1018500084010020F8B5134D2F68FE683B691E40D7
:1018600016F0100403D0AC690CB1A0471024310766
:1018700004D56B6913B1984744F00804720704D586
:101880002B6913B1984744F00404B30704D5EB68FF
:1018900013B1984744F002043B6923EA04043C6115
:1018A000F8BD00BF84010020F8B51A4D2F68FE680E
:1018B0003B691E4016F0400403D02C6A0CB1A047CF
:1018C0004024F30604D5AB6913B1984744F01004E3
:1018D000300704D56B6913B1984744F008047107C9
:1018E00004D52B6913B1984744F00404B20704D51A
:1018F000EB6813B1984744F00204F30704D5AB68D2
:1019000013B1984744F001043B6923EA04043C61A5
:10191000F8BD00BFAC010020F8B51A4D2F68FE6875
:101920003B691E4016F0400403D02C6A0CB1A0475E
:101930004024F30604D5AB6913B1984744F0100472
:10194000300704D56B6913B1984744F00804710758
:1019500004D52B6913B1984744F00404B20704D5A9
:10196000EB6813B1984744F00204F30704D5AB6861
:1019700013B1984744F001043B6923EA04043C6135
:10198000F8BD00BFD0010020F8B51A4D2F68FE68E1
:101990003B691E4016F0400403D02C6A0CB1A047EE
:1019A0004024F30604D5AB6913B1984744F0100402
:1019B000300704D56B6913B1984744F008047107E8
:1019C00004D52B6913B1984744F00404B20704D539
:1019D000EB6813B1984744F00204F30704D5AB68F1
:1019E00013B1984744F001043B6923EA04043C61C5
:1019F000F8BD00BFF4010020F8B51A4D2F68FE684D
:101A00003B691E4016F0400403D02C6A0CB1A0477D
:101A10004024F30604D5AB6913B1984744F0100491
:101A2000300704D56B6913B1984744F00804710777
:101A300004D52B6913B1984744F00404B20704D5C8
:101A4000EB6813B1984744F00204F30704D5AB6880
:101A500013B1984744F001043B6923EA04043C6154
:101A6000F8BD00BF1802002010B5074A1468E368EB
:101A700021690B40DB0706D5936823B1984723699A
:101A800023F00103236110BD3C02002010B5074A7A
:101A90001468E36821690B40DB0706D5936823B11E
:101AA0009847236923F00103236110BD48020020F9
:101AB00010B5074A1468E36821690B401B0606D578
:101AC000536A23B19847236923F08003236110BD33
:101AD0005402002010B5074A1468E36821690B40DE
:101AE000DB0706D5936823B19847236923F00103E8
:101AF000236110BD54020020F8B50C4D2F68FE681C
:101B00003B691E4016F0400403D02C6A0CB1A0477C
:101B10004024B30604D5EB6913B1984744F0200480
:101B20003B6923EA04043C61F8BD00BF5402002075
:101B3000F8B5134D2F68FE683B691E4016F010047F
:101B400003D0AC690CB1A0471024310704D56B69F0
:101B500013B1984744F00804720704D52B6913B1F8
:101B6000984744F00404B30704D5EB6813B19847D1
:101B700044F002043B6923EA04043C61F8BD00BF61
:101B80005402002000223F2110B504464368103063
:101B90009A801860DA801981A3689A80DA8004F14B
:101BA000500219811A6094F89000FFF7C1FB94F974
:101BB0009130002B08DB0122591103F01F0302FAB8
:101BC00003F3024A42F8213010BD00BF00E100E0FB
:101BD0000368DA6842F02C02DA60DA6842F40052F4
:101BE000DA60704710B5036881688C88CA8892B241
:101BF000A242FAD1DA68910402D51A685206F9D5E0
:101C0000DA6822F40052DA60426893889BB2D3808B
:101C1000826893889BB2D38010BDF0B50B46064610
:101C20000468B568581AAF88ED88ADB2BD4204D1DA
:101C300025682D0601D5824210D8E36823F0800381
:101C4000E3609042B3680DD39A88DB889BB29342DD
:101C50001EBFE36843F08003E360F0BD13F8010B9F
:101C60006060DEE7DD889F880135BD42ECD0DF880B
:101C70001D89ADB2BD4203D19D88ADB2002DE3D028
:101C8000DD8811F800C01F68ADB207F805C0DF8815
:101C90001D890130ADB2BD420FBF0025DD88013581
:101CA000ADB2DD80CDE703468288016892B2885CE0
:101CB00099881A89C0B292B28A420FBF00229A88CC
:101CC000013292B29A80704738B5C3888288013356
:101CD000934204460D4607D0C28803899BB29342C3
:101CE00014D183889BB28BB92046FFF7DCFFE388D1
:101CF00022689BB2D554E28823899BB293420FBFDE
:101D00000023E38801339BB2E38038BD4FF0FF30FE
:101D1000EDE770B51E460546084611460422059CAF
:101D2000FFF748F90B229DF810103046FFF742F9F3
:101D300029686302CA6803F4F05322F4F0521204D3
:101D4000120C1343CB602A682402136904F4405434
:101D500023F440531B041B0C1C43146170BD38B5A5
:101D60000546144611B900F0FDF801461923594300
:101D7000A200B1FBF2F26421B2FBF1F001FB1023EF
:101D80001B013233B3FBF1F303F00F032C6843EA7A
:101D900000139BB2A36038BD10B50446084B186809
:101DA000A047084B1868A047074B1868A047074B87
:101DB0001868A047064B18682346BDE8104018472E
:101DC00084020020880200208C0200207C02002077
:101DD0008002002010B5104CE368980607D52368F0
:101DE000990604D561680D48C9B2FFF76DFFE36835
:101DF0001A060BD523681B0608D509488288C388B4
:101E00009BB2934203D0FFF74EFF606010BDE368C2
:101E100023F08003E360F9E700380140CC11002093
:101E2000D811002010B5104CE368980607D5236838
:101E3000990604D561680D48C9B2FFF745FFE3680C
:101E40001A060BD523681B0608D509488288C38863
:101E50009BB2934203D0FFF726FF606010BDE3689A
:101E600023F08003E360F9E700440040E411002020
:101E7000F011002010B5104CE368980607D52368D0
:101E8000990604D561680D48C9B2FFF71DFFE368E4
:101E90001A060BD523681B0608D509488288C38813
:101EA0009BB2934203D0FFF7FEFE606010BDE36873
:101EB00023F08003E360F9E700480040FC110020B4
:101EC0000812002010B5104CE368980607D5236867
:101ED000990604D561680D48C9B2FFF7F5FEE368BD
:101EE0001A060BD523681B0608D509488288C388C3
:101EF0009BB2934203D0FFF7D6FE606010BDE3684B
:101F000023F08003E360F9E7004C00409C110020BF
:101F1000A811002010B5104CE368980607D5236877
:101F2000990604D561680D48C9B2FFF7CDFEE36894
:101F30001A060BD523681B0608D509488288C38872
:101F40009BB2934203D0FFF7AEFE606010BDE36822
:101F500023F08003E360F9E700500040B411002053
:101F6000C011002008B590F89000FFF797F920B154
:101F70000128034818BF002008BD0248FCE700BF45
:101F800000A24A040051250230B548F28005094CF0
:101F9000226822F4804222F070022A4342402260EA
:101FA000236823F4E04323F040032B434B4023609A
:101FB00030BD00BF005C0040284B072818BF1870D8
:101FC0001A78052A48D8DFE802F003131E232B36BF
:101FD0004FF6FB71224A106C014011644FF43F41EF
:101FE000116406221A701F4B1B685A7B1A737047C4
:101FF0004FF6FB711A4A106C014011644FF43F41D7
:102000001164042202E002225A7003221A7006E0D0
:102010005A78013AD2B25A705A78002AF1D07047F1
:102020000F490A6C92B242F010020A6405221A703B
:102030000A225A7070475A78013AD2B25A705A78C6
:10204000002AECD14FF6EF720549086C02400A6491
:10205000044A1268517B11730622D7E7CC2700206F
:10206000005C0040740500202DE9F0415F4D604A9E
:102070002B68546C1B68A4B223405E0506D56FF430
:10208000806353645B4B1B685B6898472A681368DE
:102090002340980442BF6FF40051554B59641368B4
:1020A0002340D90406D56FF4C052514B00205A6426
:1020B000FFF782FF2B681A68224012050FD54C49A2
:1020C0000A6C92B242F0080042F00C0208640A6402
:1020D0001A7B5A7303221A736FF4C0524A641A6847
:1020E0002240970542BF6FF40071414A51641B685A
:1020F0002340DE0506D56FF480723D4B07205A64FD
:10210000FFF75AFF2B681B681C40240403D5384C8A
:10211000676C3B0401D4BDE8F0816FF4004317F015
:102120000F06636438D148F68003D4F8008018EABB
:10213000030FECD01FFA88F32F4D304E03F44052BA
:102140004FF4005003F03003202133802A80FFF742
:102150001BFFF80623680ED423F4E14323F0700339
:102160001B041B0C236000F09BFD31882888BDE810
:10217000F041FFF709BF18F0800FEDD123F0700395
:102180001B051B0D18F4006F236002D000F0A6FBA6
:10219000EBE700F003FDE8E7B40004F1804404F548
:1021A000B844276839040DD5236823F070031B0554
:1021B0001B0D23602A6806F180439268013B52F8A8
:1021C000233098473A06A2D5236806F1804623F4C7
:1021D000E14323F070031B041B0C23602B68013EBA
:1021E0005B6853F82630984791E700BF74050020DC
:1021F000005C0040D4270020CE270020D0270020FC
:10220000800000F1804000F5B840036823F480436B
:1022100023F0700343F4004343F08003594001600E
:102220007047000018B90722024B1B681A82024847
:10223000704700BFDC270020E405002000220121B8
:1022400010B5104B1B689A720F4B19640F49086840
:102250000260086804681C644FF4E0545A64046027
:10226000086804681C644FF43F445A6404600868BA
:10227000006818644FF48010054B18600B681A73DF
:1022800010BD00BFDC270020005C0040740500206A
:1022900000E100E013B5104B1A68137803F07F03D8
:1022A000212B16D1022808D0222801D0022405E0D3
:1022B00093780A4A03F0030313700024084B1B6849
:1022C00023B102A901F8010D02209847204602B06F
:1022D00010BD0224FAE700BFDC27002018120020FE
:1022E0001412002021B901288CBF02200020704761
:1022F00002207047054B1B689B78032B04D80449C8
:1023000001EBC30100F0BCBA00207047DC270020BD
:10231000CC050020014900F0B3BA00BF88050020B9
:10232000014900F0ADBA00BF9005002037B5114C4F
:102330002268127802F07F02212A02D0022003B024
:1023400030BDA0F12003012B0B4B0C4D1B6888BF47
:10235000002523B102A901F8010D02209847002DA4
:10236000ECD0236800249D615C822046A84720466B
:10237000E5E700BFDC27002014120020252200081A
:102380002DE9F04700254FF0C00948F68F1648F2B6
:1023900080074FF0400A434B434C1B68DFF83881FD
:1023A0009D7283F80990256523682846334043F4DD
:1023B00000732360236803EA08033B4383F01003A0
:1023C0002360226D394B520043F802A08022236D16
:1023D0005B0003F1804303F5C0431A60236823F4D4
:1023E000E24323F070031B041B0C2360304B1B687B
:1023F00093F82C1000F072F84FF440512846FFF784
:10240000FFFEA3682946334043F4C063A360226DF6
:10241000284B520013444FF480721A60A2680220C5
:1024200002EA08023A4382F02002A260FFF7E8FEC7
:10243000E36851463340E360226D1F4B5200134462
:102440004FF4887203201A6000F048F84FF44051AE
:102450000320FFF7D5FE636829461E406660226DA3
:10246000164B520043F802906368012003EA080308
:102470003B4383F020036360FFF7C2FE0122104B51
:1024800028461B681A7300F0EBFBFF220D4B1D6002
:102490000D4B1D600D4B1D600D4B1D600D4B1A70DB
:1024A000BDE8F087DC270020005C004008600040A9
:1024B000D4270020206000403860004010600040B9
:1024C000740500201C120020201200202812002079
:1024D0002C12002024120020BF8FFFFF0D4B0E4A4C
:1024E0001B6D3E2903EBC0004FEA400002440AD9AD
:1024F0004B09C80604BF03F1FF339BB29B0243F4B0
:102500000043136070474B08C90748BF01339B0263
:10251000F7E700BF005C00400C60004010B5064CBF
:1025200018B9012223681A8210BD044B1B681B686E
:10253000984720680A30F7E7DC270020D8270020DA
:1025400010B5064C18B9012223681A8210BD044B3D
:102550001B689B68984720680C30F7E7DC27002051
:10256000D827002010B51E4B1C68002310B9022389
:10257000238210BD1B4803802178024611F07F01A1
:1025800012D1617A8C0644BF022303700378480697
:102590004CBF23F0010343F001031370124B1B687F
:1025A0001B6998470F48E4E70129E2D0022915D1B9
:1025B000217901F00F039B0003F1804303F5B84339
:1025C00009061B6805D503F03003102BE6D1012363
:1025D000E3E703F44053B3F5805FF7E71846C8E735
:1025E000DC270020D2270020D82700202DE9F8433F
:1025F000234FDFF8A0803D682C8AD4B92E7A042EB0
:1026000017D120490B78012B0ED11F4B1A681F4B95
:1026100092B213445B001C6030230C70A8F80030A9
:102620003B681E72BDE8F88310230726A8F8003027
:10263000F6E7AB8A9C4294BF042602269C4228BF40
:102640001C46AB69204698478146002000F0B4FB49
:1026500022460146484600F052FB2146002000F089
:10266000C7FB2B8A4FF440521B1B2B826B8A1C44E6
:102670003023A8F80030064B6C821A80D0E700BFE8
:10268000DC27002030120020505C00400230002087
:10269000CE270020D027002010B50A4B0A491B681E
:1026A00049789A7891420AD3D97841B99C8834B94B
:1026B0009A72064B1B685B689847204610BD022043
:1026C000FCE700BFDC270020C8050020D827002039
:1026D00038B50F4A0F4D12682B68926999781879AE
:1026E00090472B6804469A7A7AB170B95A7962B9E0
:1026F000DB7853B9084B1B68DB6898472B681A795D
:10270000DA729A781A73204638BD0224FBE700BFBC
:10271000D4270020DC270020D827002038B52B4BF9
:102720001B68187810F07F0004D15A7A22F020023A
:102730005A7238BD022847D15A88002AF9D15A79ED
:10274000002AF6D11979224D21F08000840004F18D
:10275000804404F5B844226849B22D780029B4BFFA
:1027600002F0300202F4405285422DD962B39B7AC6
:1027700053B30029236811DA03F03003102B07D17B
:10278000C4B2204600F004FB3021204600F0D8FA05
:10279000104B1B685B6998470020CAE703F440535D
:1027A000B3F5805FF4D10C4D58B90C4B93F82C1055
:1027B00000F02CFB23682B409BB283F44053236032
:1027C000E6E700F0D2FAF5E70220B2E7DC270020C6
:1027D000C8050020D82700208FBFFFFF98050020E4
:1027E00038B51B4B1B4D18682D78017921F08004FA
:1027F000A30003F1804303F5B8431A6849B20029E6
:10280000B4BF02F0300202F44052A5421DD9448800
:10281000DCB9D2B1827AC2B11A680029B5BF22F4FC
:10282000E04222F4804222F0400222F07002B5BF62
:1028300092B292B282F0100282F480521A60064B79
:102840001B689B699847002038BD0220FCE700BF49
:10285000DC270020C8050020D827002008B5064B3B
:102860001A68537A43F020035372044B1B68DB69E8
:102870009847002008BD00BFDC270020D827002093
:1028800010B5054B1C68628A18B98B889B1A238285
:1028900010BD08681044FBE7DC27002008B50B4B8F
:1028A000002093F82C1000F0B1FA094B1B68187A3D
:1028B000082806D14FF48052064B1A801022064B8E
:1028C0001A80A0F109035842584108BD980500201C
:1028D000DC270020CE270020D027002073B5964C9F
:1028E000964E216832680B7A092B16D0944B92B21F
:1028F00013445B001B885B0003F1804303F5C04376
:102900001A780A7059782268517099882268518023
:102910001989226891809B89D380012223681A72C9
:10292000DA885D78002A64D11A7812F07F024DD1DE
:10293000092D03D1FFF7B0FE40BB16E0052D20D1D5
:1029400093F90220002A07DA08232268137202B0E2
:10295000BDE87040FFF7A2BFDA78002AF4D19A8868
:10296000002AF1D19B7A002BEED13268754B92B2DE
:10297000134400225B001A603022734B1A80062336
:10298000E3E7032D14D19A78012A08D06F4B28462B
:102990001B685B699847032828D10923D5E79A88E3
:1029A000002AF3D15B7A9A06F0D5FFF757FFC3E709
:1029B000012DEBD19A78012AE8D19A88002AE5D135
:1029C0005B7A9B06E2D5FFF7A9FEB5E7012A04D1A1
:1029D0000B2DDBD1FFF77CFEAEE7022AD6D1012D0D
:1029E000F1D0032DD2D1FFF7FBFEA5E70028ABD134
:1029F000BBE7062D12D11A7855065AD1DB78534A17
:102A0000012B126802D1D369DBB952E0022B01D14C
:102A1000136AF9E7032B4CD1536AF5E7002D54D123
:102A20005988002945D15A6822F0FF02B2F5003FCB
:102A30003FD11A7812F07F0216D19B88002B38D133
:102A4000434B0025226828465582936198472846C3
:102A50004FF6FF7123681A8A8A4233D0022801D0C8
:102A6000002A55D108222EE0012A0AD1374A1879C6
:102A7000126892699047E0B923689B7A002BDFD1F6
:102A800017E0022A15D11A7902F00F018B00100607
:102A900003F180432F4803F5B8431B6800784CBF0F
:102AA00003F0300303F44053884202D912F0700F50
:102AB000E4D0264B22681B6850781B69984703288E
:102AC000C6D1236809221A7241E7082D04D11B7868
:102AD0005B06EED1204BB4E70A2DEAD11A7802F05A
:102AE0007F02012AE5D19A7A002AE2D0598800298A
:102AF000DFD15A6822F0FF02B2F5803FD9D1134AE4
:102B000018791268926990470028D2D1134B98E740
:102B100093F90010002936DAD9880C4C01910198FC
:102B2000246882421CD9019A1A8294F82C209A8235
:102B3000FFF75CFD0BE700BFDC270020505C004086
:102B40000430002002300020D0270020D4270020AD
:102B500065250008C80500201D250008412500083E
:102B60008A42E2D294F82C00824203D20021094A20
:102B70001170DAE792FBF0F100FB1122002AD4D1A8
:102B8000044A0121F4E703221A724FF44052024B27
:102B90001A80DCE630120020CE270020F8B52A4E3D
:102BA0003468237A032B01D0052B44D1A369B3B138
:102BB000258AA5B1A28A954228BF1546284698477E
:102BC000238A07465B1B2382638A00202B4463828F
:102BD00000F000F92A460146384600F09FF8238AA3
:102BE00053B100214FF44052184B08461A8000F0B0
:102BF000FFF83022164B1A80228AA18A336891424C
:102C000009D803221A7233681B7A32681372BDE83E
:102C1000F840FFF743BE0AB10522F3E70621197217
:102C20000C4B19680C4B89B20B445B001A603022C4
:102C3000074B1A80E7E7072B03D1084B1B68DB68BB
:102C400098470823E1E700BFDC270020CE270020BB
:102C5000D0270020505C004002300020D427002004
:102C6000002210B50C4B1C78A24204D30B4B40F051
:102C70008000186010BD02F1805303F5B8539B002B
:102C8000196821F4E04121F070010904090C114395
:102C900019600132E8E700BFC80500204C5C004025
:102CA00010B5134C23681A7A022A01D0042A09D1DC
:102CB000FFF79CFC23681B7A22681372BDE8104062
:102CC000FFF7ECBD062A10D15A78052A09D11A78E7
:102CD000520606D19878FFF7C3FF064B1B681B6AA4
:102CE0009847054B1B689B6898470823E4E700BF9B
:102CF000DC270020D8270020D4270020704701F1CE
:102D00000051013201F540515210490002B970479B
:102D100030F8023B013A21F8043BF7E7002310B5F5
:102D200001F10051013201F54051521049009A421F
:102D300000D110BD51F8234020F813400133F6E7CD
:102D4000800000F1804000F5B8400368CA0623F413
:102D5000E04323F040039BB248BF83F010038A0690
:102D600048BF83F0200303607047800000F180407B
:102D700000F5B84003685B0409D5036823F4E04319
:102D800023F070031B041B0C43F480430360704763
:102D9000800000F1804000F5B84003685B0609D56B
:102DA000036823F4E04323F070031B041B0C43F07F
:102DB0004003036070470000054B1B689BB203EBA8
:102DC000C00000F1005000F54050400000887047FE
:102DD000505C0040044B1B689BB203EBC000034BEC
:102DE00003445B0018887047505C004004300020AA
:102DF000044B1B689BB203EBC000034B03445B0016
:102E000019607047505C0040023000200D4B0E4AA4
:102E10001B683E299BB203EBC00002444FEA42020A
:102E20000AD94B09C80604BF03F1FF339BB29B02CA
:102E300043F40043136070474B08C90748BF013390
:102E40009B02F7E7505C00400630002013B50446B3
:102E50008DF8071001220DF107012046FEF7DDFE77
:102E60000028F7D002B010BD38B505464C1E14F945
:102E7000011F01B938BDC9B22846FFF7E7FFF6E7E1
:102E800008B5134B03221C6801212046FEF792F877
:102E9000002301211A46B2F5007F0CD072B1B3F5C0
:102EA000007F01D100230A449A420CD902252068F0
:102EB00005610133EFE74FF0FF31F0E7B3F5007F35
:102EC0004FF00101EED020684FF40035F0E700BF6D
:102ED000A0EE020808B5034B0BB100F045F862B64E
:102EE000FFF7CEFF692F000808B5044B23B100F0AF
:102EF0005BF80349FFF7B8FFFFF7ECFFA92F0008C5
:102F00008BEF0208FDF7D2B908B500F075FC00F0B0
:102F100039FDFCE723F0FCBD32280BD8064B03EB50
:102F2000001043681A68437B343203F18043013B4D
:102F300042F82310704700BF38EB020838B50C4642
:102F40000546072104EB042400F046F8A1B2284608
:102F5000BDE83840FFF7E0BF002203685B0103F1E2
:102F60008443C3F8002170474FF0FF3310B50A4C7B
:102F70000A48C4F88030C4F88430FEF7EFFA0848F5
:102F8000FDF7F4FD0748FEF707FF4FF40023236029
:102F90004FF48013236010BD00E100E0BD15000870
:102FA000592F0008E51B000810B5094B094C18689B
:102FB0000B220221FDF7FEFF2068FEF7E3FD2068EB
:102FC0004FF416520021FEF7CAFE206810BD00BF64
:102FD0009CEE020888020020322838B53BD8082928
:102FE00039D8DFE801F00529171A1D20172326001C
:102FF00000240322184B00011D18297B1858FDF7E7
:10300000D9FF686838B3697BCCB1BDE8384001228C
:10301000FEF796BB00240422ECE700242246E9E7F1
:1030200000240922E6E700240822E3E701240B221A
:10303000E0E701240F22DDE700240722DAE7026837
:103040004B1E02F1404220329B0003EBC2039B0067
:1030500003F184431C6038BD38EB020808B5012138
:103060001048FDF7CDFA02210F48FDF7C9FA0321F8
:103070000E48FDF7C5FA04210D48FDF7C1FA0521F8
:103080000C48FDF7BDFA06210B48FDF7B9FA0721F8
:103090000A48FDF7B5FABDE8084008210848FDF7E1
:1030A000AFBA00BF34120020381200203C120020BA
:1030B0004012002044120020481200204C12002030
:1030C0005012002032280DD8074B000119181B5848
:1030D000097B1B689A6801238B40134214BF0120AF
:1030E000002070470020704738EB0208322810B5E6
:1030F0000ED8084B00011C181B58B1FA81F11A6850
:103100000123207B49098340090103FA01F1116180
:1031100010BD00BF38EB02080A4A0B4B11689B68D0
:1031200000BF00BF12688A42F6D14820C3F58C3335
:1031300003F5A073B3FBF0F34FF47A7000FB023099
:10314000704700BFC827002010E000E038B50446F3
:10315000FFF7E2FF05465CB1FDF770FCFFF7DCFF0F
:10316000401BB0F57A7FF6D3013C05F57A75F5D1B1
:1031700038BD28B10C234343013B18460138FDD824
:10318000704700000449054BCA6822F4E06212044B
:10319000120C1343CB60704700ED00E00003FA050A
:1031A000704701207047000013B5104C204618F0FE
:1031B000E2FF2046042118F078FF204602220C4945
:1031C00018F076FF002302220A4900932046A0232C
:1031D00018F0D4FF204618F0C7FF204618F0B6FFBD
:1031E000204602B0BDE8104018F0B7BF5C120020C6
:1031F000EB0500205612002024280AD0252807D1EC
:103200000123054A32F81330044AC3F389031380BB
:1032100070470023F5E700BF56120020541200202B
:10322000044B03EB00135B6813B1C0B2FFF786BE1B
:10323000704700BF38EB0208024B0348196818F0CA
:1032400032BF00BF1C0000205C12002010B5074CEC
:10325000032294F84C10206CFDF7ACFE236C94F81C
:103260004C101A6801238B40136110BD38EB020823
:10327000062838B58CBF00250A4B0B4C98BF1D5C47
:103280002046E46617F00BFB2946204617F019FB91
:103290002046012117F022FB2046BDE838400021DE
:1032A00017F029BBB0EF0208B8260020FF21014823
:1032B00017F03CBBB82600200B460246002101480F
:1032C00017F0F2BBB82600200146014817F078BC81
:1032D000B826002070B50D46064C0146204617F072
:1032E0006FFC29462046BDE8704001234FF4007270
:1032F00017F05ABCB82600200228F8B506460D463D
:1033000039D0052836D100262C4C02222368012111
:103310005B0103F184431E602046FEF711FA284941
:103320004FF6FF70B1FBF5F11122814228BF014633
:1033300023685E629A62D8629A69204622F0FF0290
:103340009A6159635B0103F184430121DE611D4AE7
:10335000FEF758F901213220FDF776FF012223689C
:103360005B0103F18443C3F8802223685B0103F10E
:1033700084431A60F8BD0027134C024623680121DC
:103380005B0103F184431F602046FEF7D9F940F248
:10339000E73223680D495F62B1FBF5F19A624FF69F
:1033A000FF72914228BF1146DA6220465963084AEB
:1033B0000121FEF727F931461C20CDE71802002035
:1033C00000093D00D56B0108AC0100204019010047
:1033D000D57E010802280CD005280CD1074B1B68AC
:1033E0005B0103F18443D3F88401003018BF01204E
:1033F0007047034BF3E70020704700BF180200201E
:10340000AC010020013807289ABF024B53F8200076
:1034100000207047B8EF02080120014B1870704778
:103420006C12002008B518F06BFF0022014B012040
:103430001A7008BD6C1200202DE9F8431B4D984608
:103440002B7806460C46174683B118F04DFF1848F6
:1034500018F002FF052802D00120BDE8F8831548C6
:1034600018F0FAFE0528F7D100232B70254607EB4C
:1034700004094D45A5EB04030DD0306815F8011B78
:1034800000F1806000F5FC301844400018F006FFA1
:103490000528EED0E0E7BAB2404621460EF0B8FC6F
:1034A000326800203A443260D7E700BF6C12002037
:1034B00000F0030800F803082DE9F74305460F461E
:1034C00090461E4600249DF828902A6844452244D0
:1034D00013D002F1806202F5FC32520013788DF8AD
:1034E0000730B9F1000F00D03B5501220DF1070163
:1034F00030460EF08DFC0134E7E700202A6003B06F
:10350000BDE8F083FDF798BE70470368C9B21B6839
:10351000184700000023054A9A56824204D001331E
:10352000162BF8D1002070470120704731F10208B6
:1035300008B500F071FABDE80840014800F05ABA39
:1035400012F0020808B511F05FFD11F0CBFDFE206E
:1035500010F078FEBDE8084010F052BE124AD2F8D2
:10356000803092F88C101868012303FA01F10904E5
:103570000161D2F81011086892F81C1103FA01F1E8
:1035800009040161D2F82012086892F82C1203FA9B
:1035900001F109040161D2F8D01292F8DC22096825
:1035A00093401B040B61704738EB0208044BD3F8BF
:1035B000D02293F8DC12012312688B40136170470C
:1035C00038EB020840B9054BD3F8D02293F8DC124F
:1035D000012312688B401361704700BF38EB02086B
:1035E000012130B4124BD3F88020106893F88C205E
:1035F00001FA02F202610F48027822F0010404701D
:10360000D3F81041256893F81C4101FA04F42C61A9
:1036100022F003040470D3F8204293F82C3224687B
:10362000994022F007022161027030BCFFF7BEBF53
:1036300038EB02087717002008B540F2E933013B68
:1036400008D000BF00BF00BF42F62F22013A00BFE2
:10365000FCD1F4E772B640F2E933013B08D000BF79
:1036600000BF00BF41F29312013A00BFFCD1F4E762
:1036700014F0C8F8FFF746FFFCE70000044608B561
:1036800014F0C0F800F0C8F9054800F0B3F9054897
:10369000002C18BF20460EF085FAFFF7CDFF00BFC3
:1036A0002AF0020821F0020870B5384B05461B7855
:1036B000032B01D806F0B2F8354B364A1B68146864
:1036C0009BB1354909680B44E31A002B0DDB00F070
:1036D000A3F9324B3248196800F0A4F90A213148A5
:1036E000FFF713FF0020FFF7C9FF2F4B1B6843B103
:1036F0002E4908782E49097888420ED01268264B48
:103700001A602C4D02F02AFF2B68E31A002B03DB12
:10371000643411F011FC2C6070BD274A1178274ADF
:1037200089BB85BB1C4909680B44E31A002B2ADBC3
:103730001378002BE5D101231370214AD2F88010B1
:10374000086892F88C1003FA01F101611D480178B4
:1037500021F001050570D2F810512E6892F81C5125
:1037600003FA05F5356121F003050570D2F8205202
:1037700092F82C222D68934021F007012B610170F3
:10378000FFF714FFBDE700231370BAE78014002091
:1037900078120020C8270020B4120020C412002094
:1037A000D8EF020874100020F0050020D11E002080
:1037B000D21E0020701200209812002074120020E7
:1037C00038EB02087717002010B504460EF03AF8DF
:1037D00004F062FF2046FFF767FF14F023F90EF0B4
:1037E000A1FA044B1B781BB9BDE8104014F086BE4B
:1037F00010BD00BF7C12002037B5FFF7C3FC4C4A58
:10380000136823F0E06343F00073136013F06AFA67
:103810004FF4E1314748FCF7E1FE474B47481B684E
:1038200000F0E8F800F0F2F8FFF7BBFCC50704462B
:1038300002D5434800F0DEF8A00702D5414800F069
:10384000D9F8610702D5404800F0D4F8220702D524
:103850003E4800F0CFF8A30602D53D4800F0CAF874
:10386000FFF79EFC3B4800F0C5F820213148FFF7E8
:103870004CFE394800F0BEF80A212E48FFF745FEFD
:1038800000F0C4F8354800F0B5F8354800F0B2F85B
:10389000344800F0AFF800F0B9F8334800F0AAF867
:1038A00000F0B4F80020FCF7B5FD0DF10701091A8E
:1038B0002E4800F0C3F82E4C4FF4D8612D4800F08C
:1038C000BDF80A211B48FFF720FE0DF00FFF0EF098
:1038D00075F907F0ABF9237823B910F0C5FA08B1F0
:1038E00001232370244C254D2168286819F004FA1F
:1038F00069682060606819F0FFF9A9686060A068D5
:1039000019F0FAF9A06010F07BFC1D4813F056FE88
:103910000EF06CFF10F0E2FA12F044FDFFF7F4FD38
:1039200001231A461946184601F0D6FE03B030BDF1
:103930000400014074100020C82700203E1903082D
:1039400050F0020859F002086AF002087CF0020800
:103950008DF002089EF00208A5F00208B0F00208FF
:10396000C0F00208CBF00208F4F002080BF10208E4
:103970006D1200201AF1020884170020A4170020FD
:10398000D421002008B50020FFF71EFF16F0A8FD87
:10399000114B1B789B0613D516F0B6F905F012FCF7
:1039A000FFF7D0FD0EF0FAFE13F02CFF00210846C1
:1039B00013F0C0FB0022094B09481A7005F09EFC69
:1039C000084B1B78032B01D805F028FF05F09CFD60
:1039D00010F080FBD7E700BFE0250020F4050020B1
:1039E0004AF0020880140020014815F0E1BF00BF32
:1039F0007512002010B5044614F9011B19B10248D4
:103A0000FFF783FDF8E710BD741000200148FFF7B1
:103A1000F1BF00BF59F102080148FFF7EBBF00BF3B
:103A200052F1020810B50C46FFF7E4FF2146BDE84D
:103A300010400148FCF79EBE7410002010B50C46E3
:103A4000FFF7D8FF2146BDE810400A220148FCF7E5
:103A5000F7BE00BF7410002010B50C46FFF7CAFF78
:103A60002146BDE810400A220148FCF7FCBE00BF19
:103A70007410002013B50C46FFF7BCFF204618F069
:103A8000ABFD02230246009302480B46FCF7D0FF31
:103A900002B010BD7410002010B50C46FFF7AAFF4D
:103AA0002146BDE810400A220148FCF7FDBE00BFD8
:103AB00074100020034A044B002814BF1046184617
:103AC000FFF798BF7BF902088EF80208034A044BFF
:103AD000002814BF10461846FFF78CBF47F10208B4
:103AE0004CF1020810B50446322C06D93220323C83
:103AF000FFF72CFB13F096FFF6E72046FFF726FBB7
:103B0000BDE8104013F08EBF38B51B4B93F9003061
:103B1000012B2DD0194D19B10023194A2B601370B8
:103B2000184B1A682B68D31A002B21DB144C002881
:103B300094F900301DDB011D994219DB9842CCBF7E
:103B40004FF47A704FF4FA7003F001031902C91AA6
:103B500003EBC10103EBC1018900104401F55C7165
:103B6000286089B232200EF013F9237801332370D4
:103B700038BD4FF47A70E7E7F50500209412002075
:103B800090120020C827002010B5104B01461B786A
:103B90001B070AD40E4B1C783CB90E4BB3F9082016
:103BA0000D4BB3F900309A4209DB0B2000220BF0D9
:103BB00053F9BDE810400121002014F0DBBCFFF7F1
:103BC00025FF0648FFF716FF204610BD7E12002095
:103BD000582100202C21002072060020F1F102085B
:103BE00030B50F4B0F4C85B000680D46196819F0C1
:103BF0003FFAE16819F080F82346002243F80C0FE1
:103C000002920022211DCDE90052204604F1080253
:103C100012F066F805B0BDE8304011F063BA00BF9D
:103C200058060020841700202DE9F04F85B09DF93B
:103C3000405081462846884617469A469DF83840A7
:103C40009DF83CB0FFF7A0FF064648B924B10246F4
:103C5000294609200BF000F9304605B0BDE8F08F89
:103C6000BBF1000F28D024B10022294604200BF01C
:103C7000F3F8FFF7CBFE3A48FFF7BCFE01215046B0
:103C8000FFF742FF0321374B012093F90020197001
:103C900035499B460B4608701978019351B10021B4
:103CA00050460092FFF730FF0120FFF78DFDDDE960
:103CB0000023F1E78BF8002024B1002229460520DB
:103CC0000BF0CAF80021D9F8000019F0B1FA30B9A8
:103CD000264B04A941F8043D4846FFF781FF002127
:103CE000D8F8000019F0A4FA68B9214D214BD5F895
:103CF0003890AB63204B04A941F8043D4046FFF7E0
:103D00006FFFC5F838900021386819F0B9FA60B132
:103D100024B10022062011460BF09EF8174B04A98F
:103D200041F8043D3846FFF75BFF002C94D0032395
:103D300000220C4D114695F900802B700A4B07208C
:103D40001A700BF089F80E4B93F900301BB9012063
:103D5000FFF73AFDF7E7012B85F80080D3D07BE72A
:103D60006EF10208B01200207D1200200000C04059
:103D70001C1F00200000C8410000F041000040402E
:103D8000A41200202DE9F743814610460E46144642
:103D9000FFF7FAFE054648B926B10246014609205A
:103DA0000BF05AF8284603B0BDE8F08326B1002294
:103DB000214603200BF050F8154F02AC44F8047D67
:103DC000144B214668460093FFF70AFF41F2883002
:103DD000FFF788FE104E114B21460093336B684667
:103DE0000193FFF7FDFE0E4BD6F83880B363D9F888
:103DF00000302146684600930197FFF7F1FE00204E
:103E0000C6F83880FFF7DEFB6420FFF76BFEC9E7DA
:103E100000004842000080C01C1F002000004041FC
:103E20000000C8412DE9F7433B4D1F462B788046E3
:103E30008946164623B10024204603B0BDE8F0832E
:103E4000364B1B7818070FD40021106819F0F0F9D1
:103E500050B9334B1C783CB9324BB3F90820324B84
:103E6000B3F900309A423EDB0123304A2B701378BD
:103E7000590749D40EF0A6FC2D4C2E4B0FCB84E8ED
:103E80000F0011F02FF90021D8F8000019F0D0F937
:103E900098B9234B1B784BB9224B586819F0FAF9A3
:103EA000214B00B2B3F90030984206DB224B02A945
:103EB00041F8043D4046FFF793FE012211461046AB
:103EC00010F006FC18B9494602200DF0FBFF002156
:103ED000306819F0ADF9E8B9012239463046FFF7EC
:103EE00051FF0124A8E7FFF791FD1448FFF782FD79
:103EF000002FA0D02146224609200AF0ADFF21461E
:103F00000F480DF071FC97E76FF3820313700223E3
:103F10002B70AFE701248FE7981200207E1200205B
:103F2000582100202C21002072060020E0250020CE
:103F3000801200208417002000004842F1F102089E
:103F40005FF10208002210B504461146904214BFEA
:103F5000042002200AF080FFFFF758FD0448054BBB
:103F6000002C08BF1846BDE81040FFF743BD00BF56
:103F70009AF10208BCF102082DE9F84F8946834600
:103F8000FFF7E0FF01214846FFF7BEFD244A254C1C
:103F90001368254F03F52F43C83323600023237193
:103FA000032397F900A03B70012390461F4D2B700F
:103FB0002B7883B300214846FFF7A6FD237933B35E
:103FC00000220A2011460AF047FFFFF71FFD18489C
:103FD000FFF710FD2E781EB10120FFF7F5FBF9E782
:103FE00030462660267113F09BFB3046FFF7CCFD70
:103FF0005846FFF7A7FF0121D8F80030484603F5DF
:104000002F43C833236026712970FFF77DFD0120FF
:10401000FFF7DAFBCCE787F800A0BDE8F88F00BF18
:10402000C827002024210020B01200207D1200208B
:10403000D4F102082DE9F043354C9946237887B036
:1040400006460F469046002B5FD00020314B1D796D
:104050001860187113F064FB65B92F4B1B784BB9CE
:104060002E4B586819F016F92D4B00B2B3F90030F9
:10407000984209DB01234246CDE9015300933946BA
:104080004B463046FFF7D0FD0022264D1146082052
:104090000AF0E2FE0021E86819F0D4F830B1224BB2
:1040A00005A905F10C000593FFF79AFD1F49204B68
:1040B00005AA081F059310F045F91E4B05A91E48D7
:1040C000059310F033F9EB681C481D4A40F80C3F8B
:1040D000D36011F095FE0022092011460AF0BCFEC3
:1040E0002378013BDBB2237023B115F003FE237864
:1040F000013B2370134B93F90030022B01D10EF0DA
:10410000A5FB0DF05BFD08F01FF807B0BDE8F083DC
:104110009812002024210020582100202C2100206A
:104120007206002080120020000048428412002005
:104130000000C8420000A040881200209417002010
:10414000841700206817002010B50B6804461B690F
:10415000084698472379C0F3400210F01E0F60F321
:10416000000362F3410314BF0122002262F38203C1
:10417000C0F304426271C0F38072206062F34513A1
:10418000C00F60F386136FF3C7132371204610BD71
:104190000A3908B509291CD8DFE801F0051B0E1BF8
:1041A0001B1B1B1B1C1417F0B9FCBDE80840014683
:1041B0000A220A48FCF76EBB17F03CFBBDE808403A
:1041C000FFF784BC17F0E5FA18B12A210348FFF77E
:1041D0009CF908BD17F0E6FAF6E700BF741000205E
:1041E000093908B507290CD8DFE801F0150B0B0BCE
:1041F000040C0F1217F00CFB18B12A210A48FFF724
:1042000084F908BD17F0FBFAF6E717F0EFFAF3E7C9
:1042100017F0E3FAF0E717F004FBBDE808400146A9
:104220000A220148FCF70CBB7410002008B50921D4
:104230000148FFF76AF908BD7410002008B558213D
:104240000148FFF762F908BD7410002008B5592134
:104250000148FFF75AF908BD7410002008B55A212B
:104260000148FFF752F908BD7410002008B5452138
:104270000148FFF74AF908BD741000200000000053
:10428000F7B5044617461E469DF82050002900F059
:1042900033840921BA48FFF738F9162C00F2DD8380
:1042A000DFE814F01700DB03380061009200C5005E
:1042B00027017A01DB03B401DB03F301DB033302E3
:1042C0006402DB03DB03AD02EA0212034803790355
:1042D000AA03FFF7B3FF002F00F062840921A8486A
:1042E000FFF713F9FFF7B2FF002E00F0A0840921B9
:1042F000A348FFF70AF9FFF7B1FF2DB10921A04844
:10430000FFF703F9FFF7B2FF0A219D48FFF7FDF819
:1043100003B0F0BD9B4817F0EFFBFFF7D7FB002F72
:1043200000F03E8409219648FFF7EFF8964817F011
:10433000E3FBFFF7CBFB002E00F0798409219048C6
:10434000FFF7E3F8914817F0D7FBFFF7BFFB002D0D
:10435000DAD009218A48FFF7D8F88D4817F0CCFB4E
:10436000FFF7B4FBD0E7874B0A22B3F8401084482C
:10437000FCF766FA002F00F0138409218048FFF74C
:10438000C4F8814B0A22B3F840107D48FCF758FA74
:10439000002E00F04C8409217948FFF7B6F87B4BDA
:1043A0000A22B3F840107648FCF74AFA002DABD049
:1043B00009217348FFF7A9F80A22754BB3F840109A
:1043C0006F48FCF73DFA9FE76E4817F0D4FD0A22CC
:1043D00001466B48FCF734FA002F00F0E183092115
:1043E0006748FFF792F8684817F0C5FD0A220146B2
:1043F0006348FCF725FA002E00F019840921604873
:10440000FFF783F8614817F0B6FD0A2201465C48C1
:10441000FCF716FA002D3FF477AF09215848FFF753
:1044200074F85B4817F0A7FD0A220146C8E7554813
:1044300017F0A1FD18F010FD18F0CEF84EA3D3E947
:10444000002318F021F90023024600934C480B4644
:10445000FCF7EEFA002F00F0A38309214848FFF78C
:1044600054F8494817F087FD18F0F6FC18F0B4F836
:1044700041A3D3E9002318F007F900230246009373
:104480003F480B46FCF7D4FA002E00F0D0830921F8
:104490003B48FFF73AF83D4817F06DFD18F0DCFC9B
:1044A00018F09AF834A3D3E9002318F0EDF80023AC
:1044B0000246009332480B46FCF7BAFA002D3FF44F
:1044C00023AF09212E48FFF720F8314817F053FD9C
:1044D00018F0C2FC18F080F827A3D3E9002318F0E5
:1044E000D3F800230246009325480B46FCF7A0FAB8
:1044F0000AE7244817F008FA0A2201462048FCF788
:10450000C9F92448FFF776FA002F00F04983092102
:104510001B48FEF7FAFF1C4817F0F6F90A2201467D
:104520001748FCF7B7F91B48FFF764FA002E00F0B4
:104530007E8309211248FEF7E8FF144817F0E4F9DA
:104540000A2201460E48FCF7A5F91248FFF752FA75
:10455000002D3FF4D9AE09210948FEF7D6FF0C48DB
:1045600017F0D2F901460A220548FCF793F90948E9
:10457000FFF740FAC8E600BF8FC2F5285C8FF63F10
:10458000741000204C20002094200020DC2000200B
:104590000420002047F50208AD4817F0B1F90A22BF
:1045A0000146AC48FCF776F9AB48FFF723FA002F39
:1045B00000F0F6820921A748FEF7A7FFA74817F0E9
:1045C0009FF90A220146A348FCF764F9A248FFF7C5
:1045D00011FA002E00F02B8309219E48FEF795FF6B
:1045E0009F4817F08DF90A2201469A48FCF752F9C4
:1045F0009948FFF7FFF9002D3FF486AE0921954851
:10460000FEF783FF974817F07BF9ABE7904817F068
:1046100008F90A2201468F48FCF712F98E48FFF785
:10462000E9F9002F00F0BC8209218A48FEF76DFFEE
:104630008A4817F0F6F80A2201468648FCF700F986
:104640008548FFF7D7F9002E00F0F1820921814853
:10465000FEF75BFF824817F0E4F80A2201467D4826
:10466000FCF7EEF87C48FFF7C5F9002D3FF44CAE9F
:1046700009217848FEF749FF7A4817F0D2F80A2254
:1046800001467448FCF7DCF871E7714817F039F817
:10469000754A764B002814BF10461846FFF7AAF952
:1046A000002F00F07D8209216A48FEF72EFF6B483B
:1046B00017F027F86C4A6D4B002814BF10461846B7
:1046C000FFF798F9002E00F0B28209216148FEF749
:1046D0001CFF634817F015F8634A644B002814BFA9
:1046E00010461846FFF786F9002D3FF40DAE09215C
:1046F0005848FEF70AFF5B4817F003F85A4A5B4B2D
:10470000002814BF1046184632E7514817F094FCB1
:104710000A2201464F48FCF793F8002F00F0408230
:1047200009214C48FEF7F1FE4C4817F085FC0A229F
:1047300001464848FCF784F8002E00F078820921F1
:104740004448FEF7E2FE464817F076FC0A2201468E
:104750004048FCF775F8002D3FF4D6AD09213D48DF
:10476000FEF7D3FE3F4817F067FC5DE6384817F0C8
:1047700092FC3F4B014698423DD00A223548FCF757
:1047800093F8002F00F00C8209213248FEF7BDFE9D
:10479000324817F080FC364B0146984200F0E68123
:1047A0000A222C48FCF780F8002E00F040820921F4
:1047B0002848FEF7AAFE2A4817F06DFC2C4B01464C
:1047C000984200F027820A222248FCF76DF8002D5B
:1047D0003FF49AAD09211F48FEF797FE214817F0D4
:1047E0005AFC234B0146984200F05C820A22194889
:1047F000FCF75AF888E51F48FFF7FCF8C1E71448B2
:1048000016F0A3FFFFF762F9002F00F0C98109211C
:104810001048FEF77AFE114816F097FFFFF756F999
:10482000002E00F0048209210A48FEF76EFE0C48B3
:1048300016F08BFFFFF74AF9002D3FF465AD092113
:104840000448FEF762FE074816F07FFF88E500BFC8
:104850004C2000207410002047F50208942000200E
:10486000DC200020042000203AF5020840F5020870
:10487000FFFF0F004BF50208C14B93F84400FFF710
:1048800025F9002F00F08C810921BE48FEF73DFE7E
:10489000BD4B93F84400FFF719F9002E00F0C781D3
:1048A0000921B848FEF731FEB84B93F84400FFF7F2
:1048B0000DF9002D3FF428AD0921B248FEF725FE81
:1048C000B34B93F844004BE5AD4816F02CFF0A2299
:1048D0000146AC48FBF7DEFF002F00F061810921A3
:1048E000A848FEF712FEA84816F01DFF0A2201464E
:1048F000A448FBF7CFFF002E00F099810921A148C1
:10490000FEF703FEA14816F00EFF0A2201469D485D
:10491000FBF7C0FF002D3FF4F7AC09219948FEF7E3
:10492000F4FD9B4816F0FFFE0A2201469548FBF76E
:10493000B1FFE9E4924817F08DFB0A220146914845
:10494000FBF7A8FF002F00F02B8109218D48FEF70F
:10495000DCFD8D4817F07EFB0A2201468948FBF7F3
:1049600099FF002E00F0638109218648FEF7CDFDF6
:10497000864817F06FFB0A2201468248FBF78AFF40
:10498000002D3FF4C1AC09217E48FEF7BEFD8048F2
:1049900017F060FBC8E77A4817F002FB0A220146CD
:1049A0007848FBF74DFF002F00F0FA800921754889
:1049B000FEF7ABFD744817F0F3FA0A22014671487E
:1049C000FBF73EFF002E00F0328109216D48FEF713
:1049D0009CFD6E4817F0E4FA0A2201466948FBF78D
:1049E0002FFF002D3FF490AC09216648FEF78DFDA6
:1049F000674817F0D5FA17E5614817F0D8FA0A2288
:104A000001466048FBF746FF002F00F0C9800921EE
:104A10005C48FEF77AFD5C4817F0C9FA0A220146A5
:104A20005848FBF737FF002E00F001810921554857
:104A3000FEF76BFD554817F0BAFA0A2201465148B5
:104A4000FBF728FF002D3FF45FAC09214D48FEF72E
:104A50005CFD4F4817F0ABFA66E7012C43D0172CEA
:104A600046D1474817F0BDF90A2201464548FBF7F1
:104A700011FF002F00F0948009214248FEF745FD08
:104A8000012C77D0172C40F087803F4817F0A9F908
:104A90000A2201463B48FBF7FDFE002E00F0C780CE
:104AA00009213848FEF731FD012C00F0B780172CA2
:104AB00040F0B980354817F094F90A220146314890
:104AC000FBF7E8FE002D3FF41FAC09212D48FEF74F
:104AD0001CFD012C00F0E880172C40F0EA802C48E7
:104AE00017F07FF920E7264B0A2293F83810BDE72C
:104AF00021462348FFF74CFB002F51D009212148C4
:104B0000FEF703FD162CBBD801A353F824F000BF19
:104B1000E5420008814A00082D430008834300084D
:104B2000E74300086344000817450008BD45000836
:104B3000814A000831460008814A0008AF46000853
:104B4000814A00082947000891470008814A000867
:104B5000814A00081748000891480008E748000803
:104B600053490008B5490008174A00080948FEF7EC
:104B700041FF19E6044B0A2293F838108AE700BF78
:104B80004C2000207410002094200020DC20002005
:104B9000042000204BF5020821464948FFF7F8FAA7
:104BA000002E44D009214748FEF7AFFC162C3FF6F3
:104BB0007BAF01A353F824F0F7420008A94A00088C
:104BC000454300089F430008054400089744000837
:104BD0003B450008E1450008A94A00085546000881
:104BE000A94A0008D3460008A94A00084747000818
:104BF000B7470008A94A0008A94A00082F4800083A
:104C0000A94800080549000871490008D34900086F
:104C1000354A00082C48FEF7EDFED8E52B4B0A225A
:104C200093F838104BE721462848FFF7B1FA002DDA
:104C30003FF46AAB09212348FEF767FC162C3FF6C8
:104C400048AF01A353F824F005430008D34A0008F5
:104C50005B430008B943000823440008CB44000824
:104C60005F45000805460008D34A00087946000859
:104C7000D34A0008F7460008D34A000865470008F1
:104C8000DD470008D34A0008D34A00084748000817
:104C9000C1480008234900088F490008F14900086D
:104CA000534A0008084863E4094B0A2293F8381075
:104CB0003CE621460648FFF76BFAFFF725BB00BF2D
:104CC00094200020741000204BF50208DC20002006
:104CD000042000202DE9F041044617461E469DF8A9
:104CE0001850002900F0258209219748FEF70DFC95
:104CF0000C2C00F21A82DFE814F00D002E00640084
:104D00009400C500F6003101620118021802180271
:104D100018029301FFF792FA002F00F03382092165
:104D20008948FEF7F2FBFFF791FA002E00F052825D
:104D300009218548FEF7E9FBFFF790FA2DB109211B
:104D40008148FEF7E2FBFFF791FA0A217E48FEF761
:104D5000DCFBBDE8F0817D4816F075FD18B12A2115
:104D60007948FEF7D2FB002F00F00C82092176482B
:104D7000FEF7CBFB764816F066FD18B12A21724883
:104D8000FEF7C3FB002E00F0258209216E48FEF7D6
:104D9000BCFB704816F057FD18B12A216A48FEF78F
:104DA000B4FB002DD1D009216748FEF7AEFB6A485D
:104DB00016F049FD0028C8D02A216348FEF7A5FB5C
:104DC000C3E7624816F000FD18B12A215E48FEF7DD
:104DD0009CFB002F00F0D68109215B48FEF795FB74
:104DE0005B4816F0F1FC18B12A215748FEF78DFBFD
:104DF000002E00F0EF8109215348FEF786FB55484D
:104E000016F0E2FC18B12A214F48FEF77EFB002D78
:104E10009BD009214C48FEF778FB4F4816F0D4FC94
:104E2000C8E74A4816F0C7FC18B12A214648FEF7E1
:104E30006CFB002F00F0A68109214348FEF765FBBB
:104E4000434816F0B8FC18B12A213F48FEF75DFB35
:104E5000002E00F0BF8109213B48FEF756FB3D487C
:104E600016F0A9FC18B12A213748FEF74EFB002D99
:104E70003FF46BAF09213448FEF747FB364816F084
:104E80009AFC97E7314816F07BFC18B12A212E488E
:104E9000FEF73BFB002F00F0758109212A48FEF741
:104EA00034FB2B4816F06CFC18B12A212648FEF77B
:104EB0002CFB002E00F08E8109212348FEF725FBF4
:104EC000244816F05DFC18B12A211F48FEF71DFB8F
:104ED000002D3FF43AAF09211B48FEF716FB1E4890
:104EE00016F04EFC66E7194816F041FC18B12A216D
:104EF0001548FEF70AFB002F00F0448109211248F3
:104F0000FEF703FB124816F032FC18B12A210E48B6
:104F1000FEF7FBFA002E00F05D8109210A48FEF73A
:104F2000F4FA0C4816F023FC18B12A210648FEF7C3
:104F3000ECFA002D3FF409AF09210348FEF7E5FA2A
:104F4000054816F014FC35E7741000204C200020B2
:104F500094200020DC20002004200020B34816F01C
:104F6000F4FB18B12A21B248FEF7CFFA002F00F067
:104F700009810921AE48FEF7C8FAAE4816F0E5FBF4
:104F800018B12A21AA48FEF7C0FA002E00F02281AB
:104F90000921A748FEF7B9FAA74816F0D6FB18B1C1
:104FA0002A21A348FEF7B1FA002D3FF4CEAE092125
:104FB0009F48FEF7AAFAA14816F0C7FBFAE69B48FD
:104FC00016F0CCFB18B12A219948FEF79EFA002F63
:104FD00000F0D88009219648FEF797FA954816F018
:104FE000BDFB18B12A219248FEF78FFA002E00F07F
:104FF000F18009218E48FEF788FA8F4816F0AEFB43
:1050000018B12A218A48FEF780FA002D3FF49DAEA0
:1050100009218748FEF779FA884816F09FFBC9E610
:10502000824816F089FB804609218148FEF76DFA17
:10503000FFF704F909217E48FEF767FA40463A2156
:1050400008F1FF380CF022FF18F1030F02D97C4859
:10505000FEF7D0FC0A217648FEF757FA002F00F041
:10506000918009217248FEF750FA724816F064FBED
:10507000074609216E48FEF748FAFFF7E7F80921CD
:105080006B48FEF742FA38463A21013F0CF0FEFE2B
:10509000033702D96A48FEF7ADFC0A216448FEF7DF
:1050A00034FA002E00F0968009216148FEF72DFAAF
:1050B000614816F041FB044609215D48FEF725FAD8
:1050C000FFF7CCF809215A48FEF71FFA20463A218B
:1050D000013C0CF0DBFE033402D95948FEF78AFC90
:1050E0000A215348FEF711FA002D3FF42EAE092194
:1050F0004F48FEF70AFA514816F01EFB04460921F4
:105100004B48FEF702FAFFF7B1F809214848FEF7CD
:10511000FCF920463A21013C0CF0B8FE033402D9D8
:105120004748FEF767FC0A2147E621463F48FFF75C
:1051300057F83FB309213E48FEF7E7F90C2C1DD87C
:1051400001A353F824F000BF274D0008754D000857
:10515000E14D0008414E0008A34E0008054F00082D
:105160007B4F0008DD4F00087D5100087D5100088D
:105170007D5100087D5100086B50000821462D48E4
:10518000FFF72EF836B309212948FEF7BEF90C2C9B
:105190001CD801A353F824F0394D0008934D0008A2
:1051A000FF4D00085F4E0008C14E0008234F000865
:1051B000994F0008FB4F0008CD510008CD51000861
:1051C000CD510008CD510008B150000821461A48C1
:1051D000FFF706F8002D3FF4B8AD09211448FEF79B
:1051E00094F90C2C1CD801A353F824F0474D000867
:1051F000AF4D00081B4E00087D4E0008DF4E000832
:10520000414F0008B74F000819500008215200080C
:10521000215200082152000821520008F7500008CE
:1052200021460648FEF7DCFF8FE500BF4C2000203A
:105230007410002094200020DC2000200420002096
:105240004FF50208F7B53C2400680D46B0FBF4F7B3
:105250004FF46161B7FBF4F3B0FBF1F104FB13739E
:105260008EB2A2B11821B6FBF1F2104C01FB12660E
:10527000B0FBF4F400932246B3B20D49284622F065
:10528000A9FA0A2C34BF0820092003B0F0BD632E10
:105290008AB205D80749284622F09CFA0520F4E78F
:1052A0000549284622F096FA0620EEE780510100D3
:1052B0005FF5020863F502086DF50208034B1880DC
:1052C00010B10348FEF796BB704700BFA61200203E
:1052D00005F50208F7B50D4616461F460446C148B7
:1052E000FEF788FB33462A46214600970020FEF74A
:1052F000C7FFBD48FEF77EFB33462A46214600978E
:105300000120FEF7BDFFB948FEF774FB33462A467D
:10531000214600970220FEF7B3FFB548FEF76AFB6F
:1053200033462A46214600970320FEF7A9FFB148DD
:10533000FEF760FB33462A46214600970420FEF71D
:105340009FFFAD48FEF756FB33462A46214600979D
:105350000520FEF795FFA948FEF74CFB33462A4689
:10536000214600970620FEF78BFFA548FEF742FB7B
:1053700033462A46214600970720FEF781FFA148C1
:10538000FEF738FB33462A46214600970920FEF7F0
:1053900077FF9D48FEF72EFB33462A4621460097AD
:1053A0000A20FEF76DFF9948FEF724FB33462A4694
:1053B000214600970B20FEF763FF9548FEF71AFB86
:1053C00033462A46214600970C20FEF759FF9148A4
:1053D000FEF710FB33462A46214600970D20FEF7C4
:1053E0004FFF8D48FEF706FB33462A4621460097BD
:1053F0000E20FEF745FF8948FEF7FCFA33462A46A1
:10540000214600970F20FEF73BFF8548FEF7F2FA92
:1054100033462A46214600971020FEF731FF814887
:10542000FEF7E8FA33462A46214600971120FEF798
:1054300027FF7D48FEF7DEFA33462A4621460097CD
:105440001220FEF71DFF7948FEF7D4FA33462A46AC
:10545000214600971320FEF713FF7548FEF7CAFA9E
:1054600033462A46214600971420FEF709FF71486B
:10547000FEF7C0FA33462A46214600971520FEF76C
:10548000FFFE6D48FEF7B6FA33462A4621460097DE
:105490001620FEF7F5FE6948FEF7ACFA33462A46B9
:1054A000214600971720FEF7EBFE6548FEF7A2FAAB
:1054B00033462A46214600970020FFF70BFC61483F
:1054C000FEF798FA33462A46214600970120FFF757
:1054D00001FC5D48FEF78EFA33462A4621460097C6
:1054E0000220FFF7F7FB5948FEF784FA33462A46B5
:1054F000214600970320FFF7EDFB5548FEF77AFAA7
:1055000033462A46214600970420FFF7E3FB514823
:10551000FEF770FA33462A46214600970520FFF72A
:10552000D9FB4D48FEF766FA33462A4621460097D6
:105530000620FFF7CFFB4948FEF75CFA33462A46C0
:10554000214600970720FFF7C5FB4548FEF752FAB2
:1055500033462A46214600970D20FFF7BBFB414802
:10556000FEF748FA33462A46214600970E20FFF7F9
:10557000B1FB3D48FEF73EFA33462A4621460097E6
:105580000F20FFF7A7FB3948FEF734FA33462A46C7
:10559000214600971020FFF79DFB3548FEF72AFAB9
:1055A00033462A46214600971320FFF793FB3148E4
:1055B000FEF720FA33462A46214600971220FFF7CD
:1055C00089FB2D48FEF716FA33462A4621460097F6
:1055D0000C20FFF77FFB0A212848FDF796FF03B058
:1055E000F0BD00BFB1F3020840F2020849F2020820
:1055F00052F202085EF202086AF2020876F202082B
:1056000082F202088FF2020899F20208A3F202085D
:10561000ABF20208B7F20208BFF20208C6F20208B3
:10562000D4F20208DCF20208E7F2020805F30208ED
:105630000EF3020819F302082AF3020832F30208F3
:1056400042F302084CF3020852F3020857F302082F
:105650005CF3020862F3020868F302086EF30208C2
:1056600072F3020878F302087EF3020884F302085A
:105670008AF3020891F3020898F3020874100020DC
:1056800010B504460F48FEF7B5F9102221680E4800
:10569000FBF714F923799A0702D50C48FEF7AAF90B
:1056A00023795B0702D50A48FEF7A4F901231846BF
:1056B0001A461946FFF70EFEBDE810400548FDF7F3
:1056C000DDBF00BF72F40208741000208DF40208E0
:1056D0009EF40208B2F40208F8B50D4617461E46BD
:1056E000002800F095805248FEF784F9FEF7A6FDE9
:1056F0005048FEF77FF9504816F047FC0446002852
:1057000000F084804D48FEF775F9012C7CD04C48A0
:105710004C4B022C18BF1846FEF76CF90A214A4878
:10572000FDF7F3FE003418BF01240DB34048FEF727
:1057300061F9FEF78BFD3F48FEF75CF9434816F030
:1057400024FC0546002867D03C48FEF753F9012D9C
:1057500060D03B483B4B022D18BF1846FEF74AF974
:10576000002D18BF01340A213748FDF7CEFEE4B200
:105770000FB32F48FEF73EF9FEF770FD2D48FEF7F8
:1057800039F9334816F001FC0546002848D02B486B
:10579000FEF730F9012D41D029482A4B022D18BFC0
:1057A0001846FEF727F9002D18BF01340A212648B4
:1057B000FDF7ABFEE4B206B31D48FEF71BF9FEF79A
:1057C00055FD1C48FEF716F9224816F0DEFB05468B
:1057D00050B31A48FEF70EF9012D23D01848194B83
:1057E000022D18BF1846FEF705F9002D18BF013429
:1057F0000A211548FDF789FEE4B2BCB1BDE8F840C6
:10580000002115480BF0F0BF144885E70D4883E7E9
:1058100004468AE71148A1E70A489FE70F48C0E716
:105820000848BEE70D48DEE70648DCE7F8BD00BFE4
:10583000CBF40208D4F402084C200020E4F402085F
:10584000C7F40208BFF4020874100020942000205E
:10585000DC20002004200020F0F40208C2F402083A
:105860001E4A02604A688280120C8271CA79C27133
:105870008A680281120C8272CA68C2600A69026177
:10588000174A02608A8A82828A6982610A7F027765
:10589000B1F81D20A0F81D20B1F81F20A0F81F208E
:1058A000B1F82120A0F82120D1F82320C0F823202E
:1058B000D1F82720C0F82720D1F82B20C0F82B20C2
:1058C0000A6B02634A6B426391F8382080F83820F3
:1058D00091F8392080F83920704700BF0CF2020897
:1058E0004C1C0308F0B591B0044617461E469DF8BF
:1058F0005850A9B10E2851D8DFE800F00821282C13
:105900003034383C5050405044484C0009219848AD
:10591000FDF7FBFDFEF792FC09219548FDF7F5FD2B
:10592000002F4CD00E2C00F28880DFE804F03E57A8
:105930005E62666A6E72868676867A7E82008D48A0
:1059400015F089FF3A210CF0A1FAE5E7894815F036
:10595000B2FFF7E7874816F089FBF3E7854816F0B2
:105960003CFAEFE7834816F08DFBEBE7814816F031
:1059700092FBE7E77F4816F092FBE3E77D4815F0DE
:1059800092FEDFE77B4815F0C3FFDBE7794816F0AE
:10599000C1F8D7E7774815F0CFFED3E7754901A8DE
:1059A000FFF75EFFFEF742FCB6E709217048FDF7FE
:1059B000ACFDFEF74BFC09216D48FDF7A6FD002E5E
:1059C0004CD00E2C00F28780DFE804F03E565D617B
:1059D00065696D7185857585797D8100664815F0ED
:1059E0003AFF3A210CF052FAE5E7634815F063FFFD
:1059F000F7E7614816F03AFBF3E75F4816F0EDF978
:105A0000EFE75D4816F03EFBEBE75B4816F043FB23
:105A1000E7E7594816F043FBE3E7574815F043FE24
:105A2000DFE7554815F074FFDBE7534816F072F8CE
:105A3000D7E7514815F080FED3E74F4901A8FFF79B
:105A40000FFFFEF7F3FBB6E709214948FDF75DFDBF
:105A5000FEF704FC09214648FDF757FD002D4BD009
:105A60000E2C7ED8DFE804F03E4E55595D61656925
:105A70007D7D6D7D71757900404815F0ECFE3A2111
:105A80000CF004FAE6E73D4815F015FFF7E73B4850
:105A900016F0ECFAF3E7394816F09FF9EFE73748CC
:105AA00016F0F0FAEBE7354816F0F5FAE7E7334879
:105AB00016F0F5FAE3E7314815F0F5FDDFE72F487A
:105AC00015F026FFDBE72D4816F024F8D7E72B4822
:105AD00015F032FED3E7294901A8FFF7C1FEFEF712
