:020000040800F2
:1000000000C00020A5030008F10D0008F50D000850
:10001000F90D0008FD0D0008010E0008EF1400089E
:10002000EF140008EF140008EF140008EF140008A4
:10003000EF140008EF140008EF1400080115000881
:10004000EF140008EF140008EF140008EF14000884
:10005000EF140008EF140008450E0008650E0008B4
:10006000850E0008A50E0008C50E0008910C0008BA
:10007000A90C0008C10C0008DD0C0008F90C0008F0
:10008000150D0008310D00089D0A0008EF14000846
:1000900079200008EF140008EF140008E50E0008AE
:1000A000E5170008091800082D1800086518000851
:1000B000B91800082919000899190008FD1100084D
:1000C000151200080912000821120008EF14000898
:1000D000EF140008E51D0008351E0008851E000805
:1000E000290F0008EF140008EF140008C11A0008D7
:1000F000E51A0008091B0008411B0008F50A000862
:10010000EF140008EF140008091A0008EF140008A3
:10011000D51E0008251F0008791A00089D1A00083E
:100120004D0D0008650D00087D0D0008990D0008B3
:1001300010B5054C237833B9044B13B10448AFF321
:1001400000800123237010BD60100020000000001B
:1001500070E0020808B5034B1BB103490348AFF335
:10016000008008BD000000006410002070E002085C
:1001700010B512490A2309220968114800F0EAF96A
:1001800010490323022209680F4800F0E3F90F49E0
:100190001B231A2209680E4800F0DCF90D492B23B5
:1001A0002A2209680C4800F0D5F9BDE810400B4937
:1001B00032232C2209680A4800F0CCB984020020BE
:1001C0007C10002088020020941000208C02002067
:1001D000AC1000207C020020C4100020800200200F
:1001E000DC10002010B5044600F0DAFC034B20467A
:1001F000BDE81040197800F03ABC00BF160000209E
:10020000F8B50446056801F0D7F9002223685B01C0
:1002100003F184431A6080232B600123AB622A61BF
:10022000EA606B61637973B1012B0FD001222368FF
:100230005B0103F18443C3F8802223685B0103F16F
:1002400084431A60F8BD4FF400436B644FF6FF72AD
:1002500000252368DA626E1CF7B23946204601F0A9
:10026000C0F9E8B148F6FF72236817F0010F03F1F7
:10027000340343F8252014BF6FF0FF026FF47F4270
:1002800023684FEA650503F1180353F8251001EAC6
:10029000020114BF68224FF4D0420A4343F82520DC
:1002A000042E3546D7D1C1E77047000038B5002588
:1002B000264A274C1368022043F01003136000F015
:1002C00055FE002001F008F865602368182023F42B
:1002D0000023236001F00CF8102001F009F800F071
:1002E00043F8A560102000F0F7FF102001F00EF891
:1002F0000028FAD000F039F8164801F013F8182059
:1003000000F0EAFF182001F001F80028FAD00220DE
:1003100000F0D2FF00214FF0006000F0B1FF0E4866
:1003200001F0E6F800F038F80C4B188800F020FCDB
:100330000B4800F021FC0B4801F018F900F02EF8F2
:1003400000F02DF8FFF7B0FF38BD00BF00200240DD
:10035000001002400C0000203F1901001400002092
:10036000E5010008010200087047002108B50846B1
:1003700001F018F84FF48061012001F013F800211A
:10038000022001F00FF82D2001F01CF8BDE8084014
:100390000021032001F006B800F0FCBD704700F01A
:1003A00038BE000001498D460149084700C00020C1
:1003B000B503000808B5114B1A68114B9A4213D1C6
:1003C000104B114A934213D326F020FF002211460E
:1003D000104602F0A1FD0D4B7BB126F0B3FC52F8A4
:1003E000041B043343F8041C09498B42F7D3E7E7A5
:1003F0000022043343F8042CE3E7FEE7483B0308FC
:10040000000000206010002028290020456D02080F
:100410006010002010B50D4B1A680AB90C4A1A601A
:100420001A680C49891A814204DB09494442511A6D
:10043000A14207DA26F080FC0C234FF0FF32036064
:10044000104610BD10441860FAE700BFF4100020F9
:1004500028290020D0B20328002070474FF4005311
:1004600000204B607047012070474FF0FF3070470D
:100470000020704710B50C46FFF7FAFF20700120EE
:1004800010BD704770B515460C468E18B44201D1A8
:10049000284670BD14F8010BFFF7F3FFF6E7FEE7FF
:1004A000C38882889B1AC2888188914282BF028950
:1004B00001329B1898B2704710B50369044658681A
:1004C000FFF7EEFF88B123695B689A88196892B2DA
:1004D000885C99881A89C0B292B28A420FBF002202
:1004E0009A88013292B29A8010BD4FF0FF30FBE73C
:1004F00008B503695868FFF7D3FF08BD03695B6857
:100500009988DA8892B28A421FBF9A881B6892B291
:10051000985C14BFC0B24FF0FF3070470269916819
:100520008888CB889BB28342FAD1126813685B0635
:10053000FCD5704713B504698DF8071001220DF141
:100540000701204601F071FB0028F7D0012002B01E
:1005500010BD000030B54FF0000C4FF47A75C0E9C3
:1005600001C5034D016105600275437530BD00BFD3
:1005700008F602082DE9F74303690446DB6888465C
:100580008B42914625D3067D134D3601AB19477D2D
:10059000586818B10022597B01F0DAF8206901F09F
:1005A000F9FA39016A18127BAB19CDF804901B7B5C
:1005B000695800932069AB5901F0B3FB20694246AA
:1005C000002101F0D4FB206903B0BDE8F04301F045
:1005D00007BB03B0BDE8F083D0F202080022FFF7AA
:1005E000C9BF0000044B02791B789A4202BF034B3B
:1005F0001B681860704700BF181100201C110020F4
:10060000002310B50446036072B6054B193119700A
:10061000044B1860044800F0A9FF62B6204610BDE4
:10062000181100201C110020E505000800220368B5
:100630001B685B0103F184431A6070470122036861
:100640001B685B0103F184431A607047036801393A
:100650001B6889B29962704703681A68D36A9BB2B3
:10066000994228BF19465162704738B561B90122D5
:1006700003681B68996203681B68DA6203681B6879
:10068000DC6AA4B2204638BD48224A434FF6FF71C7
:10069000B2FBF1F1013189B202EB5102B2FBF1F28E
:1006A00094B2FFF7D3FF036892B21B68DA62E9E7FE
:1006B000C9B2006800F0AEBF012203681B685B018D
:1006C00003F18443C3F880227047000008B501217C
:1006D0001048FFF795FF02210F48FFF791FF032114
:1006E0000E48FFF78DFF04210D48FFF789FF052114
:1006F0000C48FFF785FF06210B48FFF781FF072114
:100700000A48FFF77DFFBDE8084008210848FFF7C9
:1007100077BF00BFF8100020FC100020001100205F
:1007200004110020081100200C11002010110020DD
:1007300014110020F8B506460C4615468F18A7423E
:1007400006D0336814F8011B1B6830469847F6E75B
:100750002846F8BD70B505460C46084649B127F055
:1007600011FE2B68024621462846BDE870409B6872
:10077000184770BD0368C9B21B68184703685B68F7
:10078000184738B50D210546FFF7F4FF0A21044646
:100790002846FFF7EFFF204438BD38B50546FFF780
:1007A000EDFF04462846FFF7ECFF204438BD2DE955
:1007B00070439046994690B058EA090306469DF862
:1007C000585007D13021FFF7D5FF0125284610B03A
:1007D000BDE870830024404649462A4600231CF0A9
:1007E000F3FF8046894601340DEB040303F8012C26
:1007F00058EA0903EFD10025013C1DF804103046EA
:10080000092994BF3031373149B2FFF7B3FF0544AE
:10081000002CF1D1DAE72DE9F0411D46002A75F1EF
:10082000000307461446069E05DA2D21FFF7A2FFB6
:10083000644265EB4505F6B2069622462B463846DD
:10084000BDE8F041FFF7B3BF07B5CB1700920A46EA
:10085000FFF7E1FF03B05DF804FB38B50546FFF78D
:10086000F3FF04462846FFF78CFF204438BD07B548
:10087000CB1700920A46FFF7CEFF03B05DF804FBEA
:1008800037B5CB1700920A460546FFF7C4FF04466A
:100890002846FFF776FF204403B030BD07B5D2B23B
:1008A000009200230A46FFF782FF03B05DF804FBC5
:1008B00037B5D2B2009200230A460546FFF777FF0C
:1008C00004462846FFF75DFF204403B030BD00001A
:1008D0002DE9F34717461E4682460022002338467C
:1008E00031461CF04FFB9DF828504FF00104F8B141
:1008F00043A3D3E90023384631461CF039FB00B945
:100900000446E4B20022002338463146C4B11CF04C
:100910001BFB18B12D215046FFF72CFF04463C4924
:100920005046FFF72BFF0444204602B0BDE8F08795
:1009300035A3D3E90023384631461CF00FFBDEE730
:100940001CF002FB30B12D215046FFF713FF044687
:1009500006F100464FF0000800202E495FFA88F3A8
:100960009D4206D900222C4B1CF0A6F908F1010883
:10097000F4E73A4633461BF0BFFE06460F461CF02E
:100980003BFF0A230246009380460B4650468946A9
:10099000FFF741FF0444002DC6D0404649461CF0F5
:1009A00033F802460B46304639461BF0A3FE064696
:1009B0000F4650461949FFF7E1FE0444013DEDB2F0
:1009C000FF2DB1D0144B0022304639461CF04AF8B6
:1009D0000F4606461CF0E0FA0A22014680465046C1
:1009E000FFF732FF044440461BF0D2FF02460B469D
:1009F000304639461BF07EFE06460F46DEE700BF56
:100A0000800350726C92DF43800350726C92DFC39C
:100A100024F602080000E03F00002440F11603081D
:100A20009DF800100091FFF753BF37B59DF81810DF
:100A300005460091FFF74CFF04462846FFF7A1FE4C
:100A4000204403B030BD704710B50446007900F073
:100A500077FC2079BDE8104000F08ABC026841F4C0
:100A60008011936823F46023194391607047002339
:100A700030B51C461D4603EB4302072B01FA02F278
:100A800003F10103D8BF15430A2B44EA0204F2D153
:100A90000368DD6003681C6130BD000070B5144C54
:100AA00023681B681D68A90707D51A6822F002028F
:100AB0001A6023689B6803B198476A0709D52368C1
:100AC0001A68136823F00403136023681B6903B1D9
:100AD0009847EB070BD523681A68136823F00103C6
:100AE00013602368DB6813B1BDE87040184770BD20
:100AF0001C00002070B5144C23681B681D68A907F2
:100B000007D51A6822F002021A6023689B6803B1B5
:100B100098476A0709D523681A68136823F0040305
:100B2000136023681B6903B19847EB070BD5236853
:100B30001A68136823F0010313602368DB6813B19C
:100B4000BDE87040184770BD2400002001220368F2
:100B50005B0103F1844303F58673191F1A6018685B
:100B60000028FCD143F8042C0B68002BFCD1704703
:100B70000146042000F016BC10B50446054B186869
:100B8000A047054B1868A047044B18682346BDE8EA
:100B9000104018471C0000202000002024000020E6
:100BA00010B50446FFF750FF20464FF46021FFF7D1
:100BB00055FF0122236820465B0103F18443C3F8FB
:100BC000502123685B0103F18443C3F80021BDE891
:100BD0001040FFF7BBBF007900F0B2BB142301390E
:100BE000594300680830435823F4405343EA023223
:100BF00042507047036814200833013900FB01316B
:100C00004A60704700EBC10340F8312093F904308B
:100C1000002B08DB0122591103F01F0302FA03F332
:100C2000014A42F82130704700E100E014220368D5
:100C3000013902FB01310123490101F18441C1F86D
:100C40000031704714220368013902FB013100238F
:100C5000490101F18441C1F8003170472DE9F041AB
:100C600014251C4690464B1E5D430668FFF7EAFFBD
:100C70009DF81C30240244EA8324089B08361C4358
:100C8000069B77197451FB60C7F80880BDE8F081B6
:100C900010B5044B1C68A3681BB198470122236858
:100CA0005A6010BD6000002010B5044B1C68236919
:100CB0001BB19847102223685A6010BD60000020C5
:100CC00010B5054B1C68A36923B198474FF4807297
:100CD00023685A6010BD00BF6000002010B5054BAE
:100CE0001C68236A23B198474FF4805223685A60E6
:100CF00010BD00BF6000002010B5054B1C68A36A42
:100D000023B198474FF4803223685A6010BD00BF6A
:100D10006000002010B5054B1C68236B23B1984779
:100D20004FF4801223685A6010BD00BF600000209D
:100D300010B5054B1C68A36B23B198474FF0807228
:100D400023685A6010BD00BF6000002010B5044B3E
:100D50001C68A3681BB19847012223685A6010BD24
:100D60006400002010B5044B1C6823691BB1984730
:100D7000102223685A6010BD6400002010B5054B96
:100D80001C68A36923B198474FF4807223685A60A6
:100D900010BD00BF6400002038B5104C636CD8074C
:100DA0000BD52368D90408D50D4B1D682B6A23B1D8
:100DB00098474FF480522B685A60A36DDA070BD521
:100DC0002368DB0308D5064B1C68A36A23B1984748
:100DD0004FF4803223685A6038BD00BF00040240DF
:100DE000640000200000000000000000000000007F
:100DF000012007E0022005E0032003E0042001E0D9
:100E00000520FFE70D4A0121116072B60C4A00214E
:100E10001160074902B4084902B486B005498E46FC
:100E2000704700BFAFF30080AFF30080AFF30080E6
:100E300000000061F9FFFFFFE52E000814ED00E05F
:100E400010E000E008B5054A136833B150689847D0
:100E50000122034B5A6100BF00BF08BD20110020D2
:100E60000004014008B5054A936833B1D06898473B
:100E70000222034B5A6100BF00BF08BD20110020B1
:100E80000004014008B5054A136933B15069984719
:100E90000422034B5A6100BF00BF08BD201100208F
:100EA0000004014008B5054A936933B1D0699847F9
:100EB0000822034B5A6100BF00BF08BD201100206B
:100EC0000004014008B5054A136A33B1506A9847D7
:100ED0001022034B5A6100BF00BF08BD2011002043
:100EE000000401402DE9F041002705240C4DD5F800
:100EF00014800126A64018EA060F08D0094BE1002D
:100F000053F834201AB10B445868904737430134E2
:100F10000A2CEED16F6100BF00BFBDE8F08100BFB9
:100F200000040140201100202DE9F04100270A248F
:100F30000C4DD5F814800126A64018EA060F08D0FB
:100F4000094BE10053F834201AB10B44586890471C
:100F500037430134102CEED16F6100BF00BFBDE8F4
:100F6000F08100BF0004014020110020034A1368F3
:100F700023F0070318431060704700BF00200240B1
:100F800010B50446007900F0DBF92079BDE8104087
:100F900000F0EEB908B50748FFF7F2FF0648FFF783
:100FA000EFFF0648FFF7ECFFBDE808400448FFF7F5
:100FB000E7BF00BFD8000020E0000020E8000020CC
:100FC000F000002070B50F250368CE0801F007007F
:100FD000840053F82600092A05FA04F520EA0505DD
:100FE00014BF10460820A0402843082A43F82600D2
:100FF00007D10120DA6800FA01F122EA0101D96083
:1010000070BD092AFCD10122D86802FA01F101431E
:10101000F5E708B5032000F093F9BDE80840032088
:1010200000F0A6B903681A6812F4985FFBD11A6839
:1010300042F480721A60704703681A6812F4985F6D
:10104000FBD11A6842F400721A600268136813F444
:10105000985FFBD17047000070B502684568516920
:1010600092695A4AAE781268CB07044606F0010628
:10107000C26014D50023EB8000F0D8F822685368D2
:1010800043F48063536026B12268136843F480639D
:10109000136000212B88226846EA4303136111F094
:1010A0000A0F10D0AB88002E45D0012B0AD1226840
:1010B0002046136823F480631360A38B012B37D978
:1010C000FFF7B0FF002101F08402802A03D1A38B37
:1010D000002B49D1002101F08402842A0DD1A18B7B
:1010E0002046002954D0FFF79DFF22685369D90795
:1010F000FCD5002163680C3363604B0661D523681F
:10110000AA681969EB88581CE880D154AB88EA8832
:10111000591E8A424BD122682046136823F480630B
:101120001360A38B022B3ED9BDE87040FFF77ABF56
:10113000FFF782FFC6E7012B08D9EB88A9685A1C84
:10114000EA802268CB5C13613146BCE7002BFBD1FF
:101150002046FFF771FF2268536823F40073536041
:10116000022384F82330ADE7EB88A9685A1CEA8093
:101170002268CB5C1361EA88AB889A42AAD12268C4
:10118000536823F480635360A38B013BA383A1E7DF
:10119000FFF752FF2268536823F400735360022361
:1011A00084F82330A9E7BDE87040FFF745BF9A42B5
:1011B00007D1A38B013B9BB2A3831BB9022384F805
:1011C000233070BD63680C336360FAE7C0280020E9
:1011D00008B50268536903F47063836000235361A8
:1011E00002689361FFF728FF0268536823F4E06305
:1011F0005360FF2380F8233008BD00000148FFF74B
:101200002BBF00BFF80000200148FFF725BF00BF3B
:101210001C0100200148FFF7DBBF00BFF8000020E1
:101220000148FFF7D5BF00BF1C01002010B50446E0
:10123000002190F9210000F00FF894F9220000211C
:10124000BDE8104000F008B84AF6AA22014B1A6027
:10125000704700BF003000400028A8BF00F1604088
:101260004FEA0111B8BF054BC9B2B5BF00F00F007E
:1012700000F56140195480F80013704714ED00E048
:1012800010B5002421F0604121F07F01064A01439E
:10129000916060B20F210134FFF7DEFF3C2CF8D1E2
:1012A000F02382F8233010BD00ED00E0014B13F86D
:1012B0001000704750F60208064B5A6822F00302ED
:1012C00002435A6080005A6802F00C028242FAD14E
:1012D000704700BF00100240030AC2B2012003F1B0
:1012E000804303F504331968904008431860704741
:1012F0000121030A03F1804303F504331A68C0B2E5
:1013000001FA00F022EA000018607047030A03F1B6
:10131000804303F504331A680223C0B203FA00F0D5
:1013200010407047054A0168536823F474130B4357
:10133000416809680B435360704700BF00100240CA
:1013400010B50446FFF7B2FF074B53F820200748BB
:1013500000EB4400437803EBC20301229B0003F13E
:1013600084431A6010BD00BF4001002050F60208FF
:1013700010B50446FFF79AFF084B53F820200848A1
:1013800000EB4400437803EBC20301229B0003F10E
:1013900084431A6000221A6010BD00BF580100206B
:1013A00050F6020810B5054A054C536854F8200061
:1013B00023EA00030B43536010BD00BF001002403E
:1013C0003CF6020810B50446FFF770FF074B53F8D0
:1013D0002020074800EB4400437803EBC2030022BF
:1013E0009B0003F184431A6010BD00BF4C01002034
:1013F00050F6020801EBC000800000F1844002605A
:10140000704710B504460079FFF79AFF2079BDE8D0
:101410001040FFF7ADBF012206210068FFF7EABFC9
:10142000002206210068FFF7E5BF10B50C460168F1
:1014300003464A6822F0E0024A600268126862408D
:1014400012F4205F01D0FFF7EBFF1A681846146012
:10145000BDE81040FFF7DFBF134343F00403194317
:10146000FFF7E3BF0122006811460430FFF7C2BF57
:101470000068002201210430FFF7BCBF0068012290
:1014800000210430FFF7B6BF002203685B0103F1BF
:101490008443C3F880207047F8B51046069C9DF839
:1014A0001C709DF820609DF8245081B10B223946B4
:1014B0002046FFF787FD042231462046FFF782FDD4
:1014C0000B2229462046BDE8F840FFF77BBD1946B0
:1014D0000422FFF777FD042239462046FFF772FD0C
:1014E0000B2231462046FFF76DFD0422E9E7FEE7B7
:1014F0000722024B58601A60704700BF10E000E0FE
:10150000044A136801331360034B1B6803B1184787
:10151000704700BFC0280020A011002011F0010F6B
:1015200070B501F1FF340DBF082500256FF0FF01F4
:101530006FF47F410068C4F34004183050F8246011
:1015400013433140AB400B4340F8243070BD026878
:101550004B1E02F1404220329B0003EBC2030122EA
:101560009B0003F184431A607047000010B50446E5
:101570000948A0470948A0470948A0470948A0478B
:101580000948A0470948A0470948A0472346BDE8A5
:1015900010400848184700BF84010020AC0100201B
:1015A000D0010020F4010020180200203C0200209D
:1015B000480200205402002010B504460079FFF7CD
:1015C000BFFE2079BDE81040FFF7D2BE00230268BD
:1015D00013600268D3604279012A9CBF02681362DB
:1015E000704703791E2B10D9212B0ED0202B0ED93A
:1015F000222B01D0252B04D102298CBF00200120F1
:1016000070474B1E584258417047012070470020D8
:10161000704700008B1C40F82320012342798B4047
:1016200010B5DB43EAB1012A41F65F6218BF01221F
:101630001340012204682361036803F140430C3323
:1016400001EBC3039B0003F184431A6042790379E1
:101650003ABB072915D8DFE801F007151515151A4B
:101660001A1F41F6FF62E3E71A2B0CBF19232C2344
:101670000122590903F01F0302FA03F3254A42F835
:10168000213010BD1A2B0CBF1B232E23F0E71A2B81
:101690000CBF1A232D23EBE71A2B0CBF18232B2387
:1016A000E6E71B3B0C2BECD801A252F823F000BF5D
:1016B00011170008E5160008E9160008ED160008E5
:1016C000F1160008F516000883160008F916000840
:1016D000FD16000801170008051700080917000883
:1016E0000D1700081D23C3E71E23C1E73223BFE700
:1016F0003623BDE73723BBE71823B9E71923B7E73C
:101700001A23B5E72B23B3E72C23B1E72D23AFE74B
:101710001C23ADE700E100E00022036803F1404331
:101720000C3301EBC3039B0003F1844302311A60C5
:1017300040F82120704738B504460D461346002274
:10174000FFF7ECFE29462046BDE83840FFF7FFBE14
:1017500038B543790546022B0C4615D0042A13D818
:10176000DFE802F003132A2D3A00FFF7D5FF0268E5
:10177000631E02F1404220329B0003EBC2030022B1
:101780009B0003F184431A6038BD0022036803F113
:1017900040430C3301EBC3039B0003F184431A6005
:1017A0000823602221462846FFF7B8FE2146284636
:1017B000BDE83840FFF7CBBE00231022F2E74FF21E
:1017C000F11203689A61032203689A600368012298
:1017D0005B0103F18443D6E70122BDE83840FFF7FF
:1017E000AABF000010B5074A1468E36821690B40DE
:1017F0001B0606D5536A23B19847236923F080035B
:10180000236110BD8401002010B5074A1468E36805
:1018100021690B40DB0706D5936823B198472369FC
:1018200023F00103236110BD84010020F8B50C4DA5
:101830002F68FE683B691E4016F0400403D02C6AF6
:101840000CB1A0474024B30604D5EB6913B1984707
:1018500044F020043B6923EA04043C61F8BD00BF66
:1018600084010020F8B5134D2F68FE683B691E40C7
:1018700016F0100403D0AC690CB1A0471024310756
:1018800004D56B6913B1984744F00804720704D576
:101890002B6913B1984744F00404B30704D5EB68EF
:1018A00013B1984744F002043B6923EA04043C6105
:1018B000F8BD00BF84010020F8B51A4D2F68FE68FE
:1018C0003B691E4016F0400403D02C6A0CB1A047BF
:1018D0004024F30604D5AB6913B1984744F01004D3
:1018E000300704D56B6913B1984744F008047107B9
:1018F00004D52B6913B1984744F00404B20704D50A
:10190000EB6813B1984744F00204F30704D5AB68C1
:1019100013B1984744F001043B6923EA04043C6195
:10192000F8BD00BFAC010020F8B51A4D2F68FE6865
:101930003B691E4016F0400403D02C6A0CB1A0474E
:101940004024F30604D5AB6913B1984744F0100462
:10195000300704D56B6913B1984744F00804710748
:1019600004D52B6913B1984744F00404B20704D599
:10197000EB6813B1984744F00204F30704D5AB6851
:1019800013B1984744F001043B6923EA04043C6125
:10199000F8BD00BFD0010020F8B51A4D2F68FE68D1
:1019A0003B691E4016F0400403D02C6A0CB1A047DE
:1019B0004024F30604D5AB6913B1984744F01004F2
:1019C000300704D56B6913B1984744F008047107D8
:1019D00004D52B6913B1984744F00404B20704D529
:1019E000EB6813B1984744F00204F30704D5AB68E1
:1019F00013B1984744F001043B6923EA04043C61B5
:101A0000F8BD00BFF4010020F8B51A4D2F68FE683C
:101A10003B691E4016F0400403D02C6A0CB1A0476D
:101A20004024F30604D5AB6913B1984744F0100481
:101A3000300704D56B6913B1984744F00804710767
:101A400004D52B6913B1984744F00404B20704D5B8
:101A5000EB6813B1984744F00204F30704D5AB6870
:101A600013B1984744F001043B6923EA04043C6144
:101A7000F8BD00BF1802002010B5074A1468E368DB
:101A800021690B40DB0706D5936823B1984723698A
:101A900023F00103236110BD3C02002010B5074A6A
:101AA0001468E36821690B40DB0706D5936823B10E
:101AB0009847236923F00103236110BD48020020E9
:101AC00010B5074A1468E36821690B401B0606D568
:101AD000536A23B19847236923F08003236110BD23
:101AE0005402002010B5074A1468E36821690B40CE
:101AF000DB0706D5936823B19847236923F00103D8
:101B0000236110BD54020020F8B50C4D2F68FE680B
:101B10003B691E4016F0400403D02C6A0CB1A0476C
:101B20004024B30604D5EB6913B1984744F0200470
:101B30003B6923EA04043C61F8BD00BF5402002065
:101B4000F8B5134D2F68FE683B691E4016F010046F
:101B500003D0AC690CB1A0471024310704D56B69E0
:101B600013B1984744F00804720704D52B6913B1E8
:101B7000984744F00404B30704D5EB6813B19847C1
:101B800044F002043B6923EA04043C61F8BD00BF51
:101B90005402002000223F2110B504464368103053
:101BA0009A801860DA801981A3689A80DA8004F13B
:101BB000500219811A6094F89000FFF7C1FB94F964
:101BC0009130002B08DB0122591103F01F0302FAA8
:101BD00003F3024A42F8213010BD00BF00E100E0EB
:101BE0000368DA6842F02C02DA60DA6842F40052E4
:101BF000DA60704710B5036881688C88CA8892B231
:101C0000A242FAD1DA68910402D51A685206F9D5CF
:101C1000DA6822F40052DA60426893889BB2D3807B
:101C2000826893889BB2D38010BDF0B50B46064600
:101C30000468B568581AAF88ED88ADB2BD4204D1CA
:101C400025682D0601D5824210D8E36823F0800371
:101C5000E3609042B3680DD39A88DB889BB29342CD
:101C60001EBFE36843F08003E360F0BD13F8010B8F
:101C70006060DEE7DD889F880135BD42ECD0DF88FB
:101C80001D89ADB2BD4203D19D88ADB2002DE3D018
:101C9000DD8811F800C01F68ADB207F805C0DF8805
:101CA0001D890130ADB2BD420FBF0025DD88013571
:101CB000ADB2DD80CDE703468288016892B2885CD0
:101CC00099881A89C0B292B28A420FBF00229A88BC
:101CD000013292B29A80704738B5C3888288013346
:101CE000934204460D4607D0C28803899BB29342B3
:101CF00014D183889BB28BB92046FFF7DCFFE388C1
:101D000022689BB2D554E28823899BB293420FBFCD
:101D10000023E38801339BB2E38038BD4FF0FF30EE
:101D2000EDE770B51E460546084611460422059C9F
:101D3000FFF748F90B229DF810103046FFF742F9E3
:101D400029686302CA6803F4F05322F4F0521204C3
:101D5000120C1343CB602A682402136904F4405424
:101D600023F440531B041B0C1C43146170BD38B595
:101D70000546144611B900F0FDF8014619235943F0
:101D8000A200B1FBF2F26421B2FBF1F001FB1023DF
:101D90001B013233B3FBF1F303F00F032C6843EA6A
:101DA00000139BB2A36038BD10B50446084B1868F9
:101DB000A047084B1868A047074B1868A047074B77
:101DC0001868A047064B18682346BDE8104018471E
:101DD00084020020880200208C0200207C02002067
:101DE0008002002010B5104CE368980607D52368E0
:101DF000990604D561680D48C9B2FFF76DFFE36825
:101E00001A060BD523681B0608D509488288C388A3
:101E10009BB2934203D0FFF74EFF606010BDE368B2
:101E200023F08003E360F9E700380140D41100207B
:101E3000E011002010B5104CE368980607D5236820
:101E4000990604D561680D48C9B2FFF745FFE368FC
:101E50001A060BD523681B0608D509488288C38853
:101E60009BB2934203D0FFF726FF606010BDE3688A
:101E700023F08003E360F9E700440040EC11002008
:101E8000F811002010B5104CE368980607D52368B8
:101E9000990604D561680D48C9B2FFF71DFFE368D4
:101EA0001A060BD523681B0608D509488288C38803
:101EB0009BB2934203D0FFF7FEFE606010BDE36863
:101EC00023F08003E360F9E700480040041200209B
:101ED0001012002010B5104CE368980607D523684F
:101EE000990604D561680D48C9B2FFF7F5FEE368AD
:101EF0001A060BD523681B0608D509488288C388B3
:101F00009BB2934203D0FFF7D6FE606010BDE3683A
:101F100023F08003E360F9E7004C0040A4110020A7
:101F2000B011002010B5104CE368980607D523685F
:101F3000990604D561680D48C9B2FFF7CDFEE36884
:101F40001A060BD523681B0608D509488288C38862
:101F50009BB2934203D0FFF7AEFE606010BDE36812
:101F600023F08003E360F9E700500040BC1100203B
:101F7000C811002008B590F89000FFF797F920B13C
:101F80000128034818BF002008BD0248FCE700BF35
:101F900000A24A040051250230B548F28005094CE0
:101FA000226822F4804222F070022A4342402260DA
:101FB000236823F4E04323F040032B434B4023608A
:101FC00030BD00BF005C0040284B072818BF1870C8
:101FD0001A78052A48D8DFE802F003131E232B36AF
:101FE0004FF6FB71224A106C014011644FF43F41DF
:101FF000116406221A701F4B1B685A7B1A737047B4
:102000004FF6FB711A4A106C014011644FF43F41C6
:102010001164042202E002225A7003221A7006E0C0
:102020005A78013AD2B25A705A78002AF1D07047E1
:102030000F490A6C92B242F010020A6405221A702B
:102040000A225A7070475A78013AD2B25A705A78B6
:10205000002AECD14FF6EF720549086C02400A6481
:10206000044A1268517B11730622D7E7C428002066
:10207000005C0040740500202DE9F0415F4D604A8E
:102080002B68546C1B68A4B223405E0506D56FF420
:10209000806353645B4B1B685B6898472A681368CE
:1020A0002340980442BF6FF40051554B59641368A4
:1020B0002340D90406D56FF4C052514B00205A6416
:1020C000FFF782FF2B681A68224012050FD54C4992
:1020D0000A6C92B242F0080042F00C0208640A64F2
:1020E0001A7B5A7303221A736FF4C0524A641A6837
:1020F0002240970542BF6FF40071414A51641B684A
:102100002340DE0506D56FF480723D4B07205A64EC
:10211000FFF75AFF2B681B681C40240403D5384C7A
:10212000676C3B0401D4BDE8F0816FF4004317F005
:102130000F06636438D148F68003D4F8008018EAAB
:10214000030FECD01FFA88F32F4D304E03F44052AA
:102150004FF4005003F03003202133802A80FFF732
:102160001BFFF80623680ED423F4E14323F0700329
:102170001B041B0C236000F09BFD31882888BDE800
:10218000F041FFF709BF18F0800FEDD123F0700385
:102190001B051B0D18F4006F236002D000F0A6FB96
:1021A000EBE700F003FDE8E7B40004F1804404F538
:1021B000B844276839040DD5236823F070031B0544
:1021C0001B0D23602A6806F180439268013B52F898
:1021D000233098473A06A2D5236806F1804623F4B7
:1021E000E14323F070031B041B0C23602B68013EAA
:1021F0005B6853F82630984791E700BF74050020CC
:10220000005C0040CC280020C6280020C828002000
:10221000800000F1804000F5B840036823F480435B
:1022200023F0700343F4004343F0800359400160FE
:102230007047000018B90722024B1B681A82024837
:10224000704700BFD4280020E405002000220121AF
:1022500010B5104B1B689A720F4B19640F49086830
:102260000260086804681C644FF4E0545A64046017
:10227000086804681C644FF43F445A6404600868AA
:10228000006818644FF48010054B18600B681A73CF
:1022900010BD00BFD4280020005C00407405002061
:1022A00000E100E013B5104B1A68137803F07F03C8
:1022B000212B16D1022808D0222801D0022405E0C3
:1022C00093780A4A03F0030313700024084B1B6839
:1022D00023B102A901F8010D02209847204602B05F
:1022E00010BD0224FAE700BFD428002020120020ED
:1022F0001C12002021B901288CBF02200020704749
:1023000002207047054B1B689B78032B04D80449B7
:1023100001EBC30100F0BCBA00207047D4280020B4
:10232000CC050020014900F0B3BA00BF88050020A9
:10233000014900F0ADBA00BF9005002037B5114C3F
:102340002268127802F07F02212A02D0022003B014
:1023500030BDA0F12003012B0B4B0C4D1B6888BF37
:10236000002523B102A901F8010D02209847002D94
:10237000ECD0236800249D615C822046A84720465B
:10238000E5E700BFD42800201C12002035220008F9
:102390002DE9F04700254FF0C00948F68F1648F2A6
:1023A00080074FF0400A434B434C1B68DFF83881ED
:1023B0009D7283F80990256523682846334043F4CD
:1023C00000732360236803EA08033B4383F0100390
:1023D0002360226D394B520043F802A08022236D06
:1023E0005B0003F1804303F5C0431A60236823F4C4
:1023F000E24323F070031B041B0C2360304B1B686B
:1024000093F82C1000F072F84FF440512846FFF773
:10241000FFFEA3682946334043F4C063A360226DE6
:10242000284B520013444FF480721A60A2680220B5
:1024300002EA08023A4382F02002A260FFF7E8FEB7
:10244000E36851463340E360226D1F4B5200134452
:102450004FF4887203201A6000F048F84FF440519E
:102460000320FFF7D5FE636829461E406660226D93
:10247000164B520043F802906368012003EA0803F8
:102480003B4383F020036360FFF7C2FE0122104B41
:1024900028461B681A7300F0EBFBFF220D4B1D60F2
:1024A0000D4B1D600D4B1D600D4B1D600D4B1A70CB
:1024B000BDE8F087D4280020005C004008600040A0
:1024C000CC280020206000403860004010600040B0
:1024D0007405002024120020281200203012002051
:1024E000341200202C120020BF8FFFFF0D4B0E4A2C
:1024F0001B6D3E2903EBC0004FEA400002440AD99D
:102500004B09C80604BF03F1FF339BB29B0243F49F
:102510000043136070474B08C90748BF01339B0253
:10252000F7E700BF005C00400C60004010B5064CAF
:1025300018B9012223681A8210BD044B1B681B685E
:10254000984720680A30F7E7D4280020D0280020D8
:1025500010B5064C18B9012223681A8210BD044B2D
:102560001B689B68984720680C30F7E7D428002048
:10257000D028002010B51E4B1C68002310B9022380
:10258000238210BD1B4803802178024611F07F0191
:1025900012D1617A8C0644BF022303700378480687
:1025A0004CBF23F0010343F001031370124B1B686F
:1025B0001B6998470F48E4E70129E2D0022915D1A9
:1025C000217901F00F039B0003F1804303F5B84329
:1025D00009061B6805D503F03003102BE6D1012353
:1025E000E3E703F44053B3F5805FF7E71846C8E725
:1025F000D4280020CA280020D02800202DE9F84344
:10260000234FDFF8A0803D682C8AD4B92E7A042E9F
:1026100017D120490B78012B0ED11F4B1A681F4B85
:1026200092B213445B001C6030230C70A8F8003099
:102630003B681E72BDE8F88310230726A8F8003017
:10264000F6E7AB8A9C4294BF042602269C4228BF30
:102650001C46AB69204698478146002000F0B4FB39
:1026600022460146484600F052FB2146002000F079
:10267000C7FB2B8A4FF440521B1B2B826B8A1C44D6
:102680003023A8F80030064B6C821A80D0E700BFD8
:10269000D428002038120020505C00400230002076
:1026A000C6280020C828002010B50A4B0A491B681C
:1026B00049789A7891420AD3D97841B99C8834B93B
:1026C0009A72064B1B685B689847204610BD022033
:1026D000FCE700BFD4280020C8050020D028002037
:1026E00038B50F4A0F4D12682B689269997818799E
:1026F00090472B6804469A7A7AB170B95A7962B9D0
:10270000DB7853B9084B1B68DB6898472B681A794C
:10271000DA729A781A73204638BD0224FBE700BFAC
:10272000CC280020D4280020D028002038B52B4BFE
:102730001B68187810F07F0004D15A7A22F020022A
:102740005A7238BD022847D15A88002AF9D15A79DD
:10275000002AF6D11979224D21F08000840004F17D
:10276000804404F5B844226849B22D780029B4BFEA
:1027700002F0300202F4405285422DD962B39B7AB6
:1027800053B30029236811DA03F03003102B07D16B
:10279000C4B2204600F004FB3021204600F0D8FAF5
:1027A000104B1B685B6998470020CAE703F440534D
:1027B000B3F5805FF4D10C4D58B90C4B93F82C1045
:1027C00000F02CFB23682B409BB283F44053236022
:1027D000E6E700F0D2FAF5E70220B2E7D4280020BD
:1027E000C8050020D02800208FBFFFFF98050020DB
:1027F00038B51B4B1B4D18682D78017921F08004EA
:10280000A30003F1804303F5B8431A6849B20029D5
:10281000B4BF02F0300202F44052A5421DD94488F0
:10282000DCB9D2B1827AC2B11A680029B5BF22F4EC
:10283000E04222F4804222F0400222F07002B5BF52
:1028400092B292B282F0100282F480521A60064B69
:102850001B689B699847002038BD0220FCE700BF39
:10286000D4280020C8050020D028002008B5064B39
:102870001A68537A43F020035372044B1B68DB69D8
:102880009847002008BD00BFD4280020D028002091
:1028900010B5054B1C68628A18B98B889B1A238275
:1028A00010BD08681044FBE7D428002008B50B4B86
:1028B000002093F82C1000F0B1FA094B1B68187A2D
:1028C000082806D14FF48052064B1A801022064B7E
:1028D0001A80A0F109035842584108BD980500200C
:1028E000D4280020C6280020C828002073B5964CA4
:1028F000964E216832680B7A092B16D0944B92B20F
:1029000013445B001B885B0003F1804303F5C04365
:102910001A780A7059782268517099882268518013
:102920001989226891809B89D380012223681A72B9
:10293000DA885D78002A64D11A7812F07F024DD1CE
:10294000092D03D1FFF7B0FE40BB16E0052D20D1C5
:1029500093F90220002A07DA08232268137202B0D2
:10296000BDE87040FFF7A2BFDA78002AF4D19A8858
:10297000002AF1D19B7A002BEED13268754B92B2CE
:10298000134400225B001A603022734B1A80062326
:10299000E3E7032D14D19A78012A08D06F4B28461B
:1029A0001B685B699847032828D10923D5E79A88D3
:1029B000002AF3D15B7A9A06F0D5FFF757FFC3E7F9
:1029C000012DEBD19A78012AE8D19A88002AE5D125
:1029D0005B7A9B06E2D5FFF7A9FEB5E7012A04D191
:1029E0000B2DDBD1FFF77CFEAEE7022AD6D1012DFD
:1029F000F1D0032DD2D1FFF7FBFEA5E70028ABD124
:102A0000BBE7062D12D11A7855065AD1DB78534A06
:102A1000012B126802D1D369DBB952E0022B01D13C
:102A2000136AF9E7032B4CD1536AF5E7002D54D113
:102A30005988002945D15A6822F0FF02B2F5003FBB
:102A40003FD11A7812F07F0216D19B88002B38D123
:102A5000434B0025226828465582936198472846B3
:102A60004FF6FF7123681A8A8A4233D0022801D0B8
:102A7000002A55D108222EE0012A0AD1374A1879B6
:102A8000126892699047E0B923689B7A002BDFD1E6
:102A900017E0022A15D11A7902F00F018B001006F7
:102AA00003F180432F4803F5B8431B6800784CBFFF
:102AB00003F0300303F44053884202D912F0700F40
:102AC000E4D0264B22681B6850781B69984703287E
:102AD000C6D1236809221A7241E7082D04D11B7858
:102AE0005B06EED1204BB4E70A2DEAD11A7802F04A
:102AF0007F02012AE5D19A7A002AE2D0598800297A
:102B0000DFD15A6822F0FF02B2F5803FD9D1134AD3
:102B100018791268926990470028D2D1134B98E730
:102B200093F90010002936DAD9880C4C01910198EC
:102B3000246882421CD9019A1A8294F82C209A8225
:102B4000FFF75CFD0BE700BFD4280020505C00407D
:102B50000430002002300020C8280020CC280020AB
:102B600075250008C80500202D25000851250008FE
:102B70008A42E2D294F82C00824203D20021094A10
:102B80001170DAE792FBF0F100FB1122002AD4D198
:102B9000044A0121F4E703221A724FF44052024B17
:102BA0001A80DCE638120020C6280020F8B52A4E2C
:102BB0003468237A032B01D0052B44D1A369B3B128
:102BC000258AA5B1A28A954228BF1546284698476E
:102BD000238A07465B1B2382638A00202B4463827F
:102BE00000F000F92A460146384600F09FF8238A93
:102BF00053B100214FF44052184B08461A8000F0A0
:102C0000FFF83022164B1A80228AA18A336891423B
:102C100009D803221A7233681B7A32681372BDE82E
:102C2000F840FFF743BE0AB10522F3E70621197207
:102C30000C4B19680C4B89B20B445B001A603022B4
:102C4000074B1A80E7E7072B03D1084B1B68DB68AB
:102C500098470823E1E700BFD4280020C6280020B9
:102C6000C8280020505C004002300020CC28002002
:102C7000002210B50C4B1C78A24204D30B4B40F041
:102C80008000186010BD02F1805303F5B8539B001B
:102C9000196821F4E04121F070010904090C114385
:102CA00019600132E8E700BFC80500204C5C004015
:102CB00010B5134C23681A7A022A01D0042A09D1CC
:102CC000FFF79CFC23681B7A22681372BDE8104052
:102CD000FFF7ECBD062A10D15A78052A09D11A78D7
:102CE000520606D19878FFF7C3FF064B1B681B6A94
:102CF0009847054B1B689B6898470823E4E700BF8B
:102D0000D4280020D0280020CC280020704701F1D2
:102D10000051013201F540515210490002B970478B
:102D200030F8023B013A21F8043BF7E7002310B5E5
:102D300001F10051013201F54051521049009A420F
:102D400000D110BD51F8234020F813400133F6E7BD
:102D5000800000F1804000F5B8400368CA0623F403
:102D6000E04323F040039BB248BF83F010038A0680
:102D700048BF83F0200303607047800000F180406B
:102D800000F5B84003685B0409D5036823F4E04309
:102D900023F070031B041B0C43F480430360704753
:102DA000800000F1804000F5B84003685B0609D55B
:102DB000036823F4E04323F070031B041B0C43F06F
:102DC0004003036070470000054B1B689BB203EB98
:102DD000C00000F1005000F54050400000887047EE
:102DE000505C0040044B1B689BB203EBC000034BDC
:102DF00003445B0018887047505C0040043000209A
:102E0000044B1B689BB203EBC000034B03445B0005
:102E100019607047505C0040023000200D4B0E4A94
:102E20001B683E299BB203EBC00002444FEA4202FA
:102E30000AD94B09C80604BF03F1FF339BB29B02BA
:102E400043F40043136070474B08C90748BF013380
:102E50009B02F7E7505C00400630002013B50446A3
:102E60008DF8071001220DF107012046FEF7DDFE67
:102E70000028F7D002B010BD38B505464C1E14F935
:102E8000011F01B938BDC9B22846FFF7E7FFF6E7D1
:102E900008B5134B03221C6801212046FEF792F867
:102EA000002301211A46B2F5007F0CD072B1B3F5B0
:102EB000007F01D100230A449A420CD902252068E0
:102EC00005610133EFE74FF0FF31F0E7B3F5007F25
:102ED0004FF00101EED020684FF40035F0E700BF5D
:102EE00038F6020808B5034B0BB100F047F862B69C
:102EF000FFF7CEFF7D2F000808B5044B23B100F08B
:102F00005DF80349FFF7B8FFFFF7ECFFBD2F00089E
:102F100023F70208FDF7CAB908B500F063FE00F018
:102F200031FFFCE724F0B0B924F0B6B932280BD851
:102F3000064B03EB001043681A68437B343203F1FD
:102F40008043013B42F82310704700BFD0F20208D3
:102F500038B50C460546072104EB042400F046F87A
:102F6000A1B22846BDE83840FFF7E0BF0022036861
:102F70005B0103F18443C3F8002170474FF0FF3336
:102F800010B50A4C0A48C4F88030C4F88430FEF703
:102F9000EDFA0848FDF7F0FD0748FEF705FF4FF48E
:102FA000002323604FF48013236010BD00E100E094
:102FB000CD1500086D2F0008F51B000810B5094B52
:102FC000094C18680B220221FDF7FCFF2068FEF770
:102FD000E1FD20684FF416520021FEF7C8FE20687C
:102FE00010BD00BF34F6020888020020322838B530
:102FF0003BD8082939D8DFE801F00529171A1D2028
:103000001723260000240322184B00011D18297BDA
:103010001858FDF7D7FF686838B3697BCCB1BDE8B5
:1030200038400122FEF794BB00240422ECE7002480
:103030002246E9E700240922E6E700240822E3E724
:1030400001240B22E0E701240F22DDE70024072200
:10305000DAE702684B1E02F1404220329B0003EB8C
:10306000C2039B0003F184431C6038BDD0F2020808
:1030700008B501211048FDF7C3FA02210F48FDF7FA
:10308000BFFA03210E48FDF7BBFA04210D48FDF7F6
:10309000B7FA05210C48FDF7B3FA06210B48FDF7F6
:1030A000AFFA07210A48FDF7ABFABDE8084008214E
:1030B0000848FDF7A5BA00BF3C12002040120020CE
:1030C00044120020481200204C1200205012002010
:1030D000541200205812002032280DD8074B00014E
:1030E00019181B58097B1B689A6801238B401342EF
:1030F00014BF01200020704700207047D0F2020862
:10310000322810B50ED8084B00011C181B58B1FA14
:1031100081F11A680123207B49098340090103FAE0
:1031200001F1116110BD00BFD0F202080A4A0B4B39
:1031300011689B6800BF00BF12688A42F6D1482020
:10314000C3F58C3303F5A073B3FBF0F34FF47A703F
:1031500000FB0230704700BFC028002010E000E0F4
:1031600038B50446FFF7E2FF05465CB1FDF76BFC9E
:10317000FFF7DCFF401BB0F57A7FF6D3013C05F585
:103180007A75F5D138BD28B10C234343013B18466D
:103190000138FDD8704700000449054BCA6822F485
:1031A000E0621204120C1343CB60704700ED00E0A4
:1031B0000003FA05704701207047000013B5104C5A
:1031C000204619F0C6F92046042119F05BF9204683
:1031D00002220C4919F05AF9002302220A490093ED
:1031E0002046A02319F0B8F9204619F0ABF9204683
:1031F00019F09AF9204602B0BDE8104019F09BB9C9
:1032000064120020EB0500205E12002024280AD062
:10321000252807D10123054A32F81330044AC3F3A5
:103220008903138070470023F5E700BF5E1200207A
:103230005C120020044B03EB00135B6813B1C0B2B7
:10324000FFF786BE704700BFD0F20208024B03486A
:10325000196819F015B900BF1C0000206412002085
:10326000012342798B4010B5DB439AB1012A41F624
:103270005F6218BF0122046813402361036803F1F1
:1032800040430C3301EBC3010123890001F1844168
:103290000B6010BD41F6FF62EDE7002203685B01A1
:1032A00003F184431A607047012203685B0103F154
:1032B0008443C3F88022704770B5224D224C2B788E
:1032C000BFF35B8F13F0010F0AD128461AF070FE8E
:1032D00030B1012000F068FA206028461AF084FE20
:1032E00023681B681E69B20714D5184D0322297B79
:1032F0002868FDF767FE2B68297B1A684FF4803336
:103300008B401361002223681B685B0103F1844337
:10331000C3F80422730713D50C4D0322297B2868B8
:10332000FDF750FE2B68297B1A6801238B4013613F
:10333000002223681B685B0103F18443C3F8082261
:1033400070BD00BF781200207C120020D0F202086D
:103350004FF0FF33044A43601378022B8EBFFF23E4
:10336000591C1170037070477412002038B5426800
:103370000546531C28D003780BB9006938BD846812
:1033800044F62060114B03EB02135A685B7B126812
:1033900003F180433432013B52F823104FF6AF72F1
:1033A00089B20023A1FB00011AF0BEF9E968A0F57B
:1033B0000870091B4FF4E862002380FB01011AF03A
:1033C000B3F9204400B2D9E70020D7E7D0F20208D1
:1033D000F8B501200D4600F0E7F9044600283ED07C
:1033E0001F4E2D017719397B70590322FDF7EAFD35
:1033F000735901251A683B7B204605FA03F31B0429
:103400001361FFF74AFF02222946FEF7A1F922685D
:1034100029469369204623F0FF039361226893694C
:1034200023F47F439361152223689A624FF6AF73AA
:103430002268D3622268536322689363094AFEF7C5
:10344000E9F8084A02212046FEF7E4F82046FFF793
:103450002BFF284623685B0103F184431D60F8BD00
:10346000D0F20208B932000870B5054601200E46B8
:1034700000F09AF903685E63FFF716FF3EB1012181
:10348000FFF7EEFEBDE870400221FFF7E9BE0368DA
:103490000F4C5B0103F18443C3F88461036803228A
:1034A0005B0103F18443C3F888616B681B01E11879
:1034B000097BE058FDF786FD6B681B01E118E358B6
:1034C000097B1A684FF480338B40136170BD00BFD5
:1034D000D0F20208037813B91146FFF7C5BF074BB6
:1034E00003EB0113596839B15B7B086803F1804332
:1034F0003430013B40F82320704700BFD0F202086F
:10350000F8B505780446022D0E4601D90020F8BD15
:103510003229FBDCC0E902234FF0FF33036125B9F8
:10352000FFF756FF08B16660F1E7114B03EB061396
:103530005D68002DEAD0F7B207213846FFF756FD47
:10354000002239462046FFF7C5FF2846FFF7A5FEB3
:1035500015222B689A624FF6AF722B68DA62FFF77A
:10356000A3FE01202B685B0103F184431860DAE7B6
:10357000D0F2020808B541684A1C08D04FF0FF326B
:10358000C9B202610022FFF7A5FF012008BD00209B
:10359000FCE738B5456804466B1C28D0D0E90232F8
:1035A0008B4222DC9142A8BF11464FF4E8602161B2
:1035B000D21AC91A81FB0001D3171AF0B5F84FF6D9
:1035C000AF7100F5087080B2002344F62062A0FBC2
:1035D00001011AF0A9F8E9B282B22046FFF77AFF9A
:1035E000BDE83840322000F08DBC1946DDE738BD1B
:1035F00010B5074C032294F84C10206CFDF7E2FC48
:10360000236C94F84C101A6801238B40136110BD91
:10361000D0F20208062838B58CBF00250A4B0B4CA7
:1036200098BF1D5C2046E46617F06FFC29462046D3
:1036300017F07DFC2046012117F086FC2046BDE8EE
:103640003840002117F08DBC48F702089C27002065
:10365000FF21014817F0A0BC9C2700200B46024622
:103660000021014817F056BD9C2700200146014863
:1036700017F0DCBD9C27002070B50D46064C0146B6
:10368000204617F0D3FD29462046BDE870400123AF
:103690004FF4007217F0BEBD9C2700200228F8B539
:1036A00006460D4639D0052836D100262C4C02227C
:1036B000236801215B0103F184431E602046FEF76D
:1036C00047F828494FF6FF70B1FBF5F1112281420E
:1036D00028BF014623685E629A62D8629A692046D2
:1036E00022F0FF029A6159635B0103F184430121D7
:1036F000DE611D4AFDF78EFF01213220FDF7ACFD92
:10370000012223685B0103F18443C3F8802223680C
:103710005B0103F184431A60F8BD0027134C024695
:10372000236801215B0103F184431F602046FEF7FB
:103730000FF840F2E73223680D495F62B1FBF5F103
:103740009A624FF6FF72914228BF1146DA62204614
:103750005963084A0121FDF75DFF31461C20CDE782
:103760001802002000093D0055720108AC0100203C
:10377000401901004185010802280CD005280CD110
:10378000074B1B685B0103F18443D3F884010030CD
:1037900018BF01207047034BF3E70020704700BFBC
:1037A00018020020AC010020013807289ABF024B04
:1037B00053F820000020704750F702080120014B09
:1037C000187070478012002008B518F087FF00229B
:1037D000014B01201A7008BD801200202DE9F8432A
:1037E0001B4D98462B7806460C46174683B118F0B9
:1037F00069FF184818F01EFF052802D00120BDE817
:10380000F883154818F016FF0528F7D100232B7010
:10381000254607EB04094D45A5EB04030DD03068A0
:1038200015F8011B00F1806000F5FC3018444000E1
:1038300018F022FF0528EED0E0E7BAB24046214654
:103840000EF080F9326800203A443260D7E700BFBA
:103850008012002000F0030800F803082DE9F74368
:1038600005460F4690461E4600249DF828902A687B
:103870004445224413D002F1806202F5FC3252002A
:1038800013788DF80730B9F1000F00D03B550122B5
:103890000DF1070130460EF055F90134E7E700203D
:1038A0002A6003B0BDE8F083FDF7CEBC7047036823
:1038B000C9B21B68184700000023054A9A56824285
:1038C00004D00133172BF8D1002070470120704736
:1038D00046F9020808B500F0A3FABDE8084001481F
:1038E00000F08CBAAAF7020808B511F0ADFC11F08F
:1038F00019FDFE2010F0B2FBBDE8084010F08CBBB3
:10390000124AD2F8803092F88C101868012303FA1A
:1039100001F109040161D2F81011086892F81C1134
:1039200003FA01F109040161D2F82012086892F843
:103930002C1203FA01F109040161D2F8D01292F8B5
:10394000DC22096893401B040B617047D0F2020827
:10395000044BD3F8D02293F8DC12012312688B4079
:1039600013617047D0F2020840B9054BD3F8D0225A
:1039700093F8DC12012312688B401361704700BF7B
:10398000D0F20208012130B4124BD3F88020106825
:1039900093F88C2001FA02F202610F48027822F0BB
:1039A00001040470D3F81041256893F81C4101FA12
:1039B00004F42C6122F003040470D3F8204293F83D
:1039C0002C322468994022F007022161027030BC39
:1039D000FFF7BEBFD0F202085318002008B540F22E
:1039E000E933013B08D000BF00BF00BF42F62F22E1
:1039F000013A00BFFCD1F4E772B640F2E933013B73
:103A000008D000BF00BF00BF41F29312013A00BFCF
:103A1000FCD1F4E714F02CFAFFF746FFFCE70000B6
:103A2000044608B514F024FA00F0FAF9054800F04D
:103A3000E5F90548002C18BF20460DF04DFFFFF7B3
:103A4000CDFF00BFC0F70208B9F7020870B5374BC9
:103A500005461B78032B01D805F010FA344B354A84
:103A60001B6814689BB1344909680B44E31A002BA6
:103A70000DDB00F0D5F9314B3148196800F0D6F96B
:103A80000A213048FFF713FF0020FFF7C9FF2E4B34
:103A90001B6843B12D4908782D49097888420CD01C
:103AA0001268254B1A602B4D2B68E31A002B03DBA1
:103AB000643411F001FB2C6070BD274A1178274A4D
:103AC00089BB85BB1C4909680B44E31A002B2ADB20
:103AD0001378002BE7D101231370214AD2F880100C
:103AE000086892F88C1003FA01F101611D48017811
:103AF00021F001050570D2F810512E6892F81C5182
:103B000003FA05F5356121F003050570D2F820525E
:103B100092F82C222D68934021F007012B6101704F
:103B2000FFF716FFBFE700231370BCE72C1500203A
:103B30008C120020C0280020601300207013002089
:103B400070F702087C100020F0050020B61F00204E
:103B5000B71F00208412002050130020881200207C
:103B6000D0F202085318002010B504460DF004FDF1
:103B700003F052FF2046FFF769FF14F089FA0DF0B9
:103B80006BFF044B1B781BB9BDE8104014F0ECBF71
:103B900010BD00BF9012002010B50D4C14F068F954
:103BA0000EF058FC237893B10A4B1A680A4B1A603E
:103BB00000F036F9094800F021F9002108480DF01D
:103BC000ADFC4FF4AF7000F09DF90023237010BDE1
:103BD000ED0500202815002030150020E6F702082A
:103BE0005DF8020837B5FFF7D7FA514A136823F09A
:103BF000E06343F00073136013F0B4FB4FF4E13162
:103C00004C48FCF7EBFC4C4B4C481B6800F0F6F8BA
:103C100000F000F9FFF7CFFAC507044602D548487F
:103C200000F0ECF8A00702D5464800F0E7F861077D
:103C300002D5454800F0E2F8220702D5434800F0DB
:103C4000DDF8A30602D5424800F0D8F8FFF7B2FA33
:103C5000404800F0D3F820213648FFF728FE3E48C0
:103C600000F0CCF80A213348FFF721FE00F0D2F82B
:103C70003A4800F0C3F83A4800F0C0F8394800F07C
:103C8000BDF800F0C7F8384800F0B8F800F0C2F806
:103C90000020FCF7BFFB0DF10701091A334800F0C3
:103CA000D1F8334C4FF4D861324800F0CBF80A21F8
:103CB0002048FFF7FCFD0DF0B3FB0DF019FE06F0F8
:103CC000E9FA237823B90FF0B1FF08B1012323707B
:103CD000294C2A4D2168286819F0FCF96968206090
:103CE000606819F0F7F9A9686060A06819F0F2F946
:103CF000A06010F091F9224813F07EFF0EF0D2FB85
:103D00000FF0D2FF12F08EFE12F03CFC12F0CEFA51
:103D100000200FF0EBFF012000F012FDFFF7C6FDC1
:103D200001231A461946184601F048F803B030BD81
:103D3000040001407C100020C02800206E210308F0
:103D400065F802086EF802087FF8020891F8020888
:103D5000A2F80208B3F80208BAF80208C5F8020887
:103D6000D5F80208E0F8020809F9020820F902086B
:103D7000811200202FF9020860180020801800200E
:103D8000B822002008B50020FFF7EEFE16F0DEFE98
:103D9000134B1B789B0617D516F0ECFA04F042FD86
:103DA000FFF7A2FD0EF056FB14F062F80021084662
:103DB00013F0DCFC0120002113F0D8FC0022094B99
:103DC00009481A7004F0CAFD084B1B78032B01D870
:103DD00005F054F804F0C8FE10F088F8D3E700BFEF
:103DE000C4260020F4050020E0F702082C1500206E
:103DF000014816F013B900BF8912002010B504461F
:103E000014F9011B19B10248FFF751FDF8E710BD85
:103E10007C1000200148FFF7F1BF00BF64F90208E1
:103E20000148FFF7EBBF00BF5DF9020810B50C4673
:103E3000FFF7E4FF2146BDE810400148FCF79EBCB7
:103E40007C10002010B50C46FFF7D8FF2146BDE8D6
:103E500010400A220148FCF7F7BC00BF7C1000208C
:103E600010B50C46FFF7CAFF2146BDE810400A22F4
:103E70000148FCF7FCBC00BF7C10002013B50C46C9
:103E8000FFF7BCFF204618F095FD02230246009381
:103E900002480B46FCF7C4FD02B010BD7C100020A8
:103EA00010B50C46FFF7AAFF2146BDE810400A22D4
:103EB0000148FCF7F3BC00BF7C10002010B504469D
:103EC000013CE4B2FF2C04D020210248FFF7EFFCB4
:103ED000F6E710BD7C100020034A044B002814BFF5
:103EE00010461846FFF78ABF5400030867FF020810
:103EF00008B5FFF7F1FF0A210148FFF7D8FC08BD1C
:103F00007C10002010B50446322C06D93220323CF9
:103F1000FFF726F914F0BCF8F6E72046FFF720F982
:103F2000BDE8104014F0B4B82DE9F74F1F468300E8
:103F30001D18404C01936B18884654F823100090CC
:103F40000846164619F094FB00286FD0009BF2B289
:103F5000D618F6B23244FBB2D2B206EB860003EBBF
:103F6000080102EB8202C9B200EB080702EB080667
:103F70000B4454F827B054F82670DBB26E18014495
:103F80001D4454F8219013443946384654F826A06D
:103F900054F8256054F8235019F06AFB00B100274B
:103FA0005946584619F064FB00B1BB4631463046CD
:103FB00019F05EFB00B100265146504619F058FB3F
:103FC00000B1B2462946284619F052FB00B100253F
:103FD0004946484619F04CFB00B1A946DDE90023EB
:103FE000594613445846984419F074F8394619F064
:103FF0006FF851460746504619F06CF8314619F0F3
:1040000067F80146384619F065F8494606464846BD
:1040100019F060F8294619F05BF80146304619F0AE
:1040200059F8054919F012FA44F8280003B0BDE820
:10403000F08F00BFD01200200000404000EB800055
:10404000024B014453F82100704700BFD0120020FA
:10405000F8B5022635460224012321461A46C4F14A
:1040600004072846FFF760FFFFB2214601234FF007
:10407000FF323046FFF758FF4FF0FF330122394639
:104080002846FFF751FF4FF0FF33013C1A463946EF
:104090003046E4B2FFF748FFFF2CDDD1013DEDB221
:1040A0000136FF2DF6B2D6D1F8BD000010B5054897
:1040B000FFF7A4FEBDE810400521034B032208468C
:1040C00000F010BA6AF902083D40000870B5164DBC
:1040D000286819F0B3F81549064619F0B5FA20B169
:1040E0001349304619F0A6FAD0B931464FF07E5048
:1040F00019F0ACF90F4C2060686819F09FF80B4973
:10410000054619F0A1FA20B10949284619F092FA9A
:1041100040B929464FF07E5019F098F9606070BDA3
:104120000020E7E70020F9E7C0120020BD3786B580
:10413000BD378635B81200202DE9F74F7B4E054676
:10414000306819F07BF80146286818F0C1FF044672
:10415000706819F073F80146686818F0B9FF744F79
:1041600081462146386819F051FA724D724E68BB8B
:10417000724B3C601968204619F0B4F8804621F073
:104180002DFD0021044619F04BFA0027002839D1F3
:104190004FF08141204619F061FA08B14FF0814497
:1041A0002146404618F094FF0021804619F038FA65
:1041B00050BBC5F80080204619F070FA40B230704C
:1041C00001300428A8BF04205D4B1870DFF894A1CB
:1041D0004946DAF8000019F019FA5A4F96F90040EA
:1041E00097F900800097584E584F78B1A04540D1BC
:1041F0003968286819F076F8316818F06BFF03B059
:10420000BDE8F08F3C46CBE72F60D4E74B4BCAF8B4
:1042100000905968484619F065F8824621F0DEFCA6
:104220000021834619F0FCF94FF00009002877D1EE
:104230004FF08141584619F011FA08B14FF0814B07
:104240005946504618F044FF0021824619F0E8F91B
:104250003F4A002866D1C2F800A0584619F01EFA5D
:104260003C4B40B2187001300428A8BF04203A4BE0
:104270001870384BA04593F90030384ADFF8E890C1
:10428000DFF8E8A0DFF8E88003D192F90010994246
:104290002AD00099DFF8DCB00C7004EB84041370B2
:1042A000E2185BF822102C4AC9F8001092F900209D
:1042B000019314445BF82400009218F009FF204990
:1042C000CAF8000091F90000019B00EB8000034454
:1042D000009A5BF823100244C8F800105BF8220033
:1042E00018F0F6FE1E4B1860194BDAF80010D3F8E0
:1042F00000B0584618F0F6FFD9F8001018F0EAFEA2
:104300000446174B30601968584618F0EBFFD8F890
:10431000001018F0DFFE214618F0DAFE386067E77B
:10432000CB468DE7C2F8009097E700BFC812002087
:10433000F8050020B0120020AC120020B8120020B6
:10434000AE120020F50500209812002094120020E3
:10435000B4120020AD120020AF120020F60500209C
:10436000A0120020FC050020A41200209C120020B6
:10437000A8120020D0120020024B1868003018BF8D
:1043800001207047C01200201FB510B1124B1B68EE
:10439000CBB1124C2378834215D010F0C3FF104AE2
:1043A00001AB07CA83E807001846FFF7C5FE23786C
:1043B0005BB10C4A111FA2F1080010F0EBFE0023C4
:1043C00023700FF029FE04B010BD012306482370AE
:1043D00010F012FFF5E700BFC0120020B41F00204C
:1043E00084F902086818002060180020F0B5224DFA
:1043F00085B004460E460146286819F007F90028E2
:1044000037D11E4B1F78FFF7BFFF0021204619F060
:1044100025F900B900242C601949204619F014F937
:1044200020B11849204619F005F900BB21464FF08C
:104430007E5019F00BF8144B144A1860144B1A6094
:10444000BFB1144C01202368019363680293A368F1
:104450000393FFF799FF66B10C22214601A823F0D0
:1044600011FA30B105B0BDE8F0400FF0A5BD002055
:10447000E1E705B0F0BD00BF901F0020B41F002091
:10448000BD3786B5BD378635C01F0020F0FF79C423
:10449000AC1800206018002008B50020FFF774FF5A
:1044A00000230C4AC2E900330B4AC2E900330B4B2C
:1044B00003F164010A4A143343F8142C43F8102C16
:1044C00043F80C2C43F8082C43F8042C9942F1D102
:1044D00008BD00BFC0120020C8120020D01200206A
:1044E0000000C07F2DE9F74F0446894617469A46DB
:1044F0000025A5420FD0EBB20A2B34BF03200220C7
:104500003844C0B2FFF7DAFC29460A222D48FCF7EE
:104510009BF90135EDE70A212A48FFF7C8F9002485
:10452000A1455FFA84FB46D0092C03D820212548F9
:10453000FFF7BDF90A2221462248FCF785F900263B
:10454000AE425FFA86F830D020211E48FFF7AFF95F
:1045500059464046D0470146804619F089F898B937
:104560000021404619F070F818B12B211548FFF7CB
:104570009EF9404618F01EFA009702460B46114875
:10458000FCF74EFA0136DBE74FF000085FFA88F3DC
:10459000BA1C9A42F6DB002B14BF3D2120210948AA
:1045A000FFF785F908F10108F0E70A210548FFF750
:1045B0007EF90134B4E70A210248FFF778F903B025
:1045C000BDE8F08F7C100020064BD3F8F02093F864
:1045D000FC10012312688B409268134214BF012023
:1045E00000207047D0F2020810B50C46014607487B
:1045F000FEF7CFFF2068B0F5FA7F38BF4FF4FA70AE
:10460000FFF780FCBDE81040FFF7DEBF5C20002014
:104610004FF4FA7337B540F2EE2502AC44F8043D8E
:104620002146A020FFF7E0FF21465A200195FFF721
:10463000DBFF21460A200195FFF7D6FF21465A20CD
:104640000195FFF7D1FF03B030BD000037B540F250
:10465000EE2502AC44F8045D21460A20FFF7C4FFB2
:1046600018B90024204603B030BDFFF7D1FF214622
:104670000A200195FFF7B8FF04460028F1D0FFF7A4
:10468000CFFB0348FFF7BAFBFFF786FAEAE700BF64
:1046900090F9020837B540F2EE2502AC44F8045D0B
:1046A00021465A20FFF7A0FF18B90024204603B086
:1046B00030BD4FF4FA732146A0200193FFF794FF19
:1046C00021465A200195FFF78FFF04460028ECD0C1
:1046D000FFF7A6FB0248FFF791FBFFF75DFAE5E75E
:1046E00090F9020840F2EE2373B502AC44F8043DA1
:1046F000214606460A20FFF777FF962021460190C3
:1047000006B18C209625FFF76FFF21468220019588
:10471000FFF76AFF019521466EB18C20FFF764FF19
:1047200040F2EE2321465A200193FFF75DFF034B31
:104730001E7002B070BD2846F0E700BF34130020A1
:104740004FF4FA7337B502AC44F8043D21460546F0
:10475000A020FFF749FF40F2EE2321465A200193A3
:10476000FFF742FF044B1B781BB115B10020FFF788
:10477000B9FF03B030BD00BF3413002038B51B4B68
:1047800093F90030012B2DD0194D19B10023194A8E
:104790002B601370184B1A682B68D31A002B21DB7F
:1047A000144C002894F900301DDB011D994219DBDF
:1047B0009842CCBF4FF47A704FF4FA7003F00103C3
:1047C0001902C91A03EBC10103EBC10189001044AE
:1047D00001F55C71286089B232200DF073F92378FD
:1047E0000133237038BD4FF47A70E7E700060020EC
:1047F0004C13002048130020C028002010B5104B97
:1048000001461B781B070AD40E4B1C783CB90E4B93
:10481000B3F908200D4BB3F900309A4209DB0B20A5
:1048200000220AF029F8BDE810400121002014F010
:10483000D7B9FFF7EFFA0648FFF7E0FA204610BDB8
:10484000921200203C2200200C2200207A06002038
:104850005EFA020830B50F4B0F4C85B000680D466C
:10486000196818F0F3FDE16818F034FC23460022C3
:1048700043F80C0F02920022211DCDE90052204680
:1048800004F1080211F04EFB05B0BDE8304010F015
:1048900049BD00BF60060020601800202DE9F04FE0
:1048A00085B09DF9405081462846884617469A466D
:1048B0009DF838409DF83CB0FFF7A0FF064648B988
:1048C00024B102462946092009F0D6FF304605B03A
:1048D000BDE8F08FBBF1000F28D024B1002229469B
:1048E000042009F0C9FFFFF795FA3A48FFF786FA66
:1048F00001215046FFF742FF0321374B012093F976
:104900000020197035499B460B46087019780193B1
:1049100051B1002150460092FFF730FF0120FFF710
:1049200023F9DDE90023F1E78BF8002024B1002210
:104930002946052009F0A0FF0021D9F8000018F051
:1049400065FE30B9264B04A941F8043D4846FFF7FF
:1049500081FF0021D8F8000018F058FE68B9214DF9
:10496000214BD5F83890AB63204B04A941F8043DA6
:104970004046FFF76FFFC5F838900021386818F0FF
:104980006DFE60B124B100220620114609F074FFCB
:10499000174B04A941F8043D3846FFF75BFF002C94
:1049A00094D0032300220C4D114695F900802B7002
:1049B0000A4B07201A7009F05FFF0E4B93F9003085
:1049C0001BB90120FFF7D0F8F7E7012B85F800802D
:1049D000D3D07BE7DBF902085D13002091120020A1
:1049E0000000C040042000200000C8410000F04149
:1049F000000040405C1300202DE9F743814610463B
:104A00000E461446FFF7FAFE054648B926B102469F
:104A10000146092009F030FF284603B0BDE8F083C5
:104A200026B100222146032009F026FF154F02ACD3
:104A300044F8047D144B214668460093FFF70AFFB3
:104A400041F28830FFF75EFA104E114B2146009379
:104A5000336B68460193FFF7FDFE0E4BD6F83880A6
:104A6000B363D9F800302146684600930197FFF7F9
:104A7000F1FE0020C6F83880FEF776FF6420FFF7CD
:104A800041FAC9E700004842000080C0042000202D
:104A9000000040410000C8412DE9F7433B4D1F464F
:104AA0002B7880468946164623B10024204603B061
:104AB000BDE8F083364B1B7818070FD4002110682F
:104AC00018F0A4FD50B9334B1C783CB9324BB3F904
:104AD0000820324BB3F900309A423EDB0123304AC2
:104AE0002B701378590749D40DF0C8FC2D4C2E4B70
:104AF0000FCB84E80F0010F015FC0021D8F800005F
:104B000018F084FD98B9234B1B784BB9224B586899
:104B100018F0C4FD214B00B2B3F90030984206DB17
:104B2000224B02A941F8043D4046FFF793FE0122C3
:104B3000114610460FF05AFE18B9494602200DF0F2
:104B40001DF80021306818F061FDE8B901223946EE
:104B50003046FFF751FF0124A8E7FFF75BF914483F
:104B6000FFF74CF9002FA0D021462246092009F07A
:104B700083FE21460F480CF0D1FC97E76FF38203C8
:104B8000137002232B70AFE701248FE7501300202E
:104B9000921200203C2200200C2200207A060020E5
:104BA000C42600203813002060180020000048426E
:104BB0005EFA0208CAF90208002210B5044611463E
:104BC000904214BF0420022009F056FEFFF722F99C
:104BD0000448054B002C08BF1846BDE81040FFF7FD
:104BE0000DB900BF07FA020829FA02082DE9F84FAB
:104BF00089468346FFF7E0FF01214846FFF7BEFDE7
:104C0000244A254C1368254F03F52F43C8332360EE
:104C100000232371032397F900A03B7001239046E2
:104C20001F4D2B702B7883B300214846FFF7A6FD5C
:104C3000237933B300220A20114609F01DFEFFF745
:104C4000E9F81848FFF7DAF82E781EB10120FEF7D0
:104C50008BFFF9E730462660267113F097F830464F
:104C6000FFF7CCFD5846FFF7A7FF0121D8F8003029
:104C7000484603F52F43C833236026712970FFF798
:104C80007DFD0120FEF770FFCCE787F800A0BDE8AE
:104C9000F88F00BFC0280020042200205D130020F0
:104CA0009112002041FA02082DE9F043354C994653
:104CB000237887B006460F469046002B5FD0002031
:104CC000314B1D791860187113F060F865B92F4BDE
:104CD0001B784BB92E4B586818F0E0FC2D4B00B2F6
:104CE000B3F90030984209DB01234246CDE9015374
:104CF000009339464B463046FFF7D0FD0022264D43
:104D00001146082009F0B8FD0021E86818F088FC79
:104D100030B1224B05A905F10C000593FFF79AFD70
:104D20001F49204B05AA081F05930FF02BFA1E4BB5
:104D300005A91E4805930FF019FAEB681C481D4A97
:104D400040F80C3FD36011F089F900220920114688
:104D500009F092FD2378013BDBB2237023B115F0FB
:104D6000FFFA2378013B2370134B93F90030022B99
:104D700001D10DF0C7FB0CF0BBFD06F029FD07B01B
:104D8000BDE8F08350130020042200203C220020C4
:104D90000C2200207A060020381300200000484230
:104DA0003C1300200000C8420000A0404013002037
:104DB000701800206018002034180020F8B50D4647
:104DC00017461E46002800F09E805648FFF716F84A
:104DD00058215548FEF76BFD5448FFF70FF854482B
:104DE00017F0F9FA0446002800F08B805148FFF7CD
:104DF00005F8012C00F083804F48504B022C18BF5F
:104E00001846FEF7FBFF0A214748FEF750FD003425
:104E100018BF01241DB34348FEF7F0FF5921424853
:104E2000FEF745FD4148FEF7E9FF454817F0D3FA84
:104E3000054600286BD03F48FEF7E0FF012D64D007
:104E40003D483E4B022D18BF1846FEF7D7FF002DF8
:104E500018BF01340A213448FEF729FDE4B21FB31C
:104E60003048FEF7CBFF5A212F48FEF720FD2F4890
:104E7000FEF7C4FF334817F0AEFA054600284AD0C3
:104E80002C48FEF7BBFF012D43D02B482B4B022DA6
:104E900018BF1846FEF7B2FF002D18BF01340A21D3
:104EA0002148FEF704FDE4B216B31E48FEF7A6FF44
:104EB00045211D48FEF7FBFC1C48FEF79FFF2248DA
:104EC00017F089FA054650B31A48FEF797FF012DEF
:104ED00023D01948194B022D18BF1846FEF78EFF34
:104EE000002D18BF01340A210F48FEF7E0FCE4B2A0
:104EF000BCB1BDE8F840002114480CF00FBB1448C9
:104F00007FE70E487DE7044684E711489DE70B489C
:104F10009BE70F48BEE70948BCE70D48DEE70748B6
:104F2000DCE7F8BD7BFA02087C10002084FA020856
:104F30004421002094FA020877FA02086FFA020866
:104F400084210020C421002004210020A0FA0208AE
:104F500072FA02084138C3B2192B2DD8174A1068CB
:104F6000D84010F0010028D0154AD25C12B3154B7E
:104F700019688B188A56A2F13001C9B2092906D9DD
:104F80002E2A08D15A78303A092A88BF00230E4ABF
:104F90000120136070472D2A01D02B2A0AD193F9E2
:104FA0000110A1F13002D2B2092AF0D92E2901D183
:104FB0009A78E8E70023EAE700207047941300207E
:104FC00076130020701300209813002008B5FFF717
:104FD000C1FF20B1024B1868003018BF012008BD86
:104FE00098130020034B186818B10A22002124F0FE
:104FF00061BD7047981300202DE9F0414E4B1B789E
:10500000002B00F097804920FFF7E0FF054680B1B4
:10501000FFF7E8FF4FFA80F84A20FFF7D7FF064670
:1050200048B1FFF7DFFF47B245B9FBB2042B10D9F7
:1050300008E08046F0E7002D35D007465FFA88F398
:10504000042B04D9BDE8F0413C48FEF7D7BE002E42
:10505000EBD13B4C3B4B0FCB84E80F0045B13A4BB7
:1050600018683A4B1B6800FB083018F0E7F820601E
:1050700046B1354B5868354B5B6800FB073018F07C
:10508000DDF860605020FFF7A1FF002842D0304BD0
:105090001B6853B9002D43D1A6B160682D4918F0A3
:1050A00019F860600EE02F46D3E7FFF79BFF00285A
:1050B00008DBFFF797FFFF28ECDCFFF793FF10F00A
:1050C000FF0FE7D14620FFF781FFF8B1204B1868AA
:1050D000E0B10246164612F9014B34F0200125D00A
:1050E000452C01D0652CF5D100213170186824F0D1
:1050F00001FC054634700021284618F0AFFA28B1AB
:105100001549284618F0A2F9144B1860BDE8F04183
:105110000FF0EAB95020FFF71DFF0028D2D0B9E701
:1051200020680F4917F0D6FF2060B5E724F0E2FBB6
:105130000546E0E7BDE8F081ED050020B5FA02087C
:105140007018002060180020C0120020C812002033
:10515000981300200000E040000070422406002068
:105160000000344238B50D4B1868A8B10246154608
:1051700012F9014B34F020010AD0452C01D0652CE6
:10518000F5D100212970186824F0B4FB2C7038BDCB
:10519000BDE8384024F0AEBB0020F8E798130020AB
:1051A0002DE9F04F532087B0FFF7D4FE002850D0F0
:1051B000724B1B68002B3AD10126714B56201A689E
:1051C00003925A689B6804920593FFF7C3FE074653
:1051D000FFF7D2F800287BD04320FFF7BBFE002862
:1051E00000F0B180FFF7BEFF05248346DFF8C4A1BD
:1051F000DFF8C491013CE4B2FF2C2DD00525013D20
:10520000EDB2FF2DF6D004EB84035E4A2B4452F836
:1052100023804946404618F003FA00B1C146514682
:10522000404618F01BFA0028E9D0C246E7E7FFF72E
:10523000D9FE002808DBFFF7D5FEFF28BCDCFFF70E
:10524000D1FE10F0FF0FB7D10020FFF79DF8002628
:10525000B3E74D4B1E78B0E75146484617F03AFF8A
:1052600017F0A8FB0022494B17F0FCFB04465846F8
:105270000D4617F09FFB02460B462046294617F0C5
:105280003BFA17F0D1FE4249814618F0DDF928B10A
:105290004049484618F0CEF9002854D10020FFF7C5
:1052A00073F80524013CE4B2FF2C4CD00525013DE8
:1052B000EDB2FF2DF6D0DFF8CCA004EB8408A844B3
:1052C0005AF82800494617F003FF4AF82800EEE78D
:1052D0000EB9002F3DD0FEF79DFD2F48FEF78EFD45
:1052E000294C36B1237823B9FEF79AFD2B48FEF7F7
:1052F00085FDFEF78FFD2A48FEF780FD2078FEF73A
:10530000F7FDFEF787FD2748FEF778FD264B0021C5
:105310001C68204618F0A2F940B3204617F04AFB5B
:1053200002230246009321480B46FBF77EFB0C222A
:1053300013490DEB020022F0A5FAD8B107B0BDE881
:10534000F04F0EF039BE27B1FFF716F808B1FEF79F
:10535000ADFE5A20FFF7FEFD20B1FFF703FF00214D
:10536000FFF744F83046FFF70FF8B9E71048FEF7AB
:1053700045FDDCE707B0BDE8F08F00BF98130020C3
:1053800060180020D0120020B41F00200000E03F71
:10539000BD3786B5BD378635D4FA0208E3FA020870
:1053A00002FB020810FB0208901F00207C10002066
:1053B0001DFB02080000C8C20000C84270B50D46BF
:1053C00004461A49284617F085FE1949064618F082
:1053D0003BF950B31749304618F02CF928B3164959
:1053E000204617F077FE1249064618F02DF9E0B175
:1053F0001249304618F01EF9B8B11149204618F08C
:1054000023F990B10F49204618F014F968B10C49FE
:10541000284618F019F940B10B4928464FF001040D
:1054200018F008F900B90446E0B270BD0000E04091
:1054300017B7D1B807006B4300003442070075432B
:105440002EFF9F40070048430700644308B5FFF75D
:10545000C9FD002807DBFFF7C5FDFF2805DCFFF7C6
:10546000C1FDC0B208BD0020FCE7FF20FAE7000044
:1054700038B505460C46FFF7A9FD58B1084B1B6827
:1054800013B90124204638BDFFF7E0FF041C18BF04
:105490000124F7E72846FFF75DFD0028F2D0F0E78A
:1054A0009813002010B50C46FFF790FD10B1FFF7E0
:1054B00059FE0446204610BD01222DE9F04F114649
:1054C00093B010460FF092F9014610BBB84C227809
:1054D000D2B957202578FFF73DFDE8B94A20FFF7FC
:1054E00039FD002840F0EF805620FFF76FFD0028BF
:1054F00000F0B980FFF776FD0FFA80FBBBF1040FD7
:1055000040F2B280AB480DE04F20FFF7B1FF00281A
:10551000DFD013B0BDE8F08FFEF72EFF28B9FEF7FD
:105520007FFCA548FEF76AFCF3E75A20FFF74EFD23
:10553000A0B1FFF717FEA14B996817F0C9FD074608
:105540009F49384618F080F820B19E49384618F037
:1055500071F830B9FEF764FC9B48E3E79B4B9F680A
:10556000EEE7964C9A495820FFF79CFF216817F008
:10557000AFFD974981465920FFF794FF616817F006
:10558000A7FD80464920FFF721FD002863D0FFF7E3
:105590005DFF44B24A20FFF719FD00285DD0FFF7F8
:1055A00055FF46B24946484618F062F8002838D1FF
:1055B0004146404618F05CF8824690BB854E306804
:1055C00017F03CFE0146484617F082FD17F0F2F94D
:1055D0000022002317F090F80022002317F06CFB44
:1055E00017F0DAFC44B2706817F028FE0146404616
:1055F00017F06EFD17F0DEF90022002317F07CF89B
:105600000022002317F058FB17F0C6FC002C46B20E
:1056100025DB042CA8BF0424002E22DB042EA8BF07
:105620000426E3B2042B3FF674AFF3B2052B3FF62A
:1056300070AF0020FEF7A8FE04EB8404664B3444F0
:10564000284643F82470FEF79FFE002D3FF461AF1B
:105650000EF0B2FC5DE7FF209BE7FF20A1E7544678
:10566000DAE70026DDE7834600214420FFF700FF4C
:10567000002104905A20FFF715FF58490F9053203E
:10568000FFF710FF564917F0E1FE564B186048200F
:10569000FFF760FCD0B1FFF765FD17F0FFFF0224B4
:1056A00000B290FBF4F4C4F17504052CB8BF0524D6
:1056B0000719C72F264640F3A280E32F00F3A180ED
:1056C0004FF0C8083BE0FEF7E7FE22E74C20FFF76B
:1056D0007DFC00286AD0FFF745FD384B196817F0AC
:1056E000F7FC17F0DBFF04465220FFF76FFC0028A1
:1056F00000F08080FFF736FD304B196817F0E8FCAA
:1057000017F0CCFF80464620FFF760FC002874D0DD
:10571000FFF728FD294B596817F0DAFC17F0BEFF98
:1057200006464220FFF752FC00286CD0FFF71AFD16
:10573000224B596817F0CCFC17F0B0FF0746204603
:1057400017F07CFD0790304617F078FD0890014671
:105750000798FFF733FE002857D0384617F06EFD44
:105760008146404617F06AFD4946FFF727FE039041
:1057700000284AD0BBF1000F0BDD1B48FEF73EFBB3
:10578000049B13B11948FEF739FB0A211848FAF7B0
:10579000D1FE0FF0C7FD0020FEF7F6FD012010F04E
:1057A00023FDA0B32846FEF7EFFDB2E622249BE7D7
:1057B000B41F002041FB020822FB02089C180020B5
:1057C000000020C10000204134FB020860180020C6
:1057D0000000C07FC8120020D01200200080BB450E
:1057E000000070424806002085FB02089BFB02086F
:1057F0007C1000204FF0C80885E7142691E7B846D2
:105800009DE7E4275CE7D62799E792488AE6A8EB6C
:1058100004004FF0040890FBF8F017F00FFD05901E
:10582000B81B90FBF8F017F009FD8B4F06900EF0B7
:10583000B3FC386817F002FD059917F0E7FEDFF8B2
:10584000408270B1786817F0F9FC069917F0DEFE17
:1058500038B1D8F80030A34203D1D8F80430B342AD
:105860000CD0FEF719FE059817F018FF386006985F
:1058700017F014FF0025C8E9004678600021452094
:10588000FFF7F6FD002600280CBF022301230027A6
:105890004FF001094FF0050834460E93039B09931E
:1058A00006EB860A0AF1010A5FFA8AFAA04500F0BF
:1058B0009580204617F0C2FC059917F013FD079953
:1058C00017F008FC0A90304617F0B8FC069917F05C
:1058D00009FD089917F0FEFB07460A9817F06AF8C9
:1058E000CDE90C0100210A9817F09AFE0022002849
:1058F0006DD00023DDE90C0116F0FEFE17F094FBDD
:1059000020F06CF91090384617F054F8CDE90A01F0
:105910000021384617F084FE0022002859D00023C9
:10592000DDE90A0116F0E8FE17F07EFB20F056F9DB
:105930001190BBF1000F0AD051464848FEF782FA99
:1059400047481921FEF77EFA4648FEF757FA192311
:105950005246454900200BF0C5FD01230E9A0093E5
:1059600011A95FFA8BF310A810F0A6FC01460746B8
:1059700017F07EFE0A9070BB39460F9817F0AAFB0D
:1059800004EB84050A9A394B354443F82500104648
:10599000FEF7EAF80A9A0AF1010A4C445FFA8AFA19
:1059A00064B2154682E7099B013683F0010313F0C8
:1059B000FF0308BF4FF0FF3909931DBF4FF00109E6
:1059C0004FF005080446C84608BF042468E7284B82
:1059D00090E7274BA4E72846FEF7D6FC042E05D017
:1059E0003946384617F044FE0028DCD00BF080FF23
:1059F000002010F0F9FB1F4E80B12846FEF7C4FCD2
:105A00000EF0DEFB33780BB10EF006FB10F036FC27
:105A10000FF088FC184801F0C9FF19E639463846EE
:105A200017F026FE0028EBD1049B0BB9FEF710FB04
:105A3000FEF73CFBFEF74AFB049B4BB90F4C20469C
:105A4000FEF77AFB0146A06817F042FB039DA060B9
:105A50003570D5E769FB0208C0120020A5FB0208DB
:105A60002120030893FD0208B9FB0208D012002090
:105A70000000E03FB41F0020CCFB020860180020AB
:105A8000C812002010B50C46FFF764FA38B1054B78
:105A9000186820B10A22002124F00CF804B2204634
:105AA00010BD00BF981300202DE9F8434FF0FF31DF
:105AB0004920FFF7E7FF4FF0FF31074644B24A2085
:105AC000FFF7E0FF054646B25A20FFF743FA81464A
:105AD000A0B95120FFF73EFA8046002C07DB002ECC
